:020000041000EA
:1004000000C00E08EB0400100D00000049050010AC
:1004100000000000000000000000000000000000DC
:100420000000000000000000000000004505001072
:100430000000000000000000450500104505001008
:100440004505001045050010450500104505001044
:100450004505001045050010450500104505001034
:100460004505001045050010450500104505001024
:100470004505001045050010450500104505001014
:1004800010B5064C2378002B07D1054B002B02D06A
:10049000044800E000BF0123237010BD00060E08D1
:1004A0000000000040920010044B10B5002B03D058
:1004B0000349044800E000BF10BDC0460000000032
:1004C00004060E08409200100230800803D001306C
:1004D0000238FCD1C046C0467047EFF3108072B6B8
:1004E000704780F3108870477047FFF7FDFF72B6C2
:1004F0000E4C0F4DAC4209DA21686268A368043BD8
:1005000002DBC858D050FAE70C34F3E709490A4A2D
:100510000020521A02DD043A8850FCDC07480849E2
:100520000860BFF34F8F06F05BFEFEE74C920010B1
:100530006492001000060E082C110E0800000E0830
:1005400008ED00E0FEE7FEE700B504207146084232
:1005500002D0EFF3098001E0EFF30880043005F0EA
:10056000F5FEFEE70300093B0122042B02D92038E7
:100570004242424110007047F0B5002517000600C6
:100580002C0089B003930E9B02901B0CDBB20493EA
:100590000E9B00911B0ADBB205930E9BDBB2079307
:1005A000731C069333780193002B08D0009B002B1B
:1005B00022DB029A731C9B1A009A9A421CDA0E9B49
:1005C000DBB2002B00D1B4E0019A9A4200D0AEE039
:1005D000009B002B06DB029A731C9B1A009A934225
:1005E00000DDA4E0B31C7678032D00D9A1E028003B
:1005F00006F0D8FE8989637B0198FFF7B3FF0028D6
:1006000039D1079B019A9342D9D04F4E1100300047
:1006100008F0B2F9031E08D1049B019A93420BD053
:10062000059B93426FD133003F33032D23D828001D
:1006300006F0B8FE0510233533003E33F5E7002FF2
:1006400006D0039A94425ED23F4A9B1A9B003B55C8
:10065000012510E0621C002F0BD003998A4252D270
:1006600039493C195B1A2178181101431B0121708B
:10067000BB5414000225069E92E7621C002F0BD08B
:1006800003998A423FD230493C195B1A217898106D
:1006900001439B012170BB5414000325EBE7002F9D
:1006A00008D0039A94422ED227493A195B1A11783E
:1006B0000B43137001340025DDE71D00002E22D00E
:1006C000009B002B22DB029B009AEB1A9A421DDA58
:1006D000019BB34217D1009B002B04DD029B009AC3
:1006E000EB1A93420FDC2E786B1C029A9D1A002E97
:1006F00004D0009B002B11DBAB420FDA002F18D087
:100700003B5D002B15D00124644219E03000FFF757
:1007100029FF0028DCD02E780135CFE73000FFF725
:1007200021FF0028EFD0029B5E5D0135DFE7002D41
:10073000E9D1039B9C42E6D2002F01D000233B5518
:10074000200009B0F0BDC046E08B0010002210B5BB
:1007500004001000A15C0B00303B092B09D8303895
:100760000818531C032A03D000011A00042BF1D1EE
:1007700010BD0B00413B052B01D83738F0E70B00CB
:10078000613B052B01D85738EAE70020F0E700006D
:10079000F0B50B7885B0039017004D1C222B17D0B5
:1007A000116000202AE05C2A07D1019A5278002AC1
:1007B000F7D0019A013301320192019A013201927C
:1007C000019A1278222A00D1A7E0002AEBD1E8E7AB
:1007D00001950023F4E72B785C2B11D023700135B1
:1007E0000134019B9D42F6D30023039A2370083302
:1007F000D36013000198029A01301A6105B0F0BD70
:100800006B78662B63D014D82F2B61D007D8222B9E
:100810005ED0484B3D601B6802989847C1E75C2B4F
:1008200056D0622BF5D1082323700134063BED1816
:10083000D7E7722B50D006D86E2BEAD10A2323704B
:100840000134083BF3E7742B48D0752BE1D1019BB1
:100850005B1B052BDDDDA81CFFF778FF364B374A05
:10086000C31806009342D4D90028D2D0344B334A5F
:10087000C318934234D8019AAB1DD31A052BC8DD97
:10088000AB795C2BC5D1EB79752BC2D12800083030
:10089000FFF75CFF284B294AC3189342B9D8294B6C
:1008A000B6021E4080238005800D5B020643F618C9
:1008B0000C23254A96421FD9244A9642A9D83F20A4
:1008C0003040802676420643E670042212E00C2374
:1008D000237001340223AAE70D23F9E70923F7E780
:1008E0007F2804D91A4B98420ED90623E1E7062344
:1008F00001222070A4189AE73F20304080267642DB
:100900000643A6700322F5E73F20802306405B42A2
:100910001E43667086330222ECE7019A501AC01A11
:100920000C4B04301B6898470290041E00D058E717
:1009300037E7C04680000E080024FFFFFF030000D9
:100940000028FFFF00FC0F00FFFF0000FFFF10006A
:10095000FF07000084000E08002803D00378013B45
:100960001F2B00D970470130F6E70000064B10B589
:100970001B6828209847041E03D02822002107F076
:1009800038FF200010BDC04684000E080849094AFF
:10099000002803D1084B0B60084B07E00368002BCD
:1009A00000D1054B0B604368002BF5D013607047F6
:1009B00084000E0880000E0895870010A98700109B
:1009C000F8B5802604007600002C00D1F8BDE3685D
:1009D0002768334204D1A068002801D0FFF7F0FF58
:1009E000E3680B4D334204D12069002801D02B6805
:1009F00098478022E3689200134204D1206A0028BD
:100A000001D02B68984720002B6898473C00DBE713
:100A100080000E08F0B5040085B00F001600002914
:100A200001D1002013E004226F49380007F0C4FF11
:100A3000002803D10223E360381D08E005226B493A
:100A4000380007F0B9FF002803D1E060781D05B039
:100A5000F0BD04226649380007F0AEFF002806D139
:100A600001230122E3600023A261E361E4E73B7814
:100A7000222B05D1320039002000FFF789FEE6E77E
:100A80002D2B03D01A00303A092A24D800250A2237
:100A900003A93800039508F04DF803000398874236
:100AA000BFD05A1C0AD1534A914211D10122514B55
:100AB0005242A261E3610423E360C8E7002B07D13F
:100AC00080221206914203D1802300221B06F0E708
:100AD000A361E161EFE75B2B35D1781CFFF73CFFA9
:100AE000037805005D2B26D00023013D0193009380
:100AF000FFF73CFF009B071E6FD0002B19D0019B16
:100B000018604360681CFFF727FF320001003800BF
:100B1000FFF780FFFFF720FF051E06D0037801973F
:100B20002C2BE5D05D2B08D030600098FFF748FFF4
:100B300077E70090E6E7002300931023E360009B33
:100B4000681CA36083E77B2B4BD1781CFFF704FF65
:100B5000037807007D2B38D00023013F01930093D9
:100B6000FFF704FF009B051E37D0002B17D0019B19
:100B700018604360781CFFF7EFFE32000100280088
:100B8000FFF706FEFFF7E8FE0028CED02B692B62A8
:100B900000232B6103783A2B03D03060C5E7009027
:100BA000E8E70130FFF7D8FE320001002800FFF728
:100BB00031FFFFF7D1FE071EB7D0037801952C2B2C
:100BC000CED07D2B03D03060AFE7002300932023ED
:100BD000E360009B781CA36039E7002B00D120E77D
:100BE000A3E737601DE7C0461F8C0010248C00105F
:100BF0002A8C0010FFFFFF7FF7B505000E00019261
:100C00000F1E00D1144FFFF7B1FE002304003B601C
:100C100098420DD02800FFF79FFE3A000100200007
:100C2000FFF7F8FE051E05D12000FFF7C9FE0024DE
:100C30002000FEBD019B002B0AD0FFF78DFE03783C
:100C40000500002B04D02000FFF7BAFE3D60EEE760
:100C5000002EEDD03560EBE71C060E08002210B523
:100C60001100FFF7C9FF10BD802233B5450AFFB060
:100C70006D02040029009200684607F0B1FD0123CF
:100C80006A46E405E40D69462800135501F0E2F9CF
:100C90007FB036BD10B5183909180B780020012B2C
:100CA00002D00800FFF7E0FF10BD0000F0B58DB0E6
:100CB0001D0015AB1B780E0003930023170005A938
:100CC00006AA0593069300F048F9041E4BD12F4B5A
:100CD0003200009306993B000598FFF74DFC002871
:100CE00051DD0C22210009A807F083FD022008AA8B
:100CF00007A9FF300794089400F0A6FF002802D04F
:100D0000652464422FE02900079800F063FE002864
:100D1000F6D1033008AA07A9FF3000F095FF00289C
:100D2000EED11299079800F0F3FD041E1BD109A91A
:100D3000300000F02AF9041E15D112990A9800F02B
:100D400043FD041E0FD1039A29000B9800F03CF9D3
:100D5000041E05D1139B002B08D1149B002B0DD131
:100D60000998FFF72DFE20000DB0F0BD13990998EA
:100D700000F006FC0028F0D00400F1E7149909986F
:100D800000F0D4FCF8E71424BBE7C046005F2D0058
:100D9000F0B58BB01F0010AB059204CB04911B780B
:100DA00006920793002309AA08A90600089309934D
:100DB00000F0D3F8041E22D1099800F06BF804006B
:100DC00007F0E8FC051E20D0114B020000930999A2
:100DD00023000898FFF7D0FB002813DD079B2200B3
:100DE0000393069B01970293059B29000093300013
:100DF000049BFFF75BFF0400280007F0D5FC2000F0
:100E00000BB0F0BD14246442F6E764246442F6E7B4
:100E1000005F2D0010B5010004000B4807F0BAFD7B
:100E2000002398420DD02100084807F0B3FD0123AC
:100E3000002806D02100064807F0ACFD434243419C
:100E40005B00180010BDC046148E00101D8E0010EF
:100E5000258E001010B5010004000B4807F09AFD24
:100E6000002398420DD02100084807F093FD01238C
:100E7000002806D02100064807F08CFD434243417C
:100E80005B00180010BDC046FA8D0010038E0010E4
:100E90000F8E001003235843800898430430704796
:100EA000F8B50D0000281FD000291DD0C3680860C8
:100EB000202B1CD184680F4F002C01D12000F8BDDD
:100EC000266A002E06D031000B4807F063FD00288B
:100ED00002D16C602468EFE73100380007F05AFD5A
:100EE0000028F7D1AC60F5E701204042E7E7022097
:100EF000FBE7C046338E00102D8E0010F0B50700C2
:100F00000D00002491B001AE002D02D1280011B0D7
:100F1000F0BD296A002904D0380007F03BFD002805
:100F2000F4D0AB68002B06D00E2C12D8A20095513D
:100F300001341D00E8E72B68002BFAD1002C0AD001
:100F4000013CA3009B591B68002BF2D1002CF7D168
:100F5000EFE70025DAE72500D8E7F8B50E002E21E7
:100F6000170007F009FD041E0CD0451C2E21280097
:100F700007F002FD002805D0001B01383860002072
:100F80003560F8BD16204042FBE770B50500002033
:100F90000C00FFF7FBFC2800FFF760FE002803D0E1
:100FA0002100FFF77DFF70BD05204042FBE70023D5
:100FB00004220133002901D1904203D952001D2B94
:100FC000F7D1023318007047F0B50C0087B001006C
:100FD000C1480592FFF792FF002800D18BE2836899
:100FE0000093019300231F0004930393019B002BA4
:100FF0006CD1009BDB680193202B00D07CE2009E2B
:101000003100B648FFF77AFF051E00D1E6E0037E07
:10101000059A9A4200D0E1E00100B148FFF76EFF67
:10102000002800D1D4E0836923702900AD48FFF780
:1010300065FF1423002800D0836963602900AA4853
:10104000FFF75CFF0123002802D0C3685A1E9341BA
:1010500023722900A548FFF751FF002800D1BAE00C
:101060008369E360002329006376A148FFF746FF08
:10107000002807D001699F4807F08CFC002801D1A7
:10108000012363762300627E49331A70009E002F8D
:1010900000D031E231009148FFF730FF002800D145
:1010A000A1E02278037E9A4200D09CE03100924871
:1010B000FFF724FF002800D10AE130238269551E82
:1010C0006B43E3181A760223019393E001998B484E
:1010D000FFF714FF002802D08668002E03D1019B81
:1010E0001B68019382E731008548FFF707FF00285E
:1010F0004BD0002503690293824AAB0099580298AD
:1011000007F048FC002800D1F9E10135042DF3D1A6
:1011100000257D4AAB009958029807F03BFC071E5A
:1011200005D00135172DF4D10527183D7F42310038
:101130007648FFF7E3FE002801D08369049331006D
:101140007348FFF7DBFE002804D0C1698069FFF710
:101150002EFF03906B1C18D0039B002B15DDA922DA
:101160006B00E31852009A5C012A04D12A0004990A
:101170000E32D20011515422FF329B5C012B04D15C
:101180000E35ED00039B65196B603668A5E7614974
:10119000029807F0FFFB0028F7D131005B48FFF70A
:1011A000ADFE002806D0A2235B00E35C012B01D139
:1011B0008369A36631005648FFF7A0FE0028E4D0FB
:1011C0004623FF33E35C012BDFD18369E366DCE771
:1011D00001277F4229E7FA231B0142E73668002EE8
:1011E00000D00DE752E73668002E00D052E7012309
:1011F00035000193002E00D098E031004648FFF7FB
:101200007DFE002800D0FFE031004448FFF776FE65
:1012100000280ED00D236B43E3182A33FF331B78CD
:10122000012B06D1C2682F33511E8A416B43E3184C
:101230005A7031003A48FFF761FE00280ED00D23A6
:101240006B43E3182C33FF331B78012B06D1C268A4
:101250002F33511E8A416B43E3181A743100314811
:10126000FFF74CFE00280CD00D236B43E3182C3302
:10127000FF331B78012B04D12F336B438269E318B2
:101280009A7431002848FFF739FE002800D1CBE0DE
:10129000C368102B00D0C7E082680D2123200023F3
:1012A0006943684361180290002A00D1BCE01F0026
:1012B0003237FF37CF5D012F04D10298C7189069EC
:1012C0002C37C8550133032B00D1ADE01268EBE792
:1012D0000123050001938DE7FA8D0010DC8C0010CE
:1012E0005B8C0010628C00106A8C0010758C0010F2
:1012F000818C00108E8C0010938C00103C8C0010A0
:10130000558E0010E4000E0888000E08468C001070
:101310004E8C0010538C00109F8C0010388E0010E3
:10132000B68C0010BE8C0010CD8C001031008648A9
:10133000FFF7E4FD002800D15FE78768002F00D1A8
:101340005BE739008148FFF7D9FD00282DD00369FC
:101350007F491800029307F01DFB002827D13900B0
:101360007C48FFF7CBFD00280CD00D236B43E3181E
:101370002E33FF331B78012B04D12F336B4382694B
:10138000E318DA6139007448FFF7B8FD00280CD083
:101390000D236B43E3182F33FF331B78012B04D14C
:1013A0002F336B438269E3181A623F68C6E76B49C3
:1013B000029807F0EFFA0028F7D139006548FFF7E7
:1013C0009DFD00280CD00D236B43E3183033FF3311
:1013D0001B78012B04D12F336B438269E3185A62C7
:1013E00039005D48FFF78AFD0028DED00D236B43EE
:1013F000E3183033FF331B78012BD6D12F336B43E7
:101400008269E3189A62D0E70D236B43E3182D330A
:10141000FF331B78012B00D0F6E62F336B43826934
:10142000E318D2B25A61EFE631004D48FFF766FD8E
:1014300030236B43E31800284CD082699A70310046
:101440004848FFF75BFD002846D03022C169836918
:101450006A430B43591E8B41A2185374002D1CD1B3
:1014600031004148FFF74AFD1423002800D083696A
:10147000636331003D48FFF741FD22003832002808
:1014800030D0C368591E8B41137031003848FFF7C4
:1014900035FD002828D08369E363019B022B2AD104
:1014A000009E31003348FFF729FD00281FD08269D4
:1014B000D3B2022B1BD13027551E6F43E21913768E
:1014C00031002D48FFF71AFD002801D083693B55F4
:1014D0000123F9E59870B2E7302301226B43E3184A
:1014E0005A74BBE71070D0E7FA231B01D4E73668C3
:1014F000002ED6D1ECE70027380007B0F0BD1F4919
:10150000029807F047FA002800D040E63100114861
:10151000FFF7F4FC002806D0A1235B00E35C012B5D
:1015200001D18369236631000B48FFF7E7FC0028EF
:1015300000D12AE64423FF33E35C012B00D024E6EC
:101540008369636621E6C0463C8C0010558E00100E
:10155000A98C0010468C00104E8C0010AE8C001030
:10156000D78C0010DF8C0010628C00106A8C001089
:10157000758C0010938C0010DC8C0010EA8C00102D
:10158000F0B5554BBDB003AC63600E000B1DE360BE
:10159000524B0C36236101236662514E0A00A6624B
:1015A000CE1826634F4E083266630E001036E6638F
:1015B0004D4EA26126640E001436A6644B4E4C4A72
:1015C000E6640E00183666654A4E0025A6650E00D4
:1015D000E26102221C36039163612262E36263646A
:1015E0002365A560A563E3652666434EA36666662C
:1015F0000E002036E666414E626726670E002436EE
:10160000A6673F4E2392E6670E00283624963D4E8D
:10161000269325960E002C3627963B4E2993289626
:101620008E182A96394E32922B96CE1C2D96384E15
:101630002C952E960E0030363096364E2F953196DC
:101640000E003436339635920A0038323692324ADA
:10165000324E37923C31324A39910100314834964A
:1016600038933A923B93FFF749FC0600A84219D001
:101670008368AB4216D00C236B43E71831007868BF
:101680000193FFF73BFC002809D0C368042B06D167
:10169000BB68012B12D0002B07D0022B13D00135D1
:1016A000132DE8D100203DB0F0BD019BC169E25887
:1016B00083690B43591E8B411370F0E7019B8269CC
:1016C000E3581A60EBE7019B1749E2588369DB0195
:1016D0005B181360E3E7C046158D0010228D0010E3
:1016E0003A8D0010478D0010518D00105B8D001059
:1016F0002F8D0010638D00106A8D0010788D001002
:10170000828D00108D8D0010998D0010A68D001017
:10171000B08D0010BD8D0010D28D0010C78D00104F
:10172000DE8D0010EB8D001000003140F0B5224B33
:1017300087B003AA0E0032CB32C201001F48FFF768
:10174000DDFB051E0BD08368002B08D001001C4870
:10175000FFF7D4FB002304000193002C02D10020EA
:1017600007B0F0BDA4681748A168FFF7C7FB3700B2
:10177000002802D0C368042B0DD0019B022BECD0B3
:101780000133019303AA9B002900D058FFF7B6FB51
:1017900084360400E1E78369321D3B6003682468F6
:1017A0009B6921007B60D36F06480133D367FFF745
:1017B000A5FB0837DCE7C046308C0010408E0010D7
:1017C000948E00104C8E001070B50C00010016486D
:1017D000FFF794FB051E24D001001448FFF78EFB91
:1017E000002806D0E378012B03D10069FFF712FB34
:1017F000207029000E48FFF781FB002806D02379CE
:10180000012B03D10069FFF725FB6070290009480F
:10181000FFF774FB002804D06379012B01D18369A1
:10182000A370002070BDC046FB8C0010FE8C001021
:10183000098D0010118D001070B504000D0086B0E8
:101840000021142201A806F0D4FF29002000FFF790
:1018500055FB0400002C18D021001C48FFF74EFB5C
:101860000028F7D00569002D0AD0194E2900300054
:1018700007F090F800280BD1310001A807F094F888
:10188000210001A8FFF73AFB0400200006B070BD5C
:10189000104E2900300007F07DF80028ECD0290018
:1018A0000D4807F077F80028E6D00C4E29003000EC
:1018B00007F070F80028DFD02900094807F06AF81F
:1018C0000028DDD121000748C1E7C046558E001031
:1018D0007D8E0010668E00106D8E0010758E0010CB
:1018E0005A8E0010608E001010B5FFF707FB012420
:1018F000002809D08168002906D00448FFF7FEFAC5
:10190000002801D0C468E4B2200010BDF28D0010A0
:10191000F7B5040000200D00FFF738F82000FFF7AE
:101920009DF9071E4AD001002648FFF7E7FA041E7A
:1019300006D1012676423800FFF742F83000FEBD9E
:1019400001002148FFF778FF210006001E48FFF73D
:10195000CBFF0090002E2BD03069FFF75BFA6B466F
:1019600000261B782870EB7021001848FFF764FFF1
:10197000210000901548FFF7B7FF009B0190002B56
:1019800019D01869FFF766FA6B461B7968702B71DE
:1019900021000F48FFF750FF210000900C48FFF78F
:1019A000A3FF009B002BC4D09B696871AB70C2E79A
:1019B00001267642D8E701267642E9E705267642F7
:1019C000BCE7C046FB8C0010FE8C0010098D001097
:1019D000118D0010F0B5050085B000200C00FEF759
:1019E000D5FF2800FFF73AF90190002800D115E152
:1019F00001008C48FFF782FA051E00D10AE18A4FE8
:101A000001003800FFF718FF290006003800FFF733
:101A10006BFF002E00D1E1E09422B3695200DBB2EB
:101A20002370A0542200303213703623FF33E05469
:101A300000237E4F290038000093FFF7FDFE2900A8
:101A400006003800FFF750FF002E00D1C9E0F36810
:101A50005A1E93412A22DBB2FF326370A054220047
:101A6000313213709B235B00E054714F2900380022
:101A7000FFF7E2FE290006003800FFF735FF002ED1
:101A800000D1B2E0F3685A1E93412C22DBB2FF3240
:101A90002374A0542200403213709C235B00E05456
:101AA000644F29003800FFF7C7FE29000600380000
:101AB000FFF71AFF002E00D19BE09622B369520077
:101AC000DBB26361A05463643A23FF33E0545A4E9F
:101AD00029003000FFF7B0FE290007003000FFF7B3
:101AE00003FF002F00D188E02200BB692C32DBB25B
:101AF00013703222FF32A05422005C3213709F22F6
:101B00005200A05422002D32137099225200A0548A
:101B100022005D3213704022FF32A05422002E3288
:101B200013703422FF32A05422005E321370A023BF
:101B30005B00E05401994148FFF7E0F90600002FEF
:101B400068D02E220123FF32A354D218A35430228E
:101B5000FF32A354D218A35423000222384FFE337D
:101B6000FF3201009A87DA873800FFF765FE3100FF
:101B700005003800FFF7B8FE0390002D41D0AB6997
:101B80000293304F31003800FFF756FE3100050058
:101B90003800FFF7A9FE002D38D0AD6922002100E2
:101BA0002300533229317033FF32FF31029E5D60D2
:101BB0001E606E46367B08331670507002329942B2
:101BC000F4D1A12302225B00FF32E2520233E2523F
:101BD0000198FEF7F5FE009805B0F0BD01235B42C9
:101BE00027E701235B4200933FE701235B42009319
:101BF00056E701235B42009369E701235B420093B0
:101C000098E701235B4202950093BAE701235B4208
:101C10000093C3E701235B420093D2E705235B42B5
:101C20000093D8E7FA8D0010DC8C0010388E00107D
:101C3000B68C00109F8C0010CD8C00103C8C0010D6
:101C4000468C00104E8C0010DC23F0B59B0585B04F
:101C50000093002302AD019502901848184C0668C5
:101C60006B60306A0768002F07DBA34203D10120B5
:101C7000404205B0F0BD0133F4E7A342F7D06B4614
:101C8000C3600123BC3683603368C0180023066834
:101C9000002E03DAA342EAD00133F8E7A342E6D0EC
:101CA000A02300981B06984201D00098E1E7029B10
:101CB000002013606B680B60DBE7C046F80A0E0873
:101CC000983A00000122F0B50024184B0668196804
:101CD00032400B6ABC310D6815495D191F68002F31
:101CE00006DB8C4202D101204042F0BD0134F5E711
:101CF0008C42F8D0002A00D106000120DE609860F6
:101D000000202C68002C03DA8842ECD00130F8E780
:101D10008842E8D0DB68002A00D11B68A02200209E
:101D200012069342E1D01800DFE7C046F80A0E0819
:101D3000983A00000A4B37B51B780500013B002498
:101D4000012B05D8074B01A80193FFF7BBFF040047
:101D5000002D02D0280004F0A3FA20003EBDC046AA
:101D600020110E080101013A07B5034B01A80193A8
:101D7000FFF7A8FF0EBDC0460101003210B5FFF706
:101D8000F3FF002801D106F023FF10BDF8B50600CF
:101D900008001700FFF7CEFF1D4B1B68002B20DA51
:101DA00080241C4B1C4DA4002B511C4B1C481B6851
:101DB0001A009832196812688A181168084019497F
:101DC000014311601A00903212681B689B181022A0
:101DD00019681142FCD0012004F062FA2E51FFF77D
:101DE000CDFF002F0CD005F085F9C02201230E494C
:101DF0005200885803438B5005F0B8F905F062F99A
:101E0000300005F0A9FA002004F0D8FDFBE7C04639
:101E1000000126400040001600002040F80A0E088D
:101E2000FCFF00000300FA0500002640C022012349
:101E3000044910B55200885803438B5005F096F9B9
:101E400010BDC04600002640F8B5284B421E0500D4
:101E50009A4248D8264B1A78002A44D10124254FAB
:101E60001C703B78244E002B07D1FFF7DFFFE122E7
:101E7000D200B358A343B3503C70C02201210024C8
:101E80005200B3588B43B3501C4B1D801C4BA20017
:101E900099184988A94221D8D35A9D4200D21D00E1
:101EA000184B20001C7005F049F9C22328005B0084
:101EB000F65806F0C1FA144A144B05F03DFC05F043
:101EC0005BFB11231C1B103BA3408019C01A80B27E
:101ED00005F022F9FFF7AAFF0020F8BD01340D2C10
:101EE000D5D1013CDCE701204042F6E76F17000046
:101EF00024060E0825060E080000264022060E08BD
:101F0000CC8F001020060E0833DFC14F1C409F3FCE
:101F1000C0220120044952008B5883438B50002279
:101F2000024B1A707047C0460000264024060E0877
:101F3000C0220120024952008B5883438B507047C6
:101F400000002640014B18607047C046F80A0E0892
:101F5000044B1B681A00BA3212881B6A5043C0181F
:101F60007047C046F80A0E081D4B98420FD010D893
:101F700040282FD005D8002830D0102828D0194864
:101F80001EE0802828D080235B009842F7D11448B7
:101F900016E0154B984214D008D8A0231B0698428F
:101FA0001CD0124B9842EAD1A0200BE0104B984273
:101FB0000AD0104B984209D00F4B9842DFD10F48FE
:101FC0007047A420C003FBE70D48F9E70D48F7E789
:101FD0000D48F5E70D48F3E70D48F1E70020EFE77E
:101FE00006005200FF005200010000F0090000A0AE
:101FF000040000F0050000F0030000F001005200B2
:102000000200520003005200010050000200500084
:102010000500520010B50020FFF79AFF0A4B1C681C
:102020002300BC331B68C0180368002B0ADB074B76
:102030001868FFF799FF012263689A609A68002A7E
:10204000FCD110BD0248FCE7F80A0E0828060E086D
:102050000200500070B5C40506000D00E40D20D14B
:1020600000291ED005F018F90F4B104A1A605C6069
:102070009E60DD600E4B1B685233197800290BD02F
:1020800004F077F8FA21890005F0A0F90100094869
:1020900005F09CF9084BC1188020400006F090FD27
:1020A00070BD0648FCE7C04628060E080001000582
:1020B000F80A0E08C0EA2101482600000600520076
:1020C0000E4B10B51B689C695B69001BC0090001C1
:1020D000C0181F231A40032907D8C9008B408A4023
:1020E00004689C432243026010BD0439C9008B4040
:1020F0008A4044689C4322434260F5E7F80A0E0890
:10210000F8B51F0006AB15001A7806000C00FFF7A3
:10211000D7FF012211001740A140A7403368A40057
:102120008B433B433360074B1B6881331B78F618A6
:102130000F2319001D40A140A54032688A432A435D
:102140003260F8BDF80A0E08064B1B68BC331B68EA
:10215000C3181B68002B03DA89B241600020704766
:102160000148FCE7F80A0E0801008A000368002B0A
:1021700004DA89B2C2608160002070470048FCE741
:1021800001008A00064B1B68BC331B68C3181B6820
:10219000002B03DAC36800200B6070470148FCE79E
:1021A000F80A0E0801008A00024B1A68002A00D1C2
:1021B000186070473C060E08F0B52C246043154C9F
:1021C0001F0024681D0A2018FF2425402740124CB8
:1021D0001B0C26680760346A45608360BA3636880F
:1021E00077433F1907612F0080376D017F01E719A1
:1021F00064190A4D47611F043B436419236000239F
:102200008361059BC2610162002B01D01B88838121
:10221000F0BDC0463C060E08F80A0E080810000083
:10222000F0B5836885B002AD2B80154B02681B6842
:10223000066A1B8F476A9B186B8043680095826A09
:10224000C16A040003930369C068FFF7B5FF00216A
:102250003B000A0000913000FFF7AEFF216B280021
:1022600003F0D4FF0022AB5E002B06DB1F221340DD
:102270001E3A9A401300034A136005B0F0BDC046F1
:10228000F80A0E0800E100E0F7B52C25134C68436E
:10229000266869433418256901937118002D19D0F7
:1022A0008869002818D12E68002E15DA6768012485
:1022B00026004B689E40B44613689EB263461B04DA
:1022C0001E431660EA608C61BC40019BA4B24B6265
:1022D000AC60FEBD0248FCE70248FAE73C060E0887
:1022E00004028A0007028A0073B5002642690400CE
:1022F000D56801962B0CB34221D01B0413601368E0
:10230000194B00691B68BC331B68C3181B68B342B8
:1023100015DA01A9FFF736FFB0420CD10198E26946
:1023200003681E0CDBB29A4205D9226A9B009B58B7
:10233000002B00D0984731002069FFF705FFADB2B0
:10234000002D09D063691D6000251B68636AAB42DC
:1023500005D098476562A56163691B6873BDA36A70
:10236000002BF8D09847F6E7F80A0E082C2310B592
:102370004343034A1068C018FFF7B6FF10BDC046BC
:102380003C060E08F8B5194B0F001B681A003332D3
:102390001278824227D9002925D01F250A681540C6
:1023A00021D11900BA310C88114E60431C6AD20841
:1023B000041929007868346006F01BFA290020000F
:1023C000FFF7C2FE3A0029003068FFF7CFFE041E77
:1023D00007D101003068FFF7B7FE03002000002B93
:1023E00000D00448F8BD0448FCE7C046F80A0E08CF
:1023F00040060E0801018A0003018A0010B5002A78
:102400000DD1002914D10B4B1A681300BA331B8865
:102410005843136AC018084B1860080010BD002903
:1024200006D0064B196019005A60FFF7ABFFF5E7BD
:102430000348F3E7F80A0E0840060E0804000008F7
:1024400003018A00F7B5184F04003B680191DE686C
:102450003368834226D90025A94202D1FEF73DF810
:10246000050038680368002B1ADA1F220123224076
:10247000934064097268A4001419226813420DD0B5
:102480009A43226000240021FFF75EFE019B002B8F
:1024900002D12800FEF725F82000FEBD034CF2E72C
:1024A000034CF3E7034CF7E740060E0802018800EF
:1024B0000301880004018A000A4B1B68DB681A6864
:1024C00082420DD959681F23420918401E3B8340A0
:1024D000920050581840431E9841034BC018704753
:1024E0000248FCE740060E080001880004018A004B
:1024F00070B59621002003F041FF0021080003F091
:102500001BF8444244412D4B64421C402C4B0500B7
:102510000020E41802F08EFF012002F06FFF00207F
:1025200002F098FE04F0B8FE264E33683F331B7865
:10253000002B03D0012003F071FB0500002D00D01B
:10254000214C33683F331B78012B03D9022003F061
:1025500065FB0500002D00D01C4C0021012003F07C
:10256000BBF9002800D01A4C002002F0DBFF051E4A
:102570000ED103F0D9F91223FF33984208D101217B
:10258000280002F0B1FF002800D00D4C04F084FEBA
:1025900003F02CFA002800D00E4C0021080003F0B4
:1025A0009BF9002800D00C4C0021080002F09CFF91
:1025B000002800D0024C200070BDC046F1F0E5FEBE
:1025C0000F0F1A01F80A0E082F0F1A012E0F1A0109
:1025D0004E0F1A013F0F1A014F0F1A0130B5134C5D
:1025E000C000031908300019002901D0072A06D9B4
:1025F00001220021524219605A6006C030BD0C4CC5
:102600002468A5696469491BC90909010919196088
:10261000043101601F21032A03D8D2009140596080
:10262000ECE7043AD20091404160E7E7FC0A0E086B
:10263000F80A0E08F0B5C400454E002900D17AE032
:10264000072A00D977E0002336199D00DF004D19D5
:102650000133F551152BF8D1143B93403D4973607C
:1026600009194B603C49032509194B603B49384F18
:1026700009194B603A4909194B603A4909194B60ED
:10268000394909194B60394909194B6038490C1906
:1026900051000E00374963600C68B540210080315D
:1026A00009789200023189080918C900C9194D60DA
:1026B0000F252100954081310978023189080918D8
:1026C000C900C9194D6035001035AC462100664679
:1026D000032582310978B540023189080918C900FB
:1026E000C9194B602100833109782B4302318908D5
:1026F0000918C900C9194B60FE2301219B008434CD
:102700001A402378012502339B081818531CC00077
:102710009940C71901200B00911C88409540032661
:1027200003431D43D31C9E402E430725053295408D
:102730002E437E60F0BD0023012118003419494268
:10274000E050E21808335160A82BF9D1F2E7C046F7
:10275000FC0A0E08040B0E080C0B0E08140B0E08D6
:102760001C0B0E08240B0E082C0B0E08340B0E0845
:102770003C0B0E08F80A0E08C24BF0B51B6887B078
:102780001A00BA321188186A8A001218D0680290AA
:102790000088059002984088009002988768C06879
:1027A00004900598013808280AD804F005FE67004F
:1027B000270046007A09C000FF00FF02760084006F
:1027C000B14C6A46029B928A85211A806A46802013
:1027D00012885C605A80049A9F60DA60A94B4901B4
:1027E0001B6840031A6ABA33505018885158800049
:1027F00080180021FFF7A8FC07B0F0BD009AA34B9A
:10280000D20099184968049C0C4001D001F04CF9A1
:10281000481C01D101F04BF90098922801D901F030
:1028200049F9D258002A01D101F047F91368394318
:102830000B4004990B431360C3E7009A934BD100FC
:102840005A185268501C01D101F03AF900989228A8
:1028500001D901F038F9C958002901D101F036F940
:102860000B683A4205D038005840024201D001F0CE
:1028700030F913403B430B600024A2E7009B922BEE
:1028800001D901F029F9DA00804BD358002B01D18E
:1028900001F025F91F68002493E7022F01D001F011
:1028A00021F9049C7A4B143C6042444179486442CB
:1028B0000440E41885E7002F01D101F016F9049BCC
:1028C000052B01D901F014F9734B1B681A78002A03
:1028D00025D09A683A60DA687A60704ABA605A78A5
:1028E000002A1ED01A6AFA609A6A3A616C4A7A61C2
:1028F0005A6ABA61DA6AFA616A4A3A629C78002CCA
:1029000012D01A6B00247A629A6BBA62664AFA6233
:102910005A6BDB6B3A637B63644BBB6351E73A6092
:10292000DDE7FA60BA61E9E77C623C6349E7002FC2
:1029300001D101F0E0F85E4CF0223900200005F0F2
:102940004FFF03F0E3FC002810D0FFF7D1FD20007B
:1029500001F084FC574B04001A78002A00D030E7BD
:10296000002800D02DE701321A702AE7514B1B785E
:10297000002BECD1E378002BE7D0E379002BE4D0F7
:10298000230055331D7803F0AFFC0028DDD102F0A1
:1029900075FE002805D102F065FE280002F08EFECB
:1029A000D3E702F075FE0028F5D0CEE7009B672B39
:1029B00000D18DE018D82F2B00D1DDE107D82C2BCA
:1029C00000D194E02D2B00D1EDE02F4CF9E6009BD7
:1029D000322B00D1C9E1662B36D0302BF5D138002F
:1029E00002F032FE0024ECE6009B6E2B00D13DE1AC
:1029F00008D86C2B00D135E16D2BE6D104F08EF9AF
:102A00000024DEE6009B702B00D141E100D235E1CD
:102A1000712BDAD13878022801D901F078F88422B4
:102A200001244243244BA4469A18131DDD6F002352
:102A3000397AAB4200D079E104F0DCF8441EA041C1
:102A400044421E480440BCE61D4B5A68002F10D17A
:102A50001C4911401B220A435A6059681A4A114303
:102A6000596059681143596059680A435A600024F3
:102A7000A7E6E821154889010240114359605A68C8
:102A80000240F3E7F80A0E08FF0F1A01FC0A0E08CD
:102A9000F90F1A0107F0E5FE3C070E082000890037
:102AA00035008B004A008D005F008F00740091009C
:102AB00048060E0838070E08940F0E08FE0F1A017C
:102AC000000026400000FC0F003A0280FF00FC0FCF
:102AD00003234B439B181A68002AFCDA8022002447
:102AE000D96852050A43DA605C605B6869E60024D5
:102AF000B125A44BED001C80A34B1C80A34B1B688D
:102B00003F331B789C4201D900245AE6002C1ED189
:102B100002F05AFF002818D0200002F005FF02281A
:102B200036D1002C17D19A4A9A485359184080231D
:102B30009B05184350510021200002F0CDFE0123D7
:102B4000A340904A11880B4313800134D6E720003C
:102B500003F050F8DEE703268D4AA3008E499B1848
:102B60005A58120F324204D05A58120F3240012ADA
:102B700006D10122A2401000834E328810433080DB
:102B80005A58844810408022920510435850D2E78A
:102B9000002CDAD17E4A7F4953590B4080218905A8
:102BA0000B435351D1E7774B1B88002B0FD102F019
:102BB0000BFF041E00D104E6784C40E0013D02F01A
:102BC000A1FD022805D0002DF8D1754CF9E5734D13
:102BD000F5E7002DF9D00026714C09E0013D02F027
:102BE000FBFE002801D000F0CBFF002DF6D101360E
:102BF000664B1B683F331B789E4200D9E1E50123F9
:102C0000B3409BB201935F4B019A1B881342EED0F5
:102C10000221300002F060FE002EE0D0300002F011
:102C2000F3FF002801D000F0BAFF002DDFD0013DF6
:102C3000F4E7C020800501439950D8E7013C02F039
:102C4000CBFE002802D1002CF8D1BEE7002CBCD06E
:102C5000B122C0234E49D20088589B0503438B50B4
:102C60000024AEE504F008F80024AAE53800431E6D
:102C70009841C0B204F062F80024A2E53878072831
:102C800001D900F03BFF797804F028F8002498E59A
:102C90003878022801D900F034FF7B6801936B4635
:102CA0001B790F2B01D900F02FFF84250126454306
:102CB0003C4B00245D192B1DDB6F3A7A9C46019B2F
:102CC0009E40644508D1019903F05AFF441EA0417B
:102CD00044423548044074E5E300E958314223D0CA
:102CE000022A0DD0032A15D0002AECD184244443B3
:102CF0001B192C4CE3185B68DB07E4D42A4C60E515
:102D0000842444431B19274CE3185B681342DAD12F
:102D1000254C56E5842444431B19224CE3185B6878
:102D20005B07D0D4204C4CE50134CAE702290BD014
:102D3000032910D0002916D16646DC0014196468F6
:102D4000344210D1184C3CE5DC00141964680C4284
:102D500009D1154C35E50426DC00141964683442A9
:102D600001D100F0D7FE013363E63A8938887968EB
:102D700003F044F8040024E5380003F0F5F80400FB
:102D80001FE5C04644060E0846060E08F80A0E085F
:102D900000002640FFFFFFCFFC05000040420F006F
:102DA000FA0F1A01940F0E08FE0F1A01B64A127894
:102DB000002A01D100F0B1FE00980838632801D93B
:102DC00000F0AEFE04F0F8FAD200E000F4001601C4
:102DD0002401320143015101AC06640172018001FA
:102DE0009801D8011802C0025D0376038F03A8037F
:102DF000BC03D003DE03EC030004140422043004FB
:102E000049045804660474059D05C705F8054D0678
:102E1000AC06AC066606AC06AC06AC06AC06AC0668
:102E2000AC06AC06AC06AC06AC06AC06AC06AC0612
:102E3000AC06AC06AC06AC06AC06AC06AC06AC0602
:102E4000AC06AC06AC06AC06AC06AC06AC06AC06F2
:102E5000AC06AC06AC06AC06AC06AC06AC06AC06E2
:102E6000AC06AC06AC06AC06AC06AC06AC06AC06D2
:102E7000AC06AC06AC06AC06AC06AC06AC06AC06C2
:102E8000AC06AC06AC06AC0664008400A400BA0034
:102E900001227E4D6B78E91C01932B792E780393E8
:102EA000FBB22A706A70CB77002B0ED12A712800F2
:102EB00001F0D4F9041E00D183E46B461B792E7017
:102EC0006B706B461B7B2B717BE400232B71EEE751
:102ED000012100226D4D6B78281D01932B792E78EE
:102EE0000393FBB229706A70C377022B0ED129714C
:102EF000280001F0B3F9041E00D162E46B461B798F
:102F00002E706B706B461B7B2B715AE42A71EFE7B6
:102F10005E4D2B786E1D0193F37F280003930123F0
:102F20002B70F37701F09AF9041E00D149E46B4647
:102F30001B792B706B461B7BF37742E4534D2B7848
:102F40006E1D0193F37F2800039301232B70002350
:102F5000F37701F083F9041E00D132E46B461B794C
:102F60002B706B461B7BF377FFF72BFC0023474D41
:102F700028006E796B7101F071F9041E01D1FFF721
:102F800020FC6E71FFF71DFC404D6B7A2800019309
:102F90000023AE6E6B72AB6601F060F9041E01D1C6
:102FA000FFF70FFC6B461B79AE666B72FFF709FCEF
:102FB000002F01D100F0B7FD3F331B789F4201D9AC
:102FC00000F0B4FD0023314D012F0DD1AE7AAB726C
:102FD000280001F043F9041E01D1FFF7F2FB012F95
:102FE00005D1AE72FFF7EDFBEE7AEB72F0E7EE7211
:102FF000FFF7E7FB0123254D2800EE79EB7101F087
:103000002DF9041E01D1FFF7DCFBEE71FFF7D9FBB0
:1030100000231E4D2800EE79EB7101F01FF9041E0C
:1030200001D1FFF7CEFBEE71FFF7CBFB3B0017485A
:103030005A1E9341050055352E782B7001F00EF97C
:10304000041E01D1FFF7BDFB2E70FFF7BAFB012371
:103050000E48451CEE7FEB7701F000F9041E01D10C
:10306000FFF7AFFBEE77FFF7ACFB00230748451CEB
:10307000EE7FEB7701F0F2F8041E01D1FFF7A1FB20
:10308000EE77FFF79EFBC04638070E0848060E088D
:103090000123C94D28002E7A2B7201F0DFF8041E9F
:1030A00001D1FFF78EFB2E72FFF78BFB0023C24D81
:1030B00028002E7A2B7201F0D1F8041E01D1FFF7FF
:1030C00080FB2E72FFF77DFBBB48FBB20500013B86
:1030D0005A425341002456352E782B70037AA3426E
:1030E00001D1FFF76EFB01F0B9F8041E01D1FFF723
:1030F00068FB2E70FFF765FB052F01D900F019FD65
:103100003800AD4D012304F04DF90316191C1F22A0
:103110006E7D6B75280001F0A1F8041E01D1FFF748
:1031200050FB052F01D9FFF74CFB380004F03AF9AA
:103130001215181B1E21AE7DAB75EBE7EE7DEB750E
:10314000E8E72E7E2B76E5E76E7E6B76E2E7AE7ED5
:10315000AB76DFE76E75FFF734FBAE75FFF731FB3B
:10316000EE75FFF72EFB2E76FFF72BFB6E76FFF743
:1031700028FBAE76FFF725FB052F01D900F0DCFC1C
:10318000380000238C4D04F00DF90316191C1F2282
:103190006E7D6B75280001F061F8041E01D1FFF708
:1031A00010FB052F01D9FFF70CFB380004F0FAF8EB
:1031B0001215181B1E21AE7DAB75EBE7EE7DEB758E
:1031C000E8E72E7E2B76E5E76E7E6B76E2E7AE7E55
:1031D000AB76DFE76E75FFF7F4FAAE75FFF7F1FA3D
:1031E000EE75FFF7EEFA2E76FFF7EBFA6E76FFF745
:1031F000E8FAAE76FFF7E5FA3868052801D900F05D
:103200009EFC6D4C3B79220004F0CCF8032E3C4A26
:1032100058662600A532A836157813703268180053
:103220000192627DA634039202F066FF237863491F
:10323000D84004F0CBF8039B30601C1E01D1FFF78F
:10324000C0FA5D4E300001F009F8041E01D1FFF70D
:10325000B8FA3868052801D9FFF7B3FA330004F04B
:10326000A1F84950575E656C2600AC32B03615782F
:103270001370326818000192A27DAD34039202F0FF
:103280003BFFD3E72600B432B836157813703268A6
:1032900018000192E27DB534039202F02DFFC5E7DC
:1032A0002600BC32C03615781370326818000192BF
:1032B000227EBD34039202F01FFFB7E72600C4321E
:1032C000C83615781370326818000192627EC534D2
:1032D000039202F011FFA9E72600CC32D036157810
:1032E0001370326818000192A27ECD34039202F06E
:1032F00003FF9BE7A5331D70019BA8363360FFF7E2
:1033000060FAAC331D70019BB0363360FFF759FA99
:10331000B4331D70019BB8363360FFF752FABC33EB
:103320001D70019BC0363360FFF74BFAC4331D702C
:10333000019BC8363360FFF744FACC331D70019B04
:10334000D0363360FFF73DFA3868052801D900F020
:10335000F9FB194B3A791C0004F024F803323D487C
:10336000535E1D00A634A835267822702A68019283
:103370005A7DA5330392187802F0BEFE23780F49D8
:10338000D84004F023F8039B28601C1E01D1FFF7EE
:1033900018FA094D280000F061FF041E01D1FFF763
:1033A00010FA3868052801D9FFF70BFA2B0003F053
:1033B000F9FF3E454C535A6148060E0840420F0043
:1033C0001D00AD34B035267822702A6801929A7DAE
:1033D000AC330392CFE71D00B534B83526782270A0
:1033E0002A680192DA7DB4330392C4E71D00BD342C
:1033F000C035267822702A6801921A7EBC33039267
:10340000B9E71D00C534C835267822702A680192B4
:103410005A7EC4330392AEE71D00CD34D0352678F2
:1034200022702A6801929A7ECC330392A3E7A633D6
:103430001E70019BA8352B60FFF7C3F9AD331E70DA
:10344000019BB0352B60FFF7BCF9B5331E70019BB3
:10345000B8352B60FFF7B5F9BD331E70019BC03541
:103460002B60FFF7AEF9C5331E70019BC8352B608A
:10347000FFF7A7F9CD331E70019BD0352B60FFF706
:10348000A0F9D84D2E00AB7CA236019333782800EA
:10349000039301233770AB7400F0E0FE041E01D1EA
:1034A000FFF78FF96B461B7B33706B461B79AB7450
:1034B000FFF787F9CB4D2E00A33633782800019310
:1034C000EB7C377003930123EB7400F0C7FE041EFE
:1034D00001D1FFF776F96B461B7933706B461B7B86
:1034E000EB74FFF76EF9BF4D2E002B7FD63601939C
:1034F000337828000393012337702B7700F0AEFE5A
:10350000041E01D1FFF75DF96B461B7B33706B46E0
:103510001B792B77FFF755F9B24800240500D83501
:103520002E882F80837FA34201D1FFF74AF900F054
:1035300095FE041E01D1FFF744F92E80FFF741F9F3
:10354000A84800240500DA352E782F70837FA34227
:1035500001D1FFF736F900F081FE041E01D1FFF71B
:1035600030F92E70FFF72DF901239E4D2800AE7F14
:10357000AB7700F073FE041E01D1FFF722F9AE779E
:10358000FFF71FF90023974D2800AE7FAB7700F0BF
:1035900065FE041E01D1FFF714F9AE77FFF711F9AC
:1035A000904800240500D4352E782F70C37EA342A6
:1035B00001D1FFF706F900F051FE041E01D1FFF71B
:1035C00000F92E70FFF7FDF8864800240500D53578
:1035D0002E782F70C37EA34201D1FFF7F2F800F0DE
:1035E0003DFE041E01D1FFF7ECF82E70FFF7E9F85D
:1035F00001237C4D2800EE7EEB7600F02FFE041EAA
:1036000001D1FFF7DEF8EE76FFF7DBF80023754D0A
:103610002800EE7EEB7600F021FE041E01D1FFF7BC
:10362000D0F8EE76FFF7CDF86E4D2E006B7FD736D3
:103630000193337828000393012337706B7700F0F0
:103640000DFE041E01D1FFF7BCF86B461B7B3370E7
:103650006B461B796B77FFF7B4F8624B5C79002CF3
:1036600000D072E23A689A627A68DA62BA681A63DB
:10367000FA685A63FFF7A5F801235A4D28006E79BE
:103680006B7100F0EBFD041E01D1FFF79AF86E712B
:10369000FFF797F83868052800D959E2514B03F035
:1036A00081FE031B222930371A00012196321E7B2E
:1036B00015881973B9881800118000F0CFFD041E19
:1036C00038682CD1052801D9FFF77BF8454D03F068
:1036D00069FE4D6A8DADC3D91A00012198325E7B17
:1036E00015885973E6E71A0001219A329E7B1588E6
:1036F0009973DFE71A0001219C32DE7B1588D973AC
:10370000D8E71A0001219E321E7C15881974D1E772
:103710001A000121A0325E7C15885974CAE7052879
:1037200000D918E22F4B03F03DFE03080D12171CC1
:103730001E7396331D80FFF744F85E7398331D8027
:10374000FFF73FF89E739A331D80FFF73AF8DE7358
:103750009C331D80FFF735F81E749E331D80FFF7E4
:1037600030F85E74A0331D80FFF72BF86B7A002BC6
:1037700003D0280000F0BEFCA8662B00A533187803
:10378000002801D0FFF71DF802F0B6FC2B00A6338D
:103790001B781549A83599404B08181803F016FEF8
:1037A0002860FFF70EF8AB7A002B05D02900012026
:1037B00000F0BEFC2B1DD8672B00A533187801281C
:1037C00001D0FEF7FEFF02F097FC2B00A6331B781A
:1037D0000549A83599404B08181803F0F7FD2860F3
:1037E000FEF7EFFF48060E0840420F00EB7A002B71
:1037F00006D02900022000F09BFC2B008C331860BF
:103800002B00A5331878022801D0FEF7DAFF02F06A
:1038100073FC2B00A6331B78EB49A83599404B0865
:10382000181803F0D3FD2860FEF7CBFF2B00A5335B
:103830001878032801D0FEF7C4FF02F05DFC2B00CE
:10384000A6331B78E049A83599404B08181803F0B7
:10385000BDFD2860FEF7B5FF2B00A53318780428BE
:1038600001D0FEF7AEFF02F047FC2B00A6331B7819
:10387000D549A83599404B08181803F0A7FD2860D2
:10388000FEF79FFF2B00A5331878052801D0FEF71F
:1038900098FF02F031FC2B00A6331B78CA49A835EB
:1038A00099404B08181803F091FD2860FEF789FF36
:1038B0003A68C64B0024DA661A00B9887032118063
:1038C0001A00B979723211701A00F97973321170D5
:1038D0001A003989743211801A00B97A763211705F
:1038E0001A00F97A773211701A00B989783211808A
:1038F0001A00B97B7A3211703A8A7C331A80FEF74B
:1039000060FFB24D6E7A002E00D027E1012328001F
:103910006B7200F0EFFBA866280000F09FFC041E0D
:1039200003D0AE666E72FEF74CFF2B00A5331B78FA
:10393000002B01D0FEF745FF02F0DEFB2B00A63383
:103940001B78A149A83599404B08181803F03EFD93
:103950002860FEF736FF3A68002A00D101E13F33C4
:103960001B789A4200D9FFE07B681E785D789C78CE
:10397000D8781979954B012A10D11A008432167023
:103980001A00853215701A00863214701A008732B8
:103990001070883319700024FEF713FF1A0090325C
:1039A00016701A00913215701A00923214701A00B3
:1039B000933210709433EDE7012F06D1834A927A47
:1039C000002A09D0824CFEF7FCFE022F04D17F4A68
:1039D000D27A002A00D0CAE03F331B789F4200D938
:1039E000C8E0002F00D1C8E0784D2900012F12D186
:1039F000380000F09DFB2B1DD867AF72280000F047
:103A00002DFC041E16D00023012F0DD12A1DD367D3
:103A1000AB72FEF7D6FE022000F08AFB2B008C333F
:103A200018600123EB72E9E72A008C321360EB7215
:103A3000FEF7C7FE2B00A5331878431E012B01D9D2
:103A4000FEF7BFFE02F058FB2B00A6331B785E4941
:103A5000A83599404B08181803F0B8FC2860FEF709
:103A6000B0FE5A4D2E002B7DA436019333782800EA
:103A70000393012337702B7500F0F0FB041E01D176
:103A8000FEF79FFE6B461B7B33706B461B792B75D5
:103A9000FEF797FE01224D4B00249A719F64FEF7BA
:103AA00090FE0024FEF78DFE4A4CFEF78AFE494C3C
:103AB000FEF787FE474CFEF784FE464CFEF781FE7C
:103AC000444CFEF77EFE434CFEF77BFE414CFEF776
:103AD00078FE404CFEF775FE3E4CFEF772FE3D4C04
:103AE000FEF76FFE3C4CFEF76CFE3C4CFEF769FEA9
:103AF0003A4CFEF766FE394CFEF763FE374CFEF794
:103B000060FE364CFEF75DFE344CFEF75AFE334C39
:103B1000FEF757FE314CFEF754FE2E4CFEF751FED9
:103B20002C4CFEF74EFE2E4CFEF74BFE2C4CFEF7B7
:103B300048FE284CFEF745FE264CFEF742FE254C7B
:103B4000FEF73FFE234CFEF73CFE264CFEF739FE07
:103B5000204CFEF736FE1F4CFEF733FE224CFEF7DC
:103B600030FE1F4CFEF72DFE1D4CFEF72AFE184CB2
:103B7000FEF727FE164CFEF724FE154CFEF721FE3D
:103B8000002D01D1FFF733F8B122C0201749D20030
:103B90008B58800503438B500024FFF728F8002D35
:103BA00001D1FFF724F8124B10491C88019B114AE0
:103BB0001C40B3005B189958002C01D1FFF739F86D
:103BC0000D4801409950E7E740420F0048060E08B3
:103BD0002D0F1A01FF0F1A01F90F1A01FE0F1A011A
:103BE000BD0F1A01590F1A013E0F1A01000026409D
:103BF00046060E08FC050000FFFFFFCF73B59322B9
:103C00000020384BD100384C591A0919013A086084
:103C1000002AF7D13549196035499960354919614C
:103C200035499961354919623549996235491963B0
:103C300035499963354919643549086801004031AF
:103C40000978042900D9334A9A640022052900D949
:103C5000314A1A65426801251100083199652F49DA
:103C60006D4219662E49DD6759662E4999662E49BF
:103C700019672E49521800219A670A005C1826001D
:103C8000083180368434326025608029F6D1284B93
:103C9000191DCA671900FC318A60C42149005A50B5
:103CA0008521036A49015B188021490399606946AF
:103CB00004230B80038F684605334B801D49019216
:103CC00002F0A4FA002800D001BE6B4600229B5EE1
:103CD000002B06DB1F2213401E3A9A401300164A9F
:103CE000136073BDFC0A0E089C0400000800264007
:103CF00000072640040726400807264010072640F4
:103D000084032640880326408C03264090032640E7
:103D1000F80A0E0894032640980326400400264023
:103D200000FF03F0480526404405264060F00000EF
:103D3000940F0E087927001000E100E010B5244C24
:103D40002368002B43D01A78002A0AD0DA689968D1
:103D50002020FEF76FFC23688920DA689968FEF757
:103D60003DFC23685A78002A16D09A6A196A3520D1
:103D7000FEF760FC23684A20DA6A596AFEF75AFCAB
:103D800023688B209A6A196AFEF728FC23688D2025
:103D9000DA6A596AFEF722FC23689A78002A16D05C
:103DA0009A6B196B5F20FEF745FC23687420DA6B71
:103DB000596BFEF73FFC23688F209A6B196BFEF757
:103DC0000DFC23689120DA6B596BFEF707FC10BDE0
:103DD0003C070E08022817D006D8002827D0012853
:103DE00010D0022040420CE01223FF3398420DD045
:103DF0001423FF3398420CD0033B9842F1D1FA20B0
:103E0000C0017047886CFCE7886AFAE780200002EE
:103E1000F7E7084B1B68413318780138431E984177
:103E2000054B4042184080231B02C018E9E70348B5
:103E3000E7E7C046F80A0E08FE7FFFFF00127A008F
:103E400002235B4210B51360314B14001B681A004B
:103E50003E321278824258D9052856D803F0A2FA89
:103E600003192E43494F0B7B002B4ED04B7A002B6E
:103E700008D00B007A331B78022B03D08B6E2360A3
:103E8000002010BD0B0096331888FFF7A3FF2060B9
:103E9000F6E74A7B002A38D03F331B78002B0AD044
:103EA0008B7A002B07D00B0088331B78022B02D0B3
:103EB0000431CB6FE3E70B009833E5E78A7B002AF8
:103EC00023D03F331B78012B0AD9CB7A002B07D0A4
:103ED0000B0094331B78022B02D08C310B68CEE799
:103EE0000B009A33D0E7CB7B002B0ED00B009C331A
:103EF000CAE70B7C002B08D00B009E33C4E74B7C39
:103F0000002B02D00B00A033BEE70248B9E7C04641
:103F1000F80A0E08FE0F1A01194B00B513600023B2
:103F2000052809D803F03EFA030A13191F250023B8
:103F3000087B9631984206D1180000BD0023487BCB
:103F400098319842F8D00B8800211160F4E70023E3
:103F5000887B9A319842F6D1EEE70023C87B9C31EA
:103F60009842F0D1E8E70023087C9E319842EAD1DC
:103F7000E2E70023487C9842DED0A031E3E7C04668
:103F8000FE0F1A01032819D004D801280FD028D910
:103F900048790DE01223FF33984214D01423FF33E5
:103FA000984212D0033B98420BD00F4805E0887925
:103FB000434258410C4B4042184070470231C87F81
:103FC000F6E7C879F4E7087AF2E70131CB7F002BF6
:103FD000EBD0064B1B68413318780138431E9841DB
:103FE000E8E70020E9E7C046FE0F1A01F80A0E08CC
:103FF00010B51B4B1B683E331B7883422DD9052817
:104000002BD803F0CFF9030C12181E240B7B002BC6
:1040100023D00B0096331888FFF7B4FF10BD4B7BFD
:10402000002B1AD00B009833F5E78B7B002B14D0B4
:104030000B009A33EFE7CB7B002B0ED00B009C33A9
:10404000E9E70B7C002B08D00B009E33E3E74B7CA9
:10405000002B02D00B00A033DDE70248DEE7C046AC
:10406000F80A0E08FE0F1A010300A8331B6810B5EA
:104070000400002B02D00848584310BD0300A533AC
:10408000187802F039F802000120A634237898400D
:1040900040088018D840F0E740420F0010B50400F7
:1040A00001F0E4FD002801D0044810BD04492000BF
:1040B00001F052FE0028F8D0F6E7C046FD0F1A01C5
:1040C0001027000070B50400150001F00DFA00285B
:1040D00001D0074870BD2900200001F02DFA00280A
:1040E000F7D1200001F0B8F90028F3D0F1E7C0467D
:1040F000FD0F1A01030010B5040096331888210043
:10410000FFF768FE030000209A1C0FD022007032D7
:10411000118881420AD0E06E7334584303F056F997
:1041200021784B1E9941013103F050F910BD000078
:1041300070B500250C00A84221D01B4B1B683F33F3
:104140001B7883421BD301281BD10B00983318889E
:10415000FFF740FE23002200843385321B7811785C
:1041600086342578821C1BD000291BD0002D06D058
:10417000584303F02BF9290003F028F90500280023
:1041800070BD0228FBD10B009A331888FFF722FE7E
:1041900023002200903391321B7811789234E0E7AB
:1041A0000025ECE70D00EAE7F80A0E08F8B5040070
:1041B0000F00012932D10300817A427B0430983309
:1041C000C66F83301B8805780020814225D082424B
:1041D00031D018002100FFF7FDFD184BC018184B17
:1041E000984228D86B1E9D41164B6D421D40164BC0
:1041F000ED182379002B1AD0AE421CD3134B9E42EC
:1042000019D821003800FFF793FF301A4642704159
:104210000F4E40420F4B3040C018F8BD0300C17A2A
:10422000827B9A338C301B880668C579CCE7AE4216
:1042300001D3094BE3E70748EFE7C04600F7C2FFA9
:1042400000879303C863E3FF20BCBE0080F0FA023E
:1042500002F0E5FEFE0F1A0180D1F008F0B504006F
:104260008BB0002801D100F092FF0700404EA53727
:10427000336838783E331B78984207D300203D4B93
:104280000593059D002D06D03B4D6EE005AA21004B
:10429000FFF742FEF5E7022820D01223FF339842B1
:1042A00045D0012800D071E0344B1B68002B13D09F
:1042B0001A78002A10D05A68A16C8A420CD19A68E8
:1042C000E16C8A4208D1DB68226D934204D123005D
:1042D00054331B78102B59D0294D46E0274B1B68CF
:1042E000002B22D05A78002A1FD01A69A16A8A426C
:1042F0001BD15A69E16A8A4217D19A69216B8A42B5
:1043000013D1DA69616B8A420FD11A6AA16B8A42B2
:104310000BD15A6AE16B8A4207D19A6A216C8A42B0
:1043200003D1DB6A626C934230D0164D1DE0134B13
:104330001B68002B18D09A78002A15D0220056321C
:10434000D978127891420FD11A6BA16D8A420BD1A4
:104350005A6BE16D8A4207D19A6B216E8A4203D172
:10436000DB6B626E934211D0074D28000BB0F0BD9D
:10437000F80A0E08FE0F1A019F0F1A013C070E08DB
:10438000570F1A01580F1A01560F1A0101F0BAF906
:1043900002281DD06379002B1AD0D74AA36A9B1834
:1043A000D64A934201D900F0F5FEE36A013B632B44
:1043B00001D900F0EFFE236BD14A013B934201D9B2
:1043C00000F0E8FE636B013B934201D900F0E2FE8E
:1043D000A379002B0ED02279A36C002A00D120E211
:1043E000C84A934201D900F0D8FEE36C002B01D1FA
:1043F00000F0D3FE237B002B0ED033683E331B78B6
:10440000002B09D02300963318882100FFF7BAFD4E
:10441000002801D000F0C4FE637B002B0ED033686F
:104420003E331B78012B09D92300983318882100CB
:10443000FFF7A8FD002801D000F0B5FEA37B002BFC
:104440000ED033683E331B78022B09D923009A33F0
:1044500018882100FFF796FD002801D000F0A6FE85
:10446000E37B002B0ED033683E331B78032B09D936
:1044700023009C3318882100FFF784FD002801D019
:1044800000F097FE237C002B0ED033683E331B7860
:10449000042B09D923009E3318882100FFF772FDF1
:1044A000002801D000F088FE637C002B0ED033681A
:1044B0003E331B78052B09D92300A033188821002F
:1044C000FFF760FD002801D000F079FE01F07CFAD2
:1044D00000285DD1637A002B5AD0237B002B01D1B9
:1044E00000F070FE2300963318882100FFF772FC5D
:1044F000854BC018854B984201D900F063FE844A71
:10450000A36E9B182279002A00D18CE1814A934244
:1045100001D900F057FEE36E7F4A013B934201D977
:1045200000F050FE230070331B887C4A013B9BB295
:10453000934201D900F046FE230072331B78042B0E
:1045400001D900F03FFE23007433754A1B88934263
:1045500001D900F037FE230076331B780F2B01D9E9
:1045600000F030FE230077331B780F2B01D900F0C9
:1045700029FE230078336B491B888B4201D900F058
:1045800021FE23007C331B88934201D900F01AFEE0
:1045900033683F331B78002B13D0A37A002B10D045
:1045A000012001F027FB00280BD133683F331B7833
:1045B000002B05D001212000FFF7F8FD002800D0D6
:1045C000594D33683F331B78012B00D83BE1E37A28
:1045D000002B00D137E1002D00D0C6E6022001F00B
:1045E00009FB002800D120E1237F002B00D02EE121
:1045F000637D002B00D147E63368029340331B787C
:10460000002B00D140E63D7821002800FFF7F0FCA8
:10461000002800D038E6029B3E331B789D4200D232
:1046200032E1424B0493049B002B00D02CE605AAF8
:1046300038782100FFF704FC3D4B059A05000490F3
:104640009A4200D820E6002800D01DE62300A833B7
:104650001B68002B00D117E62200A6321178354ADC
:10466000354F53430292BB4200D90DE6032900D9CE
:104670000AE6A37D002B1DD0336840331B78012B45
:1046800018D92300AC3318782100FFF7B1FC0028BB
:1046900001D000F06EFC2300AD331A7803331B68A1
:1046A00002994B43BB4201D900F063FC032A01D9B4
:1046B00000F05FFCE37D002B40D0336840331B7873
:1046C000022B3BD92300B43318782100FFF790FC6C
:1046D000002801D000F077FC2300B5331A780333AB
:1046E0001B6802994B43BB4201D900F06CFC032AC2
:1046F00001D900F068FC21E000DC0BFFC0EA2101D9
:10470000E703000080F0FA0218FCFFFF18DDF50552
:1047100000CA91FE80BA8C01FEFF0300FE1F00005C
:10472000FF010000FF1F0000BF0F1A01FE0F1A015A
:104730003F0D030040420F0080D1F008237E002B84
:104740001DD0336840331B78032B18D92300BC33AA
:1047500018782100FFF74CFC002801D000F02BFC5A
:104760002300BD331A7803331B6802994B43BB42C5
:1047700001D900F020FC032A01D900F01CFC637E63
:10478000002B1DD0336840331B78042B18D923002D
:10479000C43318782100FFF72BFC002801D000F06B
:1047A00027FC2300C5331A7803331B6802994B4357
:1047B000BB4201D900F01CFC032A01D900F018FC0F
:1047C000A37E002B1DD0336840331B78052B18D9EE
:1047D0002300CC3318782100FFF70AFC002801D011
:1047E00000F047FC2300CD331A7803331B6802998D
:1047F0005943B94201D900F03CFC032A01D900F029
:1048000038FCE37E002B52D1637F002B6FD1A37C59
:10481000002B00D091E0E37C002B00D0A0E09B4D6A
:10482000A3E59B4ADDE59B4A71E633683F331B787D
:10483000012B06D902212000FFF7B8FC002800D187
:10484000D2E6954D91E5002D00D1CDE68DE5230012
:10485000D6331B78012B0AD0002B03D0032B08D0B2
:104860008E4D82E5E379002B00D0C1E6F8E7237A8C
:10487000F9E7631CDB7F002BF2D0336841331B78F0
:10488000012B00D1B4E6EBE704AA21002800FFF7D2
:1048900043FB88235B00984200D1F5E41423FF33E7
:1048A000984200D1F0E4032800D0BCE6ECE42300F9
:1048B000D4331E7821003000FFF79AFB002814D172
:1048C0002300D53302931B78042B0ED805AA2100B0
:1048D0003000FFF7B5FA002807D1029B059A1B7834
:1048E000DA4013006E4A93428ED96E4D3DE52300A7
:1048F000D7331B78002B03D0012B05D06A4D34E54C
:10490000237A002B83D1F9E7237F002BF6D02300F5
:10491000D6331B78012BF3D0002B0CD0032BEDD119
:10492000631CDB7F002BE9D0604B1B6841331B7895
:10493000012BE3D16BE7E379E3E7637D002B01D142
:104940005B4D12E52000FFF78FFB2300A23319789F
:10495000013102F03BFD524B984200D85BE7EFE794
:10496000637D002B00D15AE72000FFF77DFBB842A2
:1049700000D954E72300A33302931978013102F0E0
:1049800025FD2379002B0BD04A4B984200D946E7EE
:10499000A37F002B06D1237D002B39D1464DE4E4C3
:1049A0003B4BF2E723000222D8331B88FF329342AD
:1049B00004D022D8002B28D0012B24D1617D0029DE
:1049C00021D00226934208D03C4AB619934204D023
:1049D0003B4A0436934200D0073E2000FFF744FBD9
:1049E0002300DA331978013102F0F0FC310002F0D3
:1049F000EDFC2B4B9842CED905E030498B42DDD0FF
:104A00002F498B42DAD02F4DAFE401262E48E7E73D
:104A1000E37C002BC2D02000FFF726FBB84200D970
:104A2000FDE62700E31C0393029BA4371978261D9B
:104A3000013102F0CBFC3978013102F0C7FC144B94
:104A40009842ABD89621002001F098FC2378002BE7
:104A500049D06378002B10D0E31CD87F012806D9F9
:104A6000631DDB7F002B33D102F0D2F932E002F07C
:104A700029FA0028F4D0154D77E4F07F022801D000
:104A80000528EDD102F07CFAF3E7C0468C0F1A013D
:104A900000E1F50500AB8704BE0F1A01AF0F1A0144
:104AA0000084D7178F0F1A018E0F1A01F80A0E080B
:104AB0008D0F1A0140787D018B0F1A010102000051
:104AC00001030000890F1A0100127A006F0F1A010A
:104AD00002F070F90028CED102F0E6FAA378002B9C
:104AE00074D002F0BFFABC4B1B6841331B78012B1A
:104AF00009D100F093FD631CDB7F002869D0002BF7
:104B000001D100F095FD0822B44B1E68237A1640AF
:104B100066D0002B04D17B2001F0DCFB00F050FDBF
:104B2000237F002B0ED02300D6331E7800F05CFCD0
:104B3000864207D002F0D2FA002800D045E33000C8
:104B400000F044FC00F0DEFD6379022870D1002BF8
:104B500001D100F0CBFDA379002B0ED0E06C002832
:104B600008D0230054331B7808220093216D0023C2
:104B7000FDF7C6FAA06C00F0AFFDA37C002B04D0BB
:104B80002300A233187800F055FCE37C002B03D0FF
:104B9000029B187800F032FC237D002B02D038787D
:104BA00000F058FB2600122796363388FF37BB42A9
:104BB0007CD12300A5331978002977D1012000F09A
:104BC0008BFE00285ED0864DFFF7CFFB02F05AFA2D
:104BD00089E7002B97D002F05FFB00F009FD92E718
:104BE000002B9DD002F058FBA06D00280FD0E36D84
:104BF000002B0CD033003200216E0096FDF780FAB6
:104C0000009633003200616EE06DFDF779FA230003
:104C100056331878002800D0012000F0D9FC7148E4
:104C200000F0B0FC002800D17AE76F4DFFF79DFB44
:104C3000002B90D002F030FBA06B002810D0E36B6B
:104C4000002B0DD00026216C330032000096FDF7BA
:104C500057FA009633003200616CE06BFDF750FAB2
:104C6000636B226BE16AA06A00F05AFD002802D053
:104C70005E4DFFF77AFB5E4800F0F0FD002800D1A2
:104C800069E7F5E7012100F02FFC00280BD1237B19
:104C9000002B14D03188002000F01EFE00280ED01A
:104CA000544DFFF762FB544DFFF75FFB2300983331
:104CB0001988012000F010FE0028E8D083E7A37BCC
:104CC000002B0AD023009A331988022000F004FE3A
:104CD000002802D0494DFFF748FBE37B002B3ED173
:104CE000237C002B4CD1637C002B5AD100F06CFE4E
:104CF000637A002866D1002B00D18BE002F0CCFA59
:104D0000E36E05A80593230070331B88838023007E
:104D100072331B788371230073331B78C3712300B4
:104D200074331B880381230076331B78837223003E
:104D300077331B78C372230078331B888381230069
:104D40007A331B78837323007C331B88038200F043
:104D50006BFE00283CD12A4800F0F0FE36E01E4BE6
:104D60001B683E331B78032BBAD923009C33198868
:104D7000032000F0B1FD0028B2D0224DFFF7F5FA74
:104D8000154B1B683E331B78042BACD923009E3394
:104D90001988042000F0A0FD0028A4D01A4DFFF7C8
:104DA000E4FA0D4B1B683E331B78052B9ED923007C
:104DB000A0331988052000F08FFD002896D0134DF0
:104DC000FFF7D3FA002B25D100F010FE002821D0E8
:104DD0000F4DFFF7CAFAC046F80A0E080000274038
:104DE0004E0F1A0140420F005A0F1A015F0F1A01AD
:104DF000B80B00004F0F1A010F0F1A014D0F1A01C7
:104E0000400D03004C0F1A014B0F1A014A0F1A01F3
:104E10003F0F1A012300A53302931978002000F0F8
:104E200063FB002800D03EE72300A633197800F08A
:104E300083FB002800D036E73388BB4217D0C34F2E
:104E40003B683F331B78002B75D0012000F0D2FE69
:104E5000A37A00281CD0002B38D102F01DFA0120C3
:104E600000F0DCFE002831D0B94DFFF77EFA029B3E
:104E70001B78002BE3D1637B002B00D1A3E623003A
:104E800098331988012000F027FD0028D7D09AE632
:104E9000002B1BD0230084331B7805AE3370230016
:104EA00085331B787370230086331B78B37023001F
:104EB00087331B78F370230088331B78337102F03B
:104EC000EBF931000120FFF7E9F8CBE73B683F330E
:104ED0001B78012B2FD9022000F08CFEE37A0028EA
:104EE0000BD0002B27D102F0D7F9022000F096FE5C
:104EF000002820D0974DFFF738FA002B1BD0230055
:104F000090331B7805AE3370230091331B78737098
:104F1000230092331B78B370230093331B78F37014
:104F2000230094331B78337102F0B6F9310002206C
:104F3000FFF7B4F8DCE7012000F0A8FAA37D002811
:104F40001AD0002B10D0022000F0A0FAE37D002838
:104F50001DD1002B1DD02300B5331A78013B1978E1
:104F60000220FFF7AFF82CE0012000F0A1FA0028A2
:104F7000E9D0794DFFF7F9F9002BE4D02300AD33E8
:104F80001A78013B19780120FFF79CF8EFE7002B16
:104F900014D03B6840331B78032B17D9032000F053
:104FA00075FA237E002826D0002B0FD1032000F0B5
:104FB0007FFA00280AD0694DFFF7D7F9022000F0E8
:104FC00077FA0028E5D0664DFFF7CFF93B6840330C
:104FD0001B78042B1AD9042000F058FA637E0028AD
:104FE0002FD0002B12D1042000F062FA00280DD03F
:104FF0005C4DFFF7BAF9002BE8D02300BD331A78D7
:10500000013B19780320FFF75DF8D2E73B68403396
:105010001B78052B20D800F0C3F9A37F002836D1D8
:10502000002B38D02300D8331F889E7800F0C2F9B7
:10503000380000F085F9300000F096F900F0A4F98E
:1050400029E0002BE2D02300C5331A78013B197800
:105050000420FFF737F8C9E7052000F017FAA37E10
:10506000002809D0002BD6D1052000F021FA002815
:10507000D1D03D4DFFF779F9002BCCD02300CD33B3
:105080001A78013B19780520FFF71CF8EFE7002B91
:1050900001D100F08FF900F02DF9E37E002819D03E
:1050A000002B01D100F030F9637F002B04D02300E6
:1050B000D733187800F034F923002C4F55331E787D
:1050C0003B78B3421BD002F009F8002813D0284DDA
:1050D000FFF74BF9002BE7D02300D4331F785E781D
:1050E00000F012F9380000F0D5F8300000F0E4F8D4
:1050F00000F0F4F8D8E7300000F0E0FA3E7000F07D
:10510000BDFAE379002835D0002B0ED1A32001F0A1
:10511000E1F800F0B3FA002807D001F0DFFF002823
:10512000D5D100F0B5FA0028D1D12378002B08D0D2
:10513000637D002B05D02300A8332079196801F086
:105140001DF902F0A9F8FFF710F9C046F80A0E0899
:105150002F0F1A012E0F1A019E0F1A019C0F1A0110
:105160009D0F1A019B0F1A019A0F1A0140070E0892
:105170005C0F1A01002BD8D000F080FA0028D4D19F
:1051800001F0ACFF0028A2D100F06CFACDE7104D81
:10519000FFF7EBF80F4DFFF7E8F80F4DFFF7E5F8D5
:1051A0000E4DFFF7E2F80E4DFFF7DFF80D4DFFF75C
:1051B000DCF80D4DFFF7D9F80C4DFFF7D6F80C4D84
:1051C000FFF7D3F80B4DFFF7D0F80B4DFFF7CDF8F5
:1051D000FE0F1A01EF0F1A01EE0F1A01DF0F1A016D
:1051E000DE0F1A01DD0F1A01DC0F1A01DB0F1A01A5
:1051F000DA0F1A01CF0F1A011F0F1A0170477047FB
:10520000F0230A041B0330B51A400F240B0023407F
:105210001A43084B1D68830228691B188020C001AF
:105220001A5018582040401A411E884102494042F5
:10523000084030BDF80A0E080300C200044B1030CD
:105240001B6880021B69C0580F2318407047C04676
:10525000F80A0E08064B00021B68190088311A680C
:105260000B680449D21813680B401843106070474C
:10527000F80A0E08FF00FFFF054B1B681A00883272
:105280001B6812689B181868000AC0B27047C046B5
:10529000F80A0E0810B5A022F0240549D200240116
:1052A00000028B582040034C23401843885010BD07
:1052B00000002640FFF0FFFF10B5A022E0240549C2
:1052C000D200E40100038B582040034C23401843D4
:1052D000885010BD00002640FF8FFFFFA0228023D2
:1052E0000349D20088581B0203438B507047C046C5
:1052F00000002640A023034ADB00D0580004C00F62
:105300007047C04600002640A0220349D2008B58B7
:10531000024803408B50704700002640FF7FFFFF8C
:10532000C021054A890000021368084003490B4068
:10533000184310607047C04600002740FFFCFFFF85
:105340000549064A10B58B58054C2340054C2040B2
:105350001843885010BDC0460000264004050000D8
:10536000FEFCFFFF010300000449054A10B58B58FD
:10537000044C000423401843885010BD0000264010
:1053800004050000FFFF00FF80230349034A1B06BA
:10539000885803438B5070470000264004050000E6
:1053A000024A034BD058C00F7047C0460000264049
:1053B000040500000349044A8B585B005B088B50CE
:1053C0007047C0460000264004050000A02210B52A
:1053D00003240449D2008B582040A343184388502B
:1053E00010BDC04600002640A023034ADB00D05871
:1053F000032318407047C04600002640064B0006B5
:105400001B68190088311A680B68D21813681B02D0
:105410001B0A184310607047F80A0E08044B1B68FB
:105420001A0088321B6812689B181868000E7047B3
:10543000F80A0E08064B00021B6819008C311A6826
:105440000B680449D21813680B401843106070476A
:10545000F80A0E08FF00FFFF094B1B6840331B785A
:1054600083420BD9074BE0228000C01880239200B2
:1054700081581B060B438350002070470248FCE70D
:10548000F80A0E080000264001004A00064A030000
:1054900012680020403212789A4204D9E033034A5D
:1054A0009B009858C00F7047F80A0E08000026406D
:1054B000002810D0094B1B6840331B7883420AD95F
:1054C000E022074B8000C018920083585B005B0805
:1054D0008350002070470348FCE7C046F80A0E08D6
:1054E0000000264001004A0010B50B4B1B684033FA
:1054F0001B7883420DD90F290BD8E0220F24074BCC
:105500008000C01892008358A343194381500020A3
:1055100010BD0348FCE7C046F80A0E08000026400C
:1055200001004A00034BE0308000C0580F231840B0
:105530007047C0460000264010B50B4B1B68403337
:105540001B7883420ED903290CD8E0223024074B64
:105550008000C018920083580901A3431943815069
:10556000002010BD0248FCE7F80A0E0800002640A3
:1055700001004A00024B18694007C00F7047C0463F
:1055800000002740082310B504000B4A11680B43A4
:105590001360FFF7EFFF002808D1002C01D1074866
:1055A00010BD012000F096FE013CF2E76042604130
:1055B000024C40422040F3E70000274002004A002E
:1055C0000821024A13688B4313607047000027408C
:1055D0008021054A490200041368084003490B4032
:1055E000184310607047C04600002740FFFFFEFFD1
:1055F000802370B5074D084C1B062A590120134320
:105600002B5100F04DFEC0232A59DB0513432B51CB
:1056100070BDC046000026403C050000024A034B16
:10562000D0588000C00F7047000026403C050000A5
:105630000349044A8B58DB00DB088B507047C04697
:10564000000026403C0500000449054A80058B58AF
:10565000800D9B0A9B02184388507047000026402B
:105660003C05000080230349034A1B068858034376
:105670008B507047000026400C050000024A034B87
:10568000D058C00F7047C046000026400C050000EF
:10569000C023074A5B00D058803BFF3B184005D130
:1056A000044953585B005B08535070470248FCE7BD
:1056B000000026400C05000003004A0010B501243C
:1056C0000349044A8B58A3431843885010BDC04671
:1056D000000026400C050000024B984201D8024B06
:1056E0001860704700E1F5054C070E080349044AAD
:1056F0008B585B005B088B507047C046000026400B
:105700002C050000A6220549D2008B580220DB435D
:105710009B0702D00123885818407047000026409C
:10572000F0B516001F003B4A3B4B0C00D15885B02A
:10573000029001920393002967DB3849384A4318E5
:10574000934264D8631E632B61D8364A731E93421A
:105750005DD8354A7B1E934259D8FA21F53089002D
:10576000FF3001F033FE0500304831004743700838
:10577000381801F02BFE80228446102300201202EC
:10578000010011430F004F43BC4500D30800013B0B
:105790005208002BF4D12900254B614358434B0894
:1057A000C01801F013FE234B984230D96D43224BB1
:1057B0002249E81801F00AFE644360436421323054
:1057C00001F004FE1E49704301F000FE03281ED8BC
:1057D000012801D8012358401A4A019B1A499B58B5
:1057E00000031940194B0B431843019B0399985030
:1057F000019B039A00209A5802231343019A5350A5
:10580000134B029A1A6005B0F0BD1248FBE712482C
:10581000F9E7C046000026402C05000000DC0BFF25
:10582000C0EA2101E7030000CF07000080841E00CA
:10583000B36D0200890200005DF70000BBEE0100BD
:10584000A0BB0D0020FF000008C0FFFFF703000011
:1058500050070E0803004A0001004A00F8B5144C36
:10586000144D07006359002B1FDB8023060062598B
:105870001B0613436351FFF745FF02280AD0002E91
:1058800003D13000002F0FD009E0012000F022FDED
:10589000013EF0E7381E07D00020864204D163594C
:1058A00005485B005B086351F8BD0448FCE7C0464F
:1058B000000026402C05000002004A0003004A00B8
:1058C00010B5FFF71FFF0023022801D1014B1B6811
:1058D000180010BD50070E08104B1B683E331B7894
:1058E000834219D9042910D94B1EFF3B132B13D81F
:1058F0001F2319400A4B8000C018C02304229B00BC
:10590000C1504033C250002070470723D0301940A7
:10591000034B8000C150F6E70248F5E7F80A0E088D
:105920000000264001004A00094A83009B18D0224B
:105930009200985807221040042807D1C0229200F4
:1059400098581F2303408020400018437047C046EA
:105950000000264010B5FFF7E7FF02281CD005D84D
:10596000002824D0012814D0002014E01223FF3393
:10597000984214D01423FF33984215D0033B984229
:10598000F2D10C4A0C4BD358002BEDDA80200002E8
:1059900001E00A4B186810BDFFF792FFFBE7FFF725
:1059A000E9FD0028E0D0F1E7024A054BEBE70548A6
:1059B000F1E7C046000026400C0500004C070E0829
:1059C0003C05000000127A00B023024ADB00D058E8
:1059D000C00F704700002640B223034ADB00D058B6
:1059E000012318407047C04600002640B1200B4BF1
:1059F000C0001A580A491140802292050A43B0217A
:105A00001A50C9005A580020520052085A500549ED
:105A10005A58520052085A507047C046000026405B
:105A2000FFFFFFCF8C05000070B5B024224AE400D0
:105A30001359002B3DDBC17903684D1EA9419B031F
:105A400009069B0B0B431351038984881B491B04D4
:105A5000E4040B40E40C2343194C1A4D1351FF246A
:105A6000C37AE0261B0123408489F60024022C40DF
:105A70000F252343847A2C40C0252343847BAD0526
:105A800024072C402343B124E400135183790E4CA6
:105A90001B02155933400D4E35402B431351038AD9
:105AA00000201B0415590B40094929400B43135191
:105AB00070BD0848FCE7C046000026400000FF011A
:105AC0008405000000FF1F008C050000FFF8FFFFA9
:105AD000FFFF00FE03004A00B023154ADB00D35845
:105AE00010B59903DB01DB0F890BC371114B01600A
:105AF000D3580F24D904DB01DB0D0381B123DB0074
:105B0000D358C90C818019002140817219092140A4
:105B1000C172D9029B009B0F8373074BC90CD358EA
:105B200081815A05DB01520FDB0D8271038210BDAA
:105B300000002640840500008C050000F8B5802395
:105B4000060005000427264C264A1B06A1580B43D5
:105B5000A350B223DB00E3583B4201D1002D1FD1FB
:105B6000B121C9006358204A1A4080239B05134382
:105B70006350002E01D0002D06D0B0228023D20029
:105B8000A1581B060B43A350FFF726FF002811D195
:105B9000002D0AD1002E11D0FFF728FF1348F8BDC1
:105BA000012000F097FB013DD3E7012000F092FBBC
:105BB000013DE9E7002E01D0002DEDD0B122C02338
:105BC0000020D200A1589B050B43A3508642E6D08B
:105BD000681E85416842064D044B2840C018DEE728
:105BE000000026408C050000FFFFFFCF02004A00A6
:105BF000FEFFB5FF8030034BFF308000C058C00F60
:105C00007047C046000026409030034BFF308000B4
:105C1000C0580123184070470000264070B50E4B55
:105C20001B683F331A78431E9A4213D90B4B0C4D15
:105C30008000C41863590B4A01201A4080239B0539
:105C40001343635100F046FB002063595B005B087F
:105C5000635170BD0448FCE7F80A0E0800002640B6
:105C6000FC050000FFFFFFCF01004A00F0B5204B0C
:105C70001B683F331B78834233D31E4B80001E4C7E
:105C8000C0180359002B2ADB8E78B31E0E2B28D8A0
:105C90004F787B1E112B24D80B78CD789C46002D95
:105CA00021D1152B1DD970239C451AD80A79022AB7
:105CB0000AD07F23614619400B003F023B43360464
:105CC0003343ED062B430351C021120789050359C5
:105CD0000A400A490B401A4302510020F0BD08480F
:105CE000FCE70848FAE7122BFBD93823DCE7C0466B
:105CF000F80A0E0800002640FC050000FFFFFFCF59
:105D000003004A0001004A0010B5104B421E1B68F8
:105D10003F331B78934216D97F221F248030FF30F7
:105D20000B4B8000C3581A400A701A0C2240180A04
:105D30008A701A012040E240487000209B009B0FAF
:105D4000CA700B7110BD0348FCE7C046F80A0E0884
:105D50000000264001004A00F8B5214B0F001B68E7
:105D60003F331A78431E9A4237D91E4B8000C4181D
:105D700080230E001C4D1B06625913436351012200
:105D80001A4BE358134218D1002E11D1002F18D00E
:105D90006359174A01201A4080239B05134363511E
:105DA00000F098FA635913485B005B08635113E0F5
:105DB000012000F08FFA013EE1E7002F01D0002E14
:105DC000E6D0635900209B009B0F022B04D1C02317
:105DD00062599B0513436351F8BD0748FCE7C04671
:105DE000F80A0E0800002640FC0500003C060000F2
:105DF000FFFFFFCF02004A0001004A00F7B5484B01
:105E000000911500984200D987E09A4200D984E0B9
:105E1000444B994200D980E00122434B1A70FF287D
:105E200045D80F2307261C001840FF2D58D8FF2205
:105E30002D0115402843F025E0222C43F025D20205
:105E400032432D032B43394D07262F683D00BA35C9
:105E50002D886E43350001963E6AAD192E68002EDE
:105E6000FCDA334D2E78334D002E03D0324EAE592E
:105E7000002E50DA314E32493160324E32493160B3
:105E8000A321C9006E58A6430643304C6E502859D2
:105E90009843024300202A512D4B009A1A60264B4A
:105EA000EA503B6A019AD31800225A60FEBD294B82
:105EB000984205D80F231840060000242000B4E7BC
:105EC000254B060A984204D8FF2304011C402643B0
:105ED000F3E7F02300021B01184006431F4BECE7D9
:105EE0001C4A954205D82A04F0252D032A40324346
:105EF000A8E72A0A12043243174EB54207D8F02603
:105F00002D05360435402A43FF252D049AE72D063A
:105F10002A43134D96E71348C3E71248C6E7C04625
:105F20000F060000FFFFFF0048070E08F80A0E08E2
:105F300054070E08000026401C05000008012640FA
:105F40001F1F0000040126403D3D00001405000015
:105F500044070E08FF040000FF0500000F0F0000BB
:105F600000000F0F01004A00F8B5144B984219D9F0
:105F70000027134BC018F6213F23124D124CF63068
:105F80002E5949001E4001F021FA321A002F00D08C
:105F900032183F212B590A408B4313432B51002FBA
:105FA00009D0F8BD094B984204D8EE33FF33181AD4
:105FB0000127E0E700204042F3E7C046EC81000003
:105FC0000080FFFF0000264018FF0000137E000045
:105FD000F0B589B003AC14220021200002F009FCC6
:105FE0002000FFF779FDB0231A4ADB00D2580023C6
:105FF0009A4203DAA37B023B5A1E9341E5790026BD
:106000006A1E95410135B34221D0A488B4421ED006
:10601000039B30000193FFF79DFC2A00330007002B
:106020003100200001F07EFA0C0005003300019AD7
:106030003100380001F076FAE6076A083243630857
:10604000801859412A00230001F04CFA0600300064
:1060500009B0F0BD00002640F0B50026244B85B005
:106060001B6807003F331B78B3423ED0B0423CD0A0
:1060700083423AD30522310002A802F0BAFB02A9FA
:106080003800FFF741FE3B008033FF33194A9B0085
:106090009B58B34229DA02AB1B79022B25D002AB05
:1060A0005C78B44221D09D78B5421ED01B78380070
:1060B0000193FFF74FFC2A00330007003100200056
:1060C00001F030FA0C0005003300019A310038006D
:1060D00001F028FAE6076A0832436308801859413C
:1060E0002A00230001F0FEF90600300005B0F0BDE3
:1060F000F80A0E080000264010B5041E04D1FFF770
:1061000067FF002806D008E0064B1B683F331B786A
:10611000834203D22000FFF71DFC10BDFFF79CFF58
:10612000EFE7C046F80A0E08E02210B50124094B3B
:1061300080009200C018835880589B069B0F9C409B
:106140000F231840FFF7D8FF63081818210001F04B
:106150003DF910BD0000264010B50020FFF7E4FF18
:106160000400FFF75BF9411C4808001901F02EF903
:1061700010BD10B5FFF7F0FF0400FFF77DF8411CDC
:106180004808001901F022F910BD0000144B30B589
:106190001A68072413002C331B781F2B15D883088B
:1061A0001D00A5432C1E0FD103342040A040814088
:1061B00012689B002032D3180A00FF2181401C681E
:1061C000624011406140196030BD802320401B06B1
:1061D000184380239B011268C91889008850F3E78F
:1061E000F80A0E08064B9A680300064810339B0015
:1061F000824202D1985899507047034AD058FBE721
:1062000000ED00E000000E0800040010F8B50600E4
:106210000D0000283AD00023C05E002828DB7188DA
:10622000FFF7B4FF0024FF22032794460023F05E0B
:10623000716883B21F40FF006646BA408901314051
:10624000D243B940002815DB114E83089B009B19EF
:10625000C026B6009F593A40114399510D4B9A6898
:106260000D4B9A4202D12900FFF7BCFF2000F8BD78
:106270000A4CD8E70F263340083B064E9B089B008C
:106280009B19DE6932401143D961E7E7034CEDE722
:1062900000E100E000ED00E000000E080100560003
:1062A00070B5802504002D02AC4205D8064B186855
:1062B0006043FAF709F970BD044B1868FAF704F95E
:1062C000034BE418F0E7C04604010E0800010E0875
:1062D0000080FFFF10B5034B1B785843FAF7F4F822
:1062E00010BDC04608010E088022054B12069A64B4
:1062F000986C044BC043C0171840034BC01870473C
:1063000000002740FDFFB9FF0300460080220C4B30
:10631000120198585A68D2B2002A02D08022D202C2
:106320001043084A995889B2002902D080214902B5
:1063300008439B581B0C02D080239B0218437047D4
:106340000000264004080000FEE7000002680A4B37
:1063500010B51A6042685A6082689A60C268DA6052
:1063600002691A6142695A6182699A61C269DA6195
:10637000FFF7EAFF10BDC046E0050E08F0B5192290
:10638000002800D14B322A4B8A4292411B6852426C
:106390001C00AC3424881D68671903253E68AE4391
:1063A00016433E601E68A4192768224E37402760B6
:1063B0001C00AE3424881E68A7193E68AE433243E1
:1063C0003A601A681B4EA21814682640166000280E
:1063D0000ED00020102904D921308842804140424B
:1063E00001300F225B681968914308431860F0BDC3
:1063F0001A00553212788A42F3D21A0056321278B5
:1064000001208A42EDD21A005732127800188A42CF
:10641000E7D21A005832127828008A42E1D21A00D4
:10642000593210788842804140420430D9E7C04652
:10643000F80A0E08FFFCFFFFB0235B055A78212005
:10644000002A01D05878C0B27047B0235B059A8902
:10645000002A02D0988980B2704780204000FBE774
:1064600070B5FFF7F2FF8023194A5B00984215D1FF
:1064700011680F240B0002229C3318680B6818184F
:106480000368A343134303600800A0300B6801684E
:106490005B181968A1430A431A6070BDB0241268E2
:1064A0000C4B11006405E3580B4D9C312B40C0256B
:1064B00010680968AD0041180868284003430B6064
:1064C0001100A03113680A689B18044AA258E3E738
:1064D000F80A0E0848180000FFFCFFFF44180000EF
:1064E00070B5FFF7B2FF8023154A5B0098420DD1CB
:1064F000136814491A009C3212681B689B181A68AA
:1065000011408022D2010A431A6070BDB024126883
:106510000D4B11006405E3580C4D9C312B40C025F8
:1065200010680968AD0041180868284003430B60F3
:106530001100A03113680A689B18054AA258E3E7C6
:10654000F80A0E08FF8FFFFF50180000FFFCFFFF46
:106550004C18000010B5FFF778FF8023124A5B004B
:1065600098420DD1136811491A009C3212681B68B9
:106570009B181A681140C022D2010A431A6010BD4C
:10658000B02112680A4B4905CB58110009489C31CB
:106590000340C02009681268800052181168014049
:1065A0000B431360EBE7C046F80A0E08FF8FFFFFAE
:1065B0001C180000FFFCFFFF70B5FFF746FF8023AB
:1065C0001A4A5B00984215D111680F240B00032270
:1065D0009C3318680B6818180368A34313430360BF
:1065E0000800A0300B6801685B181968A1430A43D2
:1065F0001A6070BDB02412680D4B11006405E35899
:106600000C4D9C312B40C02510680968AD00411825
:106610000868284003430B601100A03113680A6822
:106620009B18C1225201A258E2E7C046F80A0E08A0
:1066300024180000FFFCFFFFF8B51E4FC0253B6883
:106640002D011A009C321B6812689B181E68FFF708
:10665000FCFE340080232C405B0098420ED10020C9
:10666000FEF7ECFD0400FFF7E7FE012213002228ED
:1066700001D86342634113401800F8BD3B680E4FD8
:1066800019009C311A6808681218106838401060A8
:106690001A680868121828001768B0433843106059
:1066A0001B680A689B1818682840001B431E984105
:1066B000C0B2E2E7F80A0E08FFF3FFFF7FB5274BF1
:1066C00086000D00F458042901D0012927D10020AB
:1066D0000FE0A3682B420BD1E36829001A685B68BE
:1066E00002920193039302A8236898471C4B1C60F5
:1066F0006469002C0BD01B4B9842EAD1012DE8D1E4
:10670000174B18481A68184B9A5104B070BD012DE8
:10671000FBD1144B9842F3D0134B9C51F5E702295F
:1067200006D10F4B1B68181EEFD01C6903E01C003C
:106730006369002BFBD10020002CE6D0A3682B421C
:1067400009D1E36829001A685B68029201930393F8
:1067500002A8236898472469EEE7C04698070E0808
:1067600094070E08FF00420080070E0870B5040071
:10677000FFF762FE85B2FFF768FE06000020FEF715
:106780005DFD80235B00002811D19E4211D1222D96
:106790000FD880251E4B6D041B68240659681D4BBD
:1067A0002C40CA581C4D2A401443CC5070BD9E4208
:1067B00028D0174A1268156A9E420ED16242624181
:1067C000FF2352429A43154BD21801212800FBF7B0
:1067D000CDFC002808D01248E8E76242624101235C
:1067E00052429A430F4BEFE7094B1B68BC331B68BF
:1067F000EB181A68002AFCDBEB6800201B0EA02BAC
:10680000E9D1D3E7222DE6D9014B1B681D6AD5E7F4
:10681000F80A0E0818F00000FFFFFFFE010100302B
:10682000040042000300000C70B50500FFF704FFF0
:10683000002834D0F9F751FE0600022D17D10120AF
:10684000FFF794FF041E0DD1FFF70AFE072215493A
:106850004B6993432A4013434B61022D15D1FFF737
:1068600079FE00243000F9F73CFE200070BD0722BD
:106870000C4934204B6993431A00032313434B61A3
:10688000FFF728FDFFF72CFEE0E79120FFF722FD40
:10689000FFF792FE0020FFF769FF0400E2E7024CD9
:1068A000E3E7C04600002640030042001A4B1B6885
:1068B000190088311A6809685118096801621900BD
:1068C0008C3109685218126842621A0046321278F6
:1068D000002A1FD09A68E0321268D2061AD5F22236
:1068E000DB68D2019A580260F022D2019A584260C5
:1068F0000A4A9A5882600A4A9A58C260094A9A58C3
:106900000261094A9A584261084A9A588261084AC3
:106910009B58C3617047C046F80A0E08047800000F
:10692000087800000C78000010780000147800004F
:10693000187800001A4B1B681A0088321968126810
:106940008A18016A11601A008C32196812688A1854
:10695000416A11601A0046321278002A1ED09A68E5
:10696000E0321268D20619D5F0224168DB68D20104
:10697000995081680B4A9950C1680B4A9950016936
:106980000A4A995041690A4A99508169094A9950BD
:10699000C169094A99500168E83299507047C04668
:1069A000F80A0E0804780000087800000C7800004F
:1069B000107800001478000018780000F7B5070080
:1069C000FFF73AFD664D06006B68002B00D07DE0B6
:1069D000F9F783FD6B680090002B00D089E0614CD3
:1069E00022681300BA33198807234B43126A9B1895
:1069F0001A68002AFCDADB68DA0021D51B0F1B07B6
:106A000059480193FFF752FF5849212E00D075E0F5
:106A100022689020130088331C68136800011C1939
:106A200023680B400343236013008C3312681B68F8
:106A3000D3181A681140084318604B4B019A13434E
:106A40008022484E9205316813430A00BA321088FA
:106A5000072200244243096A5218D36054605368E5
:106A6000FFF7F3FC80235B0098425DD1380002F011
:106A70009FF832681300BA33198807234B43126A10
:106A80009B181A68002AFCDADF68FB0003D538017E
:106A90000009FFF74FFF364B32681F401300BA332F
:106AA000198807234B43126A00989B180022DF6065
:106AB0005A60F9F716FD002C0FD16B68002B03D03C
:106AC00008210120FFF7FAFD2000FEBD012108008A
:106AD000FFF7F4FD041E00D17AE76B68002B03D0AA
:106AE00002210120FFF7EAFD224B9C42ECD0224C10
:106AF000EAE704210120FFF7E1FD70E7206880222A
:106B0000030088331C68036852001C1923680B407B
:106B10001343236003008C3300681B68C318186894
:106B200001400A431A6088E733681A00BC32196AC8
:106B3000126852181168002910DBBA331B889A18A2
:106B40001368002B0ADB04230C4A11690B43136101
:106B5000012F01D030BF8CE720BF8AE7054C88E7C2
:106B600098070E08F80A0E0858070E08FF00FFFFE6
:106B7000FFFFFFDF05004200FF00420000ED00E0E4
:106B800010B5002810D10F292BD8174B89001C688D
:106B90002300B4331B8824681B195918032313409E
:106BA000124A1A430A6010BD01280DD10E4B196814
:106BB0000B00B63309681B885B18032111400B4A90
:106BC0000A431A600020EEE702280AD1064B196832
:106BD0000B00B83309681B885B1803210A4003497E
:106BE000EEE70348DFE7C046F80A0E080000FA05A2
:106BF0000100420010B5002811D1184B1A6813008B
:106C0000B4331C8803230B40154919431368E31858
:106C10001B18043019604028F8D1002010BD01284D
:106C20000CD10E4B1A681300B63312681B889B18E0
:106C300003220A400A4911431960EEE702280AD1EB
:106C4000064B1A681300B83312681B889B1803227E
:106C50001140034AEFE70348E0E7C046F80A0E0890
:106C60000000FA0501004200024B58694000C00FC5
:106C70007047C0460000264010B50D4B1B684733D7
:106C80001B78002B12D0FFF7EFFF0A4B002804D12E
:106C900080225969D2050A435A6180229620996957
:106CA00012060A439A618000FFF714FB10BDC0462C
:106CB000F80A0E08000026400020064B1B684733E8
:106CC0001B78834203D0044B986907231840C0B255
:106CD0007047C046F80A0E080000264070B50D4BFC
:106CE00004001B680D0047331B78002B11D0FFF701
:106CF000E3FFA0420DD0072207498B69934322404E
:106D000013438B61002D04D0A04202D2C820FFF7AC
:106D1000E1FA70BDF80A0E0800002640054B1B681A
:106D200047331B78002B04D0034A93695B005B0850
:106D300093617047F80A0E080000264010B5040061
:106D4000FFF792FF0A4B1B6847331B78002B09D0D3
:106D5000002807D0074B002C05D080229969D20566
:106D60000A439A6110BD9A6903490A40F9E7C0468F
:106D7000F80A0E0800002640FFFFFFBF074A084B35
:106D8000D058B022E8235205DB00D35C1F2210400C
:106D9000C01A431E9841C0B27047C046000026404A
:106DA0001CFF00000120024B1B68DB0D984370475D
:106DB0000000264010B5114C23689B061CD5FFF738
:106DC000F1FF2268002813D00D4B13432360FFF717
:106DD000D5FF012802D150220A4BE2500120FFF7D3
:106DE00079FA802300202268DB051343236010BD5D
:106DF000054B13432360F1E70448F8E70000264001
:106E000000000417307F0000000004160400420058
:106E100010B5FFF7C7FF184C236800280DD0174A9C
:106E2000134023600820FFF755FA64232268002AE4
:106E300007DB002B03D1124811E0124AF0E7013BB7
:106E4000F4E7002BF7D023680F4A0120134023609A
:106E5000FFF740FAFFF7A6FF002801D1002010BD80
:106E6000FFF78CFF0128F9D1B022084B5205D25808
:106E7000074BE250F2E7C04600002640FFFFFBACA4
:106E800002004200FFFFFBADFFFFFFFB10180000F8
:106E9000307F000010B5FFF785FF431E9841802327
:106EA00040425B041840054BC018054B1B6803406B
:106EB000181A43425841C0B210BDC04600000452E7
:106EC00000002640F7B50700FFF7B6FB002848D0C2
:106ED000F9F703FBB0240190234D244E6405002FE5
:106EE0001CD1E823AF51DB000120E45CFFF73EFC3E
:106EF000E4B2061E0DD1FFF7B3FA1F211C4A0C4065
:106F0000AB588B431C43AC50002F20D1FFF722FB22
:106F10003E000198F9F7E5FA3000FEBDFFF7BAFF31
:106F20005023002801D1134BE3581F22AB511049C5
:106F3000114B0320E45C6B58E4B293431A000B231B
:106F400013436B50FFF7C6F9FFF7CAFAD5E70720DE
:106F5000FFF7C0F9FFF730FB0020FFF707FC060042
:106F6000D7E7064ED8E7C04600002640307F000035
:106F70001CFF000010180000410700000300420041
:106F8000F8B50500FFF70EFF002857D0F9F7A5FA6E
:106F90000600022D3CD1FFF7F1FE00282ED11F2262
:106FA0002C482D49435893431A000B231343435055
:106FB0000920FFF78FF9E023264FDB033A68E12031
:106FC000134307223B607B69154093431D43802395
:106FD0007D617A69DB0513437B6180237A691B0637
:106FE00013437B618000FFF775F9802300243A6822
:106FF0001B0413433B60194BFC5004E00020FFF7D7
:1070000061FF041ECBD03000F9F76BFA2000F8BD09
:10701000052D11D1FFF7B2FE012807D11F220D481F
:107020000D49435893431A001B23BFE70120FFF784
:1070300049FF041EF2D0E6E7094CE4E70722054BBE
:1070400004005B6913409D42E0D02800FFF7ECFB91
:107050000400DBE7000026401CFF0000307F00003A
:1070600003004200054A536C1B0ADBB23A2B03D1E2
:10707000516C034B0B4353647047C04600002740DC
:10708000003A0020064A536C1B0ADBB23A2B06D1A9
:10709000536C04491940E8239B010B435364704728
:1070A00000002740FFC5FFDF0449054A4B6C1A402A
:1070B000E8239B0113434B647047C0460000274000
:1070C000FF00FFFFC022C0230349520088581B065F
:1070D00003438B507047C04600002640C023044A3B
:1070E0005B00D058800F431E9841C0B27047C04625
:1070F00000002640C0228020064952008B58C0055F
:107100009B009B0803438B50802388581B06034336
:107110008B5070470000264010B50400FFF7DEFFDB
:10712000002808D1C423044A5B00D058A4B2000C44
:1071300000042043D05010BD0000264010B50400CC
:10714000FFF7CCFF00280BD1C422F02005495200E4
:10715000000324048B580440034803401C438C5014
:1071600010BDC04600002640FFFFF0FFE0230121D4
:10717000024ADB00D150D3587047C0460000264079
:1071800010B51148FAF7DEFEFFF7B4FFC022012068
:107190000E4952008B5883438B5000F07DF80C4A07
:1071A00080210320FBF72AF90A48FAF7FDFF0A4B72
:1071B0001B6851331B78002B02D00848FBF730F8CE
:1071C000FCF71CFD10BDC0460090001000002640DA
:1071D0000C0000086C090E08F80A0E08C090001098
:1071E000F0B5002585B00395FFF7CAFF62B6FAF740
:1071F0008FFE802002AA03A94000FAF725FD1E4C4D
:107200001E4B1F4E0093019533001E4A2100039828
:10721000F9F7BEFD230048331B78AB4228D080220B
:10722000E36CD2009D18184B676B1E60FCF786FD5F
:10723000637E012B06D1637C002B03D0216AE069B9
:10724000F9F728FD230038331E78002E04D0E06BB8
:10725000FAF7FAFDFAF76CFE06210E20FDF7D0FFD3
:10726000280032003900FAF791FD002005B0F0BD8A
:107270008022E3695202D5E7AC070E08940F0E088E
:107280002C090E0820110E083C070E0810B500202E
:10729000FBF76CF810BD000010B50020FEF744FFAE
:1072A000041E25D0134B1860FEF7B8F8411C2000CF
:1072B00000F08CF8104B04001860FDF7DDFF411C56
:1072C000200000F083F80D4B441E18600C4920008C
:1072D00000F07CF8FA210B4B013018708900200077
:1072E00000F074F8084B01301860084BC0031860B8
:1072F00010BDC046F8000E08FC000E08F4000E0891
:1073000040420F0008010E0804010E0800010E089B
:107310009023034A5B01D058032318407047C046AE
:107320000000204010B59024F9F7D7F8074B64010E
:107330001A5907491140074A0A431A51102259683D
:107340001142FCD0F9F7CDF810BDC0460000204036
:10735000FCFF00000100FA05F8B590250E4C6D0108
:107360000700F9F7BAF863590600DB439B0701D120
:10737000FFF7D8FF80239B00E7506359074A1A4064
:10738000074B13436351102362681A42FCD030004C
:10739000F9F7A7F8F8BDC04600002040FCFF000048
:1073A0000300FA0502B4714649084900095C490026
:1073B0008E4402BC7047C04603B471464908400081
:1073C0004900095A49008E4403BC70470022430813
:1073D0008B4274D303098B425FD3030A8B4244D39D
:1073E000030B8B4228D3030C8B420DD3FF220902DF
:1073F00012BA030C8B4202D31212090265D0030B9E
:107400008B4219D300E0090AC30B8B4201D3CB0393
:10741000C01A5241830B8B4201D38B03C01A5241D5
:10742000430B8B4201D34B03C01A5241030B8B42D7
:1074300001D30B03C01A5241C30A8B4201D3CB02C2
:10744000C01A5241830A8B4201D38B02C01A5241A7
:10745000430A8B4201D34B02C01A5241030A8B42AA
:1074600001D30B02C01A5241CDD2C3098B4201D3C2
:10747000CB01C01A524183098B4201D38B01C01A40
:10748000524143098B4201D34B01C01A52410309B7
:107490008B4201D30B01C01A5241C3088B4201D366
:1074A000CB00C01A524183088B4201D38B00C01A13
:1074B000524143088B4201D34B00C01A5241411A3A
:1074C00000D20146524110467047FFE701B5002047
:1074D00000F006F802BDC0460029F7D076E77047F5
:1074E0007047C046002B11D1002A0FD1002900D1CE
:1074F000002802D00021C943081C07B4024802A199
:107500004018029003BDC046D9FFFFFF03B4684690
:1075100001B5029800F04EF8019B9E4602B00CBCEB
:107520007047C046F0B5CE46474615042D0C2E00D8
:1075300080B50704140C3F0C9946030C7E435D4351
:10754000674363437F19340CE4199C46A54203D971
:1075500080235B029846C4444B4643435143250C69
:1075600036046544360C2404A4195B19591820000C
:107570000CBC90469946F0BD70B500220C4B04003F
:107580000D0000F0C7FF002804D12000290000F002
:107590001DFF70BD064B00222000290000F0CEFB2D
:1075A00000F014FF80231B069C466044F1E7C046B0
:1075B0000000E041F0B54F464646D646C0B504004F
:1075C00082B00D00914698468B422FD82CD0414670
:1075D000484600F0C7FF29000600200000F0C2FF67
:1075E000331A9C46203B9A4600D576E04B465246DD
:1075F00093401F004B46624693401E00AF4228D87E
:1076000025D05346A41BBD41002B00DA7BE00022AD
:1076100000230092019301235246934001930123DA
:1076200062469340009318E08242D0D900220023A2
:10763000009201930A9B002B01D01C605D600098B2
:10764000019902B01CBC90469946A246F0BDA342E7
:10765000D7D900220023009201936346002BE9D082
:10766000FB079846414672080A437B0866460EE0CF
:10767000AB4201D1A2420CD8A41A9D410120241989
:107680006D410021013E24184D41002E06D0AB4231
:10769000EED9013E24196D41002EF8D100980199D0
:1076A000534600196941002B23DB2B005246D3407F
:1076B0002A006446E2401C0053461500002B2DDBD7
:1076C00026005746BE40330026006746BE403200C3
:1076D000801A994100900191ACE7624620239B1AE1
:1076E0004A46DA406146130042468A4017001F436B
:1076F00080E7624620239B1A2A0066469A402300B0
:10770000F3401343D4E76246202300219B1A002252
:10771000009101920122DA40019280E72023624623
:1077200026009B1ADE402F00B0466646B74046460C
:107730003B003343C8E7C046F0B55746DE464E46E9
:107740004546E0B5834607000E03480085B09246E3
:107750001C00360B400DCD0F002800D19DE0954B4D
:10776000984239D08023F6001B041E43924A7B0FB7
:107770003343994694460300634400930023002654
:10778000FF00029323031B0B98466300E40F52464D
:107790005B0D019400D1B3E086498B4200D19EE09D
:1077A0004246D100802212040A435146490F114338
:1077B0008B46814952468C4600996344CB1A00217E
:1077C000D20000932B0063409A460F2E00D905E1AA
:1077D0007A4BB6009B599F465B463343994600D08F
:1077E000B8E002230826002700900293CAE7CB46A0
:1077F0003A0002990195019B9A46022927D0032954
:1078000000D180E2012944D06D49009B8C4663443D
:107810001C00002C38DD530700D013E2D2085B4671
:10782000DB0109D55946674B19408B468021C900B9
:107830008C46009B63441C00634B9C4207DC5B4608
:1078400064055F075B0217431B0B620D02E0002318
:107850000027584A00211B031C0B0B0D1B0523435B
:1078600014055A4A380013401C4353466400DB0792
:1078700064081C43210005B03CBC90469946A246D2
:10788000AB46F0BD0122524201231B1B382B00DC0A
:10789000ADE1002200230027DCE75B463343994635
:1078A0005ED0002E00D18AE1300000F03DFE0300E2
:1078B0000B3B1C2B00DD7BE11D22D31A5A46010035
:1078C000DA4008398E4013005F46334399468F40B3
:1078D0003F4B00261B1A00930023029352E74146B8
:1078E00053460B433B499B468C46009B63440093A5
:1078F0005B46002B3BD1022300221E43022161E79D
:10790000434613439B4637D04346002B00D162E1E8
:10791000404600F009FE03000B3B1C2B00DD53E149
:1079200002004146083A914088461D21CB1A514633
:10793000D9400B0041460B439B46534693401A00E7
:10794000009B25499C46604403008C466344009399
:10795000002137E70323B14600900C26029311E77C
:107960000023009301330426002702930AE7032330
:10797000C3461E43032125E701331E430022012194
:1079800020E700239A46802300271B03094A61E76A
:10799000802349461B03194200D1E2E059461942AF
:1079A00000D0DEE00B431B0317001B0BA246014A6D
:1079B00050E7C046FF07000001FCFFFFF4900010F5
:1079C000FF030000FFFFFFFEFE070000FFFF0F8028
:1079D0000DFCFFFF01F8FFFFF3030000D94500D9BC
:1079E000CBE000D1C6E03C0048460027009B013BAD
:1079F00000935B46160E1B021E4313029846330487
:107A00001B0C9946310C0191FFF766FD4A46424333
:107A10000B04210C050019438A4207D98919013D3D
:107A20008E4203D88A4201D9851E8919881A019984
:107A3000FFF752FD09048C464A462104644642433E
:107A4000090C030021438A4204D98919013B8E4263
:107A500000D8F1E02D041D43AB464346891A424647
:107A6000280C12041D0C5B46140C22001B041B0C7A
:107A70005A4303946B434443029568431B19150C06
:107A8000EB189C4203D980246402A44660441C0C79
:107A900015041B042D0C20185D19814277D373D077
:107AA0000C1AA24A7D1BAF42BF419446009B7F4205
:107AB0006344E01B1C00864200D1DBE00199FFF724
:107AC0000BFD4A4642430B04290C070019438A4226
:107AD00007D98919013F8E4203D88A4201D9871EEE
:107AE0008919881A0199FFF7F7FC09044A46894663
:107AF00029044D464243090C030029438A4207D911
:107B00008919013B8E4203D88A4201D9831E891903
:107B10003F04891A3A00039F1A43380013041B0CD0
:107B2000584381460298150C6F43434345434846EA
:107B3000000C8446DB1963449F4203D98020400235
:107B40008446654448461F0C00041B04000C7D1944
:107B50001818A94200D284E000D17FE001231A4323
:107B600057E680234A461B0313431B031B0BAA46FD
:107B70006F4A6FE6BA4200D935E74B46DC07580832
:107B80007B081C43FF0734E70024AF4289D24744F7
:107B90004745A4415B466442A4196418013BA642D0
:107BA0001ED2A0426DD800D1B6E0241A9B4678E7D9
:107BB00003005A46283B9A400027914688E65846DB
:107BC00000F0B2FC203072E603005246283B9A4097
:107BD00093460022B4E6504600F0A6FC20309AE618
:107BE000A642E2D1B845DCD9341A9B4659E71F2B8F
:107BF00065DC504C0099A4465C46614408008C400A
:107C000011008240D940501E82410C4314435A4611
:107C1000DA401300620709D00F222240042A05D05F
:107C20002200141D9442894149425B181A0262D510
:107C30000122002300270DE68A4200D80AE7831EAE
:107C4000891907E70F231340042B00D1E6E5171D20
:107C50009742924153429B44FA08E0E5002800D144
:107C6000D7E57118531EB14227D3A94215D358D076
:107C70001A0073E7002B00DC04E6012300229B447A
:107C8000CDE502234744474589415B429C46494232
:107C900089190C19E344241A03E743465F0047455A
:107CA0009B41B8465B429E19023A8919A94200D00D
:107CB00054E7404500D051E7ABE51A00F6E71F2135
:107CC0005F4649420C1BE740202B07D01A49009B16
:107CD0008C46634418005B4683401A43501E824121
:107CE0003A4307270023174009D00F2100231140F2
:107CF0001400042995D122005F075B021B0BD208F8
:107D000017430022A6E5802359461B030B431B03A0
:107D100017001B0B064A9DE5BD42B2D89B460024C6
:107D2000BFE68045B9D31A00C3E7C046FF03000091
:107D3000FF0700001E0400003E040000F8B557468F
:107D40004E464546DE460C000903E0B5490A460F9B
:107D50005F0031431E03DB0F760A9B46530F33430C
:107D6000C84E6500C000E40FD2006D0DA2468146EA
:107D70007F0D9C469046B74200D1B9E05B46012694
:107D800073409B46EE1BA34500D183E0002E63DDCC
:107D9000002F00D0B1E06346134300D123E1731EEE
:107DA000002B00D0BAE1861A6346B042804101251B
:107DB000C91A4042091A0B0200D447E149024B0A92
:107DC00098464346002B00D189E1404600F0ACFBC9
:107DD0000300083B1F2B00DD7CE120223000D21A7B
:107DE0004146D040994002009E400A439D4200DD3A
:107DF0006AE15D1B6B1C1F2B00DD94E1202110004C
:107E00003500C91A8E40DA408840DD40711E8E412F
:107E1000110007222843002506433240002A09D0DA
:107E20000F233340042B05D0331DB342B6417642B5
:107E300089191E000B0200D43DE26A1C914B5505C6
:107E40006D0D9A4200D119E18F4AF6080A40570792
:107E500052023743120B9BE0002E00D0C5E06E1C8F
:107E60007605760D012E00DC48E16746861ACB1BAD
:107E7000B042BF417F42B8461F004346FF1A3B0055
:107E8000B8461B0200D55FE137439AD10022002497
:107E9000002579E0002E00DCFAE0002F00D18DE013
:107EA000784B9D4267D0802367461B041F43BC4626
:107EB000382E00DC52E1634613435A1E93411E18CC
:107EC00086428041404209180B0200D4BEE06D4B4F
:107ED00001359D4200D1D2E06B4A73080A4001216E
:107EE0000E401E435108D30707221E43324095E738
:107EF0001E00164300D045E740E7624B9D423AD052
:107F0000802367461B041F43BC46382E00DDEBE090
:107F10001F2E00DC3AE133006746203BDF403B0088
:107F2000202E05D04027BF1B6646BE4032439046F8
:107F30004646721E96413343DAE0002B00D114E22C
:107F40006346134300D168E180234E07C008C90887
:107F50001B030643194208D06046C008184204D1EA
:107F600063460100D2085E071643F3009946C90034
:107F7000720F444D11434B46DE08424B4F073743C7
:107F8000CA089D4200D16EE012036D05120B6D0D03
:107F900000211203130B0A0D12051A433B4B2D054A
:107FA00013402B435B00E4075B08234338001900B0
:107FB0003CBC90469946A246AB46F8BD6346134387
:107FC00011D0731E002B00D007E186188642804135
:107FD00061444042091801250B0237D502257BE791
:107FE0003E00614691463500C5E75C46002D00D055
:107FF000E1E00B000343F3D0731C00D1ACE1214B53
:108000009F4200D13AE1F343382B00DD6FE11F2B93
:1080100000DD8CE120250E00ED1AAE40B0460600D2
:10802000AA46DE40454635432E005546D940A84075
:108030006346451EA8415B1A9C463043161AB2425D
:10804000924163465242991A3D00B4E607223240FB
:10805000002A00D0E4E60B4BF6084F073743CA0866
:108060009D4200D090E73B00134300D1A6E180235E
:108070001B031A431203120B024D89E7150000225D
:10808000002785E7FF070000FFFF7FFFFFFF0F804E
:10809000002E00D0C7E06B1C5E05760D012E00DCC3
:1080A000F0E0C84DAB4200D1B9E085180A00854226
:1080B00089416244494251180722CE076D082E4378
:1080C000490832401D00A9E6BF49ED1A11400722B8
:1080D0003240A3E6320028388240002686E630008F
:1080E00000F022FA203073E6634613435A1E934190
:1080F000C61AB04280414042091A5CE60E0067464B
:1081000006431743002D5ED1002E00D0F3E0002F70
:1081100000D11EE15C46614691462CE7A94FBE4264
:108120007BD01E00F1E610001F3DE840202B03D05D
:108130004021CB1A9A401643731E9E4107220643E4
:1081400032400021002583E7161A6346B24280417F
:10815000591A40420B1A98465C4632E61F2E00DD43
:10816000ABE02027BB1B9A4663465746BB40994667
:1081700013004F46F3401F433B005746BA40571E7B
:10818000BA4113436246F240891898E62027BB1B88
:108190009A4663465746BB40994613004F46F34004
:1081A0001F433B005746BA40571EBA41134362462D
:1081B000F240891A9CE7834B9F425FD080252D04B3
:1081C0007342294320E7002E0CD1002F00D1D0E0CC
:1081D0005C46614691467B4DCDE67A4FBE421CD04F
:1081E0001E0065E6002F18D0C0084E070643802009
:1081F000C9080003014208D06346DC08044204D1E8
:108200002100DA46D2085E071643F300994601249E
:108210005346C900720F11431C406A4DABE61D0066
:1082200000220027B4E6002D59D10B00034300D1F2
:10823000D6E6731C00D1B2E0624B9F421ED0F343DE
:10824000382B6FDC1F2B00DD97E020250E00ED1A88
:10825000AE40B0460600AA46DE40454635432E00F5
:108260005546A840D940451EA8418C440643B6183F
:1082700096429241514261443D0025E63D006146EF
:10828000914678E60B000343002D00D055E6002B05
:10829000F5D06346134300D16DE6861886428041CF
:1082A00061444042091800220B0200D4D0E6464B3C
:1082B00001351940B2E5B1465DE633006746203B23
:1082C000DF403B00202E05D04027BF1B6646BE4046
:1082D000324390464646721E96413343EFE5394B92
:1082E0009F42CBD080252D0473422943A8E7084341
:1082F000411E8841A2E6002F00D13CE66346861A63
:10830000CF1AB0429B415B42FB1A98461B024ED5E6
:10831000161A6346B2429241591A5242891A5C4671
:1083200000227BE501430E00711E8E419FE71D0078
:108330000E00203DEE40B046202B04D04025EB1A25
:1083400099400843814648464346411E88411843A8
:1083500074E60022002417E6161A6346B2429241E0
:10836000591A5242891A3D0025E561469146154D3C
:1083700001E680220024120379E61D000E00203D54
:10838000EE40B046202B04D04025EB1A994008431C
:1083900081464E464346711E8E411E4367E786184E
:1083A00096429B4161445B42C9183D008CE54746BB
:1083B0003743CED007224146324049E600273A00F3
:1083C000E6E5C046FF070000FFFF7FFF30B5144D14
:1083D0000A034B00120B5B0DC90F0024AB4211DDE9
:1083E000104CA34210DC8024640322430E4CE41A98
:1083F0001F2C0CDD0D48C31ADA4013005C42002923
:1084000000D11C00200030BD094BCC18FAE7094D03
:10841000E040AC4663449A4013000343EEE7C04695
:10842000FE0300001D0400003304000013040000DC
:10843000FFFFFF7FEDFBFFFF70B500282DD0C317B6
:10844000C5185D40C40F280000F06EF8154B1B1ACC
:108450005B055B0D0A2815DD0B38854000222D03D6
:108460002D0B002110002D030A0D2D0B12052A43A0
:108470000D4D1B052A4013435B00E4075B082343B3
:10848000190070BD02002900153291400A000B212D
:10849000081AC5402D032D0BE3E700240023002517
:1084A0000022DEE71E040000FFFF0F808446101C40
:1084B00062468C46191C634600E0C0461FB500F0BA
:1084C000FDF8002801D40021C8421FBD10B500F0FE
:1084D00055F84042013010BD10B500F0EFF800280B
:1084E00001DB002010BD012010BDC04610B500F01A
:1084F000E5F8002801DD002010BD012010BDC046B8
:1085000010B500F077F8002801DC002010BD012034
:1085100010BDC04610B500F06DF8002801DA00204B
:1085200010BD012010BDC0461C2101231B04984230
:1085300001D3000C10391B0A984201D3000A0839F4
:108540001B09984201D30009043902A2105C4018AB
:108550007047C0460403020201010101000000004F
:108560000000000010B5002903D1FFF7DDFF203027
:1085700002E0081CFFF7D8FF10BDC046F0B54F461B
:108580004646D6468446C0B58046194E18030F03AA
:108590004D00000B5C0082463F0B6D0DC90F9146EC
:1085A000640DDB0F0120B5420AD0B44203D0A542CE
:1085B00001D157450CD01CBC90469946A246F0BD4F
:1085C00066463E43F7D1AC42F5D154461443F2D14E
:1085D0000120C845EFD1994207D0002DEBD1634669
:1085E0001F433800471EB841E5E70020E3E7C046D7
:1085F000FF070000F0B54F464646D6464D00C0B5D1
:108600000E03C90F8A462C491F035C008046360BB7
:108610006D0D91463F0B640DDB0F8D421ED08C42D9
:1086200016D0002D1ED130438446002C01D13A4390
:1086300023D06246002A1AD09A4529D051460220FA
:108640000139084001381CBC90469946A246F0BD4D
:1086500039001143E5D002204042F4E73043FAD11B
:10866000AC420FD0002C0FD13A43E7D00CE00122EE
:10867000013B934318000130E5E763460020002BDF
:10868000E1D0DBE73A43E6D19A45D7D1A542D5DC24
:10869000A54205DBBE42D1D808D00020BE42D2D2CE
:1086A00050460123013898430130CCE7C845C5D86E
:1086B0000020C845F4D3C6E7FF070000F0B54F46D9
:1086C0004646D6464D00C0B50E03C90F8A462E4910
:1086D0001F035C008046360B6D0D91463F0B640D09
:1086E000DB0F8D4218D08C4211D0002D18D13043B1
:1086F0008446002C1ED13A431CD163460020002B37
:1087000030D0514602200139084001382AE03900B2
:108710001143EAD0022025E03043FBD1AC4226D001
:10872000002C26D13A4324D1514602200139084079
:10873000013817E06246002A0FD09A45E1D1A542E0
:1087400005DBBE42DDD819D00020BE420AD2504619
:10875000012301389843013004E00122013B934397
:10876000180001301CBC90469946A246F0BD3A4321
:10877000D0D19A45C5D1A542C3DCE0E7C845C0D8F1
:108780000020C845E3D3EDE7FF070000EC300068A8
:108790007047000010B5034B0100186800F07CF82A
:1087A00010BDC0460C010E0810B5034B010018683F
:1087B00000F028F810BDC0460C010E0882B0002958
:1087C00000D101A9101E06D0002B06D013780B6033
:1087D0001078431E984102B0704702204042FAE7E9
:1087E000002310B59A4200D110BDCC5CC4540133B3
:1087F000F8E703001218934200D170471970013353
:10880000F9E7000070B50500002910D00C1F23689F
:10881000002B00DAE418280000F0ACF91D4A1368B8
:10882000002B05D163601460280000F0A4F970BD2E
:10883000A34209D9216860188342F3D118685B68A4
:1088400041182160EEE713005A68002A01D0A242C5
:10885000F9D919685818A0420BD12068091858187E
:1088600019608242E0D110685268411819605A605C
:10887000DAE7A04202D90C232B60D5E72168601803
:10888000824203D1106852684118216062605C60C6
:10889000CAE7C046EC0A0E08032370B5CD1C9D4301
:1088A000083506000C2D1ED20C25A9421DD830001B
:1088B00000F060F9254A14682100002919D1244CE0
:1088C0002368002B03D1300000F044F82060290019
:1088D000300000F03FF8431C2BD10C2330003360F4
:1088E00000F049F903E0002DDFDA0C2333600020AB
:1088F00070BD0B685B1B19D40B2B03D90B60CC1814
:10890000256003E04B688C420DD11360300000F00D
:1089100032F9200007220B30231D9043C31AE7D001
:108920005A42E250E4E763600C00EFE70C0049684C
:10893000C3E70323C41C9C43A042E1D0211A3000AA
:1089400000F008F8431CDBD1C7E7C046EC0A0E086C
:10895000F00A0E08002370B5064C050008002360DD
:1089600000F00AF9431C03D12368002B00D02B60D0
:1089700070BDC04628110E08C9B20378002B04D080
:108980008B4200D170470130F7E74B4259414942D1
:108990000840F7E702780B78002A03D00130013154
:1089A0009A42F7D0D01A704703000A7801311A7042
:1089B0000133002AF9D17047002330B59A420AD01A
:1089C000013AC45CCD5CAC4204D1934202D0013385
:1089D000002CF6D1631B180030BD0000F0B51F005D
:1089E0000E008DB00B900291039212983478FFF72D
:1089F000CDFE082200194378751C134053D12D2C4D
:108A000053D17478B51C01330193002F00D18AE053
:108A1000102F0AD1302C08D120222B789343582BC9
:108A200000D07AE010276C780235019B002B41D1F1
:108A3000013B04933E4B05933A00FB1704980599BC
:108A40000893FEF74FFD002309900E00002000213F
:108A50000A922200303A092A31D81400A7423DDD9B
:108A60005A1C1DD0B14236D802D1099B984232D847
:108A7000099B834206D18E4204D101230A9A5B42AC
:108A8000A2420DDB0B00020008993800FEF74AFDF8
:108A9000E31706940793069B079CC01861410123C6
:108AA0002C780135D5E72E009FE72B2CACD1B51CD7
:108AB0007478A9E70023049380231B06BBE72200F8
:108AC000413A192A01D8373CC8E72200613A192AED
:108AD00004D8573CC2E701235B42E1E75A1C09D1A5
:108AE0000B9A23331360039B04980599002B0ED136
:108AF0000DB0F0BD019A002A04D006000F0000213D
:108B00007042B941039A002AF2D0002B01D06B1EAB
:108B10000293039B029A1A60EAE73024002F00D0E8
:108B200083E7082781E7302C00D175E70A277CE727
:108B3000FFFFFF7F37B51300064A05001068046A7F
:108B4000002C00D1044C0A0000942900FFF746FFD6
:108B500003B030BD0C010E0870010E080B1E04D0CE
:108B6000FF2A04D98A2303608B3B180070470A70E0
:108B70000123FAE770477047044A1368002B00D1BD
:108B8000034B1818106018007047C046F40A0E080E
:108B900030110E08F8B5C046F8BC08BC9E467047B8
:108BA000F8B5C046F8BC08BC9E46704700000000FF
:108BB00001B40248844601BC604700BFA9040E0806
:108BC00001B40248844601BC604700BF7D030E0823
:108BD00001B40248844601BC604700BFE5020E08AC
:108BE0004142434445464748494A4B4C4D4E4F50FD
:108BF0005152535455565758595A616263646566C9
:108C00006768696A6B6C6D6E6F707172737475767C
:108C10007778797A30313233343536373839006EF7
:108C2000756C6C0066616C7365007472756500002C
:108C3000948E00109A8E0010A08E00107265736FD3
:108C40007572636573006164647265737300736940
:108C50007A650053435241544348006C61756E631A
:108C600068006163715F77696E007764745F656E39
:108C700061626C65007764745F74696D656F7574AB
:108C800000757067726164655F6D6F64650073770E
:108C90006170006D756C74695F696D616765006D09
:108CA0006F6E6F746F6E696300424F4F5400555082
:108CB000475241444500656E637279707400656E79
:108CC00063727970745F6B65795F696400626F6F5E
:108CD000745F6175746800736D69665F69640073C1
:108CE00065745F696D675F6F6B00535441545553F2
:108CF0005F504152544954494F4E006D34007065E5
:108D0000726D697373696F6E00636F6E74726F6CEE
:108D1000006B657900657874436C6B456E61626CBD
:108D20006500657874436C6B46726571487A0065BE
:108D30007874436C6B506F727400657874436C6B1D
:108D400050696E4E756D0065636F456E61626C654E
:108D50000065636F46726571487A0065636F4C6F9A
:108D600061640065636F4573720065636F44726987
:108D700076654C6576656C0065636F496E506F7201
:108D8000740065636F4F7574506F72740065636F24
:108D9000496E50696E4E756D0065636F4F75745006
:108DA000696E4E756D0077636F456E61626C65002C
:108DB000627970617373456E61626C650077636F91
:108DC000496E506F72740077636F4F7574506F7295
:108DD000740077636F496E50696E4E756D007763EE
:108DE0006F4F757450696E4E756D00657874636C65
:108DF0006B0070726573656E74006669726D776181
:108E00007265006365727469666963617465006F99
:108E100070656E0064697361626C656400656E61A3
:108E2000626C656400616C6C6F7765640064656298
:108E3000756700626F6F745F75706772616465005B
:108E40007372616D7077726D6F6465006D616372CE
:108E50006F4E756D00747970650061727261790092
:108E60006974656D73006E756D62657200696E740C
:108E70006567657200626F6F6C65616E0073747216
:108E8000696E67006D6178696D756D006D696E69F9
:108E90006D756D007372616D30007372616D3100BC
:108EA0007372616D3200464C4153485F5043315FED
:108EB00053504D00464C4153485F50433200464C9E
:108EC0004153485F50433300464C4153485F504341
:108ED0003400464C4153485F4D41494E5F434F4437
:108EE0004500464C4153485F4D41494E5F584F0045
:108EF000464C4153485F4D41494E5F444154410007
:108F0000464C4153485F53555045525649534F5272
:108F10005900464C4153485F574F524B5F534543AE
:108F200055524500464C4153485F574F524B0053F2
:108F300052414D5F5043305F5052495600535241A9
:108F40004D5F5043305F505542005352414D5F5387
:108F5000504D5F50524956005352414D5F53504D52
:108F60005F505542005352414D5F5043315F505264
:108F70004956005352414D5F5043325F505249565B
:108F8000005352414D5F5043335F50524956005396
:108F900052414D5F5043345F505249560053524145
:108FA0004D5F4D41494E005352414D5F4441500089
:108FB000534D49465F434F444500534D49465F5822
:108FC0004F00534D49465F4441544100A10FB90B36
:108FD000D107DC05E903EE02F5017701FB00BC00D7
:108FE0007E005E003F002F002000180010000C00E3
:108FF0000800060004000300020002000100010056
:10900000000020400000244000000040000000005C
:1090100000002340000030400000314000009F402D
:10902000000022400000104000009D402020202031
:1090300020101010101D1D8017007500FF03060280
:1090400006003604102000007FC00000000400006D
:10905000000000000019324B647D00000000008019
:109060004000080B100000000000FF012002001F5C
:1090700000800004FF081018001000140018001CE5
:109080004044484C50000000081000000800000058
:109090000400000004100000001200000421000081
:1090A000002100000016000040114002C41300130C
:1090B0008013A01340138813A81320001C00000085
:1090C000030000000100000001000000000000009B
:1090D0000503600004000000010000000000000023
:1090E000010000000604600008000000CC0A0E0821
:1090F0008D720010DC7900104E780010927800100C
:10910000F6770010927800108279001092780010A3
:10911000F67700104E7800104E780010827900101B
:10912000F6770010EE770010EE770010EE77001063
:10913000907900104300504F534958002E000020F2
:1091400020202020202020202828282828202020F7
:1091500020202020202020202020202020202088A7
:10916000101010101010101010101010101010040B
:10917000040404040404040404101010101010105B
:10918000414141414141010101010101010101014F
:109190000101010101010101010110101010101065
:1091A000424242424242020202020202020202021F
:1091B000020202020202020202021010101020003B
:1091C000000000000000000000000000000000009F
:1091D000000000000000000000000000000000008F
:1091E000000000000000000000000000000000007F
:1091F000000000000000000000000000000000006F
:10920000000000000000000000000000000000005E
:10921000000000000000000000000000000000004E
:10922000000000000000000000000000000000003E
:10923000000000000000000000000000000000002E
:04924000000000002A
:0892440070E3FF7F0100000050
:10924C000004001000000E08800000006C9200105A
:08925C0080000E08600500000F
:0892640000060E082C0B0000AF
:10926C00A987001095870010A68E0010B48E0010F0
:10927C00BE8E0010C88E0010D28E0010E28E001030
:10928C00F08E0010008F0010128F0010248F001031
:10929C002F8F00103D8F00104A8F0010588F001038
:1092AC00658F0010738F0010818F00108F8F00104E
:1092BC009D8F0010A78F0010B08F0010BA8F001078
:1092CC00C28F0010A98C0010AE8C0010EA8C00101C
:1092DC00538C001000093D0000127A0000093D007B
:1092EC000000D007A00F00000400000010010E08C1
:1092FC000000000000000000000000000000000062
:10930C000000000000000000000000000000000051
:10931C000000000000000000000000000000000041
:10932C000000000000000000000000000000000031
:10933C000000000000000000000000000000000021
:10934C000000000000000000000000000000000011
:10935C0043000000000000000000000000000000BE
:10936C0000000000000000000000000000000000F1
:10937C00430000000000000000000000000000009E
:10938C0000000000000000000000000000000000D1
:10939C00430000000000000000000000000000007E
:1093AC0000000000000000000000000000000000B1
:1093BC00430000000000000000000000000000005E
:1093CC000000000000000000000000000000000091
:1093DC00430000000000000000000000000000003E
:1093EC000000000000000000000000000000000071
:1093FC00430000000000000000000000000000001E
:10940C000000000000000000000000000000000050
:10941C0043000000000000000000000000000000FD
:10942C000000000000000000000000000000000030
:10943C005D8B0010BD870010000000003E910010F5
:10944C003C9100103D9100103D9100103D91001099
:10945C003D9100103D9100103D9100103D91001088
:10946C003D9100103D910010FFFFFFFFFFFFFFFF3C
:10947C00FFFFFFFFFFFF000001004153434949007C
:10948C0000000000000000000000000000000000D0
:10949C000000000000000000000041534349490057
:1094AC0000000000000000000000000000000000B0
:1094BC00000000000000000000000000A9040010E3
:1094CC0081040010024A1368002BFCDB7047C04675
:1094DC000001264010B54378FF2B0BD1032000F080
:1094EC0027F9C3685A680123116819431160116880
:1094FC001942FCD110BD80B230B5C00020D0114B48
:10950C0007221C682300BA331B885A43236AD318DA
:10951C0019680029FCDA3E210B4B062519600B4B10
:10952C000B491960A3210B4BC9005D500A495850D7
:10953C005858206A1218002050605A58002AFCDA39
:10954C0030BDC046F80A0E0804012640080126402A
:10955C001E1F0000000026401C050000F7B50090FF
:10956C000020019100F0E4F83E4D06002B681A0033
:10957C005033BC3214681B780419002B5AD000F0FD
:10958C00FFF8070003281BD000F00AF9364A374BC6
:10959C000500D358002B3EDA354A0121300000F08B
:1095AC00D7F8002837D10198FFF7A5FF009B002BB7
:1095BC003ED02368002BFCDB00F0DAF804002BE033
:1095CC00062000F0B5F82B68BC331B68C018036884
:1095DC00002B02DA274C2000FEBD002000F0A0F882
:1095EC00254B9842F6D00023244A1900126801201A
:1095FC0000F0CEF80025A842ECD1002000F090F845
:10960C001D4A1F4B904203D09D42E3D00135F4E735
:10961C009D42B9D1DEE7174C032F05D10121002063
:10962C0000F0C6F80028F9D1280000F071F8D2E754
:10963C00144CF1E700F0B4F80D4A0500012130009C
:10964C0000F086F8002809D1009B002B08D0236875
:10965C00002BFCDB00F08CF80400E5E7054CE3E79D
:10966C00084CE1E7F80A0E08000026401C05000033
:10967C0028060E08050052000101880038060E0865
:10968C00F0490200010050001A4BF7B51B681A4A4A
:10969C005C68042311690B431361012828D030BF87
:1096AC002300FC335B6F002B21D100F049F8A32081
:1096BC00124B1349134AC0000F681E5815680195C8
:1096CC00114D0D6006251D503E2010600F483E3593
:1096DC001D501D58002DFCDA0120FC3460670F6012
:1096EC00A321C9005E50019B136000F039F8F7BD4F
:1096FC0020BFD5E7F80A0E0800ED00E00000264078
:10970C0008012640040126401E1F00001C05000015
:10971C0001B40248844601BC604700BFE30400105A
:10972C0001B40248844601BC604700BFB924001054
:10973C0001B40248844601BC604700BF511F0010B1
:10974C0001B40248844601BC604700BFFD510010C3
:10975C0001B40248844601BC604700BF6D21001073
:10976C0001B40248844601BC604700BFFF510010A1
:10977C0001B40248844601BC604700BF15200010AC
:10978C0001B40248844601BC604700BF117300104D
:10979C0001B40248844601BC604700BF8922001016
:1097AC0001B40248844601BC604700BFDB040010D2
:1097BC0001B40248844601BC604700BF4524001038
:04000005100004EBF8
:00000001FF
