:020000041000EA
:1004000000C002082B0500100D0000008905001037
:1004100000000000000000000000000000000000DC
:100420000000000000000000000000008505001032
:100430000000000000000000850500108505001088
:100440008505001085050010850500108505001044
:100450008505001085050010850500108505001034
:100460008505001085050010850500108505001024
:100470008505001085050010850500108505001014
:100480008505001085050010850500108505001004
:1004900085050010850500108505001085050010F4
:1004A00085050010850500108505001085050010E4
:1004B00085050010850500108505001085050010D4
:1004C00010B5064C2378002B07D1054B002B02D02A
:1004D000044800E000BF0123237010BD8806020815
:1004E000000000005C9D0010044B10B5002B03D0F1
:1004F0000349044800E000BF10BDC04600000000F2
:100500008C0602085C9D00100230800803D0013088
:100510000238FCD1C046C0467047EFF3108072B677
:10052000704780F3108870477047FFF7FDFF72B681
:100530000E4C0F4DAC4209DA21686268A368043B97
:1005400002DBC858D050FAE70C34F3E709490A4AED
:100550000020521A02DD043A8850FCDC07480849A2
:100560000860BFF34F8F07F09FFBFEE7689D001008
:10057000809D001088060208001102080000020891
:1005800008ED00E0FEE7FEE700B5042071460842F2
:1005900002D0EFF3098001E0EFF30880043006F0A9
:1005A000FDFBFEE70300093B0122042B02D92038A2
:1005B0004242424110007047F0B500251700060086
:1005C0002C0089B003930E9B02901B0CDBB20493AA
:1005D0000E9B00911B0ADBB205930E9BDBB20793C7
:1005E000731C069333780193002B08D0009B002BDB
:1005F00022DB029A731C9B1A009A9A421CDA0E9B09
:10060000DBB2002B00D1B4E0019A9A4200D0AEE0F8
:10061000009B002B06DB029A731C9B1A009A9342E4
:1006200000DDA4E0B31C7678032D00D9A1E02800FA
:1006300007F01EFC8989637B0198FFF7B3FF002850
:1006400039D1079B019A9342D9D04F4E1100300007
:1006500008F0F8FE031E08D1049B019A93420BD0C8
:10066000059B93426FD133003F33032D23D82800DD
:1006700007F0FEFB0510233533003E33F5E7002F6E
:1006800006D0039A94425ED23F4A9B1A9B003B5588
:10069000012510E0621C002F0BD003998A4252D230
:1006A00039493C195B1A2178181101431B0121704B
:1006B000BB5414000225069E92E7621C002F0BD04B
:1006C00003998A423FD230493C195B1A217898102D
:1006D00001439B012170BB5414000325EBE7002F5D
:1006E00008D0039A94422ED227493A195B1A1178FE
:1006F0000B43137001340025DDE71D00002E22D0CE
:10070000009B002B22DB029B009AEB1A9A421DDA17
:10071000019BB34217D1009B002B04DD029B009A82
:10072000EB1A93420FDC2E786B1C029A9D1A002E56
:1007300004D0009B002B11DBAB420FDA002F18D046
:100740003B5D002B15D00124644219E03000FFF717
:1007500029FF0028DCD02E780135CFE73000FFF7E5
:1007600021FF0028EFD0029B5E5D0135DFE7002D01
:10077000E9D1039B9C42E6D2002F01D000233B55D8
:10078000200009B0F0BDC046A8960010002210B5A8
:1007900004001000A15C0B00303B092B09D8303855
:1007A0000818531C032A03D000011A00042BF1D1AE
:1007B00010BD0B00413B052B01D83738F0E70B008B
:1007C000613B052B01D85738EAE70020F0E700002D
:1007D000F0B50B7885B0039017004D1C222B17D075
:1007E000116000202AE05C2A07D1019A5278002A81
:1007F000F7D0019A013301320192019A013201923C
:10080000019A1278222A00D1A7E0002AEBD1E8E76A
:1008100001950023F4E72B785C2B11D02370013570
:100820000134019B9D42F6D30023039A23700833C1
:10083000D36013000198029A01301A6105B0F0BD2F
:100840006B78662B63D014D82F2B61D007D8222B5E
:100850005ED0484B3D601B6802989847C1E75C2B0F
:1008600056D0622BF5D1082323700134063BED18D6
:10087000D7E7722B50D006D86E2BEAD10A2323700B
:100880000134083BF3E7742B48D0752BE1D1019B71
:100890005B1B052BDDDDA81CFFF778FF364B374AC5
:1008A000C31806009342D4D90028D2D0344B334A1F
:1008B000C318934234D8019AAB1DD31A052BC8DD57
:1008C000AB795C2BC5D1EB79752BC2D128000830F0
:1008D000FFF75CFF284B294AC3189342B9D8294B2C
:1008E000B6021E4080238005800D5B020643F61889
:1008F0000C23254A96421FD9244A9642A9D83F2064
:100900003040802676420643E670042212E00C2333
:10091000237001340223AAE70D23F9E70923F7E73F
:100920007F2804D91A4B98420ED90623E1E7062303
:1009300001222070A4189AE73F203040802676429A
:100940000643A6700322F5E73F20802306405B4262
:100950001E43667086330222ECE7019A501AC01AD1
:100960000C4B04301B6898470290041E00D058E7D7
:1009700037E7C046C00002080024FFFFFF03000065
:100980000028FFFF00FC0F00FFFF0000FFFF10002A
:10099000FF070000C4000208002803D00378013BD1
:1009A0001F2B00D970470130F6E70000064B10B549
:1009B0001B6828209847041E03D02822002108F035
:1009C0007EFC200010BDC046C40002080849094A48
:1009D000002803D1084B0B60084B07E00368002B8D
:1009E00000D1054B0B604368002BF5D013607047B6
:1009F000C4000208C0000208619200107592001045
:100A0000F8B5802604007600002C00D1F8BDE3681C
:100A10002768334204D1A068002801D0FFF7F0FF17
:100A2000E3680B4D334204D12069002801D02B68C4
:100A300098478022E3689200134204D1206A00287C
:100A400001D02B68984720002B6898473C00DBE7D3
:100A5000C0000208F0B5040085B00F0016000029A0
:100A600001D1002013E004226F49380008F00AFD8C
:100A7000002803D10223E360381D08E005226B49FA
:100A8000380008F0FFFC002803D1E060781D05B0B5
:100A9000F0BD04226649380008F0F4FC002806D1B5
:100AA00001230122E3600023A261E361E4E73B78D4
:100AB000222B05D1320039002000FFF789FEE6E73E
:100AC0002D2B03D01A00303A092A24D800250A22F7
:100AD00003A93800039508F093FD030003988742AB
:100AE000BFD05A1C0AD1534A914211D10122514B15
:100AF0005242A261E3610423E360C8E7002B07D1FF
:100B000080221206914203D1802300221B06F0E7C7
:100B1000A361E161EFE75B2B35D1781CFFF73CFF68
:100B2000037805005D2B26D00023013D019300933F
:100B3000FFF73CFF009B071E6FD0002B19D0019BD5
:100B400018604360681CFFF727FF3200010038007F
:100B5000FFF780FFFFF720FF051E06D003780197FF
:100B60002C2BE5D05D2B08D030600098FFF748FFB4
:100B700077E70090E6E7002300931023E360009BF3
:100B8000681CA36083E77B2B4BD1781CFFF704FF25
:100B9000037807007D2B38D00023013F0193009399
:100BA000FFF704FF009B051E37D0002B17D0019BD9
:100BB00018604360781CFFF7EFFE32000100280048
:100BC000FFF706FEFFF7E8FE0028CED02B692B6268
:100BD00000232B6103783A2B03D03060C5E70090E7
:100BE000E8E70130FFF7D8FE320001002800FFF7E8
:100BF00031FFFFF7D1FE071EB7D0037801952C2BEC
:100C0000CED07D2B03D03060AFE7002300932023AC
:100C1000E360009B781CA36039E7002B00D120E73C
:100C2000A3E737601DE7C046E7960010EC9600107A
:100C3000F2960010FFFFFF7FF7B505000E0001924E
:100C40000F1E00D1144FFFF7B1FE002304003B60DC
:100C500098420DD02800FFF79FFE3A0001002000C7
:100C6000FFF7F8FE051E05D12000FFF7C9FE00249E
:100C70002000FEBD019B002B0AD0FFF78DFE0378FC
:100C80000500002B04D02000FFF7BAFE3D60EEE720
:100C9000002EEDD03560EBE7A4060208002210B567
:100CA0001100FFF7C9FF10BD802233B5450AFFB020
:100CB0006D02040029009200684608F0F7FA01234B
:100CC0006A46E405E40D69462800135501F09AFCD4
:100CD0007FB036BD10B5183909180B780020012BEC
:100CE00002D00800FFF7E0FF10BD0000F0B58DB0A6
:100CF0001D0015AB1B780E0003930023170005A9F8
:100D000006AA0593069300F048F9041E4BD12F4B19
:100D10003200009306993B000598FFF74DFC002830
:100D200051DD0C22210009A808F0C9FA022008AA06
:100D300007A9FF300794089400F08EFF002802D026
:100D4000652464422FE02900079800F04BFE00283C
:100D5000F6D1033008AA07A9FF3000F07DFF002874
:100D6000EED11299079800F0DBFD041E1BD109A9F2
:100D7000300000F02AF9041E15D112990A9800F0EB
:100D80002BFD041E0FD1039A29000B9800F03CF9AB
:100D9000041E05D1139B002B08D1149B002B0DD1F1
:100DA0000998FFF72DFE20000DB0F0BD13990998AA
:100DB00000F006FC0028F0D00400F1E7149909982F
:100DC00000F0D4FCF8E71424BBE7C046005F2D0018
:100DD000F0B58BB01F0010AB059204CB04911B78CB
:100DE00006920793002309AA08A90600089309930D
:100DF00000F0D3F8041E22D1099800F06BF804002B
:100E000008F02EFA051E20D0114B0200009309991C
:100E100023000898FFF7D0FB002813DD079B220072
:100E20000393069B01970293059B290000933000D2
:100E3000049BFFF75BFF0400280008F01BFA20006A
:100E40000BB0F0BD14246442F6E764246442F6E774
:100E5000005F2D0010B5010004000B4808F000FBF6
:100E6000002398420DD02100084808F0F9FA012328
:100E7000002806D02100064808F0F2FA4342434118
:100E80005B00180010BDC046CF980010D898001025
:100E9000E098001010B5010004000B4808F0E0FADB
:100EA000002398420DD02100084808F0D9FA012308
:100EB000002806D02100064808F0D2FA43424341F8
:100EC0005B00180010BDC046B5980010BE98001019
:100ED000CA98001003235843800898430430704791
:100EE000F8B50D0000281FD000291DD0C368086088
:100EF000202B1CD184680F4F002C01D12000F8BD9D
:100F0000266A002E06D031000B4808F0A9FA002806
:100F100002D16C602468EFE73100380008F0A0FAD5
:100F20000028F7D1AC60F5E701204042E7E7022056
:100F3000FBE7C046EE980010E8980010F0B50700F7
:100F40000D00002491B001AE002D02D1280011B097
:100F5000F0BD296A002904D0380008F081FA002881
:100F6000F4D0AB68002B06D00E2C12D8A2009551FD
:100F700001341D00E8E72B68002BFAD1002C0AD0C1
:100F8000013CA3009B591B68002BF2D1002CF7D128
:100F9000EFE70025DAE72500D8E7F8B50E002E21A7
:100FA000170008F04FFA041E0CD0451C2E21280013
:100FB00008F048FA002805D0001B013838600020EE
:100FC0003560F8BD16204042FBE770B505000020F3
:100FD0000C00FFF7FBFC2800FFF760FE002803D0A1
:100FE0002100FFF77DFF70BD05204042FBE7002395
:100FF00004220133002901D1904203D952001D2B54
:10100000F7D1023318007047F0B50C0087B001002B
:10101000C1480592FFF792FF002800D18BE2836858
:101020000093019300231F0004930393019B002B63
:101030006CD1009BDB680193202B00D07CE2009EEA
:101040003100B648FFF77AFF051E00D1E6E0037EC7
:10105000059A9A4200D0E1E00100B148FFF76EFF27
:10106000002800D1D4E0836923702900AD48FFF740
:1010700065FF1423002800D0836963602900AA4813
:10108000FFF75CFF0123002802D0C3685A1E93417A
:1010900023722900A548FFF751FF002800D1BAE0CC
:1010A0008369E360002329006376A148FFF746FFC8
:1010B000002807D001699F4808F0D2F9002801D123
:1010C000012363762300627E49331A70009E002F4D
:1010D00000D031E231009148FFF730FF002800D105
:1010E000A1E02278037E9A4200D09CE03100924831
:1010F000FFF724FF002800D10AE130238269551E42
:101100006B43E3181A760223019393E001998B480D
:10111000FFF714FF002802D08668002E03D1019B40
:101120001B68019382E731008548FFF707FF00281D
:101130004BD0002503690293824AAB00995802986C
:1011400008F08EF9002800D1F9E10135042DF3D122
:1011500000257D4AAB009958029808F081F9071ED6
:1011600005D00135172DF4D10527183D7F423100F8
:101170007648FFF7E3FE002801D08369049331002D
:101180007348FFF7DBFE002804D0C1698069FFF7D0
:101190002EFF03906B1C18D0039B002B15DDA9229A
:1011A0006B00E31852009A5C012A04D12A000499CA
:1011B0000E32D20011515422FF329B5C012B04D11C
:1011C0000E35ED00039B65196B603668A5E7614934
:1011D000029808F045F90028F7D131005B48FFF785
:1011E000ADFE002806D0A2235B00E35C012B01D1F9
:1011F0008369A36631005648FFF7A0FE0028E4D0BB
:101200004623FF33E35C012BDFD18369E366DCE730
:1012100001277F4229E7FA231B0142E73668002EA7
:1012200000D00DE752E73668002E00D052E70123C8
:1012300035000193002E00D098E031004648FFF7BA
:101240007DFE002800D0FFE031004448FFF776FE25
:1012500000280ED00D236B43E3182A33FF331B788D
:10126000012B06D1C2682F33511E8A416B43E3180C
:101270005A7031003A48FFF761FE00280ED00D2366
:101280006B43E3182C33FF331B78012B06D1C26864
:101290002F33511E8A416B43E3181A7431003148D1
:1012A000FFF74CFE00280CD00D236B43E3182C33C2
:1012B000FF331B78012B04D12F336B438269E31872
:1012C0009A7431002848FFF739FE002800D1CBE09E
:1012D000C368102B00D0C7E082680D2123200023B3
:1012E0006943684361180290002A00D1BCE01F00E6
:1012F0003237FF37CF5D012F04D10298C7189069AC
:101300002C37C8550133032B00D1ADE01268EBE751
:101310000123050001938DE7B59800109797001001
:10132000169700101D970010259700103097001099
:101330003C970010499700104E970010F796001048
:101340001099001024010208C8000208019700103B
:10135000099700100E9700105A970010F39800108C
:101360007197001079970010889700103100864817
:10137000FFF7E4FD002800D15FE78768002F00D168
:101380005BE739008148FFF7D9FD00282DD00369BC
:101390007F491800029308F063F8002827D139002C
:1013A0007C48FFF7CBFD00280CD00D236B43E318DE
:1013B0002E33FF331B78012B04D12F336B4382690B
:1013C000E318DA6139007448FFF7B8FD00280CD043
:1013D0000D236B43E3182F33FF331B78012B04D10C
:1013E0002F336B438269E3181A623F68C6E76B4983
:1013F000029808F035F80028F7D139006548FFF762
:101400009DFD00280CD00D236B43E3183033FF33D0
:101410001B78012B04D12F336B438269E3185A6286
:1014200039005D48FFF78AFD0028DED00D236B43AD
:10143000E3183033FF331B78012BD6D12F336B43A6
:101440008269E3189A62D0E70D236B43E3182D33CA
:10145000FF331B78012B00D0F6E62F336B438269F4
:10146000E318D2B25A61EFE631004D48FFF766FD4E
:1014700030236B43E31800284CD082699A70310006
:101480004848FFF75BFD002846D03022C1698369D8
:101490006A430B43591E8B41A2185374002D1CD173
:1014A00031004148FFF74AFD1423002800D083692A
:1014B000636331003D48FFF741FD220038320028C8
:1014C00030D0C368591E8B41137031003848FFF784
:1014D00035FD002828D08369E363019B022B2AD1C4
:1014E000009E31003348FFF729FD00281FD0826994
:1014F000D3B2022B1BD13027551E6F43E21913764E
:1015000031002D48FFF71AFD002801D083693B55B3
:101510000123F9E59870B2E7302301226B43E31809
:101520005A74BBE71070D0E7FA231B01D4E7366882
:10153000002ED6D1ECE70027380007B0F0BD1F49D8
:10154000029807F08DFF002800D040E631001148D6
:10155000FFF7F4FC002806D0A1235B00E35C012B1D
:1015600001D18369236631000B48FFF7E7FC0028AF
:1015700000D12AE64423FF33E35C012B00D024E6AC
:101580008369636621E6C046F79600101099001043
:1015900064970010019700100997001069970010D8
:1015A000929700109A9700101D9700102597001031
:1015B000309700104E97001097970010A5970010D5
:1015C000F0B5554BBDB003AC63600E000B1DE3607E
:1015D000524B0C36236101236662514E0A00A6620B
:1015E000CE1826634F4E083266630E001036E6634F
:1015F0004D4EA26126640E001436A6644B4E4C4A32
:10160000E6640E00183666654A4E0025A6650E0093
:10161000E26102221C36039163612262E362636429
:101620002365A560A563E3652666434EA3666666EB
:101630000E002036E666414E626726670E002436AD
:10164000A6673F4E2392E6670E00283624963D4E4D
:10165000269325960E002C3627963B4E29932896E6
:101660008E182A96394E32922B96CE1C2D96384ED5
:101670002C952E960E0030363096364E2F9531969C
:101680000E003436339635920A0038323692324A9A
:10169000324E37923C31324A39910100314834960A
:1016A00038933A923B93FFF749FC0600A84219D0C1
:1016B0008368AB4216D00C236B43E718310078687F
:1016C0000193FFF73BFC002809D0C368042B06D127
:1016D000BB68012B12D0002B07D0022B13D0013591
:1016E000132DE8D100203DB0F0BD019BC169E25847
:1016F00083690B43591E8B411370F0E7019B82698C
:10170000E3581A60EBE7019B1749E2588369DB0154
:101710005B181360E3E7C046D0970010DD97001018
:10172000F5970010029800100C9800101698001001
:10173000EA9700101E9800102598001033980010AA
:101740003D980010489800105498001061980010BF
:101750006B980010789800108D98001082980010F7
:1017600099980010A698001000003240F8B50E00BD
:1017700001001648FFF7E2FB011E08D08368002B2A
:1017800005D01348FFF7DAFB0400002C01D100203C
:10179000F8BDA4680F4FA1683800FFF7CFFB3500F4
:1017A0000028F2D0C368042BEFD18369321D2B606F
:1017B000036824689B6921006B60D36F3800013394
:1017C000D367FFF7BBFB0835EAE7C046FB9800107C
:1017D0004F9900100799001070B50C0001001648D1
:1017E000FFF7ACFB051E24D001001448FFF7A6FB51
:1017F000002806D0E378012B03D10069FFF72AFB0C
:10180000207029000E48FFF799FB002806D02379A5
:10181000012B03D10069FFF73DFB607029000948E7
:10182000FFF78CFB002804D06379012B01D1836979
:10183000A370002070BDC046B6970010B997001085
:10184000C4970010CC97001070B504000D0086B04E
:101850000021142201A807F032FD29002000FFF723
:101860006DFB0400002C18D021001C48FFF766FB1C
:101870000028F7D00569002D0AD0194E2900300044
:1018800007F0EEFD00280BD1310001A807F0F2FDB2
:10189000210001A8FFF752FB0400200006B070BD34
:1018A000104E2900300007F0DBFD0028ECD02900A5
:1018B0000D4807F0D5FD0028E6D00C4E2900300079
:1018C00007F0CEFD0028DFD02900094807F0C8FD49
:1018D0000028DDD121000748C1E7C046109900105B
:1018E00038990010219900102899001030990010A3
:1018F000159900101B99001010B5FFF71FFB01246C
:10190000002809D08168002906D00448FFF716FB9B
:10191000002801D0C468E4B2200010BDAD980010CA
:10192000F7B5040000200D00FFF750F82000FFF786
:10193000B5F9071E4AD001002648FFF7FFFA041E3A
:1019400006D1012676423800FFF75AF83000FEBD76
:1019500001002148FFF778FF210006001E48FFF72D
:10196000CBFF0090002E2BD03069FFF773FA6B4647
:1019700000261B782870EB7021001848FFF764FFE1
:10198000210000901548FFF7B7FF009B0190002B46
:1019900019D01869FFF77EFA6B461B7968702B71B6
:1019A00021000F48FFF750FF210000900C48FFF77F
:1019B000A3FF009B002BC4D09B696871AB70C2E78A
:1019C00001267642D8E701267642E9E705267642E7
:1019D000BCE7C046B6970010B9970010C497001036
:1019E000CC970010F0B5050085B000200C00FEF784
:1019F000EDFF2800FFF752F90190002800D115E112
:101A000001008C48FFF79AFA051E00D10AE18A4FBF
:101A100001003800FFF718FF290006003800FFF723
:101A20006BFF002E00D1E1E09422B3695200DBB2DB
:101A30002370A0542200303213703623FF33E05459
:101A400000237E4F290038000093FFF7FDFE290098
:101A500006003800FFF750FF002E00D1C9E0F36800
:101A60005A1E93412A22DBB2FF326370A054220037
:101A7000313213709B235B00E054714F2900380012
:101A8000FFF7E2FE290006003800FFF735FF002EC1
:101A900000D1B2E0F3685A1E93412C22DBB2FF3230
:101AA0002374A0542200403213709C235B00E05446
:101AB000644F29003800FFF7C7FE290006003800F0
:101AC000FFF71AFF002E00D19BE09622B369520067
:101AD000DBB26361A05463643A23FF33E0545A4E8F
:101AE00029003000FFF7B0FE290007003000FFF7A3
:101AF00003FF002F00D188E02200BB692C32DBB24B
:101B000013703222FF32A05422005C3213709F22E5
:101B10005200A05422002D32137099225200A0547A
:101B200022005D3213704022FF32A05422002E3278
:101B300013703422FF32A05422005E321370A023AF
:101B40005B00E05401994148FFF7F8F90600002FC7
:101B500068D02E220123FF32A354D218A35430227E
:101B6000FF32A354D218A35423000222384FFE336D
:101B7000FF3201009A87DA873800FFF765FE3100EF
:101B800005003800FFF7B8FE0390002D41D0AB6987
:101B90000293304F31003800FFF756FE3100050048
:101BA0003800FFF7A9FE002D38D0AD6922002100D2
:101BB0002300533229317033FF32FF31029E5D60C2
:101BC0001E606E46367B08331670507002329942A2
:101BD000F4D1A12302225B00FF32E2520233E2522F
:101BE0000198FEF70DFF009805B0F0BD01235B42A0
:101BF00027E701235B4200933FE701235B42009309
:101C000056E701235B42009369E701235B4200939F
:101C100098E701235B4202950093BAE701235B42F8
:101C20000093C3E701235B420093D2E705235B42A5
:101C30000093D8E7B598001097970010F39800101C
:101C4000719700105A97001088970010F7960010AF
:101C50000197001009970010DC23F0B59B0585B0B3
:101C60000093002302AD019502901848184C0668B5
:101C70006B60306A0768002F07DBA34203D10120A5
:101C8000404205B0F0BD0133F4E7A342F7D06B4604
:101C9000C3600123BC3683603368C0180023066824
:101CA000002E03DAA342EAD00133F8E7A342E6D0DC
:101CB000A02300981B06984201D00098E1E7029B00
:101CC000002013606B680B60DBE7C046840B0208E2
:101CD000983A00000122F0B50024184B06681968F4
:101CE00032400B6ABC310D6815495D191F68002F21
:101CF00006DB8C4202D101204042F0BD0134F5E701
:101D00008C42F8D0002A00D106000120DE609860E5
:101D100000202C68002C03DA8842ECD00130F8E770
:101D20008842E8D0DB68002A00D11B68A02200208E
:101D300012069342E1D01800DFE7C046840B020888
:101D4000983A00000A4B37B51B780500013B002488
:101D5000012B05D8074B01A80193FFF7BBFF040037
:101D6000002D02D0280004F0C3FF20003EBDC04675
:101D7000F41002080101013A07B5034B01A80193D1
:101D8000FFF7A8FF0EBDC0460101003210B5FFF7F6
:101D9000F3FF002801D107F06FFC10BDF8B5060075
:101DA00008001700FFF7CEFF1D4B1B68002B20DA41
:101DB000B0241C4B1C4DA4002B511C4B1C481B6811
:101DC0001A009832196812688A181168084019496F
:101DD000014311601A00903212681B689B18102290
:101DE00019681142FCD0012004F082FF2E51FFF748
:101DF000CDFF002F0CD005F0DFFEC02201230E49DD
:101E00005200885803438B5005F012FF05F0BCFECA
:101E1000300006F003F8002005F02AFBFBE7C0467F
:101E2000000126400040001600002140840B0208FB
:101E3000FCFF00000300FA0500002640C022012339
:101E4000044910B55200885803438B5005F0F0FE4A
:101E500010BDC04600002640F8B5284B421E0500C4
:101E60009A4248D8264B1A78002A44D10124254F9B
:101E70001C703B78244E002B07D1FFF7DFFFE122D7
:101E8000D200B358A343B3503C70C02201210024B8
:101E90005200B3588B43B3501C4B1D801C4BA20007
:101EA00099184988A94221D8D35A9D4200D21D00D1
:101EB000184B20001C7005F0A3FEC22328005B0015
:101EC000F65807F01FF8144A144B06F09BF906F079
:101ED000B9F811231C1B103BA3408019C01A80B213
:101EE00005F07CFEFFF7AAFF0020F8BD01340D2CA1
:101EF000D5D1013CDCE701204042F6E76F17000036
:101F0000AC060208AD06020800002640AA06020838
:101F10007C9A0010A806020833DFC14F1C409F3F87
:101F2000C0220120044952008B5883438B50002269
:101F3000024B1A707047C04600002640AC060208EB
:101F4000C0220120024952008B5883438B507047B6
:101F500000002640014B18607047C046840B020801
:101F6000F8B58023FA270E0001251B0218430C4CFC
:101F70000004E061BF00236C2B4208D1002F01D187
:101F800008480CE02800013F04F0CCFEF3E7002FE6
:101F9000F6D00020236C1D432564E36A3380F8BD2E
:101FA00000003C400400160070B5FA26012500042C
:101FB0000B4C0143E161B600236C2B4208D1002E8B
:101FC00001D108480AE02800013E04F0ABFEF3E727
:101FD000002EF6D00020236C1D43256470BDC04642
:101FE00000003C400400160010230449044A8858AD
:101FF00003438B500022034B1A60704700003C40A3
:1020000070F00100740B0208F0B51B4B9DB001A9E4
:102010000A00180070C870C270C870C270C870C260
:102020000AAC1A0020002432E0CAE0C0E0CAE0C0D6
:10203000E0CAE0C013AD2A004833C1CBC1C2C1CB56
:10204000C1C2C1CBC1C20D4E336898690130FF30A7
:1020500000F00EFB3368210098698130FF3000F0FA
:1020600007FB33682900986980239B00C01800F0A3
:10207000FFFA1DB0F0BDC046709B0010840B020833
:10208000F0B589B002930EAB1B78039000910492D7
:102090000593012800D92DE1032900D92AE1029BEB
:1020A0000C3B872B00D925E1FB2A00D922E105F062
:1020B00033FD002801D005F09DF80122904B914F8F
:1020C0001D00D859104204D08F495B58134200D0EC
:1020D00012E1FFF799FF8D4B8D4A0120EA50A023B2
:1020E000029A1B0313438B4AAB508B4B8B4AEA502B
:1020F0008B4B5B68034200D000E18A4BEB581B0717
:102100003ED52B68884A4003104303432B6005F0FB
:1021100005FB002843D0059B002B40D10320012163
:1021200005F036FB012005F063FBEE597F4B4020A4
:102130003343EB5104F0F6FD01237D4C2A591A423A
:1021400008D12B51402004F0EDFD032340202B51FA
:1021500004F0E8FD774B784C1E4001963443FA2694
:10216000EC51F600754B1B689A69754BD3581022D9
:1021700013421FD1002E18D1724C200009B0F0BDBF
:1021800004F012FD7049884202D82B686F48BCE702
:1021900005F082FE01382B680028F7D0B2E7032350
:1021A0006B4AA9580B43AB50BFE70120013E04F036
:1021B000B9FDD7E7002EDFD00823664A0120A958D1
:1021C0000B43AB5004F0A2FF002802D0059B012B6B
:1021D00002D1614C019B1C43604B614E23400124A2
:1021E0002343EB51484BEB58234200D0CCE0002E68
:1021F000C2D02000013E04F095FDF3E7013E002827
:1022000000D0D8E006ABDB88BB4200D0C2E006AB12
:10221000991D5448FFF7A4FE041E00D0CBE006AB86
:10222000DA888023DB001A421BD10A260193802121
:102230004C48C900FFF7B8FE041E00D01CE106ABF5
:102240009F1D39004748FFF78BFE0400002E00D188
:10225000B0E0013E002800D0ADE03B88019A9342F7
:10226000E5D106AB991D4048FFF77AFE041E00D069
:10227000A1E006ABDB883F22190091436A46128831
:102280000398019206AA0632012824D1009B022657
:102290002700012B03D8019BF61AB7B21E0070234A
:1022A0000B431380314B009A2F48D340304ABF0074
:1022B000136006ABD9883143D980FFF775FE019BC7
:1022C00004009E1B03231E403743BFB206ABDF80D2
:1022D000284BEF506FE00099002908D02700012615
:1022E0007F218B436F390B431380234BDBE701279F
:1022F000009EF5E7214C40E7214C3EE7214C3CE7AE
:1023000000003C40A0F00100B4F00100A4F0010086
:1023100006000001A8F00100ACF00100010001007E
:10232000FC003C4070F00100041A00803000030003
:10233000B0F00100EFFFFEFF20000200840B020856
:10234000104000000400160000093D00040A00804F
:10235000C4F0010068F0010028000200FFFFFBFF4D
:10236000F07E0E00031E0000091E00000048E80178
:10237000740B020864F001000024F4000100160050
:102380000300160002001600002E00D1F4E6C0275C
:102390000A267F01C0213A484901FFF705FE041EC5
:1023A0006AD106AB991D3648FFF7DAFD0400002E0E
:1023B00000D023E7334C04F067FD212844D0B02738
:1023C000314E7F05BB5B002B3ED0002C00D0D4E605
:1023D00006AB9D1D29002D48FFF7C2FD041E00D04D
:1023E000CBE6B95B288860344908A043214001430B
:1023F0002748BA5B0140F020D201C00002401143DF
:10240000244ABB5B1140C022DB0052011340194338
:102410001E482980FFF7C8FD041E00D0ADE6290044
:102420001D48FFF79DFD041E00D0A6E6FF23C02235
:10243000B95B19480909890119402B88934319434D
:102440002980FFF7B1FD0400002C00D095E6049B25
:1024500012495B00194389B21148FFF7A5FD041E1C
:1024600004D110491048FFF79FFD0400029B58015A
:1024700080B204F057FC80E6002E9BD09BE7C0465C
:10248000021E00000400160016180000071E0000BF
:102490007FF5FFFFFFE7FFFF061E000001100000B1
:1024A000081E0000376800000F1E0000044B1B6868
:1024B0001A00BA3212881B6A5043C0187047C046CF
:1024C000840B02081D4B98420FD010D840282FD003
:1024D00005D8002830D0102828D019481EE08028C0
:1024E00028D080235B009842F7D1144816E0154BA2
:1024F000984214D008D8A0231B0698421CD0124B37
:102500009842EAD1A0200BE0104B98420AD0104B21
:10251000984209D00F4B9842DFD10F487047A42052
:10252000C003FBE70D48F9E70D48F7E70D48F5E76D
:102530000D48F3E70D48F1E70020EFE706005200F1
:10254000FF005200010000F0090000A0040000F0AC
:10255000050000F0030000F00100520002005200EC
:10256000030052000100500002005000050052001C
:1025700010B50020FFF79AFF0A4B1C682300BC33FC
:102580001B68C0180368002B0ADB074B1868FFF7AD
:1025900099FF012263689A609A68002AFCD110BDF5
:1025A0000248FCE7840B0208B00602080200500053
:1025B0000D4B10B51860002804D0FE235B42038049
:1025C00000234380094B1B681A0050321278002AFE
:1025D00008D051331B78002B04D00222044900207C
:1025E00000F094F910BDC046C0060208840B020832
:1025F0003903020810B50248FFF7DAFF10BDC046E4
:102600000000000870B5C40506000D00E40D20D1DF
:1026100000291ED005F0A4FB0F4B104A1A605C6025
:102620009E60DD600E4B1B685233197800290BD079
:1026300004F0C7FAFA21890005F02EFC01000948D0
:1026400005F02AFC084BC1188020400007F01CF858
:1026500070BD0648FCE7C046B00602080001000550
:10266000840B0208C0EA210148260000060052003F
:1026700030B5002830D000292ED0184BCD681A680C
:1026800093695469C31ADB091B011B1914008134B7
:102690002478241825601400823424780D692418C5
:1026A00025601400833424784D69241825601400B3
:1026B000803424788D68241825604C6884328461C5
:1026C00012788C6912181460CA691A600A6A5A6012
:1026D0000B680360002030BD0148FCE7840B020852
:1026E00001005A000E4B10B51B689C695B69001B0A
:1026F000C0090001C0181F231A40032907D8C900C8
:102700008B408A4004689C432243026010BD043918
:10271000C9008B408A4044689C4322434260F5E7ED
:10272000840B0208F8B51F0006AB15001A780600E6
:102730000C00FFF7D7FF012211001740A140A7406E
:102740003368A4008B433B433360074B1B688133E2
:102750001B78F6180F2319001D40A140A5403268D0
:102760008A432A433260F8BD840B0208064B1B687B
:10277000BC331B68C3181B68002B03DA89B24160A5
:10278000002070470148FCE7840B020801008A0022
:102790000368002B04DA89B2C260816000207047B0
:1027A0000048FCE701008A00064B1B68BC331B682D
:1027B000C3181B68002B03DAC36800200B60704746
:1027C0000148FCE7840B020801008A00024B1A68EA
:1027D000002A00D118607047C4060208F0B52C2406
:1027E0006043154C1F0024681D0A2018FF24254053
:1027F0002740124C1B0C26680760346A45608360D2
:10280000BA36368877433F1907612F0080376D014C
:102810007F01E71964190A4D47611F043B4364199E
:10282000236000238361059BC2610162002B01D0FC
:102830001B888381F0BDC046C4060208840B0208D1
:1028400008100000F0B5836885B002AD2B80154BF1
:1028500002681B68066A1B8F476A9B18AB70436847
:102860000095826AC16A040003930369C068FFF798
:10287000B5FF00213B000A0000913000FFF7AEFFDA
:10288000216B280004F0EAF90022AB5E002B06DB86
:102890001F2213401E3A9A401300034A136005B0EA
:1028A000F0BDC046840B020800E100E0F7B52C251E
:1028B000134C6843266869433418256901937118DD
:1028C000002D19D08869002818D12E68002E15DA3D
:1028D0006768012426004B689E40B44613689EB288
:1028E00063461B041E431660EA608C61BC40019B7A
:1028F000A4B24B62AC60FEBD0248FCE70248FAE7B6
:10290000C406020804028A0007028A002C234343FB
:1029100006480068C018C369934204D9036A0020BE
:102920009200D15070470248FCE7C046C406020836
:102930000A028A0073B5002642690400D568019630
:102940002B0CB34221D01B0413601368194B006990
:102950001B68BC331B68C3181B68B34215DA01A996
:10296000FFF722FFB0420CD10198E26903681E0C08
:10297000DBB29A4205D9226A9B009B58002B00D0FB
:10298000984731002069FFF7F1FEADB2002D09D064
:1029900063691D6000251B68636AAB4205D09847D8
:1029A0006562A56163691B6873BDA36A002BF8D0DB
:1029B0009847F6E7840B02082C2310B54343034ADB
:1029C0001068C018FFF7B6FF10BDC046C406020865
:1029D000F8B5194B0F001B681A0033321278824287
:1029E00027D9002925D01F250A68154021D11900B3
:1029F000BA310C88114E60431C6AD20804192900B0
:102A00007868346006F05BFC29002000FFF7AEFE1A
:102A10003A0029003068FFF7BBFE041E07D1010011
:102A20003068FFF7A3FE03002000002B00D004480D
:102A3000F8BD0448FCE7C046840B0208C80602083B
:102A400001018A0003018A0010B5002A0DD1002976
:102A500014D10B4B1A681300BA331B885843136AFE
:102A6000C018084B1860080010BD002906D0064B9E
:102A7000196019005A60FFF7ABFFF5E70348F3E769
:102A8000840B0208C80602080400000803018A003B
:102A9000F7B5184F04003B680191DE683368834244
:102AA00026D90025A94202D1FDF737FD0500386877
:102AB0000368002B1ADA1F22012322409340640985
:102AC0007268A4001419226813420DD09A43226040
:102AD00000240021FFF74AFE019B002B02D12800B1
:102AE000FDF71FFD2000FEBD034CF2E7034CF3E7AA
:102AF000034CF7E7C80602080201880003018800BA
:102B000004018A000A4B1B68DB681A6882420DD9EF
:102B100059681F23420918401E3B834092005058B9
:102B20001840431E9841034BC01870470248FCE709
:102B3000C80602080001880004018A0070B59621C9
:102B4000002004F043F90021080003F02BF944426F
:102B500044412E4B64421C402D4B05000020E418DC
:102B600003F09EF8012003F07FF8002002F0A8FF98
:102B700005F0F6F8274E33683F331B78002B03D05F
:102B8000012003F083FC0500002D00D0224C3368A7
:102B90003F331B78012B03D9022003F077FC05009B
:102BA000002D00D01D4C0021012003F0CBFA00289D
:102BB00000D01B4C002003F0EBF8051E0ED103F0F3
:102BC000E9FA1223FF33984208D10121280003F0CB
:102BD000C1F8002800D00E4C05F0C2F803F03EFB0F
:102BE000002800D00F4C0021080003F0ABFA0028A9
:102BF00000D00D4C0021080003F0ACF8002800D0F4
:102C0000034CFFF7F1F9200070BDC046F1F0E5FE7E
:102C10000F0F1A01840B02082F0F1A012E0F1A0131
:102C20004E0F1A013F0F1A014F0F1A010D4AC00033
:102C30008318083010B58018002905D101225242AE
:102C400019605A6006C010BD074A80311268946945
:102C50005269091BC90909018918002219605A60C3
:102C60000431EFE7880B0208840B020830B5134CDF
:102C7000C000031908300019002901D0072A06D91D
:102C800001220021524219605A6006C030BD0C4C2E
:102C90002468A5696469491BC909090109191960F2
:102CA000043101601F21032A03D8D20091405960EA
:102CB000ECE7043AD20091404160E7E7880B020854
:102CC000840B0208F0B5C400454E002900D17AE01B
:102CD000072A00D977E0002336199D00DF004D193F
:102CE0000133F551152BF8D1143B93403D497360E6
:102CF00009194B603C49032509194B603B49384F82
:102D000009194B603A4909194B603A4909194B6056
:102D1000394909194B60394909194B6038490C196F
:102D200051000E00374963600C68B54021008031C6
:102D300009789200023189080918C900C9194D6043
:102D40000F25210095408131097802318908091841
:102D5000C900C9194D6035001035AC4621006646E2
:102D6000032582310978B540023189080918C90064
:102D7000C9194B602100833109782B43023189083E
:102D80000918C900C9194B60FE2301219B00843436
:102D90001A402378012502339B081818531CC000E1
:102DA0009940C71901200B00911C884095400326CB
:102DB00003431D43D31C9E402E43072505329540F7
:102DC0002E437E60F0BD00230121180034194942D2
:102DD000E050E21808335160A82BF9D1F2E7C04661
:102DE000880B0208900B0208980B0208A00B02083F
:102DF000A80B0208B00B0208B80B0208C00B0208AF
:102E0000C80B0208840B0208BF4BF0B51B6889B0E1
:102E10001A00BA321188186A8A001218D068049011
:102E20000088079004984088029004988768C068DA
:102E300006900798013809280BD805F023F8680098
:102E400028004700D209F8003701500377008500B9
:102E5000C100AE4C6A46049B928B85211A806A465B
:102E6000802012895C605A80069A9F60DA60A64BC7
:102E700049011B6840031A6ABA33505018885158E8
:102E8000800080180021FFF771FC09B0F0BD029AA4
:102E90009F4BD20099184968069C0C4001D001F064
:102EA000A3F9481C01D101F0A2F902989C2801D98C
:102EB00001F0A0F9D258002A01D101F09EF913685F
:102EC00039430B4006990B431360C3E7029A904BBA
:102ED000D1005A185268501C01D101F091F90298A2
:102EE0009C2801D901F098F9C958002901D101F0B5
:102EF00096F90B68174205D018007840024201D0BD
:102F000001F090F913403B430B600024A2E7029BC1
:102F10009C2B01D901F089F9DA007D4BD358002BA5
:102F200001D101F085F91F68002493E7022F01D039
:102F300001F081F9069C774B143C6042444176488D
:102F400064420440E41885E7002F01D101F076F9CE
:102F5000069B052B01D901F074F9704B1B681A7898
:102F6000002A25D09A683A60DA687A606C4ABA60BA
:102F70005A78002A1ED01A6AFA609A6A3A61694A37
:102F80007A615A6ABA61DA6AFA61674A3A629C7887
:102F9000002C12D01A6B00247A629A6BBA62634AD0
:102FA000FA625A6BDB6B3A637B63614BBB6351E73D
:102FB0003A60DDE7FA60BA61E9E77C623C6349E7C1
:102FC000049B5C68002F00D144E7069B052B00D9C9
:102FD00040E7524B1B681A78002A20D09A6880324A
:102FE0003A609322BA805A78002A1AD01A6A80323C
:102FF000BA609522BA815A6A80323A619722BA82BF
:103000009A78002A10D01A6B5B6B80328033BA61D9
:103010003B6299229B23BA83BB8400241AE73A605F
:10302000E1E7BA603A61EBE7BA613A62F5E7002F8F
:1030300001D101F009F93F4CF0223900200006F0DF
:1030400035F903F08BFE002810D0FFF777FD200044
:1030500001F0D2FC384B04001A78002A00D0F9E6BF
:10306000002800D0F6E601321A70F3E6324B1B78E6
:10307000002BECD1E378002BE7D0E379002BE4D0F0
:10308000230055331D7803F057FE0028DDD102F0F0
:103090002BFF002805D102F01BFF280002F044FF9F
:1030A000D3E702F02BFF0028F5D0CEE7029B672B79
:1030B00000D184E046D8302B00D1D4E117D82D2B95
:1030C00000D1D8E02F2B00D1C8E12C2B1AD100243D
:1030D000B1251A4BED001C80194B1C800A4B1B6854
:1030E0003F331B789C4200D878E00024B2E6029B74
:1030F000322B00D1ABE100D2A5E1332B00D19EE110
:10310000662B3ED0014CA5E6840B0208FF0F1A0186
:10311000880B0208F90F1A0107F0E5FEC407020840
:103120002000890035008B004A008D005F008F0071
:1031300074009100D0060208C0070208CC060208FD
:10314000CE060208029B6F2B00D1FFE00AD86D2B40
:1031500000D1EFE000D9F1E06C2BD3D104F0E6FA16
:10316000002477E6029B712B00D132E100D2F7E018
:10317000C82B00D196E1C92BC4D1FEF735FF00243E
:1031800068E6BB4B5A68002F10D1BA4911401B2288
:103190000A435A605968B84A114359605968114343
:1031A000596059680A435A60002453E6E821B3483D
:1031B00089010240114359605A680240F3E7032332
:1031C0004B439B181A68002AFCDA80220024D96835
:1031D00052050A43DA605C605B683BE6002C1ED156
:1031E00003F02AF8002818D0200002F0D3FF0228AC
:1031F00036D1002C17D19E4AA1485359184080233C
:103200009B05184350510021200002F09BFF012331
:10321000A3409C4A11880B43138001345EE72000D1
:1032200003F020F9DEE70326914AA30096499B1894
:103230005A58120F324204D05A58120F3240012A03
:1032400006D10122A2401000904E328810433080F7
:103250005A588B4810408022920510435850D2E7AC
:10326000002CDAD1824A864953590B4080218905C6
:103270000B435351D1E7834B1B88002B0FD102F036
:10328000DBFF041E00D1E5E5814C40E0013D02F08A
:103290006FFE022805D0002DF8D17E4CDAE57C4D7A
:1032A000F5E7002DF9D000267A4C09E0013D02F047
:1032B000CBFF002801D001F00CF8002DF6D101362B
:1032C000754B1B683F331B789E4200D9C2E5012332
:1032D000B3409BB203936B4B039A1B881342EED00F
:1032E0000221300002F02EFF002EE0D0300003F06B
:1032F000C3F8002801D000F0FBFF002DDFD0013D16
:10330000F4E7C020800501439950D8E7013C02F062
:103310009BFF002802D1002CF8D1BEE7002CBCD0C6
:10332000B122C0235249D20088589B0503438B50D9
:1033300000248FE504F04CFA00248BE53800431E8E
:103340009841C0B204F054FA002483E53878072885
:1033500001D900F07CFF797804F01AFA002479E5AD
:103360003B78002B01D000F075FF7968CAB20F2AB4
:1033700001D900F072FF0125484C8D40A446201D64
:103380003A7AC66FB34208D1002004F053F9441EC4
:10339000A0414442424804405CE5D80060440468CF
:1033A0002C4214D0022A08D0032A0BD0002AEBD1D9
:1033B0004368DB07E8D43A4C4CE543681342E3D159
:1033C000374C47E543685B07DED4354C42E50133B3
:1033D000D8E73B78002B01D000F042FF2F4A0425AC
:1033E000101DC06F01268446397A634508D100203C
:1033F00004F05AF9441EA04144422948044029E5FA
:1034000002290BD0032910D0002916D1234CD80053
:1034100000194068304210D1214C1BE5D8008018BB
:103420004068084209D11E4C14E51C4CD800001914
:103430004068284201D100F016FF0133D5E703F0C0
:1034400059FA002406E503F08FFA002402E53A89D0
:103450003888796803F064F90400FBE4380003F06D
:1034600015FA0400F6E4380002F024FD0024F1E42B
:10347000000026400000FC0F003A0280FF00FC0F15
:10348000FFFFFFCFCC060208FC050000CE060208B5
:1034900040420F00FA0F1A01840B02087010020854
:1034A000FE0F1A01B94C7A6823002100DC331A6040
:1034B000BB68E0310B602100250026003878E4313C
:1034C00008607978E83529603D7BEC363560012667
:1034D0000234E6770095FEF7D3FD0400BAE4AC4A67
:1034E0001278002A01D100F0C1FE02980838632842
:1034F00001D900F0BEFE04F0C5FCD800E600FA00D9
:103500001C012A0138014D015B01BC0669017701EC
:1035100085019D01DD011D02C50263037C03950346
:10352000AE03C203D603E403F20306041A0428041C
:1035300036044F045E046C047B05A405CE05FF052C
:103540005406BC06BC066D06BC06BC06BC06BC0622
:10355000BC06BC06BC06BC06BC06BC06BC06BC065B
:10356000BC06BC06BC06BC06BC06BC06BC06BC064B
:10357000BC06BC06BC06BC06BC06BC06BC06BC063B
:10358000BC06BC06BC06BC06BC06BC06BC06BC062B
:10359000BC06BC06BC06BC06BC06BC06BC06BC061B
:1035A000BC06BC06BC06BC06BC06BC06BC06BC060B
:1035B000BC06BC06BC06BC06BC0664008500A700B1
:1035C000BF000122714D6B78E91C03932B792E7893
:1035D0000593FBB22A706A70CB77002B0FD12A714A
:1035E000280001F009FA041E00D133E46B461B7B6E
:1035F0002E706B706B461B7D2B71FFF72BFC00232D
:103600002B71EDE701210022604D6B78281D03939B
:103610002B792E780593FBB229706A70C377022B41
:1036200010D12971280001F0E7F9041E01D1FFF73C
:1036300011FC6B461B7B2E706B706B461B7D2B71D8
:10364000FFF708FC2A71EDE7504D2B786E1D0393B0
:10365000F37F2800059301232B70F37701F0CCF959
:10366000041E01D1FFF7F6FB6B461B7B2B706B46EC
:103670001B7DF377FFF7EEFB444D2B786E1D039314
:10368000F37F2800059301232B700023F37701F0CB
:10369000B3F9041E01D1FFF7DDFB6B461B7B2B70DA
:1036A0006B461B7DF377FFF7D5FB0023374D2800D2
:1036B0006E796B7101F0A0F9041E01D1FFF7CAFB0E
:1036C0006E71FFF7C7FB314D6B7A2800039300231F
:1036D000AE6E6B72AB6601F08FF9041E01D1FFF77D
:1036E000B9FB6B461B7BAE666B72FFF7B3FB002F1B
:1036F00001D100F0C1FD3F331B78BB4201D200F085
:10370000BEFD0023214D012F0DD1AE7AAB722800F2
:1037100001F072F9041E01D1FFF79CFB012F05D1C6
:10372000AE72FFF797FBEE7AEB72F0E7EE72FFF7FF
:1037300091FB0123154D2800EE79EB7101F05CF946
:10374000041E01D1FFF786FBEE71FFF783FB002318
:103750000E4D2800EE79EB7101F04EF9041E01D1F7
:10376000FFF778FBEE71FFF775FB3B0007485A1E29
:103770009341050055352E782B7001F03DF9041E5C
:1037800001D1FFF767FB2E70FFF764FBD00602083C
:10379000C00702080123C248451CEE7FEB7701F009
:1037A0002BF9041E01D1FFF755FBEE77FFF752FB13
:1037B0000023BB48451CEE7FEB7701F01DF9041E8A
:1037C00001D1FFF747FBEE77FFF744FB0123B44D30
:1037D00028002E7A2B7201F00FF9041E01D1FFF799
:1037E00039FB2E72FFF736FB0023AD4D28002E7AF1
:1037F0002B7201F001F9041E01D1FFF72BFB2E7291
:10380000FFF728FBA648FBB20500013B5A42534193
:10381000002456352E782B70037AA34201D1FFF78E
:1038200019FB01F0E9F8041E01D1FFF713FB2E701C
:10383000FFF710FB052F01D900F024FD3800984D4B
:10384000012304F015FB0316191C1F226E7D6B75F6
:10385000280001F0D1F8041E01D1FFF7FBFA052F73
:1038600001D9FFF7F7FA380004F002FB1215181B14
:103870001E21AE7DAB75EBE7EE7DEB75E8E72E7EA6
:103880002B76E5E76E7E6B76E2E7AE7EAB76DFE722
:103890006E75FFF7DFFAAE75FFF7DCFAEE75FFF72E
:1038A000D9FA2E76FFF7D6FA6E76FFF7D3FAAE7610
:1038B000FFF7D0FA052F01D900F0E7FC380000230C
:1038C000774D04F0D5FA0316191C1F226E7D6B7517
:1038D000280001F091F8041E01D1FFF7BBFA052F73
:1038E00001D9FFF7B7FA380004F0C2FA1215181B15
:1038F0001E21AE7DAB75EBE7EE7DEB75E8E72E7E26
:103900002B76E5E76E7E6B76E2E7AE7EAB76DFE7A1
:103910006E75FFF79FFAAE75FFF79CFAEE75FFF72D
:1039200099FA2E76FFF796FA6E76FFF793FAAE764F
:10393000FFF790FA3868052801D900F0A9FC584C27
:103940003B79220004F094FA032E3C4A5866260084
:10395000A532A83615781370326818000392627D7C
:10396000A634059203F0F0F823784E49D84004F0CD
:1039700093FA059B30601C1E01D1FFF76BFA484E8D
:10398000300001F039F8041E01D1FFF763FA3868FE
:10399000052801D9FFF75EFA330004F069FA4950AF
:1039A000575E656C2600AC32B036157813703268FD
:1039B00018000392A27DAD34059203F0C5F8D3E759
:1039C0002600B432B83615781370326818000392A6
:1039D000E27DB534059203F0B7F8C5E72600BC32A6
:1039E000C03615781370326818000392227EBD34F9
:1039F000059203F0A9F8B7E72600C432C836157857
:103A00001370326818000392627EC534059203F089
:103A10009BF8A9E72600CC32D036157813703268AF
:103A200018000392A27ECD34059203F08DF89BE737
:103A3000A5331D70039BA8363360FFF70BFAAC3338
:103A40001D70039BB0363360FFF704FAB4331D706A
:103A5000039BB8363360FFF7FDF9BC331D70039B41
:103A6000C0363360FFF7F6F9C4331D70039BC836C8
:103A70003360FFF7EFF9CC331D70039BD036336012
:103A8000FFF7E8F93868052801D900F004FC044B79
:103A90003A791C0004F0ECF908333E49545FC04603
:103AA000D006020840420F001D00A634A835267833
:103AB00022702A6803925A7DA5330592187803F084
:103AC00043F82378DB49D84004F0E6F9059B2860E9
:103AD0001C1E01D1FFF7BEF9D74D280000F08CFF66
:103AE000041E01D1FFF7B6F93868052801D9FFF7A0
:103AF000B1F92B0004F0BCF93A41484F565D1D0066
:103B0000AD34B035267822702A6803929A7DAC33A2
:103B10000592D3E71D00B534B835267822702A689F
:103B20000392DA7DB4330592C8E71D00BD34C03579
:103B3000267822702A6803921A7EBC330592BDE76C
:103B40001D00C534C835267822702A6803925A7E33
:103B5000C4330592B2E71D00CD34D03526782270EB
:103B60002A6803929A7ECC330592A7E7A6331E708B
:103B7000039BA8352B60FFF76DF9AD331E70039BD7
:103B8000B0352B60FFF766F9B5331E70039BB8356F
:103B90002B60FFF75FF9BD331E70039BC0352B60B0
:103BA000FFF758F9C5331E70039BC8352B60FFF72C
:103BB00051F9CD331E70039BD0352B60FFF74AF9C6
:103BC0009D4D2E00AB7CA2360393337828000593DD
:103BD00001233770AB7400F00FFF041E01D1FFF713
:103BE00039F96B461B7D33706B461B7BAB74FFF75B
:103BF00031F9914D2E00A336337828000393EB7CE6
:103C0000377005930123EB7400F0F6FE041E01D11A
:103C1000FFF720F96B461B7B33706B461B7DEB7403
:103C2000FFF718F9844D2E002B7FD6360393337897
:103C300028000593012337702B7700F0DDFE041E6A
:103C400001D1FFF707F96B461B7D33706B461B7B79
:103C50002B77FFF7FFF8784800240500D8352E8829
:103C60002F80837FA34201D1FFF7F4F800F0C4FE58
:103C7000041E01D1FFF7EEF82E80FFF7EBF86E4837
:103C800000240500DA352E782F70837FA34201D1FE
:103C9000FFF7E0F800F0B0FE041E01D1FFF7DAF8FC
:103CA0002E70FFF7D7F80123634D2800AE7FAB7766
:103CB00000F0A2FE041E01D1FFF7CCF8AE77FFF7AB
:103CC000C9F800235C4D2800AE7FAB7700F094FE6E
:103CD000041E01D1FFF7BEF8AE77FFF7BBF85648D8
:103CE00000240500D4352E782F70C37EA34201D165
:103CF000FFF7B0F800F080FE041E01D1FFF7AAF82C
:103D00002E70FFF7A7F84C4800240500D5352E7813
:103D10002F70C37EA34201D1FFF79CF800F06CFE28
:103D2000041E01D1FFF796F82E70FFF793F80123D8
:103D3000414D2800EE7EEB7600F05EFE041E01D1C0
:103D4000FFF788F8EE76FFF785F800233A4D280054
:103D5000EE7EEB7600F050FE041E01D1FFF77AF8FC
:103D6000EE76FFF777F8344D2E006B7FD73603934E
:103D7000337828000593012337706B7700F03CFE01
:103D8000041E01D1FFF766F86B461B7D33706B464E
:103D90001B7B6B77FFF75EF8274B5C79002C00D01C
:103DA0007CE23A689A627A68DA62BA681A63FA68F8
:103DB0005A63FFF74FF801231F4D28006E796B718E
:103DC00000F01AFE041E01D1FFF744F86E71FFF7F0
:103DD00041F83868052800D963E2174B04F048F829
:103DE000031B222E353C1A00012196321E7B1588BA
:103DF0001973B9881800118000F0FEFD041E3868A0
:103E000031D1052801D9FFF725F80B4D04F030F822
:103E1000526F8EAEC4DA1A00012198325E7B15888B
:103E20005973E6E71A0001219A329E7B158899732F
:103E3000DFE7C04640420F00D00602081A00012109
:103E40009C32DE7B1588D973D3E71A0001219E329C
:103E50001E7C15881974CCE71A000121A0325E7C03
:103E600015885974C5E7052800D91DE2E64B03F013
:103E7000FFFF03080D12171C1E7396331D80FEF7FB
:103E8000E9FF5E7398331D80FEF7E4FF9E739A335B
:103E90001D80FEF7DFFFDE739C331D80FEF7DAFF27
:103EA0001E749E331D80FEF7D5FF5E74A0331D8007
:103EB000FEF7D0FF6B7A002B03D0280000F0E8FC5F
:103EC000A8662B00A5331878002801D0FEF7C2FFA2
:103ED00002F03AFE2B00A6331B78CC49A835994056
:103EE0004B08181803F0D8FF2860FEF7B3FFAB7A31
:103EF000002B05D02900012000F0E8FC2B1DD8671D
:103F00002B00A5331878012801D0FEF7A3FF02F09B
:103F10001BFE2B00A6331B78BC49A83599404B08E3
:103F2000181803F0B9FF2860FEF794FFEB7A002B16
:103F300006D02900022000F0C9FC2B008C33186049
:103F40002B00A5331878022801D0FEF783FF02F07A
:103F5000FBFD2B00A6331B78AC49A83599404B08D4
:103F6000181803F099FF2860FEF774FF2B00A533A3
:103F70001878032801D0FEF76DFF02F0E5FD2B0055
:103F8000A6331B78A149A83599404B08181803F0AF
:103F900083FF2860FEF75EFF2B00A5331878042806
:103FA00001D0FEF757FF02F0CFFD2B00A6331B78A0
:103FB0009649A83599404B08181803F06DFF286002
:103FC000FEF748FF2B00A5331878052801D0FEF72F
:103FD00041FF02F0B9FD2B00A6331B788B49A835B1
:103FE00099404B08181803F057FF2860FEF732FF7E
:103FF0003A68854B0024DA661A00B988703211805D
:104000001A00B979723211701A00F979733211708D
:104010001A003989743211801A00B97A7632117017
:104020001A00F97A773211701A00B9897832118042
:104030001A00B97B7A3211703A8A7C331A80FEF703
:1040400009FF714D6E7A002E00D030E10123280067
:104050006B7200F01DFCA866280000F0CDFC041E69
:1040600003D0AE666E72FEF7F5FE2B00A5331B780B
:10407000002B01D0FEF7EEFE02F066FD2B00A6330A
:104080001B786249A83599404B08181803F004FFC3
:104090002860FEF7DFFE3A68002A00D10AE13F33CC
:1040A0001B789A4200D908E17B681E785D789C787D
:1040B000D8781979544B012A10D11A00843216701D
:1040C0001A00853215701A00863214701A00873271
:1040D0001070883319700024FEF7BCFE1A0090326D
:1040E00016701A00913215701A00923214701A006C
:1040F000933210709433EDE7012F06D1424A927A41
:10410000002A09D0424CFEF7A5FE022F04D13E4AF8
:10411000D27A002A00D0D3E03F331B78BB4200D2D2
:10412000D1E0002F00D1D1E0374D2900012F12D16D
:10413000380000F0CBFB2B1DD867AF72280000F0D1
:104140005BFC041E16D00023012F0DD12A1DD3675E
:10415000AB72FEF77FFE022000F0B8FB2B008C3321
:1041600018600123EB72E9E72A008C321360EB72CE
:10417000FEF770FE2B00A5331878431E012B01D9E2
:10418000FEF768FE02F0E0FC2B00A6331B781F4907
:10419000A83599404B08181803F07EFE2860FEF7FA
:1041A00059FE194D2E002B7DA43603933378280039
:1041B0000593012337702B7500F01EFC041E01D1FE
:1041C000FEF748FE6B461B7D33706B461B7B2B75E1
:1041D000FEF740FE01220C4B00249A719F64FEF70B
:1041E00039FE0024FEF736FE0A4CFEF733FE094C7A
:1041F000FEF730FE074CFEF72DFE064CFEF72AFEBA
:10420000044CFEF727FEC046D006020840420F00CD
:104210002D0F1A01FF0F1A01404CFEF71BFE3F4CF9
:10422000FEF718FE3D4CFEF715FE3C4CFEF712FE65
:104230003A4CFEF70FFE3A4CFEF70CFE394CFEF7F7
:1042400009FE384CFEF706FE364CFEF703FE354CF1
:10425000FEF700FE334CFEF7FDFD324CFEF7FAFD93
:10426000304CFEF7F7FD2F4CFEF7F4FD2B4CFEF71C
:10427000F1FD2A4CFEF7EEFD2B4CFEF7EBFD2A4C30
:10428000FEF7E8FD254CFEF7E5FD244CFEF7E2FDC8
:10429000224CFEF7DFFD214CFEF7DCFD234CFEF740
:1042A000D9FD1E4CFEF7D6FD1C4CFEF7D3FD204C6D
:1042B000FEF7D0FD1C4CFEF7CDFD1B4CFEF7CAFDF2
:1042C0001C4CFEF7C7FD1B4CFEF7C4FD194CFEF756
:1042D000C1FD002D01D1FEF7F2FFB122C020164929
:1042E000D2008B58800503438B500024FEF7E7FF74
:1042F000002D01D1FEF7E3FF104B0F491C88039BF3
:104300000F4A1C40B3005B189958002C01D1FEF7EE
:10431000F8FF0C4801409950E7E7C046FF0F1A012B
:10432000F90F1A01FE0F1A01BD0F1A01590F1A01D8
:104330003E0F1A012D0F1A0100002640CE0602087A
:10434000FC050000FFFFFFCF37B59D220020384B52
:10435000D100384C591A0919013A0860002AF7D1DE
:10436000354919603549996035491961354999616F
:104370003549196235499962354919633549996357
:104380003549196435490968080040300078042827
:1043900000D9334A9A640022052800D9314A1A65A7
:1043A0004A6801241000083098652F486442186656
:1043B0002E48DC6758662E48802598662D482D02C9
:1043C00018672D4812189A6780230A69DB012B4869
:1043D000D31852198025ED0003605B194460083042
:1043E0009A42F7D100228520254B40010433DA6739
:1043F0000B6A1B18802040039860042368460380E2
:104400000B8F204905338370019202F027FC0028AE
:1044100000D001BE6B4600229B5E002B06DB1F22F4
:1044200013401E3A9A401300174A136037BDC04626
:10443000880B0208EC040000080026400007264014
:10444000040726400807264010072640840326401C
:10445000880326408C03264090032640840B0208E4
:1044600094032640980326400400264000FF03F0F2
:10447000480526404405264060F00000080C02086C
:1044800070100208092E001000E100E010B5314C58
:104490002368002B5CD01A78002A0FD0DA6899685C
:1044A0002020FEF70FFC236889209968DA68FEF760
:1044B000DDFB236893209968FEF7B8FB23685A78E0
:1044C000002A20D09A6A196A3520FEF7FBFB236880
:1044D0004A20DA6A596AFEF7F5FB23688B209A6A4C
:1044E000196AFEF7C3FB23688D20DA6A596AFEF762
:1044F000BDFB23689520196AFEF798FB2368972077
:10450000596AFEF793FB23689A78002A20D09A6BA9
:10451000196B5F20FEF7D6FB23687420DA6B596BAA
:10452000FEF7D0FB23688F209A6B196BFEF79EFB7A
:1045300023689120DA6B596BFEF798FB236899206A
:10454000196BFEF773FB23689B20596BFEF76EFB1C
:1045500010BDC046C4070208032818D004D801289B
:1045600013D02ED9886A0FE01223FF33984218D057
:104570001423FF33984217D01138FF384342584173
:10458000114B4042184002387047886CFCE7E43118
:1045900008680138434258410C4B40421840C0184B
:1045A000F2E780200002EFE7094B1B6841331878DF
:1045B0000138431E9841074B4042184080231B029C
:1045C000EDE70548E0E7C046027D00000024F40066
:1045D000840B0208FE7FFFFF00127A0002235B4279
:1045E00010B51360314B14001B681A003E3212786C
:1045F000824258D9052856D803F03AFC03192E43B5
:10460000494F0B7B002B4ED04B7A002B08D00B0070
:104610007A331B78022B03D08B6E2360002010BDF1
:104620000B0096331888FFF797FF2060F6E74A7B68
:10463000002A38D03F331B78002B0AD08B7A002B0E
:1046400007D00B0088331B78022B02D00431CB6FCC
:10465000E3E70B009833E5E78A7B002A23D03F335A
:104660001B78012B0AD9CB7A002B07D00B0094338F
:104670001B78022B02D08C310B68CEE70B009A33EB
:10468000D0E7CB7B002B0ED00B009C33CAE70B7C12
:10469000002B08D00B009E33C4E74B7C002B02D0CC
:1046A0000B00A033BEE70248B9E7C046840B0208FE
:1046B000FE0F1A01194B00B513600023052809D815
:1046C00003F0D6FB030A13191F250023087B96313C
:1046D000984206D1180000BD0023487B98319842CB
:1046E000F8D00B8800211160F4E70023887B9A3111
:1046F0009842F6D1EEE70023C87B9C319842F0D176
:10470000E8E70023087C9E319842EAD1E2E70023E3
:10471000487C9842DED0A031E3E7C046FE0F1A0184
:10472000032819D004D801280FD028D948790DE0E2
:104730001223FF33984214D01423FF33984212D02F
:10474000033B98420BD00F4805E08879434258411B
:104750000C4B4042184070470231C87FF6E7C879D9
:10476000F4E7087AF2E70131CB7F002BEBD0064B60
:104770001B68413318780138431E9841E8E7002050
:10478000E9E7C046FE0F1A01840B020810B51B4B67
:104790001B683E331B7883422DD905282BD803F0A4
:1047A00067FB030C12181E240B7B002B23D00B007D
:1047B00096331888FFF7B4FF10BD4B7B002B1AD03F
:1047C0000B009833F5E78B7B002B14D00B009A334A
:1047D000EFE7CB7B002B0ED00B009C33E9E70B7C83
:1047E000002B08D00B009E33E3E74B7C002B02D05C
:1047F0000B00A033DDE70248DEE7C046840B020869
:10480000FE0F1A010300A8331B6810B50400002B2B
:1048100002D00848584310BD0300A533187802F0B1
:1048200093F902000120A6342378984040088018AC
:10483000D840F0E740420F0010B5040001F04EFEF2
:10484000002801D0044810BD0449200001F0BCFE3E
:104850000028F8D0F6E7C046FD0F1A011027000027
:1048600070B50400150001F075FA002801D0074862
:1048700070BD2900200001F095FA0028F7D1200032
:1048800001F020FA0028F3D0F1E7C046FD0F1A012D
:10489000030010B50400963318882100FFF75CFE72
:1048A000030000209A1C0FD0220070321188814230
:1048B0000AD0E06E7334584303F0EEFA21784B1EB1
:1048C0009941013103F0E8FA10BD000070B50025F0
:1048D0000C00A84221D01B4B1B683F331B7883423E
:1048E0001BD301281BD10B0098331888FFF734FE27
:1048F00023002200843385321B7811788634257892
:10490000821C1BD000291BD0002D06D0584303F079
:10491000C3FA290003F0C0FA0500280070BD022880
:10492000FBD10B009A331888FFF716FE23002200F4
:10493000903391321B7811789234E0E70025ECE750
:104940000D00EAE7840B0208F8B504000F00012906
:1049500032D10300817A427B04309833C66F8330B2
:104960001B8805780020814225D0824231D0180072
:104970002100FFF7F1FD184BC018184B984228D8BA
:104980006B1E9D41164B6D421D40164BED18237951
:10499000002B1AD0AE421CD3134B9E4219D82100D3
:1049A0003800FFF793FF301A464270410F4E4042E5
:1049B0000F4B3040C018F8BD0300C17A827B9A3398
:1049C0008C301B880668C579CCE7AE4201D3094B11
:1049D000E3E70748EFE7C04600F7C2FF008793030D
:1049E000C863E3FF20BCBE0080F0FA0202F0E5FEDF
:1049F000FE0F1A0180D1F008F0B504008BB000283A
:104A000001D100F0F2FF0700404EA5373368387837
:104A10003E331B78984207D300203D4B0593059DFC
:104A2000002D06D03B4D6EE005AA2100FFF742FEA7
:104A3000F5E7022820D01223FF33984245D0012801
:104A400000D071E0344B1B68002B13D01A78002A79
:104A500010D05A68A16C8A420CD19A68E16C8A42E3
:104A600008D1DB68226D934204D1230054331B78B4
:104A7000102B59D0294D46E0274B1B68002B22D024
:104A80005A78002A1FD01A69A16A8A421BD15A6932
:104A9000E16A8A4217D19A69216B8A4213D1DA6995
:104AA000616B8A420FD11A6AA16B8A420BD15A6A92
:104AB000E16B8A4207D19A6A216C8A4203D1DB6A90
:104AC000626C934230D0164D1DE0134B1B68002BD7
:104AD00018D09A78002A15D022005632D978127848
:104AE00091420FD11A6BA16D8A420BD15A6BE16DC5
:104AF0008A4207D19A6B216E8A4203D1DB6B626EC8
:104B0000934211D0074D28000BB0F0BD840B020872
:104B1000FE0F1A019F0F1A01C4070208570F1A014E
:104B2000580F1A01560F1A0101F022FA02281DD05F
:104B30006379002B1AD0D94AA36A9B18D84A9342AA
:104B400001D900F055FFE36A013B632B01D900F066
:104B50004FFF236BD34A013B934201D900F048FF3A
:104B6000636B013B934201D900F042FFA379002B14
:104B70000ED02279A36C002A00D148E2CA4A93429F
:104B800001D900F038FFE36C002B01D100F033FFB6
:104B9000A31CDB7F002B1FD02300E4331B68012BF9
:104BA00001D900F02BFF2300E0331B68BF4A5B01F3
:104BB000913BFF3B934201D900F020FF2300DC33FF
:104BC0001B68FB2B01D900F019FF2300E8331B6899
:104BD000032B01D900F012FF237B002B0ED033688A
:104BE0003E331B78002B09D0230096331888210010
:104BF000FFF796FD002801D000F003FF637B002B38
:104C00000ED033683E331B78012B09D9230098332B
:104C100018882100FFF784FD002801D000F0F4FE81
:104C2000A37B002B0ED033683E331B78022B09D9AF
:104C300023009A3318882100FFF772FD002801D065
:104C400000F0E5FEE37B002B0ED033683E331B788B
:104C5000032B09D923009C3318882100FFF760FD3E
:104C6000002801D000F0D6FE237C002B0ED0336844
:104C70003E331B78042B09D923009E33188821006A
:104C8000FFF74EFD002801D000F0C7FE637C002B2B
:104C90000ED033683E331B78052B09D92300A0338F
:104CA00018882100FFF73CFD002801D000F0B8FE75
:104CB00001F0C2FA00285DD1637A002B5AD0237B21
:104CC000002B01D100F0AFFE23009633188821009D
:104CD000FFF742FC764BC018764B984201D900F0A2
:104CE000A2FE754AA36E9B182279002A00D190E19A
:104CF000724A934201D900F096FEE36E704A013B7E
:104D0000934201D900F08FFE230070331B886D4A57
:104D1000013B9BB2934201D900F085FE2300723320
:104D20001B78042B01D900F07EFE23007433664A01
:104D30001B88934201D900F076FE230076331B785E
:104D40000F2B01D900F06FFE230077331B780F2B58
:104D500001D900F068FE230078335C491B888B4240
:104D600001D900F060FE23007C331B88934201D9F7
:104D700000F059FE33683F331B78002B13D0A37A21
:104D8000002B10D0012001F06DFB00280BD13368FF
:104D90003F331B78002B05D001212000FFF7D4FD05
:104DA000002800D04A4D33683F331B78012B00D8D0
:104DB0003FE1E37A002B00D13BE1002D00D0A2E6D9
:104DC000022001F04FFB002800D124E1237F002BBB
:104DD00000D032E1637D002B00D123E633680293DB
:104DE00040331B78002B00D11CE63D7821002800C1
:104DF000FFF7CCFC002800D014E6029B3E331B7862
:104E00009D4200D236E1334B0493049B002B00D02B
:104E100008E605AA38782100FFF7E0FB2E4B059A3B
:104E2000050004909A4200D8FCE5002800D0F9E57E
:104E30002300A8331B68002B00D1F3E52200A63223
:104E40001178264A264F53430292BB4200D9E9E526
:104E5000032900D9E6E5A37D002B43D03368403316
:104E60001B78012B3ED92300AC3318782100FFF7C3
:104E70008DFC002801D000F0A9FC2300AD331A7886
:104E800003331B6802994B43BB4201D900F09EFCDF
:104E9000032A01D900F09AFC24E0C04600DC0BFF95
:104EA000C0EA2101E703000080F0FA02D010000000
:104EB00018FCFFFF18DDF50500CA91FE80BA8C01D1
:104EC000FEFF0300FE1F0000FF010000FF1F0000A7
:104ED000BF0F1A01FE0F1A013F0D030040420F00E1
:104EE00080D1F008E37D002B1DD0336840331B7860
:104EF000022B18D92300B43318782100FFF746FCA1
:104F0000002801D000F08CFC2300B5331A7803335D
:104F10001B6802994B43BB4201D900F081FC032A74
:104F200001D900F07DFC237E002B1DD03368403377
:104F30001B78032B18D92300BC3318782100FFF706
:104F400025FC002801D000F063FC2300BD331A7853
:104F500003331B6802994B43BB4201D900F058FC54
:104F6000032A01D900F054FC637E002B1DD0336866
:104F700040331B78042B18D92300C4331878210040
:104F8000FFF704FC002801D000F05FFC2300C533CC
:104F90001A7803331B6802994B43BB4201D900F0D6
:104FA00054FC032A01D900F050FCA37E002B1ED034
:104FB000B14B1B6840331B78052B18D92300CC3329
:104FC00018782100FFF7E2FB002801D000F07EFCFA
:104FD0002300CD331A7803331B6802995943B94231
:104FE00001D900F073FC032A01D900F06FFCE37EC5
:104FF000002B52D1637F002B6FD1A37C002B00D0FC
:1050000091E0E37C002B00D0A0E09C4D7BE59C4A26
:10501000B5E59C4A6DE633683F331B78012B06D912
:1050200002212000FFF790FC002800D1CEE6964D2B
:1050300069E5002D00D1C9E665E52300D6331B786C
:10504000012B0AD0002B03D0032B08D08F4D5AE53B
:10505000E379002B00D0BDE6F8E7237AF9E7631C7B
:10506000DB7F002BF2D0336841331B78012B00D15A
:10507000B0E6EBE704AA21002800FFF71BFB88231A
:105080005B00984200D1CDE41423FF33984200D155
:10509000C8E4032800D0B8E6C4E42300D4331E7863
:1050A00021003000FFF772FB002814D12300D53314
:1050B00002931B78042B0ED805AA21003000FFF7BD
:1050C0008DFA002807D1029B059A1B78DA4013005D
:1050D0006F4A93428ED96F4D15E52300D7331B7865
:1050E000002B03D0012B05D06B4D0CE5237A002B50
:1050F00083D1F9E7237F002BF6D02300D6331B782A
:10510000012BF3D0002B0CD0032BEDD1631CDB7FE4
:10511000002BE9D0584B1B6841331B78012BE3D19E
:105120006BE7E379E3E7637D002B01D15B4DEAE4B4
:105130002000FFF767FB2300A2331978013102F04A
:10514000ABFE534B984200D85BE7EFE7637D002B43
:1051500000D15AE72000FFF755FBB84200D954E7C9
:105160002300A33302931978013102F095FE2379CD
:10517000002B0BD04A4B984200D946E7A37F002B67
:1051800006D1237D002B39D1464DBCE43C4BF2E7E0
:1051900023000222D8331B88FF32934204D022D846
:1051A000002B28D0012B24D1617D002921D002269B
:1051B000934208D03C4AB619934204D03B4A043685
:1051C000934200D0073E2000FFF71CFB2300DA3398
:1051D0001978013102F060FE310002F05DFE2C4BC7
:1051E0009842CED905E030498B42DDD02F498B4221
:1051F000DAD02F4D87E401262E48E7E7E37C002B29
:10520000C2D02000FFF7FEFAB84200D9FDE6270021
:10521000E31C0393029BA4371978261D013102F089
:105220003BFE3978013102F037FE154B9842ABD87E
:105230009621002001F0CAFD2378002B49D0637825
:10524000002B10D0E31CD87F012806D9631DDB7F1B
:10525000002B33D102F036FB32E002F08DFB002848
:10526000F4D0154D4FE4F07F022801D00528EDD190
:1052700002F0E0FBF3E7C046840B02088C0F1A0132
:1052800000E1F50500AB8704BE0F1A01AF0F1A014C
:105290000084D7178F0F1A018E0F1A018D0F1A0174
:1052A00040787D018B0F1A0101020000010300000C
:1052B000890F1A0100127A006F0F1A0102F0D4FA56
:1052C0000028CED102F052FCA378002B5BD002F074
:1052D0002BFCBE4B1B6841331B78012B09D100F01E
:1052E000D3FD631CDB7F002850D0002B01D100F0E0
:1052F000D5FD0822B64B1E68237A16404DD0002BF0
:1053000004D17B2001F00EFD00F090FD237F002BE7
:105310000ED02300D6331E7800F09CFC864207D0C6
:1053200002F03EFC002800D080E3300000F084FC56
:105330000122A84BA849C858A31CDB7F104203D008
:10534000A648095811424FD1002B51D002F008FD58
:105350002300E8331968043B186808331B682200EF
:10536000DBB200932300DC32E033C9B2C0B21B6869
:105370001268FCF785FE00283AD0994B984237D046
:10538000984DFFF7C0FB02F0DFFBA2E7002BB0D087
:1053900002F0E6FC00F062FDABE7002BB6D002F0B5
:1053A000DFFCA06D00280FD0E36D002B0CD0330084
:1053B0003200216E0096FDF7B5F9009633003200F9
:1053C000616EE06DFDF7AEF92300563318780028C2
:1053D00000D0012000F032FD834800F009FD0028D4
:1053E00094D0824DFFF78FFB002B01D1FCF7FCFD21
:1053F00000F0BEFD637902283ED1002B01D100F000
:10540000ABFDA379002B0ED0E06C002808D0230060
:1054100054331B7808220093216D0023FDF782F995
:10542000A06C00F08FFDA37C002B04D02300A233DE
:10543000187800F035FCE37C002B03D0029B187831
:1054400000F012FC237D002B02D0387800F038FBEE
:105450002600122796363388FF37BB4249D12300F6
:10546000A5331978002944D1012000F06BFE0028F3
:105470002BD05F4DFFF747FB002BC2D002F070FC32
:10548000A06B002810D0E36B002B0DD00026216C00
:10549000330032000096FDF745F9009633003200E4
:1054A000616CE06BFDF73EF9636B226BE16AA06A09
:1054B00000F06CFD002802D04E4DFFF724FB4E4853
:1054C00000F002FE00289CD0F6E7012100F042FC2B
:1054D00000280BD1237B002B14D03188002000F052
:1054E00031FE00280ED0454DFFF70DFB444DFFF770
:1054F0000AFB230098331988012000F023FE0028BE
:10550000E8D0B6E7A37B002B0AD023009A33198892
:10551000022000F017FE002802D03A4DFFF7F3FA00
:10552000E37B002B40D1237C002B71D1637C002BCB
:1055300000D080E000F080FE637A002800D08DE08B
:10554000002B00D193E002F00BFCE36E05A805935D
:10555000230070331B888380230072331B78837190
:10556000230073331B78C371230074331B880381BA
:10557000230076331B788372230077331B78C37242
:10558000230078331B88838123007A331B7883734D
:1055900023007C331B88038200F07EFE002863D149
:1055A000194800F003FF5DE0084B1B683E331B7891
:1055B000032BB8D923009C331988032000F0C2FDC7
:1055C0000028B0D0114DFFF79EFAC046840B0208A8
:1055D00000002740A0F0010000003C40B4F00100B2
:1055E000030016005D0F1A0140420F005A0F1A0106
:1055F0004E0F1A015F0F1A01B80B00004F0F1A016E
:105600000F0F1A014D0F1A01400D03004C0F1A0124
:10561000B54B1B683E331B78042B00D886E723006C
:105620009E331988042000F08DFD002800D17DE70D
:10563000AE4DFFF768FAAC4B1B683E331B78052B69
:1056400000D877E72300A0331988052000F07AFD01
:10565000002800D16EE7A64DFFF755FA002B06D1C2
:1056600000F0FCFD002802D0A24DFFF74CFA230009
:10567000A53302931978002000F06CFB002800D0BD
:1056800034E72300A633197800F08CFB002800D003
:105690002CE73388BB4217D0934F3B683F331B78CE
:1056A000002B75D0012000F0DDFEA37A00281CD06D
:1056B000002B38D102F054FB012000F0E7FE002857
:1056C00031D08D4DFFF71FFA029B1B78002BE3D1E1
:1056D000637B002B00D1CCE623009833198801208E
:1056E00000F030FD0028D7D0C3E6002B1BD02300EC
:1056F00084331B7805AE3370230085331B787370B9
:10570000230086331B78B370230087331B78F37034
:10571000230088331B78337102F022FB3100012013
:10572000FFF78AF8CBE73B683F331B78012B2FD973
:10573000022000F097FEE37A00280BD0002B27D13F
:1057400002F00EFB022000F0A1FE002820D06B4DDD
:10575000FFF7D9F9002B1BD0230090331B7805AE3F
:105760003370230091331B787370230092331B78BE
:10577000B370230093331B78F370230094331B78AA
:10578000337102F0EDFA31000220FFF755F8DCE743
:10579000012000F0B1FAA37D00281AD0002B10D010
:1057A000022000F0A9FAE37D00281DD1002B1DD0B6
:1057B0002300B5331A78013B19780220FFF750F81F
:1057C0002CE0012000F0AAFA0028E9D04C4DFFF7A8
:1057D0009AF9002BE4D02300AD331A78013B1978F5
:1057E0000120FFF73DF8EFE7002B14D03B68403372
:1057F0001B78032B17D9032000F07EFA237E0028A4
:1058000026D0002B0FD1032000F088FA00280AD000
:105810003C4DFFF778F9022000F080FA0028E5D02F
:10582000394DFFF770F93B6840331B78042B1AD9C8
:10583000042000F061FA637E00282FD0002B12D1E3
:10584000042000F06BFA00280DD0304DFFF75BF913
:10585000002BE8D02300BD331A78013B19780320D0
:10586000FEF7FEFFD2E73B6840331B78052B20D8BC
:1058700000F0CCF9A37F00284CD1002B4ED02300A0
:10588000D8331F889E7800F0CBF9380000F08EF9ED
:10589000300000F09FF900F0ADF93FE0002BE2D0BE
:1058A0002300C5331A78013B19780420FEF7D8FF8E
:1058B000C9E7052000F020FAA37E002809D0002BBC
:1058C000D6D1052000F02AFA0028D1D0104DFFF7DC
:1058D0001AF9002BCCD02300CD331A78013B19786C
:1058E0000520FEF7BDFFEFE7840B02084B0F1A01FE
:1058F0004A0F1A013F0F1A012F0F1A012E0F1A011A
:105900009E0F1A019C0F1A019D0F1A019B0F1A017D
:105910009A0F1A01002B01D100F082F900F020F952
:10592000E37E002819D0002B01D100F023F9637F1A
:10593000002B04D02300D733187800F027F9230078
:105940003C4F55331E783B78B3421BD002F028F908
:10595000002813D0384DFFF7D6F8002BE7D02300EE
:10596000D4331F785E7800F005F9380000F0C8F8ED
:10597000300000F0D7F800F0E7F8D8E7300000F08A
:10598000D3FA3E7000F0B0FAE379002820D0002B63
:105990000ED1A32001F0C6F900F0A6FA002807D026
:1059A00002F0FEF80028D5D100F0A8FA0028D1D1E5
:1059B0002378002B08D0637D002B05D02300A8336B
:1059C0002079196801F002FA02F0CAF9FFF79BF892
:1059D000002BEDD000F088FA0028E9D102F0E0F8C1
:1059E0000028B7D100F074FAE2E7144DFFF78BF806
:1059F000134DFFF788F8134DFFF785F8124DFFF7A9
:105A000082F8124DFFF77FF8114DFFF77CF8114D2A
:105A1000FFF779F8104DFFF776F8104DFFF773F8A0
:105A20000F4DFFF770F80F4DFFF76DF80E4DFFF7B4
:105A30006AF8C046C80702085C0F1A01FE0F1A0177
:105A4000EF0F1A01EE0F1A01ED0F1A01DF0F1A0105
:105A5000DE0F1A01DD0F1A01DC0F1A01DB0F1A012C
:105A6000DA0F1A01CF0F1A011F0F1A01F0230A04CF
:105A70001B0330B51A400F240B0023401A43084B78
:105A80001D68830228691B188020C0011A5018580D
:105A90002040401A411E884102494042084030BD22
:105AA000840B02080300C200044B10301B68800204
:105AB0001B69C0580F2318407047C046840B02086A
:105AC000064B00021B68190088311A680B680449EC
:105AD000D21813680B40184310607047840B0208FB
:105AE000FF00FFFF054B1B681A0088321B68126815
:105AF0009B181868000AC0B27047C046840B0208A1
:105B000010B5A022F0240549D200240100028B58D0
:105B10002040034C23401843885010BD000026400D
:105B2000FFF0FFFF10B5A022E0240549D200E401F8
:105B300000038B582040034C23401843885010BD6D
:105B400000002640FF8FFFFFA02280230349D200E0
:105B500088581B0203438B507047C0460000264004
:105B6000A023034ADB00D0580004C00F7047C04692
:105B700000002640A0220349D2008B58024803406F
:105B80008B50704700002640FF7FFFFFC021054A71
:105B9000890000021368084003490B401843106055
:105BA0007047C04600002740FFFCFFFF0549064A3A
:105BB00010B58B58054C2340054C204018438850A5
:105BC00010BDC0460000264004050000FEFCFFFF9B
:105BD000010300000449054A10B58B58044C000429
:105BE00023401843885010BD0000264004050000E3
:105BF000FFFF00FF80230349034A1B068858034325
:105C00008B5070470000264004050000024A034BF9
:105C1000D058C00F7047C046000026400405000061
:105C20000349044A8B585B005B088B507047C046A1
:105C30000000264004050000A02210B503240449FA
:105C4000D2008B582040A3431843885010BDC04653
:105C500000002640A023034ADB00D058032318404D
:105C60007047C04600002640064B00061B6819001E
:105C700088311A680B68D21813681B021B0A184374
:105C800010607047840B0208044B1B681A008832AE
:105C90001B6812689B181868000E7047840B020876
:105CA000064B00021B6819008C311A680B68044906
:105CB000D21813680B40184310607047840B020819
:105CC000FF00FFFF094B1B6840331B7883420BD951
:105CD000074BE0228000C0188023920081581B06E9
:105CE0000B438350002070470248FCE7840B0208F6
:105CF0000000264001004A00064A03001268002006
:105D0000403212789A4204D9E033034A9B009858F3
:105D1000C00F7047840B020800002640002810D0F6
:105D2000094B1B6840331B7883420AD9E022074B9A
:105D30008000C018920083585B005B0883500020ED
:105D400070470348FCE7C046840B02080000264069
:105D500001004A0010B50B4B1B6840331B7883428F
:105D60000DD90F290BD8E0220F24074B8000C01853
:105D700092008358A34319438150002010BD03486B
:105D8000FCE7C046840B02080000264001004A00E0
:105D9000034BE0308000C0580F2318407047C046C6
:105DA0000000264010B50B4B1B6840331B78834224
:105DB0000ED903290CD8E0223024074B8000C018EC
:105DC000920083580901A34319438150002010BD5C
:105DD0000248FCE7840B02080000264001004A004C
:105DE000024B18694007C00F7047C04600002740AB
:105DF000082310B504000B4A11680B431360FFF72A
:105E0000EFFF002808D1002C01D1074810BD012068
:105E100000F088FF013CF2E760426041024C4042E2
:105E20002040F3E70000274002004A000821024A10
:105E300013688B4313607047000027408021054A98
:105E4000490200041368084003490B4018431060DE
:105E50007047C04600002740FFFFFEFF802370B55B
:105E6000074D084C1B062A59012013432B5100F003
:105E70003FFFC0232A59DB0513432B5170BDC04699
:105E8000000026403C050000024A034BD058800029
:105E9000C00F7047000026403C0500000349044A3B
:105EA0008B58DB00DB088B507047C0460000264053
:105EB0003C0500000449054A80058B58800D9B0A6B
:105EC0009B02184388507047000026403C050000A4
:105ED00080230349034A1B06885803438B507047AD
:105EE000000026400C050000024A034BD058C00FAA
:105EF0007047C046000026400C050000C023074A3A
:105F00005B00D058803BFF3B184005D104495358F3
:105F10005B005B08535070470248FCE700002640D6
:105F20000C05000003004A0010B501240349044A8F
:105F30008B58A3431843885010BDC046000026402C
:105F40000C050000024B984201D8024B18607047C4
:105F500000E1F505D40702080349044A8B585B00A9
:105F60005B088B507047C046000026402C0500009F
:105F7000A6220549D2008B580220DB439B0702D0A2
:105F8000012388581840704700002640F0B51600DD
:105F90001F003B4A3B4B0C00D15885B00290019248
:105FA0000393002967DB3849384A4318934264D881
:105FB000631E632B61D8364A731E93425DD8354AFF
:105FC0007B1E934259D8FA21F5308900FF3001F049
:105FD00063FF05003048310047437008381801F06E
:105FE0005BFF80228446102300201202010011432F
:105FF0000F004F43BC4500D30800013B5208002B63
:10600000F4D12900254B614358434B08C01801F0D7
:1060100043FF234B984230D96D43224B2249E81865
:1060200001F03AFF644360436421323001F034FFF1
:106030001E49704301F030FF03281ED8012801D803
:10604000012358401A4A019B1A499B5800031940E2
:10605000194B0B431843019B03999850019B039ADA
:1060600000209A5802231343019A5350134B029A6B
:106070001A6005B0F0BD1248FBE71248F9E7C046C8
:10608000000026402C05000000DC0BFFC0EA2101C7
:10609000E7030000CF07000080841E00B36D0200FC
:1060A000890200005DF70000BBEE0100A0BB0D00FF
:1060B00020FF000008C0FFFFF7030000D807020818
:1060C00003004A0001004A00F8B5144C144D0700C3
:1060D0006359002B1FDB8023060062591B06134304
:1060E0006351FFF745FF02280AD0002E03D130008C
:1060F000002F0FD009E0012000F014FE013EF0E770
:10610000381E07D00020864204D1635905485B0041
:106110005B086351F8BD0448FCE7C0460000264018
:106120002C05000002004A0003004A0010B5FFF7EA
:106130001FFF0023022801D1014B1B68180010BD6E
:10614000D8070208104B1B683E331B78834219D9CD
:10615000042910D94B1EFF3B132B13D81F231940C2
:106160000A4B8000C018C02304229B00C15040335A
:10617000C250002070470723D0301940034B8000E5
:10618000C150F6E70248F5E7840B020800002640FC
:1061900001004A00094A83009B18D02292009858B7
:1061A00007221040042807D1C022920098581F23CC
:1061B00003408020400018437047C046000026403E
:1061C00010B5FFF7E7FF03281CD005D8012816D02B
:1061D00023D9FFF7ABFF10BD1223FF33984213D032
:1061E0001423FF33984215D0033B984210D10C4A38
:1061F0000C4BD358002B0BDA80200002EBE70A4B44
:106200001868E8E7094BFBE7FFF7EAFD0028F3D140
:106210000020E0E7024A064BEBE70648DBE7C04612
:10622000000026400C050000D4070208740B020889
:106230003C05000000127A00B023024ADB00D0586F
:10624000C00F704700002640B223034ADB00D0583D
:10625000012318407047C04600002640B1200B4B78
:10626000C0001A580A491140802292050A43B02101
:106270001A50C9005A580020520052085A50054975
:106280005A58520052085A507047C04600002640E3
:10629000FFFFFFCF8C05000070B5B024224AE40058
:1062A0001359002B3DDBC17903684D1EA9419B03A7
:1062B00009069B0B0B431351038984881B491B045C
:1062C000E4040B40E40C2343194C1A4D1351FF24F2
:1062D000C37AE0261B0123408489F60024022C4067
:1062E0000F252343847A2C40C0252343847BAD05AE
:1062F00024072C402343B124E400135183790E4C2E
:106300001B02155933400D4E35402B431351038A60
:1063100000201B0415590B40094929400B43135118
:1063200070BD0848FCE7C046000026400000FF01A1
:106330008405000000FF1F008C050000FFF8FFFF30
:10634000FFFF00FE03004A00B023154ADB00D358CC
:1063500010B59903DB01DB0F890BC371114B016091
:10636000D3580F24D904DB01DB0D0381B123DB00FB
:10637000D358C90C8180190021408172190921402C
:10638000C172D9029B009B0F8373074BC90CD35872
:1063900081815A05DB01520FDB0D8271038210BD32
:1063A00000002640840500008C050000F8B580231D
:1063B000060005000427264C264A1B06A1580B435D
:1063C000A350B223DB00E3583B4201D1002D1FD183
:1063D000B121C9006358204A1A4080239B0513430A
:1063E0006350002E01D0002D06D0B0228023D200B1
:1063F000A1581B060B43A350FFF726FF002811D11D
:10640000002D0AD1002E11D0FFF728FF1348F8BD48
:10641000012000F087FC013DD3E7012000F082FC61
:10642000013DE9E7002E01D0002DEDD0B122C023BF
:106430000020D200A1589B050B43A3508642E6D012
:10644000681E85416842064D044B2840C018DEE7AF
:10645000000026408C050000FFFFFFCF02004A002D
:10646000FEFFB5FF8030034BFF308000C058C00FE7
:106470007047C046000026409030034BFF3080003C
:10648000C0580123184070470000264070B50E4BDD
:106490001B683F331A78431E9A4213D90B4B0C4D9D
:1064A0008000C41863590B4A01201A4080239B05C1
:1064B0001343635100F036FC002063595B005B0816
:1064C000635170BD0448FCE7840B020800002640BD
:1064D000FC050000FFFFFFCF01004A00F0B5204B94
:1064E0001B683F331B78834233D31E4B80001E4C06
:1064F000C0180359002B2ADB8E78B31E0E2B28D828
:106500004F787B1E112B24D80B78CD789C46002D1C
:1065100021D1152B1DD970239C451AD80A79022A3E
:106520000AD07F23614619400B003F023B433604EB
:106530003343ED062B430351C0211207890503594C
:106540000A400A490B401A4302510020F0BD084896
:10655000FCE70848FAE7122BFBD93823DCE7C046F2
:10656000840B020800002640FC050000FFFFFFCF5F
:1065700003004A0001004A0010B5104B421E1B6880
:106580003F331B78934216D97F221F248030FF307F
:106590000B4B8000C3581A400A701A0C2240180A8C
:1065A0008A701A012040E240487000209B009B0F37
:1065B000CA700B7110BD0348FCE7C046840B02088B
:1065C0000000264001004A00F8B5214B0F001B686F
:1065D0003F331A78431E9A4237D91E4B8000C418A5
:1065E00080230E001C4D1B06625913436351012288
:1065F0001A4BE358134218D1002E11D1002F18D096
:106600006359174A01201A4080239B0513436351A5
:1066100000F088FB635913485B005B08635113E08B
:10662000012000F07FFB013EE1E7002F01D0002EAA
:10663000E6D0635900209B009B0F022B04D1C0239E
:1066400062599B0513436351F8BD0748FCE7C046F8
:10665000840B020800002640FC0500003C060000F8
:10666000FFFFFFCF02004A0001004A000022F8B5F8
:10667000234B1A70234B1B681A00BA321488072266
:1066800062431B6AD2181368002BFCDA1E4B1F4CA6
:106690001D680023A54206D11D4B1E4C1B681B190B
:1066A0005C426341DBB2A4241B4DE4002F5900255A
:1066B0005560AB4215D03F023E0AAE4211D0174B97
:1066C0001C68A8420FD122002B000800290001F00D
:1066D0008FFC2B007A0A80185941320001F068FCC7
:1066E00005002800F8BD32002B000800290001F049
:1066F0007FFC2B006208801859412200EEE7C0465B
:10670000D0070208840B0208080126401F1F000062
:1067100004012640C3C2FFFF00002640CC07020848
:10672000F7B5484B00911500984200D987E09A428E
:1067300000D984E0444B994200D980E00122434BC8
:106740001A70FF2845D80F2307261C001840FF2D7C
:1067500058D8FF222D0115402843F025E0222C4374
:10676000F025D20232432D032B43394D07262F68E3
:106770003D00BA352D886E43350001963E6AAD194D
:106780002E68002EFCDA334D2E78334D002E03D0C8
:10679000324EAE59002E50DA314E32493160324E0F
:1067A00032493160A321C9006E58A6430643304CDC
:1067B0006E5028599843024300202A512D4B009ACD
:1067C0001A60264BEA503B6A019AD31800225A609D
:1067D000FEBD294B984205D80F231840060000241F
:1067E0002000B4E7254B060A984204D8FF23040191
:1067F0001C402643F3E7F02300021B011840064328
:106800001F4BECE71C4A954205D82A04F0252D03BE
:106810002A403243A8E72A0A12043243174EB542EF
:1068200007D8F0262D05360435402A43FF252D04D0
:106830009AE72D062A43134D96E71348C3E71248FB
:10684000C6E7C0460F060000FFFFFF00D0070208A2
:10685000840B0208DC070208000026401C0500002B
:10686000080126401F1F0000040126403D3D000096
:1068700014050000CC070208FF040000FF0500001B
:106880000F0F000000000F0F01004A00F8B5144B75
:10689000984219D90027134BC018F6213F23124DF7
:1068A000124CF6302E5949001E4001F0F5FA321A0A
:1068B000002F00D032183F212B590A408B4313433D
:1068C0002B51002F09D0F8BD094B984204D8EE3364
:1068D000FF33181A0127E0E700204042F3E7C046E3
:1068E000EC8100000080FFFF0000264018FF000040
:1068F000137E0000F7B5092600270122B240FA20D6
:10690000154D164C3A432B59C0009B0A9B022B5144
:106910002B59019213432B5100F004FA0422402119
:10692000FF320820FFF7FCFE2B000D495A58002AC1
:10693000FCDAA422D200AA580A491202120A8A4298
:1069400000D9019F013ED8D21A59920A92021A51D7
:106950001A5917431F51F7BD000026403C0500009F
:106960001C050000127A000004220820F0B5274C14
:10697000274D85B06359274E9B059B0D0393264BEE
:10698000FF321B68D42102933060FFF7C9FE234B0E
:10699000E258002AFCDA02990020FFF767FE082778
:1069A00001908021FA2063596259C9039B055B1845
:1069B000920A92029B0D1343C000635100F0B2F99A
:1069C0000422D421FF320820FFF7AAFE134BE3581C
:1069D000002BFBDA02990020FFF748FE3368019A8A
:1069E000013F9B1A1B1833600190002FD9D1FA2068
:1069F000DB0833606359039A9B0A9B02134363517C
:106A0000C00000F08FF905B0F0BDC0460000264080
:106A10003C05000034010208740B02081C0500004C
:106A2000F0B589B003AC14220021200002F047FC2D
:106A30002000FFF789FCB0231A4ADB00D25800235C
:106A40009A4203DAA37B023B5A1E9341E579002662
:106A50006A1E95410135B34221D0A488B4421ED0AC
:106A6000039B30000193FFF7ABFB2A0033000700C4
:106A70003100200001F0BCFA0C0005003300019A3F
:106A80003100380001F0B4FAE6076A0832436308BF
:106A9000801859412A00230001F08AFA06003000CC
:106AA00009B0F0BD00002640F0B50026244B85B0AB
:106AB0001B6807003F331B78B3423ED0B0423CD046
:106AC00083423AD30522310002A802F0F8FB02A962
:106AD0003800FFF751FD3B008033FF33194A9B001C
:106AE0009B58B34229DA02AB1B79022B25D002ABAB
:106AF0005C78B44221D09D78B5421ED01B78380016
:106B00000193FFF75DFB2A003300070031002000EE
:106B100001F06EFA0C0005003300019A31003800D4
:106B200001F066FAE6076A083243630880185941A3
:106B30002A00230001F03CFA0600300005B0F0BD49
:106B4000840B02080000264010B5041E04D1FFF794
:106B500067FF002806D008E0064B1B683F331B7810
:106B6000834203D22000FFF72BFB10BDFFF79CFFF1
:106B7000EFE7C046840B0208E02210B50124094B60
:106B800080009200C018835880589B069B0F9C4041
:106B90000F231840FFF7D8FF63081818210001F0F1
:106BA0007BF910BD0000264010B50020FFF7E4FF80
:106BB0000400FFF769F8411C4808001901F06CF95E
:106BC00010BD10B5FFF7F0FF0400FEF78BFF411C6E
:106BD0004808001901F060F910BD0000144B30B5F1
:106BE0001A68072413002C331B781F2B15D8830831
:106BF0001D00A5432C1E0FD103342040A04081402E
:106C000012689B002032D3180A00FF2181401C68C3
:106C1000624011406140196030BD802320401B0656
:106C2000184380239B011268C91889008850F3E734
:106C3000840B0208064B9A680300064810339B0039
:106C4000824202D1985899507047034AD058FBE7C6
:106C500000ED00E00000020800040010F8B5060096
:106C60000D0000283AD00023C05E002828DBB17850
:106C7000FFF7B4FF0024FF22032794460023F05EB1
:106C8000716883B21F40FF006646BA4089013140F7
:106C9000D243B940002815DB114E83089B009B1995
:106CA000C026B6009F593A40114399510D4B9A683E
:106CB0000D4B9A4202D12900FFF7BCFF2000F8BD1E
:106CC0000A4CD8E70F263340083B064E9B089B0032
:106CD0009B19DE6932401143D961E7E7034CEDE7C8
:106CE00000E100E000ED00E00000020801005600B5
:106CF00070B5802504002D02AC4205D8064B1868FB
:106D00006043F9F701FC70BD044B1868F9F7FCFB10
:106D1000034BE418F0E7C0464801020844010208AA
:106D20000080FFFF10B5034B1B785843F9F7ECFBCD
:106D300010BDC0464C0102088022054B12069A6421
:106D4000986C044BC043C0171840034BC0187047E1
:106D500000002740FDFFB9FF0300460080220C4BD6
:106D6000120198585A68D2B2002A02D08022D20268
:106D70001043084A995889B2002902D0802149025B
:106D800008439B581B0C02D080239B02184370477A
:106D90000000264004080000FEE7000002680A4BDD
:106DA00010B51A6042685A6082689A60C268DA60F8
:106DB00002691A6142695A6182699A61C269DA613B
:106DC000FFF7EAFF10BDC04668060208F0B51922B9
:106DD000002800D14B322A4B8A4292411B68524212
:106DE0001C00AC3424881D68671903253E68AE4337
:106DF00016433E601E68A4192768224E374027605C
:106E00001C00AE3424881E68A7193E68AE43324386
:106E10003A601A681B4EA2181468264016600028B3
:106E20000ED00020102904D92130884280414042F0
:106E300001300F225B681968914308431860F0BD68
:106E40001A00553212788A42F3D21A00563212785A
:106E500001208A42EDD21A005732127800188A4275
:106E6000E7D21A005832127828008A42E1D21A007A
:106E7000593210788842804140420430D9E7C046F8
:106E8000840B0208FFFCFFFFB0235B055A7821202A
:106E9000002A01D05878C0B27047B0235B059A89A8
:106EA000002A02D0988980B2704780204000FBE71A
:106EB00070B5FFF7F2FF8023194A5B00984215D1A5
:106EC00011680F240B0002229C3318680B681818F5
:106ED0000368A343134303600800A0300B680168F4
:106EE0005B181968A1430A431A6070BDB024126888
:106EF0000C4B11006405E3580B4D9C312B40C02511
:106F000010680968AD0041180868284003430B6009
:106F10001100A03113680A689B18044AA258E3E7DD
:106F2000840B020848180000FFFCFFFF4418000013
:106F300070B5FFF7B2FF8023154A5B0098420DD170
:106F4000136814491A009C3212681B689B181A684F
:106F500011408022D2010A431A6070BDB024126829
:106F60000D4B11006405E3580C4D9C312B40C0259E
:106F700010680968AD0041180868284003430B6099
:106F80001100A03113680A689B18054AA258E3E76C
:106F9000840B0208FF8FFFFF50180000FFFCFFFF6B
:106FA0004C18000010B5FFF778FF8023124A5B00F1
:106FB00098420DD1136811491A009C3212681B685F
:106FC0009B181A681140C022D2010A431A6010BDF2
:106FD000B02112680A4B4905CB58110009489C3171
:106FE0000340C020096812688000521811680140EF
:106FF0000B431360EBE7C046840B0208FF8FFFFFD3
:107000001C180000FFFCFFFF70B5FFF746FF802350
:107010001A4A5B00984215D111680F240B00032215
:107020009C3318680B6818180368A3431343036064
:107030000800A0300B6801685B181968A1430A4377
:107040001A6070BDB02412680D4B11006405E3583E
:107050000C4D9C312B40C02510680968AD004118CB
:107060000868284003430B601100A03113680A68C8
:107070009B18C1225201A258E2E7C046840B0208C5
:1070800024180000FFFCFFFFF8B51E4FC0253B6829
:107090002D011A009C321B6812689B181E68FFF7AE
:1070A000FCFE340080232C405B0098420ED100206F
:1070B000FEF7FAFC0400FFF7E7FE01221300222886
:1070C00001D86342634113401800F8BD3B680E4F7E
:1070D00019009C311A68086812181068384010604E
:1070E0001A680868121828001768B04338431060FF
:1070F0001B680A689B1818682840001B431E9841AB
:10710000C0B2E2E7840B0208FFF3FFFF0200002099
:10711000824202D1094B5869C00F094B1B684733A3
:107120001B78002B09D0012A07D1044B1000996964
:10713000490001D49869C00F1040704700002640F4
:10714000840B02087FB5274B86000D00F4580429F4
:1071500001D0012927D100200FE0A3682B420BD1D9
:10716000E36829001A685B6802920193039302A8FE
:10717000236898471C4B1C606469002C0BD01B4B88
:107180009842EAD1012DE8D1174B18481A68184BDC
:107190009A5104B070BD012DFBD1144B9842F3D02D
:1071A000134B9C51F5E7022906D10F4B1B68181EA3
:1071B000EFD01C6903E01C006369002BFBD10020A9
:1071C000002CE6D0A3682B4209D1E36829001A6895
:1071D0005B6802920193039302A82368984724698D
:1071E000EEE7C046200802081C080208FF00420023
:1071F0000808020870B5F9F790F9E821064B074D29
:107200005C6889012C40214359605A682A405A60C1
:107210005B68F9F786F970BD00002640FF00FC0F9F
:1072200070B50400FFF730FE85B2FFF736FE0600AA
:107230000020FEF739FC80235B00002811D19E421C
:1072400011D1222D0FD880251E4B6D041B682406FA
:1072500059681D4B2C40CA581C4D2A401443CC5031
:1072600070BD9E4228D0174A1268156A9E420ED100
:1072700062426241FF2352429A43154BD2180121C8
:107280002800FBF785FA002808D01248E8E7624298
:107290006241012352429A430F4BEFE7094B1B68AF
:1072A000BC331B68EB181A68002AFCDBEB68002073
:1072B0001B0EA02BE9D1D3E7222DE6D9014B1B6889
:1072C0001D6AD5E7840B020818F00000FFFFFFFEDF
:1072D00001010030040042000300000C70B50500FD
:1072E000FFF7D2FE002834D0F9F717F90600022D77
:1072F00017D10120FFF794FF041E0DD1FFF7D8FD31
:10730000072215494B6993432A4013434B61022DD1
:1073100015D1FFF747FE00243000F9F702F92000ED
:1073200070BD07220C4934204B6993431A00032394
:1073300013434B61FFF7F6FCFFF7FAFDE0E79120FE
:10734000FFF7F0FCFFF760FE0020FFF769FF040085
:10735000E2E7024CE3E7C04600002640030042009B
:107360001A4B1B68190088311A6809685118096896
:10737000016219008C3109685218126842621A00C1
:1073800046321278002A1FD09A68E0321268D2067C
:107390001AD5F222DB68D2019A580260F022D2019B
:1073A0009A5842600A4A9A5882600A4A9A58C260B9
:1073B000094A9A580261094A9A584261084A9A58F9
:1073C0008261084A9B58C3617047C046840B02081B
:1073D00004780000087800000C78000010780000A5
:1073E00014780000187800001A4B1B681A008832C5
:1073F000196812688A18016A11601A008C321968BB
:1074000012688A18416A11601A0046321278002AFE
:107410001ED09A68E0321268D20619D5F02241686F
:10742000DB68D201995081680B4A9950C1680B4AB8
:10743000995001690A4A995041690A4A99508169EB
:10744000094A9950C169094A99500168E83299502E
:107450007047C046840B02080478000008780000DA
:107460000C780000107800001478000018780000F4
:10747000F7B50700FFF708FD664D06006B68002BA7
:1074800000D07DE0F9F749F86B680090002B00D040
:1074900089E0614C22681300BA33198807234B43F3
:1074A000126A9B181A68002AFCDADB68DA0021D518
:1074B0001B0F1B0759480193FFF752FF5849212E14
:1074C00000D075E022689020130088331C68136890
:1074D00000011C1923680B400343236013008C3305
:1074E00012681B68D3181A681140084318604B4B88
:1074F000019A13438022484E9205316813430A00D3
:10750000BA321088072200244243096A5218D36015
:1075100054605368FFF7C1FC80235B0098425DD143
:10752000380002F0B9F832681300BA33198807231B
:107530004B43126A9B181A68002AFCDADF68FB00CA
:1075400003D538010009FFF74FFF364B32681F4063
:107550001300BA33198807234B43126A00989B180B
:107560000022DF605A60F8F7DCFF002C0FD16B6857
:10757000002B03D008210120FFF7E4FD2000FEBD11
:1075800001210800FFF7DEFD041E00D17AE76B68D9
:10759000002B03D002210120FFF7D4FD224B9C4297
:1075A000ECD0224CEAE704210120FFF7CBFD70E785
:1075B00020688022030088331C68036852001C196D
:1075C00023680B401343236003008C3300681B685F
:1075D000C318186801400A431A6088E733681A0024
:1075E000BC32196A126852181168002910DBBA33CC
:1075F0001B889A181368002B0ADB04230C4A1169B4
:107600000B431361012F01D030BF8CE720BF8AE705
:10761000054C88E720080208840B0208E0070208EE
:10762000FF00FFFFFFFFFFDF05004200FF004200F9
:1076300000ED00E010B5002810D108292BD8174B19
:1076400089001C682300B4331B8824681B1959184F
:1076500003231340124A1A430A6010BD01280DD1BA
:107660000E4B19680B00B63309681B885B180321A1
:1076700011400B4A0A431A600020EEE702280AD1A3
:10768000064B19680B00B83309681B885B18032187
:107690000A400349EEE70348DFE7C046840B0208CF
:1076A0000000FA050100420010B5002811D1184B66
:1076B0001A681300B4331C8803230B40154919437F
:1076C0001368E3181B18043019602428F8D100202F
:1076D00010BD01280CD10E4B1A681300B633126886
:1076E0001B889B1803220A400A4911431960EEE7E0
:1076F00002280AD1064B1A681300B83312681B8897
:107700009B1803221140034AEFE70348E0E7C04615
:10771000840B02080000FA0501004200024B586980
:107720004000C00F7047C0460000264010B50D4B0A
:107730001B6847331B78002B12D0FFF7EFFF0A4B73
:10774000002804D180225969D2050A435A61802257
:107750009620996912060A439A618000FFF7E2FABF
:1077600010BDC046840B0208000026400020064BD6
:107770001B6847331B78834203D0044B9869072367
:107780001840C0B27047C046840B02080000264073
:1077900070B50D4B04001B680D0047331B78002BA0
:1077A00011D0FFF7E3FFA0420DD0072207498B69F4
:1077B0009343224013438B61002D04D0A04202D298
:1077C000C820FFF7AFFA70BD840B02080000264006
:1077D000054B1B6847331B78002B04D0034A936981
:1077E0005B005B0893617047840B02080000264031
:1077F00010B50400FFF792FF0A4B1B6847331B7854
:10780000002B09D0002807D0074B002C05D0802280
:107810009969D2050A439A6110BD9A6903490A40E1
:10782000F9E7C046840B020800002640FFFFFFBFB7
:10783000074A084BD058B022E8235205DB00D35C3E
:107840001F221040C01A431E9841C0B27047C04664
:10785000000026401CFF00000120024B1B68DB0DCE
:10786000984370470000264010B5114C23689B06D2
:107870001CD5FFF7F1FF2268002813D00D4B1343EE
:107880002360FFF7D5FF012802D150220A4BE250B6
:107890000120FFF747FA802300202268DB0513430D
:1078A000236010BD054B13432360F1E70448F8E75C
:1078B0000000264000000417307F0000000004167E
:1078C0000400420010B5FFF7C7FF184C23680028DA
:1078D0000DD0174A134023600820FFF723FA6423D2
:1078E0002268002A07DB002B03D1124811E0124A5C
:1078F000F0E7013BF4E7002BF7D023680F4A0120A3
:1079000013402360FFF70EFAFFF7A6FF002801D10E
:10791000002010BDFFF78CFF0128F9D1B022084BE1
:107920005205D258074BE250F2E7C046000026400D
:10793000FFFFFBAC02004200FFFFFBADFFFFFFFBC0
:1079400010180000307F000010B5FFF785FF431EC0
:107950009841802340425B041840054BC018054BFA
:107960001B680340181A43425841C0B210BDC046BC
:107970000000045200002640F7B50700FFF784FB23
:10798000002848D0F8F7C9FDB0240190234D244EBB
:107990006405002F1CD1E823AF51DB000120E45C1B
:1079A000FFF73EFCE4B2061E0DD1FFF781FA1F215E
:1079B0001C4A0C40AB588B431C43AC50002F20D1C9
:1079C000FFF7F0FA3E000198F8F7ABFD3000FEBD7E
:1079D000FFF7BAFF5023002801D1134BE3581F22B1
:1079E000AB511049114B0320E45C6B58E4B2934354
:1079F0001A000B2313436B50FFF794F9FFF798FA23
:107A0000D5E70720FFF78EF9FFF7FEFA0020FFF712
:107A100007FC0600D7E7064ED8E7C0460000264020
:107A2000307F00001CFF000010180000410700001C
:107A300003004200F8B50500FFF70EFF002857D0FD
:107A4000F8F76BFD0600022D3CD1FFF7F1FE002890
:107A50002ED11F222C482D49435893431A000B2343
:107A6000134343500920FFF75DF9E023264FDB0362
:107A70003A68E120134307223B607B69154093433A
:107A80001D4380237D617A69DB0513437B6180237D
:107A90007A691B0613437B618000FFF743F980235B
:107AA00000243A681B0413433B60194BFC5004E06C
:107AB0000020FFF761FF041ECBD03000F8F731FD46
:107AC0002000F8BD052D11D1FFF7B2FE012807D126
:107AD0001F220D480D49435893431A001B23BFE74B
:107AE0000120FFF749FF041EF2D0E6E7094CE4E766
:107AF0000722054B04005B6913409D42E0D028003B
:107B0000FFF7ECFB0400DBE7000026401CFF000051
:107B1000307F000003004200024B58688003C00F12
:107B20007047C04600002640054A536C1B0ADBB272
:107B30003A2B03D1516C034B0B4353647047C0463F
:107B400000002740003A0020064A536C1B0ADBB2B3
:107B50003A2B06D1536C04491940E8239B010B438F
:107B60005364704700002740FFC5FFDF0449054A02
:107B70004B6C1A40E8239B0113434B647047C0468B
:107B800000002740FF00FFFFC022C023034952002E
:107B900088581B0603438B507047C04600002640A0
:107BA000C023044A5B00D058800F431E9841C0B2E6
:107BB0007047C04600002640C0228020064952007F
:107BC0008B58C0059B009B0803438B50802388582B
:107BD0001B0603438B5070470000264010B504007D
:107BE000FFF7DEFF002808D1C423044A5B00D05809
:107BF000A4B2000C00042043D05010BD0000264069
:107C000010B50400FFF7CCFF00280BD1C422F020F0
:107C100005495200000324048B58044003480340E4
:107C20001C438C5010BDC04600002640FFFFF0FFF3
:107C3000E0230121024ADB00D150D3587047C046EF
:107C40000000264010B51248FAF784F9FFF7B4FF98
:107C5000C02201200F4952008B5883438B5000F003
:107C60007FF80D4A80210320FAF7EEFE0B48FAF761
:107C7000ADFD0B4B1B6851331B78002B02D009481C
:107C8000FAF7E0FDFAF7B6FCFCF75EFB10BDC04664
:107C9000B09A0010000026400C000008F409020809
:107CA000840B0208DC9B0010F0B5002585B003951D
:107CB000FFF7C8FF62B6FAF733F9802002AA03A9DA
:107CC0004000F9F7C9FF1E4C1E4B1F4E0093019553
:107CD00033001E4A21000398F9F77AF8230048334D
:107CE0001B78AB4228D08022E36CD2009D18184B41
:107CF000676B1E60FCF7CAFB637E012B06D1637CB9
:107D0000002B03D0216AE069F8F7E4FF2300383341
:107D10001E78002E04D0E06BFAF79EF8FAF710F9FF
:107D200006210E20FDF7A2FE280032003900FAF7E6
:107D300035F8002005B0F0BD8022E3695202D5E796
:107D40003408020870100208B4090208F41002088E
:107D5000C407020810B50020FAF72EFE10BD00007F
:107D600010B50020FEF708FF041E25D0134B186045
:107D7000FDF78AFF411C200000F08EF8104B040034
:107D80001860FDF7AFFE411C200000F085F80D4B98
:107D9000441E18600C49200000F07EF8FA210B4BBD
:107DA000013018708900200000F076F8084B01308F
:107DB0001860084BC003186010BDC0463C010208A3
:107DC000400102083801020840420F004C0102083D
:107DD0004801020844010208024BD86F03231840EF
:107DE0007047C0460400214010B5F8F796FB0749DC
:107DF000074ACB6F1A40074B1343CB671023064942
:107E00000A681A42FCD0F8F78CFB10BD0400214030
:107E1000FCFF00000100FA058800214070B50F4CFE
:107E20000600F8F77AFBE36F0500DB439B0701D1FF
:107E3000FFF7DAFFB0230A4A9B00D650E36F094AE6
:107E400009491A40094B1343E36710230A681A4291
:107E5000FCD02800F8F765FB70BDC0460400214047
:107E600000002140FCFF0000880021400300FA05CB
:107E700002B4714649084900095C49008E4402BCBD
:107E80007047C04603B47146490840004900095A8A
:107E900049008E4403BC7047002243088B4274D3D0
:107EA00003098B425FD3030A8B4244D3030B8B42FB
:107EB00028D3030C8B420DD3FF22090212BA030C04
:107EC0008B4202D31212090265D0030B8B4219D3E5
:107ED00000E0090AC30B8B4201D3CB03C01A524105
:107EE000830B8B4201D38B03C01A5241430B8B424D
:107EF00001D34B03C01A5241030B8B4201D30B0336
:107F0000C01A5241C30A8B4201D3CB02C01A52415C
:107F1000830A8B4201D38B02C01A5241430A8B421F
:107F200001D34B02C01A5241030A8B4201D30B0208
:107F3000C01A5241CDD2C3098B4201D3CB01C01A22
:107F4000524183098B4201D38B01C01A524143092C
:107F50008B4201D34B01C01A524103098B4201D31A
:107F60000B01C01A5241C3088B4201D3CB00C01A87
:107F7000524183088B4201D38B00C01A52414308FF
:107F80008B4201D34B00C01A5241411A00D2014624
:107F9000524110467047FFE701B5002000F006F897
:107FA00002BDC0460029F7D076E770477047C0464B
:107FB000002B11D1002A0FD1002900D1002802D0B6
:107FC0000021C943081C07B4024802A140180290CE
:107FD00003BDC046D9FFFFFF03B4684601B5029850
:107FE00000F04EF8019B9E4602B00CBC7047C046A4
:107FF000F0B5CE46474615042D0C2E0080B507047B
:10800000140C3F0C9946030C7E435D436743634366
:108010007F19340CE4199C46A54203D980235B02E6
:108020009846C4444B4643435143250C36046544AB
:10803000360C2404A4195B19591820000CBC904676
:108040009946F0BD70B500220C4B04000D0000F005
:10805000C7FF002804D12000290000F01DFF70BDDB
:10806000064B00222000290000F0CEFB00F014FF98
:1080700080231B069C466044F1E7C0460000E041B7
:10808000F0B54F464646D646C0B5040082B00D0056
:10809000914698468B422FD82CD04146484600F056
:1080A000C7FF29000600200000F0C2FF331A9C46DB
:1080B000203B9A4600D576E04B46524693401F003F
:1080C0004B46624693401E00AF4228D825D0534607
:1080D000A41BBD41002B00DA7BE0002200230092AC
:1080E000019301235246934001930123624693403A
:1080F000009318E08242D0D900220023009201931D
:108100000A9B002B01D01C605D600098019902B0B1
:108110001CBC90469946A246F0BDA342D7D9002286
:108120000023009201936346002BE9D0FB07984699
:10813000414672080A437B0866460EE0AB4201D115
:10814000A2420CD8A41A9D41012024196D4100219E
:10815000013E24184D41002E06D0AB42EED9013E1F
:1081600024196D41002EF8D1009801995346001949
:108170006941002B23DB2B005246D3402A00644682
:10818000E2401C0053461500002B2DDB260057460D
:10819000BE40330026006746BE403200801A994137
:1081A00000900191ACE7624620239B1A4A46DA40D0
:1081B0006146130042468A4017001F4380E762462B
:1081C00020239B1A2A0066469A402300F34013435B
:1081D000D4E76246202300219B1A002200910192DD
:1081E0000122DA40019280E72023624626009B1A92
:1081F000DE402F00B0466646B74046463B0033435C
:10820000C8E7C046F0B55746DE464E464546E0B59F
:10821000834607000E03480085B092461C00360BCB
:10822000400DCD0F002800D19DE0954B984239D0EC
:108230008023F6001B041E43924A7B0F334399466A
:10824000944603006344009300230026FF0002933A
:1082500023031B0B98466300E40F52465B0D019409
:1082600000D1B3E086498B4200D19EE04246D10066
:10827000802212040A435146490F11438B4681491B
:1082800052468C4600996344CB1A0021D2000093D9
:108290002B0063409A460F2E00D905E17A4BB600B9
:1082A0009B599F465B463343994600D0B8E0022372
:1082B0000826002700900293CAE7CB463A000299AD
:1082C0000195019B9A46022927D0032900D180E21B
:1082D000012944D06D49009B8C4663441C00002C4E
:1082E00038DD530700D013E2D2085B46DB0109D525
:1082F0005946674B19408B468021C9008C46009B2C
:1083000063441C00634B9C4207DC5B4664055F07CB
:108310005B0217431B0B620D02E000230027584A43
:1083200000211B031C0B0B0D1B05234314055A4A8C
:10833000380013401C4353466400DB0764081C43A9
:10834000210005B03CBC90469946A246AB46F0BD24
:108350000122524201231B1B382B00DCADE100221D
:1083600000230027DCE75B46334399465ED0002EAE
:1083700000D18AE1300000F03DFE03000B3B1C2BD6
:1083800000DD7BE11D22D31A5A460100DA4008398C
:108390008E4013005F46334399468F403F4B002683
:1083A0001B1A00930023029352E7414653460B43A6
:1083B0003B499B468C46009B634400935B46002BE5
:1083C0003BD1022300221E43022161E743461343AF
:1083D0009B4637D04346002B00D162E1404600F077
:1083E00009FE03000B3B1C2B00DD53E1020041465C
:1083F000083A914088461D21CB1A5146D9400B00BE
:1084000041460B439B46534693401A00009B254927
:108410009C46604403008C4663440093002137E788
:108420000323B14600900C26029311E7002300932A
:1084300001330426002702930AE70323C3461E43A1
:10844000032125E701331E430022012120E70023F9
:108450009A46802300271B03094A61E78023494687
:108460001B03194200D1E2E05946194200D0DEE078
:108470000B431B0317001B0BA246014A50E7C046E3
:10848000FF07000001FCFFFF109C0010FF0300002D
:10849000FFFFFFFEFE070000FFFF0F800DFCFFFF48
:1084A00001F8FFFFF3030000D94500D9CBE000D16C
:1084B000C6E03C0048460027009B013B00935B461A
:1084C000160E1B021E431302984633041B0C9946DA
:1084D000310C0191FFF766FD4A4642430B04210C23
:1084E000050019438A4207D98919013D8E4203D8F4
:1084F0008A4201D9851E8919881A0199FFF752FD10
:1085000009048C464A46210464464243090C030090
:1085100021438A4204D98919013B8E4200D8F1E0F7
:108520002D041D43AB464346891A4246280C1204CB
:108530001D0C5B46140C22001B041B0C5A430394B5
:108540006B434443029568431B19150CEB189C427E
:1085500003D980246402A44660441C0C15041B0447
:108560002D0C20185D19814277D373D00C1AA24AC2
:108570007D1BAF42BF419446009B7F426344E01B9A
:108580001C00864200D1DBE00199FFF70BFD4A4653
:1085900042430B04290C070019438A4207D9891961
:1085A000013F8E4203D88A4201D9871E8919881A51
:1085B0000199FFF7F7FC09044A46894629044D460C
:1085C0004243090C030029438A4207D98919013B18
:1085D0008E4203D88A4201D9831E89193F04891A21
:1085E0003A00039F1A43380013041B0C584381467A
:1085F0000298150C6F43434345434846000C84469C
:10860000DB1963449F4203D98020400284466544BD
:1086100048461F0C00041B04000C7D191818A942C1
:1086200000D284E000D17FE001231A4357E6802383
:108630004A461B0313431B031B0BAA466F4A6FE6F4
:10864000BA4200D935E74B46DC0758087B081C4383
:10865000FF0734E70024AF4289D247444745A4418D
:108660005B466442A4196418013BA6421ED2A04294
:108670006DD800D1B6E0241A9B4678E703005A462D
:10868000283B9A400027914688E6584600F0B2FC05
:10869000203072E603005246283B9A40934600225F
:1086A000B4E6504600F0A6FC20309AE6A642E2D19D
:1086B000B845DCD9341A9B4659E71F2B65DC504C72
:1086C0000099A4465C46614408008C401100824039
:1086D000D940501E82410C4314435A46DA401300DD
:1086E000620709D00F222240042A05D02200141D5F
:1086F0009442894149425B181A0262D50122002343
:1087000000270DE68A4200D80AE7831E891907E789
:108710000F231340042B00D1E6E5171D9742924129
:1087200053429B44FA08E0E5002800D1D7E57118D0
:10873000531EB14227D3A94215D358D01A0073E76C
:10874000002B00DC04E6012300229B44CDE502233C
:108750004744474589415B429C46494289190C1967
:10876000E344241A03E743465F0047459B41B8466C
:108770005B429E19023A8919A94200D054E740454C
:1087800000D051E7ABE51A00F6E71F215F464942EA
:108790000C1BE740202B07D01A49009B8C466344F2
:1087A00018005B4683401A43501E82413A43072714
:1087B0000023174009D00F21002311401400042981
:1087C00095D122005F075B021B0BD20817430022E2
:1087D000A6E5802359461B030B431B0317001B0B05
:1087E000064A9DE5BD42B2D89B460024BFE68045BF
:1087F000B9D31A00C3E7C046FF030000FF0700001B
:108800001E0400003E040000F8B557464E4645469B
:10881000DE460C000903E0B5490A460F5F0031430C
:108820001E03DB0F760A9B46530F3343C84E650089
:10883000C000E40FD2006D0DA24681467F0D9C461C
:108840009046B74200D1B9E05B46012673409B4693
:10885000EE1BA34500D183E0002E63DD002F00D086
:10886000B1E06346134300D123E1731E002B00D017
:10887000BAE1861A6346B04280410125C91A4042D6
:10888000091A0B0200D447E149024B0A98464346B5
:10889000002B00D189E1404600F0ACFB0300083B0F
:1088A0001F2B00DD7CE120223000D21A4146D0404F
:1088B000994002009E400A439D4200DD6AE15D1B33
:1088C0006B1C1F2B00DD94E1202110003500C91A1C
:1088D0008E40DA408840DD40711E8E411100072233
:1088E0002843002506433240002A09D00F23334095
:1088F000042B05D0331DB342B641764289191E00C0
:108900000B0200D43DE26A1C914B55056D0D9A4255
:1089100000D119E18F4AF6080A405707520237433F
:10892000120B9BE0002E00D0C5E06E1C7605760D84
:10893000012E00DC48E16746861ACB1BB042BF41DE
:108940007F42B8461F004346FF1A3B00B8461B0251
:1089500000D55FE137439AD100220024002579E059
:10896000002E00DCFAE0002F00D18DE0784B9D4214
:1089700067D0802367461B041F43BC46382E00DCAB
:1089800052E1634613435A1E93411E1886428041AA
:10899000404209180B0200D4BEE06D4B01359D42E8
:1089A00000D1D2E06B4A73080A4001210E401E43F9
:1089B0005108D30707221E43324095E71E00164395
:1089C00000D045E740E7624B9D423AD0802367469E
:1089D0001B041F43BC46382E00DDEBE01F2E00DCDD
:1089E0003AE133006746203BDF403B00202E05D0B4
:1089F0004027BF1B6646BE40324390464646721E25
:108A000096413343DAE0002B00D114E2634613436E
:108A100000D168E180234E07C008C9081B03064344
:108A2000194208D06046C008184204D163460100CC
:108A3000D2085E071643F3009946C900720F444DF1
:108A400011434B46DE08424B4F073743CA089D424D
:108A500000D16EE012036D05120B6D0D00211203A3
:108A6000130B0A0D12051A433B4B2D0513402B43E4
:108A70005B00E4075B082343380019003CBC9046C8
:108A80009946A246AB46F8BD6346134311D0731E08
:108A9000002B00D007E186188642804161444042A5
:108AA000091801250B0237D502257BE73E006146F8
:108AB00091463500C5E75C46002D00D0E1E00B0093
:108AC0000343F3D0731C00D1ACE1214B9F4200D192
:108AD0003AE1F343382B00DD6FE11F2B00DD8CE121
:108AE00020250E00ED1AAE40B0460600AA46DE4034
:108AF000454635432E005546D940A8406346451E9D
:108B0000A8415B1A9C463043161AB2429241634612
:108B10005242991A3D00B4E607223240002A00D0A2
:108B2000E4E60B4BF6084F073743CA089D4200D0D6
:108B300090E73B00134300D1A6E180231B031A43B7
:108B40001203120B024D89E715000022002785E76A
:108B5000FF070000FFFF7FFFFFFF0F80002E00D008
:108B6000C7E06B1C5E05760D012E00DCF0E0C84D01
:108B7000AB4200D1B9E085180A00854289416244C0
:108B8000494251180722CE076D082E43490832404A
:108B90001D00A9E6BF49ED1A114007223240A3E6A5
:108BA000320028388240002686E6300000F022FAA3
:108BB000203073E6634613435A1E9341C61AB042EF
:108BC00080414042091A5CE60E006746064317439F
:108BD000002D5ED1002E00D0F3E0002F00D11EE169
:108BE0005C46614691462CE7A94FBE427BD01E00F1
:108BF000F1E610001F3DE840202B03D04021CB1AA6
:108C00009A401643731E9E410722064332400021BC
:108C1000002583E7161A6346B2428041591A404242
:108C20000B1A98465C4632E61F2E00DDABE020278B
:108C3000BB1B9A4663465746BB40994613004F46B6
:108C4000F3401F433B005746BA40571EBA411343F7
:108C50006246F240891898E62027BB1B9A46634675
:108C60005746BB40994613004F46F3401F433B0015
:108C70005746BA40571EBA4113436246F240891A1A
:108C80009CE7834B9F425FD080252D04734229438C
:108C900020E7002E0CD1002F00D1D0E05C466146C9
:108CA00091467B4DCDE67A4FBE421CD01E0065E654
:108CB000002F18D0C0084E0706438020C9080003C3
:108CC000014208D06346DC08044204D12100DA46A0
:108CD000D2085E071643F300994601245346C900A3
:108CE000720F11431C406A4DABE61D0000220027A5
:108CF000B4E6002D59D10B00034300D1D6E6731C16
:108D000000D1B2E0624B9F421ED0F343382B6FDCA0
:108D10001F2B00DD97E020250E00ED1AAE40B04677
:108D20000600AA46DE40454635432E005546A8407B
:108D3000D940451EA8418C440643B618964292413C
:108D4000514261443D0025E63D006146914678E68A
:108D50000B000343002D00D055E6002BF5D06346F1
:108D6000134300D16DE6861886428041614440423B
:108D7000091800220B0200D4D0E6464B01351940F9
:108D8000B2E5B1465DE633006746203BDF403B007D
:108D9000202E05D04027BF1B6646BE40324390467A
:108DA0004646721E96413343EFE5394B9F42CBD086
:108DB00080252D0473422943A8E70843411E8841BA
:108DC000A2E6002F00D13CE66346861ACF1AB042D5
:108DD0009B415B42FB1A98461B024ED5161A63460E
:108DE000B2429241591A5242891A5C4600227BE5EE
:108DF00001430E00711E8E419FE71D000E00203DB5
:108E0000EE40B046202B04D04025EB1A9940084391
:108E1000814648464346411E8841184374E6002275
:108E2000002417E6161A6346B2429241591A52427A
:108E3000891A3D0025E561469146154D01E68022DF
:108E40000024120379E61D000E00203DEE40B046DE
:108E5000202B04D04025EB1A9940084381464E460A
:108E60004346711E8E411E4367E7861896429B411A
:108E700061445B42C9183D008CE547463743CED07C
:108E800007224146324049E600273A00E6E5C0465F
:108E9000FF070000FFFF7FFF30B5144D0A034B00B2
:108EA000120B5B0DC90F0024AB4211DD104CA34225
:108EB00010DC8024640322430E4CE41A1F2C0CDDCA
:108EC0000D48C31ADA4013005C42002900D11C008F
:108ED000200030BD094BCC18FAE7094DE040AC4604
:108EE00063449A4013000343EEE7C046FE030000CC
:108EF0001D0400003304000013040000FFFFFF7F87
:108F0000EDFBFFFF70B500282DD0C317C5185D40DD
:108F1000C40F280000F06EF8154B1B1A5B055B0DA3
:108F20000A2815DD0B38854000222D032D0B00216A
:108F300010002D030A0D2D0B12052A430D4D1B05A4
:108F40002A4013435B00E4075B082343190070BD0C
:108F500002002900153291400A000B21081AC54071
:108F60002D032D0BE3E70024002300250022DEE77C
:108F70001E040000FFFF0F808446101C62468C46D2
:108F8000191C634600E0C0461FB500F0FDF800283C
:108F900001D40021C8421FBD10B500F055F8404271
:108FA000013010BD10B500F0EFF8002801DB002003
:108FB00010BD012010BDC04610B500F0E5F8002836
:108FC00001DD002010BD012010BDC04610B500F02D
:108FD00077F8002801DC002010BD012010BDC0463C
:108FE00010B500F06DF8002801DA002010BD012056
:108FF00010BDC0461C2101231B04984201D3000C64
:1090000010391B0A984201D3000A08391B099842FB
:1090100001D30009043902A2105C40187047C04611
:109020000403020201010101000000000000000031
:1090300010B5002903D1FFF7DDFF203002E0081C46
:10904000FFF7D8FF10BDC046F0B54F464646D6469E
:109050008446C0B58046194E18030F034D00000B1F
:109060005C0082463F0B6D0DC90F9146640DDB0F0E
:109070000120B5420AD0B44203D0A54201D15745E0
:109080000CD01CBC90469946A246F0BD66463E43B5
:10909000F7D1AC42F5D154461443F2D10120C84572
:1090A000EFD1994207D0002DEBD163461F43380022
:1090B000471EB841E5E70020E3E7C046FF07000090
:1090C000F0B54F464646D6464D00C0B50E03C90F13
:1090D0008A462C491F035C008046360B6D0D914675
:1090E0003F0B640DDB0F8D421ED08C4216D0002D3D
:1090F0001ED130438446002C01D13A4323D062462E
:10910000002A1AD09A4529D0514602200139084038
:1091100001381CBC90469946A246F0BD3900114367
:10912000E5D002204042F4E73043FAD1AC420FD000
:10913000002C0FD13A43E7D00CE00122013B9343CE
:1091400018000130E5E763460020002BE1D0DBE7A3
:109150003A43E6D19A45D7D1A542D5DCA54205DBF5
:10916000BE42D1D808D00020BE42D2D25046012300
:10917000013898430130CCE7C845C5D80020C84520
:10918000F4D3C6E7FF070000F0B54F464646D64683
:109190004D00C0B50E03C90F8A462E491F035C005F
:1091A0008046360B6D0D91463F0B640DDB0F8D42F3
:1091B00018D08C4211D0002D18D130438446002C99
:1091C0001ED13A431CD163460020002B30D05146BB
:1091D00002200139084001382AE039001143EAD061
:1091E000022025E03043FBD1AC4226D0002C26D112
:1091F0003A4324D15146022001390840013817E092
:109200006246002A0FD09A45E1D1A54205DBBE4255
:10921000DDD819D00020BE420AD2504601230138C1
:109220009843013004E00122013B934318000130D0
:109230001CBC90469946A246F0BD3A43D0D19A450F
:10924000C5D1A542C3DCE0E7C845C0D80020C84569
:10925000E3D3EDE7FF070000EC3000687047000043
:1092600010B5034B0100186800F07CF810BDC04633
:109270005001020810B5034B0100186800F028F8EF
:1092800010BDC0465001020882B0002900D101A9DA
:10929000101E06D0002B06D013780B601078431EEA
:1092A000984102B0704702204042FAE7002310B50F
:1092B0009A4200D110BDCC5CC4540133F8E70300DE
:1092C0001218934200D1704719700133F9E700007A
:1092D00070B50500002910D00C1F2368002B00DAA0
:1092E000E418280000F0ACF91D4A1368002B05D1E2
:1092F00063601460280000F0A4F970BDA34209D98E
:10930000216860188342F3D118685B6841182160B6
:10931000EEE713005A68002A01D0A242F9D9196871
:109320005818A0420BD120680918581819608242B9
:10933000E0D110685268411819605A60DAE7A0421B
:1093400002D90C232B60D5E721686018824203D133
:10935000106852684118216062605C60CAE7C046CC
:10936000780B0208032370B5CD1C9D430835060019
:109370000C2D1ED20C25A9421DD8300000F060F93A
:10938000254A14682100002919D1244C2368002B98
:1093900003D1300000F044F820602900300000F0D4
:1093A0003FF8431C2BD10C233000336000F049F907
:1093B00003E0002DDFDA0C233360002070BD0B6862
:1093C0005B1B19D40B2B03D90B60CC18256003E071
:1093D0004B688C420DD11360300000F032F9200050
:1093E00007220B30231D9043C31AE7D05A42E250A4
:1093F000E4E763600C00EFE70C004968C3E7032370
:10940000C41C9C43A042E1D0211A300000F008F8AF
:10941000431CDBD1C7E7C046780B02087C0B02086F
:10942000002370B5064C05000800236000F00AF91F
:10943000431C03D12368002B00D02B6070BDC046B5
:10944000FC100208C9B20378002B04D08B4200D173
:1094500070470130F7E74B42594149420840F7E76E
:1094600002780B78002A03D0013001319A42F7D0FC
:10947000D01A704703000A7801311A700133002AAC
:10948000F9D17047002330B59A420AD0013AC45C42
:10949000CD5CAC4204D1934202D00133002CF6D112
:1094A000631B180030BD0000F0B51F000E008DB02A
:1094B0000B900291039212983478FFF7CDFE0822A8
:1094C00000194378751C134053D12D2C53D1747857
:1094D000B51C01330193002F00D18AE0102F0AD16F
:1094E000302C08D120222B789343582B00D07AE0DF
:1094F00010276C780235019B002B41D1013B04936E
:109500003E4B05933A00FB17049805990893FEF724
:109510004FFD002309900E00002000210A92220036
:10952000303A092A31D81400A7423DDD5A1C1DD01B
:10953000B14236D802D1099B984232D8099B834266
:1095400006D18E4204D101230A9A5B42A2420DDB6E
:109550000B00020008993800FEF74AFDE317069455
:109560000793069B079CC018614101232C780135A5
:10957000D5E72E009FE72B2CACD1B51C7478A9E75A
:109580000023049380231B06BBE72200413A192ADB
:1095900001D8373CC8E72200613A192A04D8573C61
:1095A000C2E701235B42E1E75A1C09D10B9A23333E
:1095B0001360039B04980599002B0ED10DB0F0BDEC
:1095C000019A002A04D006000F0000217042B94120
:1095D000039A002AF2D0002B01D06B1E0293039B4A
:1095E000029A1A60EAE73024002F00D083E70827A8
:1095F00081E7302C00D175E70A277CE7FFFFFF7F6A
:1096000037B51300064A05001068046A002C00D123
:10961000044C0A0000942900FFF746FF03B030BD58
:1096200050010208B40102080B1E04D0FF2A04D91D
:109630008A2303608B3B180070470A700123FAE706
:1096400070477047044A1368002B00D1034B181869
:10965000106018007047C046800B02080011020815
:10966000F8B5C046F8BC08BC9E467047F8B5C04681
:10967000F8BC08BC9E46704701B40248844601BC51
:10968000604700BF2903020801B40248844601BCB8
:10969000604700BFC103020801B40248844601BC10
:1096A000604700BF4D0502084142434445464748D4
:1096B000494A4B4C4D4E4F505152535455565758A2
:1096C000595A6162636465666768696A6B6C6D6E3E
:1096D0006F707172737475767778797A303132334E
:1096E000343536373839006E756C6C0066616C73D2
:1096F000650074727565007265736F75726365736A
:1097000000616464726573730073697A6500534322
:109710005241544348006C61756E63680061637127
:109720005F77696E007764745F656E61626C650077
:109730007764745F74696D656F75740075706772B6
:109740006164655F6D6F64650073776170006D754E
:109750006C74695F696D616765006D6F6E6F746FC2
:109760006E696300424F4F54005550475241444583
:1097700000656E637279707400656E6372797074DF
:109780005F6B65795F696400626F6F745F617574A8
:109790006800736D69665F6964007365745F696D05
:1097A000675F6F6B005354415455535F504152549F
:1097B0004954494F4E006D34007065726D69737382
:1097C000696F6E00636F6E74726F6C006B65790009
:1097D000657874436C6B456E61626C650065787486
:1097E000436C6B46726571487A00657874436C6BA4
:1097F000506F727400657874436C6B50696E4E756F
:109800006D0065636F456E61626C650065636F46F0
:10981000726571487A0065636F4C6F6164006563BF
:109820006F4573720065636F44726976654C657647
:10983000656C0065636F496E506F72740065636F8D
:109840004F7574506F72740065636F496E50696E26
:109850004E756D0065636F4F757450696E4E756D12
:109860000077636F456E61626C6500627970617349
:1098700073456E61626C650077636F496E506F72FD
:10988000740077636F4F7574506F72740077636FF5
:10989000496E50696E4E756D0077636F4F757450E9
:1098A000696E4E756D00657874636C6B00707265DF
:1098B00073656E74006669726D77617265006365C9
:1098C000727469666963617465006F70656E0064C7
:1098D000697361626C656400656E61626C656400E9
:1098E000616C6C6F77656400646562756700626FB8
:1098F0006F745F75706772616465007372616D701B
:1099000077726D6F6465006D6163726F4E756D0087
:1099100074797065006172726179006974656D7344
:10992000006E756D62657200696E746567657200C0
:10993000626F6F6C65616E00737472696E67006D43
:109940006178696D756D006D696E696D756D007317
:1099500072616D3000464C4153485F5043315F5354
:10996000504D00464C4153485F50433200464C41F5
:1099700053485F50433300464C4153485F50433493
:1099800000464C4153485F4D41494E5F434F44456B
:1099900000464C4153485F4D41494E5F584F004689
:1099A0004C4153485F4D41494E5F4441544100464C
:1099B0004C4153485F53555045525649534F5259A5
:1099C00000464C4153485F574F524B5F53454355F8
:1099D000524500464C4153485F574F524B0053523B
:1099E000414D5F5043305F50524956005352414DF4
:1099F0005F5043305F505542005352414D5F5350CA
:109A00004D5F50524956005352414D5F53504D5F88
:109A1000505542005352414D5F5043315F505249BF
:109A200056005352414D5F5043325F5052495600E9
:109A30005352414D5F5043335F5052495600535289
:109A4000414D5F5043345F50524956005352414D8F
:109A50005F4D41494E005352414D5F4441500053C8
:109A60004D49465F434F444500534D49465F584F6B
:109A700000534D49465F444154410000A10FB90BCA
:109A8000D107DC05E903EE02F5017701FB00BC001C
:109A90007E005E003F002F002000180010000C0028
:109AA000080006000400030002000200010001009B
:109AB000000021400000254000000140000034402B
:109AC00000002440000031400000324000001F41EF
:109AD000000023400000114000001D411010101034
:109AE000101010101010108019005500F000050122
:109AF00005013B04101C01010FC000000004000020
:109B000001010101011D3A5778960000000000088C
:109B10002000101208000000001F00000010000FBD
:109B2000002000023F06080E00080009000A000B92
:109B300024282C30340000001000000090000000A9
:109B400088000000080000008000000004F0000011
:109B500000F00000400200002005A000D00100013C
:109B60008001A00140019001B00120001000000020
:109B7000000000000000000000000000666666664D
:109B8000000000000000FFFF000000001C1C1C1C67
:109B90001C1C1C1C00000000000000000000000055
:109BA00066E6EE66000000000000FFFF0000000017
:109BB0001C1A1A1A1A1A0000000000000000000007
:109BC0000000000066E66666000000000000FFFF7F
:109BD000000000001A1A001C000000000300000032
:109BE000010000000100000000000000050360000B
:109BF000040000000100000000000000010000005F
:109C00000604600008000000540B0208557D001097
:109C1000A88400101A8300105E830010C282001016
:109C20005E8300104E8400105E830010C28200101C
:109C30001A8300101A8300104E840010C282001094
:109C4000BA820010BA820010BA8200105C84001040
:109C50004300504F534958002E0000202020202060
:109C600020202020282828282820202020202020CC
:109C700020202020202020202020208810101010BC
:109C80001010101010101010101010040404040410
:109C9000040404040410101010101010414141413C
:109CA0004141010101010101010101010101010124
:109CB0000101010101011010101010104242424236
:109CC00042420202020202020202020202020202F4
:109CD0000202020202021010101020000000000018
:109CE0000000000000000000000000000000000074
:109CF0000000000000000000000000000000000064
:109D00000000000000000000000000000000000053
:109D10000000000000000000000000000000000043
:109D20000000000000000000000000000000000033
:109D30000000000000000000000000000000000023
:109D40000000000000000000000000000000000013
:109D50000000000000000000000000000000000003
:089D600020E3FF7F0100000079
:109D68000004001000000208C0000000889D0010D8
:089D7800C0000208A80500006C
:089D800088060208780A0000C1
:109D880075920010619200105599001063990010A7
:109D98006D99001077990010819900109199001021
:109DA8009F990010AF990010C1990010D399001025
:109DB800DE990010EC990010F9990010079A00102C
:109DC800149A0010229A0010309A00103E9A00103F
:109DD8004C9A0010569A00105F9A0010699A001069
:109DE800719A00106497001069970010A5970010E9
:109DF8000E9700100500000000093D0000127A00CF
:109E080000093D000000D007A00F0000040000007A
:109E180054010208000000000000000000000000DB
:109E2800000000000000000000000000000000002A
:109E3800000000000000000000000000000000001A
:109E4800000000000000000000000000000000000A
:109E580000000000000000000000000000000000FA
:109E680000000000000000000000000000000000EA
:109E78000000000043000000000000000000000097
:109E880000000000000000000000000000000000CA
:109E98000000000043000000000000000000000077
:109EA80000000000000000000000000000000000AA
:109EB8000000000043000000000000000000000057
:109EC800000000000000000000000000000000008A
:109ED8000000000043000000000000000000000037
:109EE800000000000000000000000000000000006A
:109EF8000000000043000000000000000000000017
:109F08000000000000000000000000000000000049
:109F180000000000430000000000000000000000F6
:109F28000000000000000000000000000000000029
:109F380000000000430000000000000000000000D6
:109F48000000000000000000000000000000000009
:109F580000000000299600108992001000000000FF
:109F68005A9C0010589C0010599C0010599C0010D5
:109F7800599C0010599C0010599C0010599C0010C5
:109F8800599C0010599C0010599C0010FFFFFFFFBE
:109F9800FFFFFFFFFFFFFFFFFFFF0000010041532E
:109FA80043494900000000000000000000000000D4
:109FB8000000000000000000000000000000415305
:109FC80043494900000000000000000000000000B4
:109FD8000000000000000000000000000000000079
:109FE800E9040010C1040010024A1368002BFCDBCE
:109FF8007047C0460001264010B54378FF2B0BD1AF
:10A00800032000F049F9C3685A680123116819430D
:10A01800116011681942FCD110BD80B230B5C00082
:10A0280020D0114B07221C682300BA331B885A43DF
:10A03800236AD31819680029FCDA3E210B4B062540
:10A0480019600B4B0B491960A3210B4BC9005D50DC
:10A058000A4958505858206A1218002050605A5817
:10A06800002AFCDA30BDC046840B020804012640F1
:10A07800080126401E1F0000000026401C050000A5
:10A08800F7B500900020019100F006F93E4D06005A
:10A098002B681A005033BC3214681B780419002B43
:10A0A8005AD000F031F9070003281BD000F014F94A
:10A0B800364A374B0500D358002B3EDA354A012182
:10A0C800300000F0F1F8002837D10198FFF7A5FF1C
:10A0D800009B002B3ED02368002BFCDB00F0F4F83B
:10A0E80004002BE0062000F0D7F82B68BC331B686F
:10A0F800C0180368002B02DA274C2000FEBD0020A0
:10A1080000F0DAF8254B9842F6D00023244A1900CB
:10A118001268012000F000F90025A842ECD10020C7
:10A1280000F0CAF81D4A1F4B904203D09D42E3D06D
:10A138000135F4E79D42B9D1DEE7174C032F05D16D
:10A148000121002000F0D8F80028F9D1280000F0FB
:10A15800CBF8D2E7144CF1E700F0BEF80D4A050041
:10A168000121300000F0A0F8002809D1009B002B45
:10A1780008D02368002BFCDB00F0A6F80400E5E714
:10A18800054CE3E7084CE1E7840B02080000264091
:10A198001C050000B00602080500520001018800F5
:10A1A800C0060208F049020001005000074A0849A9
:10A1B80053680B405360074A53685B005B08536061
:10A1C800054A53685B005B08536070478001204074
:10A1D800FFFFFFBF80400140C04001408023084A84
:10A1E800DB0551680B435360802306491B064A6808
:10A1F8001A434A60044A51680B4353607047C0468B
:10A208008001204080400140C04001401A4BF7B512
:10A218001B681A4A5C68042311690B4313610128FF
:10A2280028D030BF2300FC335B6F002B21D1FFF710
:10A23800BDFFA320124B1349134AC0000F681E58D4
:10A2480015680195114D0D6006251D503E201060C2
:10A258000F483E351D501D58002DFCDA0120FC34F6
:10A2680060670F60A321C9005E50019B1360FFF770
:10A27800B5FFF7BD20BFD5E7840B020800ED00E06D
:10A288000000264008012640040126401E1F000049
:10A298001C0500000000000001B40248844601BC0F
:10A2A800604700BFAD24001001B40248844601BCD9
:10A2B800604700BF9127001001B40248844601BCE2
:10A2C800604700BF052B001001B40248844601BC5A
:10A2D800604700BF7125001001B40248844601BCE4
:10A2E800604700BF1B05001001B40248844601BC4A
:10A2F800604700BF2305001001B40248844601BC32
:10A30800604700BF912A001001B40248844601BC8E
:10A31800604700BFD97D001001B40248844601BCE3
:08A32800604700BFAD280010E2
:040000051000052BB7
:00000001FF
