:020000041004E6
:10000000007504085F2804100D000000C1280410CA
:10001000C1280410C1280410C128041000000000E9
:10002000000000000000000000000000BD280410D7
:10003000BD28041000000000BD280410BD280410D5
:10004000BD280410BD280410BD280410BD280410CC
:10005000BD280410BD280410BD280410BD280410BC
:10006000BD280410BD280410BD280410BD280410AC
:10007000BD280410BD280410BD280410BD2804109C
:10028000BD280410BD280410BD28041010B5054C6D
:10029000237833B9044B13B10448AFF30080012332
:1002A000237010BDB0080108000000002891041060
:1002B00008B5034B1BB103490348AFF3008008BDE9
:1002C00000000000B408010828910410154B002B11
:1002D00008BF134B9D46A3F5803A00218B460F467D
:1002E0001348144A121A06F0DDFD0F4B002B00D004
:1002F00098470E4B002B00D09847002000210400A7
:100300000D000D48002802D00C4802F00BFA06F050
:100310007BFD2000290002F049FA02F000FA00BF3C
:10032000000008000075040800000000A127041068
:10033000B0080108444F0108252704100000000000
:10034000002070470020704703689B6A18470368C5
:10035000DB6A18474FF0FF307047838803F00702CD
:10036000012310B59340046809B9636010BDA36010
:10037000FCE770477047036810B504469B6C9847CC
:1003800094F8703033B9636723682046DB6C984774
:10039000002010BD636F013B6367002BF4D184F82C
:1003A000703000220023C4E90223EDE74FF400700F
:1003B00000217047D0E902135B02480243EAD151A1
:1003C00070470000004870477873041080F871107F
:1003D000704770B5013100240646891A20468C42C8
:1003E0000CD01519A6EBD50305F00705DB7B2B41D7
:1003F00003F00103A34018430134F0E770BD00008F
:100400002DE9F3419846194B03601646002300225C
:100410000446C0E9022310300D460A9F01F037F868
:100420004FF0FF333246009329464346002504F13E
:10043000600604F1380000F0C5FEBDF9201030461A
:10044000C4E9185501F0A4FD304684F87050656782
:100450000121FFF782FF064B2571C4E90C372046C6
:100460004FF40073E36602B0BDE8F08184730410BA
:10047000A08601002DE9F84FC76E92469B460646BE
:100480003A4600235046594606F0E4FD1343DDE9A1
:100490000A8917D13A4600234046494606F0DAFD5C
:1004A00013430FD133681AEB08049B6B30464BEBB8
:1004B00009059847A94208BFA0422CBF012000208F
:1004C000BDE8F88F0020FBE7416B08B5084B994267
:1004D000024600F1380003D800F0CDFE002008BD30
:1004E0005363194600F0C7FE6FF01500F7E700BF31
:1004F00040787D0138B50368044615469B6C9847E3
:1005000065632046FFF7E0FF23680546DB6C204665
:100510009847284638BD0000094B10B5036090F895
:10052000703004460BB1FFF726FF04F1380000F0ED
:10053000EDFD04F1100000F024FF204610BD00BFC7
:100540008473041010B50446FFF7E6FF204602F05E
:1005500021F9204610BD73B501F03F0343F040037D
:100560008DF80030130E8DF80130130C8DF8023029
:10057000130A0D468DF803308DF8042019B10829AF
:1005800021D0FF2300E095238DF80530002600F1EF
:1005900038041DF806102046013600F0BAFE062E7B
:1005A000F7D10C2D03D1FF21204600F0B2FE10251B
:1005B000FF21204600F0ADFE030601D5013DF7D135
:1005C000C0B202B070BD8723DEE770B500F1100441
:1005D000054620460E4600F049FF204600F0E1FEA9
:1005E0003835FF21284600F094FE8642204603D18C
:1005F00000F004FF012070BD00F02FFFB0F5967FE2
:10060000EFDB204600F0FAFE0020F4E770B500F1C1
:100610001004054620460E4600F028FF204600F054
:10062000C0FE3835FF21284600F073FEC0B2FF2817
:10063000204603D100F0E2FE012070BD00F00DFF66
:10064000B042EFDB204600F0D9FE0020F5E770B5A0
:100650000E46002400F13805B44205D0FF2128469B
:1006600000F057FE0134F7E770BD000073B50D468A
:10067000FE2104461646FFF7A8FF90B10022383449
:1006800011462B460096204600F053FEFF212046DF
:1006900000F03FFEFF21204600F03BFE002002B0AC
:1006A00070BD0148FBE700BF70ECFFFFF7B500F13C
:1006B000380405460E46204611461F4600F029FE26
:1006C000002300933A463146204600F032FE6FF098
:1006D0007F41204600F01DFE4FF0FF31204600F024
:1006E00018FEFF21204600F014FE42F2107104466D
:1006F0002846FFF78BFF04F01F0003B0F0BD38B5AC
:1007000000F138050446284600F0F6FCFF21284693
:1007100000F0FFFD04F160000021BDE83840FFF764
:100720001CBE38B500F138040546204600F0E4FC54
:10073000296B204600F09FFD00222046082100F092
:100740007DFD2046FF2100F00EFE05F16000012135
:10075000FFF703FE28460A21FFF779FF2046BDE890
:10076000384000F0C9BC10B504463834012160306F
:10077000FFF7F3FD2046FF2100F0CBFD2046BDE84A
:10078000104000F0B9BC00002DE9F0470C460646C9
:1007900091469A46089FFFF7B2FF0C2C04D042F214
:1007A00010713046FFF732FF4FF00308BAF1000F27
:1007B00009D0372100223046FFF7CDFE42F21071FA
:1007C0003046FFF723FF4A4621463046FFF7C3FE77
:1007D000FF28054670D1B8F10108E7D107B13860AC
:1007E0003046FFF7C0FFDFF8EC804046BDE8F087F9
:1007F000420709D53046FFF7B6FF082C01D1042384
:100800003371DFF8D480F0E710F0120F1FD12F4BB7
:1008100010F0600F14BF98464FF000080D2C41D027
:1008200018DC082C35D00C2C36D0002F42D1093CD6
:10083000E4B2102C07D8264B23FA04F4E30702D5C0
:10084000B8F1000FD1D03046FFF78DFFCDE7DFF8CC
:100850008C80E3E7262C1FD03A2CE6D106F138092C
:10086000FF21484600F055FDFF210546484600F0AF
:1008700050FD2D0645EA0045FF21484600F049FDA0
:10088000FF218246484600F044FD054345EA0A251B
:10089000CBE702233371E1E742F210713046FFF7F4
:1008A000B5FEC2E7FF2106F1380000F032FD002F4F
:1008B000C9D005463D60BAE707B13860010797D552
:1008C0003046FFF750FFDFF818808EE775ECFFFF2A
:1008D00001A3010073ECFFFF76ECFFFF6EECFFFF5E
:1008E0006FECFFFF2DE9F347DDE90A67CDE900670B
:1008F000044690461D46FFF7BDFD002841D0236801
:1009000020469B6C984794F8703043B923681E4D7D
:10091000DB6C20469847284602B0BDE8F087237973
:10092000B6F5007947F1FF3A032B08D14FEA592376
:1009300043EACA534FEA5828994648EAC558002363
:100940000093424620212046FFF71EFF054620B1B6
:1009500023682046DB6C9847DDE70090034608EBF0
:10096000090221212046FFF70FFF05460028EFD19D
:1009700000900346024626212046FFF705FF054664
:10098000E6E7024DC7E700BF74ECFFFF75ECFFFF21
:100990001FB504AA002342F8043D082100924FF439
:1009A000D5720446FFF7F0FE58B92379022B08D11F
:1009B000039BC3F30B03B3F5D57F1EBF042302488B
:1009C000237104B010BD00BF71ECFFFF7FB5054679
:1009D000052403AE00231A46194600962846FFF761
:1009E000D3FE039B012B04D0012001F032FF013C18
:1009F000F0D1039804B070BD2DE9F043002380F8D6
:100A0000713085B00446FFF78CFE2046FFF7DEFF0D
:100A100001285DD12046FFF7BBFF054610B12D4BE5
:100A200098420FD1002303AE00961A463A21204681
:100A3000FFF7AAFE054628B9039BD90206D4042372
:100A4000254D2371284605B0BDE8F083237904F1D4
:100A50001007022B384614BF4FF000094FF08049B1
:100A600000F09FFC42F20F7801234A4600962921AC
:100A70002046FFF789FE039BDA07054604D5384672
:100A800000F0EBFC4045EFDD384600F0B7FC0DB957
:100A9000039B13B104232371D4E72379022B15D1CF
:100AA00000962B462A463A212046FFF76DFE20B9D4
:100AB000039B5B0001D503232371002300931A4697
:100AC0003B212046FFF760FE0546BBE70123F3E725
:100AD000024DB7E776ECFFFF71ECFFFF73ECFFFF11
:100AE0002DE9F04F85B014461D46DDE90E23CDE912
:100AF000022303689B6A82468B46984702460B4650
:100B00002046294606F0A6FA134304D0404C20465E
:100B100005B0BDE8F08FDAF8003050469B6A984780
:100B200002460B46DDE9020106F094FA1343EDD1CB
:100B3000DDE90289DAF8003018EB04089B6B5046B7
:100B400049EB05099847494508BF4045DED3DAF827
:100B5000003050469B6C98479AF8703033B9DAF8F9
:100B600000302C4CDB6C50469847D0E7029B5E0A65
:100B7000039B46EAC3569AF80430032B02BF630A6C
:100B800043EAC5531C460027012E00971CD122467C
:100B90003B4618215046FFF7F7FD044628B1DAF826
:100BA00000305046DB6C9847B1E74FF40073FE22EB
:100BB00059465046FFF77AFD174B052818BF1C46CB
:100BC0005046FFF7D0FDEAE7012332461721504691
:100BD000FFF7DAFD224600973B4619215046FFF702
:100BE000D3FD04460028DAD14FF40073FC225946A5
:100BF0005046FFF75BFD052803D1013E0BF5007B56
:100C0000F2D1FD210AF1380000F083FBD8E700BFE4
:100C100075ECFFFF74ECFFFF6DECFFFF2DE9F74F64
:100C20001D4603685B6A144682468B46DDE90C6705
:100C3000984702460B462046294606F00BFA134316
:100C400004D0394C204603B0BDE8F08FDAF800300C
:100C500050465B6A984702460B463046394606F0D6
:100C6000F9F91343EDD1DAF8003014EB06089B6B69
:100C7000504645EB07099847494508BF4045E0D332
:100C8000DAF8003050469B6C98479AF870302BB9D0
:100C9000DAF800305046DB6C9847D2E79AF8043017
:100CA000032B08BF630A4FEA562808BF43EAC5531F
:100CB00048EAC75808BF1C46B8F1010F4FF00003BF
:100CC000224600938CBF122111215046FFF75CFD94
:100CD000044628B1DAF800305046DB6C9847B1E79B
:100CE000B8F1000F0CD04FF4007259465046FFF790
:100CF000BDFC20B90BF5007B08F1FF38F0E70B4C89
:100D00005046FFF730FD00234FF40072BB4208BF8E
:100D1000B242DFD2002300931A460C215046FFF75F
:100D200033FD0446D6E700BF75ECFFFF70ECFFFF14
:100D3000F8B50C46FE2105461746FFF746FC60B1A4
:100D4000274405F13806BC424FF0FF01304609D078
:100D500000F0DFFA04F8010BF5E72846FFF703FD82
:100D60000648F8BD00F0D5FAFF21304600F0D1FA70
:100D70002846FFF7F8FC0020F3E700BF70ECFFFF08
:100D8000F0B587B000240094234622460921064688
:100D9000FFF7FAFC074600284DD1102202A9304681
:100DA000FFF7C6FF0546002844D17E227F2102A816
:100DB000FFF70FFB18B1012834D02C463BE03E2250
:100DC000492102A8FFF705FB2F220446312102A882
:100DD000FFF7FFFA50220546532102A8FFF7F9FA60
:100DE000023501340123AC4003FA00F0A4FB0001FA
:100DF000440A2E2244EAC1544D0A02A81146FFF7C4
:100E0000E8FA18B14FF40073F36607E027222D21AA
:100E100002A8FFF7DEFA01304002F06620462946BC
:100E200007B0F0BD3022452102A8FFF7D2FA013009
:100E30008402E7E73C462546F0E7036837B50446F9
:100E40009B6C984794F8703003B96367636F013304
:100E5000012B63672FD12046FFF7CEFD051E0CBF87
:100E60000123002384F8703004D023682046DB6C13
:100E700098470DE02046FFF783FF50EA0103C4E9DD
:100E8000020108D123682046DB6C98476FF47A652D
:100E9000284603B030BD00952B464FF40072102158
:100EA0002046FFF771FC0028ECD12046FFF70CFB31
:100EB00005460028D9D123682046DB6C98470025D9
:100EC000E6E77047704702F09FBA02F093BA02F06B
:100ED0009DBA02F09EBA02F09FBA036823B9036874
:100EE00013B900F1080303601846704770B50B4E44
:100EF00005463046FFF7F1FF284602F033FA044674
:100F0000284602F081FA01F043FC68603046FFF7A2
:100F1000E4FF201C18BF0120404270BDD00801082A
:100F200038B505460948FFF7D8FF284602F01CFAF5
:100F3000003018BF01204442686808B101F02CFC61
:100F40000248FFF7CAFF204638BD00BFD00801089D
:100F50002DE9F0410A4C0F461646054698462046B4
:100F6000FFF7BBFF43463A463146284600F0E2FF12
:100F700005462046FFF7B1FF2846BDE8F08100BFD7
:100F8000D00801082DE9F74F1546994607468846CF
:100F900002F03AFA0646384602F03BFA82463846F4
:100FA00002F034FAB5FBF6F306FB1354002C5BD1C8
:100FB000B8F1000F58D005EB09038244534553D8CC
:100FC0002B48FFF78AFF2346B9F1000F43D0002BCF
:100FD0003FD12946384602F00DFAB5FBF0F400FB8C
:100FE0001454041B4C4528BF4C4618F0030F01D184
:100FF000B44226D2B44228BF3446224641467868DD
:1010000005F045FFB44205D27868321BFF21204429
:1010100005F048FF7B680193B3464FF0100A5B462A
:10102000019A2946384602F0ABF9034620B1BAF1DD
:10103000010AF4D14FF0FF33A9EB04092544A04481
:10104000C2E7B4FBF6F406FB04FB5C46CDF8048073
:10105000E3E74FF0FF3306480193FFF73EFF019BA4
:10106000184603B0BDE8F08F4FF0FF33F8E700BF3C
:10107000D00801082DE9F0410D461646074602F05A
:10108000C8F90446384602F0C1F92044AC19A04220
:1010900004D24FF0FF342046BDE8F08119D815483E
:1010A000FFF71BFF00240EB3F4B94FF010082946D8
:1010B000384602F05BF9044620B1B8F10108F6D1D8
:1010C0004FF0FF342946384602F094F9361A0544A9
:1010D000E9E72146384602F08DF9B4FBF0F303FB53
:1010E00010400028DBD0D4E74FF0FF340148FFF771
:1010F000F4FED0E7D008010843689A6C22B99A6CD4
:1011000012B903F150029A647047000008B5064B0B
:101110000360FFF7F1FF43689A6D824204BF00222B
:101120009A65FFF7E9FF08BDDC73041010B50446AB
:10113000FFF7ECFF204601F02DFB204610BD00001C
:1011400038B5054601F022FA074B1B68002B08DD75
:10115000064C2078A84218BF002401F021FA20464E
:1011600038BD0024F9E700BF40090108E008010884
:10117000044A1368591C1160034A602000FB0320D5
:10118000704700BF40090108E008010838B5002594
:101190000823C0E906350A4B0362FF238384044613
:1011A00001F0F4F92846FFF7CBFF0546606018B957
:1011B000FFF7DEFF60600570BDE8384001F0F0B970
:1011C00040420F0010B504460A482060A38104F194
:1011D0001000BDF90830E381002321816281236181
:1011E0004FF0FF31436000F0D3FE2046FFF7CEFF03
:1011F000204610BDDC73041037B504464068836D8B
:10120000A34219D0B4F90E50B4F90C30B4F90A2045
:10121000B4F908100095043004F0BCF960680023AC
:10122000D4E90612043004F065FA6068216A0430DB
:1012300004F080FA63689C6503B030BD036870B544
:1012400004461B690D46164698476068836DA342A5
:10125000C4E906560BD1002332462946043004F077
:1012600049FA236820465B69BDE87040184720466C
:10127000FFF7C2FFF5E7036870B504461B690D462A
:10128000984760682562836DA34209D129460430DE
:1012900004F050FA236820465B69BDE870401847A7
:1012A0002046FFF7A9FFF5E7B0F914305A1C08D023
:1012B00003F0070201230069934009B943607047B6
:1012C0008360704738B5036804461B69984794F9F2
:1012D00025506B1C84F8253045B92046FFF78CFF5C
:1012E00029462046BDE83840FFF7DEBF38BD10B5BF
:1012F00090F82530013B5BB2044680F8253013B9E5
:101300000121FFF7D1FF236820465B69BDE810404B
:10131000184738B504460D46FFF7D4FF60682946E4
:10132000043004F02CFA05462046FFF7E0FF28467B
:1013300038BDF7B504461F460D461646FFF7C2FFF7
:1013400094F8243060680193089B009329463B463B
:101350003246043004F021FA05462046FFF7C7FF65
:10136000284603B0F0BD70B5036804461B690D46FE
:101370009847236884F8245020465B69BDE8704094
:10138000184710B5044601F001F923681BB1237F0B
:101390000BB101F033FA0023236001F001F920467C
:1013A00010BD10B5044601F0F1F8236853B9237F4E
:1013B0000BB101F003FAA06901F024F8C4E90201BD
:1013C00001232360BDE8104001F0EAB8F8B50446F7
:1013D00001F0DCF8236873B1A06901F013F8D4E9D7
:1013E0000245041B61EB050526462F4601F0D8F89F
:1013F00030463946F8BD00260027F7E72DE91848A2
:10140000044601F0C3F82046FFF7E0FFD4E90423C7
:1014100010EB020B41EB030C2368C4E904BC1BB1C5
:10142000237F0BB101F0EAF900232360BDE81848DF
:1014300001F0B6B82DE9F041064601F0A7F83046B4
:10144000D6E90478FFF7C2FF3C1848EB010501F02C
:10145000A7F820462946BDE8F08108B5FFF7EAFF66
:101460004FF47A72002305F0F5FD08BD10B504466F
:1014700001F08CF8A06900F0C5FF00220023C4E948
:101480000201C4E90423BDE8104001F089B800233B
:1014900010B5002203600023C0E90223C0E9042341
:1014A000044600F0C5FF0123A06123772046FFF723
:1014B000DDFF204610BD0000052804D006280348A3
:1014C00018BF002070470248704700BF24780410FE
:1014D000F47704100C22002105F0E4BC10B504469A
:1014E000A8B103689BB1406808B15B6A9847A068DF
:1014F00038B12368D968490000F024F9A06805F0E4
:10150000AFFC20460C21BDE8104000F01BB910BD17
:1015100070B5044616460D4699B190B10B6A9847CE
:10152000606048B156B1E968022005F065FCA06032
:1015300020B96B6A60689847034801E02560002085
:1015400070BD0248FCE700BF80AEFFFF00AFFFFFA9
:101550002DE9F0410E4688B017460446002857D0C2
:101560000368002B54D08268002A51D0DA68BA424E
:1015700017D21B69406898470546002834D1236874
:1015800060685B693A4631469847054660BB236808
:1015900060689B6969469847054628BB23689F6831
:1015A0006E462368D4F80880DA683621404608EB96
:1015B000020505F077FC23685C21DA68284605F00F
:1015C00071FC013E4346681E47449F4214D1236884
:1015D00060681B699847054630B9236860685D6993
:1015E000DA684146A84705462021684600F0AAF877
:1015F000284608B0BDE8F08116F8011F1A784A4065
:1016000003F8012B10F8012F31784A400270DCE713
:10161000004DEDE700AFFFFF10B440B1036833B1F8
:10162000846824B15B6940685DF8044B1847024840
:101630005DF8044B704700BF00AFFFFFF0B50E46EA
:1016400089B0044620B3036813B3826802B3DD682F
:1016500040689B69694615449847B8B92368606833
:101660001B69984790B9236860685F69DA68294602
:10167000B84758B9236860685D699A686946A847A1
:1016800020B9236860689B693146984709B0F0BD6E
:101690000048FBE700AFFFFFF0B50E4685B01746E8
:1016A0001D46044610B301A8FFF714FF214601228E
:1016B00001A8FFF72DFF044690B93A46314601A82C
:1016C000FFF746FF044658B90A9A294601A8FFF7D2
:1016D000A3FF044620B90B9901A8FFF7AFFF04460A
:1016E00001A8FFF7FBFE204605B0F0BD004CFAE76D
:1016F00000AFFFFF00F090B800F035B810B5044619
:1017000000F02CF82046BDE8104005F0A9BB10B54C
:101710006C21012005F070FB044608B100F01AF8B6
:10172000204610BD012300F0E5B9002300F0E2B926
:1017300000F049B900F008B9012100F019B8002102
:1017400000F016B8024B0A461B680021184700BF7C
:10175000900201086C22002105F0A4BB10B16C219D
:10176000FFF7F0BF704708B56C2205F090FB08BD8D
:101770000023C0E90033C1B9194A1A4BDFF88CC005
:10178000C0E90223184B194AC0E904C3184BC0E949
:101790000623184B036203F17453A3F52303A3F646
:1017A00092434362816600207047134B134ADFF86F
:1017B00060C0C0E9022303F1794303F5740303F524
:1017C000016303610E4BC0E905C303F1D14303F587
:1017D000C01303F51E63C3610A4B03620A4BE0E7C3
:1017E00067E6096A85AE67BB3AF54FA57F520E5191
:1017F0008C68059BABD9831F07D57C36D89E05C165
:10180000310BC0FFA78FF964A44FFABE72F36E3C90
:1018100039590EF7FFF7ACBF2DE9F04FCBB000F10F
:10182000080300931A460191002302A852F8041BF2
:1018300040F823100133082BF7D1DDE90787DDE9F4
:101840000236DDE904EBDDF82490069909AA0024AC
:101850000F2C5ED8019D05EB840C15F824A09CF894
:10186000035045EA0A659CF801A045EA0A459CF840
:1018700002A045EA0A2555604FEAF12C88EA0705DF
:101880008CEAB11C0D408CEA716A7D400AEB050CB4
:101890002C4D55F82450654452F804CF6544A944B2
:1018A00046EA030A4FEA733509EB0B0C85EAB305E8
:1018B00006EA030B0AEA0E0A4AEA0B0A85EAB3555E
:1018C00001345544402C4D44F346B9461AD1CDE974
:1018D0000718CDE9046ECDE902530997CDF818C079
:1018E0000023009A116802AA52F823200A440099A2
:1018F000013341F8042B082B0091F2D100204BB0AA
:10190000BDE8F08FB64647461E4688462B466146E0
:101910009EE752F8045C52F838AC52F8180C4FEAC3
:10192000F54C8CEA754C8CEA952C52F83C5C2844BA
:101930004FEABA4585EAFA15844485EADA0A0CEBDF
:101940000A0598E7647804102DE9F84305460E4629
:10195000144612B90020BDE8F883036803F03F077E
:10196000D318036022BF436801334360A7B1C7F1B6
:101970004008424510D300F12809424609EB070010
:1019800005F085FA49462846FFF746FF0028E2D1D0
:101990004644A4EB08040746264405E02846FFF722
:1019A0003BFF0028D7D1403C3F2CA6EB0401F5D8E3
:1019B000002CCFD005F128002246384405F067FA04
:1019C000C8E7FFF7C1BF036803F03F035A1C034495
:1019D00070B5382A0D4600F128064FF08001044604
:1019E00083F8281006EB020073D8C2F138020021F8
:1019F00005F058FAD4E900315A0F42EAC102110E3B
:101A0000DB0084F86010110C84F8611084F8632006
:101A1000110A1A0E84F864201A0C84F865201A0A38
:101A200084F8621084F8662084F8673031462046D6
:101A3000FFF7F2FE00284BD1E37A2B7063896B70BD
:101A4000A3681B0AAB70A368EB70E37B2B71E3897F
:101A50006B71E3681B0AAB71E368EB71E37C2B727B
:101A6000638A6B7223691B0AAB722369EB72E37D95
:101A70002B73E38A6B7363691B0AAB736369EB7344
:101A8000E37E2B74638B6B74A3691B0AAB74A3692D
:101A9000EB74E37F2B75E38B6B75E3691B0AAB7506
:101AA000E369EB7594F823302B76638C6B76236AAD
:101AB0001B0AAB76236AEB76A36E4BB994F82730FA
:101AC0002B77E38C6B77636A1B0AAB77636AEB77E0
:101AD00070BD0021C2F1400205F0E4F93146204614
:101AE000FFF79AFE0028F3D10146382230467FE7FF
:101AF000FFF769BFF0B59DB01C46064601A80F462A
:101B00001546FFF727FE214601A8FFF731FE0446E0
:101B100058B93A46314601A8FFF716FF044620B9E6
:101B2000294601A8FFF74FFF044601A8FFF716FE5C
:101B300020461DB0F0BD10B5072300220121C407C7
:101B400044BF01FA03F4224313F1FF334FEA50007C
:101B5000F5D2104610BD00002DE9F04F8FB00746BA
:101B600006A816460C469A46FFF7ABF9102200214C
:101B70000AA805F097F956B96348644C04F0DCFAFA
:101B800006A8FFF79FF920460FB0BDE8F08F06A822
:101B9000FFF7ACF9054628B101465D485D4C04F0FD
:101BA000CBFAEDE7394606A8FFF78FF907F18F0367
:101BB0009C420BD25848554C04F0BEFA5349574842
:101BC00004F0BAFA06A8FFF7ABF9D9E706A8FFF7C1
:101BD0007EF9814606A8FFF77CF948448442E9D89B
:101BE000631CDC1B4FEA5409A94507EB050104D926
:101BF00006A8FFF76AF90544F6E7641BDFF82CB185
:101C00000C91CDE90A750D94002506A80AACFFF7E2
:101C100062F954F835200DF120088146082340323E
:101C2000414606A8FFF794F930B918F800304B4543
:101C300026D101300828F8D12DB139493948384C1E
:101C400004F07AFABEE70125DFE70491DDE900013F
:101C5000894508BF804552D212F8010F03920592C0
:101C6000FFF769FF80EA1760C0B20499039A51F840
:101C7000200018F1010880EA072749F10009E4E78C
:101C8000189BBDF822700BB1189B1F60BA45D3D3C7
:101C900054F835203B46314606A8FFF759F904466B
:101CA0000028C9D12049BAB20023CDE900234FF062
:101CB0000008721E4FF000094FF0FF370029C4D111
:101CC000DDE90001894508BF804518D212F8010FEF
:101CD0000392FFF730FF039A87EA00670821002F7D
:101CE00001F1FF314FEA4707B8BF87EA0B0711F050
:101CF000FF01F4D118F1010849F10009E0E7099A60
:101D0000BA423FF45FAF97E7647904100101FF80A6
:101D1000877904100F01FF80AF790410EA7904106D
:101D20000701FF801B7A0410F4730410B71DC1046F
:101D30002DE9F74F054668460E46FFF7C2F84A49B7
:101D4000084605F07DF920B9484B2B604FF4004060
:101D500005E04749444805F073F948B928602B6805
:101D6000034433602B688BB940B94FF0010811E090
:101D700040493D4805F064F90028E7D03E4C6846EC
:101D8000FFF7A0F8204603B0BDE8F08F0028F5D09B
:101D90004FF000086846FFF7A9F80446002860D114
:101DA000364B37481844374BA0EB030A5146684678
:101DB000FFF78BF881466846FFF789F807466846C3
:101DC000FFF787F80744B8F1000F2FD1D5F800804E
:101DD00068464146FFF779F8234602468146214688
:101DE000404605F037F9D6F800A000FB09F90AF1E2
:101DF000FF316846FFF769F84FF0000B8046024656
:101E00001AF1FF3023464BF1FF3105F023F92B681F
:101E10004B4500FB088804D13368434501D1BB42E0
:101E20001BD96846FFF77CF8174CA8E7791E68466F
:101E3000FFF74BF84FF0000BA7EB40081AF1FF300B
:101E40004A464BF1FF31234605F004F900FB09999E
:101E5000C845E6D3C5F8008037606846FFF760F8EC
:101E60008DE70A4C8BE700BF4C7A041000000F107E
:101E7000577A0410647A04100901FF805491041009
:101E8000380801088C0201080601FF800F01FF805D
:101E900030B5144D2B78BFF35B8F13F0010487B07E
:101EA0001CD1284600F04AFCC0B10F4A049400231C
:101EB000CDE9022340F6034340F601424FF440616E
:101EC00000930A4840F60243FEF79AFA284600F0CB
:101ED00047FC074A0749054800F01FFC034807B0C4
:101EE00030BD00BF4409010840420F004809010805
:101EF0008C02010819050410EFF31083DB4372B65E
:101F0000044A117829B9044903F001030B70012335
:101F100013707047C1090108C0090108034B002272
:101F20001A70034B1B7803B162B67047C1090108F0
:101F3000C009010808B510461A4604F0A8FF0020A1
:101F400008BD38B504460D46A388006803F00701B4
:101F500001238B4052B943602046012101F0CBFAA6
:101F600029462046BDE8384001F0C2BA8360F3E755
:101F700070B50E460446154601F092FA013606D0B9
:101F80002A4620460021BDE87040FFF7DABF70BD49
:101F90000022FFF7EDBF0000884207B502460AD0D5
:101FA000431C08D0013105D0002300931946044892
:101FB00000F086FB0146084603B05DF804FB00BF55
:101FC00030010180B1F900305A1C01D11846704728
:101FD000834201D1486870470C31F3E7431C07B5D1
:101FE0000AD0FFF7EFFF431C06D1002302460093FF
:101FF0001946034800F064FB03B05DF804FB00BF22
:1020000030010180B1F900305A1C01D118467047E7
:10201000834201D1886870470C31F3E7431C07B550
:102020000AD0FFF7EFFF431C06D1002302460093BE
:102030001946034800F044FB03B05DF804FB00BF01
:10204000300101802DE9F34DD0F8048098F83A3042
:102050000446002B64D103685B68984763681B6A79
:1020600083425DD0D8F82010D8F80C30C8F8200092
:10207000411AD8F808603748194086420C464FF09C
:10208000000546D098F83B30A1FB00120027D8E9A4
:102090000AABCDE90012002B45D0009921FA03F4D8
:1020A0000199C3F1200CA3F1200201FA0CFC21FAE2
:1020B00002F221FA03F5DDE9000144EA0C041443BD
:1020C00010EB0A00A3F1200C41EB0B01C3F120023D
:1020D00005FA03FB04FA0CFC24FA02F204FA03FAF0
:1020E0004BEA0C0B4BEA020BB0EB0A0261EB0B0361
:1020F000BB4208BFB24202D2C8E90A2309E0013458
:1021000045F10005921B63EB070310461946C8E929
:102110000A01D8E90C01021941EB0503C8E90C23B7
:1021200002B0BDE8F08D32463B46DDE9000104F027
:1021300091FF044612EB0A000D4643EB0B01B94236
:1021400008BFB042E3D3013445F10005821B61EBC7
:102150000703D1E740420F00824206D98A420BD9D9
:10216000884294BF002001207047884206D98A42E5
:102170008CBF00200120704701207047002070476D
:102180002DE9F74F466896F83A300746002B40F0A5
:10219000918096F83930002B40F08C80FFF752FF89
:1021A0007D68D7F800A06968002978D0D5E90C23AC
:1021B000D1E900018B4208BF824205D3DAF814301E
:1021C00003B0BDE8F04F1847801A61EB0301CDE979
:1021D0000001DDE90023D5E90601994208BF9042DC
:1021E0002C6907D3A9683548814218D1009B9C42CD
:1021F00028BF1C462A6ADAF810301444EA681440F2
:10220000204698473B685B68984722460146306AFB
:10221000FFF7A2FF00284DD03B685B69D0E795F837
:102220003BC0BCF1000F28D0019B244A03FA0CF3F9
:102230001946009BACF1200803FA08F841EA0803AC
:102240001946009BDFF87880CCF1200E23FA0EFEB1
:1022500041EA0E031946009B03FA0CF318464FF0AF
:10226000000910EB08004FF0000341EB090104F0F6
:10227000F1FE844228BF0446BCE7009BDFF840B073
:102280000E4AA1FB0389019B4FF0000C01FB03994F
:102290001BEB08004FF000034CEB0901E7E7336943
:1022A000306AF2681844DAF81030104003B0BDE824
:1022B000F04F184703B0BDE8F08F00BF40420F0059
:1022C0003F420F0043682DE9F74F93F83820054649
:1022D000002A60D193F83A30002B5CD103681B6868
:1022E00098472B68DB6998472C4BD0F80080012277
:1022F000B8F1000F08BF98461F2302FA03F14145C9
:102300005FFA83FA02D0013BF7D19A464468234E24
:10231000231F1D2B28BF2024231F4FF0070918F16E
:10232000FF3009FA03F94FF0000343F1FF31424651
:10233000C6FB090104F08EFE6B682A6801934FF01A
:10234000000BC3E900BB52680F4606469047019B4D
:102350000122186202FA04F46B6800210020013C9B
:10236000C3E90A01C3E90C01C3F80880284683F8D1
:102370003BA0C3E90349C3E9066783F839B083F892
:102380003AB083F83820FFF75DFE284603B0BDE879
:10239000F04FFFF7F5BE03B0BDE8F08F40420F00ED
:1023A00070B5044600F0F2F82368DB68984763686C
:1023B00093F83A201AB1BDE8704000F0F1B801225C
:1023C00083F8392063685B68A3B12046FFF73AFEC3
:1023D00065686E68D5E90C01D6E90023994208BF0B
:1023E000904207D3F3686B602B68002BEAD0B0688B
:1023F0009847E7E76368002283F839202046FFF713
:10240000BFFED8E738B50446FFF75CFF00F0BEF822
:102410002046FFF717FE6368D3E90C4500F0C0F8CB
:102420002046294638BD08B5FFF7ECFF08BD00007F
:10243000004870476C7A0410024B1B680BB10248CD
:1024400018477047940201086C7A041004F08EBD9E
:1024500004F03EBD04F02EBDF0B572B6234ADFF89D
:1024600098C0002313604FF0E0221C46516801F031
:102470000F0101314FF0FF371E46A20002F160420A
:1024800002F56142C2F88070C2F880710022D5184E
:1024900065440132082A85F80063F8D10134A1426D
:1024A00003F10803E9DC124B4FF020625A6040F25E
:1024B000FA529860DA6000221E6111469C180132BF
:1024C0000C2A2176FAD14FF0FF3259629A62094AFA
:1024D000DA621F221A63D0E90031002282F31488E5
:1024E0009D4682F310880847F0BD00BF10E000E071
:1024F00000ED00E0020000C000E100E0838803F08E
:102500000702012310B59340046809B9636010BD48
:10251000A360FCE707B500F039F803216846FFF730
:1025200037FD124D042401216846FFF7E7FF2846D6
:1025300000F080F900216846FFF7E0FF284600F030
:1025400079F9013CEFD10A4E042401216846FFF7D6
:10255000D5FF304600F06EF900216846FFF7CEFF48
:10256000304600F067F9013CEFD1DBE7F0490200AB
:10257000801A0600EFF31080C04300F0010070479E
:10258000EFF30580003018BF0120704708B5FFF752
:10259000B3FC024A13680133136008BD080A01083E
:1025A000044A136823B1013B13600BB9FFF7B6BCB3
:1025B000704700BF080A01080122D0E84F3FC0E879
:1025C000412F0029F9D1D8B2003018BF012070473F
:1025D000D0E85F3F0B449BB2C0E8523F002AF7D1DE
:1025E00018467047D0E85F3F5B1A9BB2C0E8523F85
:1025F000002AF7D11846704708B50B48FFF7DCFFF3
:1026000028B1FFF7C3FFBFF34F8F20BFFDE7FFF7F0
:10261000B7FF08B1FFF77EFFFFF7ACFF0028F9D046
:10262000012000F07CF800BF4C0A010870B5164C80
:102630008EB034EA200428BF04460D461646002119
:10264000342201A804F02EFCCDE901460395FFF7E2
:102650009DFF0E4A13680133012B136004D134220D
:1026600001A90B4804F013FC342201A9094804F025
:102670000EFC094B1B680BB106489847FFF790FF0B
:1026800000200EB070BD00BF0101FF800C0A0108E0
:10269000180A0108500A0108100A01080FB4064878
:1026A00008B57446FFF788FF014618B9224603486B
:1026B000FFF7BCFFFFF7A0FF140A01080001FF802D
:1026C00008B50446064876461546FFF775FF20B95B
:1026D000324629462046FFF7A9FFFFF78DFF00BFCE
:1026E000140A0108074A084913681844884289BF38
:1026F000064B10600C224FF0FF308CBF1A6018465A
:10270000704700BF9802010800650408404F0108A7
:1027100008B508B1FFF7FEFEFEE70120704708B5D7
:10272000FFF7F6FF012070477047704708B5FFF7C5
:10273000FBFF08BD08B5FFF7F8FF08BD0378DBB263
:1027400003F00303012B09D0037803F00302012AED
:1027500004D043F00203037001207047002070474B
:10276000037823F0030343F0010303707047000074
:1027700013B5044604F06CFB034628B900900146EB
:1027800022460248FFF79CFF02B010BD1F010180E6
:10279000FFF7EEBF04F064BB04F062BB7047704704
:1027A00008B500F085F9FFF7FAFF08BD08B5FFF797
:1027B000F5FFBDE8084004F00FB9000013B50D4C5B
:1027C000FFF7E4FE22884FF6FF739A4208D1FFF725
:1027D000E7FE00232288009319460748FFF770FFA1
:1027E00001212046FFF7F4FE02B0BDE81040FFF7DC
:1027F000D7BE00BF840A01082301048037B50B4C03
:10280000FFF7C4FE258845B9FFF7CAFE2288009568
:102810002B4629460648FFF753FF01212046FFF7C4
:10282000E1FE03B0BDE83040FFF7BABE840A0108FC
:102830002401048070B50446FFF7FAFD0646FFF751
:10284000F2FD05463046FFF7EEFD401BA042F9D3EE
:1028500070BD4FF47A735843FFF7ECBF7047FFF732
:10286000FDFF72B60F4C104DAC4209DA2168626868
:10287000A368043BA2BFC858D050FAE70C34F3E772
:102880000A490B4A00209142BCBF41F8040BFAE709
:10289000084809490860BFF34F8F00F013F9FDF7AE
:1028A00015FDFEE7349104104C910410B0080108A6
:1028B000444F01080000010808ED00E0FEE7FEE7D4
:1028C00000B504207146084202D0EFF3098001E010
:1028D000EFF30880043001F069FFFEE7012001F00A
:1028E000BFBA7047544BD3F8801301F00F018A0030
:1028F00002F1804202F5181210B5D2F8403313F0FD
:10290000070369D0042B5CD04C4B002969D14A4A9B
:10291000D2F89005D2F88815D2F8884514F0405FB7
:10292000C1F3017105D0D2F88825C2F30172012AE2
:1029300001D1C40701D4032913D13F4AD2F880152D
:10294000D2F88405D2F88025C0F30C00B3FBF0F078
:10295000C1F3110303FB00F1C2F300630133B1FBC8
:10296000F3F3354A3648D2F88023C2F30112D3403C
:10297000344A1360344AD2F890101269120E0132B0
:10298000B3FBF2F20260C1F307220132B3FBF2F3B0
:102990002E4A2F4913602F4A136003F5742202F266
:1029A0003F22B2FBF1F22C4903F2E7330A704FF4F5
:1029B0007A72B3FBF2F3294A1360294ADB031360EE
:1029C00010BDD2F8003303F01F03112B01D0132BDD
:1029D00004D14FF4004398E7224B96E74FF4FA43B3
:1029E00093E701390129BCD8D2F83C46D2F8FC154E
:1029F000D2F8FC0510F0405FC1F3017105D0D2F8A8
:102A0000FC05C0F30170012801D1E00701D40329BE
:102A1000A7D1D2F8FC15D2F8FC45D2F8FC0501F09C
:102A20007F025343C4F30422B3FBF2F3C0F3044226
:102A3000B3FBF2F395E700BF0000264000366E01BD
:102A4000A4020108A0020108000021409C02010824
:102A500040420F00AC020108B4020108B0020108B4
:102A6000A802010800127A0008B50D4800F0A8FE7F
:102A7000FFF737FFFFF736FF00221146042001F071
:102A80002DFA084801F0FEF8074B1B6893F8513007
:102A900013B1064801F032F9BDE8084000F060BF0C
:102AA000F0860410880A01080C0F0108E47E041067
:102AB00008B500F033FEFFF7D7FF00F017F862B655
:102AC00008BD000008B500F074FE074AD2F888304F
:102AD00043F47003C2F88830BFF34F8FBFF36F8F9A
:102AE000BDE8084000F069BE00ED00E008B500F068
:102AF00055F800F0C9F800F0EDF800F07DFABDE8F7
:102B0000084000F0DDBB0000F0B50F4B1C6894F8E6
:102B1000705094F87170A66894F8733094F872400D
:102B2000032202FA03F305FA04F423432940104078
:102B300043F00043B8400B430343C6F80034D6F8D3
:102B400000340020F0BD00BF0C0F010810B5094B88
:102B50001B6893F871409A6893F8703000F0030096
:102B60001940A04041F080410843C2F80004002011
:102B700010BD00BF0C0F0108074B1B68B3F8742091
:102B80009B681A4452F8203023F47F4343EA012122
:102B900042F82010002070470C0F010808B50021F2
:102BA0000120FFF7D3FF284B1B689A68B3F8761013
:102BB0008B5823F47F0323F47F4343F4793343F4A6
:102BC00040738B5001200021FFF79EFF0021084633
:102BD000FFF7BCFF00210846FFF7CEFF00210846A3
:102BE000FFF792FF01210020FFF7B0FF072101202E
:102BF000FFF7C2FF01210020FFF786FF022100201E
:102C0000FFF7A4FF6C210220FFF7B6FF022100208E
:102C1000FFF77AFF03210020FFF798FF012103202F
:102C2000FFF7AAFF03210020FFF76EFF0421002019
:102C3000FFF78CFFFF210420FFF79EFF04210020F7
:102C4000BDE80840FFF760BF0C0F010830B50C4B22
:102C50001B6893F83F4084420FD993F871509C68E9
:102C600093F8703001F0030100F54070A9401A405C
:102C7000114344F82010002030BD0248FCE700BF9B
:102C80000C0F010801004A0008B50422002133207E
:102C9000FFF7DCFF022200211046FFF7D7FF0122D9
:102CA00000210320FFF7D2FF022200210520FFF7B9
:102CB000CDFF032200211C20FFF7C8FF0022114690
:102CC0000920FFF7C3FF002201213A20BDE8084098
:102CD000FFF7BCBF10B5634C634A0021204600F0EB
:102CE000E5FE624A0121204600F0E0FE604A032131
:102CF000204600F0DBFE5F4A0421204604F5B06464
:102D000000F0D4FE5C4A0121204600F0CFFE5B4A71
:102D10000221204600F0CAFE594A0321204600F055
:102D2000C5FE584A0421204600F0C0FE564A05213F
:102D3000204600F0BBFE554A0621204600F0B6FEB4
:102D4000534A0721204600F0B1FE04F5C074514AF1
:102D50005148072100F0AAFE504A0021204600F009
:102D6000A5FE4F4A01212046A4F5D06400F09EFE46
:102D70004C4A0121204600F099FE4B4A052120468D
:102D8000803400F093FE494A0021204600F08EFE78
:102D9000474A0121204600F089FE464A022120468A
:102DA00000F084FE444A0321204600F07FFE434A9F
:102DB0000421204600F07AFE414A0521204600F019
:102DC00075FE404A06212046803400F06FFE3E4AE0
:102DD0000021204600F06AFE3C4A0121204600F016
:102DE00065FE3B4A0221204600F060FE394A03217D
:102DF000204600F05BFE384A0421204600F056FED3
:102E0000364A0521204600F051FE04F58074344A0C
:102E10003448002100F04AFE334A0021204600F0E9
:102E200045FE324A01212046803400F03FFE304A00
:102E30000021204600F03AFE2E4A0121204600F0F3
:102E400035FE2D4A0421204600F030FE2B4A062193
:102E5000204600F02BFE2046294A0721BDE81040FD
:102E600000F024BE00003240CC850410008604101F
:102E7000F0810410948404108881041028830410C5
:102E8000C08204108C820410588204102482041022
:102E9000F4820410548104108006324034860410F9
:102EA00068860410BC81041020810410C4830410BF
:102EB000F88304102C8404106084041090830410A0
:102EC0005C830410848004101C8004105080041063
:102ED000E87F0410B47F0410807F04104C7F04103E
:102EE000187F041000023240648504109885041095
:102EF000B8800410EC80041030850410FC840410A9
:102F0000C88404100A4B1B6893F83E30834281BF8B
:102F1000800000F1804000F51810D0F8803383BFA6
:102F200043F00043C0F8803300200248704700BFE0
:102F30000C0F010801004A000A4B1B6893F83E3051
:102F400083420DD9800000F1804000F51810D0F8C0
:102F5000803323F00F031943C0F88013002070471B
:102F6000014870470C0F010801004A000B4B1B6819
:102F700093F83E3083420ED9800000F1804000F586
:102F80001810D0F8803323F0300343EA0111C0F861
:102F90008013002070470248704700BF0C0F0108E3
:102FA00001004A00044B1B681968D3F884208B5831
:102FB00023F47F438B5070470C0F0108044B1B68B0
:102FC0001968D3F888208B5823F47F438B507047BF
:102FD0000C0F0108064BD3F80C2542F00042C3F851
:102FE0000C25D3F80C2542F00102C3F80C257047DC
:102FF00000002640FEE7000073B59621002001F096
:1030000021FC01F0C5FB70B901F0B4FBA44BD3F86F
:103010008021D2075EBFD3F80C2522F00042C3F80E
:103020000C25FFF7D7FF012001F0D0FD9D4A536C1E
:1030300023F47F4343F468535364536CC3F307236F
:103040003A2B07D1536C23F0005323F4685343F415
:10305000685353640021944D0846FFF787FFFFF73C
:10306000ADFF2B681968D3F884208B5823F07F4379
:1030700043F080738B50FFF795FF2B6893F83D303A
:103080008BB1874CD4F8003623F0405343F0005303
:10309000C4F80036012001F05DFBD4F8003623F0BF
:1030A0000043C4F800360021012001F0AFF97C4B49
:1030B000D3F8804314F00F040AD1204601F0D0F970
:1030C00040F21113984203D101212046FFF734FF4B
:1030D000734B764ED3F8882522F0405242F00052CE
:1030E000C3F88825D3F8802522F00042C3F8802554
:1030F000D3F88C25002122F00042C3F88C25084625
:1031000001F084F9002100240846FFF715FF23464B
:10311000224621460094664800F060FD2246009455
:103120002346604C6248012100F058FD226842F0BD
:103130000802226023695B0709D41EB90520FFF746
:1031400059FF06E0012001F005FB013EF2E7002EE9
:10315000F4D0534AD2F8003523F0030343F00103BF
:10316000C2F80035FFF72AFF2B68D3F884201968CE
:103170008B5823F07F438B50FFF714FF0021012071
:1031800001F044F901210020FFF7D6FE0021084696
:1031900001F03CF90021022001F038F90021032060
:1031A00001F034F90021042001F030F9414801F028
:1031B00069F910B10420FFF71DFF3F4801F0B4F991
:1031C00010B10420FFF716FF00210846FFF7B4FEF8
:1031D00000210846FFF7CAFE0021012001F016F980
:1031E0003649012001F000FA10B10320FFF702FF79
:1031F00042F21071012001F03FFA10B10320FFF7F5
:10320000F9FE01210846FFF797FE00210120FFF794
:10321000ADFE0120FFF776FE00210220FFF78CFEB5
:1032200001210220FFF7A2FE0220FFF76BFE012121
:103230000320FFF781FE00210320FFF797FE032004
:10324000FFF760FE164BD3F8042522F00042C3F8C6
:103250000425D3F8042522F4407222F00102C3F8B9
:103260000425D3F8042522F47F02C3F80425D3F8FB
:10327000042542F00042C3F80425002001F000FDBF
:10328000084A136823F440731360FFF7A3FE642118
:10329000002001F0D7FA02B0BDE87040FFF722BB72
:1032A00000002640000027400C0F010840420F009C
:1032B000000032409C860410400D0300B0860410CC
:1032C00008B500231A464FF080412E2001F062FD20
:1032D00000231A461B492F2001F05CFD00231A46EB
:1032E000194940F6016001F055FD00231A461749BF
:1032F00040F6026001F04EFD00231A46144940F6E4
:10330000046001F047FD00231A46124940F60860A8
:1033100001F040FD00231A460F4940F22B1001F046
:1033200039FD00231A460D494FF4967001F032FD25
:103330000B4B42F2080133225A5042F210015A500C
:1033400008BD00BF01000040010E0040040E004017
:10335000030E0040000E0040030100400101004048
:1033600000003140002070470020704708B5084633
:1033700000F0FCFA003018BF0120404208BD0000F8
:103380002DE9F74F1C46DFF868B0184B0D46924602
:1033900000272CB901F0E6F9384603B0BDE8F08FFC
:1033A000C5F3080804EB0802B2F5007F05EA03093B
:1033B0008CBFC8F5007626464FF4007249460C488B
:1033C000019303F064FD324651460BEB080003F015
:1033D0005EFD0749484600F003FB002818BF4FF088
:1033E000FF373544A41B019BD3E700BF00FEFFFF5E
:1033F000080C010801F17041B1F5801F34BF4FF492
:1034000000704FF0FF307047202070474FF0805021
:1034100070474FF480107047002070478288C3794E
:10342000F0B502F007028579052B28D8DFE803F014
:1034300019032123251F0A2318490068096891F8F8
:103440007D709400C1590F26A64021EA060103FAB7
:1034500004F42143C1511DB90A2B14D00B2B17D0F2
:10346000F0BD75B1012D0CBF0E230023E4E70E2340
:10347000E2E70B23E0E70C23DEE70D23DCE7002384
:10348000DAE70823D8E7012303FA02F28260E7E7CC
:10349000012303FA02F24260E2E700BF0C0F0108C9
:1034A00037B504460023A1808371C3714B1C0D46C0
:1034B00019D0FFF765F828B9FFF75CF810B928466E
:1034C00000F094F8094AA18812680B0A90690E2B43
:1034D00098BF00EBC310002320600093082201F086
:1034E000070100F07BFB03B030BD00BF0C0F0108EB
:1034F000C171FFF793BF8171FFF790BF052913D802
:10350000DFE801F005030C0E100A0A2070470128BD
:103510000CBF0E20082070470E2070470B2070470C
:103520000C2070470D20704700207047431C73B576
:103530000A461DD01449096884B2230A8D690E2BEE
:10354000C2F30341C2F3005098BF05EBC315FFF768
:10355000D5FF04F00704D2B20646009201230246CA
:103560002146284600F03AFB0A2E03D00B2E06D047
:1035700002B070BD012000FA04F4AC60F8E701204D
:1035800000FA04F46C60F3E70C0F0108F8B5431C73
:1035900002461ED00020FFF7B1FF93B2124A126814
:1035A0001C0A916992F87D600E2C98BF01EBC41142
:1035B00003F007039F008A590F25BD4000F00F0458
:1035C00022EA0502BC4022430A288A5102D00B2875
:1035D00005D0F8BD012202FA03F38B60F9E701225E
:1035E00002FA03F34B60F4E70C0F010880B270B5E8
:1035F000060A0D2E00F0070513D8FEF7C7FF0A4B89
:103600009A5D42FA05F414F0010403BF0120A840BA
:1036100010434FF0FF3408BF9855FEF7C1FF204616
:1036200070BD0248FFF73AF8080E0108C78604107B
:1036300070B506460C460D4DFEF7A8FF0C2303FBA4
:1036400006F0291801228B68A24013EA02060BD16A
:1036500013432A588B60631C9A424B6000D24E6021
:10366000FEF79EFF204670BDFF24F9E7B80201086F
:103670002DE9F84306461C4C4FF00C0808FB06F8F1
:1036800004EB0807FEF782FF79683046FFF7D0FFAA
:10369000FF280546234616D1D7F8049054F80810A1
:1036A00009F101028A427A604FF00C0484BF0022C3
:1036B0007A6004FB0634002761683046FFF7B8FFE4
:1036C000FF28054604D0FEF76BFF2846BDE8F883C7
:1036D000D4E900329A4288BF676063684B45F2D0F4
:1036E00001336360E8E700BFB8020108072838B576
:1036F00005460DD8FEF74AFF074B5C5D2CB9012249
:103700005A55FEF74DFF204638BD4FF0FF34F8E71D
:103710004FF0FF34F7E700BF160E0108F0B51B4964
:10372000002287B013460D46535401320E2AFBD1B6
:10373000174A137053709370D37013715371937150
:10374000D3710023134A194699540133202BFBD11E
:10375000114B01AA03F11007164618685968144660
:1037600003C40833BB422246F7D11B8823800023C1
:10377000F21802339178D2786A54102BF8D1074BA3
:1037800011229A6001225A6107B0F0BD080E0108AB
:10379000160E01081E0E0108B5860410B8020108B5
:1037A0000230800803D001300238FCD100BF00BFD6
:1037B0007047EFF3108072B6704780F3108870473F
:1037C000014B1860704700BF0C0F0108034B1B68CA
:1037D0001A68D3F88430D058000E70470C0F0108D7
:1037E000044B1B681A68D3F88430D058C0F3072004
:1037F000704700BF0C0F0108034B1B68B3F8B020E3
:103800001B6A00FB023070470C0F01081D4B9842E9
:103810000ED00FD840282ED005D800282FD0102841
:1038200027D019487047802827D0B0F5807FF8D17D
:1038300014487047154B984214D008D8B0F1204F67
:103840001DD0134B9842ECD14FF4A0007047114BA0
:1038500098420AD00133984209D0023B9842E0D105
:103860000D4870474FF4A40070470C4870470C484F
:1038700070470C4870470C4870470C487047002050
:10388000704700BF06005200FF005200010000F028
:10389000090000A0040000F00100520002005200E4
:1038A00003005200010050000200500005005200C9
:1038B00008B50120FFF7A0FF094B1A68D2F8B43011
:1038C000C358002B0ADB074B1868FFF79FFF5368AC
:1038D00001229A609A68002AFCD108BD0248FCE7E0
:1038E0000C0F0108400E010802005000174B13B5E1
:1038F000186020B14FF60273038000234380144CFC
:10390000236893F85010F1B11B8FADF800301149C6
:1039100000236846019300F0F3FEBDF90030002B50
:1039200008DB5909012203F01F0302FA03F30A4AD4
:1039300042F82130236893F8513023B1022207491D
:10394000012000F03BFA02B010BD00BF500E01088C
:103950000C0F01083B04010800E100E00904010824
:103960000148FFF7C3BF00BF540E010838B5C0F3CC
:103970000804054634BBFEF7B5FF134B134A1A6023
:103980005D609C60DC60124B1B6893F8541099B129
:10399000FFF71CFF0146FFF723FF013001FB00008A
:1039A0000C4B0D49414318684FF47A73B0FBF3F0A8
:1039B000B1FBF0F101F698014FF48070BDE838409A
:1039C00003F0D6BC054838BD400E01080001001CBC
:1039D0000C0F0108A002010860F5900006005200DB
:1039E000C0F3080370B506460D4643BB39B3FEF776
:1039F00079FF144B144A1A604FF480745C609E6027
:103A0000DD60124B1B6893F8531099B1FFF7DEFE8F
:103A10000146FFF7E5FE013001FB00000C4B0D49AC
:103A2000414318684FF47A73B0FBF3F0B1FBF0F147
:103A300001F561712046BDE8704003F099BC06486D
:103A400070BD00BF400E0108000100060C0F010808
:103A5000A0020108808D5B0006005200124B70B579
:103A60001C68A3696669C01AC0090001032900EB3C
:103A7000060402F01F024FF01F0309D88459CD003D
:103A8000AB4024EA030302FA05F10B43835170BDF6
:103A900004396068C9008B4020EA030302FA01F18F
:103AA0000B436360F3E700BF0C0F01082DE9F843F7
:103AB0000F4616460446002800F08980002A00F0D0
:103AC000868013684FF0010808FA01F8002B7BD1BB
:103AD000C0F80480DFF80091D9F8003093F87D1029
:103AE000BD000B590F22AA4023EA0203726802F0BC
:103AF0000F02AA4013430B51327A39462046FFF792
:103B0000ADFFD9F800C09CF87CE003235EF8040008
:103B10007A0003FA02F120EA0101F06818409040AF
:103B200008434EF804003169A0696FEA080E01F0FD
:103B3000010100EA0E00B9400143A1619CF87E102A
:103B4000706951F8049000F0010009EA0E0EB840C7
:103B500040EA0E0008519CF87FE0B169F0695EF818
:103B600004901032184001F001019340904043EA64
:103B70000808B940014329EA080841EA08014EF85B
:103B80000410736AB06A9CF880205B00800000F02B
:103B9000040003F002030343306A115900F00100EE
:103BA0000343F06AC00000F018000343306B40018B
:103BB000C0B2034305F47E75AB4021F0FF010B4317
:103BC00013510020BDE8F883C0F8088082E701485F
:103BD000F8E700BF01005A000C0F0108F0B44FF0E5
:103BE000010C05689DF810700CFA01FC03F001034C
:103BF00025EA0C058B401D430B4B05601B6893F8B1
:103C00007DC08C0050F80C300F25A54002F00F024B
:103C100002FA04F423EA050323433A4640F80C3041
:103C2000F0BCFFF71BBF00BF0C0F0108054B1B6862
:103C3000D3F8B430C358002BBDBF89B24160002017
:103C4000014870470C0F010801008A000368002B2F
:103C5000BFBF89B2C26081600020A8BF0048704722
:103C600001008A00054B1B68D3F8B430C358002B01
:103C7000BDBFC3680B600020014870470C0F0108EE
:103C800001008A00024B1A6802B91860704700BF31
:103C9000580E0108F0B52C246043164C059F25688A
:103CA0005FFA83FE45F800E02C1813480668306A76
:103CB000B6F8B060C3F307254FEA134C0EFB0606B7
:103CC0002661634605F18006656000EB46161B041D
:103CD00000EB451041F2080543EA0C03C4F808C0A4
:103CE000666143510023C4E90721A3610FB13B88FA
:103CF000A381F0BD580E01080C0F0108F0B5174B59
:103D0000826919684369C98E85B002ADD0E903673D
:103D10000B440095C16AADF8083004460392D0E91F
:103D20000932006AFFF7B6FF00223B4611460092B7
:103D30003046FFF7AFFF216B284600F0E1FCBDF9EC
:103D40000830002B08DB5909012203F01F0302FA97
:103D500003F3034A42F8213005B0F0BD0C0F01080F
:103D600000E100E0F0B5124C25682C2404FB00565D
:103D700004FB01513569B5B18869B0B92C68002CD4
:103D800013DAD6F804C04E68012404FA06F7168840
:103D900046EA07461660EA608C6104FA0CF4A4B2A5
:103DA0004B62AC60F0BD0348FCE70348FAE700BF94
:103DB000580E010804028A0007028A00074B10B55A
:103DC0001C682C2303FB0040C369934289BF036A2C
:103DD000034843F82210002010BD00BF580E010810
:103DE0000A028A0073B54369DD6800262A0C04467E
:103DF00001961FD02A0C12041A601B68174B006929
:103E00001B68D3F8B430C358B34213DA01A9FFF7E3
:103E100029FF58B90198E26903681E0CDBB29A4287
:103E200004D9226A52F8233003B1984731462069F9
:103E3000FFF7FCFEADB245B163691D601B68636AA4
:103E4000002533B198476562A56163691B6802B0BC
:103E500070BDA36A002BF7D09847F5E70C0F010857
:103E6000034B1B682C2202FB0030FFF7BBBF00BFD7
:103E7000580E010870B5154B0D46196891F8313090
:103E8000834221D905B32A6812F01F061CD1B1F86C
:103E9000B030096A0E4C00FB0310D2082060314696
:103EA000686802F0FFFF31462068FFF7BFFE314629
:103EB0002A462068FFF7CAFE014618B92068FFF7B6
:103EC000B5FE00B1034870BD0348FCE70C0F0108C4
:103ED000640E010801018A0003018A0010B404463F
:103EE0006AB9A9B90B4B1B68B3F8B0001B6A04FB95
:103EF0000030094B186008465DF8044B704739B133
:103F0000064B5DF8044BC3E900121946FFF7B2BF38
:103F10000348F1E70C0F0108640E01085C0E01086C
:103F200003018A002DE9F0411A4E3268D2F80C8064
:103F3000D8F80020824204460D4628D919BBFFF765
:103F400038FC074630680368002B1EDAD8F80410E6
:103F500004F01F026409012303FA02F251F824302D
:103F600013421CBF934341F824304FF0000114BFAB
:103F70000024094CFFF75AFE15B93846FFF71DFC1F
:103F80002046BDE8F0810027DCE7044CF4E7044C50
:103F9000F6E700BF640E01080201880003018800F3
:103FA00004018A000B4B1B68DB681A6882420ED939
:103FB00041095A6800F01F00012303FA00F052F88B
:103FC00021301842044B054808BF18467047044882
:103FD000704700BF640E01080001880001018800DD
:103FE00004018A00044B1B6810301B6980021858BA
:103FF00000F00F00704700BF0C0F0108036813F4B6
:10400000006FD0F8083214BF80224022C3F30803A7
:1040100093421ABFC0F840120120002070470000F0
:104020002DE9F04F002800F0AC80002900F0A980B5
:1040300091F801A091F80290BAF1020F00F09C8073
:10404000BAF1050F02D0BAF1010F01D14FF0020908
:10405000D1E90256082D00F29280092E34BF4FF4A8
:10406000006400240B7F002B4B6803F1FF3303F047
:104070000F0343F080730CBF00274FF48077234376
:104080003B430360CB7C0C7DBAF1050F14BF4FF0AE
:1040900000084FF00208002B4B7C0CBF4FF0000EC5
:1040A0004FF0100E002B0B780CBF4FF0000C4FF0B0
:1040B000200C012B8B6984F0010B4FEA032404F4DC
:1040C00070644FEA0A6303F0407344EA0B0444EA65
:1040D00003044FEA890303F00C0343EA040343EAB1
:1040E000080343EA0E0314BF00274FF0004743EADA
:1040F0000C033B4303620B7C8C7C002B05F1FF35EA
:104100000CBF00234FF4807305F00F05002C06F15F
:10411000FF360CBF00244FF400741D4306F00F0659
:1041200025431E4391F8204091F82830C0F80053F1
:10413000C0F80443C0F80062C0F804324B6A03F0D0
:104140006D03C0F8C83FCB6A03F07303C0F8883F23
:104150000B6B03F4007103F40063C0F8001FC0F898
:10416000403F0023C0F8C83E6AB11360D361936139
:104170001846D360BDE8F08F4FF0000968E70024CF
:1041800070E70248F6E71046F4E700BF0140AA00D6
:104190000E4B03604FF04073036240F2071200239E
:1041A000C0F80023C0F80433C0F80022C0F804327D
:1041B000C0F8C83EC0F8883EC0F8C83FC0F8883F85
:1041C000C0F8083FC0F8483F704700BF0F00000329
:1041D000036823F00043036019B100230B60CB6038
:1041E0008B61036A002BA2BF0023C0F8C83FC0F850
:1041F000883F70472DE9F043002800F0D180002966
:1042000000F0CE800F78022F01D18B7F0BB14B686D
:10421000013B0C7F8D68002C03F00F030CBF0026C0
:104220004FF4803643F00073082D8CBF00244FF408
:1042300000643343234303603B0603F0407303648D
:104240004B7F4C7B8E7B002B8B7C0CBF4FF000098F
:104250004FF04009002B0B7C0CBF4FF000084FF4CF
:104260008068002B4B7C0CBF4FF0000E4FF4807E1B
:10427000002BCB6A03F1FF3304F1FF344FEA034311
:1042800004F007044FEA061603F4702306F0300624
:1042900043EA040343EA060343EA090343EA080343
:1042A0000CBF4FF0000C4FF4007C43EA0E0343EACE
:1042B0000C0383640B7B002BCB7B0CBF4FF0000CFB
:1042C0004FF4807C002B68D1022F14BF00234FF4E1
:1042D0000073013D05F00F0545EA0C052B43C0F8BE
:1042E00000338B6991F814C01B0403F47F0343EA85
:1042F0000C03C0F81033CB7F23B1012F0CBF4FF458
:10430000807300233443012F44EA030414BF0023C5
:104310004FF480331D4391F830304464C0F80052AC
:10432000C0F8043391F82030002B91F821300CBFF5
:1043300000264FF00076012B91F8283014BF00259D
:104340004FF08075012B91F8243043EA060314BF27
:1043500000244FF480342B432343036591F8383015
:10436000C0F804324B6B23F4926323F002031B0565
:104370001B0DC0F8C83FCB6B23F08C035B055B0DB6
:10438000C0F8883F00206AB1C2E9020050601063A3
:1043900010601062D062BDE8F0834FF4007398E7BC
:1043A0000148F8E71046F6E70160AA00104B0360E9
:1043B0004FF04073036440F2071200238364C0F897
:1043C0000023C0F80433C0F810334364C0F800225F
:1043D000C0F804320365C0F8C83EC0F8883EC0F893
:1043E000C83FC0F8883FC0F8083FC0F8483F704752
:1043F0000F000003036823F00043036021B1002392
:104400004B600B600B62CB6270470000114B1B6866
:1044100093F83C3083421AD9042911D9A1F580734D
:10442000132B14D8800000F1804000F5181001F023
:104430001F010423C0F80013C0F840330020704768
:10444000D030054B01F0070143F82010F6E7034890
:10445000704700BF0C0F01080000264001004A0011
:10446000800000F1804303F51813D3F8400300F0F7
:104470000700042802BFD3F8000300F01F0040F437
:1044800080707047244AD2F88035002B30B541DB6C
:10449000C179036884888589002914BF4FF0807131
:1044A0000021C3F311030B43C2F880351B49038974
:1044B000C4F30C0401EA03432343C2F88435C37AEE
:1044C000174C1B0104EA0524DBB22343847A04F071
:1044D0000F042343847B240704F040542343C2F891
:1044E00088358379D2F88C45008A1B0203F4E06397
:1044F00024F4E0642343C2F88C35D2F88C3523F0E1
:10450000FF7301EA004123F480331943C2F88C158C
:10451000002030BD0348FCE7000026400000FF01FA
:1045200000FF1F0003004A00F8B52D4ED6F88C2579
:1045300042F000420446C6F88C2505463746D6F8B8
:1045400090355A0700D42DBBD7F8883523F0405357
:1045500043F00053C7F8883504B135B1204AD2F88A
:10456000803543F00043C2F880351D4F3E46D7F8F2
:104570009035DB0718D495B9D4B92546D6F88835D7
:1045800043F04053C6F8883544B3002D154818BF92
:10459000002022E0012000F0DDF8013DCFE70120FE
:1045A00000F0D8F8013DE2E7002CE7D0002DE5D17E
:1045B000D6F888350B4823F0405343F00053C6F833
:1045C0008835D6F8803523F00043C6F88035D6F814
:1045D0008C3523F00043C6F88C35F8BD2046FCE747
:1045E0000000264002004A0070B5204B1B6893F87B
:1045F0003D20431E9A4219D9800000F1804000F509
:104600001810D0F8FC35002B0EDB8C78A31E0E2B77
:104610000CD84D786B1E112B08D8CE780B783EB98C
:10462000152B03D9702206E011481EE011481CE04A
:10463000122BFBD938229342F8D80A79022A09D0E2
:1046400003F07F0343EA052343EA044343EAC663D6
:10465000C0F8FC35D0F8FC35120702F0405223F0C8
:1046600040531A43C0F8FC25002070BD0C0F010810
:1046700003004A0001004A0038B5134B1B6893F849
:104680003D20431E9A420D461BD9800000F1804414
:1046900004F51814D4F8FC3543F00043C4F8FC3595
:1046A000D4F83C36DB0707D40DB9084838BD0120E3
:1046B00000F050F8013DF3E7002D044818BF00203A
:1046C000F4E70348F2E700BF0C0F010802004A00BC
:1046D00001004A00074B9A6800F110030648824225
:1046E00013BF064A52F8230042F8231052F8230061
:1046F000704700BF00ED00E000000108000004105A
:1047000010B50346E8B1B0F900005B680E4C002814
:10471000B5BF00F00F0200F16042043A02F56142B9
:10472000B8BF12194FEA4313DBB2ACBF82F80033B3
:104730001376A268054B9A4201D1FFF7CBFF002008
:1047400000E0034810BD00BF00ED00E000000108DC
:1047500001005600024B1B785843FFF721B800BFF9
:10476000B4020108024B1B685B6801229A60704723
:104770000C0F0108044B05484FF000429A649B6CF3
:10478000002BA8BF00207047000027400300460010
:10479000044BD3F800085B6813F0FF0F18BF40F418
:1047A0008020704700002640FEE7000008B5234B3C
:1047B00002681A6042685A6082689A60C268DA6069
:1047C00002691A6142695A6182699A61C269DA6151
:1047D0001B4A916A1962D16A5962516A9962516B96
:1047E000D962926B1A63F1EE102A12F0900F21D069
:1047F000026A5A63426A9A63826ADA63C26A1A6414
:10480000026B5A64426B9A64826BDA64C26B1A65FB
:10481000026C5A65426C9A65826CDA65C26C1A66E3
:10482000026D5A66426D9A66826DDA66C26D1A67CB
:10483000026E5A67FFF7B8FF08BD00BF38080108CD
:1048400000ED00E0284B1B68002814BF19226422E9
:1048500070B58A421E68B3F8A82094592CBF002571
:10486000012524F003042C4394511E68945924F428
:1048700040749451B3F8AA401E68A25922F0030272
:104880002A43A2511D68625922F44072625160B1FC
:10489000102921D921298CBF022001205B681968C9
:1048A00021F00F010843186070BD93F855208A422B
:1048B000F4D293F856208A4210D293F857208A42B5
:1048C0000ED293F858208A420CD293F859008842AD
:1048D0002CBF04200520E1E70020DFE70120DDE711
:1048E0000220DBE70320D9E70C0F01084FF0B0539B
:1048F0005A7812B15878C0B27047212070474FF0F3
:10490000B05293899BB213B1908980B270474FF433
:104910008070704710B5FFF7F2FFB0F5807F144A42
:1049200013D11268D2F898101068435823F00F037F
:1049300043F0020343501168D2F89C208B5823F0B7
:104940000F0343F002038B5010BD1268094BD2F8DD
:10495000981010681B68445843F440732343435035
:104960001168D2F89C30044A1268CA50ECE700BFC4
:104970000C0F0108481800164418001638B5FFF748
:10498000BEFFB0F5807F134A13D11268D2F8981099
:104990001068435823F00F0343F00303435011689A
:1049A000D2F89C208B5823F00F0343F003038B5065
:1049B00038BD12680849D2F8980014680B68255869
:1049C00043F440732B4323501068D2F89C300A689C
:1049D000C250EDE70C0F01082018001608B5FFF7CC
:1049E0008EFFB0F5807F0C4A0AD113681968D3F89E
:1049F00098208B5823F4E04343F4C0438B5008BD08
:104A00001268064B1168D2F898201B68885843F446
:104A100040730343F2E700BF0C0F0108181800169B
:104A200038B5FFF76CFFB0F5807F0F4A0AD11368E5
:104A30001968D3F898208B5823F4E04343F480435B
:104A40008B5038BD12680949D2F8980014680B6879
:104A5000255843F440732B4323501068D2F89C3000
:104A60000A68C250EDE700BF0C0F01084C18001691
:104A700008B50E20FFF7B6FA0146FFF737FF2228E8
:104A80009ABFB1FA81F04009012008BD30B588B164
:104A9000C368BBB10368ABB104790B4A52F8245028
:104AA00000212B463BB95DB942F824000023016187
:104AB0004361012030BD834204D019465B69F1E7B0
:104AC0004861F3E70020F5E7880E010830B530B102
:104AD00004790D4951F824502B460BB9184630BDC6
:104AE00083425A6907D01346F7E719694A615B693F
:104AF00043B1196106E0AB42F7D141F824200AB175
:104B0000002313610120EAE7880E010870B504460E
:104B1000FFF7ECFE85B2FFF7F2FE06460E20FFF728
:104B200061FA90B9B6F5807F12D1222D10D8214BB1
:104B30001B684FF2180259688B58240604F08074E1
:104B400023F080731C438C5070BDB6F5807F27D056
:104B5000184B1B68B3F8B0501B6AB6F5807F1D4434
:104B60000BD1154A154B002C18BF1A4601212846B7
:104B7000FFF76CF820B11248E6E7124A124BF2E751
:104B80000C4B1B68D3F8B4302B441A68002AFCDBAA
:104B9000EB6803F07F43B3F1204FECD10020D3E763
:104BA000222DE8D9034B1B68B3F8B0501B6A1D4493
:104BB000D7E700BF0C0F01080100003001010030F1
:104BC000040042000100000C0300000CF8B506468A
:104BD000FFF795FEB0F5807F1CD0FEF7EAFD254A71
:104BE00007464FF0B053E6B12349086847F63071E5
:104BF00050504FF61C7193F84147535823F01F0350
:104C000043F00B0353500320E4B2FFF7A3FDFFF77B
:104C100007FF13E0FFF72CFF0028DED1174D2846D1
:104C2000F8BD47F630710120565093F84047FFF722
:104C30006DFFE4B2054678B9FFF76CFE0D494FF6FB
:104C40001C7204F01F048B5823F01F031C438C506C
:104C500036B9FFF7C3FE35463846FEF7AEFDDEE750
:104C60000720FFF777FDFFF789FE0020FFF74EFFD3
:104C70000546F1E700002640101800160300420028
:104C800004280A4B04D11A6842F004021A607047E3
:104C9000074A126800061168D2F8A02000F04070A0
:104CA00088501A6822F00402F0E700BF10E000E02C
:104CB0000C0F010870B5002867D0002A65D0536832
:104CC00094681B02A404D2E9035604F480249BB226
:104CD0002343147F23432C0404F440342343340639
:104CE00004F0E06423430C1DA401890103511468FE
:104CF000431815B9C3F8085103E0012D43D1C3F897
:104D0000084136B943185569C3F80C519569C3F881
:104D100010514518C5F81441946C631C15D0136BE1
:104D2000966B1B02360406F4702603F4706333435B
:104D3000966A06F00F063343166C3603B6B22401AA
:104D40003343E4B22343C5F82031D36A546B1B01CB
:104D5000240204F4407403F030032343546A04F043
:104D600003042343D46BA401E4B22343546CA40092
:104D7000084404F00C042343C0F82431136AC0F83B
:104D80003831002070BD0125B4E70148FAE700BFC3
:104D90000100B6002DE9F8431C4680EA010313F434
:104DA000706780460D46914630D1FEF702FD184BE4
:104DB0001968B1F86EC08A684FEA9C06013E06EA9F
:104DC0000503B1F86C60164406EB8306B1F86A304F
:104DD00003EA0501090A0CFB01F1630275585FFA49
:104DE00088F825F47F7503F40073B9F1000F25F0FE
:104DF000030543EA080318BF4FF480772B433B4376
:104E00007350FEF7DAFC0020BDE8F8830148FBE7A9
:104E10000C0F01080100CE0070B5144D06460FCDF1
:104E200090B06C460FC40FCD0FC40FCD0FC495E8E2
:104E30000F0084E80F00737D0293F37D8DF80E3030
:104E4000B37D8DF80D30B6F90E303068013318BFE0
:104E50000123002269468DF82030FFF7CBF9326834
:104E6000136843F00043136010B070BDA8870410AE
:104E7000F8B5037DFF2B04460D461DD10220FEF739
:104E8000F7FB0328834E5BD83168A27C91F83F3052
:104E9000934201D880489FE091F871308F680226D4
:104EA00091F8701006FA03F3014002F540720B43CB
:104EB00047F82230E6742075E37C207D032B03D86D
:104EC000002B50D1072858D90C21744A9E1E4D43FF
:104ED000012E11684FEA55027FD802EB4111022BD7
:104EE000B1FBF5F14FEA511202F1FF3601F01F015B
:104EF00055D1032800F2CB80B6F5803F80F0C78003
:104F0000644AD2F800C0BCF87850DCF8087000B2EF
:104F10002F4457F8202022F47F0222F47F4242EAF5
:104F2000062247F82020DCF80820154455F82020F8
:104F300022F0F80242EAC10145F82010002047E0C3
:104F40000120FEF795FB0F280AD83168A27C91F862
:104F50003F3093429ED991F871308F6801269FE7C8
:104F60004F48FDF79BFB012B01D10F28ABE7022B2C
:104F700001D10328A7E70028A6D1464A166896F86B
:104F8000702096F871C0B768024003F0030142F048
:104F9000804201FA0CF10A43C7F8002494E7002884
:104FA00075D1B6F1807F72D23A4A1768B7F87A5055
:104FB000D7F808C055F80C20D2B242EA062245F8CC
:104FC0000C20BE68AA5922F0F80242EAC101A95198
:104FD000217D63BB07293BD9F8BD1144B1FBF5F135
:104FE00093B9072853D8FF2951D82A4A1568B5F82C
:104FF0007420AD682A4402EB8000026822F47F42EC
:1050000042EA0121016099E7012B18D10F283ED80F
:10501000B1F5803F3BD21F4A1568B5F87620AD68E0
:105020002A4402EB8000026822F47F02E6E7012BAB
:1050300001D10F29CFE7022B06D10329CBE7032BA0
:105040003FF628AF217D1448032BC5D10029C3D1D9
:10505000104A146894F8705094F87170A66894F827
:10506000732094F872404FF0030C0CFA02F205FA28
:1050700004F4224342F0004229400CEA03030A43AD
:10508000BB401343C6F80034D6F80034A4E7024806
:105090009EE700BF0C0F010801004A00A4020108AE
:1050A000718804102DE9F84340F2015399420446F7
:1050B000884617460DD1A2F540714D424D415F4BD8
:1050C0001B68E3B15E4918222046BDE8F84301F0B1
:1050D000DEBE40F20133994200F0AA80A2F5407290
:1050E00055425541B7F5A06FE9D0002655B1554B53
:1050F0001B6833B118225449E6E70125DFE7012692
:10510000F4E7012551494046FCF768FF50498146C4
:105110003846FCF763FF01464846FCF73DFF431C59
:1051200000F08480206000F13F4000F51F00000C7B
:10513000464960604046FCF771FFFF23001223756B
:10514000A0746068FEF7D2FA002814BF0123002380
:1051500023724FF6FF732382E3814FF008036375D8
:105160004FF000014FF00203A4F80C806781A37593
:10517000E1751BD02068FFF73DF92068FFF716F9AD
:10518000344B1868A37C826890F8701090F8710016
:1051900003F5407352F823700323834041EA03026E
:1051A0003A4013401140C3402175E3744FF4E1319C
:1051B0002046FFF75DFEB4F90C00FEF717FA20B1A8
:1051C000237A43B92448FDF769FAB4F90A00FEF7D7
:1051D0000DFA0028F4D1B4F90C701C493846FCF7DC
:1051E0001DFF01463846FEF7A1F9B4F90A701849C7
:1051F0003846FCF713FF01463846FEF797F920467C
:10520000FFF70AFE4EB1182221460D4801F03FFE7D
:105210000A4B01221A60BDE8F883002DFBD018224A
:105220002146094801F033FE064BF2E70B48CAE776
:10523000B2F5A06F3FF461AF002658E7A40E010855
:10524000100F0108A00E0108280F0108247E041089
:10525000647D04100C0F0108E88704100F88041007
:1052600038B504460D4600680021FFF7C3F829460B
:105270002046FFF7FDFD2268136843F000431360EA
:1052800038BD03681A68D3F8083212F4006F14BFEF
:1052900080204020C3F30803181A18BF012070476C
:1052A00010B504462046FFF7ECFF0028FAD023682B
:1052B000C3F8401210BD0000F8B54369FF2B044647
:1052C0000D4630D101202076FEF7D2F9FF2860612B
:1052D00002D15748FDF7E2F9564BA27C196891F8C4
:1052E0003F30934205D9237E032B02D81BB90728F0
:1052F0000BD95148EEE7012B01D10F28F8E7022B1B
:1053000001D10328F4E70028F3D191F871708E6879
:1053100091F8701003F00303BB40084002F540729F
:10532000034346F82230454B1B6805EB45021A44FF
:10533000B2FBF5F18908B3FBF1F39B08E361237E2F
:105340006269032B02D83BB9072A1FD9FF22032B1E
:1053500062613CD90020F8BD012B11D10F2A15D96B
:105360000F2AF3D8B1F5803FF0D232480068B0F888
:1053700076508068054455F8220020F47F0020E034
:10538000022B01D1032AE0E7002ADFD12948006877
:1053900090F87170866803F00305BD4090F8707056
:1053A000174047F080473D43C6F8005483BB072AA7
:1053B000CCD8FF29CAD8B0F874508068054455F895
:1053C000220020F47F4040EA012145F82210616963
:1053D0000BBB0729BED8174A146894F8707094F86C
:1053E0007160A56894F8732094F87240032000FA65
:1053F00002F207FA04F4224342F00042394003402B
:105400000A43B3401343C5F80034D5F80034A1E78C
:10541000012BA5D09AE7012B01D10F29DAE7022B46
:1054200001D10329D6E7032B94D10029D3D091E7EA
:10543000328904100C0F010856890410A4020108D7
:1054400038B50446B0F90E00451C11D0FEF7CEF871
:1054500020B1237A13B93348FDF720F9B4F90E507F
:1054600031492846FCF7DAFD01462846FEF75EF88A
:10547000B4F90C00411C10D0FEF7B8F818B1237A2B
:105480000BB92A48E8E7B4F90C5029492846FCF73B
:10549000C5FD01462846FEF749F8B4F90A00421C4A
:1054A00010D0FEF7A3F818B1237A0BB92148D3E73F
:1054B000B4F90A5020492846FCF7B0FD01462846B9
:1054C000FEF734F8B4F91000431C10D0FEF78EF844
:1054D00018B1237A0BB91948BEE7B4F9105018492E
:1054E0002846FCF79BFD01462846FEF71FF894F876
:1054F0002050ADB92946B4F90E00FEF747F8294609
:10550000B4F90C00FEF742F8B4F90A000521FEF7E1
:105510003DF82946B4F91000BDE83840FEF736B82A
:1055200038BD00BF78890410147C04109B890410D6
:10553000547B0410BE890410947A0410E18904108D
:10554000BC7C041070B5124D06460FCD8EB001AC78
:105550000FC40FCD0FC40FCD0FC42B68236096F876
:1055600020308DF8043096F821308DF8063096F80A
:10557000223006F12402CDE9033301A93068FEF799
:105580004FFD3268136843F0004313600EB070BDE6
:10559000988804102DE9F8430446481C0E469146AD
:1055A0009846BDF9207000F091804B493046FCF7D9
:1055B00015FD01464FF0FF30FCF7EEFC464905466D
:1055C0003046FCF72BFDC0F30723B9F1FF3F0ED0A7
:1055D00042494846FCF702FD01462846FCF7DCFC40
:1055E0003E4905464846FCF719FDC0F30723B8F1CC
:1055F000FF3F0ED03A494046FCF7F0FC01462846F2
:10560000FCF7CAFC364905464046FCF707FDC0F3E7
:105610000723791C0ED033493846FCF7DFFC0146DE
:105620002846FCF7B9FC2F4905463846FCF7F6FC3E
:10563000C0F307236A1C4CD0256005F13F4505F5F2
:105640001F05280CA374FF2363616060FEF74EF80A
:10565000002814BF0123002323724FF0010384F8B4
:1056600020304FF00803A681A4F80A90A4F80E8019
:10567000278284F822301DD004F124012068FEF72F
:10568000A7FD2068FEF784FD174B1868A37C82688D
:1056900090F8701090F8710003F5407352F82350A1
:1056A0000323834041EA03022A4013401140C340D0
:1056B000616123760D492046FFF7FEFD2046FFF786
:1056C000BFFE2046BDE8F843FFF73CBF00230D4670
:1056D0007BE70748FCF7E2FF547B0410947A041040
:1056E000147C0410BC7C04100C0F0108A08601007F
:1056F000CC880410F8B504460F4600F12401006878
:10570000B3FA83F51646FEF763FD94F8203084F86B
:1057100022706D0906F00306AB4284F8216004D0C4
:1057200084F820502046FFF78BFE2046BDE8F84065
:10573000FFF708BF38B504460D4600F124010068A4
:10574000FEF746FD29462046FFF7B6FD226813689E
:1057500043F00043136038BD0368596AD3F8082248
:10576000D3F80832C90708D4C3F3C033C2F3080220
:10577000D34214BF0120002070470120704710B5AC
:1057800004460068FEF73AFC2046FFF7E5FF0028D4
:10579000FAD12368D3F8400310BD2DE9F74F1E4618
:1057A00003680F46D3F8041341F48031C3F804139F
:1057B000D3F8041321F48031C3F80413D3F804336D
:1057C0000C9B93465B45B8BF5B4604469DF834206E
:1057D0009A46BBF1000F2DD097F8009001374FF09B
:1057E00000084546D04527DB2046FFF7B5FF0C9B58
:1057F0009D420ADA2268D2F80833C3F3080323B1C2
:10580000D2F840333370013501360028ECD12368DB
:10581000D3F8042342F48032C3F80423D3F80423DA
:1058200022F48032C3F80423D3F80433504603B083
:10583000BDE8F08F9146D2E7494620680192FEF715
:10584000DDFB019A38B108F10108C345CABF97F8DA
:105850000090914601370C9B9D42C3DA2068D0F836
:105860000813C1F308010029BCD0D0F840133170EF
:1058700001350136B6E70000082902BF034B0222BA
:105880009A604FF0000008BF9A61704700003840EE
:10589000044B4FF00062C3F88820BFF34F8FBFF373
:1058A0006F8F704700E100E008B5FFF7F1FF054B8F
:1058B000054802225A60FFF709F9044B00221A60DA
:1058C00008BD00BF00003840E8020108A80E01082A
:1058D000034B0222C3F87021D3F87031704700BF28
:1058E0000000384038B5FFF7D3FFFFF7F1FF284B32
:1058F0001A68002A4AD101221A60264B26481A68E3
:1059000092F83F309168142B82BF92F8703003F008
:105910000703C1F8503C214B1B68B3FBF0F3013B7C
:10592000FF2B08D8B2F874401C31605820F47F4037
:1059300040EA0323635092F87010906892F8734025
:1059400092F87220032301FA02F2A340134301F0FC
:10595000070143F000430B43114CC0F80034D0F86A
:105960000034104A012120460225FFF7A3F9A56063
:105970000D48FFF78BF810B90C48FCF78FFEA561B6
:105980000B490C48BDE83840FEF7BABE38BD00BF31
:10599000A80E01080C0F010840420F00A4020108E4
:1059A00000003840048A0410E8020108588A0410F4
:1059B000115A04107C8A041008B5044B1B680BB9FB
:1059C000FFF790FF024BD3F8480108BDA80E01086D
:1059D00000003840F8B50B4A0B4C1268D4F84871F7
:1059E0006FF001060546F61B0AB9FFF77BFF2E4450
:1059F0000536064B88BFBD1C4FF00062C4F84C5101
:105A00009A60F8BDA80E01080000384000E100E0EF
:105A100008B5FFF75DFFFFF73BFFBDE80840FCF767
:105A20000BBD0000034B4FF000629A60C3F80821E1
:105A3000704700BF00E100E000487047508A041042
:105A400030B50A4C01444FF0FF33884201D1D843AE
:105A500030BD10F8012B5340082203F001055B080C
:105A600005B16340013AF8D1EFE700BF2083B8EDFC
:105A700040B103888278C0785BBA9BB242EA0323C4
:105A800040EA032070472DE9F04868B303680479C1
:105A90001BBA1F0E00251E0245EA070C44EA060B3E
:105AA0004FEA0C23447943EA1B63002545EA0307C8
:105AB0004FEA0B2244EA02063B0243EA166384796A
:105AC000C0790025320245EA030744EA02063B0298
:105AD00043EA16633202002140EA020441EA030568
:105AE00020462946BDE8F08800240025F8E730B1BB
:105AF0000B0AC17083700B0C090E43700170704764
:105B000068B1110AC2718171110C120E02711A0A68
:105B1000C37082701A0C1B0E417142700370704783
:105B200070B543684D689D420FD100231A469D42CF
:105B300003D150421043C00F70BD84688E68E45C8E
:105B4000F65C744022430133F1E70120F4E70000E2
:105B500073B5054606200E461446FBF7ADFC10B99A
:105B6000084802B070BDA368019373680093D5E93B
:105B70000121B368FBF790FD40B20028F0D120234B
:105B80006360EEE70100435530B501681F2985B019
:105B9000044606D80E4D2268A068002101F082F963
:105BA00013E0806800F0F8FE0028F3D1094A07CA24
:105BB00001AB83E8070010226260194622462046A6
:105BC000FFF7C6FF05460028E5D1284605B030BDE1
:105BD00001004355848A041070B50C46054608B987
:105BE000022070BD0029FBD06C21FFF729FF06467B
:105BF00005F16C00FFF73CFF8642F1D105F108008A
:105C0000FFF741FFC4E9000105F11000FFF73BFF7A
:105C10002022C4E9020105F1180104F1100001F08D
:105C200036F9102205F1580104F1300001F02FF986
:105C30000020D6E738B50C46054600283AD00029A2
:105C400038D00B686F2B35D970220021A06801F085
:105C500029F91949A068FFF74AFFA068022104301A
:105C6000FFF745FFA068D5E900230830FFF748FF9C
:105C7000A068D5E902231030FFF742FFA068202278
:105C800005F11001183001F002F9A068102205F1A9
:105C90003001583001F0FBF86C21A068FFF7D0FE0E
:105CA000A368014603F16C00FFF721FF70236360D6
:105CB000002038BD0220FCE7D4B3515AF0B50F469E
:105CC0009BB0064618B311B30AAB202500212A4623
:105CD000184601F0E7F80022CDE9022001A801955D
:105CE000FFF752FF01B291B9E823CDE9043312ABBB
:105CF0002A461846069601F0D5F807AA099004A985
:105D000001A8CDE90755FFF723FF00B208B1022033
:105D100027E006F1E80307A904A8CDE90455069396
:105D2000FFF7FEFE04460028F1D106F10800FFF758
:105D3000AAFEC7E9000106F11000FFF7A4FE2A46FB
:105D4000C7E9020106F1180107F1100001F09FF800
:105D5000102206F1A00107F1300001F098F83C6430
:105D600020461BB0F0BD000038B51468002C154665
:105D70000ADB6FF00042944206D08C4201D220B17F
:105D800003552B6801332B6038BD19460148FFF7D6
:105D900087FAF6E7AC0E01082DE9F04387B0DDE99C
:105DA0000E6756EA070305468846914605D130231B
:105DB00007B0BDE8F043FFF7D7BF182200216846BF
:105DC00001F070F80024304639460A22002301F021
:105DD00041F930320DF804200023304639460A22BA
:105DE00001F038F906460F4656EA070304F10104AC
:105DF000E9D1013C4A461DF8043041462846FFF7E8
:105E0000B3FF002CF5D107B0BDE8F0832DE9F04FCA
:105E100087B00646109BDDF8449001930F469046EC
:105E200007254FF0000EEC000199C4F12002A4F107
:105E3000200309FA02F221FA04F4144329FA03F3C5
:105E40001C43E4B2BEF1000F01D104B945BB174BAE
:105E500022090DF1080A04F00F0403F1100B186871
:105E60005968D446ACE8030008335B45E246F6D1F6
:105E7000BEF1000F00D142B106AB1A44394612F808
:105E8000103C30464246FFF76FFF06AB1C444246CB
:105E900014F8103C39463046FFF766FF4FF0010E0C
:105EA00015F1FF35BFD207B0BDE8F08FB18A0410FD
:105EB000FFF75ABF2DE9F04F1C469C4B93461A78CA
:105EC00087B006460D466AB100221A7040F20151B1
:105ED00097484FF4A062FFF7E5F84FF4E13194489A
:105EE000FFF7BEF900230593BBF1000F00F0FF8020
:105EF0009D42C0F2FC800CBF012305F1FF350393E6
:105F00004FF000081BF80830002B00F0EF80252B25
:105F100040F0F38008F101071BF80730791C4BB102
:105F2000A3F12302D2B2162A04D8824820FA02F240
:105F3000D20709D41BF80120002A3BD0682B05D1D9
:105F4000682A35D0022344E00F46E5E76C2B40F089
:105F5000E9806C2A3FD1042302371BF80790B9F17E
:105F6000640F02D0B9F1690F50D1042B3DD1073431
:105F700024F00704D4E9008904F1080AB8F1000FFD
:105F800079F1000309DA2D2305AA29463046FFF7E7
:105F9000EBFED8F1000869EB4909CDE9008905AAB3
:105FA00029463046FFF7F8FE07F101085446A9E7F5
:105FB0000123D1E7002BD0D0682BC3D06C2B0AD0A3
:105FC0006A2B0AD07A2B0AD0742B0AD04C2B0AD118
:105FD00008230F46C1E70323FBE70523F9E7062360
:105FE000F7E70723F5E70023B7E7012B04F1040ADD
:105FF000226805D0022B06D090464FEAE879BDE72B
:106000004FFA82F8F9E70FFA82F8F6E7B9F1750F5F
:1060100003D009F0DF02582A23D1042B11D1073411
:1060200024F00704D4E9002304F1080AB9F1750F3C
:10603000CDE90023294605AA3046B3D0FFF7E6FE96
:10604000B2E7022B04F1040A226806D0072B06D01F
:10605000012B08BFD2B20023E8E792B2FBE7D317C7
:10606000E4E7B9F1630F08D1237805AA2946304641
:1060700004F1040AFFF71CFF96E7B9F1730F0DD185
:1060800004F1040A2468013C14F8013F002B8BD072
:1060900005AA29463046FFF767FEF5E7B9F1700F0C
:1060A0001FD1302305AA2946304604F1040A24688A
:1060B000FFF75AFE782305AA29463046FFF754FE1B
:1060C0002246E317CDE90023294605AA3046B5E765
:1060D0001BF8083005AA29463046FFF7E9FE08F10B
:1060E0000108B845F4D3B9F1000F04D16EB9059891
:1060F00007B0BDE8F08F1BF8083005AA29463046E6
:10610000FFF7D6FEA24647464EE7039B002BEED193
:10611000059BAB4295BF9DF80C209DF80C30F254C6
:106120007355E4E7002B3FF418AF49E70803010873
:10613000AC0E010801ED7F000FB407B504AB6FF0A2
:10614000004153F8042B01930020FFF7B3FE03B086
:106150005DF804EB04B07047014B186000207047F5
:10616000C40E010808B5044B1B6813B11B6898479F
:1061700008BD0220FCE700BFC40E0108044B1B68E9
:1061800010B51BB112B19B69984710BD0220FCE706
:10619000C40E010808B5044B1B681BB110B11B6A83
:1061A000984708BD0220FCE7C40E010808B5044B5F
:1061B0001B681BB111B15B6A984708BD0220FCE760
:1061C000C40E010838B5054678B100F005F904465B
:1061D00024B2284600F030F82CB900B2002814BFD1
:1061E0000420002038BD0420FCE70220FAE700006C
:1061F000024B1B6803B11847704700BFC80E010867
:1062000010B590B90A4B1B686FF07C44B4FBF3F4F3
:1062100004FB03340C600749B1FBF3F15943091B3C
:10622000B1FBF3F14B43136010BD0220FCE700BF4C
:10623000D40E010800DC0A0470B5054608B9022036
:1062400070BD00F08DF8044600F092F80B4E3060FF
:1062500000F098F80A4B1860336840F22712B2FB3E
:10626000F3F202FB0333074A1360002CE7D1064B1D
:1062700020461D60FFF7BCFF2046E1E7D00E010875
:10628000D40E0108CC0E0108C80E01087FB50E46D9
:10629000144652B3936843B304AA4FF0FF3342F855
:1062A000043D02A90293FFF7ABFF6368054633B1D3
:1062B0000F4A1268013BB3FBF2F303FB022322688F
:1062C0009A420FD30B4A1168029A00930A44A068BD
:1062D0003244002300F060F8044618B90420FFF7A8
:1062E00087FF2546284604B070BD0225FAE700BFA7
:1062F000D00E0108CC0E01082DE9F04184B0022433
:1063000002AF0E4629B307F108024FF0FF3342F8FF
:10631000043D39463B60FFF773FF104B3A6819683C
:10632000CB1D23F00703E846ADEB030D02AD044699
:1063300000910023284600F02FF848B9314628463E
:10634000FFF7BCFC03B2044613B90720FFF750FF68
:10635000C54620460837BD46BDE8F081CC0E010891
:10636000024B186803689B68184700BFD80E0108E5
:1063700008B5034B186803689B6A984708BD00BFBF
:10638000D80E010808B5034B18680368DB6A984704
:1063900008BD00BFD80E010837B50649069D0C6838
:1063A00021680095002501954D6901462046A847C2
:1063B00003B030BDD80E010808B5FBF769FD014BED
:1063C000186008BDD80E0108024B1B6803B11847BE
:1063D000704700BFDC0E010838B5054600F05CF8D8
:1063E000044628B9034B1D60FFF7EEFF204638BD79
:1063F0000224FBE7DC0E0108F0B505469FB018B992
:10640000022420461FB0F0BD002308221849684628
:10641000CDE9003300F04AF804240646D0B96846B6
:10642000FFF726FB07460DEB0400FFF721FB0228D0
:1064300010D1104B70229F4208BF0024314602A8A1
:1064400000F030FD34B97022094902A800F02EF89E
:1064500038B1042423B2002BD3D10620FFF7B4FFB8
:10646000CFE7294602A8FFF7B7FB0446F2E700BFD3
:1064700000A00410D4B3515A38B50546046844B995
:10648000046834B910F1080402D02046FAF719FD67
:106490002C60204638BD000008B50348FFF7ECFF2C
:1064A000FAF724FD002008BDE00E010870B50D4686
:1064B000164604460448FFF7DFFF33462A462146C6
:1064C000BDE87040FAF744BDE00E010808B5034886
:1064D000FAF70CFDB0FA80F0400908BDF00E010893
:1064E0000148FAF71DBD00BFF00E010810B578B1E4
:1064F000094C4FF0FF332360FFF74CFE00B240B968
:106500002068421C01D130BFFAE7831F584258412E
:1065100010BD0020FCE700BF0C0301082DE9F04787
:106520000446A4B018B9012024B0BDE8F087FFF7F5
:10653000DDFF0028F7D0D4E90223134347D009A890
:10654000FBF708F9002109A8FBF764F920220021D4
:1065500001A800F0A7FCDFF88090A5681D4FDFF8C8
:106560007C804FF0000AE5B1BAF1000F19D1A268A2
:10657000B5F5804F2E464A4428BF4FF48046334637
:10658000521B39464046FAF7E3FC3946824632460A
:1065900009A8FBF716FAA168AD1B481B00F0C0F96B
:1065A000E1E701A909A8FBF7A3FA103409A8FBF752
:1065B000D5F8202201A9204600F05AFC0028B3D0CB
:1065C000204600F089F901A800F086F9ABE7022027
:1065D000AAE700BF400F010800A40410F00E010854
:1065E000F8B50446094E4FF0FF306718A7420CD9A2
:1065F00021463046FAF769FC2146054602463046F8
:10660000FAF738FD08B92C44F0E7F8BDF00E0108A0
:10661000F8B5074E054604464718A74205D9214656
:106620003046FAF752FC0444F7E7601BF8BD00BFA0
:10663000F00E010870B5702105461748FFF7E8FF16
:10664000164A00F1805303F594239342014606D87D
:106650001148FFF7C5FF88B92E46114C02E00E4CD9
:1066600005F5806631462046FFF7D2FF0D4B2044EA
:10667000984207D831462046FFF7B2FFB0FA80F0C3
:10668000400970BD084A094B024429460848FFF7F3
:1066900053FD4FF0FF30F1E700A00410FFA30410FA
:1066A00000A4041000000F10005CFBEF005C0A0067
:1066B000D08A041030B5044685B000283BD020486D
:1066C000FAF701FC702100F16F05B5FBF0F54543C9
:1066D0001C48FFF79DFFB5F5804F024607D94FF4E0
:1066E000804229461848FFF727FD30BFFDE7854265
:1066F00005D929461548FFF71FFD30BFFDE72A469B
:10670000FF21134800F0CEFB124A07CA01AB83E811
:10671000070019462046FFF78DFA00B268B9029BC0
:10672000702B08D12B46074A09490548FAF72AFC7D
:10673000B0FA80F0400905B030BD0020FBE700BF93
:10674000F00E010800A00410F08B0410298C041036
:10675000400F0108C48A04102DE9F04F87B0894624
:106760000190002971D03A48FAF7ADFB3949B1FBE5
:10677000F0F400FB141405462CB102463648FFF72E
:10678000DBFC30BFFDE7354B0593DFF8D8B04FF4A5
:106790008043B3FBF0F343430393A246D9E90223BA
:1067A0000021994208BF944249D2BAF1000F46D164
:1067B000121B4FF0FF3663EB0103CBF8006000279C
:1067C000039E01989F4208BF964238BF324604920A
:1067D000214603AAFFF7D2FC00B228B9DBF800304B
:1067E000013301D130BFF9E7DBF80030042B21D1B0
:1067F000049EFEB1DFF85C80013E2E440027B6FB0C
:10680000F5F6A0446E43B74212D2BAF1000F0FD191
:1068100005990F4808EB070239442B46FAF7B2FBFB
:106820002F448246D9F80810E01900F079F8EAE719
:106830003444B3E70A48FFF77FFC4FF0FF3ABAFA57
:106840008AF0400907B0BDE8F08F0846FAE700BFBC
:10685000F00E010800A404104F8B0410400F010833
:10686000A48B04100C03010838B5054688680C4653
:10687000FFF7E0FE08B9002038BD2046FFF71AFFF9
:106880000028F8D021462846FFF766FF0028F2D0FE
:106890000448FFF751FC2046FFF740FEB0FA80F0B5
:1068A0004009E9E7CB8B041010B5054C2046FAF7F8
:1068B00008FB2046034A0449BDE81040FBF72DBF02
:1068C000F00E01088C020108C50E0410014B18607F
:1068D000704700BF0C03010830B593B001AC05460A
:1068E00000214122204600F0DDFA0B49681E0023FA
:1068F00010F8012F150902F00F024D5DE554E5185F
:1069000002338A5C6A70402BF2D121460348FFF7BC
:1069100013FC13B030BD00BF6C8C04108E8C0410BF
:106920002DE9F843134B46241A784443B4FBF1F4A1
:10693000E4B2A24207460E461AD00F481C70FFF779
:10694000FBFBDFF84080DFF840900025EBB29C4273
:106950002CBF484640460135FFF7EEFB462DF5D1EA
:10696000B7422CBF05480648BDE8F843FFF7E4BB33
:10697000BDE8F883F80E01087C8C0410888C0410A4
:106980008C8C04106D8D0410868C041000207047D0
:1069900000487047A28C041010B586B000230F2960
:1069A0000446CDE90333059312D988B104A903A89D
:1069B000FBF7BEF940B268B905AB0093224610233D
:1069C000DDE90301FBF7C8F8059B102B40B201D0AD
:1069D0004FF0FF3006B010BD2DE9F843082000F05D
:1069E00037FA384B384F1860012000F031FA386020
:1069F0003648FFF7B1FB3648FFF7B4FB0546FFF713
:106A0000C5FF28B1FFF7C4FF01463248FFF794FBEA
:106A10003148324EDFF8D090FFF78EFB3048FFF759
:106A20008BFB0024B046315D48460134FFF784FB00
:106A3000142CF8D12B482C4EFFF77EFB2B48FFF788
:106A40007BFB002408EB0403304693F8201001344C
:106A5000FFF772FB142CF5D12248FFF76DFB2DB226
:106A60001E4A23480021FFF767FBF5B1214B224C5A
:106A70001E68256821482146FFF75EFB3146204805
:106A8000FFF75AFB29461F48FFF756FB1E48FFF742
:106A900053FB2046FBF7E0FC3B680BB100221A7069
:106AA0001A48FFF749FB30BFFDE7FFF70FFD00284D
:106AB000DCD000F09DF80446FFF712FD002CD5D184
:106AC000EAE700BF000F0108FC0E010810030108EF
:106AD000CD680410088D0410358D0410C48C04108A
:106AE0004E8D0410308E04105B8D0410628D0410E6
:106AF0006F8D041004A4041000A40410888D0410E9
:106B0000B48D0410DF8D04100B8E0410338E04102E
:106B10002DE9F04F324BDFF8D48082460C4693E8E3
:106B200007009FB0E94689E8070003A8FAF712FEBC
:106B3000002103A8FAF76EFE00254FF0FF3BD4E9D1
:106B4000022300279F4208BF95422ED2521B009875
:106B5000C8F800B04FF0000163EB0703994208BF8B
:106B6000904238BF0246019229464A465046FFF7F6
:106B700005FB00B228B9D8F80030013301D130BF8D
:106B8000F9E7D8F80030042B0CD1019A52B10299E0
:106B900003A8FAF716FF019BA1681D442846FFF7DA
:106BA000BFFECCE70F48FFF7C7FA0F4903A8FAF773
:106BB0009FFF103403A8FAF7D1FD20220A4920468E
:106BC00000F056F948B12046FFF786FE0648FFF769
:106BD00083FE00201FB0BDE8F08F0120FAE700BF60
:106BE0005C8E0410308E0410400F01080C03010865
:106BF0002DE9F043A5B048220021684600F052F983
:106C0000482200210DEB020000F04CF9674E684865
:106C1000FFF792FA12A8FFF781FC3568002D00F00B
:106C2000BD8064490C68002C00F0B880DDE9128951
:106C3000D5E900234B4508BF424524D0C5E900896A
:106C4000002323700B681B7800BB022B27D816A8E3
:106C5000FFF742FEDDE912235748FFF76DFADDE941
:106C60001223CDE900230124544D4FF0FF3312A924
:106C700000202B60FFF79AFA00B2B0B92B680133FD
:106C800013D130BFFAE723780133DAE7022803D1C2
:106C90004B48FFF751FA06E0022B40F285800321B2
:106CA0004848FFF749FA0024DEE72B68072B69D133
:106CB0003368DDE91267002B4BD0D3E90023BB42D8
:106CC0000ABFB24201230023DDE90001B94208BF37
:106CD000B0424DD2DDE9140150EA010248D00BB9AF
:106CE000002C45D100213848FFF726FA12A90020D0
:106CF000FFF70EFF0146002836D016A8FFF7ECFD7F
:106D0000DDE912232C48FFF717FADDE914562F4866
:106D10000021B14208BFA8421DD3DDE912012022A3
:106D2000CDE9000116A904A8CDE9025600F0AFF89C
:106D300010221EA90CA800F0AAF800212448FFF791
:106D4000FBF969460020FFF78FFD0446E8B92148AA
:106D50001CE00123B8E71D4B1F482A460021FFF71E
:106D6000EBF9CCB11D4811E01D48FFF7E5F9F8E754
:106D700000211C48FFF7E0F9DDE912230E48FFF778
:106D8000DBF9EEE700211848EFE71848FFF7D4F9E0
:106D9000204625B0BDE8F0831548F7E700283FF40A
:106DA00056AF02283FF474AF124872E7000F010893
:106DB000688E0410FC0E0108928E04100C0301086A
:106DC000A98E0410D08E0410348F0410005C0A00C9
:106DD000608F041063900410908F0410839004104F
:106DE000C48F0410F68F0410229004103D900410FC
:106DF000A7900410048F0410024B0A46014618683D
:106E0000FBF728BB3C03010870B50D4E0D4CA41BCD
:106E1000A4100025A54209D10B4E0C4C00F09AFAA3
:106E2000A41BA4100025A54205D170BD56F825303D
:106E300098470135EEE756F8253098470135F2E7D7
:106E4000A0030108A0030108A0030108AC03010886
:106E5000024B01461868FBF7F9BA00BF3C03010872
:106E6000024B01461868FBF7F3BA00BF3C03010868
:106E700030B50024A24201D1002007E0035D0134B7
:106E80000D1915F8015CAB42F4D0581B30BD10B59C
:106E9000431E0A44914200D110BD11F8014B03F882
:106EA000014FF7E702440346934200D1704703F8CD
:106EB000011BF9E738B502FB01F42146FBF7C6FADE
:106EC000054618B122460021FFF7ECFF284638BDE1
:106ED00038B50546002945D051F8043C0C1F002B5D
:106EE000B8BFE418FBF722FC1F4A1368104633B9F9
:106EF000636014602846BDE83840FBF71BBCA34222
:106F00000CD921686218934204BF1A685B686360F9
:106F100004BF521822600460ECE713465A680AB1B5
:106F2000A242FAD919685818A0420BD1206801442E
:106F3000581882421960DDD1106852685A600144C5
:106F40001960D7E702D90C232B60D3E720682118FA
:106F50008A4204BF11685268626004BF0918216048
:106F60005C60C7E738BD00BF040F010870B5CD1CD9
:106F700025F0030508350C2D38BF0C25002D0646DD
:106F800001DBA94203D90C233360002070BDFBF75D
:106F9000CDFB214A1468214691B9204C23681BB9C6
:106FA000304600F03DF820602946304600F038F8C1
:106FB000431C24D10C2333603046FBF7BBFBE4E7D2
:106FC0000B685B1B18D40B2B0FD90B60CD50CC1862
:106FD0003046FBF7AFFB04F10B00231D20F0070048
:106FE000C31AD3D05A42E250D0E78C424B6816BF46
:106FF000636013600C46EBE70C464968CCE7C41CA1
:1070000024F00304A04205D0211A304600F008F80D
:107010000130CFD02560DBE7040F0108080F01081D
:1070200038B5064C0023054608462360FBF75AFB9B
:10703000431C02D1236803B12B6038BD404F0108C7
:1070400010F8012B11F8013B012A28BF9A42F7D012
:10705000D01A704753B94AB9002908BF00281CBF8D
:107060004FF0FF314FF0FF3000F072B9ADF1080C76
:107070006DE904CE00F006F8DDF804E0DDE9022356
:1070800004B070472DE9F047089E04468846002B5F
:107090004BD18A42154667D9B2FA82F24AB1C2F19F
:1070A000200701FA02F320FA07F7954047EA0308A0
:1070B00094404FEA154E230CB8FBFEF71FFA85FCEF
:1070C0000EFB178843EA084307FB0CF1994209D9E4
:1070D000EB1807F1FF3080F01B81994240F21881D4
:1070E000023F2B445B1AA4B2B3FBFEF00EFB10333D
:1070F00044EA034400FB0CFCA44509D92C1900F117
:10710000FF3380F00781A44540F2048102382C440B
:1071100040EA0740A4EB0C0400271EB1D440002332
:10712000C6E900433946BDE8F0878B4209D9002EF5
:1071300000F0EB800027C6E9000138463946BDE87B
:10714000F087B3FA83F7002F47D18B4202D38242F4
:1071500000F2FA80841A61EB030301209846002EA6
:10716000E0D0C6E90048DDE702B9FFDEB2FA82F2FC
:10717000002A40F08F80491B4FEA154E1FFA85F810
:107180000127B1FBFEFC230C0EFB1C1143EA01435B
:1071900008FB0CF1994207D9EB180CF1FF3002D231
:1071A000994200F2CD808446591AA3B2B1FBFEF099
:1071B0000EFB101443EA044408FB00F8A04507D96D
:1071C0002C1900F1FF3302D2A04500F2B680184618
:1071D000A4EB080440EA0C409FE7C7F1200CBB4039
:1071E00022FA0CFE4EEA030E01FA07F420FA0CF51F
:1071F00021FA0CF34FEA1E482543B3FBF8F92C0C97
:1072000008FB19331FFA8EFA44EA034309FB0AF418
:107210009C4202FA07F200FA07F10BD91EEB0303B6
:1072200009F1FF3080F087809C4240F28480A9F110
:10723000020973441B1BADB2B3FBF8F008FB10331B
:1072400045EA034400FB0AFAA24508D91EEB0404F0
:1072500000F1FF336BD2A24569D90238744440EA89
:107260000940A0FB0289A4EB0A044C45C2464B46E8
:1072700054D351D0002E69D0B1EB0A0564EB03045E
:1072800004FA0CFCFD40FC404CEA0505C6E900543C
:10729000002747E7C2F1200320FA03F7954001FADF
:1072A00002F021FA03F34FEA154E3843010CB3FB09
:1072B000FEF71FFA85F80EFB173341EA034107FB7F
:1072C00008F38B4204FA02F407D9691807F1FF3C6E
:1072D0002FD28B422DD9023F2944CB1A81B2B3FB66
:1072E000FEF00EFB103341EA034100FB08F38B4232
:1072F00007D9691800F1FF3C17D28B4215D9023823
:107300002944C91A40EA07473BE73746304609E7B0
:107310000746E7E61846FBE64145ABD2B8EB020A62
:1073200069EB0E0201381346A4E76046E9E7184608
:1073300095E76746D1E781467CE702382C4447E76A
:10734000ACF1020C2B442FE7384608E73746E9E654
:10735000704700BFF8B500BFF8BC08BC9E46704738
:10736000F8B500BFF8BC08BC9E467047000000009E
:107370005FF800F0C504010853440000000000005D
:107380000000000019050410450504103B0E041010
:1073900077030410410304101D0C0410E10A0410CB
:1073A00045030410E5080410AD030410AD030410F8
:1073B000490304104F03041055030410B5030410CF
:1073C000C5030410CD030410F50404107303041066
:1073D0007503041000000000000000000D110410EF
:1073E0002D1104101313041033130410F91004109A
:1073F000F910041000000000B71DC1046E3B8209A3
:10740000D926430DDC7604136B6BC517B24D861A73
:107410000550471EB8ED08260FF0C922D6D68A2F90
:1074200061CB4B2B649B0C35D386CD310AA08E3CAF
:10743000BDBD4F3870DB114CC7C6D0481EE0934528
:10744000A9FD5241ACAD155F1BB0D45BC2969756F7
:10745000758B5652C836196A7F2BD86EA60D9B6362
:1074600011105A6714401D79A35DDC7D7A7B9F70F3
:10747000CD665E74E0B6239857ABE29C8E8DA191E9
:10748000399060953CC0278B8BDDE68F52FBA5823F
:10749000E5E66486585B2BBEEF46EABA3660A9B7CC
:1074A000817D68B3842D2FAD3330EEA9EA16ADA4EB
:1074B0005D0B6CA0906D32D42770F3D0FE56B0DD1A
:1074C000494B71D94C1B36C7FB06F7C32220B4CEFB
:1074D000953D75CA28803AF29F9DFBF646BBB8FBE6
:1074E000F1A679FFF4F63EE143EBFFE59ACDBCE867
:1074F0002DD07DEC77708634C06D4730194B043D3C
:10750000AE56C539AB0682271C1B4323C53D002E52
:107510007220C12ACF9D8E1278804F16A1A60C1B17
:1075200016BBCD1F13EB8A01A4F64B057DD00808CE
:10753000CACDC90C07AB9778B0B6567C6990157167
:10754000DE8DD475DBDD936B6CC0526FB5E61162D6
:1075500002FBD066BF469F5E085B5E5AD17D1D5719
:107560006660DC5363309B4DD42D5A490D0B194492
:10757000BA16D84097C6A5AC20DB64A8F9FD27A5AC
:107580004EE0E6A14BB0A1BFFCAD60BB258B23B69E
:107590009296E2B22F2BAD8A98366C8E41102F83D3
:1075A000F60DEE87F35DA9994440689D9D662B908A
:1075B0002A7BEA94E71DB4E0500075E4892636E999
:1075C0003E3BF7ED3B6BB0F38C7671F7555032FADA
:1075D000E24DF3FE5FF0BCC6E8ED7DC231CB3ECF9D
:1075E00086D6FFCB8386B8D5349B79D1EDBD3ADC06
:1075F0005AA0FBD8EEE00C6959FDCD6D80DB8E60A2
:1076000037C64F643296087A858BC97E5CAD8A7323
:10761000EBB04B77560D044FE110C54B383686461C
:107620008F2B47428A7B005C3D66C158E4408255FF
:10763000535D43519E3B1D252926DC21F0009F2CE4
:10764000471D5E28424D1936F550D8322C769B3FA7
:107650009B6B5A3B26D6150391CBD40748ED970A6E
:10766000FFF0560EFAA011104DBDD014949B931943
:107670002386521D0E562FF1B94BEEF5606DADF815
:10768000D7706CFCD2202BE2653DEAE6BC1BA9EB6F
:107690000B0668EFB6BB27D701A6E6D3D880A5DED8
:1076A0006F9D64DA6ACD23C4DDD0E2C004F6A1CDBB
:1076B000B3EB60C97E8D3EBDC990FFB910B6BCB4B6
:1076C000A7AB7DB0A2FB3AAE15E6FBAACCC0B8A72B
:1076D0007BDD79A3C660369B717DF79FA85BB49272
:1076E0001F4675961A163288AD0BF38C742DB08137
:1076F000C330718599908A5D2E8D4B59F7AB085434
:1077000040B6C95045E68E4EF2FB4F4A2BDD0C4782
:107710009CC0CD43217D827B9660437F4F460072A3
:10772000F85BC176FD0B86684A16476C933004619E
:10773000242DC565E94B9B115E565A1587701918A3
:10774000306DD81C353D9F0282205E065B061D0B06
:10775000EC1BDC0F51A69337E6BB52333F9D113E25
:107760008880D03A8DD097243ACD5620E3EB152D62
:1077700054F6D4297926A9C5CE3B68C1171D2BCC58
:10778000A000EAC8A550ADD6124D6CD2CB6B2FDF4E
:107790007C76EEDBC1CBA1E376D660E7AFF023EADF
:1077A00018EDE2EE1DBDA5F0AAA064F4738627F9DA
:1077B000C49BE6FD09FDB889BEE0798D67C63A80B5
:1077C000D0DBFB84D58BBC9A62967D9EBBB03E938A
:1077D0000CADFF97B110B0AF060D71ABDF2B32A629
:1077E0006836F3A26D66B4BCDA7B75B8035D36B556
:1077F000B440F7B1050000005B7804101C000000E5
:107800004000000039170410351704103117041018
:10781000251704100F170410FD160410F916041094
:10782000F516041006000000547804102000000033
:10783000400000003F1704103517041031170410E2
:107840002B1704100F170410FD160410F91604105E
:10785000F516041053484132353600534841323250
:1078600034000000982F8A4291443771CFFBC0B595
:10787000A5DBB5E95BC25639F111F159A4823F92FB
:10788000D55E1CAB98AA07D8015B8312BE85312454
:10789000C37D0C55745DBE72FEB1DE80A706DC9B15
:1078A00074F19BC1C1699BE48647BEEFC69DC10FC1
:1078B000CCA10C246F2CE92DAA84744ADCA9B05CFD
:1078C000DA88F97652513E986DC631A8C82703B0C0
:1078D000C77F59BFF30BE0C64791A7D55163CA06CE
:1078E00067292914850AB72738211B2EFC6D2C4DDA
:1078F000130D385354730A65BB0A6A762EC9C281C8
:10790000852C7292A1E8BFA24B661AA8708B4BC25D
:10791000A3516CC719E892D1240699D685350EF487
:1079200070A06A1016C1A419086C371E4C7748273E
:10793000B5BCB034B30C1C394AAAD84E4FCA9C5BB4
:10794000F36F2E68EE828F746F63A5781478C88405
:107950000802C78CFAFFBE90EB6C50A4F7A3F9BEE7
:10796000F27871C65B455252205D20496E76616C9B
:1079700069642044617461204275662041726775B4
:107980006D656E740D0A005B455252205D20466C99
:1079900061736849415020696E6974206661696C41
:1079A0006564202D206572723A2025640D0A005B03
:1079B000455252205D2063616C635F617265615F57
:1079C000706172616D73206661696C6564202D2041
:1079D000496E76616C696420696E707574206164AB
:1079E000647265737365730D0A005B455252205DC6
:1079F00020436F756C646E27742063616C756C61D5
:107A00007465204172656120506172616D73202D33
:107A1000206572723A2025640D0A005B455252209F
:107A20005D20436F756C646E27742066696E6420F8
:107A300076616C6964204465766963654B6579207D
:107A40002D206572723A2025640D0A0046494C4586
:107A500053595354454D005444425F455854455280
:107A60004E414C0064656661756C7400747A041054
:107A7000C8090108E5580410B959041091580410B8
:107A8000D1580410D5590410255A0410A9580410CF
:107A9000395A041003000000000061401400000087
:107AA000010100000000684014070000010200000E
:107AB0000000624014010000010300000000634068
:107AC00014020000010400000000684014070000D8
:107AD00001050000000066401405000001060000DA
:107AE0000000644014030000050600000000674029
:107AF00014060000010700000000654014040000A7
:107B000001080000000065401404000001090000A5
:107B10000000634014020000010A000000006240FF
:107B200014010000010B0000000066401405000075
:107B3000010C00000000674014060000010D000069
:107B40000000674014060000FFFF0000FFFFFFFF7A
:107B50000000000002000000000061401400150059
:107B6000000100000000684014071500000200003A
:107B70000000624014011500000300000000634093
:107B800014021500000400000000684014071500EE
:107B90000005000000006640140515000006000006
:107BA0000000644014031500040600000000674054
:107BB00014061500000700000000654014041500BD
:107BC00000080000000065401404150000090000D2
:107BD0000000634014021500000A0000000062402B
:107BE00014011500000B000000006640140515008C
:107BF000000C00000000674014061500000D000096
:107C00000000674014061500FFFF0000FFFFFFFFA4
:107C10000000000004000000000061401400150096
:107C20000201000000006840140715000202000075
:107C300000006240140115000203000000006340D0
:107C4000140215000205000000006640140515002E
:107C50000206000000006440140315000606000040
:107C60000000674014061500020700000000654090
:107C700014041500020800000000654014041500FB
:107C8000020900000000634014021500020A00000F
:107C90000000624014011500020B00000000664065
:107CA00014051500020C00000000674014061500C2
:107CB000FFFF0000FFFFFFFF0000000005000000C5
:107CC000000061401400150003010000000068403E
:107CD00014071500030200000000624014011500A3
:107CE00003030000000063401402150003050000B8
:107CF0000000664014051500030600000000644003
:107D00001403150007060000000067401406150064
:107D1000030700000000654014041500030800007C
:107D200000006540140415000309000000006340D2
:107D300014021500030A000000006240140115003F
:107D4000030B00000000664014051500030C000042
:107D50000000674014061500FFFF0000FFFFFFFF53
:107D6000000000000200000000006140120000005E
:107D7000000100000000684012070000000200003F
:107D80000000624012010000000300000000634098
:107D9000120200000004000000006840120700000A
:107DA000000500000000664012050000000600000B
:107DB0000000644012030000040600000000674059
:107DC00012060000000700000000654012040000D9
:107DD00000080000000065401204000000090000D7
:107DE0000000634012020000000A00000000624030
:107DF00012010000000B00000000664012050000A8
:107E0000000C00000000674012060000000D00009A
:107E10000000674012060000FFFF0000FFFFFFFFA9
:107E20000000000003000000000061401200150087
:107E30000101000000006840120715000102000067
:107E400000006240120115000103000000006340C1
:107E5000120215000104000000006840120715001E
:107E60000105000000006640120515000106000033
:107E70000000644012031500050600000000674082
:107E800012061500010700000000654012041500ED
:107E900001080000000065401204150001090000FF
:107EA0000000634012021500010A00000000624059
:107EB00012011500010B00000000664012051500BC
:107EC000010C00000000674012061500010D0000C3
:107ED0000000674012061500FFFF0000FFFFFFFFD4
:107EE000000000000300000001000000010000008D
:107EF0000000000005036000040000000100000015
:107F000000000000010000000604600008000000FE
:107F1000E80B0108DD280410000000000600000046
:107F20000000000000000000000000000000000051
:107F30000000000000000000000000000000000041
:107F40000000000000000000000000000000000031
:107F50000000000000000000000000000000000021
:107F60000000000000000000000000000000000011
:107F70000000000000000000000000000000000001
:107F800001000000050000000000000000000000EB
:107F900000000000000000000000000000000000E1
:107FA00000000000000000000000000000000000D1
:107FB00000000000010000000800000012000000A6
:107FC00000000000000000000000000000000000B1
:107FD00000000000000000000000000000000000A1
:107FE000000000000000000001000000060000008A
:107FF000120000000000000000000000000000006F
:108000000000000000000000000000000000000070
:10801000000000000000000000000000010000005F
:108020000800000012000000000000000000000036
:108030000000000000000000000000000000000040
:108040000000000000000000000000000000000030
:108050000100000006000000120000000000000007
:108060000000000000000000000000000000000010
:108070000000000000000000000000000000000000
:1080800000000000000000000600000000000000EA
:1080900000000000000000000000000000000000E0
:1080A00000000000000000000000000000000000D0
:1080B0000000000000000000010000000C000000B3
:1080C000130000000000000000000000000000009D
:1080D00000000000000000000000000000000000A0
:1080E000000000000000000000000000010000008F
:1080F0000C00000013000000000000000000000061
:10810000000000000000000000000000000000006F
:10811000000000000000000000000000000000005F
:108120000100000006000000000000000000000048
:10813000000000000000000000000000000000003F
:10814000000000000000000000000000000000002F
:108150000000000001000000060000000000000018
:10816000000000000000000000000000000000000F
:1081700000000000000000000000000000000000FF
:1081800000000000000000000100000006000000E8
:1081900009000000000000000000000000000000D6
:1081A00000000000000000000000000000000000CF
:1081B00000000000000000000000000001000000BE
:1081C00006000000000000000000000000000000A9
:1081D000000000000000000000000000000000009F
:1081E000000000000000000000000000000000008F
:1081F0000100000006000000000000000000000078
:10820000000000000000000000000000000000006E
:10821000000000000000000000000000000000005E
:1082200000000000010000000E000000110000002E
:10823000000000000000000000000000000000003E
:10824000000000000000000000000000000000002E
:108250000000000000000000010000000E0000000F
:1082600011000000000000000000000000000000FD
:1082700000000000000000000000000000000000FE
:1082800000000000000000000000000001000000ED
:108290000E000000110000000000000000000000BF
:1082A00000000000000000000000000000000000CE
:1082B00000000000000000000000000000000000BE
:1082C000010000000E00000011000000000000008E
:1082D000000000000000000000000000000000009E
:1082E000000000000000000000000000000000008E
:1082F0000000000001000000060000001100000066
:10830000000000000000000000000000000000006D
:10831000000000000000000000000000000000005D
:108320000000000000000000010000000600000046
:10833000110000000000000000000000000000002C
:10834000000000000000000000000000000000002D
:10835000000000000000000000000000010000001C
:108360000600000003000000000000000000000004
:1083700000000000000000000000000000000000FD
:1083800000000000000000000000000000000000ED
:10839000010000000E0000000200000000000000CC
:1083A00000000000000000000000000000000000CD
:1083B00000000000000000000000000000000000BD
:1083C00000000000010000000E000000020000009C
:1083D000000000000000000000000000000000009D
:1083E000000000000000000000000000000000008D
:1083F0000000000000000000010000000E0000006E
:10840000020000000000000000000000000000006A
:10841000000000000000000000000000000000005C
:10842000000000000000000000000000010000004B
:108430000E0000000200000000000000000000002C
:10844000000000000000000000000000000000002C
:10845000000000000000000000000000000000001C
:10846000010000000E0000000200000000000000FB
:1084700000000000000000000000000000000000FC
:1084800000000000000000000000000000000000EC
:1084900000000000010000000A00000000000000D1
:1084A00000000000000000000000000000000000CC
:1084B00000000000000000000000000000000000BC
:1084C0000000000000000000010000000B000000A0
:1084D0001D0000000000000000000000000000007F
:1084E000000000000000000000000000000000008C
:1084F000000000000000000000000000010000007B
:108500000A0000001D000000000000000000000044
:10851000000000000000000000000000000000005B
:10852000000000000000000000000000000000004B
:1085300001000000060000001D0000000000000017
:10854000000000000000000000000000000000002B
:10855000000000000000000000000000000000001B
:1085600000000000010000000800000012000000F0
:1085700000000000000000000000000000000000FB
:1085800000000000000000000000000000000000EB
:1085900000000000000000000100000006000000D4
:1085A00012000000000000000000000000000000B9
:1085B00000000000000000000000000000000000BB
:1085C00000000000000000000000000001000000AA
:1085D000000000000000000000000000000000009B
:1085E000000000000000000000000000000000008B
:1085F000000000000000000000000000000000007B
:108600000100000000000000000000000000000069
:10861000000000000000000000000000000000005A
:10862000000000000000000000000000000000004A
:108630000000000001000000000000000000000039
:10864000000000000000000000000000000000002A
:10865000000000000000000000000000000000001A
:108660000000000000000000010000000000000009
:1086700000000000000000000000000000000000FA
:1086800000000000000000000000000000000000EA
:10869000000000000000000000000000F4010000E5
:1086A0001400040104000905080003006301000030
:1086B0001E01050000000000030101023F06D00773
:1086C0008608FE0BFC0E03547279696E6720746F86
:1086D0002072657365727665206E6F6E20657869AD
:1086E0007374696E6720706F72742F70696E2100E9
:1086F00000002140000025400000014000003440FF
:1087000000002440000031400000324000001F41C2
:10871000000023400000114001010101010101019D
:1087200001101010800019005500F0000501053BF4
:1087300004101C01010000000FC000000004000034
:1087400001010101011D3A5778960008200010121E
:1087500008000000001F00000010000F00200002B1
:108760003F06080E00080009000A000B24282C30E0
:10877000340000001000000090000000880000009D
:10878000080000008000000004F0000000F000007D
:10879000400200002005A000D00100018001A001DE
:1087A0002000000010000000000000000C0000008D
:1087B00008000000000200000000000000000000AF
:1087C0000000000000000000000000001400000095
:1087D000000000000B00000000000000000000008E
:1087E0003F0000000000000053657269616C205476
:1087F000582F52582070696E2072657365727661C9
:1088000074696F6E20636F6E666C6963742E0053BB
:10881000657269616C2070696E6F7574206D697323
:108820006D617463682E205265717565737465643B
:108830002070696E7320527820616E642054782015
:1088400063616E2774206265207573656420666FAE
:1088500072207468652073616D652053657269616B
:108860006C20636F6D6D756E69636174696F6E2ED8
:108870000053657269616C3A2063616E6E6F74209B
:1088800061737369676E20636C6F636B20646976D4
:10889000696465722E000000010000000400000001
:1088A00008000000080000000100000000000000B7
:1088B00000000000000000000000000000000000B8
:1088C000000000000000000000000000535049209C
:1088D00070696E6F7574206D69736D617463682E55
:1088E000205265717565737465642053434C4B2F3A
:1088F0004D4F53492F4D49534F2F5353454C2070E3
:10890000696E732063616E277420626520757365DC
:108910006420666F72207468652073616D652053F2
:10892000504920636F6D6D756E69636174696F6E18
:108930002E007370693A2063616E6E6F7420616CF3
:108940006C6F6361746520636C6F636B2064697620
:10895000696465722E007370693A2063616E6E6F90
:10896000742061737369676E20636C6F636B20643E
:108970006976696465722E005350492053434C4B0D
:108980002070696E207265736572766174696F6EAE
:1089900020636F6E666C6963742E00535049204DDE
:1089A0004F53492070696E207265736572766174E9
:1089B000696F6E20636F6E666C6963742E0053502E
:1089C00049204D49534F2070696E2072657365725E
:1089D000766174696F6E20636F6E666C6963742E66
:1089E00000535049205353454C2070696E207265E6
:1089F000736572766174696F6E20636F6E666C6901
:108A000063742E00FFFFFFFF000000000000000065
:108A10000000000000000000000000000000000056
:108A20000000000002000000000000000000000044
:108A30000000000000000000000000000000000036
:108A40000000000000000000030000000100000022
:108A500040420F0020000000504D2063616C6C62AA
:108A600061636B20726567697374726174696F6E9C
:108A7000206661696C656421000000005B000000F5
:108A8000060000002000000020000000908A041072
:108A900053746F72616765456E63323536484D4178
:108AA000435348413235365349474E415455524558
:108AB000003031323334353637383941424344455A
:108AC000460000000040000000000000400F0108C8
:108AD0005B455252205D204669726D776172652058
:108AE00073697A65203078256C5820726F756E64D2
:108AF000656420757020746F20746865206E6561F0
:108B00007265737420736563746F7220626F756E23
:108B100064617279203078256C58206973206C610B
:108B200072676572207468616E20746865206D617B
:108B300078696D756D206170706C69636174696FBF
:108B40006E2073697A65203078256C580D0A005BB9
:108B5000455252205D204170706C69636174696F89
:108B60006E20283078256C582920646F6573206E3C
:108B70006F74207374617274206F6E206120706155
:108B800067652073697A6520283078256C5829201C
:108B9000616C69676E656420616464726573730DEE
:108BA0000A0D0A005B455252205D2041524D5F552F
:108BB00043505F526561642072657475726E6564BE
:108BC00020302062797465730D0A005B424F4F5468
:108BD0005D20566572696679206E657720616374E1
:108BE000697665206669726D776172653A0D0A0073
:108BF0005B455252205D2048656164657220707249
:108C00006F6772616D2073697A6520256C752062CB
:108C10006967676572207468616E20627566666553
:108C2000722025640D0A0D0A005B455252205D201A
:108C30004865616465722070726F6772616D207340
:108C4000697A6520256C7520626967676572207492
:108C500068616E206578706563746564206865611D
:108C600064657220256C750D0A0D0A0030313233AF
:108C70003435363738394142434445460D5B424F1F
:108C80004F545D205B002B005D0D0A005D005B42D0
:108C90004F4F545D205348413235363A2025730DED
:108CA0000A003C6572726F72206D6573736167654F
:108CB000206C656164696E6720746F207265626FF5
:108CC0006F743E0000000000000000000000000083
:108CD0000000000000000000000000000000000094
:108CE0000000000000000000000000000000000084
:108CF0000000000000000000000000000000000074
:108D000000000000000000005B424F4F545D2065F2
:108D100072726F72206D657373616765206C656137
:108D200064696E6720746F207265626F6F743A2099
:108D300025730D0A005B424F4F545D204D62656400
:108D400020426F6F746C6F616465720D0A005B4244
:108D50004F4F545D2041524D3A2000253032686813
:108D600058005B424F4F545D204F454D3A20005B09
:108D7000424F4F545D204C61796F75743A20256CD9
:108D80007520256C580D0A005B424F4F545D204101
:108D900070706C69636174696F6E2773207374619E
:108DA000727420616464726573733A203078256C44
:108DB000580D0A005B424F4F545D204170706C6942
:108DC000636174696F6E2773206A756D70206164CA
:108DD00064726573733A203078256C580D0A005B15
:108DE000424F4F545D204170706C69636174696FCC
:108DF0006E277320737461636B20616464726573A2
:108E0000733A203078256C580D0A005B424F4F545E
:108E10005D20466F7277617264696E6720746F209F
:108E20006170706C69636174696F6E2E2E2E0D0A0D
:108E30000D0A005B455252205D204661696C6564F5
:108E400020746F206A756D7020746F206170706C73
:108E500069636174696F6E210D0A000000400000B3
:108E600000000000400F01085B424F4F545D20415D
:108E70006374697665206669726D776172652069D1
:108E80006E7465677269747920636865636B3A0D07
:108E90000A005B424F4F545D2056657273696F6ED6
:108EA0003A20256C6C750D0A005B424F4F545D20D3
:108EB000416374697665206669726D7761726520B9
:108EC000736C6F7420697320656D7074790D0A007E
:108ED0005B455252205D204661696C656420746F69
:108EE00020626F6F742061637469766520617070B1
:108EF0006C69636174696F6E2025642074696D65A7
:108F0000730D0A005B455252205D204163746976FF
:108F100065206669726D7761726520696E74656738
:108F20007269747920636865636B206661696C653A
:108F3000640D0A005B424F4F545D20536C6F7420E8
:108F4000256C75206669726D7761726520696E7433
:108F500065677269747920636865636B3A0D0A000E
:108F60005B424F4F545D20557064617465206163AE
:108F700074697665206669726D77617265207573B4
:108F8000696E6720736C6F7420256C753A0D0A004A
:108F90005B455252205D20536C6F7420256C752008
:108FA0006669726D776172652073697A6520746F86
:108FB0006F206C6172676520256C75203E20256CE2
:108FC000750D0A005B455252205D20536C6F742072
:108FD000256C75206669726D7761726520696E74A3
:108FE00065677269747920636865636B206661697F
:108FF0006C65640D0A005B424F4F545D20536C6FEB
:109000007420256C75206669726D776172652069C0
:1090100073206F66206F6C64657220646174650DE7
:109020000A005B424F4F545D20536C6F7420256CD7
:109030007520697320656D7074790D0A005B424F6D
:109040004F545D204E6577206163746976652066B4
:1090500069726D776172652069732076616C6964ED
:109060000D0A005B455252205D204669726D7761A2
:10907000726520757064617465206661696C6564F1
:109080000D0A005B424F4F545D2041637469766561
:10909000206669726D776172652075702D746F2D11
:1090A000646174650D0A005B455252205D20416386
:1090B00074697665206669726D7761726520696E84
:1090C00076616C69640D0A00000000000000000079
:1090D0000000000000000000000000000000000090
:1090E0000000000000000000000000000000000080
:1090F0000000000000000000000000000000000070
:10910000000000000000000000000000000000005F
:10911000000000000000000000000000000000004F
:10912000000000000000000000000000A071FF7FB0
:109130000100000000000410000001088C02000083
:10914000549104108C020108AC050000B00801081D
:109150009446000000000000A56E0410A123041036
:10916000484F010800127A0000127A0000093D0001
:109170000000A00F00127A00401F0000080000004D
:109180000700000000000000000000000F000000C9
:1091900000000000000000000300000000000000CC
:1091A00000000000000000000000000000000000BF
:1091B00079580410010000000700000000030108B6
:1091C0000000000000000000000038400000000027
:1091D00001000000FFFFFFFFC56104100000000058
:1091E000000000000000000000000000000000007F
:1091F0008D62041000000000F9630410F96204108D
:10920000000000004003010800000000E890041086
:1092100008910410C8900410000000000000000035
:10922000000000000000000000000000000000003E
:10923000000000000000000000000000000000002E
:10924000000000000000000000000000000000001E
:10925000000000000000000000000000000000000E
:109260000000000000000000B1020410B963041007
:10927000A96804108D02041080B210B5C40008B3B0
:10928000114B1968B1F8B0300A6AC3EBC3031A4432
:1092900010680028FCDA0D4A3E20106041F61E706E
:1092A0005060A2F582720620C2F81805C2F81C456B
:1092B000096AD2F81C050B4400215960D2F81C350C
:1092C000002BFBDA10BD00BF0C0F01080401264083
:1092D00008B54378FF2B13D100F0EEF901460420C6
:1092E00000F0F6F9C3685B681A6842F001021A6080
:1092F0001A68D207FCD40846BDE8084000F0F4B96B
:1093000008BDF8B51D4E052000F0E2F933685A6833
:109310004FF260030746D45800F0CEF93368A4B288
:109320001A68D3F89030013C032C02EB0301054688
:10933000D3581ED8032B07D1114B1B7823B9082310
:10934000BB600B68032BFCD000F0BAF9014600F0BB
:10935000D3F9431C0B4801FB033358430A4B4FF42A
:109360007A721B68B3FBF2F3B0FBF3F08230FFF7C5
:1093700083FF2846BDE8F84000F0B6B90C0F01089D
:109380000B00001640420F00A00201082DE9F04733
:1093900080460120894600F09BF93E4B1B68D3F8BC
:1093A000B41093F8503006464718002B5AD03A4B69
:1093B0001B7803F0FF04002B3CD1052000F088F956
:1093C0004358002B03DA354C2046BDE8F087204691
:1093D00000F082F9324DA842F5D0324A2346126895
:1093E0000121204600F064F90028ECD10446DFF8A2
:1093F000C4A000E00134002000F06EF9A84202D0C1
:109400005445F7D1DFE75445DDD0012500F054F98C
:10941000254BD3F81C35002B82460DDB1F4C2DB19C
:109420000121002000F064F90028F9D1504600F035
:109430005BF9C9E70025E9E71C4A0121304600F045
:1094400043F90028EAD14846FFF716FFB8F1000FAC
:1094500006D03B68002BFCDB00F026F90446DEE773
:10946000134CDCE700F028F9104A0546012130468C
:1094700000F02AF950B9B8F1000F09D03B68002B71
:10948000FCDB00F011F904462846D0E7034CFBE76B
:10949000074CF9E70C0F01080B00001605005200FD
:1094A00001018800500E010800002640400E01080E
:1094B00001005000F049020073490A68F8B5B2F89B
:1094C000B0305468126AC3EBC303054613441A68EC
:1094D000002AFCDA00F004F9212840F09A800B6899
:1094E000B3F8B020186AC2EBC2020244D06840F060
:1094F0000100D060D06880072CD51E68D3F884C0E6
:10950000D2F80CE0D3F8887056F80C00F759000236
:1095100000F47F001FFA8EFE40EA0E003F0A40EA88
:109520000760D06056F80C2022F47F4242F41062AB
:1095300046F80C20D3F888001E68325822F47F4287
:1095400042F4106232501A68D3F88400D3F888309D
:109550001058D3580A684D4EB2F8B030106AC3EBB9
:10956000C3030344002058601368D2F8942048488D
:109570001A4401270369012D43F00403036152D00B
:1095800030BF136803F00303022BF3D00A68B2F86C
:10959000B030126AC3EBC30313441A68002AFCDA22
:1095A00000F09EF8212844D10C68B4F8B030256A48
:1095B000C3EBC3031D44E86810F0020019D0D4F8CF
:1095C00084602768B859EA68120A20F47F4002F4E0
:1095D0007F420243BA51206A2668D4F88850184462
:1095E0007259C06822F47F42000E42EA0022725192
:1095F0000120226A1344DA6822F00102DA600A6864
:10960000B2F8B030126AC3EBC303134400225A60AD
:10961000F8BD0A68B2F8B030126AC3EBC303134452
:109620001C4ADA6096E720BF337803B120BF377059
:10963000A7E7D4F80C312BBB174B1848184A07681A
:10964000D3F81865156841F61E7CC0F800C04FF0CD
:10965000060CC3F818C54FF03E0CC2F800C04FF01E
:10966000440CC3F81CC5D3F81CC5BCF1000FFADAD2
:109670004FF0AA3CC4F80CC10760C3F8186501207C
:109680001560BCE70020BAE70C0F01089C0E01082A
:1096900000ED00E0680E01080000264008012640A9
:1096A00004012640000000005FF800F0B13804100B
:1096B0005FF800F0653D04105FF800F0B337041068
:1096C0005FF800F0CD3704105FF800F04D3C041057
:1096D0005FF800F0F93704105FF800F0A53F0410C0
:1096E0005FF800F0ED4804105FF800F0BB3704109D
:1096F0005FF800F0253F04105FF800F0E137041038
:00000001FF
