:020000023000CC
:1000000000400420F50103007102030075020300A3
:100010006D0203006D0203006D020300000000008A
:100020000000000000000000000000007902030052
:100030006D020300000000007D0203008102030046
:1000400085020300890203008D0203009102030070
:1000500095020300990203009D020300A102030020
:10006000A5020300A9020300AD020300B1020300D0
:1000700081480300B9020300BD020300C10203006E
:10008000C5020300C9020300CD020300D102030030
:10009000D5020300D9020300DD020300E1020300E0
:1000A000E5020300E9020300ED020300F102030090
:1000B000F5020300F9020300FD020300010303003F
:1000C00005030300090303000D03030011030300EC
:1000D00015030300190303001D030300210303009C
:1000E00025030300290303002D030300310303004C
:1000F00035030300390303003D03030041030300FC
:1001000045030300490303004D03030051030300AB
:1001100055030300590303005D030300610303005B
:1001200065030300690303006D030300710303000B
:1001400010B5054C237833B9044B13B1044800E0D3
:1001500000BF0123237010BDB02202200000000068
:10016000F073030008B5034B1BB10349034800E0DB
:1001700000BF08BD00000000B4220220F07303009D
:10018000154B002B08BF134B9D46A3F5803A002169
:100190008B460F461348144A121A06F069F80F4BA3
:1001A000002B00D098470E4B002B00D09847002022
:1001B000002104000D000D48002802D00C4803F077
:1001C0009FF806F007F82000290003F0F1F803F08B
:1001D00094F800BF00000800004004200000000068
:1001E000A1330300B022022068660220013303001D
:1001F00000000000124880471249134A134B9A42EC
:10020000BEBF51F8040B42F8040BF8E71049114A3D
:1002100000209142BCBF41F8040BFAE700200E49D0
:100220000E4A9142BCBF41F8040BFAE70C490D4A53
:100230009142BCBF41F8040BFAE762B60A48804716
:100240003D3B03006074030000220220B022022024
:10025000B022022068660220686602200030042076
:10026000003004200040042081010300FFF7FEBF9E
:100270004048004740480047404800474048004742
:100280004048004740480047404800474048004732
:100290004048004740480047404800474048004722
:1002A0004048004740480047404800474048004712
:1002B0004048004740480047404800474048004702
:1002C00040480047404800474048004740480047F2
:1002D00040480047404800474048004740480047E2
:1002E00040480047404800474048004740480047D2
:1002F00040480047404800474048004740480047C2
:1003000040480047404800474048004740480047B1
:1003100040480047404800474048004740480047A1
:100320004048004740480047404800474048004791
:100330004048004740480047404800474048004781
:100340004048004740480047404800474048004771
:100350004048004740480047404800474048004761
:100360004048004740480047404800474048004751
:100370004048004771020300750203007902030040
:100380007D020300810203006D0203009D4403000F
:100390001D46030039460300D5460300014703000C
:1003A0002D47030059470300054D03006D0203006C
:1003B000B9430300BF4303006D020300CB430300B6
:1003C0005D450300754503008D450300A545030009
:1003D000BD450300D5450300ED4503000546030078
:1003E0006D0203006D0203006D0203006D02030045
:1003F0006D0203006D0203006D0203006D02030035
:100400006D0203006D02030085470300B14703003E
:10041000DD47030009480300C5430300D14303003F
:10042000554603006D0203006D0203006D020300D8
:10043000914803006D0203006D0203006D0203008A
:100440006D0203006D0203006D0203006D020300E4
:100450007D460300A94603006D0203006D02030000
:100460006D0203006D0203006D0203006D020300C4
:10047000A94403006D02030010F8012B11F8013BA1
:10048000012A28BF9A42F7D0D01A704781F0004164
:1004900002E000BF83F0004330B54FEA41044FEA69
:1004A000430594EA050F08BF90EA020F1FBF54EA04
:1004B000000C55EA020C7FEA645C7FEA655C00F0A0
:1004C000E2804FEA5454D4EB5555B8BF6D420CDD71
:1004D0002C4480EA020281EA030382EA000083EAF4
:1004E000010180EA020281EA0303362D88BF30BD94
:1004F00011F0004F4FEA01314FF4801C4CEA1131EA
:1005000002D0404261EB410113F0004F4FEA033348
:100510004CEA133302D0524263EB430394EA050FD3
:1005200000F0A780A4F10104D5F1200E0DDB02FA42
:100530000EFC22FA05F2801841F1000103FA0EF2D6
:10054000801843FA05F359410EE0A5F120050EF19C
:10055000200E012A03FA0EFC28BF4CF0020C43FACD
:1005600005F3C01851EBE37101F0004507D54FF0DA
:10057000000EDCF1000C7EEB00006EEB0101B1F52A
:10058000801F1BD3B1F5001F0CD349085FEA300070
:100590004FEA3C0C04F101044FEA445212F5800F7B
:1005A00080F09A80BCF1004F08BF5FEA500C50F118
:1005B000000041EB045141EA050130BD5FEA4C0CFB
:1005C000404141EB010111F4801FA4F10104E9D184
:1005D00091F0000F04BF01460020B1FA81F308BF7B
:1005E0002033A3F10B03B3F120020CDA0C3208DD47
:1005F00002F1140CC2F10C0201FA0CF021FA02F122
:100600000CE002F11402D8BFC2F1200C01FA02F191
:1006100020FA0CFCDCBF41EA0C019040E41AA2BFB6
:1006200001EB0451294330BD6FEA04041F3C1CDA7E
:100630000C340EDC04F11404C4F1200220FA04F09E
:1006400001FA02F340EA030021FA04F345EA030148
:1006500030BDC4F10C04C4F1200220FA02F001FA0A
:1006600004F340EA0300294630BD21FA04F029468C
:1006700030BD94F0000F83F4801306BF81F4801125
:100680000134013D4EE77FEA645C18BF7FEA655C98
:1006900029D094EA050F08BF90EA020F05D054EA6A
:1006A000000C04BF1946104630BD91EA030F1EBF6F
:1006B0000021002030BD5FEA545C05D14000494173
:1006C00028BF41F0004130BD14F580043CBF01F566
:1006D000801130BD01F0004545F0FE4141F470014C
:1006E0004FF0000030BD7FEA645C1ABF1946104627
:1006F0007FEA655C1CBF0B46024650EA013406BF28
:1007000052EA033591EA030F41F4002130BD00BFE6
:1007100090F0000F04BF0021704730B54FF48064A3
:1007200004F132044FF000054FF0000150E700BF24
:1007300090F0000F04BF0021704730B54FF4806483
:1007400004F1320410F0004548BF40424FF0000170
:100750003EE700BF42004FEAE2014FEA31014FEAB3
:1007600002701FBF12F07F4393F07F4F81F0605102
:10077000704732F07F4208BF704793F07F4F04BF4D
:1007800041F40021704730B54FF4607401F000452A
:1007900021F000411CE700BF50EA010208BF70478A
:1007A00030B54FF000050AE050EA010208BF70477B
:1007B00030B511F0004502D5404261EB41014FF4E4
:1007C000806404F132045FEA915C3FF4D8AE4FF0EC
:1007D00003025FEADC0C18BF03325FEADC0C18BFCF
:1007E000033202EBDC02C2F1200300FA03FC20FA20
:1007F00002F001FA03FE40EA0E0021FA02F114446D
:10080000BDE600BF70B54FF0FF0C4CF4E06C1CEA85
:1008100011541DBF1CEA135594EA0C0F95EA0C0FF6
:1008200000F0DEF82C4481EA030621EA4C5123EA69
:100830004C5350EA013518BF52EA033541F4801198
:1008400043F4801338D0A0FB02CE4FF00005E1FB4B
:1008500002E506F00042E0FB03E54FF00006E1FB95
:1008600003569CF0000F18BF4EF0010EA4F1FF04D8
:10087000B6F5007F64F5407404D25FEA4E0E6D4118
:1008800046EB060642EAC62141EA55514FEAC52029
:1008900040EA5E504FEACE2EB4F1FD0C88BFBCF5A5
:1008A000E06F1ED8BEF1004F08BF5FEA500E50F156
:1008B000000041EB045170BD06F0004646EA01011C
:1008C00040EA020081EA0301B4EB5C04C2BFD4EB4E
:1008D0000C0541EA045170BD41F480114FF0000E47
:1008E000013C00F3AB8014F1360FDEBF002001F0B5
:1008F000004170BDC4F10004203C35DA0C341BDC2F
:1009000004F11404C4F1200500FA05F320FA04F000
:1009100001FA05F240EA020001F0004221F0004134
:1009200010EBD37021FA04F642EB06015EEA430EA7
:1009300008BF20EAD37070BDC4F10C04C4F12005D7
:1009400000FA04F320FA05F001FA04F240EA02008A
:1009500001F0004110EBD37041F100015EEA430E5B
:1009600008BF20EAD37070BDC4F1200500FA05F27B
:100970004EEA020E20FA04F301FA05F243EA0203FA
:1009800021FA04F001F0004121FA04F220EA020009
:1009900000EBD3705EEA430E08BF20EAD37070BD4F
:1009A00094F0000F0FD101F00046400041EB01012F
:1009B00011F4801F08BF013CF7D041EA060195F011
:1009C000000F18BF704703F00046520043EB0303CB
:1009D00013F4801F08BF013DF7D043EA06037047B8
:1009E00094EA0C0F0CEA135518BF95EA0C0F0CD0C3
:1009F00050EA410618BF52EA4306D1D181EA030109
:100A000001F000414FF0000070BD50EA410606BF02
:100A10001046194652EA430619D094EA0C0F02D147
:100A200050EA013613D195EA0C0F05D152EA03368C
:100A30001CBF104619460AD181EA030101F00041AA
:100A400041F0FE4141F470014FF0000070BD41F0F3
:100A5000FE4141F4780170BD70B54FF0FF0C4CF4CD
:100A6000E06C1CEA11541DBF1CEA135594EA0C0FEC
:100A700095EA0C0F00F0A7F8A4EB050481EA030E39
:100A800052EA03354FEA013100F088804FEA033320
:100A90004FF0805545EA131343EA12634FEA0222EE
:100AA00045EA111545EA10654FEA00260EF00041AF
:100AB0009D4208BF964244F1FD0404F5407402D201
:100AC0005B084FEA3202B61A65EB03055B084FEA92
:100AD00032024FF480104FF4002CB6EB020E75EB8F
:100AE000030E22BFB61A754640EA0C005B084FEAB7
:100AF0003202B6EB020E75EB030E22BFB61A754634
:100B000040EA5C005B084FEA3202B6EB020E75EB7E
:100B1000030E22BFB61A754640EA9C005B084FEAF6
:100B20003202B6EB020E75EB030E22BFB61A754603
:100B300040EADC0055EA060E18D04FEA051545EAF2
:100B400016754FEA06164FEAC30343EA52734FEA9B
:100B5000C2025FEA1C1CC0D111F4801F0BD141EA14
:100B600000014FF000004FF0004CB6E711F4801F79
:100B700004BF01430020B4F1FD0C88BFBCF5E06F59
:100B80003FF6AFAEB5EB030C04BFB6EB020C5FEA69
:100B9000500C50F1000041EB045170BD0EF0004EBE
:100BA0004EEA113114EB5C04C2BFD4EB0C0541EAF0
:100BB000045170BD41F480114FF0000E013C90E6ED
:100BC00045EA060E8DE60CEA135594EA0C0F08BFB1
:100BD00095EA0C0F3FF43BAF94EA0C0F0AD150EAB0
:100BE00001347FF434AF95EA0C0F7FF425AF104643
:100BF00019462CE795EA0C0F06D152EA03353FF46B
:100C0000FDAE1046194622E750EA410618BF52EAE7
:100C100043067FF4C5AE50EA41047FF40DAF52EABB
:100C200043057FF4EBAE12E74FEA4102B2F1E04335
:100C300024BFB3F5001CDCF1FE5C0DD901F0004CC3
:100C40004FEAC0024CEA5070B2F1004F40EB830013
:100C500008BF20F00100704711F0804F21D113F13F
:100C60003872BCBF01F00040704741F480114FEA78
:100C70005252C2F11802C2F1200C10FA0CF320FA01
:100C800002F018BF40F001004FEAC1234FEAD3231E
:100C900003FA0CFC40EA0C0023FA02F34FEA430388
:100CA000CCE77FEA625307D150EA01331EBF4FF011
:100CB000FE4040F44000704701F0004040F0FE402C
:100CC00040F40000704700BF53B94AB9002908BF7B
:100CD00000281CBF4FF0FF314FF0FF3000F07CB90F
:100CE000ADF1080C6DE904CE00F006F8DDF804E083
:100CF000DDE9022304B070472DE9F0478C46089DDA
:100D000004468A46002B4AD18A42174662D9B2FA73
:100D100082F64EB1C6F1200E01FA06F3B740B44098
:100D200020FA0EFE4EEA030A4FEA1748230C1FFA78
:100D300087F9BAFBF8FE08FB1EAA0EFB09F243EA8C
:100D40000A439A420BD9FB180EF1FF312CBF012048
:100D500000209A4202D9002800F02A818E469A1A71
:100D6000A3B2B2FBF8F008FB102200FB09F943EA3A
:100D70000244A14507D93C1900F1FF3302D2A14535
:100D800000F210811846A4EB090440EA0E4000214D
:100D90001DB1F4400023C5E90043BDE8F0878B4254
:100DA00008D9002D00F0F2800021C5E9000C0846AA
:100DB000BDE8F087B3FA83F100294ED16345C0F056
:100DC000E880824240F2E5800846002DE5D0C5E982
:100DD000004AE2E702B9FFDEB2FA82F6002E40F0E6
:100DE00099808B1A4FEA124E1FFA82F801214FEABE
:100DF000144CB3FBFEF20EFB123008FB02F94CEA76
:100E0000004CE14508D917EB0C0C02F1FF3302D27C
:100E1000E14500F2CA801A46ACEB090CA3B2BCFB58
:100E2000FEF00EFB10CC08FB00F843EA0C44A04592
:100E30000ED93C1900F1FF332CBF4FF0010C4FF0DD
:100E4000000CA04503D9BCF1000F00F0A8801846A3
:100E5000A4EB080440EA02409AE7C1F120048B4069
:100E600002FA01FE0CFA01F6E24020FA04F72CFA2D
:100E700004FC00FA01F813433E431F0C320C1FFA26
:100E800083F9BCFBF7F007FB10CC00FB09FA42EA40
:100E90000C4CE24508D913EB0C0C00F1FF3202D2E6
:100EA000E24500F289801046ACEB0A0CB6B2BCFBFE
:100EB000F7FA07FB1ACC0AFB09F946EA0C429145FE
:100EC00006D99A180AF1FF3601D291457AD8B2466E
:100ED0004AEA0040A2EB0902A0FB0E67BA42B44600
:100EE000B94602D307D1B04505D2B6EB0E0C67EB7D
:100EF000030301389946002D6BD0B8EB0C0362EB6D
:100F0000090202FA04F4CB40CA4000211C43C5E99F
:100F1000004242E7B740C6F1200201FA06F3B440AE
:100F200021FA02FC4FEA174E20FA02F21FFA87F864
:100F3000BCFBFEF11A430EFB11CC01FB08F0130CB5
:100F400043EA0C4C604507D917EB0C0C01F1FF3359
:100F500001D2604533D81946ACEB000C92B2BCFB11
:100F6000FEF00EFB10CC00FB08F342EA0C4C63458C
:100F700007D917EB0C0C00F1FF3201D2634525D8DD
:100F80001046ACEB030340EA014130E7294628460E
:100F900003E7841A6CEB030301209A4615E7023835
:100FA0003C4455E702383C44EDE6023ABC4433E7A2
:100FB000AEF1020E3B44D2E602389C4474E702399B
:100FC000BC44C9E7AAF1020A1A4481E70238BC44CA
:100FD000D7E72946E1E600BF704700BF0020704711
:100FE0000020704703689B6A18470368DB6A18474C
:100FF0004FF0FF3070477047704710B504460368E4
:101000009B6C984794F8603033B963662368204638
:10101000DB6C9847002010BD636E013B6366002BBC
:10102000F4D184F8603000220023C4E90223EDE704
:101030004FF4007000217047D0E902135B024802B0
:1010400043EAD15170470000004870474C640300E8
:1010500080F86110704770B50024064620460131C3
:10106000891A8C420CD01519A6EBD503DB7B05F051
:1010700007052B4103F00103A34018430134F0E7B7
:1010800070BD00002DE9F3419846194B16460360E8
:10109000002200230D460446C0E9022310300A9FB7
:1010A00001F028F84FF0FF3329460025324600931F
:1010B00004F15806434604F1380000F0C1FE9DF9E2
:1010C0002010304684F8585001F073FD304684F803
:1010D00060506566012102F00EFA064B2046C4E915
:1010E0000C374FF400732571E36502B0BDE8F08161
:1010F00058640300A08601002DE9F84FDDE90A8954
:1011000092469B46C76D06463A46002350465946CE
:10111000FFF7DAFD134317D13A460023404649460C
:10112000FFF7D2FD13430FD133681AEB08049B6B12
:1011300030464BEB09059847A94208BFA0422CBF97
:1011400001200020BDE8F88F0020FBE7416B08B5C7
:10115000084B0246994200F1380003D800F0C9FE5E
:10116000002008BD5363194600F0C3FE6FF0150060
:10117000F7E700BF40787D0138B50446154603689F
:101180009B6C984765632046FFF7E0FF05462368A0
:101190002046DB6C9847284638BD0000094B10B547
:1011A000036090F8603004460BB1FFF726FF04F1AE
:1011B000380000F0E9FD04F1100000F015FF2046B2
:1011C00010BD00BF5864030010B50446FFF7E6FFEA
:1011D000204602F0CDF8204610BD73B501F03F0364
:1011E00043F040038DF80030130E8DF80130130CDE
:1011F0008DF80230130A0D468DF803308DF8042067
:1012000019B1082921D0FF2300E0952300268DF88D
:10121000053000F138041DF806102046013600F0B4
:10122000ADFE062EF7D10C2D03D1FF21204600F094
:10123000A5FE1025FF21204600F0A0FE030601D5E3
:10124000013DF7D1C0B202B070BD8723DEE770B5B3
:1012500000F11004054620460E4600F03AFF2046F5
:1012600000F0D2FE3835FF21284600F087FE864286
:10127000204603D100F0F5FE012070BD00F020FFF4
:10128000B0F5967FEFDB204600F0EBFE0020F4E7A0
:1012900070B500F11004054620460E4600F019FF17
:1012A000204600F0B1FE3835FF21284600F066FEEA
:1012B000C0B2FF28204603D100F0D3FE012070BD4C
:1012C00000F0FEFEB042EFDB204600F0CAFE002038
:1012D000F5E770B50E46002400F13805B44205D09C
:1012E000FF21284600F04AFE0134F7E770BD0000F8
:1012F00073B50D46FE2104461646FFF7A8FF90B1D0
:101300000022383411462B460096204600F046FE57
:10131000FF21204600F032FEFF21204600F02EFE85
:10132000002002B070BD0148FBE700BF70ECFFFF7A
:10133000F7B500F1380405460E46204611461F4613
:1013400000F01CFE00233A4600933146204600F090
:1013500025FE6FF07F41204600F010FE4FF0FF3178
:10136000204600F00BFEFF21204600F007FE42F26F
:10137000107104462846FFF78BFF04F01F0003B0EE
:10138000F0BD38B5044600F13805284600F0F2FCFF
:10139000FF21284600F0F2FD04F158000021BDE8CD
:1013A000384002F0A8B838B5054600F138042046A8
:1013B00000F0E0FC296B204600F09BFD0022204657
:1013C000082100F079FD2046FF2100F000FE05F124
:1013D0005800012102F08FF828460A21FFF779FF13
:1013E0002046BDE8384000F0C5BC10B504460121D8
:1013F0003834583002F07FF82046FF2100F0BEFD5F
:101400002046BDE8104000F0B5BC00002DE9F047D3
:101410000C46064691469A46089FFFF7B2FF0C2CF1
:1014200004D042F210713046FFF732FF4FF003084C
:10143000BAF1000F09D0372100223046FFF7CDFE68
:1014400042F210713046FFF723FF4A4621463046EC
:10145000FFF7C3FEFF28054670D1B8F10108E7D1B8
:1014600007B138603046FFF7C0FFDFF8EC80404638
:10147000BDE8F087420709D53046FFF7B6FF082CD4
:1014800001D104233371DFF8D480F0E710F0120F9C
:101490001FD12F4B10F0600F14BF98464FF000087B
:1014A0000D2C41D018DC082C35D00C2C36D0002F58
:1014B00042D1093CE4B2102C07D8264B23FA04F49D
:1014C000E30702D5B8F1000FD1D03046FFF78DFF0A
:1014D000CDE7DFF88C80E3E7262C1FD03A2CE6D14D
:1014E00006F13809FF21484600F048FDFF21054676
:1014F000484600F043FD2D0645EA0045FF214846D9
:1015000000F03CFDFF218246484600F037FD0543D0
:1015100045EA0A25CBE702233371E1E742F2107175
:101520003046FFF7B5FEC2E7FF2106F1380000F0B4
:1015300025FD002FC9D005463D60BAE707B13860E8
:10154000010797D53046FFF750FFDFF818808EE788
:1015500075ECFFFF01A3010073ECFFFF76ECFFFFCA
:101560006EECFFFF6FECFFFF2DE9F347DDE90A6743
:10157000CDE90067044690461D46FFF7BDFD0028F3
:1015800041D0236820469B6C984794F8603043B95B
:1015900023682046DB6C98471C4D284602B0BDE806
:1015A000F0872379B6F5007947F1FF3A032B08D18C
:1015B0004FEA592343EACA5399464FEA582848EA62
:1015C000C55800234246009320212046FFF71EFF06
:1015D000054620B123682046DB6C9847DDE7009084
:1015E000034608EB090221212046FFF70FFF0546BD
:1015F0000028EFD100900346024626212046FFF73F
:1016000005FF0546E6E7024DC7E700BF74ECFFFFA4
:1016100075ECFFFF1FB5002304AA42F8043D0092B9
:1016200008214FF4D5720446FFF7F0FE58B923792C
:10163000022B08D1039BC3F30B03B3F5D57F1EBF69
:1016400004230248237104B010BD00BF71ECFFFFFA
:101650007FB50546052403AE002300961A461946B9
:101660002846FFF7D3FE039B012B04D0012001F095
:101670000FFF013CF0D1039804B070BD00232DE9A9
:10168000F043044680F8613085B0FFF78CFE2046B9
:10169000FFF7DEFF01285DD12046FFF7BBFF0546BF
:1016A00010B12D4B98420FD1002303AE00961A467D
:1016B0003A212046FFF7AAFE054628B9039BD90226
:1016C00006D40423254D2371284605B0BDE8F083D8
:1016D000237904F11007022B384614BF4FF000099C
:1016E0004FF0804942F20F7800F08EFC01234A4609
:1016F000009629212046FFF789FE039B0546DA075D
:1017000004D5384600F0DCFC4045EFDD384600F0FB
:10171000A8FC0DB9039B13B104232371D4E72379EB
:10172000022B15D100962B462A463A212046FFF778
:101730006DFE20B9039B5B0001D5032323710023B9
:101740003B2100931A462046FFF760FE0546BBE7A3
:101750000123F3E7024DB7E776ECFFFF71ECFFFFE3
:1017600073ECFFFF2DE9F04F85B014461D46DDE90F
:101770000E23CDE90223036882469B6A8B46984775
:1017800002460B4620462946FFF79EFA134304D033
:10179000404C204605B0BDE8F08FDAF800305046E6
:1017A0009B6A984702460B46DDE90201FFF78CFA77
:1017B0001343EDD1DDE90289DAF8003018EB0408B3
:1017C0009B6B504649EB05099847494508BF404582
:1017D000DED3DAF8003050469B6C98479AF86030B8
:1017E00033B9DAF800305046DB6C98472A4CD0E722
:1017F0000027029B00975E0A039B46EAC3569AF8AD
:101800000430032B02BF630A43EAC5531C46012E72
:101810001CD122463B4618215046FFF7F7FD0446EF
:1018200028B1DAF800305046DB6C9847B1E74FF446
:101830000073FE2259465046FFF77AFD174B0528E4
:1018400018BF1C465046FFF7D0FDEAE70123324699
:1018500017215046FFF7DAFD224600973B46192133
:101860005046FFF7D3FD04460028DAD14FF4007349
:10187000FC2259465046FFF75BFD052803D1013E87
:101880000BF5007BF2D1FD210AF1380000F076FB68
:10189000D8E700BF75ECFFFF74ECFFFF6DECFFFFB6
:1018A0002DE9F74FDDE90C671D46036814465B6AB6
:1018B00082468B46984702460B4620462946FFF74C
:1018C00003FA134304D0374C204603B0BDE8F08F31
:1018D000DAF8003050465B6A984702460B463046BD
:1018E0003946FFF7F1F91343EDD1DAF8003014EB84
:1018F00006089B6B504645EB07099847494508BFCA
:101900004045E0D3DAF8003050469B6C98479AF88F
:1019100060302BB9DAF800305046DB6C9847D2E7DC
:101920009AF804304FEA5628032B02BF630A43EAB1
:10193000C5531C46002348EAC758B8F1010F224698
:1019400000938CBF122111215046FFF75FFD044622
:1019500028B1DAF800305046DB6C9847B4E7B8F1AC
:10196000000F0CD04FF4007259465046FFF7C0FCF0
:1019700020B90BF5007B08F1FF38F0E70A4C504620
:10198000FFF733FD00234FF40072BB4208BFB242A1
:10199000DFD200230C2100931A465046FFF736FD94
:1019A0000446D6E775ECFFFF70ECFFFFF8B50C4678
:1019B000FE2105461746FFF74AFC60B1274405F1B2
:1019C0003806BC424FF0FF01304609D000F0D6FA8D
:1019D00004F8010BF5E72846FFF707FD0648F8BDB8
:1019E00000F0CCFAFF21304600F0C8FA2846FFF795
:1019F000FCFC0020F3E700BF70ECFFFFF0B5002413
:101A000087B000942346224609210646FFF7FEFCD4
:101A1000074600284DD1102202A93046FFF7C6FF25
:101A20000546002844D17E227F2102A8FFF713FB40
:101A300018B1012834D02C463BE03E22492102A8AF
:101A4000FFF709FB2F220446312102A8FFF703FB11
:101A500050220546532102A8FFF7FDFA01232E224A
:101A600002350134AC4003FA00F0A4FB0001440A43
:101A700044EAC1544D0A02A81146FFF7ECFA18B126
:101A80004FF40073F36507E027222D2102A8FFF72A
:101A9000E2FA01304002F0652046294607B0F0BD69
:101AA0003022452102A8FFF7D6FA01308402E7E789
:101AB0003C462546F0E737B5044603689B6C9847DB
:101AC00094F8603003B96366636E0133012B63667B
:101AD0002FD12046FFF7D2FD051E0CBF01230023A6
:101AE00084F8603004D023682046DB6C98470DE012
:101AF0002046FFF783FF50EA0103C4E9020108D141
:101B000023682046DB6C98476FF47A65284603B05B
:101B100030BD00952B464FF4007210212046FFF790
:101B200075FC0028ECD12046FFF710FB0546002885
:101B3000D9D123682046DB6C98470025E6E770473B
:101B4000704703F0F7B803F0EBB803F0F6B803F012
:101B5000F7B803F0F8B8036823B9036813B900F1C4
:101B6000080303601846704770B505460A4E3046B4
:101B7000FFF7F1FF284605F057FC0446284603F01E
:101B8000D9F801F0F3FB68603046FFF7E4FF201C52
:101B900018BF0120404270BDD022022038B5054652
:101BA0000948FFF7D8FF284603F0B8F8003018BFFF
:101BB00001204442686808B101F0DCFB0248FFF7ED
:101BC000CAFF204638BD00BFD02202202DE9F041D7
:101BD0000F46164605469846084C2046FFF7BBFFC1
:101BE00043463A463146284605F016FC054620464F
:101BF000FFF7B1FF2846BDE8F08100BFD0220220E8
:101C00002DE9F74F154699460746884603F092F8A6
:101C10000646384603F094F88246384603F08DF8BD
:101C2000B5FBF6F306FB1354002C5BD1B8F1000FA3
:101C300058D005EB09038244534553D82B48FFF78E
:101C40008AFF2346B9F1000F43D0002B3FD129462C
:101C5000384603F065F8B5FBF0F400FB1454041BA0
:101C60004C4528BF4C4618F0030F01D1B44226D290
:101C7000B44228BF344641462246786804F0EDFA63
:101C8000B44205D27868321BFF21204404F0F0FAF8
:101C9000B3467B6801934FF0100A5B46019A2946D0
:101CA000384605F0B1FB034620B1BAF1010AF4D180
:101CB0004FF0FF33A9EB04092544A044C2E7B4FB6D
:101CC000F6F406FB04FBCDF804805C46E3E74FF036
:101CD000FF3306480193FFF73EFF019B184603B010
:101CE000BDE8F08F4FF0FF33F8E700BFD0220220AD
:101CF0002DE9F0410D461646074603F021F804464B
:101D0000384603F01AF82044AC19A04204D24FF030
:101D1000FF342046BDE8F08119D81548FFF71BFFB6
:101D200000240EB3F4B94FF010082946384605F0E8
:101D300083FB044620B1B8F10108F6D14FF0FF341F
:101D40002946384602F0ECFF361A0544E9E72146F9
:101D5000384602F0E5FFB4FBF0F303FB1040002827
:101D6000DBD0D4E74FF0FF340148FFF7F4FED0E7B3
:101D7000D022022043681A6922B91A6912B903F104
:101D800018021A617047000008B5064B0360FFF7A0
:101D9000F1FF43681A6A824204BF00221A62FFF709
:101DA000E9FF08BDB064030010B50446FFF7ECFF7F
:101DB000204601F0DDFA204610BD000038B505468A
:101DC00001F0E4F9074B1B68002B08DD064C207876
:101DD000A84218BF002401F0E3F9204638BD0024D2
:101DE000F9E700BF08230220E02202202820044A4D
:101DF0001368591C1160034A00FB0320704700BFA1
:101E000008230220E022022038B500250823C0E97B
:101E100004350A4B04468361FF23838301F0B6F93E
:101E20002846FFF7CBFF0546606018B9FFF7DEFFD5
:101E300060600570BDE8384001F0B2B940420F0063
:101E400010B504460A48A3729DF908302060E37279
:101E500020460023217262724FF0FF3100F80C3FE0
:101E600000F0A7FE2046FFF7CFFF204610BD00BFC1
:101E7000B064030037B504464068036AA34219D032
:101E800094F90B5094F90A3094F9092094F9081048
:101E90000430009501F060FCD4E90412606800236E
:101EA000043001F0F7FC6068A169043001F030FDF6
:101EB00063681C6203B030BD70B504460D4616461B
:101EC00003681B6998476068C4E90456036AA34223
:101ED0000BD1002332462946043001F0DBFC236895
:101EE0002046BDE870405B6918472046FFF7C2FFF7
:101EF000F5E770B504460D4603681B6998476068AE
:101F0000A561036AA34209D12946043001F000FD0E
:101F100023682046BDE870405B6918472046FFF7FC
:101F2000A9FFF5E790F90C30013302D00C3001F035
:101F3000E2BA704738B5044603681B69984794F9BC
:101F40001D506B1C637745B92046FFF793FF294668
:101F50002046BDE83840FFF7E5BF38BD10B5437FE8
:101F60000446013B5BB2437713B90121FFF7DAFF67
:101F700023682046BDE810405B69184738B5044621
:101F80000D46FFF7D7FF60682946043001F0D0FC0A
:101F900005462046FFF7E2FF284638BDF7B5044660
:101FA0001F460D461646FFF7C5FF237F6068019365
:101FB000089B2946009332463B46043001F0D0FC92
:101FC00005462046FFF7CAFF284603B0F0BD70B5AE
:101FD00004460D4603681B69984723682577204609
:101FE000BDE870405B69184710B5044601F0CEF8B3
:101FF00023681BB1237F0BB101F002FA0023236099
:1020000001F0CEF8204610BD10B5044601F0BEF830
:10201000236853B9237F0BB101F0D2F9A06901F015
:1020200001F80123C4E902012360BDE8104001F07A
:10203000B7B8F8B5044601F0A9F8236873B1A069F0
:1020400000F0F0FFD4E90245041B61EB05052646CC
:102050002F4601F0A5F830463946F8BD0026002786
:10206000F7E72DE91848044601F090F82046FFF7FD
:10207000E0FFD4E9042310EB020B41EB030C2368CF
:10208000C4E904BC1BB1237F0BB101F0B9F90023F3
:102090002360BDE8184801F083B82DE9F0410646F9
:1020A00001F074F8D6E904783046FFF7C2FF3C1817
:1020B00048EB010501F074F820462946BDE8F0819F
:1020C00008B5FFF7EAFF4FF47A720023FEF7FCFD34
:1020D00008BD10B5044601F059F8A06900F0A2FF50
:1020E00000220023C4E90201C4E90423BDE8104032
:1020F00001F056B8002310B5002203600023C0E9A8
:102100000223C0E90423044600F09EFF0123A061DE
:1021100023772046FFF7DDFF204610BD052804D0B9
:102120000628034818BF002070470248704700BFC8
:10213000F8680300C86803000C22002104F098B876
:1021400010B50446A8B103689BB1406808B15B6A4A
:102150009847A06838B12368D968490000F024F98D
:10216000A06804F063F82046BDE810400C2100F0A0
:102170001BB910BD70B5044616460D4699B190B115
:102180000B6A9847606048B156B1E968022004F0D4
:1021900019F8A06020B96B6A60689847034801E0AD
:1021A0000020256070BD0248FCE700BF80AEFFFF45
:1021B00000AFFFFF2DE9F0410E4688B017460446F8
:1021C000002857D00368002B54D08268002A51D0D1
:1021D000DA68BA4217D21B6940689847054600285A
:1021E00034D123683A465B693146606898470546B2
:1021F00060BB236869469B6960689847054628BBB1
:102200006E4623689F682368D4F80880DA68362110
:10221000404608EB020504F02BF823685C21DA68DD
:10222000284604F025F84346013E681E47449F4275
:1022300014D1236860681B699847054630B9236844
:1022400041465D69DA686068A8470546202168460E
:1022500000F0AAF8284608B0BDE8F08116F8011F82
:102260001A784A4003F8012B10F8012F31784A40C0
:102270000270DCE7004DEDE700AFFFFF10B440B1A6
:10228000036833B1846824B15B6940685DF8044B2E
:10229000184702485DF8044B704700BF00AFFFFFCE
:1022A000F0B50E4689B0044620B3036813B38268C4
:1022B00002B3DD6869469B69406815449847B8B920
:1022C000236860681B69984790B9236829465F694D
:1022D000DA686068B84758B9236869465D699A68E2
:1022E0006068A84720B9236831469B6960689847B1
:1022F00009B0F0BD0048FBE700AFFFFFF0B50E46A8
:1023000085B017461D46044610B301A8FFF714FF19
:102310002146012201A8FFF72DFF044690B93A4655
:10232000314601A8FFF746FF044658B90A9A2946E4
:1023300001A8FFF7A3FF044620B90B9901A8FFF7F6
:10234000AFFF044601A8FFF7FBFE204605B0F0BD35
:10235000004CFAE700AFFFFF00F090B800F035B88E
:1023600010B5044600F02CF82046BDE8104003F0FC
:102370005DBF10B56C21012003F024FF044608B1B5
:1023800000F01AF8204610BD012300F0E4B9002344
:1023900000F0E1B900F049B900F008B9012100F0FE
:1023A00019B8002100F016B8024B0A461B6800213C
:1023B000184700BF042202206C22002103F058BFFE
:1023C00010B16C21FFF7F0BF704708B56C2203F025
:1023D00044FF08BD0023C0E90033C1B9194A1A4BB4
:1023E000DFF88CC0C0E90223184B194AC0E904C3C6
:1023F000184BC0E90623184B036203F17453A3F58D
:102400002303A3F692434362816600207047134B77
:10241000134ADFF860C0C0E9022303F1794303F5F2
:10242000740303F5016303610E4BC0E905C303F1B7
:10243000D14303F5C01303F51E63C3610A4B036266
:102440000A4BE0E767E6096A85AE67BB3AF54FA538
:102450007F520E518C68059BABD9831F07D57C3604
:10246000D89E05C1310BC0FFA78FF964A44FFABEF7
:1024700072F36E3C39590EF7FFF7ACBF2DE9F04F00
:1024800000F10803CBB000931A460023019152F8E3
:10249000041B02A840F823100133082BF7D1DDE913
:1024A0000787DDE90236DDE904EB0024DDF824903E
:1024B000069909AA0F2C5ED8019D05EB840C15F82E
:1024C00024A09CF8035045EA0A659CF801A045EA5F
:1024D0000A459CF802A045EA0A2555604FEAF12C0E
:1024E00088EA07058CEAB11C0D408CEA716A7D40D0
:1024F0000AEB050C2C4D46EA030A55F824500AEA6B
:102500000E0A654452F804CF01346544A9444FEAE9
:10251000733509EB0B0C85EAB30506EA030B4AEAAF
:102520000B0A85EAB3555544402C4D44F346B94651
:102530001AD1CDE902530023CDE90718CDE9046E85
:102540000997CDF818C0009A116802AA52F8232002
:1025500001330A440099082B41F8042B0091F2D171
:1025600000204BB0BDE8F08FB64647461E46884671
:102570002B4661469EE752F8045C52F838AC4FEAAD
:10258000F54C8CEA754C8CEA952C52F8180C52F8E4
:102590003C5C28444FEABA4585EAFA15844485EA4A
:1025A000DA0A0CEB0A0598E7386903002DE9F843CD
:1025B00005460E46144612B90020BDE8F8830368AC
:1025C00003F03F07D318036022BF43680133436021
:1025D000A7B1C7F14008424510D300F1280942468F
:1025E00009EB070003F039FE49462846FFF746FF8E
:1025F0000028E2D107464644A4EB0804264405E03F
:102600002846FFF73BFF0028D7D1403C3F2CA6EBE4
:102610000401F5D8002CCFD005F12800224638441B
:1026200003F01BFEC8E7FFF7C1BF70B50D46802160
:10263000036800F1280603F03F035A1C382A0344BC
:10264000044683F8281006EB020073D80021C2F17B
:10265000380203F00DFED4E900315A0F42EAC102FC
:10266000110EDB0084F86010110C84F8611084F8FE
:102670006320110A1A0E84F864201A0C84F865206D
:102680001A0A84F8621084F8662084F867303146AC
:102690002046FFF7F3FE00284BD1E37A2B706389C5
:1026A0006B70A3681B0AAB70A368EB70E37B2B71A4
:1026B000E3896B71E3681B0AAB71E368EB71E37C40
:1026C0002B72638A6B7223691B0AAB722369EB72EC
:1026D000E37D2B73E38A6B7363691B0AAB736369D6
:1026E000EB73E37E2B74638B6B74A3691B0AAB746F
:1026F000A369EB74E37F2B75E38B6B75E3691B0AAE
:10270000AB75E369EB7594F823302B76638C6B76AD
:10271000236A1B0AAB76236AEB76A36E4BB994F857
:1027200027302B77E38C6B77636A1B0AAB77636A7E
:10273000EB7770BD0021C2F1400203F099FD3146F4
:102740002046FFF79BFE0028F3D101463822304691
:102750007FE7FFF76ABFF0B51C469DB0064601A8AB
:102760000F461546FFF728FE214601A8FFF732FE67
:10277000044658B93A46314601A8FFF717FF044608
:1027800020B9294601A8FFF750FF044601A8FFF72A
:1027900017FE20461DB0F0BD07230022012110B511
:1027A000C40744BF01FA03F4224313F1FF334FEA95
:1027B0005000F5D2104610BD2DE9F04F16468FB0EF
:1027C000074606A80C469A46FFF7B9F910220021E1
:1027D0000AA803F04DFD56B9634802F031FE634C80
:1027E00006A8FFF7ADF920460FB0BDE8F08F06A8A8
:1027F000FFF7BAF9054628B101465D4802F020FE10
:102800005C4CEDE7394606A8FFF79DF907F18F0309
:102810009C420BD2584802F013FE5449574802F02C
:102820000FFE524C06A8FFF7B9F9D9E706A8FFF743
:102830008CF9814606A8FFF78AF948448442E9D812
:10284000631CDC1B4FEA5409A94507EB050104D9B9
:1028500006A8FFF778F90544F6E7641BCDE90A7589
:102860000025DFF828B10C910D9406A8FFF771F947
:102870000AAC54F835200DF1200881460823403277
:10288000414606A8FFF7A2F930B918F800304B45C9
:1028900026D101300828F8D12DB13949394802F044
:1028A000CFFD374CBEE70125DFE70491DDE90001EC
:1028B000894508BF804552D212F8010F0392059254
:1028C000FFF76AFF049980EA1760C0B251F8200050
:1028D00018F1010880EA072749F10009039AE4E7A3
:1028E000189BBDF822700BB1189B1F60BA45D3D35B
:1028F00054F835203B46314606A8FFF767F90446F1
:102900000028C9D100232049BAB2CDE900234FF0F5
:102910000008721E4FF000094FF0FF370029C4D1A4
:10292000DDE90001894508BF804518D212F8010F82
:102930000392FFF731FF0821039A87EA0067002F0F
:1029400001F1FF314FEA4707B8BF87EA0B0711F0E3
:10295000FF01F4D118F1010849F10009E0E7099AF3
:10296000BA423FF45FAF97E7386A03000101FF8086
:102970005B6A03000F01FF80836A0300BE6A0300E5
:102980000701FF80EF6A0300C8640300B71DC1049C
:102990002DE9F74F054668460E46FFF7D0F84A493D
:1029A0000846FDF769FD28B94FF416232B604FF454
:1029B000005005E045494448FDF75EFD48B92860F0
:1029C0002B68034433602B688BB940B94FF0010882
:1029D00011E03F493C48FDF74FFD0028E7D03D4C52
:1029E0006846FFF7ADF8204603B0BDE8F08F002839
:1029F000F5D04FF000086846FFF7B6F80446002807
:102A000060D1354B35481844354BA0EB030A51468D
:102A10006846FFF798F881466846FFF796F807463C
:102A20006846FFF794F80744B8F1000F2FD1D5F8A6
:102A3000008068464146FFF786F8234602468146F5
:102A400021464046FEF740F9D6F800A000FB09F900
:102A50000AF1FF316846FFF776F84FF0000B804629
:102A600002461AF1FF3023464BF1FF31FEF72CF9F5
:102A70002B6800FB08884B4504D13368434501D1DE
:102A8000BB421BD96846FFF789F8164CA8E7791EA8
:102A90006846FFF758F84FF0000BA7EB40081AF113
:102AA000FF304A464BF1FF312346FEF70DF900FB9C
:102AB0000999C845E6D3C5F8008037606846FFF736
:102AC0006DF88DE7084C8BE7206B03002B6B030040
:102AD000386B03000901FF8060740300B0220220FC
:102AE000002202200601FF800F01FF8030B5114D4A
:102AF00087B0D5E88F3F13F0010418D1284600F0C5
:102B00000BFCA0B100230C4A1A21CDE9022321239A
:102B100023220093049422230848FEF7B3FA2846A0
:102B200000F00CFC064A0749044800F0E4FB0348A7
:102B300007B030BD0C23022040420F0010230220BA
:102B4000002202209D110300EFF31083DB4372B6D5
:102B5000044A117829B9044903F001030B700123D9
:102B60001370704779230220782302200022034B40
:102B70001A70034B1B7803B162B6704779230220A9
:102B80007823022070B50E460446154600F085FCF9
:102B900001360DD02946204600F0ADFC204601212B
:102BA00000F088FC2046BDE87040002100F07EBCAB
:102BB00070BD0022FFF7E6BF13B5044601300FD108
:102BC00002B010BDA3420AD12046896800F0A4FCDF
:102BD0000021204602B0BDE8104000F0D9BC0C3105
:102BE00091F900305A1CEDD100232246009319467A
:102BF000014800F053FB00BF30010180884207B557
:102C000002460AD0431C08D0013105D000230548F4
:102C10000093194600F042FB0146084603B05DF8F8
:102C200004FB00BF3001018091F900305A1C01D132
:102C300018467047834201D1486870470C31F3E76A
:102C4000431C07B50AD0FFF7EFFF431C06D1002352
:102C5000024600931946034800F020FB03B05DF8DC
:102C600004FB00BF300101802DE9F34DD0F8048052
:102C7000044698F83A30002B64D103685B689847A3
:102C800063681B6A83425DD0D8F82010D8F80C30F6
:102C9000411AC8F82000D8F8086037481940864221
:102CA0000C464FF0000546D0D8E90AABA1FB001254
:102CB00098F83B300027CDE90012002B45D0009951
:102CC000C3F1200C21FA03F40199A3F1200201FAC7
:102CD0000CFC21FA02F244EA0C04144321FA03F535
:102CE000A3F1200CDDE9000110EB0A0041EB0B0120
:102CF000C3F1200205FA03FB04FA0CFC24FA02F2E9
:102D000004FA03FA4BEA0C0B4BEA020BB0EB0A0293
:102D100061EB0B03BB4208BFB24202D2C8E90A23EF
:102D200009E0013445F10005921B63EB07031046EF
:102D30001946C8E90A01D8E90C01021941EB05035B
:102D4000C8E90C2302B0BDE8F08D3246DDE9000190
:102D50003B46FDF7B9FF044612EB0A000D4643EB74
:102D60000B01B94208BFB042E3D3013445F100057D
:102D7000821B61EB0703D1E740420F00824206D974
:102D80008A420BD9884294BF0020012070478842B4
:102D900006D98A428CBF002001207047012070476D
:102DA000002070472DE9F74F4668074696F83A30FD
:102DB000002B40F0908096F83930002B40F08B804B
:102DC000FFF752FF7D68D7F800A06968002977D027
:102DD000D5E90C23D1E900018B4208BF824205D31B
:102DE000DAF8143003B0BDE8F04F1847801A61EBF1
:102DF0000301CDE90001DDE90023D5E9060199428F
:102E000008BF90422C6907D3A9683448814218D181
:102E1000009B9C4228BF1C462A6ADAF810301444F2
:102E2000EA681440204698473B685B68984722460A
:102E30000146306AFFF7A2FF00284CD03B685B696F
:102E4000D0E795F83BC0BCF1000F27D0019BACF157
:102E5000200803FA0CF31946009BCCF1200E03FA6C
:102E600008F841EA08031946009B4FF0000923FACD
:102E70000EFE41EA0E031946009BDFF8648003FA58
:102E80000CF31846002310EB0800144A41EB09012B
:102E9000FDF71AFF844228BF0446BDE74FF0000C3F
:102EA000009BDFF83CB0A1FB0389019B1BEB0800F2
:102EB00001FB0399094A4FF000034CEB0901E7E7D6
:102EC0003369306AF2681844DAF81030104003B001
:102ED000BDE8F04F184703B0BDE8F08F40420F0047
:102EE0003F420F0043682DE9F74F93F8382005461D
:102EF000002A5FD193F83A30002B5BD103681B683E
:102F000098472B68DB6998472C4BD0F8008001224A
:102F1000B8F1000F08BF98461F2302FA03F141459C
:102F20005FFA83FA02D0013BF7D19A4644684FF02A
:102F30000709231F1D2B28BF2024231F09FA03F98B
:102F4000002318F1FF301D4E43F1FF314FF0000B0D
:102F50004246C6FB0901FDF7B7FE6B682A68C3E964
:102F600000BB52680F46064601939047019B012221
:102F70000021186200206B6802FA04F4013CC3E9E6
:102F80000A01C3E90C01C3F80880284683F83BA076
:102F9000C3E90349C3E9066783F839B083F83AB057
:102FA00083F83820FFF760FE284603B0BDE8F04FF5
:102FB000FFF7F8BE03B0BDE8F08F00BF40420F003E
:102FC00070B5044600F0E2F82368DB689847636850
:102FD00093F83A201AB1BDE8704000F0E1B8012240
:102FE00083F8392063685B68A3B12046FFF73CFE95
:102FF00065686E68D5E90C01D6E90023994208BFDF
:10300000904207D3F3686B602B68002BEAD0B0685E
:103010009847E7E700226368204683F83920FFF7E6
:10302000C1FED8E738B50446FFF75CFF00F0AEF804
:103030002046FFF719FE6368D3E90C4500F0B0F8AD
:103040002046294638BD000000487047406B030009
:10305000024B1B680BB10248184770470822022038
:10306000406B030003F068B903F018B903F008B926
:10307000F0B572B60023234A1C4613604FF0E022DD
:103080004FF0FF371E465168DFF884C001F00F0192
:103090000131A20002F1604202F56142C2F8807083
:1030A000C2F880710022D51801326544082A85F8DB
:1030B0000063F8D10134A14203F10803E9DC4FF0C9
:1030C0002062114B5A6040F2FA529860DA60002296
:1030D00011461E619C1801320C2A2176FAD14FF05C
:1030E000FF3259629A62094ADA621F221A63D0E9F2
:1030F0000031002282F314889D4682F3108808472D
:10310000F0BD00BF10E000E000ED00E0020000C0F4
:1031100000E100E007B500F039F8262101A8FFF72B
:1031200048FD124D0424012101A800F0E4F92846CD
:1031300000F096F9002101A800F0DDF9284600F022
:103140008FF9013CEFD10424094E012101A800F0C0
:10315000D2F9304600F084F9002101A800F0CBF943
:10316000304600F07DF9013CEFD1DBE7F049020089
:10317000801A0600EFF31080C04300F00100704792
:10318000EFF30580003018BF0120704708B5FFF746
:10319000DBFC024A13680133136008BDC023022020
:1031A000044A136823B1013B13600BB9FFF7DEBC7F
:1031B000704700BFC02302200122D0E84F3FC0E883
:1031C000412F0029F9D1D8B2003018BF0120704733
:1031D000D0E85F3F0B449BB2C0E8523F002AF7D1D2
:1031E00018467047D0E85F3F5B1A9BB2C0E8523F79
:1031F000002AF7D11846704708B50B48FFF7DCFFE7
:1032000028B1FFF7C3FFBFF34F8F20BFFDE7FFF7E4
:10321000B7FF08B1FFF77EFFFFF7ACFF0028F9D03A
:10322000012000F06AF800BF0424022070B5164C9B
:103230000D4634EA200428BF044616468EB03422D8
:10324000002101A803F014F8CDE901460395FFF72A
:103250009DFF0E4A13680133012B136004D1342201
:1032600001A90B4802F0F9FF342201A9094802F034
:10327000F4FF094B1B680BB106489847FFF790FF16
:1032800000200EB070BD00BF0101FF80C4230220EA
:10329000D023022008240220C823022008B50446B7
:1032A000064876461546FFF787FF20B9324629467D
:1032B0002046FFF7BBFFFFF79FFF00BFCC23022094
:1032C000074A084913681844884283BF0C22064BFA
:1032D0004FF0FF3010608CBF1A601846704700BF77
:1032E0000C220220003004206066022008B508B1DC
:1032F000FFF710FFFEE70120704708B5FFF7F6FF64
:10330000012070477047704708B5FFF7FBFF08BD05
:1033100008B5FFF7F8FF08BD0378DBB203F003033D
:10332000012B09D0037803F00302012A04D043F0F3
:10333000020303700120704700207047037823F0D8
:10334000030343F0010303707047000013B5044604
:1033500002F064FF034628B9009001462246024865
:10336000FFF79CFF02B010BD1F010180FFF7EEBF09
:1033700002F05CBF02F05ABF70477047064A074927
:10338000936830B503F59870CC1A1D68E550043386
:103390008342FAD1916030BD00ED00E000200220B0
:1033A00008B5FFF7EBFF00F0BBFBFFF7E6FF08BD3A
:1033B00008B5FFF7E1FFBDE8084002F083BC00005C
:1033C00013B5FFF7E3FE4FF6FF730B4C22889A42CA
:1033D00008D1FFF7E5FE002322880093194607482D
:1033E000FFF75CFF01212046FFF7F2FE02B0BDE8C7
:1033F0001040FFF7D5BE00BF3C240220230104800B
:1034000037B50B4CFFF7C2FE258845B9FFF7C8FE5C
:10341000228800952B4629460648FFF73FFF0121E9
:103420002046FFF7DFFE03B0BDE83040FFF7B8BE2F
:103430003C24022024010480064B074A1B68B3FB8E
:10344000F2F340F6B8325843044BB0FBF2F043F0CD
:10345000010318471022022040420F00686B03004E
:1034600038B50446094DB4F57A7F08DC002C0CDD34
:103470004FF47A706043BDE83840FFF7DDBF28465F
:10348000A4F57A74FFF7D8FFEDE738BD40420F008E
:103490004FF47A735843FFF7E3BF4A1C0B460170A1
:1034A00003D00021184600F037B8704790F90000AB
:1034B00000F06EB8202290F9003003F01F0093FB5B
:1034C000F2F3DBB211B101290CD0704701229B004D
:1034D00003F1804303F50E231968824021EA0201BB
:1034E000196070479B0003F1804303F50E231A68AF
:1034F00081401143F4E790F90030202003F01F02CF
:1035000093FBF0F3DBB25B0103F18043C9B203F537
:103510000C2399547047000030B51B4D85B003460D
:103520000C462868696801AA03C22021A868012501
:10353000106003F01F0293FBF1F304A9DBB201EB6F
:10354000430131F80C1C02EB4313080AC9B205FA17
:1035500001F14FF08045883045F820104FF40051BC
:10356000C5F82012094904F00F0451F8232042F451
:10357000807241F8232051F8232022F007021443DF
:1035800041F8234005B030BD0C640300001000403A
:10359000202310B500F01F0490FBF3F0C0B20A4ADC
:1035A0004001031952F82330012923F0300305D0DC
:1035B000022906D0204442F8203010BD43F0100309
:1035C000F8E743F02003F5E700100040F0B50E46A1
:1035D00085B004463D4930461546FFF731FB3C496E
:1035E00007462846FFF72CFB01463846FFF706FB47
:1035F000206007280CD8DFE800F0043E444A50560B
:103600005C624FF4457000F0E5FA324801F02FF9A2
:1036100001A801F0C7FA4FF4165301930123206863
:103620008DF80D308DF80C302B4B2C4A53F82000C0
:1036300001A901F0FEFA25493046FFF7BDFA2449F9
:103640002846FFF7B9FA721C03D002213046FFF773
:103650009FFF6B1C03D002212846FFF799FF2368C8
:103660003BB901221E4B21461A601E48042202F07B
:10367000F4FD05B0F0BD40F2153000F0ABFA1A4889
:10368000C4E740F2163000F0A5FA1848BEE740F251
:10369000173000F09FFA1648B8E74FF4467000F074
:1036A00099FA1448B2E740F2193000F093FA124840
:1036B000ACE740F21A3000F08DFA1048A6E740F26D
:1036C0001B3000F087FA0E48A0E700BFA46C03008F
:1036D000806C03000B000100746B0300001BB7003B
:1036E000402402205C2602200C0001000D00010095
:1036F0000E0001000F000100100001001100010088
:10370000120001000068034B034A53F8200001F047
:103710005DBA00BF746B0300001BB7000268044B66
:1037200053F82230D3F8040E00F02000704700BF99
:10373000746B030010B504462046FFF7EFFF002826
:10374000FAD02268034BC9B253F82230C3F8201EC6
:1037500010BD00BF746B03002DE9F74F0F46804684
:103760003F49384616461D469DF93040FFF768FA36
:103770003C4981463046FFF763FA3B4901902846B1
:10378000FFF75EFA394982462046FFF759FA019B56
:10379000834619464846FFF731FA59468146504656
:1037A000FFF72CFA01464846FFF728FAC8F8000050
:1037B00008280DD8DFE800F00521272D33393F45D3
:1037C0004B004FF4457000F005FA294801F04FF81E
:1037D00023493846FFF7F0F922493046FFF7ECF964
:1037E00021492846FFF7E8F9631C36D020461F49D7
:1037F00003B0BDE8F04FFFF7DFB940F2153000F03D
:10380000E9F91C48E2E740F2163000F0E3F91A4803
:10381000DCE740F2173000F0DDF91848D6E74FF446
:10382000467000F0D7F91648D0E740F2193000F0A2
:10383000D1F91448CAE740F21A3000F0CBF9124827
:10384000C4E740F21B3000F0C5F91048BEE74FF462
:10385000477000F0BFF90E48B8E703B0BDE8F08F3D
:10386000F06B0300C06B0300206C0300506C03007E
:103870000B0001000C0001000D0001000E00010012
:103880000F000100100001001100010012000100F2
:103890001C0002002DE9F043C9B2017187B0013963
:1038A0000646CCB2C2F3400902F001059846154F16
:1038B000684683B101F02CF83368694657F8230055
:1038C0008DF804408DF801908DF8025001F032F827
:1038D00007B0BDE8F08301F001F80B4B0B4A1B6801
:1038E0006946002BC8BF029333688DF80C4057F827
:1038F00023008DF802908DF803508DF8048001F0BC
:103900009BF8E5E7946B030044240220001BB700FA
:10391000044B00681960044B044A53F8200001F07E
:103920006FB800BF44240220946B0300001BB70053
:1039300038B505460368094C4FF4801254F823004B
:1039400089B201F007F92B6854F82330D3F8042E1C
:103950005206FBD5D3F8300E80B238BD946B03000D
:103960002DE9F84F0A9F804697423D468946164604
:103970009A46B8BF154600249DF82CB0AC4202DB35
:103980002846BDE8F88FB442B4BF19F80410594670
:103990004046FFF7CDFFBC42B8BF0AF8040001342F
:1039A000ECE7000000487047B86B030037B500F043
:1039B000B9F8174D04462B78C3B9684600F080FC6F
:1039C000144B6946B4FBF3F4013C0194124C2046BD
:1039D00000F058FC636843F002036360636823F0FF
:1039E00002036360636843F0010363600B4B0C4A9E
:1039F0009B68DA664FF400620A4B1A60064A536904
:103A000023F00103536101232B7003B030BD00BFCD
:103A10004824022040420F000090004000ED00E0EA
:103A20005130030000E100E0014B9868704700BF8F
:103A3000009000401FB500210123019001AA084811
:103A40008DF808108DF809108DF80A108DF80B30DC
:103A50008DF80C3000F040FC05B05DF804FB00BFB1
:103A600000900040024A536923F0010353617047FC
:103A7000009000400122014B1A6070470090004006
:103A80004FF40062014BC3F80021704700E100E0F1
:103A90000A4B5A6822F001025A605A6922F0010268
:103AA0005A614FF40062064BC3F88020BFF34F8F7A
:103AB000BFF36F8F0022034B1A70704700900040D5
:103AC00000E100E04824022038B520250E4B0F4CC1
:103AD000C3F8C8500E4800F095F80E4800F07AF888
:103AE000204600F08FF8204602F058FB204600F0F8
:103AF000BFF800220121284600F072F8064800F0C5
:103B000069F8064B1C6038BD0000024000D8B805BB
:103B1000001BB7000891100008941000102202202A
:103B2000FFF7D2BF08B540F2044000F053F8BDE8FB
:103B300008401A2000F0ECBA7047000008B5114B9D
:103B4000D3F8882042F47002C3F88820D3F8882084
:103B500042F00F02C3F88820D3F88C2042F4406270
:103B600042F00302C3F88C20074A9A604FF080436A
:103B70000022C3F808237822C3F82022FFF7DCFFD5
:103B800008BD00BF00ED00E000000300022110B5F9
:103B90000F4CD0B1C0F30B039BB1DAB23F2A4FEA0E
:103BA000132308BFD4F8982003F1FF33DBB215BF0D
:103BB0009200134302F18042C4F8983018BFC2F853
:103BC000603201294FEA203000D110BD0121E0E729
:103BD00000000240B0F1004F01D0FFF7D7BF70479F
:103BE000800000F180401AB14FF00053C0F800335C
:103BF00021B94FF08043C0F8003370470139C0F855
:103C000000137047154B984205D0154B984202D0CF
:103C1000144B984220D14FF080434FF00062C3F81C
:103C20004821C3F82822202203F50033C3F8C82016
:103C30000C4B98420C4B05D11A6942F080421A6134
:103C400000207047064A90421A6902D142F40042AD
:103C5000F5E742F48042F2E701207047001BB7000D
:103C6000006CDC0200D8B805003001400000000004
:103C700007EE900AF8EE677A08B517EE900AFCF79F
:103C800069FD0DA3D3E90023FCF7BCFDFCF7CCFFD5
:103C900007EE900AFCEEE77A17EE900A4FF08042AA
:103CA000082828BF0820D2F8003423F4F83343EA68
:103CB0000030C2F8000408BDC19D76BEC028783E21
:103CC000034B186A10F400001CBF024B18687047C1
:103CD0000030014014220220074BD3F8B8309B0675
:103CE00007D4064B06481B6913F4804F08BF002019
:103CF00070470020704700BF0000024000300140C4
:103D0000001BB7004FF08043D3F8183A024813F075
:103D1000400F08BF0020704740420F00034B186A55
:103D200010F080701CBF024B1868704700300140D3
:103D30001422022008B5FFF7E5FF4FF08043D3F8C7
:103D40008C3303F03F030133B0FBF3F008BD0000F8
:103D5000074BD3F8B8309B0607D4064B06481B69BF
:103D600013F0804F08BF002070470020704700BF4D
:103D7000000002400030014000D8B80508B54FF0FF
:103D80008043D3F8E0121A4619B101290AD0002065
:103D900001E0FFF7DDFFD2F8AC33DBB20133B0FB5B
:103DA000F3F008BD014B1868F5E700BF502402206E
:103DB000074BD3F8B820D3F89820D3F8B820D3F81D
:103DC000983013F0010F14BF4FF4004000207047EB
:103DD000000002404FF08043D3F88422012A1BD018
:103DE00003D3032A1BD1FFF7E3BFD3F880220AB91C
:103DF000FFF772BFD3F88022012A01D1FFF78EBFEF
:103E0000D3F88022022A01D1FFF77CBFD3F8803299
:103E1000032B04D1FFF79CBF024B186870470020AA
:103E2000704700BF5024022008B54FF08043D3F8FC
:103E300088221946062A1DD8DFE802F0040D101367
:103E4000161C1900FFF7C6FFD1F88433DBB201332B
:103E5000B0FBF3F008BD084B1868F5E7FFF75EFF0D
:103E6000F2E7FFF775FFEFE7FFF74CFFECE7FFF72F
:103E70009FFFE9E70020E7E75024022008B54FF054
:103E80008043D3F8A4221946012A0ED003D3022A74
:103E90000ED0002001E0FFF79DFFD1F8943303F02E
:103EA00007030133B0FBF3F008BD034B1868F4E7D8
:103EB000FFF74EFFF1E700BF5024022008B54FF096
:103EC0008043D3F8A8221946012A0ED004D3032A2E
:103ED0000ED1FFF73DFF01E0FFF77CFFD1F89833EB
:103EE000DBB20133B0FBF3F008BD024B1868F5E715
:103EF0000020F3E75024022008B54FF08043D3F8A8
:103F0000F8221946012A0ED004D3032A0ED1FFF756
:103F10001FFF01E0FFF75EFFD1F8BC33DBB20133D6
:103F2000B0FBF3F008BD024B1868F5E70020F3E79B
:103F30005024022008B54FF08043D3F8F0221946F0
:103F4000052A18D8DFE802F0030C0F121715FFF747
:103F500041FFD1F8B433DBB20133B0FBF3F008BD5D
:103F6000064B1868F5E7FFF7D9FEF2E7FFF7F0FE1A
:103F7000EFE7034BF5E70020EBE700BF50240220FA
:103F80004C2402204FF08042AC3008B552F820306B
:103F9000062B28D8DFE803F0040811151C202300A5
:103FA000BDE80840FFF716BFD2F8C4030F4AC0B2FD
:103FB000431C1068B0FBF3F008BDBDE80840FFF7F4
:103FC0008BBEFFF7C5FED2F88833DBB20133F1E7D1
:103FD000BDE80840FFF796BE054B1868ECE7BDE862
:103FE0000840FFF7E5BE0020E6E700BF50240220AE
:103FF0004C24022010B50446FFF7C4FFA20002F1D2
:104000008042D2F82033D2F8202303F47F43D2B287
:104010000132B3FBF2F30133B0FBF3F010BD00004B
:104020004FF0804208B5D2F8D032062B25D8DFE811
:1040300003F0040811151C242000BDE80840FFF718
:10404000C9BED2F8C4030E4AC0B2431C1068B0FB0C
:10405000F3F008BDBDE80840FFF73EBEFFF778FE6D
:10406000D2F88833DBB20133F1E7BDE80840FFF74F
:1040700049BEBDE80840FFF79BBE0020E9E700BF4E
:1040800050240220800000F1804000F51A7043683F
:10409000062B12D8DFE803F0040611090B0D0F0000
:1040A000FFF798BE064B18687047FFF751BEFFF741
:1040B00029BE044BF7E7FFF77BBE0020704700BF27
:1040C000502402204C24022008B54FF0804300F118
:1040D000980253F822300146012B10D003D3022B53
:1040E00011D000200AE0FFF775FE890001F1804140
:1040F000D1F80033DBB20133B0FBF3F008BDBDE80B
:104100000840FFF7FFBDBDE80840FFF751BE0000C3
:1041100008B51F287CD8DFE800F010141F332327D0
:104120002B7B2F464A373B3F424E505557595B5DDC
:104130005F6163676C6E70727479BDE80840FFF769
:1041400049BEFFF747FE4FF08043D3F88033DBB220
:104150000133B0FBF3F008BDBDE80840FFF764BED3
:10416000BDE80840FFF78ABEBDE80840FFF7A6BEDD
:10417000BDE80840FFF7A4BDBDE80840FFF7FEBD5D
:10418000BDE80840FFF7E4BDBDE80840FFF7A4BD67
:10419000BDE80840FFF7C2BD1E4B1868DBE7BDE86D
:1041A0000840FFF7C7BDBDE80840FFF7C3BEBDE844
:1041B0000840FFF7A1BE184BEFE70020BDE808401C
:1041C000FFF718BF0120F9E70220F7E70320F5E722
:1041D0000420F3E70520F1E70620EFE70720EDE7ED
:1041E000BDE80840FFF71CBF0020BDE80840FFF70E
:1041F00049BF0120F9E70220F7E70320F5E7042093
:10420000F3E70020BDE80840FFF75EBF0120F9E7B3
:104210000020A0E7502402204C24022010F1800F3F
:104220000CD0002808DB0123420900F01F0003FA2C
:1042300000F0034B43F82200002070470120704734
:1042400000E100E00E4B984212D003F580539842F3
:1042500010D003F5F83398420ED003F580539842FE
:104260000CD003F5805398420CBF04200520704702
:1042700000207047012070470220704703207047DC
:104280000080004070B50E460546FFF7DBFF0124B5
:104290004FF08041084B33F810301A0ADBB204FAB1
:1042A00003F3883241F82230044B53F8200000F029
:1042B000DEFA7368EB6070BDDC6C0300EC6C03002D
:1042C00010B508220021044601F0D2FF002323701C
:1042D0006370636010BD0000F8B50546FFF7B2FFDC
:1042E0004FEA410C0CEB0107147907F1010E04FAB7
:1042F0000EF44FF0070E6B69167A0EFA07FE23EAEA
:104300000E031C4306FA07F31C435379023703FAE2
:1043100007F73C436C6130240127EB6B04FA0CF483
:1043200023EA040493790CF1040C03FA0CF32343FD
:10433000D4798F408C4023EA07032343EB6313684F
:10434000063145F821302F602EB1034B1856BDE8D9
:10435000F840FFF763BFF8BDE66C0300134B2DE98F
:10436000F04153F8203006461D681D60104B1B5C61
:1043700043B9104B53F820301B68ABB12846BDE859
:10438000F041184700240127DFF8288007FA04F3DA
:104390002B4206D058F8263053F824300BB128466B
:1043A00098470134072CF1D1BDE8F081C86C0300B7
:1043B000542402205C2402200020FFF7CFBF0120FC
:1043C000FFF7CCBF0220FFF7C9BF0320FFF7C6BF2E
:1043D0000420FFF7C3BF0000054B984206D003F549
:1043E000143398420CBF0120022070470020704710
:1043F000002008402DE9F047FFF7EEFF1E270026BA
:104400004FF001094743DFF89080F31958F8234033
:10441000002C3CD0257BA3686A09583353F822103E
:1044200005F01F0509FA05F529420BD0D4F800A0C4
:1044300043F82250BAF1000F04D000230122616832
:104440002046D047A368227B6033520953F82210DC
:104450000D420BD0D4F800A043F82250BAF1000F5F
:1044600004D0012361681A462046D047A368227B06
:104470004033520953F822100D4208D043F822501D
:10448000256825B10223002261682046A84701362D
:104490001E2EBAD1BDE8F087702402200148FFF734
:1044A000A9BF00BF002008400148FFF7A3BF00BF1D
:1044B00000700A40024600230549184651F823308F
:1044C0009A4203D0431C092BF7D10020704700BF4C
:1044D000006D030070B505460C46FFF7EBFF0028A2
:1044E00032DB01264FF080411A4B33F810301A0AA4
:1044F000DBB206FA03F3883241F82230164B53F848
:10450000200000F0B4F954B1042C16D8D5F8F83FC7
:10451000E21C96401E4214BF01230023B3B1D5F81C
:10452000F83F1B0705D5D5F8F83F03F00703A34272
:104530000ED10020C5F8F84F70BD052C06D1D5F876
:10454000F83FC3F3C013E9E70420F5E70320F3E7DE
:104550000120F1E7246D0300386D0300024B034A8C
:104560001B68116802481847842502206025022034
:1045700000600840024B034A5B68516802481847D4
:10458000842502206025022000700840024B034A67
:104590009B68916802481847842502206025022004
:1045A00000800840024B034ADB68D1680248184784
:1045B000842502206025022000900840024B034A17
:1045C0001B691169024818478425022060250220D2
:1045D00000A00840024B034A5B6951690248184732
:1045E000842502206025022000600940024B034A16
:1045F0009B699169024818478425022060250220A2
:1046000000700940024B034ADB69D1690248184730
:10461000842502206025022000800940044A136896
:1046200043F001031360034B1B6803B11847704745
:1046300000200040A8250220044A136843F001032B
:104640001360034B5B6803B11847704700300040AC
:10465000A8250220024B034A1B681168024818472C
:10466000B4250220B025022000D00240836A1B0E30
:104670001CBFC26AC26218467047000008B50848ED
:10468000FFF7F4FF074B01461B6A0BB10820984760
:10469000034B1A68D2075CBF01225A6208BD00BFF3
:1046A00000500040B825022008B50848FFF7DEFF9B
:1046B000074B01465B6A0BB109209847034B1A6808
:1046C000D2075CBF02225A6208BD00BF0050004002
:1046D000B825022008B54FF04020FFF7C7FF074B71
:1046E00001461B680BB1002098474FF040231A6821
:1046F000D2075CBF01225A6208BD00BFB825022064
:1047000008B54FF04020FFF7B1FF074B01465B684B
:104710000BB1012098474FF040231A6892075CBF05
:1047200002225A6208BD00BFB825022008B54FF02A
:104730004020FFF79BFF074B01469B680BB102200F
:1047400098474FF040231A6852075CBF04225A6210
:1047500008BD00BFB825022008B54FF04020FFF784
:1047600085FF074B0146DB680BB1032098474FF0EC
:1047700040231A6812075CBF08225A6208BD00BFB6
:10478000B825022008B54FF04020FFF76FFF074B18
:1047900001461B690BB1042098474FF040231A686B
:1047A000D2065CBF10225A6208BD00BFB8250220A5
:1047B00008B54FF04020FFF759FF074B01465B69F2
:1047C0000BB1052098474FF040231A6892065CBF52
:1047D00020225A6208BD00BFB825022008B54FF05C
:1047E0004020FFF743FF074B01469B690BB10620B2
:1047F00098474FF040231A6852065CBF40225A6225
:1048000008BD00BFB825022008B54FF04020FFF7D3
:104810002DFF074B0146DB690BB1072098474FF08E
:1048200040231A6812065CBF80225A6208BD00BF8E
:10483000B8250220012382B2000C8000934000F1D1
:104840008040C0F82031D0F800211A42FBD07047D8
:10485000012382B2000C8000934000F18040C0F838
:104860004031D0F8002133EA0202FAD0704708B58F
:104870000146FFF7DFFFBDE808400846FFF7E8BF45
:10488000014B02481B681847E025022000500840F1
:10489000024B034A1B68116802481847E8250220AA
:1048A000E425022000B009400246002305491846CD
:1048B00051F823309A4203D0431C092BF7D1002032
:1048C000704700BF5C6D030010B50C46FFF7ECFFAE
:1048D000014B1C5410BD00BFFE25022010B518224C
:1048E0000021044601F0C4FC01226270074A002343
:1048F000A26007222370A370E37023712273637395
:1049000023746374E3816382A38210BD20A1070036
:1049100010B50A220021044601F0AAFC0123072257
:104920002370002322716370A370E370237263729B
:10493000E38010BD70B50D46044600285CD0002908
:104940005AD00221FFF7C6FD064600284DD1204669
:10495000FFF7AAFFD4F80024EB8822F4736222F058
:104960000D0203F470631343AA78FF21120102F0D1
:10497000100213436A78520102F020021343EA78CE
:10498000D20002F008021343C4F800342A791B4B0A
:1049900003F81020D4F8003E204643F44033C4F816
:1049A000003ED4F8003E43F00303C4F8003ED4F8C0
:1049B000082E2B7A22F470221B0222F4706203F478
:1049C000706342F003021A436B7A1B0403F47023F2
:1049D0001343C4F8083EFFF777FF2B783BB1D4F8B8
:1049E000003443F00103C4F80034304670BDD4F8FD
:1049F000003423F00103F6E70426F6E7EC25022055
:104A0000A0B199B192B1B2FBF1F2013AB2F5803F97
:104A10000ED2D0F824341B0C1B04C0F82434D0F878
:104A200024140A43C0F8242400207047042070474F
:104A300041F2E35070470000F8B50D4617460446B2
:104A4000002800F0828000297FD0002A7DD002213A
:104A5000FFF740FD0646002870D13A46A968204677
:104A6000FFF7CEFF0646002868D12046FFF71CFF5F
:104A7000D4F80034297823F47B63EA8923F00D030A
:104A800043EAC11302F4706243F004031343EA786B
:104A9000FF21120102F010021343AA78520102F022
:104AA000200213432A79D20002F008021343C4F80B
:104AB00000342A7B264B03F8102003EB40006B7B6D
:104AC0004370D4F8003E204643F44033C4F8003E1F
:104AD000D4F8003E43F00303C4F8003ED4F8082E97
:104AE0002B7C22F470221B0222F4706203F47063A8
:104AF00042F003021A436B7C1B0403F4702313433C
:104B0000C4F8083EEB7C2A7D1B01120202F470629D
:104B1000DBB21343AA7C02F00F0213436A7D120337
:104B200092B21343C4F80434FFF7CEFE6B783BB166
:104B3000D4F8003443F00103C4F800343046F8BD23
:104B4000D4F8003423F00103F6E70426F6E700BFAB
:104B5000EC2502202DE9D84104460F469046FFF788
:104B6000A3FE002817DB0D4E0D4916F8103008EA99
:104B700001011B0603F07063394306EB400619433D
:104B8000737803F1100201239340DB4303F4702395
:104B90001943C4F8201EBDE8D88100BFEC250220CF
:104BA0000000F0F010B50C220021044601F060FB7B
:104BB0004FF4E133012223600023A271237163715A
:104BC000E37123726372A372E37210BD2DE9F041A9
:104BD00050B349B342B34FF0FF350F26AC463446CD
:104BE0000F01B2FBF7F808F1FF3EBEF5803F04F17C
:104BF00001030CD203FB08F3B2FBF3F3994234BF79
:104C00005B1ACB1A63453EBF754626469C46013C5F
:104C1000072CA7EB0107E4D1B5F5803F06D28662E9
:104C200005620020BDE8F0810420FBE741F25160FD
:104C3000F8E770B50D461646044600285FD00029F7
:104C40005DD0002A5BD00121FFF744FC002855D13C
:104C5000324629682046FFF7B9FF00284ED16B7A0B
:104C6000D3B1D4F8003E43F00113C4F8003ED4F8A9
:104C7000083E23F47063C4F8083EAB7AD4F8082EDB
:104C80001B0203F470631343C4F8083ED4F8083ED3
:104C900043F00103C4F8083E2B7AD3B1D4F8003EA8
:104CA00043F00213C4F8003ED4F8083E23F4702306
:104CB000C4F8083EEB7AD4F8082E1B0403F47023E2
:104CC0001343C4F8083ED4F8083E43F00203C4F886
:104CD000083E00202B79EA791B0103F0300343EAF8
:104CE000C2336A7943F00103920102F04002134398
:104CF000AA79920002F00C021343236070BD0420D5
:104D0000FCE70000024B034A1B6811680248184781
:104D10000C2602200826022000E0004000207047F8
:104D2000A1F54031B1F5D02F34BF4FF400704FF0F2
:104D3000FF3070474FF4007070474FF440307047B9
:104D40004FF4D02070470020704700004FF0FF3331
:104D500030B5094C0144884201D1D84330BD10F828
:104D6000012B5340082203F001055B0805B16340A5
:104D7000013AF8D1EFE700BF2083B8ED40B10388D6
:104D800082785BBA9BB2C07842EA032340EA0320F0
:104D900070472DE9F04868B30025036804791BBA11
:104DA0001F0E45EA070C00251E0244EA060B4FEAD7
:104DB0000C2343EA1B6345EA0307002500214479DD
:104DC0004FEA0B2244EA02063B0243EA1663847967
:104DD000320245EA030744EA02063B02C07943EA8D
:104DE0001663320240EA020441EA030520462946DE
:104DF000BDE8F08800240025F8E730B10B0AC17047
:104E000083700B0C090E43700170704768B1110A72
:104E1000C2718171110C120E02711A0AC370827074
:104E20001A0C1B0E417142700370704770B54368D5
:104E30004D689D420FD100231A469D4203D1504236
:104E40001043C00F70BD84688E68E45CF65C01336B
:104E500074402243F1E70120F4E7000073B50546F2
:104E600006200E461446FDF759F910B9084802B05D
:104E700070BDA368D5E90121019373680093B368FD
:104E8000FDF73CFA40B20028F0D120236360EEE742
:104E90000100435530B5016885B01F29044606D886
:104EA0000E4D22680021A06801F0E2F913E080684D
:104EB00000F0E8FE0028F3D1094A01AB07CA83E8F5
:104EC000070010221946626020462246FFF7C6FFFF
:104ED00005460028E5D1284605B030BD0100435500
:104EE0001864030070B50C46054608B9022070BD71
:104EF0000029FBD06C21FFF729FF064605F16C0065
:104F0000FFF73CFF8642F1D105F10800FFF741FFB2
:104F1000C4E9000105F11000FFF73BFF2022C4E9BE
:104F2000020105F1180104F1100001F096F91022B8
:104F300005F1580104F1300001F08FF90020D6E7A7
:104F400038B50C46054600283AD0002938D00B6801
:104F50006F2B35D970220021A06801F089F9194919
:104F6000A068FFF74AFFA06802210430FFF745FF61
:104F7000D5E90023A0680830FFF748FFD5E90223F0
:104F8000A0681030FFF742FFA068202205F1100151
:104F9000183001F062F9A068102205F13001583094
:104FA00001F05BF96C21A068FFF7D0FEA368014611
:104FB00003F16C00FFF721FF70230020636038BD10
:104FC0000220FCE7D4B3515AF0B50F469BB0064619
:104FD00018B311B320250AAB00212A46184601F068
:104FE00047F90022CDE9022001A80195FFF752FF01
:104FF00001B291B9E823CDE9043312AB2A46184631
:10500000069601F035F907AA099004A901A8CDE98F
:105010000755FFF723FF00B208B1022027E006F191
:10502000E80307A904A8CDE904550693FFF7FEFE9F
:1050300004460028F1D106F10800FFF7AAFEC7E9EF
:10504000000106F11000FFF7A4FE2A46C7E902019D
:1050500006F1180107F1100001F0FFF8102206F127
:10506000A00107F1300001F0F8F820463C641BB0C5
:10507000F0BD000038B514681546002C0ADB6FF04F
:105080000042944206D08C4201D220B103552B68D5
:1050900001332B6038BD19460148FEF74BFBF6E79C
:1050A000102602202DE9F04387B0DDE90E6756EAAD
:1050B000070305468846914605D1302307B0BDE871
:1050C000F043FFF7D7BF18220021684601F0D0F85F
:1050D0000024304639460A220023FBF7F5FD303222
:1050E0000DF804200023304639460A22FBF7ECFD78
:1050F00006460F4656EA070304F10104E9D1013CD4
:105100001DF804304A4641462846FFF7B3FF002CFD
:10511000F5D107B0BDE8F0832DE9F04F06460F4604
:10512000904607254FF0000E87B0109BDDF84490A5
:105130000193EC000199C4F12002A4F1200309FAC3
:1051400002F221FA04F4144329FA03F31C43E4B2F3
:10515000BEF1000F01D104B945BB174B22090DF177
:10516000080A04F00F0403F1100BD44618685968BC
:105170000833ACE803005B45E246F6D1BEF1000F10
:1051800000D142B106AB1A4412F8103C39464246EF
:105190003046FFF76FFF06AB1C4414F8103C424644
:1051A00039463046FFF766FF4FF0010E15F1FF3527
:1051B000BFD207B0BDE8F08F24640300FFF75ABFE9
:1051C0002DE9F04F1C469B4B93461A7887B0064654
:1051D0000D465AB100221E211A7097481D22FEF773
:1051E000F5F94FF4E1319448FEF78CFA002305936A
:1051F000BBF1000F00F000819D42C0F2FD8008BFAE
:1052000001234FF0000818BF05F1FF3503931BF889
:105210000830002B00F0EF80252B40F0F38008F1E0
:1052200001071BF80730791C4BB1A3F12302D2B25E
:10523000162A04D8814820FA02F2D20709D41BF8B2
:105240000120002A3BD0682B05D1682A35D00223E3
:1052500044E00F46E5E76C2B40F0E7806C2A3FD135
:10526000042302371BF80790B9F1640F02D0B9F19B
:10527000690F50D1042B3DD1073424F0070404F109
:10528000080AD4E90089B8F1000F79F1000309DABE
:105290002D2305AA29463046FFF7ECFED8F1000879
:1052A00069EB490929463046CDE9008905AAFFF78F
:1052B000F9FE07F101085446A9E70123D1E7002BC5
:1052C000D0D0682BC3D06C2B0AD06A2B0AD07A2B93
:1052D0000AD0742B0AD04C2B0AD108230F46C1E701
:1052E0000323FBE70523F9E70623F7E70723F5E7A1
:1052F0000023B7E7012B04F1040A226805D0022B32
:1053000006D090464FEAE879BDE74FFA82F8F9E710
:105310000FFA82F8F6E7B9F1750F03D009F0DF0252
:10532000582A23D1042B11D1073424F0070404F1A7
:10533000080AD4E90023B9F1750FCDE90023294605
:1053400005AA3046B3D0FFF7E7FEB2E7022B04F11F
:10535000040A226806D0072B06D0012B08BFD2B260
:105360000023E8E792B2FBE7D317E4E7B9F1630F54
:1053700008D1237805AA2946304604F1040AFFF72C
:105380001DFF96E7B9F1730F0DD104F1040A2468EB
:10539000013C14F8013F002B8BD005AA294630466A
:1053A000FFF768FEF5E7B9F1700F1FD1302305AAAA
:1053B0002946304604F1040A2468FFF75BFE78238F
:1053C00005AA29463046FFF755FE2246E317CDE9E8
:1053D0000023294605AA3046B5E71BF8083005AA80
:1053E00029463046FFF7EAFE08F10108B845F4D334
:1053F000B9F1000F04D16EB9059807B0BDE8F08F80
:105400001BF8083005AA29463046FFF7D7FEA2460A
:1054100047464EE7039B002BEED1059BAB4295BF61
:10542000039A039BF2547355E6E7002B3FF41AAF3F
:105430004BE700BF182202201026022001ED7F005A
:105440000FB407B504AB53F8042B6FF000410020F4
:105450000193FFF7B5FE03B05DF804EB04B07047AD
:10546000014B1860002070471426022008B5044B39
:105470001B6813B11B68984708BD0220FCE700BFFA
:1054800014260220044B10B51B681BB112B19B6996
:10549000984710BD0220FCE71426022008B5044BF3
:1054A0001B681BB110B11B6A984708BD0220FCE7BE
:1054B0001426022008B5044B1B681BB111B15B6AAE
:1054C000984708BD0220FCE71426022038B505469F
:1054D00078B100F005F90446284624B200F030F80F
:1054E0002CB900B2002814BF0420002038BD0420CD
:1054F000FCE70220FAE70000024B1B6803B11847E3
:10550000704700BF1826022010B590B96FF07C4498
:10551000094B1B68B4FBF3F404FB03340C6007492C
:10552000B1FBF3F15943091BB1FBF3F14B4313609A
:1055300010BD0220FCE700BF2426022000FC050469
:1055400070B5054608B9022070BD00F08DF804461C
:1055500000F092F80B4E306000F098F840F22712FD
:10556000094B18603368B2FBF3F202FB0333074ABE
:105570001360002CE7D1064B20461D60FFF7BCFFEF
:105580002046E1E720260220242602201C260220B5
:10559000182602207FB50E46144652B3936843B3D3
:1055A0004FF0FF3304AA42F8043D02A90293FFF72B
:1055B000ABFF6368054633B10F4A013B1268B3FB8A
:1055C000F2F303FB022322689A420FD30B4A1168BD
:1055D000029A00930A44A0683244002300F060F865
:1055E000044618B90420FFF787FF2546284604B073
:1055F00070BD0225FAE700BF202602201C260220EB
:105600002DE9F04184B0022402AF0E4629B34FF0D9
:10561000FF3307F1080242F8043D39463B60FFF7CB
:1056200073FF104BE84619680446CB1D23F00703AF
:10563000ADEB030D02AD3A6800230091284600F05F
:105640002FF848B931462846FFF7BEFC03B204469E
:1056500013B90720FFF750FFC54620460837BD465F
:10566000BDE8F0811C260220024B186803689B6885
:10567000184700BF2826022008B5034B18680368A6
:105680009B6A984708BD00BF2826022008B5034B37
:1056900018680368DB6A984708BD00BF2826022007
:1056A00037B50649069D0C682168009500250195CF
:1056B0004D6901462046A84703B030BD2826022088
:1056C00008B5FDF713FA014B186008BD2826022023
:1056D000024B1B6803B11847704700BF2C260220FD
:1056E00038B5054600F05CF8044628B9034B1D6048
:1056F000FFF7EEFF204638BD0224FBE72C260220F0
:10570000F0B505469FB018B9022420461FB0F0BD81
:10571000002308224FF460316846CDE9003300F0E1
:1057200049F804240646D8B96846FFF727FB074620
:105730000DEB0400FFF722FB022811D10F4B702262
:105740009F4208BF0024314602A800F091FD3CB9F9
:1057500070224FF4603102A800F02CF838B1042414
:1057600023B2002BD1D10620FFF7B2FFCDE72946A7
:1057700002A8FFF7B7FB0446F2E700BFD4B3515AC3
:1057800038B50546046844B9046834B910F1080412
:1057900002D02046FCF7D3F92C60204638BD00002B
:1057A00008B50348FFF7ECFFFCF7DEF9002008BD61
:1057B0003026022070B50D46164604460448FFF711
:1057C000DFFF33462A462146BDE87040FCF7FEB9AC
:1057D0003026022008B50348FCF7C6F9B0FA80F07D
:1057E000400908BD402602200148FCF7D7B900BF98
:1057F0004026022010B578B14FF0FF33084C2360EB
:10580000FFF74CFE00B240B92068421C01D130BF06
:10581000FAE7831F5842584110BD0020FCE700BF43
:105820001C2202202DE9F0430446A5B018B901203E
:1058300025B0BDE8F083FFF7DDFF0028F7D0D4E9FD
:105840000223134346D04FF0000809A8FCF7B4FD2B
:10585000002109A8FCF710FE2022002101A800F079
:1058600007FD1D4FA568DFF87490EDB1B8F1000F8A
:105870001AD1B5F5804F2E4628BF4FF48046A26856
:10588000334602F56132521B39464846FCF79EF911
:1058900039468046324609A8FCF7C5FEA168AD1B13
:1058A000481B00F0B3F9E0E701A909A8FCF751FF94
:1058B000103409A8FCF784FD202201A9204600F03D
:1058C000BDFC0028B4D0204600F07CF901A800F00F
:1058D00079F9ACE70220ABE76026022040260220DF
:1058E000F8B504464FF0FF30084E6718A7420CD9B0
:1058F00021463046FCF727F9214605460246304648
:10590000FCF7F6F908B92C44F0E7F8BD4026022070
:10591000F8B505460446064E4718A74205D9214664
:105920003046FCF710F90444F7E7601BF8BD00BFF0
:105930004026022070B5702105464FF46030FFF715
:10594000E7FF00F56033B3F5613F014608D24FF43D
:105950006030FFF7C5FF98B92E464FF4613403E07D
:105960004FF4603405F5806631462046FFF7D0FFDE
:105970000219B2F5162F07D831462046FFF7B0FFBF
:10598000B0FA80F0400970BD044BA2F5613229469F
:105990000348FFF755FD4FF0FF30F1E700DC05004D
:1059A000A16D030030B5044685B000283DD02148E4
:1059B000FCF7C7F800F16F05B5FBF0F57021454322
:1059C0004FF46030FFF7A4FFB5F5804F024607D9CA
:1059D0004FF4804229461848FFF732FD30BFFDE7FB
:1059E000854205D929461548FFF72AFD30BFFDE756
:1059F0002A46FF21124800F03BFC124A01AB07CABD
:105A000083E8070019462046FFF79AFA00B270B9FA
:105A1000029B702B09D12B464FF460320849054890
:105A2000FCF7EEF8B0FA80F0400905B030BD002078
:105A3000FBE700BF40260220C16E0300FA6E0300A0
:105A400060260220346403002DE9F04F834687B0BE
:105A50008A46002972D03A48FCF773F84FF4613156
:105A6000B1FBF0F444430C1B054605D00246354813
:105A7000FFF7E6FC30BFFDE7334B274605934FF4B5
:105A80008043B3FBF0F34343304E03934FF00009E0
:105A9000DAE90223994508BF944249D2002F47D141
:105AA0004FF0FF3131600399121B08464FF000019F
:105AB00063EB0903994208BF904238BF0246214672
:105AC0000492584603AAFFF7DDFC00B220B9336800
:105AD000013301D130BFFAE73368042B23D1049B93
:105AE0000BB303F1FF38A844B8FBF5F84FF00009F9
:105AF00005FB08F804F561330193C14511D287B95C
:105B0000019A05994A4449442B460D48FCF778F818
:105B1000A9440746DAF8081004EB090000F076F80B
:105B2000EBE74444B2E70A48FFF78AFC4FF0FF373F
:105B3000B7FA87F0400907B0BDE8F08F0846FAE7EA
:105B400040260220206E0300602602201C22022034
:105B5000756E030038B5054688680C46FFF7EAFE07
:105B600008B9002038BD2046FFF71CFF0028F8D0F8
:105B700021462846FFF768FF0028F2D00448FFF7C7
:105B80005FFC2046FFF74EFEB0FA80F04009E9E7DF
:105B90009C6E030010B5054C2046FBF7D0FF204655
:105BA000BDE81040024A0349FDF7A5BB402602208C
:105BB00000220220411B0300014B1860704700BF08
:105BC0001C22022030B593B001AC054600214122D1
:105BD000204600F04DFB00230A49681E10F8012FF3
:105BE00015094D5D02F00F02E5548A5CE518023399
:105BF000402B6A70F2D121460348FFF721FC13B015
:105C000030BD00BF3D6F03005F6F03002DE9F84317
:105C100046244443B4FBF1F4114BE4B21A7807462E
:105C2000A2420E461AD00F481C700025FFF708FC50
:105C3000DFF83C80DFF83C90EBB29C422CBF48463A
:105C400040460135FFF7FCFB462DF5D1B7422CBF8E
:105C500005480648BDE8F843FFF7F2BBBDE8F88306
:105C6000482602204D6F0300596F03005D6F03004B
:105C700041700300576F03000020704700487047D1
:105C8000736F0300002310B50F2986B00446CDE9D9
:105C90000333059312D988B104A903A8FCF778FE51
:105CA00040B268B9DDE9030105AB00932246102339
:105CB000FCF782FD059B40B2102B01D04FF0FF3066
:105CC00006B010BD2DE9F843082000F0A7FA384BC4
:105CD000384F1860012000F0A1FA38603648FFF70D
:105CE000BFFB3648FFF7C2FB0546FFF7C5FF28B1EB
:105CF000FFF7C4FF01463248FFF7A2FB3148324E9E
:105D0000FFF79EFB3148FFF79BFB0024B046DFF80E
:105D1000C890315D48460134FFF792FB142CF8D14E
:105D20002B48FFF78DFB2B48FFF78AFB00242A4EF8
:105D300008EB040393F8201030460134FFF780FB92
:105D4000142CF5D12248FFF77BFB2DB21E4A00210F
:105D50002248FFF775FBFDB14FF46134204B2568F5
:105D60001E6821461F48FFF76BFB31461E48FFF7B0
:105D700067FB29461D48FFF763FB1D48FFF760FBE3
:105D80002046FDF775F93B680BB100221A701948DF
:105D9000FFF756FB30BFFDE7FFF71CFD0028DBD007
:105DA00000F098F80446FFF71FFD002CD4D1EAE775
:105DB000502602204C26022020220220B95B03003C
:105DC000DC6F030009700300986F0300227003006A
:105DD00004710300367003002F700300437003004A
:105DE000048403005C70030088700300B370030038
:105DF000DF700300077103002DE9F04F9FB0E94603
:105E0000304B82460C4693E8070089E8070003A858
:105E1000FCF7D2FA002103A8FCF72EFB00254FF077
:105E2000FF3BDFF8AC800027D4E902239F4208BF84
:105E300095422DD20021521B009863EB0703994233
:105E400008BF904238BF02462946019250464A4652
:105E5000C8F800B0FFF716FB00B228B9D8F8003038
:105E6000013301D130BFF9E7D8F80030042B0CD151
:105E7000019A52B1029903A8FCF7D5FB019BA168D6
:105E80001D442846FFF7C2FECDE70F48FFF7D8FABA
:105E90000E4903A8FCF75DFC103403A8FCF790FA48
:105EA00020220A49204600F0C9F948B12046FFF7F0
:105EB00089FE0648FFF786FE00201FB0BDE8F08F80
:105EC0000120FAE740640300047103006026022009
:105ED0001C2202202DE9F043A5B04822002168468B
:105EE00000F0C6F9482200210DEB020000F0C0F9D5
:105EF000674E6848FFF7A4FA12A8FFF793FC3568CD
:105F0000002D00F0BD8064490C68002C00F0B880C2
:105F1000DDE91289D5E900234B4508BF424524D06D
:105F20000023C5E9008923700B681B7800BB022B96
:105F300027D8012416A8FFF745FEDDE912235748AC
:105F4000FFF77EFADDE91223CDE900234FF0FF339E
:105F5000534D12A900202B60FFF7ACFA00B2B0B984
:105F60002B68013313D130BFFAE723780133DAE726
:105F7000022803D14B48FFF763FA06E0022B40F2F8
:105F8000858003214848FFF75BFA0024DEE72B6891
:105F9000072B69D13368DDE91267002B4BD0D3E9B9
:105FA0000023BB420ABFB24201230023DDE9000106
:105FB000B94208BFB0424DD2DDE9140150EA0102F6
:105FC00048D00BB9002C45D100213848FFF738FAEA
:105FD00012A90020FFF710FF0146002836D016A8AE
:105FE000FFF7F0FDDDE912232C48FFF729FADDE980
:105FF000145600212E48B14208BFA8421DD3DDE946
:1060000012012022CDE9000116A904A8CDE902560B
:1060100000F023F910221EA90CA800F01EF900219F
:106020002448FFF70DFA69460020FFF793FD044668
:10603000E8B921481CE00123B8E71D4B2A4600219E
:106040001E48FFF7FDF9CCB11D4811E01D48FFF7D0
:10605000F7F9F8E700211C48FFF7F2F9DDE9122310
:106060000E48FFF7EDF9EEE700211848EFE7184872
:10607000FFF7E6F9204625B0BDE8F0831548F7E7BD
:1060800000283FF456AF02283FF474AF124872E77D
:10609000502602202F7103004C2602205971030064
:1060A0001C2202207071030097710300FB71030032
:1060B00000DC0500277203002A73030057720300F7
:1060C0004A7303008B720300BD720300E972030080
:1060D000047303006E730300CB71030040F2B63308
:1060E000984210B525D9B0F5747F36D3B0F57A7FD4
:1060F00037D940F20143984237D940F21A439842C7
:1061000037D940F23343984237D940F24C43984252
:1061100037D940F26543984237D940F27E439842DE
:1061200037D9B0F5936F34BF09230A231F221E21EC
:1061300002E000230F220A21174CE06920F4F84006
:1061400020F01F00014341EA8222E261226922F429
:10615000F01242EA4343236110BD012311220C21B6
:10616000EAE7022313220E21E6E703231622112178
:10617000E2E7042319221421DEE705231B2216215E
:10618000DAE706231D221821D6E707231E221B214A
:10619000D2E70823CAE700BF00000240074B98423D
:1061A00003D840F24C40FFF799BF054B984294BF8B
:1061B00040F27E404FF49660F5E700BF00E1F50540
:1061C00080A4BF07024B0A4601461868FCF74EBF81
:1061D0004C22022070B50D4E00250D4CA41BA410BE
:1061E000A54209D10B4E00250B4C01F001F9A41B6F
:1061F000A410A54205D170BD56F825300135984749
:10620000EEE756F8253001359847F2E75074030061
:1062100050740300507403005C740300024B014689
:106220001868FCF71FBF00BF4C220220024B01463A
:106230001868FCF719BF00BF4C22022030B50024BB
:10624000A24201D1002007E0035D01340D1915F8C9
:10625000015CAB42F4D0581B30BD431E0A4410B55C
:10626000914200D110BD11F8014B03F8014FF7E73F
:1062700002440346934200D1704703F8011BF9E73B
:1062800038B502FB01F42146FCF7ECFE054618B1D7
:1062900022460021FFF7ECFF284638BD38B50546F9
:1062A000002945D051F8043C0C1F002BB8BFE4185E
:1062B000FDF72AF81F4A1368104633B9636014606B
:1062C0002846BDE83840FDF723B8A3420CD9216821
:1062D0006218934202BF1A685B685218636008BF75
:1062E00022600460ECE713465A680AB1A242FAD968
:1062F00019685818A0420BD1206801445818196039
:106300008242DDD11068526801445A601960D7E7B3
:1063100002D90C232B60D3E7206821188A4202BFE0
:10632000116852680918626008BF21605C60C7E7A5
:1063300038BD00BF5426022070B5CD1C064625F09E
:10634000030508350C2D38BF0C25002D01DBA942B3
:1063500003D90C233360002070BDFCF7D5FF214A20
:106360001468214691B9204C23681BB9304600F0CF
:106370003DF820602946304600F038F8431C24D10F
:106380000C2330463360FCF7C3FFE4E70B685B1B6C
:1063900018D40B2B0FD9CC180B60CD503046FCF71E
:1063A000B7FF04F10B00231D20F00700C31AD3D060
:1063B0005A42E250D0E78C424B681ABF63600C46E9
:1063C0001360EBE70C464968CCE7C41C24F00304D7
:1063D000A04205D0211A304600F008F80130CFD095
:1063E0002560DBE7542602205826022038B500231A
:1063F000054C054608462360FCF762FF431C02D1AA
:10640000236803B12B6038BD606602200E000F00C8
:106410001000110009020A02200000002000000004
:10642000806D0300303132333435363738394142EC
:106430004344454600400000000000006026022062
:1064400000400000000000006026022053440000CD
:1064500000000000000000009D110300C9110300AE
:10646000B71A0300FB0F0300DD0F0300A1180300A0
:1064700065170300E10F03006915030031100300E5
:1064800031100300E50F0300EB0F0300F10F0300D1
:106490003910030049100300511003007911030063
:1064A000F70F0300F90F03000000000000000000D8
:1064B000891D0300A91D03007D1F03009D1F03000C
:1064C000751D0300751D030000000000B71DC10409
:1064D0006E3B8209D926430DDC7604136B6BC5171E
:1064E000B24D861A0550471EB8ED08260FF0C92296
:1064F000D6D68A2F61CB4B2B649B0C35D386CD31FE
:106500000AA08E3CBDBD4F3870DB114CC7C6D048C9
:106510001EE09345A9FD5241ACAD155F1BB0D45BA5
:10652000C2969756758B5652C836196A7F2BD86E0D
:10653000A60D9B6311105A6714401D79A35DDC7D85
:106540007A7B9F70CD665E74E0B6239857ABE29C71
:106550008E8DA191399060953CC0278B8BDDE68FA5
:1065600052FBA582E5E66486585B2BBEEF46EABA8D
:106570003660A9B7817D68B3842D2FAD3330EEA985
:10658000EA16ADA45D0B6CA0906D32D42770F3D0E9
:10659000FE56B0DD494B71D94C1B36C7FB06F7C31D
:1065A0002220B4CE953D75CA28803AF29F9DFBF615
:1065B00046BBB8FBF1A679FFF4F63EE143EBFFE5FD
:1065C0009ACDBCE82DD07DEC77708634C06D473015
:1065D000194B043DAE56C539AB0682271C1B43231D
:1065E000C53D002E7220C12ACF9D8E1278804F1695
:1065F000A1A60C1B16BBCD1F13EB8A01A4F64B05FD
:106600007DD00808CACDC90C07AB9778B0B6567CC8
:1066100069901571DE8DD475DBDD936B6CC0526FA4
:10662000B5E6116202FBD066BF469F5E085B5E5A0C
:10663000D17D1D576660DC5363309B4DD42D5A4984
:106640000D0B1944BA16D84097C6A5AC20DB64A838
:10665000F9FD27A54EE0E6A14BB0A1BFFCAD60BBA4
:10666000258B23B69296E2B22F2BAD8A98366C8E8C
:1066700041102F83F60DEE87F35DA9994440689D84
:106680009D662B902A7BEA94E71DB4E0500075E4E8
:10669000892636E93E3BF7ED3B6BB0F38C7671F71C
:1066A000555032FAE24DF3FE5FF0BCC6E8ED7DC214
:1066B00031CB3ECF86D6FFCB8386B8D5349B79D1FC
:1066C000EDBD3ADC5AA0FBD8EEE00C6959FDCD6D6A
:1066D00080DB8E6037C64F643296087A858BC97E20
:1066E0005CAD8A73EBB04B77560D044FE110C54B90
:1066F000383686468F2B47428A7B005C3D66C15800
:10670000E4408255535D43519E3B1D252926DC21E3
:10671000F0009F2C471D5E28424D1936F550D832A7
:106720002C769B3F9B6B5A3B26D6150391CBD40707
:1067300048ED970AFFF0560EFAA011104DBDD01487
:10674000949B93192386521D0E562FF1B94BEEF5EB
:10675000606DADF8D7706CFCD2202BE2653DEAE6A7
:10676000BC1BA9EB0B0668EFB6BB27D701A6E6D387
:10677000D880A5DE6F9D64DA6ACD23C4DDD0E2C087
:1067800004F6A1CDB3EB60C97E8D3EBDC990FFB9C3
:1067900010B6BCB4A7AB7DB0A2FB3AAE15E6FBAA1F
:1067A000CCC0B8A77BDD79A3C660369B717DF79F0F
:1067B000A85BB4921F4675961A163288AD0BF38CFF
:1067C000742DB081C330718599908A5D2E8D4B599F
:1067D000F7AB085440B6C95045E68E4EF2FB4F4A1F
:1067E0002BDD0C479CC0CD43217D827B9660437F8F
:1067F0004F460072F85BC176FD0B86684A16476CFF
:1068000093300461242DC565E94B9B115E565A15E2
:1068100087701918306DD81C353D9F0282205E06A6
:106820005B061D0BEC1BDC0F51A69337E6BB523306
:106830003F9D113E8880D03A8DD097243ACD562086
:10684000E3EB152D54F6D4297926A9C5CE3B68C1B2
:10685000171D2BCCA000EAC8A550ADD6124D6CD2A6
:10686000CB6B2FDF7C76EEDBC1CBA1E376D660E786
:10687000AFF023EA18EDE2EE1DBDA5F0AAA064F486
:10688000738627F9C49BE6FD09FDB889BEE0798DC2
:1068900067C63A80D0DBFB84D58BBC9A62967D9E1E
:1068A000BBB03E930CADFF97B110B0AF060D71AB0E
:1068B000DF2B32A66836F3A26D66B4BCDA7B75B8FE
:1068C000035D36B5B440F7B1050000002F69030041
:1068D0001C000000400000009D23030099230300DA
:1068E000952303008923030073230300612303001E
:1068F0005D230300592303000600000028690300FC
:106900002000000040000000A3230300992303009F
:10691000952303008F2303007323030061230300E7
:106920005D23030059230300534841323536005399
:106930004841323234000000982F8A429144377126
:10694000CFFBC0B5A5DBB5E95BC25639F111F159F2
:10695000A4823F92D55E1CAB98AA07D8015B831234
:10696000BE853124C37D0C55745DBE72FEB1DE80E0
:10697000A706DC9B74F19BC1C1699BE48647BEEF0F
:10698000C69DC10FCCA10C246F2CE92DAA84744A9A
:10699000DCA9B05CDA88F97652513E986DC631A810
:1069A000C82703B0C77F59BFF30BE0C64791A7D5EF
:1069B0005163CA0667292914850AB72738211B2E77
:1069C000FC6D2C4D130D385354730A65BB0A6A765F
:1069D0002EC9C281852C7292A1E8BFA24B661AA86B
:1069E000708B4BC2A3516CC719E892D1240699D67B
:1069F00085350EF470A06A1016C1A419086C371EF4
:106A00004C774827B5BCB034B30C1C394AAAD84ED1
:106A10004FCA9C5BF36F2E68EE828F746F63A5780C
:106A20001478C8840802C78CFAFFBE90EB6C50A49F
:106A3000F7A3F9BEF27871C65B455252205D20493A
:106A40006E76616C696420446174612042756620D1
:106A5000417267756D656E740D0A005B4552522078
:106A60005D20466C61736849415020696E697420ED
:106A70006661696C6564202D206572723A20256418
:106A80000D0A005B455252205D2063616C635F61BB
:106A90007265615F706172616D73206661696C65BA
:106AA00064202D20496E76616C696420696E707572
:106AB00074206164647265737365730D0A005B45CD
:106AC0005252205D20436F756C646E2774206361A1
:106AD0006C756C61746520417265612050617261F2
:106AE0006D73202D206572723A2025640D0A005BBB
:106AF000455252205D20436F756C646E277420668A
:106B0000696E642076616C696420446576696365AA
:106B10004B6579202D206572723A2025640D0A009C
:106B200046494C4553595354454D005444425F45E2
:106B3000585445524E414C0064656661756C740052
:106B4000486B030080230220AD390300293A03007B
:106B5000653A0300753A0300353A0300813A0300B1
:106B6000913A0300A5390300401E00BF00BFFBD2CD
:106B70007047000000600840007008400080084036
:106B80000090084000A008400060094000700940E3
:106B90000080094000600840007008400080084004
:106BA0000090084000A008400060094000700940C3
:106BB0000080094000F0094040420F002000000022
:106BC00002000000030000000100000013000000AC
:106BD000070000000700000023000000080000007C
:106BE00006000000FF000000FFFFFFFF00000000A4
:106BF000030000000300000001000000140000007A
:106C000007000000070000001A0000000800000054
:106C100009000000FF000000FFFFFFFF0000000070
:106C20000600000003000000010000001500000045
:106C3000070000000700000022000000080000001C
:106C400006000000FF000000FFFFFFFF0000000043
:106C500004000000030000000800000034000000F1
:106C600007000000010000002100000008000000F3
:106C700005000000FF000000FFFFFFFF0000000014
:106C80001D000000000000000100000038000000AE
:106C90000200000001000000FF000000FFFFFFFFF6
:106CA000000000001E0000000000000001000000C5
:106CB0001B0000000200000001000000FF000000B7
:106CC000FFFFFFFF00000000008000400090004038
:106CD000008002400090024000A002401A011B0107
:106CE0001601150216020A0B240D25001A000100D8
:106CF0001B00010016000100150002001600020032
:106D00000060084000700840008008400090084083
:106D100000A0084000600940007009400080094060
:106D200000F009400B010C010D010E010F011001D3
:106D3000110112011C0200000B0001000C000100F7
:106D40000D0001000E0001000F0001001000010005
:106D500011000100120001001C0002000060084048
:106D600000700840008008400090084000A00840E3
:106D700000600940007009400080094000F00940AF
:106D800053746F72616765456E63323536484D41A5
:106D9000435348413235365349474E415455524585
:106DA000005B455252205D204669726D77617265C5
:106DB0002073697A65203078256C5820726F756E63
:106DC00064656420757020746F20746865206E653A
:106DD000617265737420736563746F7220626F757E
:106DE0006E64617279203078256C58206973206C4C
:106DF0006172676572207468616E20746865206DC9
:106E00006178696D756D206170706C69636174691A
:106E10006F6E2073697A65203078256C580D0A00F2
:106E20005B455252205D204170706C6963617469EA
:106E30006F6E20283078256C582920646F65732088
:106E40006E6F74207374617274206F6E2061207095
:106E50006167652073697A6520283078256C582928
:106E600020616C69676E6564206164647265737328
:106E70000D0A0D0A005B455252205D2041524D5FC4
:106E80005543505F526561642072657475726E651A
:106E90006420302062797465730D0A005B424F4FA5
:106EA000545D20566572696679206E65772061634E
:106EB00074697665206669726D776172653A0D0A4C
:106EC000005B455252205D20486561646572207008
:106ED000726F6772616D2073697A6520256C752009
:106EE000626967676572207468616E2062756666A4
:106EF00065722025640D0A0D0A005B455252205D23
:106F0000204865616465722070726F6772616D20E0
:106F100073697A6520256C752062696767657220E0
:106F20007468616E20657870656374656420686557
:106F30006164657220256C750D0A0D0A00303132CE
:106F4000333435363738394142434445460D5B4288
:106F50004F4F545D205B002B005D0D0A005D005B10
:106F6000424F4F545D205348413235363A20257305
:106F70000D0A003C6572726F72206D6573736167F4
:106F800065206C656164696E6720746F207265624C
:106F90006F6F743E00000000000000000000000061
:106FA00000000000000000000000000000000000E1
:106FB00000000000000000000000000000000000D1
:106FC00000000000000000000000000000000000C1
:106FD0000000000000000000000000005B424F4F76
:106FE000545D206572726F72206D657373616765A1
:106FF000206C656164696E6720746F207265626FD2
:107000006F743A2025730D0A005B424F4F545D2088
:107010004D62656420426F6F746C6F616465720DC0
:107020000A005B424F4F545D2041524D3A200025EB
:107030003032686858005B424F4F545D204F454DD9
:107040003A20005B424F4F545D204C61796F75745C
:107050003A20256C7520256C580D0A005B424F4F75
:10706000545D204170706C69636174696F6E277341
:1070700020737461727420616464726573733A2062
:107080003078256C580D0A005B424F4F545D20410B
:1070900070706C69636174696F6E2773206A756DB7
:1070A0007020616464726573733A203078256C587F
:1070B0000D0A005B424F4F545D204170706C696354
:1070C0006174696F6E277320737461636B206164F0
:1070D00064726573733A203078256C580D0A005B32
:1070E000424F4F545D20466F7277617264696E67DC
:1070F00020746F206170706C69636174696F6E2EAB
:107100002E2E0D0A0D0A005B455252205D2046616D
:10711000696C656420746F206A756D7020746F20CF
:107120006170706C69636174696F6E210D0A005B38
:10713000424F4F545D2041637469766520666972E1
:107140006D7761726520696E746567726974792004
:10715000636865636B3A0D0A005B424F4F545D20D4
:1071600056657273696F6E3A20256C6C750D0A0056
:107170005B424F4F545D20416374697665206669B8
:10718000726D7761726520736C6F7420697320650E
:107190006D7074790D0A005B455252205D20466186
:1071A000696C656420746F20626F6F742061637412
:1071B000697665206170706C69636174696F6E20B7
:1071C00025642074696D65730D0A005B4552522079
:1071D0005D20416374697665206669726D776172BE
:1071E0006520696E74656772697479206368656388
:1071F0006B206661696C65640D0A005B424F4F54F9
:107200005D20536C6F7420256C75206669726D77F4
:1072100061726520696E746567726974792063684C
:1072200065636B3A0D0A005B424F4F545D20557009
:107230006461746520616374697665206669726D46
:1072400077617265207573696E6720736C6F742047
:10725000256C753A0D0A005B455252205D20536C37
:107260006F7420256C75206669726D776172652078
:1072700073697A6520746F6F206C61726765202571
:107280006C75203E20256C750D0A005B455252201E
:107290005D20536C6F7420256C75206669726D7764
:1072A00061726520696E74656772697479206368BC
:1072B00065636B206661696C65640D0A005B424F13
:1072C0004F545D20536C6F7420256C752066697275
:1072D0006D77617265206973206F66206F6C6465DD
:1072E0007220646174650D0A005B424F4F545D204B
:1072F000536C6F7420256C7520697320656D7074F4
:10730000790D0A005B424F4F545D204E6577206136
:107310006374697665206669726D7761726520694C
:10732000732076616C69640D0A005B455252205DE2
:10733000204669726D77617265207570646174654D
:10734000206661696C65640D0A005B424F4F545DB5
:1073500020416374697665206669726D7761726534
:107360002075702D746F2D646174650D0A005B4586
:107370005252205D20416374697665206669726DA2
:107380007761726520696E76616C69640D0A000030
:1073900000000000000000000000000000000000ED
:1073A00000000000000000000000000000000000DD
:1073B00000000000000000000000000000000000CD
:1073C00000000000000000000000000000000000BD
:1073D00000000000000000000000000000000000AD
:1073E000000000000000000000000000000000009D
:1073F000F8B500BFF8BC08BC9E467047F8B500BFA2
:10740000F8BC08BC9E46704701B40248844601BCE3
:10741000604700BFA17E021001B40248844601BC4F
:10742000604700BFA97E021001B40248844601BC37
:10743000604700BF997E021001B40248844601BC37
:08744000604700BF917E0210BD
:08744800388DFF7F01000000F8
:0C74500065010300C1560300955B0300BA
:04745C0041010300E7
:107460000000000071620300C12F03006866022063
:10747000001BB7000024F40001000000FFFFFFFF25
:10748000CD540300000000000000000000000000D8
:1074900000000000000000009555030000000000FF
:1074A0000157030001560300000000005022022093
:1074B00000000000B0730300D0730300907303005A
:1074C00000000000000000000000000000000000BC
:1074D00000000000000000000000000000000000AC
:1074E000000000000000000000000000000000009C
:1074F000000000000000000000000000000000008C
:10750000000000000000000000000000000000007B
:04000003300001F5D3
:00000001FF
