:020000041000EA
:1004000000940008910400100D00000011C40210B7
:1004100000000000000000000000000000000000DC
:10042000000000000000000000000000F9C30210FE
:100430000000000000000000BDC302101105001004
:100440001105001065C402101105001011050010FF
:10045000110500101105001011050010A9C20210AD
:1004600011050010110500101105001011050010F4
:1004700011050010110500101105001011050010E4
:100480007047EFF3108072B6704780F310887047A2
:10049000FFF7F6FF72B6174C174DAC4209DA216828
:1004A0006268A368043B02DBC858D050FAE70C34FA
:1004B000F3E7124B124CA34208DA19685A6800207D
:1004C000043A01DB8850FBE70833F4E70D480E4996
:1004D0000860BFF34F8F2BF0CDFFEFF314800221A4
:1004E000084380F31488094880F3098822F0FCFD52
:1004F000FEE70000300500109C0500109C05001070
:10050000F405001000AF010808ED00E0009C0008B1
:10051000FEE7FEE700B504207146084202D0EFF383
:10052000098001E0EFF30880043026F04FF9FEE780
:100530000004001000AF010830010000E0040310C7
:1005400080AF010874020000400403100018000886
:100550000000000040040310009C000800000000A0
:100560004004031000C2000860000000A004031053
:1005700080CD000840000000E0040310809B0108CB
:1005800000000000E004031000A0010800000000CB
:0C0590005407031000F80208C00400002B
:10059C00F4B101082C370000009C00082018000062
:1005AC0080B40008800D000060C2000880040000C8
:1005BC0000C7000880060000C0CD0008A0AD0000F8
:1005CC00807B010800200000809B010820000000B7
:1005DC00009C01080004000000A00108600200005B
:0805EC0080A20108000C0000D0
:0805F4000000000000000000FF
:1005FC0000000000000000000000000000000000EF
:10060C0000000000000000000000000000000000DE
:1006200010B50A22002100F029FA10BD10B50A22E7
:10063000002100F0E3FA10BD10B5034B0A000100E1
:10064000186800F084F810BD1CB00108084B10B504
:100650000400002B02D0002100E000BF054B186809
:10066000836A002B00D0984720002EF0DBFCC046A8
:1006700000000000400C0010EC30006870470000E3
:10068000044B1B681B6A002B00D1034BEC3318682A
:100690007047C0461CB0010880B0010810B5034B7C
:1006A0000100186800F0ACF810BDC0461CB001088D
:1006B00010B5034B0100186800F058F810BDC04693
:1006C0001CB0010882B0002900D101A9101E06D07B
:1006D000002B06D013780B601078431E984102B0AF
:1006E000704702204042FAE730B50024A24201D10F
:1006F000002005E0035D651C0C5DA34201D0181BC2
:1007000030BD2C00F2E7002310B59A4200D110BD95
:10071000CC5CC4540133F8E710B5884202D98B1879
:10072000984203D3002307E08B5C8354013AFBD249
:1007300010BDCC5CC45401339A42FAD1F8E70300EF
:100740001218934200D1704719700133F9E74A43F8
:1007500070B51100140000F053F8051E03D02200FC
:100760000021FFF7ECFF280070BD000070B5050008
:10077000002910D00C1F2368002B00DAE418280091
:1007800000F05CFA1D4A1368002B05D16360146009
:10079000280000F054FA70BDA34209D921686018FE
:1007A0008342F3D118685B6841182160EEE71300BB
:1007B0005A68002A01D0A242F9D919685818A042F3
:1007C0000BD120680918581819608242E0D11068CE
:1007D0005268411819605A60DAE7A04202D90C2326
:1007E0002B60D5E721686018824203D110685268F7
:1007F0004118216062605C60CAE7C0460CE80108ED
:10080000032370B5CD1C9D43083506000C2D1ED268
:100810000C25A9421DD8300000F010FA254A1468B2
:100820002100002919D1244C2368002B03D130006A
:1008300000F044F820602900300000F03FF8431C2D
:100840002BD10C233000336000F0F9F903E0002DC8
:10085000DFDA0C233360002070BD0B685B1B19D4FA
:100860000B2B03D90B60CC18256003E04B688C423E
:100870000DD11360300000F0E2F9200007220B30A8
:10088000231D9043C31AE7D05A42E250E4E7636065
:100890000C00EFE70C004968C3E70323C41C9C432A
:1008A000A042E1D0211A300000F008F8431CDBD14F
:1008B000C7E7C0460CE8010810E80108002370B53E
:1008C000064C0500080023602EF09EFB431C03D15C
:1008D0002368002B00D02B6070BDC0461CE90108C6
:1008E000C9B20378002B04D08B4200D1704701308D
:1008F000F7E74B42594149420840F7E702780B7845
:10090000002A03D0013001319A42F7D0D01A704743
:100910000023C25C0133002AFBD1581E704730B55A
:100920000500002A00D130BD0C78013A6B1C2C70F8
:100930000131002C05D19A189A42F4D01C70013371
:10094000FAE71D00EDE710B50378002B0FD10B7807
:100950005A4253415B42184010BD0023CA5C002A32
:10096000FAD0C45C944201D10133F7E70130037837
:10097000002BF2D11800EFE7F0B51F000E0087B092
:100980000590019102920C983478FFF775FE0822C9
:1009900000194378751C134036D12D2C36D1B51C67
:1009A00074780126002F62D0102F09D1302C07D186
:1009B00020222B789343582B54D110276C78023582
:1009C0002D4B3900F3181800039301F023FD049117
:1009D00001210023494202008C46180021003039D1
:1009E00009291AD80C00A74223DD591C09D06346F7
:1009F000824206D302D10499A14202DB012378434B
:100A000020182C780135E9E72E00BCE72B2C01D00B
:100A10001E00C7E7B51C7478FAE72100413919298F
:100A200001D8373CDFE721006139192901D8573C4B
:100A3000D9E75A1C08D1059A23331360029B039807
:100A4000002B09D107B0F0BD002E00D04042029A21
:100A5000002AF7D0002B01D06B1E0193029B019A54
:100A60001A60EFE73024002FAAD10827A8E7302C1E
:100A70009ED00A27A4E7C046FFFFFF7F37B51300CB
:100A8000064A05001068046A002C00D1044C0A00D4
:100A900000942900FFF770FF3EBDC0461CB001085E
:100AA00080B00108F0B51F000E008DB00B900291D0
:100AB000039212983478FFF7DFFD0822001943787B
:100AC000751C134053D12D2C53D17478B51C0133B0
:100AD0000193002F00D18AE0102F0AD1302C08D1C9
:100AE00020222B789343582B00D07AE010276C7883
:100AF0000235019B002B41D1013B04933E4B0593F2
:100B00003A00FB1704980599089301F089FC00232B
:100B100009900E00002000210A922200303A092A92
:100B200031D81400A7423DDD5A1C1DD0B14236D841
:100B300002D1099B984232D8099B834206D18E424A
:100B400004D101230A9A5B42A2420DDB0B00020092
:100B50000899380001F084FCE31706940793069B7C
:100B6000079CC018614101232C780135D5E72E0080
:100B70009FE72B2CACD1B51C7478A9E70023049314
:100B800080231B06BBE72200413A192A01D8373CD3
:100B9000C8E72200613A192A04D8573CC2E701236A
:100BA0005B42E1E75A1C09D10B9A23331360039B84
:100BB00004980599002B0ED10DB0F0BD019A002AC2
:100BC00004D006000F0000217042B941039A002AA8
:100BD000F2D0002B01D06B1E0293039B029A1A6085
:100BE000EAE73024002F00D083E7082781E7302C84
:100BF00000D175E70A277CE7FFFFFF7F37B51300B9
:100C0000064A05001068046A002C00D1044C0A0052
:100C100000942900FFF746FF03B030BD1CB0010867
:100C200080B001080B1E04D0FF2A04D98A23036078
:100C30008B3B180070470A700123FAE77047704732
:100C400020B001084300504F534958002E000020A7
:100C5000202020202020202028282828282020206C
:100C6000202020202020202020202020202020881C
:100C70001010101010101010101010101010100480
:100C800004040404040404040410101010101010D0
:100C900041414141414101010101010101010101C4
:100CA00001010101010101010101101010101010DA
:100CB0004242424242420202020202020202020294
:100CC00002020202020202020202101010102000B0
:100CD0000000000000000000000000000000000014
:100CE0000000000000000000000000000000000004
:100CF00000000000000000000000000000000000F4
:100D000000000000000000000000000000000000E3
:100D100000000000000000000000000000000000D3
:100D200000000000000000000000000000000000C3
:100D300000000000000000000000000000000000B3
:100D400000000000000000000000000000000000A3
:100D500005DF70470020FBE706DF7047000000005A
:100D60000800000008000000000200000000000071
:100D70000000000000000000000000000000000073
:100D800000000000000000000B0000003F00000019
:100D9000000000003F00000000000000EFF314839B
:100DA0000138421E9041012210409343184380F3C2
:100DB0001488704730B58BB00290039102A904915A
:100DC000069308210EAB0893042305917020073980
:100DD0000792099302F0FEFB041E10DD002304AA13
:100DE000019300930021033302F0F6FB050020007D
:100DF00002F0FEFB032D05D028000BB030BD84258A
:100E00006D42F9E787256D42F6E7C04670B58CB0B4
:100E1000039204AA08920822099203AA0A920422C1
:100E2000119E0B92109A0490059106920793002E42
:100E300019D00121712002F0CDFB041E16DD012323
:100E4000019306AB009308AA0223002102F0C4FB21
:100E50000500200002F0CCFB032D04D0079B33607B
:100E600028000CB070BD87256D42F9E784256D42DE
:100E7000F6E7C04630B589B002AB04930823029070
:100E8000039105930121043372200692079302F027
:100E9000A1FB041E11DD0123019306AB009304AAFC
:100EA0000123002102F098FB0500200002F0A0FBC6
:100EB000032D05D0280009B030BD84256D42F9E727
:100EC00087256D42F6E7C04630B587B002AB049384
:100ED00008230290039101217320059302F07AFB0D
:100EE000041E0EDD002304AA0193009300210133A8
:100EF00002F072FB0500200002F07AFB280007B028
:100F000030BD84256D42F9E70020704730B595B0BB
:100F10000C000390242200210BA8FFF710FC0AAA62
:100F200006922822079203AA022308920422012192
:100F3000802004940A930992059302F04BFB041E4F
:100F40000FDD0123019304AB009306AA02230021C5
:100F500002F042FB0500200002F04AFB280015B019
:100F600030BD84256D42F9E7862040427047C04677
:100F700030B58FB005002422002105A8FFF7DFFB64
:100F8000032304AC0493012125338020E5800294DF
:100F9000039302F01FFB041E0EDD002302AA01933F
:100FA00000930021013302F017FB0500200002F03E
:100FB0001FFB28000FB030BD84256D42F9E7C04605
:100FC000F0B595B007000E001500002124220BA8F3
:100FD0001C00FFF7B4FB04230A930AAB04932823F5
:100FE0000593043B07930121223B8020029406973E
:100FF00008960995039302F0EDFA041E0FDD012314
:10100000019302AB009304AA0323002102F0E4FA47
:101010000500200002F0ECFA280015B0F0BD842590
:101020006D42F9E730B58FB005002422002105A8F4
:10103000FFF785FB052304AC0493012123338020B3
:10104000E5800294039302F0C5FA041E0EDD00232E
:1010500002AA019300930021013302F0BDFA0500BA
:10106000200002F0C5FA28000FB030BD84256D4283
:10107000F9E7C04670B590B006AC06000D00282216
:1010800000212000FFF75BFB282301210393802030
:10109000043BE68002940495059302F09BFA041E3B
:1010A0000FDD0123019304AB009302AA0123002169
:1010B00002F092FA0500200002F09AFA280010B01F
:1010C00070BD84256D42F9E7F0B5C64600B590B015
:1010D00007000E0015000021242207A89846FFF7FC
:1010E0002EFB062306AC0693012122338020E780E5
:1010F000029403930496059502F06CFA041E14DD25
:101100000123019304AB009302AA0123002102F002
:1011100063FA4346059A05001A60200002F068FA57
:10112000280010B004BC9046F0BD84256D42F7E75E
:10113000F0B5C64600B590B007000E0015000021BE
:10114000242207A89846FFF7FAFA072306AC06936D
:10115000012121338020E7800294039304960595B2
:1011600002F038FA041E14DD0123019304AB00934E
:1011700002AA0123002102F02FFA4346059A050036
:101180001A60200002F034FA280010B004BC904627
:10119000F0BD84256D42F7E7F0B593B007000E006F
:1011A00015000021242209A8FFF7C9FA0823089393
:1011B00020330593043B08AC07930121223B802098
:1011C000E780049406960295039302F003FA041E46
:1011D0000FDD0123019302AB009304AA0223002137
:1011E00002F0FAF90500200002F002FA280013B01C
:1011F000F0BD84256D42F9E7F0B5C64600B592B062
:1012000004000F0016000021242209A89846FFF7C9
:1012100096FA1D230893236808ADEB60282301216B
:1012200003938020243B0494029505930697079628
:1012300002F0D0F9041E14DD0223019304AB0093E5
:1012400002AA0123002102F0C7F94346079A0500CC
:101250001A60200002F0CCF9280012B004BC9046BD
:10126000F0BD84256D42F7E7F0B593B004000F00A0
:1012700016000021242209A8FFF761FA1E23089313
:10128000236808ADEB602823012105938020243BCF
:101290000294049506970796039302F09BF9041EA7
:1012A0000FDD0123019302AB009304AA0223002166
:1012B00002F092F90500200002F09AF9280013B01C
:1012C000F0BD84256D42F9E7F0B591B005000F003F
:1012D00016000021242207A8FFF731FA1B230693EA
:1012E0002B6806ACE3602823012103938020243B74
:1012F000E780A66002940495059302F06BF9041E42
:101300000FDD0123019304AB009302AA0123002106
:1013100002F062F90500200002F06AF9280011B01D
:10132000F0BD84256D42F9E7F0B591B005000F00DE
:1013300016000021242207A8FFF701FA1C230693B8
:101340002B6806ACE3602823012103938020243B13
:10135000E780A66002940495059302F03BF9041E11
:101360000FDD0123019304AB009302AA01230021A6
:1013700002F032F90500200002F03AF9280011B01D
:10138000F0BD84256D42F9E7F0B5C64600B594B0CE
:10139000040088461700002124220BA81E00FFF736
:1013A000CEF91F230A9323680AADEB602823039329
:1013B00043460493042307931A9B0121802006943B
:1013C000029505970896099302F004F9041E14DDAE
:1013D0000223019306AB009302AA0223002102F02C
:1013E000FBF8099A1B9B05001A60200002F000F927
:1013F000280014B004BC9046F0BD84256D42F7E788
:1014000030B591B004002422002107A8FFF797F916
:1014100021230693236806ADEB6028230121039363
:101420008020243B04940295059302F0D3F8041E17
:101430000FDD0123019304AB009302AA01230021D5
:1014400002F0CAF80500200002F0D2F8280011B01E
:1014500030BD84256D42F9E7F0B5C64600B592B0BF
:1014600004000F0016000021242209A89846FFF767
:1014700066F920230893236808ADEB602823012137
:1014800003938020243B04940295059306970796C6
:1014900002F0A0F8041E14DD0223019304AB0093B4
:1014A00002AA0123002102F097F84346079A05009B
:1014B0001A60200002F09CF8280012B004BC90468C
:1014C000F0BD84256D42F7E770B590B005000E00C1
:1014D0002422002107A8FFF732F90B2306932B687B
:1014E00006ACE3602823012103938020243BA660FF
:1014F00002940495059302F06DF8041E0FDD01239C
:10150000019304AB009302AA0123002102F064F8C6
:101510000500200002F06CF8280010B070BD842592
:101520006D42F9E7F0B593B004000F0016000021FA
:10153000242209A8FFF703F90C230893236808ADB8
:10154000EB602823012105938020243B029404951D
:1015500006970796039302F03DF8041E0FDD012362
:10156000019302AB009304AA0223002102F034F895
:101570000500200002F03CF8280013B0F0BD8425DF
:101580006D42F9E7F0B5C64600B592B004000F0011
:1015900016000021242209A89846FFF7D0F80D2351
:1015A0000893236808ADEB60282301210393802072
:1015B000243B0494029505930697079602F00AF8D7
:1015C000041E14DD0223019304AB009302AA01233D
:1015D000002102F001F84346079A05001A60200036
:1015E00002F006F8280012B004BC9046F0BD842535
:1015F0006D42F7E7F0B593B004000F00160000212C
:10160000242209A8FFF79BF80E230893236808AD4E
:10161000EB602823012105938020243B029404954C
:1016200006970796039301F0D5FF041E0FDD0123F3
:10163000019302AB009304AA0223002101F0CCFF26
:101640000500200001F0D4FF280013B0F0BD842570
:101650006D42F9E730B591B004002422002107A8BB
:10166000FFF76DF80F230693236806ADEB60282380
:10167000012103938020243B04940295059301F0FB
:10168000A9FF041E0FDD0123019304AB009302AAFE
:101690000123002101F0A0FF0500200001F0A8FFB8
:1016A000280011B030BD84256D42F9E770B590B0C7
:1016B00006000C002422002107A8FFF740F81023A1
:1016C0000693336806ADEB6028230393243B029511
:1016D00004940593002C02D02368002B18D101211B
:1016E000802001F077FF041E0FDD0123019304AB7E
:1016F000009302AA0123002101F06EFF05002000E3
:1017000001F076FF280010B070BD84256D42F9E726
:1017100089256D42F6E7C046F0B591B005000F008F
:1017200016000021242207A8FFF709F813230693C7
:101730002B6806ACE3602823012103938020243B1F
:10174000E780A66002940495059301F043FF041E10
:101750000FDD0123019304AB009302AA01230021B2
:1017600001F03AFF0500200001F042FF280011B00F
:10177000F0BD84256D42F9E7F0B591B005000F008A
:1017800016000021242207A8FEF7D9FF1423069390
:101790002B6806ACE3602823012103938020243BBF
:1017A000E780A66002940495059301F013FF041EE0
:1017B0000FDD0123019304AB009302AA0123002152
:1017C00001F00AFF0500200001F012FF280011B00F
:1017D000F0BD84256D42F9E7F0B593B004000F0029
:1017E00016000021242209A8FEF7A9FF152308935B
:1017F000236808ADEB602823012105938020243B5A
:101800000294049506970796039301F0E3FE041EE5
:101810000FDD0123019302AB009304AA02230021F0
:1018200001F0DAFE0500200001F0E2FE280013B00E
:10183000F0BD84256D42F9E7F0B5C64600B592B01B
:1018400004000F0016000021242209A89846FEF784
:1018500076FF16230893236808ADEB602823012147
:1018600003938020243B04940295059306970796E2
:1018700001F0B0FE041E14DD0223019304AB0093BB
:1018800002AA0123002101F0A7FE4346079A0500A2
:101890001A60200001F0ACFE280012B004BC904693
:1018A000F0BD84256D42F7E7F0B593B004000F005A
:1018B00016000021242209A8FEF741FF17230893F0
:1018C000236808ADEB602823012105938020243B89
:1018D0000294049506970796039301F07BFE041E7D
:1018E0000FDD0123019302AB009304AA0223002120
:1018F00001F072FE0500200001F07AFE280013B00E
:10190000F0BD84256D42F9E730B591B00400242282
:10191000002107A8FEF713FF18230693236806ADDE
:10192000EB602823012103938020243B049402953B
:10193000059301F04FFE041E0FDD0123019304AB5C
:10194000009302AA0123002101F046FE05002000B9
:1019500001F04EFE280011B030BD84256D42F9E73C
:10196000F0B595B004000F001600002120220BA84E
:101970001D00FEF7E4FE22230A936B46DC851A9BCA
:101980000C971395002B36D00AAB049328230593AC
:101990001C9B06931D9B07931A9B08931B9B099303
:1019A0001E9B02931F9B0393102D27D8002E06D059
:1019B000002D04D02A0031000FA8FEF7A4FE01215B
:1019C000802001F007FE051E1BDD1A9B01225C1E14
:1019D000A341019202AA02330092002104AA01F05D
:1019E000FBFD039A209B04001A60280001F000FE12
:1019F000200015B0F0BD1B9B002BC5D0872464428E
:101A0000F6E784246442F3E7F0B595B004000F00D4
:101A10001600002120220BA81D00FEF790FE2323B4
:101A20000A936B46DC851A9B0C971395002B36D0D6
:101A30000AAB0493282305931C9B06931D9B0793D5
:101A40001A9B08931B9B09931E9B02931F9B039356
:101A5000102D27D8002E06D0002D04D02A003100EA
:101A60000FA8FEF750FE0121802001F0B3FD051EF6
:101A70001BDD1A9B01225C1EA341019202AA0233C4
:101A80000092002104AA01F0A7FD039A209B040004
:101A90001A60280001F0ACFD200015B0F0BD1B9BC2
:101AA000002BC5D087246442F6E784246442F3E720
:101AB000F0B5C64600B592B080460F001600002172
:101AC000242209A81D00FEF73AFE2E230893434660
:101AD00008ACE38028230593189B01210293199BEE
:101AE0008020A760049406960795039301F072FD89
:101AF000041E14DD0123019302AB009304AA022308
:101B0000002101F069FD039A1A9B05001A6020006C
:101B100001F06EFD280012B004BC9046F0BD842593
:101B20006D42F7E7F0B5C64600B592B080460F00AB
:101B300016000021242209A81D00FEF700FE2E2316
:101B40000893434608ACE38028230593189B0121A2
:101B50000293199B8020A76004940696079503932F
:101B600001F038FD041E14DD0123019302AB009344
:101B700004AA0223002101F02FFD039A1A9B0500FD
:101B80001A60200001F034FD280012B004BC904619
:101B9000F0BD84256D42F7E7F0B5C64600B592B0BA
:101BA00080460F0016000021242209A81D00FEF720
:101BB000C6FD2F230893434608ACE38028230393F4
:101BC000189B01210693199B8020A760029404961C
:101BD0000595079301F0FEFC041E10DD002302AA08
:101BE000019300930021033301F0F6FC050020006F
:101BF00001F0FEFC280012B004BC9046F0BD842524
:101C00006D42F7E7F0B5C64600B592B080460F00CA
:101C100016000021242209A81D00FEF790FD2F23A5
:101C20000893434608ACE38028230393189B0121C3
:101C30000693199B8020A76002940496059507934C
:101C400001F0C8FC041E10DD002302AA01930093DA
:101C50000021033301F0C0FC0500200001F0C8FCA6
:101C6000280012B004BC9046F0BD84256D42F7E711
:101C7000F0B595B005000C001700002124220BA838
:101C80001E00FEF75CFD30230A936B46DD851A9B30
:101C90000C94002B28D00AAB0493282304AC636077
:101CA0001A9BE66023611B9B02AE63611C9BA760CD
:101CB00002931D9B01217360802001F08BFC0323A4
:101CC000051E2BDD01220096019200212200280032
:101CD00001F082FC72681E9B04001A60280001F06B
:101CE00087FC200015B0F0BD1B9B002B19D10AAB5F
:101CF0000493282304AC63601B9BE660236163614B
:101D00001C9B02AE02931D9BA76073600121802083
:101D100001F060FC051E01DD0223D3E78424644248
:101D2000DFE787246442DCE7F0B595B005000C00DE
:101D30001700002124220BA81E00FEF700FD31230E
:101D40000A936B46DD851A9B0C94002B28D00AABB6
:101D50000493282304AC63601A9BE66023611B9BF9
:101D600002AE63611C9BA76002931D9B01217360FF
:101D7000802001F02FFC0323051E2BDD012200969D
:101D8000019200212200280001F026FC72681E9BAF
:101D900004001A60280001F02BFC200015B0F0BDF3
:101DA0001B9B002B19D10AAB0493282304AC63605E
:101DB0001B9BE660236163611C9B02AE02931D9B2B
:101DC000A76073600121802001F004FC051E01DD85
:101DD0000223D3E784246442DFE787246442DCE7FC
:101DE00070B590B006000D002422002107A8FEF770
:101DF000A6FC33230693336806ACE3602823012155
:101E000003938020243B02940495059301F0E2FBA8
:101E1000041E0FDD0123019304AB009302AA0123EA
:101E2000002101F0D9FB0500200001F0E1FB2800B2
:101E300010B070BD84256D42F9E7C046F0B591B091
:101E400007000E0015000021242207A8FEF777FCEA
:101E5000382306933B6806ACE360282301218020E9
:101E6000029403930496059501F0B4FB041E0FDD64
:101E70000123019304AB009302AA0123002101F086
:101E8000ABFB0500200001F0B3FB280011B0F0BD52
:101E900084256D42F9E7C046F0B58FB005000F000C
:101EA00016000021202206A8FEF749FC36230493E1
:101EB0002B6804ACE360282301218020A780E68002
:101EC0000294039301F086FB041E0EDD002302AA98
:101ED000019300930021013301F07EFB05002000F7
:101EE00001F086FB28000FB0F0BD84256D42F9E7B4
:101EF00030B591B004002422002107A8FEF71FFC92
:101F00003A230693236806ADEB602823012103934F
:101F10008020243B04940295059301F05BFB041E92
:101F20000FDD0123019304AB009302AA01230021DA
:101F300001F052FB0500200001F05AFB280011B00F
:101F400030BD84256D42F9E7F0B5C64600B592B0C4
:101F5000050088461700002120220AA81E00FEF76F
:101F6000EEFB37230893434608ACA3802B6801217E
:101F7000E36028230593189B802007930423E780C0
:101F8000049406960295039301F024FB041E11DDD0
:101F90000123019302AB009304AA0223002101F064
:101FA0001BFB0500200001F023FB280012B004BC3D
:101FB0009046F0BD84256D42F7E7C04630B591B03C
:101FC00005000C002422002107A8FEF7B8FB3C23E3
:101FD000069306AB029328230495039305940025EA
:101FE000002C02D1280011B030BD0121802001F069
:101FF000F1FA041E0DDD0123019304AB009302AA44
:102000000123002101F0E8FA0500200001F0F0FAB8
:10201000E8E784256D42E5E730B593B00C00050094
:102020002422002109A8FEF78AFB3D23089308AB70
:10203000049328230593043B07930121223B80202E
:1020400002940695039301F0C5FA041E0FDD0123E7
:10205000019302AB009304AA0223002101F0BCFA11
:102060000500200001F0C4FA280013B030BD84251B
:102070006D42F9E7862040427047C04686204042C4
:102080007047C046862040427047C0468620404286
:102090007047C046862040427047C0468620404276
:1020A0007047C046862040427047C0468620404266
:1020B0007047C046862040427047C0468620404256
:1020C0007047C046862040427047C046F0B5C646BD
:1020D00000B592B00700884616000021242209A806
:1020E0001D00FEF72CFB3B230893434608ACE3801E
:1020F00028230593189B01210293199B8020A76038
:10210000049406960795039301F064FA041E14DD07
:102110000123019302AB009304AA0223002101F0E2
:102120005BFA039A1A9B05001A60200001F060FA1E
:10213000280012B004BC9046F0BD84256D42F7E73C
:1021400070B590B005000E002422002107A8FEF70C
:10215000F6FA322306932B6806ACE36028230121AC
:1021600003938020243BA66002940495059301F01C
:1021700031FA041E0FDD0123019304AB009302AA80
:102180000123002101F028FA0500200001F030FAB7
:10219000280010B070BD84256D42F9E770B58EB08F
:1021A00006000D002422002105A8FEF7C8FA3423FA
:1021B0000493336804ACE360282301218020256167
:1021C0000294039301F006FA041E0EDD002302AA16
:1021D000019300930021013301F0FEF90500200076
:1021E00001F006FA28000EB070BD84256D42F9E7B3
:1021F000F0B5C64607001E2000B590B08846160010
:102200000021222268441D00FEF799FA3523069327
:10221000434606ACA3803B680121E360282380206D
:10222000029403930496059501F0D4F9041E10DD81
:10223000002302AA019300930021023301F0CCF99C
:102240000500200001F0D4F9280010B004BC90462D
:10225000F0BD84256D42F7E7F0B593B006000F009E
:1022600015000021242209A8FEF769FA39230893F2
:102270003B6808ACE36028230593043B07930121E6
:10228000223B8020049406960295039301F0A2F964
:10229000041E0FDD0123019302AB009304AA022365
:1022A000002101F099F90500200001F0A1F92800B2
:1022B00013B0F0BD84256D42F9E7C0468620404248
:1022C0007047C046862040427047C0468620404244
:1022D0007047C046862040427047C0468620404234
:1022E0007047C046862040427047C0468620404224
:1022F0007047C04602B4714649084900095C49006C
:102300008E4402BC7047C046002243088B4274D3FF
:1023100003098B425FD3030A8B4244D3030B8B42E6
:1023200028D3030C8B420DD3FF22090212BA030CEF
:102330008B4202D31212090265D0030B8B4219D3D0
:1023400000E0090AC30B8B4201D3CB03C01A5241F0
:10235000830B8B4201D38B03C01A5241430B8B4238
:1023600001D34B03C01A5241030B8B4201D30B0321
:10237000C01A5241C30A8B4201D3CB02C01A524148
:10238000830A8B4201D38B02C01A5241430A8B420B
:1023900001D34B02C01A5241030A8B4201D30B02F4
:1023A000C01A5241CDD2C3098B4201D3CB01C01A0E
:1023B000524183098B4201D38B01C01A5241430918
:1023C0008B4201D34B01C01A524103098B4201D306
:1023D0000B01C01A5241C3088B4201D3CB00C01A73
:1023E000524183088B4201D38B00C01A52414308EB
:1023F0008B4201D34B00C01A5241411A00D2014610
:10240000524110467047FFE701B5002000F006F882
:1024100002BDC0460029F7D076E770477047C04636
:10242000002B11D1002A0FD1002900D1002802D0A1
:102430000021C943081C07B4024802A140180290B9
:1024400003BDC046D9FFFFFF03B4684601B502983B
:1024500000F030F8019B9E4602B00CBC7047C046AD
:10246000F0B5CE46474615042D0C2E0080B5070466
:10247000140C3F0C9946030C7E435D436743634352
:102480007F19340CE4199C46A54203D980235B02D2
:102490009846C4444B4643435143250C3604654497
:1024A000360C2404A4195B19591820000CBC904662
:1024B0009946F0BDF0B54F464646D646C0B5040035
:1024C00082B00D00914698468B422FD82CD04146C1
:1024D000484600F0B1F829000600200000F0ACF8F2
:1024E000331A9C46203B9A4600D576E04B4652462E
:1024F00093401F004B46624693401E00AF4228D8CF
:1025000025D05346A41BBD41002B00DA7BE00022FE
:10251000002300920193012352469340019301232B
:1025200062469340009318E08242D0D900220023F3
:10253000009201930A9B002B01D01C605D60009803
:10254000019902B01CBC90469946A246F0BDA34238
:10255000D7D900220023009201936346002BE9D0D3
:10256000FB079846414672080A437B0866460EE020
:10257000AB4201D1A2420CD8A41A9D4101202419DA
:102580006D410021013E24184D41002E06D0AB4282
:10259000EED9013E24196D41002EF8D10098019921
:1025A000534600196941002B23DB2B005246D340D0
:1025B0002A006446E2401C0053461500002B2DDB28
:1025C00026005746BE40330026006746BE40320014
:1025D000801A994100900191ACE7624620239B1A32
:1025E0004A46DA406146130042468A4017001F43BC
:1025F00080E7624620239B1A2A0066469A40230001
:10260000F3401343D4E76246202300219B1A0022A3
:10261000009101920122DA40019280E72023624674
:1026200026009B1ADE402F00B0466646B74046465D
:102630003B003343C8E7C04610B5002903D100F082
:1026400007F8203002E0081C00F002F810BDC04678
:102650001C2101231B04984201D3000C10391B0AD2
:10266000984201D3000A08391B09984201D3000996
:10267000043902A2105C40187047C04604030202ED
:102680000101010100000000000000000FB4F0B5DE
:102690005746DE464E464546E0B595B01EAE08CEDE
:1026A00000249A46002357469B4607960B933B7897
:1026B000002B12D07A1C9046252B20D00BAD621C2B
:1026C0002C190B9223711F2A24D8012347469C46BC
:1026D0003B78E3441400002BECD1002C04D0210003
:1026E0000CA821F0CFFA8344584615B03CBC904664
:1026F0009946A246AB46F0BC08BC04B018477B78AC
:10270000253BDBB2532B01D900F09EFC854A9B0090
:10271000D3589F46002320210CA80B9321F0B2FA36
:102720000B9AD2E70023804A0BAD984691462A00C7
:102730004546B04616003033621C341932602371AE
:102740001F2A0BD84B4601355B5D002B12D01400BD
:10275000621C3419326023711F2AF3D9002320210F
:102760000CA8336021F08EFA4B4601355B5D326870
:10277000002BECD133004646A8461D00331D0193C3
:1027800008AB924600210C22180034689946FDF7E8
:10279000D6FF0F231A00494664482240825CC34496
:1027A0000A7003925246984621090132002901D14C
:1027B00000F0D7FD4E461940415C7170260A01D1E8
:1027C00000F010FE1E404B46865D9E70230B01D12B
:1027D00000F031FE1900434619404B46415CD97068
:1027E000230C01D100F04BFE1E0043461E404B4619
:1027F000865D1E71230D01D100F04AFE190043468B
:1028000019404B46415C5971230E01D100F076FE10
:1028100046461E404B46865D240F9E7101D100F056
:1028200090FE015DD9710623029302339846534608
:10283000EB182A6019711F2A01D900F06BFD541C96
:10284000AA182C6016711F2C01D900F0A6FC029B5F
:10285000002B01D100F05CFC4346DE1E4B469A5D26
:10286000631C2C192B6022711F2B01D900F014FD61
:10287000002E01D100F078FC4246161F4A46925DB8
:102880005C1CEB182C601A711F2C01D900F02FFD75
:10289000002E01D100F092FC43465E1F4B469A5D2C
:1028A000631C2C192B6022711F2B01D900F071FDC4
:1028B000002E01D100F00AFD4246961F4A46925D65
:1028C0005C1CEB182C601A711F2C06D900232021E8
:1028D0000CA82B6021F0D6F92C68002E01D100F055
:1028E00017FD46464B46073E9A5D631C2C192B602C
:1028F00022711F2B01D900F077FC002E01D100F0CE
:102900005AFD039A5C1CEB182C601A7108261F2CC8
:1029100000D80FE2002320210CA82B6021F0B2F98F
:102920002C6807E20836001078370010583700107E
:10293000331D029308AB180036680C22002199461B
:10294000FDF7FDFE631C9A46002E00DAA6E3002385
:10295000B046012603930BAD0A214046FFF75AFD0E
:102960004A463031CBB213700A2140460593FFF737
:10297000CBFC002801D100F0E9FC0A21FFF74AFD59
:102980004B463031CEB25E7064214046FFF7BCFC4E
:10299000002801D100F017FD0A21FFF73BFD30317F
:1029A000CBB24A46FA219370890040460193FFF763
:1029B000ABFC002801D100F02DFD0A21FFF72AFD14
:1029C0004B463031CEB2DE70E4494046FFF79CFC06
:1029D000002801D100F049FD0A21FFF71BFD4A46FE
:1029E0003031CBB21371DE4940460193FFF78CFCC6
:1029F000002801D100F055FD0A21FFF70BFD4B46E1
:102A00003031CEB25E71D7494046FFF77DFC0028D9
:102A100001D100F05BFD0A21FFF7FCFC4A46303192
:102A2000CBB29371D04940460193FFF76DFC00286B
:102A300001D100F075FD0A21FFF7ECFC4B46303167
:102A4000CEB2DE71C9494046FFF75EFC002801D1D5
:102A500000F091FD0A21FFF7DDFC4A463031CBB290
:102A60001372C34940460193FFF74EFC002801D181
:102A700000F0A0FD4B463030C6B25E7208230493CE
:102A80000233984653462C192B6026711F2B01D90F
:102A900000F052FC5346019A5C1CEB182C601A7132
:102AA0001F2C00D971E3049B002B01D100F0CCFC5A
:102AB0004346DE1E4B469A5D631C2C192B60227127
:102AC0001F2B00D9F1E3002E01D100F0C9FC4246D2
:102AD000161F4A46925D5C1CEB182C601A711F2C65
:102AE00001D900F0FBFB002E01D100F0E3FC4346CE
:102AF0005E1F4B469A5D631C2C192B6022711F2BA5
:102B000001D900F04FFC002E01D100F0FDFC42463F
:102B1000961F4A46925D5C1CEB182C601A711F2CA4
:102B200006D9002320210CA82B6021F0ABF82C68DB
:102B3000002E01D100F0EDFC4346DE1F4B469A5DAE
:102B4000631C2C192B6022711F2B00D955E3002E1A
:102B500001D100F016FD46464A46083E925D5C1CD7
:102B6000EB182C601A711F2C00D966E3002E01D1DE
:102B700000F029FD46464B46093E9A5D631C2C1920
:102B80002B6022711F2B00D95FE3002E00D16CE374
:102B9000059A5C1CEB182C601A711F2C01D900F0EF
:102BA0009BFC039E0A36B3440237029E7FE5331D29
:102BB00032780BAD9846631C2C190B9322711F2B96
:102BC00000D97DE2012294461C00E34446460237C8
:102BD0006DE5331D019308AB00210C221800356808
:102BE0009946FDF7ACFD63490F231A002A408A5C21
:102BF000984692464A46504610702809621C0028A2
:102C000000D19FE24E461840085C70702E0A00D139
:102C1000ADE21E404B468E5D9E702B0B00D12BE328
:102C20001800434618404B46085CD8702B0C00D166
:102C30004FE31E0043461E404B468E5D1E712B0D1A
:102C400000D1BDE21800434618404B46085C58715D
:102C50002B0E00D1B2E346461E404B468E5D2D0F33
:102C60009E7100D1CEE3485DD871062302930233F2
:102C700098460BAD2C190B9220711F2A00D959E2EE
:102C8000541CAA182C6016711F2C00D928E2029B34
:102C9000002B00D13CE24346DE1E4B469A5D631C8E
:102CA0002C192B6022711F2B00D921E2002E00D19C
:102CB0005AE24246161F4A46925D5C1CEB182C6095
:102CC0001A711F2C00D91BE2002E00D176E2434678
:102CD0005E1F4B469A5D631C2C192B6022711F2BC3
:102CE00000D939E2002E00D1F0E24246961F4A4652
:102CF000925D5C1CEB182C601A711F2C00D93CE211
:102D0000002E00D104E346464B46073E9A5D631C05
:102D10002C192B6022711F2B00D9B5E2002E00D197
:102D200049E352465C1CEB182C601A7108261F2CD4
:102D300000D9EFE5B3440237019EB8E425220BAD7C
:102D4000631C2C190B9322711F2B00D9C0E10122A7
:102D500094461C00E3440237A9E4C0461027000053
:102D6000A086010040420F008096980000E1F50522
:102D700000CA9A3B68370010331D019308AB00214D
:102D80000C22180035689946FDF7D9FCE1492BE77C
:102D9000331D029308AB994635680C2218000021B8
:102DA000FDF7CDFC0A212800FFF734FB4A463031FD
:102DB000CBB213700A2128000493FFF7A5FA631C15
:102DC0009A46002800D103E20A21FFF723FB4B4675
:102DD0003031CEB25E7064212800FFF795FA0028EA
:102DE00000D1F8E20A21FFF715FB3031CBB298464B
:102DF000FA214B46424689009A702800FFF784FA70
:102E0000002800D10FE30A21FFF704FB4B463031C5
:102E1000CEB2DE70C0492800FFF776FA002800D154
:102E200019E30A21FFF7F6FA3031CBB298464B4648
:102E30004246BA491A712800FFF766FA002800D105
:102E40003CE30A21FFF7E6FA4B463031CEB25E7121
:102E5000B3492800FFF758FA002800D149E30A21B6
:102E6000FFF7D8FA3031CBB298464B464246AD49CF
:102E70009A712800FFF748FA002800D159E30A2187
:102E8000FFF7C8FA4B463031CEB2DE71A6492800B2
:102E9000FFF73AFA002800D178E30A21FFF7BAFADF
:102EA0003031CBB298464B464246A0491A722800B0
:102EB000FFF72AFA002800D171E34B463030C6B242
:102EC0005E72082303930233019353460BAD2C1912
:102ED0000B9326711F2B00D925E2534642465C1CFA
:102EE000EB182C601A711F2C00D95FE1039B002B9B
:102EF00000D1ADE2019BDE1E4B469A5D631C2C198E
:102F00002B6022711F2B00D9D8E1002E00D1B2E234
:102F1000019A5C1C161F4A46925DEB182C601A71D0
:102F20001F2C00D9ECE1002E00D1AEE2019B5E1F08
:102F30004B469A5D631C2C192B6022711F2B00D904
:102F40001FE2002E00D1D0E2019A5C1C961F4A4677
:102F5000925DEB182C601A711F2C06D900232021DA
:102F60000CA82B6020F08EFE2C68002E00D1D4E23D
:102F7000019BDE1F4B469A5D631C2C192B6022714E
:102F80001F2B00D941E1002E00D104E34A46019EE7
:102F90005C1C083E925DEB182C601A711F2C00D946
:102FA00043E1002E00D102E34B46019E093E9A5DAB
:102FB000631C2C192B6022711F2B00D94DE1002EB0
:102FC00000D156E1049A5C1CEB182C601A710A2699
:102FD0001F2C00D8E7E5002320210CA82B6020F04F
:102FE00051FE2C68DFE5331D994633681A78984600
:102FF000002A25D000239A463B000BAD4746984651
:10300000631C2C1900262B6022711F2B0AD8013655
:10301000BA5D002A11D01C00631C2C192B60227190
:103020001F2BF4D9534620210CA801362B6020F029
:1030300029FEBA5D2B68002AEDD147461C00B34437
:103040004E460237FFF733FB394B5B22994600238C
:103050000BAD9A46631C2C1900272B6022711F2B85
:103060000BD84A460137D25D002A12D01C00631CDF
:103070002C192B6022711F2BF3D9534620210CA849
:103080002B6020F0FFFD4A460137D25D2B68002AF5
:10309000ECD1BB441C004746FFF709FB0B932D23E3
:1030A0000BAD2C19237153461F2B00D9A1E173429C
:1030B000984601239C4654460226E24403934BE47F
:1030C000002320210CA80B9320F0DCFD0B9B79E55D
:1030D000002320210CA80B9320F0D4FD0B9B36E697
:1030E000002320210CA82B6020F0CCFD2C68CEE51D
:1030F000002320210CA82B6020F0C4FD2B68D5E50F
:10310000002320210CA82B6020F0BCFD2C68DBE5FF
:1031100002260FE65837001010270000A086010095
:1031200040420F008096980000E1F50500CA9A3BE6
:103130007C370010002320210CA80B9320F0A2FD67
:103140000B9A9DE553460BAD2C190B9223711F2A48
:1031500063D814000126EDE5002320210CA82B6084
:1031600020F090FD2B68BDE51C000326E2E500235E
:1031700002930233564698467BE5002320210CA893
:103180002B6020F07FFD2C68BAE5002320210CA8DD
:103190002B6020F077FD2C6885E4002320210CA80B
:1031A0002B6020F06FFD2C68FFF751FB00232021DE
:1031B0000CA82B6020F066FD2C6897E60426B9E584
:1031C000030030001E00032302930233984650E5AB
:1031D0000BAD0B93049B2C19237153461F2B00D965
:1031E000C0E154460126DEE4002320210CA82B6018
:1031F00020F048FD2B68FFF780FB002320210CA85E
:103200002B6020F03FFD2B68A1E4002320210CA8B7
:103210002B6020F037FD2B68B5E60B9020210CA821
:1032200020F030FD01260B9C84E5002320210CA812
:103230002B6020F027FD2C68B3E6002320210CA88A
:103240002B6020F01FFD2C6890E4002320210CA8A7
:103250002B6020F017FD2B6897E4002320210CA899
:103260002B6020F00FFD2B68A9E6039E1C00093699
:1032700099E41C00092696E4030030001E00012397
:10328000029302339846F4E4002320210CA82B601B
:1032900020F0F8FC2B6841E5002320210CA82B60CE
:1032A00020F0F0FC2B68FFF7E3FA002320210CA8A4
:1032B0002B6020F0E7FC2B68FFF705FC00232021A2
:1032C0000CA82B6020F0DEFC2B681EE61C000526F7
:1032D00030E50223029302339846CAE400232021FA
:1032E0000CA82B6020F0CEFC2C68FFF7FCFB002321
:1032F00020210CA82B6020F0C5FC2C68FFF7C8FA31
:10330000002320210CA82B6020F0BCFC2C680AE6CE
:1033100006260FE5002320210CA82B6020F0B2FC2C
:103320002A68FFF78CFA002320210CA80B9320F0C9
:10333000A9FC0B9B9A46D0E5002320210CA82B600A
:1033400020F0A0FC2B689A46FFF7A4FB53462B60A5
:10335000059B2C19237153461F2B00D9FAE05446C4
:1033600021E453460398EB182A6018711F2A00D8ED
:10337000EFE629600CA8202120F084FC01262C68AF
:10338000D8E4002320210CA82B6020F07BFC2B68C4
:10339000D7E5002320210CA82B6020F073FC2B68BC
:1033A000FFF786FA002320210CA82B6020F06AFC8E
:1033B0002B68FFF7A8FB1C000726BBE4042302933D
:1033C0000233984655E4059B01930023049302338E
:1033D0009846FFF757FB049B98460023039302335C
:1033E000019372E5002302930233039E9846FFF790
:1033F0001EFA002320210CA80B9320F043FC0B9B0A
:103400009A4654E6030030001E000523029302335F
:1034100098462EE43300019E019301230493023366
:103420009846FFF72FFB3300464698460123039347
:103430000233019349E50B0031001E000123029382
:1034400002339846FFF7F3F9039E0236FFF7ABFB12
:103450000226FFF7A8FB022303930233019334E50E
:10346000039E1C000336FFF79EFB022304930233E6
:103470009846FFF707FB1C000326FFF794FB022387
:10348000029302339846FFF7D2F90426FFF78BFB2D
:103490000B0031001E000323029302339846FFF70E
:1034A000C6F93300019E0193032304930233984627
:1034B000FFF7E8FA039E0436FFF775FB3300464634
:1034C00098460323039302330193FEE404230493F9
:1034D00002339846FFF7D6FA002320210CA82B6070
:1034E00020F0D0FB2C68FFF75CFB1C000526FFF7E3
:1034F0005AFB0423039302330193E6E4042302936B
:1035000002339846FFF793F9039E1C000536FFF738
:103510004AFB039E0636FFF746FB0626FFF743FBF2
:103520003300019E01930523049302339846FFF76D
:10353000A9FA3300464698460523039302330193C4
:10354000C3E40B0031001E000523029302339846AA
:10355000FFF76DF9286020210CA820F093FB2C6860
:10356000FFF721FB0B9020210CA820F08BFB0126FC
:103570000B9CFFF718FB0623049302339846FFF7D2
:1035800081FA039E1C000736FFF70DFB0623039309
:103590000233019399E41C000726FFF704FB330074
:1035A0004646984607230393023301938DE4082689
:1035B000FFF7F9FA3300019E0193072304930233C6
:1035C0009846FFF75FFA039E0836FFF7ECFAC0460D
:1035D00011DF704710DF704700B585B00293079B7D
:1035E0000191039301A9069BFFF7F2FF05B000BD0F
:1035F00012DF70470BDF704713DF704715DF70472E
:1036000017DF704718DF70473C2D0010483000105E
:10361000483000104830001048300010483000108A
:10362000483000104830001048300010483000107A
:10363000483000104830001048300010483000106A
:10364000483000104830001048300010483000105A
:10365000483000104830001048300010483000104A
:10366000483000104830001048300010483000103A
:10367000483000104830001048300010483000102A
:10368000483000104830001048300010483000101A
:10369000483000104830001048300010483000100A
:1036A00048300010483000104830001048300010FA
:1036B00048300010483000104830001048300010EA
:1036C00048300010483000104830001048300010DA
:1036D00048300010D22B0010483000104830001045
:1036E00048300010483000104830001048300010BA
:1036F00048300010483000104830001048300010AA
:10370000AE2B001030290010483000104830001057
:1037100048300010483000103029001048300010A8
:103720004830001048300010483000104830001079
:103730004830001024270010483000104830001096
:10374000E62F001048300010902D00104830001077
:1037500048300010782D0010303132333435363790
:1037600038396162636465663031323334353637F7
:103770003839414243444546307800005B556E730A
:103780007570706F72746564205461675D0000002D
:103790000000000000000000000000000000000029
:1037A000F0B5CE46474680B58DB000F00DF9002843
:1037B00025D106AB81279846734C08AE7F42802105
:1037C000012009064042FFF715FF0300C20676D428
:1037D000820645D4420614D4020600D59BE0802020
:1037E000400003420CD02100FFF706FF2568AB1C08
:1037F00000DAC5E0002D00DBB1E00021A6E0FEE725
:10380000FEE721004020FFF7F7FE21688B1C00DA5D
:10381000A4E00029F1DB00D0A0E023696068082B58
:1038200000D0AFE0226A0C2A00D0ABE04246FFF79E
:10383000E5FE2369984200D0A4E0069A079B009613
:10384000A06800F02BF9051E05D1236A3200002183
:103850006068FFF7D5FE29006068FFF7D3FEAEE78A
:1038600021002020FFF7C8FE21688B1C00DA88E0C9
:103870000029C2DB00D084E023696068082B69D18D
:103880006269042A66D13200FFF7B8FE23699842C4
:1038900060D1636905AA01216068FFF7AFFE636923
:1038A000984257D143460293236A0193059B0093A4
:1038B000A068089A099B00F0C5F8010046E02100C5
:1038C0001020FFF799FE21688B1C46DB002994DB52
:1038D00043D12369A5686068082B3BD1A269042AFB
:1038E00038D13200FFF78AFE2369984232D1A369AA
:1038F000424602216068FFF781FEA369984229D100
:10390000069B2800019363690093089A099B00F0C5
:1039100069F801001AE021008020FFF76DFE2168A0
:103920008B1C19DB002900DA67E715D12369606871
:10393000082B0FD13200FFF761FE2369984209D1AD
:10394000089A099BA06800F0CDF801006068FFF7B5
:1039500059FE34E73900F9E7FEE7FEE7FEE7002D00
:103960000ED1236A9946042BF4D100F0E1F8290026
:1039700008904B4632006068FFF742FE2900E5E7F9
:10398000FEE7FEE73D0066E7009C0008074B10B528
:1039900002000C0058680B000121FFF72FFE201ACF
:1039A000441EA04180234042984310BD009C000863
:1039B00010B50B000349020048680021FFF720FE04
:1039C00010BDC046009C000810B500F0B3F80028F8
:1039D00000D110BD00F0E8F90028FAD100F0AAF8F3
:1039E000F7E7C04630B51D00130083B014002B4329
:1039F0001FD00723079A9A431ED10123104A5B4226
:103A000012196B41002B09D0069B02000093200085
:103A1000079B290000F0CEF803B030BDFF2AF3D891
:103A2000079B22000193069B00932B002AF094FA37
:103A3000F2E787204042EFE786204042ECE7C046AD
:103A400000FFFFFF30B51D00130085B014002B43AD
:103A50001FD00123104A5B4212196B41002B0BD07F
:103A60000A9B02000193099B200000932900089BF8
:103A700000F06EF805B030BDFF2AF1D80A9B220095
:103A80000293099B0193089B00932B002AF068FA8C
:103A9000F0E787204042EDE700FFFFFF30B51D0053
:103AA000130083B014002B4317D001230C4A5B4250
:103AB00012196B41002B07D00200069B2000290041
:103AC00000F00CF903B030BDFF2AF5D8069B2200A8
:103AD00000932B002AF072FAF4E787204042F1E7C6
:103AE00000FFFFFF70B51D00130014002B4316D01C
:103AF00001230E4A5B4212196B41002B08D00200D1
:103B00002900200000F012F9030095330AD070BD9F
:103B1000FF2AF4D822002B002AF06EFAF7E787205C
:103B20004042F4E784204042F1E7C04600FFFFFF37
:103B30000020704710B5044C200000F013FA034B2E
:103B4000283C5C6010BDC046609C0008309C0008AA
:103B5000F8B5154D1E002B0000F07EFB041E01D0B1
:103B60002000F8BD114F2868390000F001FD041E47
:103B700004D1FD69B54208D2872464428022002125
:103B800012013800FCF7DBFDEAE7069BAD1B9D4206
:103B900007D8074829003018FFF70AFF079B1D6068
:103BA000ECE71D00F5E7C046309C0008389C000893
:103BB000609C0008F0B557464E46DE4645469A469C
:103BC000FB23E0B583B091460C9A06000F00DB00A2
:103BD0009A4269D83E4B4A46984600F03DFB041E87
:103BE00011D003003B4D8C334CD0802200211201B8
:103BF0002800FCF7A4FD200003B03CBC9046994689
:103C0000A246AB46F0BD4346324D1868290000F08D
:103C1000AFFC041EE9D16B6ADB0742D453466B62EA
:103C20000C9B2B6243461B68019301239B462A4B46
:103C30000C9918009A46FFF7A9FE041ED5D1282337
:103C40005B429C46E24453460C9A41465846DA6130
:103C500000F050FA041EC8D143465146186800F0DF
:103C6000C7FC041EC1D143464A463000390000F06B
:103C700077FA041E25D1019B002B18D100F044FBDC
:103C80000400B2E78022002112012800FCF757FD52
:103C90000C9B2B6253466B6202239B4600230193CD
:103CA000C5E785246442A0E787246442A3E700F0C7
:103CB0002BFB041E99D101980021FDF705F90400A2
:103CC00093E7434600211868FDF7FEF88DE7C046EC
:103CD000309C0008389C0008609C0008F8B5114D25
:103CE0001F002B0000F0B8FA041E01D02000F8BD20
:103CF0000D4E2868310000F03BFC041E06D08022E7
:103D0000002112013000FCF71AFDEFE78022F36971
:103D100012017B60736A0021BB603000FCF70FFD6D
:103D2000E4E7C046309C0008389C0008F8B54746D8
:103D3000CE461B4D80B52B0006000F00904600F0CC
:103D40008BFA041E04D020000CBC90469946F8BDA6
:103D5000144B28681900994600F00AFC041E05D18E
:103D60004B465B6ADB0708D585246442802200212C
:103D700012014846FCF7E3FCE5E742463000390013
:103D800000F08EFA041EF1D12D6800F0BDFA041E79
:103D9000ECD128000021FDF797F80400E6E7C046C3
:103DA000309C0008389C000810B500F0C5F810BD24
:103DB000F0B583001A4C5E58A544CA686B460C00E7
:103DC0003100184F1C31DA5105003A006846FCF703
:103DD0009AFCF5226946D200300000F0A5FB0028CD
:103DE00005D10223641923720F4B9D44F0BD236952
:103DF000002B03D1641901332372F5E76A46D351CE
:103E0000F5226946D200300000F08EFB431E984137
:103E1000012340429843033064192072E4E7C0460E
:103E200054F8FFFFA4070000AC070000F0B5CE4631
:103E30004746002380B53B4C0020A544039300F087
:103E400037FC041E06D02000374B9D440CBC904626
:103E50009946F0BD03A9002000F01EFC041EF2D11B
:103E600000F060FA041EEED1304D039C280000F0F3
:103E7000B7FA290004AE2E4A1C313000B450FCF7CA
:103E800042FCF5223100D200280000F029FB041E7C
:103E900041D100F08DFA041ED5D1F827254BFF0043
:103EA0009946EB5C3A00581C00949846C1172B00C9
:103EB000FCF780FF041EC6D14A46EB5D3100AB54CF
:103EC000434604900120EB55039D00F0E5FB0028DC
:103ED00024D1049B9D4209D9012000F0E9FB041E76
:103EE000B1D1049B013304939D42F5D831000220E7
:103EF00000F0D2FB002811D1049B9D4209D9022079
:103F000000F0D6FB041E9ED1049B013304939D4216
:103F1000F5D8002497E700F04BFA94E78424644234
:103F200091E7C04644F8FFFFBC07000038A4000832
:103F3000A4070000C107000010B500F0A3FB002893
:103F40000DD1F922064CD20000212000FCF7F7FB2E
:103F50000123F8222377D200A354FFF767FF10BD97
:103F600038A400080023F0B589B003AC2372637253
:103F7000E3602361F8235E4E02AF6060DB000197CF
:103F800000960022012000210396FCF73FFF002845
:103F900001D0012323720197636800220093F82364
:103FA0000220DB000021FCF731FF002801D00123B3
:103FB000637200F0B7F9051E02D0280009B0F0BD09
:103FC00000F060FB051E0BD106A9002000F064FB89
:103FD000051E05D13900012000F05EFB051E02D050
:103FE00000F0E6F9E9E707A9022000F055FB051EFD
:103FF000F6D12369029A934200D02061237A012BE3
:1040000003D021000020FFF7D3FE637A012B03D0F9
:1040100021000120FFF7CCFE00F0CAF9051ECCD12B
:10402000039B1B7F012B01D00123237261680B7F4F
:10403000012B01D00123637202232289FF339A42AC
:1040400052D0237A012B4CD0637A012B01D0022B62
:104050003DD0F823802202200021DB005200F252E2
:10406000FCF732FF051E02D003008C33A5D10023DC
:1040700039000120E468029300F00EFB002833D1E0
:10408000029B9C420AD9012000F012FB051E00D0C1
:1040900093E7029B013302939C42F4D8390002203B
:1040A00000F0FAFA00281FD1029B9C420AD9022094
:1040B00000F0FEFA051E00D07FE7029B0133029359
:1040C0009C42F4D8300000F081F9002575E7F82211
:1040D0000123D200B3523000FCF715FB0120002170
:1040E000BEE7F822D200F5E784256D4265E7C046B9
:1040F00038A4000870B50D0000282CD00024002141
:10410000164B1A685E6832430CD14A1C01383D2AAE
:104110000ED0203300280DD00C005E6811001A6804
:104120003243F2D001313D2901D02033E9E72100AB
:1041300000280DD1CC1C20000021FCF7C5FE002872
:1041400002D100202C6070BD03008C33FBD1F8E756
:104150008E204042F7E787204042F4E768A4000839
:10416000F0B5454657464E46DE46E0B5984689B01E
:1041700005000F001600364B002403E00134203305
:104180003D2C49D01A68AA42F8D15A68BA42F5D1F2
:104190009A689642F2D12F4B0134994664014C44FF
:1041A000202221006846FCF7AEFA236920229B46B4
:1041B0006369002120009A46FCF7C1FA43461A6859
:1041C000D31E5B014B441D639E635F634346951E94
:1041D0006D014D44596810222800FCF794FAFFF74E
:1041E00025FE061E10D05B465246134307D05B46A1
:1041F00005926946202220000493FCF784FA2022CD
:1042000000212800FCF79BFA300009B03CBC904626
:104210009946A246AB46F0BD43461A680D49D31EE7
:104220005B01CB181D639E635F634346951E6D0162
:104230006D18102259682800FCF765FAFFF7F6FDA3
:10424000061EE1D0202200212800FCF778FADBE7E7
:1042500068A4000838A4000870B50F4C002503E0DE
:10426000013520343D2D14D026688642F8D1666889
:104270008E42F5D1A668B242F2D1EA1C691C074D04
:1042800049011A60586849191022FCF73CFA0020CD
:1042900070BD8C204042FBE768A4000838A40008E9
:1042A00030B5174B89B0002403E0013420333D2C96
:1042B00023D01D688542F8D15D688D42F5D19D6897
:1042C000AA42F2D10F4B013464011C1920222100B3
:1042D0006846FCF718FA202200212000FCF72FFA8C
:1042E000FFF7A4FD051E02D1280009B030BD202231
:1042F00069462000FCF707FAF6E78C256D42F3E7E4
:1043000068A4000838A4000810B5044A044BD05C27
:104310000130C117FCF7D8FD10BDC04638A4000815
:10432000C107000030B58BB00021202202A8FCF7A5
:1043300006FA00230093C0239B000493164B01ACA4
:104340000593164B16490193802368462383FDF796
:10435000F7FE002801D00BB030BD0C23114A1249E2
:104360006846FDF745FF00280FD1104D69462A0029
:104370002000FDF771FF002807D16846FDF7B8FD62
:104380000028E8D02888FCF74DFE6846FDF7B0FD10
:1043900084204042DFE7C046021040060100004092
:1043A000000F00B0C4460010010200000CAC000871
:1043B000054B10B51888FCF735FE002800D110BD5C
:1043C00084204042FBE7C0460CAC0008010010B559
:1043D00010310C220148FCF796F910BD00AC000822
:1043E000F0B583B06C460E4923000A0060CA60C372
:1043F0000122009E019F002392197B4100920193AC
:104400001A4353425A410B008D681030AD1844CC0A
:1044100044C38D600C22FCF776F903B0F0BDC046B2
:1044200000AC0008F0B51500020089B0109F06002E
:104430001148119C008805970F9F029304970E9FC7
:10444000019500911032069403970C230B49FDF758
:1044500087FA051E0CD10F9B21689C4610392160FC
:10446000102261443000FCF74EF9280009B0F0BD7D
:1044700084256D42F9E7C0460CAC000802104006E6
:10448000F0B5C6460400904600B588B00E9D0F00FA
:104490005819102221001E00FCF735F90E4B22009E
:1044A0001888119B10350693109B103205930F9BB3
:1044B0000395049343460296019300970C23074902
:1044C000FDF7A2FA002803D108B004BC9046F0BD65
:1044D00095204042F8E7C0460CAC000802104006A8
:1044E000030030B514008BB002000D4809AD008800
:1044F0000695049310250023009103930293103234
:10450000059501940C330749FDF72AFA002804D1D8
:10451000099B102B01D10BB030BD84204042FAE73B
:104520000CAC00080210400630B503008BB015003B
:1045300002000D4809AC00880694002405940494F8
:104540001034029300911032039401950C23074913
:10455000FDF75AFA002804D1099B002B01D10BB0BA
:1045600030BD95204042FAE70CAC0008021040062E
:10457000F0B589B005AB01930B0010330093802395
:104580000D001B01002200210400FCF73FFC002865
:1045900001D009B0F0BD059E0694FFF7C3FE0028C8
:1045A000F7D134002F00104E0C3C1C37220039008C
:1045B0003000FCF7A8F807AB03930C4B019702936C
:1045C00000943300042206A92800FFF759FF0028B1
:1045D00005D1079B9C4202D1FFF7EAFED9E7FFF71E
:1045E000E7FE84204042D4E710AC0008E407000056
:1045F000F0B5CE46474680B587B006000C00CD69C1
:104600000490FFF78FFE002804D007B00CBC904642
:104610009946F0BD1C232F0098462000FFF7E0FECE
:1046200005AB0393154B0C370293154BA0449946E9
:10463000019300974346042204A92000FFF7F2FEED
:10464000002815D1059B9F4212D13A0049464046A9
:10465000FCF759F8FFF7ACFE0028D6D123002A005A
:1046600000901033183230000021FCF7A3FBCCE798
:10467000FFF79EFE84204042C7E7C046F4070000D3
:1046800010AC000810B529F043FE431E9841832367
:104690004042984310BDC04610B50A00042129F0DD
:1046A000A7FE431E984183234042984310BDC04655
:1046B00010B529F005FF431E9841832340429843DB
:1046C00010BDC04673746F726167655F6B6579007A
:1046D00000000000000000000000000000000000DA
:1046E000F0B5CE46474680B58DB000F0E9F8002819
:1046F00022D106AB81269846644C08AD76428021D3
:10470000012009064042FEF775FFC30616D4830652
:104710006FD4430642D403060FD521008020FEF754
:104720006BFF0028EBD121688B1C00DA94E0002994
:1047300000DB95E000218BE0FEE7FEE72100102082
:10474000FEF75AFF0028DAD121688B1C00DA9CE0C2
:104750000029EFDB00D098E023696068082B00D0C7
:104760007BE0A769042F78D1626991462A00FEF7A1
:1047700045FF082871D13B00424602216068FEF7E0
:104780003DFF042869D1069B01934B460093A06826
:10479000089A099B00F0C6F8010059E0210040206A
:1047A000FEF72AFF0028AAD121688B1C6CDB0029A8
:1047B000C0DB69D123696068082B63D1226A0C2AA7
:1047C00060D14246FEF71AFF08285BD1069A079B84
:1047D0000095A06800F094F9071E05D101000C2394
:1047E0002A006068FEF70CFF39006068FEF70AFFD8
:1047F00085E721002020FEF7FFFE002800D07EE79D
:1048000021688B1C2BDB002994DB28D1236960688D
:10481000082B22D16769042F1FD1226A91462A00F2
:10482000FEF7ECFE082818D13B0005AA01216068BC
:10483000FEF7E4FE042810D1434602934B46019351
:10484000059B0093A068089A099B00F0F5F8010009
:104850006068FEF7D7FE52E7FEE73100F8E7FEE7B3
:104860000029F9D123696068082BF6D12A00FEF7E8
:10487000C5FE0828F1D1089A099BA06800F06EF9DE
:104880000100E5E73700AFE7FEE7FEE760C200089A
:1048900010B50B000349020048680121FEF7AEFE87
:1048A00010BDC04660C2000810B50B0003490200ED
:1048B00048680021FEF7A4FE10BDC04660C2000893
:1048C00010B5002000F07EF9144C0100200000F02B
:1048D000FDF900280BD0200000F0FEF9002800D0E0
:1048E00010BD00F06FF90100200000F0EFF9012089
:1048F00000F068F90A4C0100200000F0E7F90028F8
:10490000EED0200000F0E8F90028E9D1013000F0F5
:1049100059F90100200000F0D9F9E1E790C600083C
:10492000A4C60008F0B5DE4657464E46454611007F
:10493000E0B5194385B0002900D16DE007210F9C37
:104940008C4366D10393374B0292984602AA01C367
:1049500012CA12C380235B00984257D0324B99464B
:10496000324C41462200484600F02AFA071E42D146
:10497000A368DB0753D44146484600F0B1FA071E4E
:104980003CD180230E9EDB009E4200D91E00284BA6
:1049900031009A461800FFF77BFF534601930F9BA7
:1049A0000E9A009341463300484600F099F9071EDD
:1049B00024D10E9B9C1B03D120E07619641B1DD0D3
:1049C00080232500DB009C4200D91D0029005046B1
:1049D000FFF75EFF53462A000093414633004846E6
:1049E00000F014FA83460028E7D04146484600F01C
:1049F00077FA5F4602E003008C33C2D0380005B07E
:104A00003CBC90469946A246AB46F0BD094B994640
:104A1000A6E786277F42F1E787277F42EEE78527D3
:104A20007F42EBE7B8C6000890C60008C4C600087D
:104A300090C20008A4C60008F0B54E46DE465746B0
:104A400045461100E0B585B00E9E19434AD0039348
:104A5000264B0292994602AA01C312CA12C38023AE
:104A60005B0098423BD0224B9A46224C494622009A
:104A7000504600F0A5F9071E27D12468B44231D36F
:104A80000F9BA41B9C4228D8109B1C601A4B984675
:104A90008023DB009B4606E029004046FFF704FF29
:104AA0007619641B11D025005C4501D98025ED00E5
:104AB00043462A00009349463300504600F096FAD8
:104AC000071EE9D00023109A1360380005B03CBCE3
:104AD00090469946A246AB46F0BD1C00D4E7074B72
:104AE0009A46C2E787277F42EFE7C046B8C600086C
:104AF00090C60008C4C6000890C20008A4C60008FA
:104B0000110070B582B0069C19431BD00F49019368
:104B10000B0000926A4601C360CA60C380235B0039
:104B200098420DD00A480B4D2A0000F049F90028A0
:104B300004D12B6823606360AB68A36002B070BDD2
:104B40000548F0E787204042F8E7C046B8C60008AD
:104B500090C60008C4C60008A4C60008110070B5BD
:104B6000194382B0002922D0124C019323000092F5
:104B70006A4601C322CA22C380235B00984211D037
:104B80000D4E0E4D21002A00300000F019F90028CA
:104B900006D1AB68DB0707D42100300000F0A0F994
:104BA00002B070BD064EECE785204042F8E7872052
:104BB0004042F5E7B8C6000890C60008C4C6000821
:104BC000A4C6000810B5044B8000C4582000236818
:104BD0009847200010BDC046905D0010F0B54E46CD
:104BE0004546DE465746E0B5C3B04D9D06008B46B0
:104BF00090469946002D29D080235B009A4610E00C
:104C00000094434602AA59463000F768B847002886
:104C100015D14C9BA0449C46A44463462D1B4C9349
:104C200014D02C00554501D98024640000944C9B7D
:104C300002AA49463000B768B8470028E0D043B020
:104C40003CBC90469946A246AB46F0BD0020F6E734
:104C500010B5040082B01C3001A928F009FA618C5B
:104C60000198FDF751FB238DA084002B0AD0638DA2
:104C7000002B02D128F03EFA6085200000F0EAF90E
:104C800002B010BD28F01EFA2085F0E710B5040030
:104C900082B01C3001A928F045FA618C0198FDF71B
:104CA00033FB238DA084002B0BD0638D002B03D10D
:104CB00028F07AFA03306085200000F0CBF902B0CA
:104CC00010BD28F059FA28302085EEE710B50160B4
:104CD00000F05AFB10BDC04610B500F0DFFD10BD5E
:104CE000F0B54746CE4680B59946036891B01B8D16
:104CF00004008846170093425FD304AA00F0C8FA64
:104D000000285AD004AB05AE08AD00930296019579
:104D1000189B3A004146200000F0C4FC002844D112
:104D20004B46002B1FD04A460021E86800F0A8FF40
:104D300000283FD1199B2A0001934B463100009374
:104D40002000002300F020FA002833D14B462968C8
:104D500020003768AB6000F095FA2A6830603900AF
:104D6000200000F0DDFE32000899200000F0DCFE9B
:104D700000281FD12A000499200000F069FF0028B4
:104D800018D10499200000F045FA002812D12B68B0
:104D9000002B02D14B46002B04D1200000F0B0FBC9
:104DA000002807D1200000F07BFB11B00CBC90461E
:104DB0009946F0BD84204042F7E787204042F4E75F
:104DC00070B58CB0150003AA04000E0000F060FA64
:104DD000002817D1200004AA039900F0D9FB041E73
:104DE0000DD10C2209A93000FBF77EFC002809D167
:104DF000079B6B60069B01932B60089BAB602000B8
:104E00000CB070BD8C246442F9E7C04670B590B018
:104E1000160004AA04001D0000F03AFA00285BD135
:104E200008AA0499200000F0B3FB002854D105AA79
:104E30000899200000F0FCFB00284AD10A9B03934C
:104E40009D4246D80B9B320029001800039300F0C6
:104E500017FF00283DD1149B0096019308AA2B0050
:104E600005A9200000F090F9002832D10A9BAD1965
:104E700003939D4226D808992000059D00F002FA70
:104E8000089A05902900200000F04AFE05AA08991A
:104E9000200000F049FE00281BD108AA0499200038
:104EA00000F0D6FE002814D10499200000F0B2F9D9
:104EB00000280ED1089B002B06D1200000F0F0FA4C
:104EC00010B070BD0A95D6E7200000F019FB00284D
:104ED000F3D084204042F3E78C204042F0E7C04604
:104EE000F0B54646D6464F46C0B503688EB005AA13
:104EF00005005E8C00F0CCF9002800D070E006AA16
:104F00000599280000F044FB002805D00EB01CBC19
:104F100090469946A246F0BD0BA800F0BDFE0028C1
:104F20005ED1079B20229846099B002106A8069F78
:104F30009946FBF704FC06AA0599280000F088FEB4
:104F40000028E3D12B685B8D002B30D00022002499
:104F500092460BE006AA2100280000F079FE002806
:104F6000D4D12B685B8D0134A34222D9059AA24289
:104F7000F9D006AA2100280000F00AFB0028C5D1BC
:104F8000069B0393BB42E5D10BA800F085FE0028E9
:104F9000E0D1079B4345DDD99E4200D91E004A4619
:104FA0009B1A0793099B9C460393E244D2E7002394
:104FB0009A465346019343464A46009339003300CC
:104FC000280000F06BF80028A0D1002F04D02800A2
:104FD00000F096FA002806D1280000F061FA95E763
:104FE0008C20404292E7842040428FE7F0B58FB09A
:104FF000170005AA04000D001E0000F049F9002862
:1050000025D106AA0599200000F0C2FA00281BD17C
:105010000C220BA92800FBF767FB002817D1089B7F
:105020003A0031001800039300F02AFE002801D056
:105030000FB0F0BD149B3200009306A93B00200086
:1050400000F086F80028F3D084204042F0E78C205E
:105050004042EDE710B5838C012B12D9032B10D001
:10506000418D448C4901022B0DD0008D023B5A002A
:10507000D3189B0008315B18A34203DCA0420BD974
:10508000FEE7FEE7FEE70B00008D1433E31A9842BB
:1050900001DC0123EBE7FEE710BDC046F0B5C646D4
:1050A00000B588B0170005AA05000E00984600F06C
:1050B000BFFA041E04D0200008B004BC9046F0BD26
:1050C000079B31009C46280067440393079700F034
:1050D000D9F80F9B0700002B23D1069A0E9B059948
:1050E0009A4212D33200280000F01AFD05AA3100BE
:1050F0002800059700F018FD041E23D1002EDAD0F9
:105100002868036998470400D5E7981A01900B00B6
:10511000009239002868FFF761FD00280FD105993A
:10512000E0E7059B010003930F9B0E9A0193434612
:1051300028680093039BFFF751FD0028CDD08424FD
:105140006442B8E732003900280000F0E9FCB2E719
:10515000F0B587B00D001400096803AA06001F000F
:1051600000F066FA00280BD103994B1C08D0306878
:105170006B680097E3180C9A8468A04707B0F0BDED
:1051800084204042FAE7C046F0B54746CE461600B6
:1051900080B50F0083B011681C00050000F072F8A4
:1051A00073687A689C466444A31A0193009280460F
:1051B00001003B682868FFF711FD00280AD10A9B0F
:1051C00028680093C3680B9A994641462300C84754
:1051D000002804D003B00CBC90469946F0BDF1689D
:1051E00073688C4663441A002968B868498C3B6828
:1051F000091A891A0191009241462868FFF7EEFCCE
:105200000028E7D13368002BE4D028680369984769
:10521000E0E7C046F0B507000569C668006883B0DE
:10522000838C022B20D0023B5A00D2189200083205
:105230004C010194009233002900FFF7CFFC0028B5
:1052400010D13F68B98C022919D002394B00591886
:10525000890022007B8D28325B01083352185B18CD
:10526000934203D803B0F0BD1422E1E79B1A0193E7
:105270000092330029003800FFF7B0FCF2E70C2160
:10528000E7E7C046002901D0406870470069FCE7A5
:10529000F0B545464E46DE465746E0B50500006887
:1052A0008DB0438D89469046002B67D00024202680
:1052B00042E02B68049A9B8C022B5AD0023B9A4204
:1052C0004BD209A800F0E8FC002829D12868079AE9
:1052D000038D9A4241D8069B03939A423DD3049B87
:1052E00005990393002B16D1438D9B46838C9A46D8
:1052F000022B40D002235B429C46E24453465B00B3
:105300009C46D44463469B009C465B465B01083345
:105310006344994221D3408C00F0B2FC00281CD198
:105320000C22494609A8FBF7DFF9002829D0286894
:105330000134438DA34221D9818C022917D002392F
:105340004B00591889006301009608335B18876881
:1053500004AAE968B847071EABD084277F4238000B
:105360000DB03CBC90469946A246AB46F0BD0C2120
:10537000E9E70123A3E70C239C46C6E78C277F427D
:10538000EDE743461C60EAE7F0B50400006887B02B
:1053900043689847002801D007B0F0BD0825206871
:1053A00000958668002302AA0021B047002817D084
:1053B00020688668082304AA009301210023B047CF
:1053C00000280AD16B461B7D012B06D16B465A7D06
:1053D0002C232068C35C9A4239D184204042DBE709
:1053E0006B4620681B7B8668012BE3D16B462C271C
:1053F0005A7BC35D9A42DDD00095002304AA0121A7
:10540000B047002826D0012300212068236108230B
:105410000093E160221D85680023A8470028DCD1A5
:10542000237A012BD9D120682B33627AC35C9A424C
:10543000D3D04369216998470028ADD123689A8C5D
:10544000022AA9D961685A6918009047A4E7002385
:105450000121DBE76B46197D012904D02368180080
:1054600000210123D2E76B4620685A7DC55D030009
:105470009542F4D06B465D7B002A09D10023012DB3
:10548000C4D1954289410023494295425B41BDE721
:10549000002DF6D1531E594259415A1E9341B5E78A
:1054A0002C2230B5437A04000133DBB2437200682A
:1054B00083B0825C9A4201D1002363720823009377
:1054C000221DC56800232169A847002804D120684F
:1054D00003699847002801D003B030BD2369E16813
:1054E0002068E3602161436998470028F4D123686C
:1054F0009A8C022AF0D961685A6918009047EBE744
:105500000C2330B5040089B0006800938568043B23
:1055100005AAE168A847002823D1236805999A8C39
:10552000914230D2079A0292069A0392588C029ABC
:10553000039900F0A5FB002825D1059B00220293CA
:10554000012B10D9069B029393421CD12068E3687B
:105550002169448C079DA41A641B01940092FFF7F3
:105560003DFB09B030BD2368998C5A8D02290DD0BE
:1055700002394B005B189B0052010832D218069B7F
:1055800002939342E2D098204042EAE70C23F3E7EB
:1055900070B5050000681400828C82B0022A3ED0EB
:1055A000023A53009A18920049010B0008339B18E5
:1055B0002022009286682200E968B047061E2BD19F
:1055C0002B6822689B8C022B2BD0023B9A422CD258
:1055D0002000143000F060FB00281DD12868E2682C
:1055E000038D9A4221D8A3689A421ED3236861682A
:1055F000002B0CD1848C438D022C14D0023C65000E
:105600002C19A4005B0108331B198B420DD8408C68
:1056100000F036FB002808D1300002B070BD0C222B
:10562000C2E70123D2E70C24ECE798267642F3E7A1
:1056300070B514000C2205004B0082B000685B18A6
:1056400000929B00083386682200E968B047002872
:1056500012D12B6821689A8C91421ED2588CA26874
:10566000616800F00DFB002817D122680023012A91
:1056700004D962689A4210D102B070BD2A68918C38
:10568000538D02290CD002394A00521892005B0156
:1056900008339B1862689A42EED098204042EBE7AC
:1056A0000C22F4E7F0B557464E46DE464546E0B5D7
:1056B0008DB00393169B04009B460C2302919146E8
:1056C000189D0068082700269A461DE020682A6871
:1056D000838C9A4200D3B0E0AA68408C696800F0DD
:1056E000CFFA021E206800D0A7E029680023012914
:1056F00000D892E06968994200D09EE0AB680C3710
:10570000994500D8A2E00136838C022B00D178E0C5
:10571000023B9E4200D378E05346009383682A0000
:105720009846E1683B00C0470028CFD084235B4205
:1057300098462068438D002B55D008250026202749
:1057400041E02368049A9B8C022B64D0023B9A426E
:1057500049D209A800F0A0FA002829D12068079AA8
:10576000038D9A423FD8069B02939A423BD3049BF7
:1057700005990293002B16D1438D9A46838C994646
:10578000022B60D002235B429C46E1444B465B0007
:105790009C46CC4463469B009C4653465B010833C1
:1057A00063448B421FD8408C00F06AFA00281AD15B
:1057B00009A800F071FA002864D120680136438DF1
:1057C00020359E420FD2828C022A22D0023A530008
:1057D0009B189B0000978268EB189146E16804AA29
:1057E000C8470028ADD05A462B4B13608E235B422E
:1057F000984640460DB03CBC90469946A246AB4602
:10580000F0BD01239E4200D286E78E235B4298467C
:1058100090E70C23DEE7012399E7818C438D022971
:105820000FD002398C464900614489005B0108337E
:105830005B186968994200D160E784235B4298460F
:1058400078E70C21F2E70C239C46A6E79046179ACE
:1058500002991660428CD31A179A536013004A4675
:105860001800DA6014300C22FAF74DFF0023179A63
:10587000206893601300039A1A614A46AB689B1A2A
:10588000AB6057E75B461E604346002BAED1024B30
:105890009E42AED1AAE7C046FFFF0000F0B54E46DB
:1058A0004546DE465746E0B508258FB0040000683F
:1058B00000958668002303AA0021B047002800D085
:1058C000E3E06B4620681B7C8668012B00D1DFE09B
:1058D00006AB994608234A46009301210023B047AE
:1058E000002800D0F3E04B461B79012B00D0EEE0FE
:1058F0004B462C2221685B798A5C9A4200D1E6E013
:1059000000250122E260256120682900436998474B
:10591000071E00D0B1E001262900206871404369CC
:105920009847071E00D0A8E060722068838C428DE3
:10593000022B00D1C5E002216160991E4B0059186D
:1059400026722661E76089005201130008335B1854
:105950000493428C0121D31A0593002303930C3343
:105960000093C568043B03AAA847071E00D084E043
:10597000256804906B8C0593AE8C022E00D19AE0C2
:1059800003239846032E13D06B692800414698479D
:1059900025680743AE8C022E07D043469A1E01238A
:1059A0009C46F31EE0449A42EED3002F00D090E0D4
:1059B00014239A46083B00279B4615E0F31E9F429E
:1059C00016D2FB1C03935B460093EE68534603AA72
:1059D00041462800B0470C239C460137E24400288A
:1059E00000D06BE02568AE8C23699846022EE5D185
:1059F000202200214846FAF7A2FE6B8D002B1FD013
:105A0000202300279A4617E0023E73009E19B60035
:105A100052467B01009208339B194A46EE68414684
:105A20002800B047002849D12369256898466B8D26
:105A30000137BB4204D9AE8C022EE5D10C26E7E734
:105A40002C22637A0133DBB26372AA5C9A4201D1E1
:105A50000023637208230093221DEE680023414651
:105A60002800B047002829D1206803699847071EFD
:105A700003D12369E268E360226138000FB03CBCC7
:105A800090469946A246AB46F0BD206886681FE75F
:105A90006B462C275A7CC35D9A4200D118E706ABAF
:105AA0009946009500234A460121B047002813D0AB
:105AB0000125002226E72369984699E784277F423B
:105AC000DBE7666026722661E7600C213CE7002573
:105AD0001AE792277F42D0E74B461A79012AE7D18D
:105AE00021685B79C95D994216D06946487C002BD4
:105AF0000AD10025012800D004E7984292410025F0
:105B0000524298426D41FDE60028F6D15D1E6A4280
:105B10006A416B1E9D41F5E615000022F2E6C04683
:105B2000002A00D041607047F0B5CE4647460400D9
:105B300080B500680D0089B02169C668002D23D1A9
:105B40000C23116021690093043BB04700286AD1FF
:105B50002769E66820686B1C5D00ED18AD002A001F
:105B6000818C0832022961D002394B005B189B00FE
:105B70005D1B0195009233003900FFF72FF809B043
:105B80000CBC90469946F0BD0C276B005B199B003E
:105B9000984600970833B946B047002843D14B4692
:105BA000206800938368E668994605AA08233100B7
:105BB0002769C847002836D1236805999A8C9142F5
:105BC00031D2079A0292069A0392588C029A03994C
:105BD00000F056F8002826D1059B0293029A002374
:105BE000012A25D9069A02929A421CD10C232068D8
:105BF0000093C3680597994605AA08232169C847F9
:105C0000002810D12068012DA5D943460C3B0193F3
:105C100014231422009339003300FEF7DFFF00281D
:105C2000ADD1206897E784204042A8E70C239FE786
:105C30002268538D928C022A07D0023A51008A18AA
:105C400092005B0108339B18CCE70C22F9E7C046B1
:105C500030B50500006883B0848C022C0ED0023C65
:105C600063001C19A40049010B0008331B192024F0
:105C700000942969C468A04703B030BD0C24F2E742
:105C8000814205D8401A904280418623984370474C
:105C900087204042FBE7C0460378002B24D143789D
:105CA000002B21D18378002B1ED1C378002B1BD170
:105CB0000379002B18D14379002B15D18379002B60
:105CC00012D1C379002B0FD1037A002B0CD1437A68
:105CD000002B09D1837A002B06D1C07A4342584168
:105CE0008B234042984300E000207047836910B541
:105CF0009B6800209847431E984191234042984357
:105D000010BDC04610B50C001100428C5443C2694E
:105D1000944682696344E31818005469029AA047C4
:105D2000431E984191234042984310BD10B50C008A
:105D30001100428C5443C269944682696344E3185B
:105D400018009469029AA047431E9841912340424B
:105D5000984310BD0020704770B50400408C0E00C1
:105D6000002813D0002504E0238C608CED18A84295
:105D70000CD9E36970439C46A36960444019DB6910
:105D800098470028F0D09220404200E0002070BDEB
:105D900000C2000830C2000800000000000000003F
:105DA000024A034BD358036000207047C04D0108DE
:105DB00004140000F0B5DE4657464E464546E0B5B1
:105DC000A9B000F00DF9002806D029B03CBC9046DF
:105DD0009946A246AB46F0BD80217D48090202F0FB
:105DE00047FA07F055FD002875D105F0F3FC0028AF
:105DF000EBD112AB1800282200219846FAF79FFC3D
:105E000001235B429B46734C0AAD802101200906A9
:105E10004042FDF7EFFB102318425AD01CA918008E
:105E2000FDF7EAFB002855D11C998B1C56DB002995
:105E300055DB53D1282342461D98FDF7DFFB282868
:105E400059D05B4601334FD02022002102A8FAF737
:105E500076FC202200212800FAF771FC042701E0DB
:105E6000171E41D01CA98C467A1E930063441B69FF
:105E7000002BF5D0434602932823039321AB994688
:105E8000A0235B0101269A46BE423FD24B46032126
:105E90001B685046DA1C8A4351466158401A8242B8
:105EA0005DD81D98521801906018514600906250BC
:105EB000020031000198FDF7A1FB02AA4946944671
:105EC0000098F300D05004C9634489465A600136F3
:105ED000DAE7FEE7FEE79320404276E7FEE70100BF
:105EE0001D98FDF78FFB90E784277F4239001D98AE
:105EF000FDF788FB89E743461B689B463F2BA3D9E8
:105F0000012384275B429B467F42EFE7042101E0A7
:105F1000111E33D01CA884464A1E930063441E6A97
:105F2000002EF5D0A0267601A2590023B146009795
:105F30008C4608E0A7181218D8002F5001332818F3
:105F40004160634517D01CA882460327990051443D
:105F5000096AC81CB8434F46BF1AB842EAD9A02202
:105F600000218D271C4B52012000A150E1507F429F
:105F7000FAF7E5FBBAE7A2511E00009F1E9B39000D
:105F80000093009A144B02A8E2505B46134A9B0010
:105F9000D3582A0099463300C8470023B14607006A
:105FA0001E004E4509D0F200AB1831005B68AA58BC
:105FB0001D98FDF725FB0136F3E7A0220021064BD3
:105FC00052012000A150E150FAF7B9FB8EE7C0461C
:105FD000C0CD0008C04D010804140000CCD8011049
:105FE000892210B5520100210248FAF7A8FB0020CF
:105FF00010BDC046C86101080023F0B583B006009B
:1060000001A80D0014000193FFF7CAFE00282AD151
:106010002B68002B58D1002C59D02E4B20601968CA
:10602000002922D0892292009A58002A30D0892251
:10603000D2009A58002A2FD0274A9A58002A2FD0E7
:10604000892212019A58002A2ED0244A9A58002AEE
:106050002ED0234A9A58002A2ED0224A9A58002A33
:106060002ED08520404203B0F0BD012294460A01A3
:106070005218D200521801219200019F995099188C
:106080004F608E6061460C329B1829602360EAE7FE
:10609000022201219446EAE7032202219446E6E720
:1060A000042203219446E2E7052204219446DEE718
:1060B000062205219446DAE7072206219446D6E710
:1060C000083207219446D2E789204042CBE7872057
:1060D0004042C8E7C86101086C060000B40A00002D
:1060E000D80C0000FC0E0000F0B5C646002300B539
:1060F00082B00568804601A80193FFF751FE071E94
:1061000028D1013D072D2AD82C016019C000154E59
:10611000401980003358012B21D133185A68019956
:106120008A421CD19B680C30013B30180022032BA3
:1061300002D80D4A9B009A580021FAF700FB002371
:1061400042466419E4006519AD0073517519AB60DE
:106150006B601360380002B004BC9046F0BD872726
:106160007F42F7E7C8610108CCD90110002370B560
:1061700082B0050001A80E0014000193FFF710FE85
:10618000002816D1013E072E15D831018919C90002
:106190000A4A891989008B58012B0CD153189E6823
:1061A000AE4208D15B68019DAB4204D10C31891825
:1061B000216002B070BD89204042FAE7C861010841
:1061C000F0B5CE4647461400002280B583B0019258
:1061D00001292AD1022B28D14368282B25D16368B5
:1061E000042B22D103682768DE68A36801AA9846B9
:1061F000E36831003E6001209946FFF7B7FF051EB6
:1062000005D0280003B00CBC90469946F0BD230091
:106210003E600C334A464146019804F055FB051E8A
:10622000EFD03800FFF760FFEBE782256D42E8E72B
:10623000F0B5002483B00194022921D1012B1FD194
:106240004368282B1CD15368042B19D103681568A7
:10625000D9688668C76801AA29600120FFF786FF10
:10626000041E02D0200003B0F0BD3A0031000198B6
:1062700004F008FB041EF5D02800FFF735FFF1E716
:1062800082246442EEE7C046F0B5002483B0009457
:1062900001292AD1012B28D15368042B25D1436829
:1062A000282B22D103681668D9689F680191DD8880
:1062B0000021280000F068FB041E02D0200003B07B
:1062C000F0BD6A4601A90120FFF796FE041EF5D134
:1062D000019B3A0033602900009804F0C9FA041EBB
:1062E000ECD03000FFF700FFE8E782246442E5E7E6
:1062F000F0B5002483B0009401292AD1012B28D1C4
:106300005368042B25D14368282B22D103681668D3
:10631000D9689F680191DD880021280000F034FBD6
:10632000041E02D0200003B0F0BD6A4601A901207E
:10633000FFF762FE041EF5D1019B3A00336029008D
:10634000009804F09AFA041EECD03000FFF7CCFE5F
:10635000E8E782246442E5E7F0B5D6464F46464674
:1063600014000022C0B584B00392022930D1022B60
:106370002ED14368282B2BD16368042B28D10368C6
:106380002668D968C36887689846A368012099463B
:10639000E3683160E26003AA9A46FFF7E7FE051E54
:1063A00006D0280004B01CBC90469946A246F0BD19
:1063B00053460C34009301944B46424639000398EF
:1063C00004F0AEFA051EECD03000FFF78DFEE8E7D2
:1063D00082256D42E5E7C046F0B5C64614000022AE
:1063E00000B582B0019201292CD1022B2AD1436839
:1063F000282B27D16368042B24D103682668D96829
:10640000E368A76801203160E26001AA9846FFF7BF
:10641000ADFE051E04D0280002B004BC9046F0BDBD
:10642000230042460C333900019804F0ADFA050010
:106430003000002D03D1FFF757FE0500EBE7FFF713
:1064400053FEE8E782256D42E5E7C04630B50024FB
:1064500083B00194012922D1012B20D14368282B3C
:106460001DD15368042B1AD103681568D96801AA95
:1064700029600120FFF77AFE002802D0200003B037
:1064800030BD019804F01EF904002800002C03D14F
:10649000FFF72AFE0400F1E7FFF726FEEEE782246D
:1064A0006442EBE7862040427047C0468620404267
:1064B0007047C04670B5002482B00094012923D1F2
:1064C000012B21D15368042B1ED14368282B1BD1EB
:1064D00001681568CB688E6801936A462B6001A934
:1064E0000320FFF789FD041E02D0200002B070BD1A
:1064F000019B31002B60009803F0A6F9041EF4D034
:106500002800FFF7F1FDF0E782246442EDE7C04682
:10651000F0B5002483B00194022921D1012B1FD1B1
:106520004368282B1CD15368042B19D103681568C4
:10653000D9688668C76801AA29600320FFF716FE9C
:10654000041E02D0200003B0F0BD3A0031000198D3
:1065500003F0BCF9041EF5D02800FFF7C5FDF1E7F4
:1065600082246442EEE7C046F0B5C646140000221D
:1065700000B582B0019201292CD1022B2AD14368A7
:10658000282B27D16368042B24D103682668D96897
:10659000E368A76803203160E26001AA9846FFF72C
:1065A000E5FD051E04D0280002B004BC9046F0BDF5
:1065B000230042460C333900019803F091F905009D
:1065C0003000002D03D1FFF78FFD0500EBE7FFF74B
:1065D0008BFDE8E782256D42E5E7C046F0B5002473
:1065E00083B00194022926D1012B24D14368282BA2
:1065F00021D15368042B1ED103681568D9688668B9
:10660000C76801AA29600320FFF7B0FD041E02D06D
:10661000200003B0F0BD3A003100019803F0B2FB56
:1066200004002800002C03D1FFF75EFD0400EFE713
:10663000FFF75AFDECE782246442E9E730B5002415
:1066400083B00194012922D1012B20D14368282B4A
:106650001DD15368042B1AD103681568D96801AAA3
:1066600029600320FFF782FD002802D0200003B03C
:1066700030BD019803F09AF804002800002C03D1E3
:10668000FFF732FD0400F1E7FFF72EFDEEE782246D
:106690006442EBE730B5002483B0009401940129F3
:1066A00024D1012B22D14368282B1FD15368042BFE
:1066B0001CD103681568D9686A460320FFF756FDA8
:1066C000041E02D0200003B030BD01AA290003201F
:1066D000FFF792FC041EF5D10199009803F072FBBC
:1066E000041EEFD02800FFF7FFFCEBE78224644292
:1066F000E8E7C046862040427047C04686204042B8
:106700007047C046F0B5C646002400B582B000947C
:1067100001292FD1012B2DD15368042B2AD1436895
:10672000282B27D105680021EB6817680193EE88B4
:10673000AB683000984600F027F9041E04D0200012
:1067400002B004BC9046F0BDEB686A463B6001A90C
:106750000220FFF751FC041EF1D1019B42463B6031
:106760003100009803F078FC041EE8D03800FFF7F1
:10677000BBFCE4E782246442E1E7C046F0B5C646CC
:10678000002400B582B0009401292FD1012B2DD116
:106790005368042B2AD14368282B27D10568002190
:1067A000EB6817680193EE88AB683000984600F0FC
:1067B000EBF8041E04D0200002B004BC9046F0BDEB
:1067C000EB686A463B6001A90220FFF715FC041E36
:1067D000F1D1019B42463B603100009803F041FC3F
:1067E000041EE8D03800FFF77FFCE4E7822464420F
:1067F000E1E7C046F0B5002483B00194022921D11D
:10680000012B1FD14368282B1CD15368042B19D1AD
:1068100003681568D9688668C76801AA29600220DC
:10682000FFF7A4FC041E02D0200003B0F0BD3A0024
:106830003100019803F01AFC041EF5D02800FFF780
:1068400053FCF1E782246442EEE7C046F0B5C64649
:106850001400002200B582B0019201292CD1022B34
:106860002AD14368282B27D16368042B24D10368DD
:106870002668D968E368A76802203160E26001AA4F
:106880009846FFF773FC051E04D0280002B004BC34
:106890009046F0BD230042460C333900019803F0C6
:1068A00015FC05003000002D03D1FFF71DFC05008D
:1068B000EBE7FFF719FCE8E782256D42E5E7C04604
:1068C000F0B5002483B00194022926D1012B24D1F4
:1068D0004368282B21D15368042B1ED10368156807
:1068E000D9688668C76801AA29600220FFF73EFCC4
:1068F000041E02D0200003B0F0BD3A003100019820
:1069000003F013FC04002800002C03D1FFF7ECFB7C
:106910000400EFE7FFF7E8FBECE782246442E9E7D5
:1069200030B5002483B00194012922D1012B20D15C
:106930004368282B1DD15368042B1AD103681568AE
:10694000D96801AA29600220FFF710FC002802D0B4
:10695000200003B030BD019803F05EFA0400280067
:10696000002C03D1FFF7C0FB0400F1E7FFF7BCFBED
:10697000EEE782246442EBE7862040427047C0463F
:10698000862040427047C046002330B583B00400E3
:1069900001A80D000193FFF703FA002800D07AE068
:1069A000554B9A79002A03D09A88A24200D17AE006
:1069B0009A7B002A03D09A89A24200D17DE09A7D79
:1069C000002A00D069E09A7F002A03D09A8BA24265
:1069D00000D186E026229A5C002A03D09A8CA2423B
:1069E00000D180E02E229A5C002A03D09A8DA24228
:1069F00000D17AE036229A5C002A03D09A8EA24215
:106A000000D174E03E229A5C002A02D09A8FA24202
:106A100055D046229A5C002A03D044229A5AA242B8
:106A20004FD04E229A5C002A03D04C229A5AA2429E
:106A300049D056229A5C002A03D054229A5AA24284
:106A400043D05E229A5C002A03D05C229A5AA2426A
:106A50003DD066229A5C002A03D064229A5AA24250
:106A600037D06E229A5C002A03D06C229A5AA24236
:106A700031D076229A5C002A03D074229A5AA2421C
:106A80002BD07E229A5C002A03D07C229A5AA24202
:106A900025D08820404203B030BD9A8AA24200D05F
:106AA00091E7022200E00022D1005B5801998B425D
:106AB0001FD1002DEFD02A60EDE70122F4E7072275
:106AC000F2E70822F0E70922EEE70A22ECE70B22C0
:106AD000EAE70C22E8E70D22E6E70E22E4E70F22C0
:106AE000E2E70322E0E70422DEE70522DCE70622F4
:106AF000DAE785204042CEE7E8720108304B9A7908
:106B0000002A3BD09A7B002A3CD09A7D002A3BD0B9
:106B10009A7F002A3AD026229A5C002A38D02E2268
:106B20009A5C002A36D036229A5C002A36D03E2261
:106B30009A5C002A34D046229A5C002A2CD04E223D
:106B40009A5C002A2ED056229A5C002A2CD05E2213
:106B50009A5C002A2AD066229A5C002A28D06E22EB
:106B60009A5C002A26D076229A5C002A24D07E22C3
:106B70009B5C002B22D08D20404270470023036095
:106B80000020FAE70123FAE70223F8E70323F6E7F8
:106B90000423F4E70523F2E70823F0E70623EEE7F2
:106BA0000723ECE70923EAE70A23E8E70B23E6E7F4
:106BB0000C23E4E70D23E2E70E23E0E70F33DEE7E3
:106BC000E872010830B583B0040001A80D00FFF79A
:106BD000E7F8002807D1054B019AE400E2500122B2
:106BE0001B199D809A7103B030BDC046E872010840
:106BF0000023F0B58BB0242206000F0001A800216D
:106C00000093F9F79CFD6846FFF7CAF8051E00D00F
:106C100089E0B64CA379002B04D0009B22689342F4
:106C200000D193E0A37B002B04D0A368009A934289
:106C300000D198E0A37D002B04D02369009A9342F1
:106C400000D19DE0A37F002B04D0A369009A93425A
:106C500000D1A2E02623E35C002B04D0236A009A33
:106C6000934200D1E1E02E23E35C002B04D0A36A21
:106C7000009A934200D1CBE03623E35C002B04D092
:106C8000236B009A934200D1A8E03E23E35C002BE3
:106C900004D0A36B009A934200D1ACE04623E35C9E
:106CA000002B04D0236C009A934200D188E04E233D
:106CB000E35C002B04D0A36C009A934200D1C1E0A6
:106CC0005623E35C002B04D0236D009A934200D13D
:106CD000C6E05E23E35C002B04D0A36D009A9342D0
:106CE00000D1CBE06623E35C002B04D0236E009A36
:106CF000934200D1D0E06E23E35C002B04D0A36E5E
:106D0000009A934200D1D5E07623E35C002B04D0B7
:106D1000236F009A934200D1DAE07E23E35C002BDC
:106D200004D18C256D4228000BB0F0BDA36F009AF2
:106D30009342F6D17C2301A9E05A02F0A3FB00287C
:106D4000EFD1039B9E42ECD10F2332E0A08801A932
:106D500002F098FB002800D064E7039B9E4200D01D
:106D600060E7002325E0A08901A902F08BFB002841
:106D700000D05FE7039B9E4200D05BE7012318E051
:106D8000A08A01A902F07EFB002800D05AE7039BED
:106D90009E4200D056E702230BE0A08B01A902F02F
:106DA00071FB002800D055E7039B9E4200D051E7BD
:106DB0000323002FB7D0DB00E418A3883B80B2E7A1
:106DC000442301A9E05A02F05DFB002800D06EE7E1
:106DD000039B9E4200D06AE70823EAE7A08E01A940
:106DE00002F050FB002800D04FE7039B9E4200D0EA
:106DF0004BE70623DDE7A08F01A902F043FB002843
:106E000000D04BE7039B9E4200D047E70723D0E723
:106E1000A08D01A902F036FB002800D02CE7039BCF
:106E20009E4200D028E70523C3E7A08C01A902F009
:106E300029FB002800D016E7039B9E4200D012E7F2
:106E40000423B6E74C2301A9E05A02F01BFB0028FB
:106E500000D035E7039B9E4200D031E70923A8E725
:106E6000542301A9E05A02F00DFB002800D030E7BE
:106E7000039B9E4200D02CE70A239AE75C2301A9DA
:106E8000E05A02F0FFFA002800D02BE7039B9E4255
:106E900000D027E70B238CE7642301A9E05A02F016
:106EA000F1FA002800D026E7039B9E4200D022E79B
:106EB0000C237EE76C2301A9E05A02F0E3FA0028D4
:106EC00000D021E7039B9E4200D01DE70D2370E711
:106ED000742301A9E05A02F0D5FA002800D01CE77B
:106EE000039B9E4200D018E70E2362E7E872010878
:106EF000862040427047C046862040427047C046C8
:106F0000F0B5CE46474680B583B0032955D1012B55
:106F100053D14368282B50D1C368242B4DD15368DB
:106F2000022B4AD113684A4C984600230193A37957
:106F3000856806694769002B42D0A37B002B59D096
:106F4000A37D002B59D0A37F002B5CD02623E35CCC
:106F5000002B5BD02E23E35C002B5AD03623E35C5E
:106F6000002B4DD03E23E35C002B55D04623E35C41
:106F7000002B54D04E23E35C002B53D05623E35C0C
:106F8000002B52D05E23E35C002B51D06623E35CE0
:106F9000002B50D06E23E35C002B4FD07623E35CB4
:106FA000002B4ED07E23E35C002B4DD08D20404241
:106FB00003B00CBC90469946F0BD82204042F7E7F2
:106FC0000023994601A8FEF7EBFE0028F0D14346C6
:106FD0003A003100280002F0EAFA0028E8D14B46D6
:106FE000019ADB00E250E41843461B88A38001238A
:106FF000A371DDE701239946E4E702239946E1E71F
:1070000006239946DEE703239946DBE704239946E6
:10701000D8E705239946D5E707239946D2E7082301
:107020009946CFE709239946CCE70A239946C9E751
:107030000B239946C6E70C239946C3E70D239946CF
:10704000C0E70E239946BDE70F239946BAE7C0462D
:10705000E872010810B5022916D1012B14D143683A
:10706000282B11D1C368042B0ED15368022B0BD1EE
:10707000836811681868C0231B06C218054B9A4222
:1070800005D800F05DFB10BD82204042FBE7862062
:107090004042F8E7FFFFFF3F70B582B0012900D002
:1070A000A3E0002B00D0A0E04268282A00D09CE09A
:1070B000026801A8D5880193FEF772FE002800D06F
:1070C0007EE0594CA379002B03D0A388AB4200D1BA
:1070D000A4E0A37B002B03D0A389AB4200D19FE0A7
:1070E000A37D002B03D0A38AAB4200D19AE0A37FFB
:1070F000002B03D0A38BAB4200D179E02623E35CC5
:10710000002B03D0A38CAB4200D173E02E23E35CB1
:10711000002B03D0A38DAB4200D16DE03623E35C9E
:10712000002B03D0A38EAB4200D167E03E23E35C8B
:10713000002B02D0A38FAB4262D04623E35C002B2E
:1071400003D04423E35AAB425CD04E23E35C002BD4
:1071500003D04C23E35AAB4256D05623E35C002BBA
:1071600003D05423E35AAB4250D05E23E35C002BA0
:1071700003D05C23E35AAB424AD06623E35C002B86
:1071800003D06423E35AAB4244D06E23E35C002B6C
:1071900003D06C23E35AAB423ED07623E35C002B52
:1071A00003D07423E35AAB420CD07E23E35C002B64
:1071B00004D07C23E35A0F26AB4204D088204042FF
:1071C00002B070BD0E268520F600A359019A4042F8
:1071D0009342F5D1280004F0B8FB0028F0D1002339
:1071E000A051A419A080A371EAE782204042E7E7FA
:1071F0000326E8E70426E6E70526E4E70626E2E7B5
:107200000726E0E70826DEE70926DCE70A26DAE7B4
:107210000B26D8E70C26D6E70D26D4E70026D2E7C2
:107220000126D0E70226CEE7E872010870B582B0E9
:10723000012900D0A3E0002B00D0A0E04268282A5A
:1072400000D09CE0026801A8D5880193FEF7A8FD54
:10725000002800D07EE0594CA379002B03D0A388EE
:10726000AB4200D1A4E0A37B002B03D0A389AB42A7
:1072700000D19FE0A37D002B03D0A38AAB4200D1B5
:107280009AE0A37F002B03D0A38BAB4200D179E01F
:107290002623E35C002B03D0A38CAB4200D173E028
:1072A0002E23E35C002B03D0A38DAB4200D16DE015
:1072B0003623E35C002B03D0A38EAB4200D167E002
:1072C0003E23E35C002B02D0A38FAB4262D0462367
:1072D000E35C002B03D04423E35AAB425CD04E2343
:1072E000E35C002B03D04C23E35AAB4256D0562329
:1072F000E35C002B03D05423E35AAB4250D05E230F
:10730000E35C002B03D05C23E35AAB424AD06623F4
:10731000E35C002B03D06423E35AAB4244D06E23DA
:10732000E35C002B03D06C23E35AAB423ED07623C0
:10733000E35C002B03D07423E35AAB420CD07E23D2
:10734000E35C002B04D07C23E35A0F26AB4204D02D
:107350008820404202B070BD0E268520F600A35959
:10736000019A40429342F5D1280002F051F80028DA
:10737000F0D10023A051A419A080A371EAE78220D4
:107380004042E7E70326E8E70426E6E70526E4E7C8
:107390000626E2E70726E0E70826DEE70926DCE71F
:1073A0000A26DAE70B26D8E70C26D6E70D26D4E71F
:1073B0000026D2E70126D0E70226CEE7E8720108D0
:1073C00010B501290DD1012B0BD14368282B08D111
:1073D0005368242B05D103681168D88802F052F84D
:1073E00010BD82204042FBE710B501290CD1012BD2
:1073F0000AD14368282B07D15368242B04D1106885
:1074000002F015F8002010BD82204042FBE7C04684
:1074100010B501290CD1012B0AD14368282B07D1C3
:10742000131D12CA0268D088220002F095F810BD20
:1074300082204042FBE7C046F0B5140083B001292A
:107440001AD1012B18D14368282B15D1036801A943
:10745000DD8816682800576800F052F9231D3A00AD
:107460003100002804D1280002F08BF803B0F0BDF1
:10747000019800F0D5F9F9E782204042F6E7C046CE
:10748000F0B5C64600B582B0022954D1012B52D1C5
:107490004368282B4FD15368022B4CD1C368242B4F
:1074A00049D103683F4CDE888368176898460023FB
:1074B0000193A379002B41D0A37B002B54D0A37D53
:1074C000002B53D0A37F002B54D02623E35C002B4A
:1074D00052D02E23E35C002B50D03623E35C002BEC
:1074E00046D03E23E35C002B4AD04623E35C002BCE
:1074F00048D04E23E35C002B46D05623E35C002BA0
:1075000044D05E23E35C002B42D06623E35C002B77
:1075100040D06E23E35C002B3ED07623E35C002B4F
:107520003CD07E23E35C002B3AD08D20404202B059
:1075300004BC9046F0BD82204042F8E7002501A837
:10754000FEF72EFC0028F2D13A004146300002F04E
:1075500059F80028EBD1019BED0063513B88641979
:10756000A3800123A371E2E70125E8E70225E6E70E
:107570000625E4E70325E2E70425E0E70525DEE745
:107580000725DCE70825DAE70925D8E70A25D6E745
:107590000B25D4E70C25D2E70D25D0E70E25CEE745
:1075A0000F25CCE7E8720108F0B583B002294FD16E
:1075B000012B4DD14368282B4AD1C368242B47D1D6
:1075C0005368022B44D100233C4C0193A3791668E5
:1075D0008768002B3FD0A37B002B51D0A37D002BCD
:1075E00050D0A37F002B51D02623E35C002B4FD03B
:1075F0002E23E35C002B4DD03623E35C002B43D0DD
:107600003E23E35C002B47D04623E35C002B45D0B0
:107610004E23E35C002B43D05623E35C002B41D088
:107620005E23E35C002B3FD06623E35C002B3DD060
:107630006E23E35C002B3BD07623E35C002B39D038
:107640007E23E35C002B37D08D20404203B0F0BD99
:1076500082204042FAE7002501A8FEF7A1FB00289E
:10766000F4D13100380003F0DFFF0028EED1019B98
:10767000ED00635133886419A3800123A371E5E70A
:107680000125E9E70225E7E70625E5E70325E3E726
:107690000425E1E70525DFE70725DDE70825DBE72A
:1076A0000925D9E70A25D7E70B25D5E70C25D3E728
:1076B0000D25D1E70E25CFE70F25CDE7E8720108AC
:1076C00030B504008BB00D002422002101A8F9F789
:1076D00036F801A9200001F0D5FE002808D0074C9B
:1076E000002D00D02C60200026F08AFC0BB030BDAD
:1076F00001A8039C01F09BFEF2E7C046FFFFFF7F5D
:1077000030B504008BB00D002422002101A8F9F748
:1077100016F801A9200001F0B5FE002808D0074C9A
:10772000002D00D02C60200026F078FC0BB030BD7E
:1077300001A8039C01F07BFEF2E7C046FFFFFF7F3C
:1077400030B5A5B004000D00242200210AA8F8F7E6
:10775000F6FF44232000099326F052FC002842D073
:1077600029002000FFF744FA002801D125B030BDE0
:1077700004A8FFF7C3F90028F8D106AA05A920003C
:1077800026F056FC0028F1D109AB009308AA13ABF0
:1077900007A9200026F07CFC0028E7D1059B07996B
:1077A0000D93069B0E93119B0393002B19D000237E
:1077B00000220AA801F046FE089B0C4A934200D919
:1077C0000B4B02AA138713A92B00099A0AA80C9441
:1077D00001F0EDFE0028C9D129880498FFF7F2F9DD
:1077E000C4E70A91E8E78C204042BFE7F8FF0000B9
:1077F000FFFF000010B584B0089C0294079C019420
:10780000069C009426F08CFC04B010BD10B582B02C
:10781000059C0194049C009426F0B4FC02B010BDB9
:1078200010B526F0DFFC10BDF0B5DE4657464E46DB
:107830004546E0B514008A1E8DB0012A3FD8012BC1
:107840003DD14368282B3AD105686B6AEE880B93CB
:107850008368AF689846C368994623689A46636808
:107860009B46032926D000230A9309930023002175
:1078700063603000FFF788F8002814D15B46059359
:10788000534604934B46039343462A0002930A9BB4
:1078900004340193099B1432009306940B9B390026
:1078A000300003F0BDF80DB03CBC90469946A246AE
:1078B000AB46F0BD0369099343690A93D6E782207A
:1078C0004042F0E7F0B5DE4657464E464546E0B545
:1078D00014008A1E8DB0012A3FD8012B3DD8436881
:1078E000282B3AD105686B6AEE880B938368AF68E2
:1078F0009846C368994623689A4663689B4603295D
:1079000026D000230A9309930023002163603000EE
:10791000FFF73AF8002814D15B46059353460493C9
:107920004B46039343462A0002930A9B0434019377
:10793000099B1432009306940B9B3900300003F02E
:10794000E1F80DB03CBC90469946A246AB46F0BD6E
:107950000369099343690A93D6E782204042F0E71E
:10796000862040427047C046862040427047C0464D
:10797000862040427047C046862040427047C0463D
:10798000862040427047C046862040427047C0462D
:10799000862040427047C046862040427047C0461D
:1079A000862040427047C046862040427047C0460D
:1079B000F0B5D6464F464646C0B5140086B00229FB
:1079C00031D1012B2FD14368282B2CD10368876834
:1079D000DD889E68C3680021984613682800994690
:1079E00053689A46FEF7D0FF002805D006B01CBCAD
:1079F00090469946A246F0BD05A92800FFF760FE13
:107A0000534601934B4604340093029443463A0094
:107A10003100002803D1280002F0BEFBE6E70598FC
:107A2000FFF7E8FEE2E782204042DFE7F0B5CE460E
:107A3000474680B585B003292DD1002B2BD1436853
:107A4000282B28D103688668DC889D680369C7688D
:107A500098464369002120009946FEF795FF0028CB
:107A600004D005B00CBC90469946F0BD03A9200097
:107A7000FFF726FE4B460193434632000093290050
:107A80003B00002803D1200002F08AFCE9E70398BC
:107A9000FFF7BCFEE5E782204042E2E7F0B54E4644
:107AA0004546DE465746E0B515008A1E95B00400EF
:107AB0000E00012A4CD8012B4AD14368282B47D10C
:107AC00003682422DF889B680021994683689A46D0
:107AD000C3680BA807932B689B466B689846F8F71A
:107AE0002EFE032E31D00024002600213800FEF7A0
:107AF0004BFF002806D015B03CBC90469946A246E4
:107B0000AB46F0BD0BA9380001F0BCFC0028F2D157
:107B100004AB9B8E0BA809930B9B089301F087FC89
:107B2000089A114B1340114A934214D043460393D1
:107B30005B4604350293049501940096079B5246D8
:107B40004946380002F0E0FCD5E726696469CCE7D5
:107B500082204042CFE7099B0733DB089845E5D2F6
:107B60008A204042C7E7C046FFFFFFEF00000160E8
:107B7000F0B5DE4657464E464546E0B514008A1E2F
:107B800089B0012A35D8012B33D14368282B30D155
:107B90000368C768DD889E688368079323689A46F0
:107BA00063689B4603291FD000239946984600210D
:107BB0002800FEF7E9FE00280FD15B4603935346E9
:107BC00002934B46019343460434009304943B00D4
:107BD000079A3100280002F00DFD09B03CBC904628
:107BE0009946A246AB46F0BD03699846436999465B
:107BF000DDE782204042F0E770B5002482B00094B7
:107C0000012927D1012B25D15368042B22D14368A8
:107C1000282B1FD103681668D9686A460191042091
:107C200001A99D68FEF7E8F9041E0AD1019B00989E
:107C300033600A4B9D4207D0290003F0E5FB041E88
:107C400004D1200002B070BD0560FAE73000FEF7F5
:107C50004BFAF6E782246442F3E7C046000F00B017
:107C600030B583B001291AD1012B18D14368282BD4
:107C700015D15368042B12D1002403681568D96804
:107C800001AA04200194FEF771FA002802D02C60AA
:107C900003B030BD2900019803F030F9F8E78220E5
:107CA0004042F5E710B582B0012914D1002B12D162
:107CB0004268282A0FD102680420D168146901AAF9
:107CC0000193FEF753FA002803D12100019803F035
:107CD0001FF902B010BD82204042FAE7F0B5C64657
:107CE00000B582B002293ED1002B3CD14268282A3F
:107CF00039D10268C7689688D168826804209046A6
:107D00006A460093FEF732FA041E0BD1009D1A4B0F
:107D10002A689A420BD03B0042463100280003F00B
:107D200099FB0400200002B004BC9046F0BD134B48
:107D30009E421BD101A8FEF733F8041EF2D13E1D6E
:107D40003100012000F0C4FAA861002811D00422FB
:107D500001A9F8F7D8FCAB693A00181D4146F8F7BD
:107D6000D2FCEE61DEE782246442DBE787246442D2
:107D7000D8E78D246442D5E7000F00B0010200006F
:107D800030B583B0012916D1012B14D14368282BBB
:107D900011D130CA036801AAD968002304200193D5
:107DA000FEF7E4F9002804D12A002100019803F02D
:107DB000BDF803B030BD82204042FAE770B582B012
:107DC00001291ED1002B1CD14268282A19D1026832
:107DD0000021D48896882000D5680193FEF7D4FD51
:107DE000002801D002B070BD01AA29000430FEF7BE
:107DF000BDF90028F6D122003100019803F031FBD3
:107E0000F0E782204042EDE7F0B585B002292DD1A0
:107E1000012B2BD14368282B28D1C368242B25D1D3
:107E20005368022B22D103688568D968002314683F
:107E3000042002AA0293FEF799F9002801D005B0A8
:107E4000F0BD03A8FEF75AFE0028F8D10299194B9D
:107E50000A689A420DD02200280003F085FA002813
:107E6000EDD121880398FEF7ADFEE8E7822040427D
:107E7000E5E72E8B0736F608402E18D8CB690F00A1
:107E80009C46D937FF378869002301960097002266
:107E9000614626F0EBF9002806D1230032003900B4
:107EA000280001F084FBDAE793204042C7E78D20E9
:107EB0004042C4E7000F00B070B582B001293BD149
:107EC000012B39D14368282B36D15368042B33D189
:107ED00003681668DC68002301AA0193210034605E
:107EE0000420FEF743F9002500280DD13460019CE1
:107EF000134B22689A420AD0200002F075FE051E3C
:107F000015D03000FEF7F0F8280002B070BDA0696F
:107F1000002806D0E2690021F8F711FCA06900F002
:107F2000DFF98622002192002000F8F708FC3000DB
:107F3000FEF7DAF80500E7E782256D42E4E7C04680
:107F4000000F00B0F0B5C64600B584B0022926D1B6
:107F5000002B24D14268282A21D10268C168D48824
:107F600087688846039300212000D5689688FEF72D
:107F70000BFD002803D004B004BC9046F0BD03AA5A
:107F800029000430FEF7F2F80028F4D1434622001D
:107F9000009331003B00039803F08AFAEBE782205C
:107FA0004042E8E710B5012908D1012B06D143680A
:107FB000282B03D103CA03F0CFFA10BD8220404220
:107FC000FBE7C04630B585B0022914D1012B12D190
:107FD0004368282B0FD104688568C368E188A068CE
:107FE000141D029454680194126800922A0003F050
:107FF000DDFA05B030BD82204042FAE70D4A016843
:108000000123914213D10C4AC16991420FD1826878
:108010009A420CD8C268002A02D001698A4206D06E
:108020004269131E03D083699B1A584243411800CA
:108030007047C04655AA00FF669911EE0F4B70B508
:108040009E680124002E0AD03000FFF7D7FF041EDF
:1080500012D1F368002B0FD13569002D01D120001A
:1080600070BD2800FFF7CAFF002805D1EB68B342B6
:1080700002D12E002D69F0E70124F0E768730108B2
:10808000F8B53B4E0C003368002B4FD0B368002B83
:108090004CD00D004543002848D0002915D00100E0
:1080A0002800FAF731F9A04240D12B1D3ED8032316
:1080B00029001D4201D099430431F46803E062684D
:1080C0008A4235D2A469002CF9D12000F8BDF360B2
:1080D0003DE00B002033E3189F60264F203A5A60A2
:1080E00022691F60244FDC601A61DF61002A00D022
:1080F000D360624658619A61002815D083619A69FD
:10810000002A00D053612361002301226361A3612F
:108110003369A2606160134223D120342A00002118
:108120002000F8F70CFBD0E7F360E8E70024CCE789
:10813000A768002F19D1A369521A60699C46232AA7
:10814000C7D80123A36063460028C0D08361A36918
:10815000002B00D0586100236361A3613369DB0702
:10816000DBD5FFF76BFF0028D7D00120F8F76EFAB8
:108170006873010855AA00FF669911EEF8B500284A
:108180005DD03A4E3368002B59D0B268002A56D0E1
:10819000834203D872689B18984202D30120F8F7F3
:1081A00055FA20380400FFF729FF0028F6D1A3680C
:1081B000012BF3D1E568A060002D14D0AB68002B33
:1081C0003ED163686A682033D3186B6023692B61E2
:1081D000002B00D0DD6027002000202200212C0091
:1081E000F8F7ADFA3D002069002835D08368002BF0
:1081F00032D16368426820339B1863606269036907
:10820000A1692361002A1DD1002921D14269816918
:108210006261A161002A1DD09461A269002A00D088
:108220005461002B00D0DC6020220021F8F787FA8F
:1082300033699B0703D5FFF701FF0028AED1F8BDD6
:108240000500D0E79161A1690029DFD04A61DDE72F
:10825000F160F8E7F460E0E7002DE9D1F368A3618D
:10826000002B00D05C61F460E2E7C046687301084F
:1082700070B5124E0D000400002114223000F8F7F2
:108280005EFA0F490F4800F033F8232D15D9032368
:10829000234003D0043DE41A5D1904342A00002170
:1082A0002000F8F74CFA084B7560B4603460236026
:1082B000064B203D6560E361F46070BD68730108A2
:1082C0007D8100108180001055AA00FF669911EE93
:1082D00010B5024B1B68984710BDC04680CD000802
:1082E00010B5024B1B68984710BDC04684CD0008EE
:1082F000024B1860024B00201960704780CD0008C7
:1083000084CD000810B50A1E03D0024B00211B6863
:10831000984710BD88CD0008030000B57F3304DA0C
:10832000FF234042DB011840404203006C334DD034
:1083300003006C3300DDC3E0984B984200D1ECE1C0
:1083400064DC974B984225D032DC964B984246D05D
:1083500016DC954B984200D1DFE10ADC934B984242
:108360004AD09723924A5B42904200D1E5E18423B0
:1083700011E0904B984200D1D5E08F4A9623F2E766
:108380008E4B984238D008DC8D4B984261D08D4B93
:108390009842ECD186235B42CFE18B4B98421ED0B2
:1083A0008A4B984255D08A4B9842E0D19223F2E70B
:1083B000884B98424DD014DC874B9842EAD007DCBA
:1083C000864B984245D0864B9842D0D18A23E2E72B
:1083D000844B984200D1A0E1834B9842C7D18D23B2
:1083E000D9E7824B984207D008DC814B984200D1F4
:1083F00093E1804B9842BAD19323CCE77E4B9842CD
:10840000EDD07E4B9842E1D07D4BC1E77D4B984249
:10841000C0D028DC7C4B98421BD010DC7B4B9842B0
:1084200017D007DC7A4B984202D07A4B98429ED103
:108430009723B0E7784B9842DED0784A9EE7784B96
:10844000984206D007DC774B9842C8D0764B9842CA
:108450008DD187239FE7754B9842FAD0744B984291
:10846000F7D0744BA0E7744B984293D012DC734B57
:108470009842EED008DC724B984203D0714B984280
:1084800000D074E7852386E76F4B984200D181E7DF
:108490006E4B7DE703007A33AED003007A3305DC00
:1084A0006B4B984200D138E16A4BA3E7030070336D
:1084B000A2D003006E33BBD0723000D057E769E71B
:1084C0000300293398D00300293300DDD0E00300F6
:1084D0003A3335D003003A3334DC03006033B8D08C
:1084E0000300603312DC03006633B2D0030066334E
:1084F00006DC03006A3300D171E76830A9D036E7A3
:1085000003006433A5D06230A3D030E703005133B9
:108510009FD00300513308DC0300563300D1FCE048
:10852000543000D023E7892335E70300403307D0D8
:108530000300403300DA1AE73D30012800D916E77E
:10854000942328E703003433FAD00300343316DCD5
:108550000300373300D14FE70300373307DC030054
:10856000393300D148E7383000D113E7FFE6030084
:10857000363300D10EE7353000D13DE7F7E6030092
:10858000313300D138E70300313365DC0300333386
:1085900000D131E7323000D1FCE6E8E680BCFFFFD5
:1085A00080AFFFFF809EFFFF009DFFFF009CFFFF4D
:1085B000809CFFFF809DFFFF009EFFFF80ADFFFFBF
:1085C000009FFFFF809FFFFF80AEFFFF00AFFFFF18
:1085D00000AEFFFF80B3FFFF80B1FFFF80B0FFFF61
:1085E00000B1FFFF00B2FFFF80B2FFFF80BAFFFFC4
:1085F00000B4FFFF80B4FFFF80BBFFFF00BCFFFFA4
:1086000000BBFFFF80C3FFFF80BFFFFF00BEFFFF77
:1086100000BDFFFF80BDFFFF80BEFFFF00BFFFFF6B
:1086200080C1FFFF80C0FFFF00C1FFFF80C2FFFFCE
:1086300000C3FFFF00C2FFFF80C6FFFF00C5FFFFB2
:1086400000C4FFFF80C4FFFF80C5FFFF00C6FFFF1F
:1086500000C7FFFF80C7FFFF03002D3300D1CBE62B
:1086600003002B3300D1C7E62F3000D07FE6C3E6EE
:108670000300133300D1BFE60300133331DC0300E2
:10868000223313DC0300243300DB83E603002733AB
:1086900000D1B1E60300273300DADAE6030026331F
:1086A00000D177E6253000D1A6E660E60300183356
:1086B00000D16FE60300183307DC0300203300D13C
:1086C00068E6193000D197E651E60300163300D171
:1086D00060E60300163300DA8EE6143000D1B8E607
:1086E00045E603000C3300D1B3E603000C3316DC7F
:1086F0000300103300D172E60300103306DC0300E0
:1087000012330AD0113000D176E630E603000E3382
:1087100000D19EE60E3000DD9BE695233BE6831DEF
:1087200000D196E6831D0ADC03000A3300D190E6EF
:108730008A235B42083000D019E6180000BD831C74
:1087400000D133E600239842F7D0031D00D00EE697
:108750007FE6C046832270B50C0092000021050020
:108760000C30F7F7ECFFFF2122002B4B2B488A43FC
:108770002340834202D02A4B9A4229D10C408021C7
:10878000284B49042143CB18022B36D9264BCB1852
:10879000012B37D9254B994236D0254B99421AD017
:1087A000244B994227D0244B994233D0234B9942F2
:1087B0002AD0234B994229D0224B994224D0224BD4
:1087C000994223D0214B994222D0214B994221D06A
:1087D000862040420EE020231148824206D01D48E8
:1087E000824203D11C4A89180129F1D8FF220020B6
:1087F0005343AB6070BD3023EEE71023084882423C
:10880000EDD1E5E71423F9E71C23F7E72023F5E78B
:108810003023F3E74023F1E700FDFFFF00010020D4
:1088200000020020FFFFFFFEFCFFFFFE080000012A
:10883000090000010A0000010B0000010C0000010A
:108840000D000001100000011100000112000001E4
:108850001300000100030020F7FFFFFEF0B51F002A
:10886000002387B03B600C9B06000D001400002B1A
:1088700009D00368C0221900D2051140914200D1ED
:108880009CE087264BE0002A00D19AE0C02280219C
:108890000368D2051A40C9058A4211D1026AA24270
:1088A00000D98EE0C1692800F7F72DFF306A0C99D6
:1088B000221A2818F7F743FF336A3B60002620E0AE
:1088C00041491A0C12048A421ED10C9A002A1BD16B
:1088D000338B0733DB1001939C4200D271E0F069C7
:1088E0001A0029007C300CF059FCFFF715FD061E1C
:1088F00007D1019B0C99E21AE818F7F720FF019BBA
:108900003B60300007B0F0BD304A31491A408A421E
:1089100007D0304A1340304A934227D08626764209
:10892000EFE704A810F008FC2C4B0493F3690593BF
:108930000C9B002B07D1E0223368D2051340C022E4
:10894000D205934217D12B1904AA290003A8039337
:1089500011F0B8FC061E14DA220000212800F7F7F7
:10896000EEFE3000FFF7D8FC0600CAE704A810F0BE
:10897000E3FB1B4BD9E72200290004A811F006FDF8
:10898000E8E74300A3420DD8241A2C190200210065
:108990002800F7F7B8FE320000212000F7F7CFFEDD
:1089A0003E608BE7A042FBD2241A0200291928005E
:1089B000F7F7B2FEA81922000021EFE7002C00D043
:1089C0007EE78A26ABE7C04600000370FFFFFFEF9B
:1089D000000001600000FFEF00000360840002104F
:1089E00024000210F0B50B6889B006000D00002BC2
:1089F00006D00268934203D08720404209B0F0BD00
:108A00002B6A002B30D032681B4B13401B4A934219
:108A1000F2D102AF38000CF0B7F905A80CF0B4F9A8
:108A20000021019700910B000A00F06903F0D6F9CC
:108A3000041E0DD12A6AE96905A80CF03EFB041E4C
:108A400006D105A938000CF01FFD041E00D00C4C07
:108A500038000CF09FF905A80CF09CF9002C03D00D
:108A60002000FFF759FCC9E700202B8B8342C5D0BB
:108A7000328B9A42C2D0BFE7FFFFFFEF00000160D8
:108A800080BFFFFF70B51500FE22D2050400024032
:108A9000C020C004824201D12E4A1440FA22802014
:108AA000D2052240C004824237D12B4A94422CD0B6
:108AB0000FD82A4A94420AD006D8294AA41802227A
:108AC000012C11D9002035E0264A9442FAD1072220
:108AD0000AE0254A94421ED011D8244A944216D066
:108AE000042223488442EDD1224809180020042999
:108AF00020D80800F9F7FEFB2B1F172729001E4A74
:108B0000944206D01D480622ECE70522ECE703223A
:108B1000EAE70822E8E70A22E6E7194A0020944239
:108B200008D10122E0E70520002B00D018702900B1
:108B30000EF022FA70BD0320402DF5D00130802DBB
:108B4000F2D14035F0E70720EEE70920ECE70220FC
:108B5000EAE7C046FFC0FFFF0100C0040100800437
:108B600000FF9FFB05008004050000060200C00412
:108B70000300C004FFFFFFBF0100400602004006E3
:108B80000200C002CC235B00C358084A10B59342D0
:108B900003D0074A934204D010BD08300EF08EF87F
:108BA000FAE708300FF0F9FEF6E7C046011040067C
:108BB0000210400670B505001E4B1F4A1D4095422D
:108BC00004D01E4C1E4E0440B44230D10B409342A0
:108BD00004D01A4C1A4E0C40B44228D10400FF268F
:108BE0004C40B44323D1954204D0144C144D04405E
:108BF000AC4208D1C5B2002D05D0802464042C43BA
:108C0000104DAC4211D0934204D00C4B0C4A0B4097
:108C100093420CD1CAB200218A4206D080235B0461
:108C20001343084A934200D10100080070BD00219F
:108C3000FBE7C04600FFFEFF0000021000FFFCFF44
:108C400000000410FF00000170B50122814224D011
:108C50000A00134B134D1A40AA4205D0124C134E72
:108C60000C400022B44218D10340AB4205D00E4B59
:108C70000E4C03400022A3420FD1FF240500002226
:108C80002540954209D080235B042B43084DAB421D
:108C900003D14140A1434A424A41100070BDC04641
:108CA00000FFFEFF0000021000FFFCFF00000410A8
:108CB000FF000001F0B585B0019300230F000B60A9
:108CC00003A91600039302F0D9FD051E1ED1E0236F
:108CD000039CDB0522681340C022D205934201D1D8
:108CE00001239E43E3683340B34212D1019B002B22
:108CF0000BD019002069FFF7A7FF002805D10199C3
:108D00006069FFF7A1FF002803D03C60280005B090
:108D1000F0BD85256D42F9E7174B70B515009842F7
:108D20000ED005D8154B98421BD08620404217E044
:108D3000A223DB05984203D0A423DB059842F4D19B
:108D400007240C4016D10731C90869600120FFF7DC
:108D5000BFFA030028602000002B01D16C608D3821
:108D600070BD40230A009A43802AE9D080235B002B
:108D70009942E5D08720D9E701000050010000406A
:108D8000F8B516001A000023040040680F001360B5
:108D9000984205D1144BE2681A4208D0872021E09E
:108DA0000123A16802F0C8FD0028F3D0F8BD228B92
:108DB0000E4B9A4215D80125638BAB43EED131009F
:108DC000380002F097FD0028F0D131680A00C8CCC5
:108DD000C8C2C8CCC8C2236813601B0CAB434B830A
:108DE000E4E786204042E1E7FCE0FFFFF8FF0000F7
:108DF000F7B50D006B46016804000E8B0733320097
:108E000009682800FFF73EFE6060002807D0344B59
:108E1000344A2B40934204D0334A93423DD08626B5
:108E20000EE0CC23314A5B00E25010220433E254BE
:108E300023680E3A1B6893432D4A934202D087263B
:108E4000764228E02700083738000DF010FF6B4607
:108E50002268D979D269330038000DF00EFFFFF790
:108E60005BFA061E37D1FE23C021DB052B40C90467
:108E700000228B4201D1AA04920ECE204000205C39
:108E8000904226D300228B4201D1AD04AA0E9E232C
:108E90000026FF33E2543000FEBDCC23154A5B00B0
:108EA000E25010220433E25423680E3A1B689343C5
:108EB0000F4A9342C3D12700083738000FF0E0FA79
:108EC0006B462268D979D269330038000FF0DFFA97
:108ED000C5E7872676422000FFF754FEDBE7C04651
:108EE000FFC0FFFF010040060200400601104006DF
:108EF000010000400210400610B5FF230C000100E5
:108F00000C4A9943914212D10340802040041843F7
:108F1000094BC01803280AD8084B8000C05810F02D
:108F200047F801210200200003F01CF810BD0020CA
:108F3000F5E7C04600000312F8FFFFFEF8D9011064
:108F400070B50D000400AC210120FFF7C1F92860C5
:108F500000280ED0123CA4B205F0C0FA00210C2C5F
:108F600001D8054B195D286807F06CFBFFF7D4F9B1
:108F700070BD8D204042FBE7E9D90110F7B51D0017
:108F800000230E0001A917000193FFF7D9FF041E6B
:108F900017D101993B0088313200019805F022FC7D
:108FA000FFF7BAF9041E0CD101990198883105F038
:108FB00093FCFFF7B1F9041E03D1019B2B60200045
:108FC000FEBD01980028FAD005F01AFB0198FFF7C2
:108FD00087F9F4E7F0B515000024BFB0060006A835
:108FE00003930F0005940EF08FFE2B782000013BB9
:108FF000DBB20C2B01D81A4AD05C05AB3A00310029
:10900000FFF7BCFF041E1ED10122059906A80EF031
:10901000C9FEFFF781F9041E15D10200290006A838
:109020000EF0C0FEFFF778F9041E0CD10D4B039A29
:1090300001930D4B4599009306A8449B0EF0E2FE68
:10904000FFF76AF9040006A80EF08EFE059805F0F9
:10905000D7FA0598FFF744F920003FB0F0BDC046AD
:10906000DCD9011010760108A37C0110F7B5FF23AD
:1090700006001D4F9E431D4B0500009101920340C9
:10908000BB4204D01A4B1B4A0340934220D1EBB29F
:10909000002B1DD0802252041343174A9B18032B28
:1090A00016D8164A9B009C5820000FF081FF019BA8
:1090B0001870BE420ED1B54211D0002C11D0200044
:1090C0000FF072FF009B984209D08720404207E0D2
:1090D0000024E9E70A4B9E4201D1002C01D0002078
:1090E000FEBD8620F2E7C0460000021000FFFEFF32
:1090F00000FFFCFF00000410F8FFFFFEF8D901108C
:1091000000000310C023F0B5150080220768DB05BE
:1091100089B004000E003B40D205934225D1964B06
:10912000E9009D4200D923E1944B994200D91FE107
:10913000020038001C32FFF7EFFD071E00D0A3E04D
:10914000002D04D02A003100E069F7F7DCFAC022D4
:1091500080212368D2051A40C9058A4200D0F3E075
:10916000236AD800208300278EE0854A3B0C1B042D
:10917000934200D08BE00023B8B205931533012849
:109180004AD0022848D0032846D00433042843D0CC
:10919000052841D0053306283ED007283CD00828B2
:1091A0003AD00633092837D00A2835D010330B2897
:1091B00032D00C2830D014330D282DD00E282BD0CF
:1091C000343B0F2828D0102826D0112824D004336F
:1091D000122821D013281FD0043314281CD015289E
:1091E0001AD00433162817D0172815D01033182892
:1091F00012D0123319280FD0223B1A280CD010336A
:109200001B2809D010331C2806D0203B1D2803D072
:1092100018331E2800D0002387279D4200D0A8E0E5
:1092200005A9FFF78DFE071E26D105982A003100FB
:109230007C300BF042FFFFF76FF8071E1CD1059939
:1092400005987C3105F056FEFFF766F8071E13D12E
:1092500005984C4D03000200010001954A4D28334A
:109260007C328831009505F053FCFFF755F8071E56
:1092700002D1059BE3616AE70598002804D005F058
:10928000BFF90598FFF72CF8380009B0F0BD3F4A48
:10929000934208D12300B8B21C332A00FFF76EFEB8
:1092A000071EF1D153E73A4B3A4A3B4093425FD114
:1092B00003A80FF041FFE023DB051F409F4236D19A
:1092C00000232A000093310003A810F007FEFFF7E7
:1092D00023F8071E27D103A80FF064FF01282CD123
:1092E000049D280002F044FE8023C0005B019842E8
:1092F00026D805A80BF048FD3B003A0001970097DF
:1093000005A9280002F06AFDFFF706F8071E05D13F
:1093100005A80BF074FE430700D0863F05A80BF0AC
:1093200039FD002F0ED003A80FF00AFFACE72A008A
:10933000310003A810F0FCFEC9E787277F42F2E75F
:109340008627FBE7E56102E7114A12491A408A4283
:1093500004D1E06902F00CFEC00003E70E4A0020D1
:1093600013400A4A934200D0FCE6E369986DF9E69F
:1093700086277F4288E7C046FFFFFF1FF8FF0000F7
:109380000000037010760108A37C01100000036048
:10939000FFFFFFEF000001600000FFEF70B5002548
:1093A00003680400AB4209D0C0228021D2051A40D4
:1093B000C9058A4209D1E069FEF792FF2422002103
:1093C0002000F7F7BCF9280070BD0A4A0A491A4084
:1093D0008A4203D1C06903F033FEECE7074A134029
:1093E000074A934203D1C06905F00AF9E3E79725DC
:1093F0006D42E3E7FFFFFFEF000001600000FFEFB9
:109400000000036010B5002801D0FFF7C7FF10BDB2
:1094100007B503000020834208D001A9180002F01C
:109420002DFA002802D10198FFF7B8FF0EBD10B544
:109430000400C069FEF754FF242200212000F7F742
:109440007EF910BDF7B500260400019117001D003C
:10945000B34209D019000120FEF73AFF061E0ED0D4
:109460002A003900F7F74FF9E069002801D0FEF72C
:1094700037FF0020019BE66125622360FEBD8D2041
:109480004042FBE7F0B5050089B008000C00FFF78B
:10949000CEFF002328001A0004A9FFF70BFC051ECD
:1094A0004ED1049B21001A00C1CAC1C1C1CAC1C1A9
:1094B00012680A60D203D20F628324491A688A4272
:1094C00002D023498A423BD105AF3800DD690BF059
:1094D0005BFC00232800019700931A00190002F09A
:1094E0007DFC00260500B0421AD11A4938000CF064
:1094F00012F80500B04213D038000BF0A1FD039024
:1095000001000120FEF7E4FE061E1CD00100039AB4
:1095100038000BF043FE051E02D1039BE661236277
:1095200038000BF037FC002D02D03000FEF7D8FEDB
:109530002800FEF7F1FE051E02D02000FFF777FF9E
:10954000280009B0F0BD10256D42E9E70000016078
:1095500000000170010001007FB51C0000230D0018
:1095600016002360012203A9FFF7A4FB002806D1FF
:1095700000902300320029000398FFF76FF904B030
:1095800070BD7FB5160000220D001C001A6003A9F3
:109590001300FFF78FFB002807D10123320000934F
:1095A000290023000398FFF759F904B070BDF0B506
:1095B0001F00002385B0050001911600029303935C
:1095C0009A4216D003AB02AA3900FFF7D9FB041E5A
:1095D00012D1320001990298FFF794FD041E0BD1BD
:1095E00029000298FFF7FEF9041E05D1200005B0FE
:1095F000F0BD87246442F9E70298FFF703FF0023D8
:109600003B80F3E7F0B595B000230BAC0592220048
:109610008446079308930E00A1C9A1C2A1C9A1C2A3
:10962000A1C9A1C2022207A960460993FFF742FB24
:10963000051E00D0A7E031000798FFF7D3F9051EFB
:1096400000D0A0E0079E27693369049702939F42E8
:1096500004D019003800FFF7ADFA0490656973690A
:10966000280003939D4202D01900FFF7A3FA049B40
:10967000002B05D1002F03D0029B002B00D080E0EF
:10968000002805D1002D03D0039B002B00D078E0EB
:10969000F368E26860611340E360049B08AA2361F9
:1096A000059909AB2000FFF76BFB051E00D06AE0AF
:1096B000C0228021089B079E02933368D2051A407E
:1096C000C9058A4203D1348B0734E40809E0314AE2
:1096D00093422ED10923348B64080134E4085C439F
:1096E0003B3421000120FEF7F3FD8D25071E49D0F4
:1096F00000230100009322000AAB3000FFF7AEF810
:10970000051E0AD1336839000393039A029B1A603D
:1097100018000A9AFFF7F6FC050038002100FEF752
:10972000F1FD3800FEF7DCFD002D2CD1280015B02E
:10973000F0BD194A934203D1348BE4081034D0E7CA
:10974000164A934205D10324338BDB085C435A3419
:10975000C7E7134A934205D10324338BDB085C43EC
:109760004A34BEE70F4A1B0C1B049342ABD00E4A8F
:1097700004009342B5D1348B0734E408640001340B
:10978000AFE787256D420898FFF73CFE0023059A56
:109790001380CBE700000170000001600000027040
:1097A00000000260000003700000036003680D4ABF
:1097B00010B50400934207D80B4A93420BD2002BFA
:1097C0000CD0892040420BE0084A9342F9D804307B
:1097D00007F018FA02E0043007F0DAF90020206000
:1097E00010BDC04609000001080000010B00000187
:1097F00010B504008021F830FEF784FD2000FFF74B
:10980000D5FF10BD036870B505000E481818032871
:1098100014D82B1DF8F76EFD02020E0E180007F08B
:10982000D7F9041E02D02800FFF7C0FF2000FEF782
:1098300073FD70BD180007F005FAF2E78920404279
:10984000F7E7C046F8FFFFFE036870B506000D009D
:10985000002B36D11C4BC818032824D8341DF8F728
:1098600049FD0210151D200007F08CF90121200090
:1098700007F0A2F9041E20D135602000FEF74CFD50
:109880001AE0200007F07EF90021F0E7200007F041
:10989000B3F90121200007F0C9F9EBE7200007F038
:1098A000ABF90021F6E7FE20FF23C0051B060840A8
:1098B000C01843425841873870BD3000FFF776FF2B
:1098C000DBE789204042F7E7F8FFFFFE002310B5F1
:1098D0009A4202D0FFF796FF0300180010BD000067
:1098E000F7B580241F00036864041600DBB2334A16
:1098F00023439A18050001911024022A2DD9304AD9
:1099000004349A18012A28D92E4A0834934224D0C4
:109910002D4A0434934220D02C4A103493421CD058
:109920002B4A1034934218D02A4A243C934214D034
:10993000294A0434934210D0284A043C93420CD064
:10994000274A0434934208D0264A1034934204D064
:10995000254A9B185C425C41A4013E60002E04D065
:10996000320021210198F6F7EAFEB4421CD82B6898
:109970001E4A981803281DD82B1D0199F8F7BAFC28
:1099800002021010180007F031F9FEF7C5FC061EA0
:109990000CD13C602800FFF709FF06003000FEBD37
:1099A000180007F05DF9F0E78A2676422800FFF7F5
:1099B000FDFEF3E789267642F0E7C046FFFFFFFE93
:1099C000FCFFFFFE08000001090000010A00000181
:1099D0000B0000010C0000010D000001100000014F
:1099E0001100000112000001EDFFFFFEF8FFFFFE75
:1099F000F0B5A5B001936B46039280221B79520407
:109A000013434F4A029199180500102202292DD9BB
:109A10004C4904325918012928D94B4908328B4244
:109A200024D04A4904328B4220D0494910328B421B
:109A30001CD0484910328B4218D04749243A8B42F7
:109A400014D0464904328B4210D04549043A8B4227
:109A50000CD0444904328B4208D0434910328B4227
:109A600004D0424A9B185A4253419A01019B3449FF
:109A70005B180A2B06D83E49CE5C802E03D986247B
:109A8000644242E00026B242F9D8039C04AFB442DB
:109A90003ED901992800FFF7D7FE041E31D1039A61
:109AA00002992800FFF712FF041E2AD103AB80227F
:109AB00039002800FFF714FF041E22D100233621AD
:109AC000039C9C422CD1331B1A0038193621029377
:109AD000F6F735FE002004AAA04226D12B00F83369
:109AE0001818029A5C21F6F72AFE01992800FFF760
:109AF000ABFE041E05D1320039002800FFF7E6FE58
:109B00000400802104A8FEF7FDFB200025B0F0BD75
:109B1000002CD8D0220002993800F6F7F4FDCDE7EA
:109B2000FA5C4A40FA540133CBE7F8239C466A2199
:109B3000835C84444B40614601306B54CCE7C046A3
:109B4000FFFFFFFEFCFFFFFE08000001090000010F
:109B50000A0000010B0000010C0000010D000001D3
:109B6000100000011100000112000001EDFFFFFED6
:109B700008DA011070B51E00244B0400049D9A42BF
:109B80002ED003339A4213D00223FF3387209A4208
:109B90001BD1A378012B36D120000B002A00310005
:109BA0001430FFF725FF002801D10223A37070BDF8
:109BB0008378002B27D1002D0ED029000120FEF73D
:109BC00087FB6060002802D18D204042EFE72A0029
:109BD0003100F6F798FDA5600123A3700020E6E7A9
:109BE0008378022B0FD1002D0BD029000120FEF726
:109BF0006FFBE0600028E7D02A003100F6F783FD14
:109C000025610323E9E78920DFE7C0460102000060
:109C1000F0B5C5B00700009101921E00802B2FD82F
:109C2000002503AC1A00637002AB2900981D257053
:109C3000F6F785FD02AB06339B191D7062789D1CFB
:109C40005A70280032000199F6F75DFDBB78AD1916
:109C50002A1B012B11D13800009B21001430FFF783
:109C6000C7FE051E01D10223BB70822120004900DE
:109C7000FEF748FB280045B0F0BD89256D42F4E7AA
:109C800087256D42F6E70000F0B5002607681E4BF9
:109C900095B0FB1805000091019203960A2B01D89C
:109CA0001A4AD65C03AB402204A92800FFF718FE2D
:109CB000041E25D139002800FFF7C6FD041E1BD164
:109CC00029003200F8312800FFF700FE041E13D1EE
:109CD000039A04A92800FFF7F9FD041E0CD103AB79
:109CE000402204A92800FFF7FBFD041E04D1019ABD
:109CF00004A90098F6F707FD039904A8FEF702FBF4
:109D0000200015B0F0BDC046FFFFFFFE08DA0110CD
:109D10007FB503790D0004001100DA072CD5062267
:109D20001340022B28D042798A4222D80368134973
:109D30008B4213D1694608300DF01AFD061E04D17E
:109D4000627969462800F6F7DEFC68461021FEF7C6
:109D5000D9FA3000FEF7E0FA04B070BD08490B40B4
:109D6000A02189048B4207D129000830FFF78CFF1E
:109D7000F2E78A204042EFE78920FBE70200C002B9
:109D80000000C07FF0B593B002AC0D00160001AB2F
:109D900040222100FFF7A4FD00280AD1019FB7420D
:109DA00005D1020003009F4205D1002A01D0952071
:109DB000404213B0F0BDE95CE65C013371400A43F8
:109DC000F1E700000B6870B505000C00002B1BD1FB
:109DD00003680E4A934207D80D4A93420CD2002BD7
:109DE00012D0862040420EE00A4A9342F9D8011D63
:109DF000201D06F00FFF03E0011D201D06F0D0FE20
:109E000000202B68236070BD8920EBE7090000016A
:109E1000080000010B0000010021036810B50400D8
:109E20008B420BD00F4A93420AD108300DF0C0F894
:109E3000E02200212379216013402371080010BD26
:109E4000094A1340A0229204934203D10830FFF73D
:109E5000CFFCEDE7C0225200F6F771FC89214942A0
:109E6000ECE7C0460200C0020000C07FF0B51D0054
:109E70001E006B1E9D4180236D421B01AD0285B00B
:109E8000ED18664B01910168134004001700009320
:109E9000002900D0B9E0E022036003791340037188
:109EA000009B1A005E4B9A4227D108300DF07AF8D9
:109EB000002E03D010232279134323713B002A0084
:109EC00003A90198FEF7F6FE061E12D1009BBD0401
:109ED0001A00534BAD0E03999A4249D10F8B0300E0
:109EE00009683A000098FEF7CDFD011E1DD18626B7
:109EF00076422000FFF790FF14E0A022494B920425
:109F00003B40934201D18160D2E7FE26FE23F60555
:109F10003E401B06F618C02277427E415200873E23
:109F2000F6F70DFC300005B0F0BD26004369083699
:109F30006371039B300000930DF06AFA002805D18D
:109F4000009B3A00D96930000DF07EFBFEF7E4F982
:109F50000600002D05D0032DC9D96379AB4232D359
:109F60006571002EC5D10123227913432371D9E7EE
:109F7000A0222C4B92043B40934249D1FBB2802754
:109F8000294A7F043B439A18022A35D9274A9A184E
:109F9000012A2FD9264A934201D11C220DE0254ADD
:109FA000934201D1202208E0234A934201D130227A
:109FB00003E0224A934208D140226271A22208683B
:109FC000D20590421AD0872692E71D4A9342E4D0E8
:109FD0001C4A9342E6D01C4A9342DED01B4A93426D
:109FE000E0D01B4A9342E2D01A4A9342E4D00023C5
:109FF00063717CE71422E0E71022DEE720000A6AA2
:10A000000830C969FFF7F4FCA2E78926764289E7A0
:10A01000002D00D16BE7862676429CE7FFC0FFFF4C
:10A020000200C0020000C07FFFFFFFFEFCFFFFFE3A
:10A0300008000001090000010A0000010B000001F6
:10A040000C0000010D0000011000000111000001D2
:10A05000120000011300000110B50123FFF706FFF5
:10A0600010BD10B50023FFF701FF10BD70B504004F
:10A070000079C30703D489256D42280070BD0623EB
:10A080000340022BF7D00823034323710D482368B4
:10A0900083420BD1200008300DF000FBFEF73CF9A5
:10A0A000051EEAD02000FFF7B7FEE6E706480340AA
:10A0B000A02080048342DED120000830FFF706FC98
:10A0C000EEE7C0460200C0020000C07FF7B51F00E7
:10A0D0000368040001911600002B03D189256D420D
:10A0E0002800FEBD3A60002A03D021210198F6F72E
:10A0F00026FB2379DB06F1D5320001992000FFF71A
:10A1000007FE05002000002D0CD1FFF785FE051E7F
:10A1100002D163793B60E3E7320021210198F6F731
:10A120000EFBDDE7FFF778FEDAE7F0B5036893B0E2
:10A1300006000191002B2BD0102304791C4027D15D
:10A14000477997421ED1402202A9FFF7E1FD230083
:10A1500005009F420ED8002C14D1002D14D13000E0
:10A16000FFF75AFE0500402102A8FEF7CBF82800B1
:10A1700013B0F0BD019A02A9D25CC95C01334A4018
:10A180001443E6E795256D423000FFF745FEEAE708
:10A1900089256D42EBE70000F0B593B00892079374
:10A1A000199A1A9B0C001A60002A00D1DCE0802268
:10A1B0000B00D2000BA9FEF77DFD051E1AD10B9AEC
:10A1C000E0211368C90518000840884249D1684950
:10A1D0008B425CD10FAFD66907993A002000FEF799
:10A1E00045FF051E06D1300001F0C2FE199B8342D7
:10A1F00004D28A3D199A212118982AE0FF239C4312
:10A200005C4B9C422AD12A002900300001F0AAFEB2
:10A21000189B594A0393089B58490293079B3000A7
:10A2200001933B780093012302F05CFD041E04D1EE
:10A23000300001F09DFE1A9B18602000FEF76CF8BC
:10A24000051ED7D121211A9B1868199B1A1A189B31
:10A250001818F6F774FA280013B0F0BD484B9C426A
:10A2600002D087256D42C5E73A783000012101F020
:10A2700079FE189B00950393089B3F4A0293079B26
:10A280003E4901933000012302F0F6FBCEE73D4941
:10A2900086250B403C498B42E4D13C4B3C49234052
:10A2A0008B42DED1D6690CA8B36DDD1DED080AF036
:10A2B0006BFD0FA80AF068FD6B000993199B6A00FB
:10A2C00093424FD337007C37E3033CD5E4B2002CF4
:10A2D00037D080235B041C432E4BE418032C30D86A
:10A2E0002D4BA400E0580EF063FE234B0290049324
:10A2F000224B0FAA0393079B0CA90193089B3000E4
:10A3000000933B000DF030FE041E0DD12A00189979
:10A310000CA80AF043FF041E06D1189B2A00591905
:10A320000FA80AF03BFF04000CA80AF033FD0FA8A9
:10A330000AF030FD002C00D07FE71A9B099A1A60C2
:10A340007BE70020CFE70C4B0FAA03930B4B0CA924
:10A350000293079B30000193089B00933B0003F09E
:10A3600099FAD1E70D4CDFE78A256D4273E7C046C5
:10A37000000001700000021010760108A37C01109B
:10A38000000003100000FFEF0000036000FFFEFF6D
:10A3900000000610F8FFFFFEF8D9011000B1FFFF22
:10A3A000F0B591B00792802206930D000B001201C8
:10A3B00009A9FEF77FFC041E36D1099A47491368A4
:10A3C00047481940814248D10DAFD66906993A00F5
:10A3D0002800FEF74BFE041E26D1300001F0C8FD18
:10A3E000179B834202D0952464421DE0FF239D43C6
:10A3F0003C4B9D421BD122002100300001F0B2FDF8
:10A40000169B394A0393079B38490293069B3000F9
:10A4100001933B780093230002F0F0FD344B984207
:10A42000E1D0FDF779FF0400200011B0F0BD314B01
:10A430009D4251D13A783000012101F093FD169BE5
:10A4400000940393079B284A0293069B2749019394
:10A450003000230002F052FDE0E727490B40274976
:10A460008B4237D1264B1D40264B9D4234D1D769B4
:10A470000AAEBB6D30000733DB080DAD05930AF063
:10A4800083FC28000AF080FC059B179A5B009A4227
:10A49000A9D1059A169930000AF00FFE041E11D1B9
:10A4A000169B059A280099180AF007FE041E09D188
:10A4B0003B00019588330096069A0799380003F00F
:10A4C000BDFA040030000AF065FC28000AF062FCC6
:10A4D0002000A6E7862487E7872485E7FFFFFFEFB4
:10A4E000000001600000021010760108A37C01103A
:10A4F00000BFFFFF000003100000FFEF000003603B
:10A5000000FFFEFF00000610F0B51F0000238BB017
:10A510000792149A0E0013600A00FF339A432F4BE0
:10A5200006929A4205D0119B002B02D087246442E8
:10A5300034E080223300520009A9FEF7BBFB041E61
:10A540002CD1099AC0211368C90518000840884217
:10A55000ECD123490B4023498B423BD1D5692800DC
:10A5600001F006FD139B984236D81F4B9E4218D12E
:10A57000129B00970293079B1C4A01931C492300DE
:10A58000280002F069F8041E04D1280001F0F0FC54
:10A59000149B18602000FDF7BFFE040020000BB0E4
:10A5A000F0BD069B1A000D4B9A42BFD12900300026
:10A5B000FEF7A2FC129B02970493079B0B4A03939E
:10A5C000119B0B490193109B28000093230001F07D
:10A5D0003BFFD8E78624AAE78A24A8E700000312F5
:10A5E000FFFFFFEF0000016000000212107601087B
:10A5F000A37C0110F0B58BB0079300231700149AC9
:10A600002B4E13600A00FF339A430D000692B242AC
:10A6100005D0119B002B02D0872040422BE08022E6
:10A620002B00920009A9FEF745FB002823D1099BC6
:10A63000E0211A68C905100008408842ECD11D4984
:10A640008A4233D1DC69200001F092FC079B9842DA
:10A65000E2D1194B9D4210D1139B01970393129B9A
:10A66000164A0293149B164900932000012302F01E
:10A67000DFF9FDF751FE0BB0F0BD069BB342CBD125
:10A6800021002800FEF738FC139B03970593129BCB
:10A690000A4A0493149B0A490293119B20000193D8
:10A6A000109B0093012301F0F7FFE2E78620B4E757
:10A6B0000000031200000170000002121076010871
:10A6C000A37C011070B5002503680400AB4210D0D4
:10A6D000FE22D20513408022D20493420BD10830CF
:10A6E0000CF066FCF8222379256013406571A57192
:10A6F0002371280070BD89256D42FAE7F0B585B059
:10A7000004000091160001938025012B12D0AD00AA
:10A710002168002900D09BE0FE238022DB05334026
:10A72000D204934208D04C222000F6F708F887257F
:10A730006D428AE06D00EBE701222700237908379C
:10A74000934303329343023A134323716171A1711E
:10A75000380026600CF026FC2A00330003A900987C
:10A76000FEF7A8FA051E6DD103990B8B09680093BB
:10A77000009A03003000FEF785F9011E60D0380012
:10A780000CF046FE051E48D10399019B009AC96949
:10A7900038000CF025FC051E3FD12F4B9E4242D0C5
:10A7A0002E4B9E424AD00122237990211343FF224F
:10A7B000D20523713240C90401238A4214D0039B7D
:10A7C00027491A6810238A420ED02649083B8A423C
:10A7D0000AD0254908338A4206D0244B0121D218D9
:10A7E000002391425B41DBB2A371730215D5039B39
:10A7F0001B491A6810238A420ED01A49083B8A4224
:10A800000AD0194908338A4206D0184B0121D218C0
:10A81000002391425B41DBB263712800FDF77CFDB0
:10A82000051E12D00EE0042138000CF0AFFD002808
:10A8300010D10123227913432371C0E70100F3E70C
:10A8400086256D422000FFF73DFF280005B0F0BDD2
:10A8500089256DE70500E0E700016004010160045F
:10A86000010000400200004003000040FCFFFFBF69
:10A8700010B50123FFF742FF10BD10B50023FFF70D
:10A880003DFF10BD037970B5040006200340022B84
:10A8900017D1637993420ED120001A0008300CF0D2
:10A8A000BFFBFDF739FD051E07D1042322791343B1
:10A8B0002371280070BD87256D422000FFF702FF3D
:10A8C000F7E789256D42F4E770B50C0006211E00FC
:10A8D000037905000B40022B1CD14379934213D816
:10A8E0001A0021000D480DF0DCF9002805D0FDF715
:10A8F00013FD041E0AD1200070BD6A792100326068
:10A900002800FFF7BFFFF4E78A2464422800FFF71E
:10A91000D9FEF0E789246442EDE7C04610760108CD
:10A92000F0B585B00393036804000F001600002BF8
:10A9300027D0FF22D205134090223500D204934243
:10A9400006D08579C36A2900F018F7F7DDFC454386
:10A950000A9B9D420FD820000B9B320000933900C8
:10A96000039B08300CF08AFBFDF7D6FC051E04D1D2
:10A97000280005B0F0BD8A256D422000FFF7A2FE39
:10A98000F6E789256D42F3E7F0B51E00037985B03F
:10A9900004000D001700DA073CD506221340022BF5
:10A9A00038D01023C356012B06D11C4B02689A42A3
:10A9B00002D1C36A002B28D120003200694608303A
:10A9C0000CF076FC00280CD0FDF7A6FC0500002357
:10A9D000684633601021FDF795FC2000FFF772FEFA
:10A9E00010E03268002A05D0BA4211D86946280022
:10A9F000F5F789FE10216846FDF784FC2000FFF77B
:10AA000061FE0500280005B0F0BD87256D42DEE738
:10AA10008A25FBE789256D42F4E7C0460001600402
:10AA2000F0B51E000023F3B009927E9A0AAD1360C0
:10AA300080220B000F0052002900FEF73BF9041E94
:10AA40003ED139002800FEF7D3F9041E38D19E27E5
:10AA5000FF37EB5D7B9A7D999A188A4247D87B999C
:10AA60007C9A26485218CC214900695881422AD143
:10AA700005937C9B069204937A9B00960393799BA3
:10AA80007B9A0293789B012101930CA8099B0DF0FE
:10AA90003FFFFDF741FC041E07D07D9B002B04D037
:10AAA0001A0000217C98F5F74AFE0AAD2800FEF74F
:10AAB00069F8002C04D1EB5D7B9A9B187E9A136099
:10AAC000200073B0F0BD0E48814213D105937C9BEA
:10AAD000049203937A9B099A0293799B7B99019341
:10AAE000789B0CA8009333000CF008F9D1E78A2476
:10AAF0006442DAE786246442E2E7C0460210400678
:10AB000001104006F0B5F1B00793002316007C9ABF
:10AB100008AD136080220B000F0092002900FEF7A1
:10AB2000C9F8041E3DD139002800FEF761F9041E62
:10AB300037D19E27FF37EB5D799A934247D8D11AD8
:10AB40007B9A8A4246D3CC204000789A2858244CDD
:10AB50005218A04228D17A980393779B05900193CD
:10AB60007898769B0490029200933200079B0AA883
:10AB70000DF0E9FEFDF7D0FB041E07D07B9B002BF8
:10AB800004D01A0000217A98F5F7D9FD08AD280005
:10AB9000FDF7F8FF002C04D1EB5D799AD31A7C9A6B
:10ABA0001360200071B0F0BD0E4CA04214D105938B
:10ABB0007A9B04920393789B32000293779B0AA8B6
:10ABC0000193769B0093079B0CF0DAF8D2E7872479
:10ABD0006442DBE78A24FBE786246442E1E7C0465F
:10ABE0000210400601104006FE22C0210368D20573
:10ABF00070B51A40040089058A4213D11D4A1340DA
:10AC0000802292051343FF22190091431A4A914270
:10AC100012D1E068FDF764FB20001430FEF7E8FD78
:10AC2000050002E00025AB42EDD18621200089001D
:10AC3000FDF768FB280070BD104A5B0A5B02934277
:10AC400014D12069002805D06169FDF75BFB2069FC
:10AC5000FDF746FBA069002805D0E169FDF752FB2E
:10AC6000A069FDF73DFB20002030D7E789256D4224
:10AC7000DBE7C046FFFF03080001002000020020C0
:10AC8000F0B585B00293FE230E00C0210568DB05F8
:10AC900004002B4089058B4204D182490D4080215C
:10ACA00089050D430223FF339E4207D004D37E491A
:10ACB0007118032900D88EE0872694E0A421C905E5
:10ACC0008A4201D0002AF7D1FF212A0077488A431F
:10ACD000824200D0B7E00D408021754A49040D43FF
:10ACE00096427AD0734A964200D190E09E42E3D1D8
:10ACF0000327714BE15C039339400FD120002B00F7
:10AD00000A001430FEF774FE061E00D0BCE0039B60
:10AD1000E25C0123BA431343039AA3540322039B27
:10AD2000E35C1340012B5DD1270014370A9A029986
:10AD30003800FEF7CBFD061E00D0A5E021008D31C6
:10AD40004022FF313800FEF79FFF061E00D09BE037
:10AD50005A4A1023AA18022A2DD9594A0433AA188C
:10AD6000012A28D9574A0833954224D0564A043339
:10AD7000954220D0554A103395421CD0544A103386
:10AD8000954218D0534A243B954214D0524A04337A
:10AD9000954210D0514A043B95420CD0504A04339E
:10ADA000954208D04F4A1033954204D04E4BED18CF
:10ADB0006B425D41AB0183229200A35400224B4BB6
:10ADC000E254039B0332E35C93431A0002231343D0
:10ADD000039AA35418E0464972E70322364FE35D15
:10ADE000134202D0892676424EE020002B000A9AB8
:10ADF00002991430FEF7FCFD061E45D10323E25DE7
:10AE00009A43023B1343E355300005B0F0BD2A4D91
:10AE1000635DDA439207E5D05B07E3D40A9B2361C5
:10AE2000002B0AD019000120FDF752FAE06000283B
:10AE300033D00A9A0299F5F766FC0423625D002676
:10AE400013436355E0E72B4882420CD10D4080212B
:10AE5000200032000A9B49040093029B29430C30D6
:10AE6000FEF788FE0EE02448824218D10D40802172
:10AE7000200049040C3029439E4209D10A9B029AC2
:10AE8000FEF7C6FE061EBFD02000FFF7ADFEBBE7F3
:10AE90000A9B32000093029BE2E78D26A3E78926F6
:10AEA0007642B1E7FFFF0308FFFDFFFF000100202E
:10AEB00002020000030200000E020000FFFFFFFE7E
:10AEC000FCFFFFFE08000001090000010A0000016C
:10AED0000B0000010C0000010D000001100000013A
:10AEE0001100000112000001EDFFFFFE0D02000045
:10AEF0000100005000020020000300200368002B26
:10AF000003D0836800200B60704789204042FBE734
:10AF10000368002B05D083688B4205D38160002035
:10AF2000704789204042FBE78720FBE7F0B5C7B0B8
:10AF30000292FE220591C0210368D20504001A4046
:10AF400089058A420DD1B64A1340802292051343E7
:10AF5000A26802998A4209D200238F25A3606D421C
:10AF6000A7E0002BF4D189256D427CE002990029ED
:10AF700002D1002A00D1F5E102991800521AA2600C
:10AF8000FF22A8499043884200D0B6E080271340B2
:10AF90007F041F43A44B1026FB18022B2DD9A34B73
:10AFA0000436FB18012B28D9A14B08369F4224D028
:10AFB000A04B04369F4220D09F4B10369F421CD09E
:10AFC0009E4B10369F4218D09D4B243E9F4214D07A
:10AFD0009C4B04369F4210D09B4B043E9F420CD0AA
:10AFE0009A4B04369F4208D0994B10369F4204D0AA
:10AFF000984BFE1873425E41B6019749625C930715
:10B000009B0F012B00D8ABE1530700D4A8E1032329
:10B0100013436354029B0093059B0493009B002BF6
:10B0200020D083239B00E15C009B751AEDB29D420A
:10B0300001D96B461D782300CD33FF332A00591800
:10B0400004980393F5F75FFB8322049B92005B193E
:10B050000493009B5B1B0093A35CED18009BA5541D
:10B06000002B03D10025280047B0F0BD7B4AA35C2C
:10B07000FF2B00D174E101338321A3540023890005
:10B08000635423002100143301938D313B003200BF
:10B09000FF310198FEF7ACFC051E0AD16F4AA35C94
:10B0A000012B11D12269E1680198FEF70FFC051E02
:10B0B00012D026682000FFF797FD2660029A212112
:10B0C0000598F5F73CFBCEE7320003990198FEF7AF
:10B0D000FDFB051EE6D0ECE7604B0122E11801986C
:10B0E000FEF790FB051EE4D1402203990198FEF77C
:10B0F000CBFD051E00D191E7DBE75948590A49020B
:10B10000814200D02FE7802713407F041F43464B26
:10B11000FB18079310230093079B022B38D91423A5
:10B120000093424BFB18012B32D91C22404B00925A
:10B130009F422DD03F4B043200929F4228D03E4B7D
:10B14000103200929F4223D03C4B103200929F421B
:10B150001ED03B4B243A00929F4219D0394B043207
:10B1600000929F4214D0384B043A00929F420FD075
:10B17000364B043200929F420AD0354B1032009277
:10B180009F4205D0334BFB185A4253419B01009319
:10B19000029B0393059B0493039B002B00D161E763
:10B1A000267B002E00D0C0E0079B022B2CD91F4B22
:10B1B000FB18012B2AD91E4B9F422BD01D4B9F42BF
:10B1C0002AD01D4B9F4229D01C4B9F4220D01C4BA4
:10B1D0009F421FD01B4B9F421ED01B4B9F4219D03A
:10B1E0001A4B9F4218D01A4B9F4217D01D4B9F42BB
:10B1F00000D14036F822002108A8F5F7A0FA637BB9
:10B20000FF2B31D19725AAE61026F3E71426F1E7A4
:10B210004026EFE71C26EDE72026EBE73026E9E79E
:10B22000FFFF030800010020FFFFFFFEFCFFFFFE01
:10B2300008000001090000010A0000010B000001E4
:10B240000C0000010D0000011000000111000001C0
:10B2500012000001EDFFFFFE0E0200000D020000D3
:10B260000002002013000001013363732300203328
:10B27000267308A918000193FEF7A4FD051E44D10A
:10B28000637B012B4CD1E269A1690198FEF71EFB9B
:10B29000051E3AD1626921690198FEF717FB051E68
:10B2A00033D123009933FF333200190001980693FC
:10B2B000FEF7EAFC051E28D1019908A8FEF782FDD9
:10B2C000051E22D1320006990198FEF7FFFA051EED
:10B2D0001BD1E269A1690198FEF7F8FA051E14D1A5
:10B2E000626921690198FEF7F1FA051E0DD121006E
:10B2F000D9313200FF310198FEF7C6FC051E04D19A
:10B30000019908A8FEF75EFD050008A8FEF74EFAB1
:10B31000002D00D0CDE6002800D13DE70500C8E6AD
:10B32000210099313200FF31B6E7039B35009E4280
:10B3300001D96B461D7B009B2A00991B2600D9363C
:10B34000C9B2FF3671180498F5F7DDF9049B5B1953
:10B350000493039B5B1B0393237B5D1B25731BE7FC
:10B360008925FCE58F25FFE50023F0B585B0029324
:10B370000393038B050000910192002B3ED0012620
:10B380000B7933423DD003AB02AA0199FDF7F8FCDB
:10B39000041E25D1C023029FDB0539682A8B0B4090
:10B3A0008021D51DED08C9058B4222D1530720D13C
:10B3B00030002900FCF78CFF061E1DD001002A007A
:10B3C0000098FFF7B3FD041E05D12A0031003800B4
:10B3D000FDF798FE04003000FCF782FF002C05D03A
:10B3E0000298FEF70FF80023019A1380200005B0A1
:10B3F000F0BD87246442F3E78D24FBE78724644291
:10B40000F4E78524FBE70000036870B504000D0035
:10B41000002B18D1FE23DB050B408022C0219205B2
:10B4200089058B420BD10A492940114391420DD025
:10B430002000FDF78FF9002800D1256070BD9342F0
:10B4400004D12900F4E789204042F7E78720FBE791
:10B45000FFFF030807B5009313000022FFF710FC5D
:10B460000EBD7FB50400100080220E00236852013B
:10B4700003A9FDF71FFC051E05D02000FFF7B4FB54
:10B48000280004B070BD0223FF339E4204D122790C
:10B49000013BFF3B13432371039A3100136A2000E1
:10B4A0000093D3691268FFF7EBFB0500E8E70000A3
:10B4B000F0B50600FE251000C02299B00393336852
:10B4C000ED050F001D40920595423DD1802205A952
:10B4D0005201FDF7EFFB041E2ED1FC2331681B0443
:10B4E0000B401D431A4B059A06909D4227D11368C5
:10B4F00018491B0C1B048B4224D106AB0193422339
:10B500000093D26907AB1E990398FDF763FD041EF3
:10B5100009D1A422069BD2050093390007AB300065
:10B52000FFF7AEFB0400069907A8FCF7EBFE002C22
:10B5300002D03000FFF758FB200019B0F0BD862480
:10B540006442F0E78724FBE787246442F4E7C046BF
:10B550000000203000000370F8B5CF23104A9B0094
:10B56000D35C07000E00DB0716D580250C00ED002C
:10B57000B919091B0B48AC4203D822000CF091FB0F
:10B5800004E02A000CF08DFB002802D0FCF7C4FE7A
:10B59000F8BD054BE418EBE789204042F8E7C046C8
:10B5A0007C7301081076010800FCFFFFF0B51F0056
:10B5B000FE2305001600C022DB0585B008002B40E5
:10B5C0009205934202D0872464421DE080222B0022
:10B5D000520103A9FDF76EFB041E15D1104B039A0F
:10B5E0009D421BD113680F491B0C1B048B42EAD1EF
:10B5F0000C9B390001930B9B30000093D2690A9B8E
:10B60000FDF7E8FC041E06D00B990A98FFF7A4FF8B
:10B610000C9B0B9A1A60200005B0F0BD8624D3E77E
:10B6200000002030000003700023F0B587B00493C1
:10B630000593038B07000391002B00D19FE005AB1E
:10B6400004AAFDF79DFB041E2AD1049DFA693E8BD6
:10B650003C6A2868002A02D1002C00D08DE0C0236B
:10B660008021DB050340C9058B4210D12A0031003F
:10B670001C32FDF751FB041E12D1296AE869FFF75D
:10B680006BFF041E0CD10024200007B0F0BD3D4B21
:10B69000984240D180235B019E4208D986246442AF
:10B6A0000498FDF7AFFE0023039A1380ECE707230D
:10B6B0003340F3D1002C13D0042CEFD811191C0007
:10B6C0001378240201321C439142F9D1002CE5DBAE
:10B6D000AC210120FCF7FCFD071E03D18D24DEE721
:10B6E000294CF5E70022110000F02EFC00943300F5
:10B6F000264A2749380001F0DBFC041E09D0380037
:10B7000001F09EFC3800FCF7EBFD2000FCF704FE86
:10B71000B7E7EF61B8E71F4A030C1B049342BDD1A2
:10B72000123880B200270C2801D81B4B1F5C380050
:10B7300002F082FE002CB1D1002FAFD00028ADD096
:10B7400083889E4219D1AC210120FCF7C1FD061E61
:10B75000C4D002F0C3FE38000C4B0D4A310003F098
:10B7600099FC071E07D0300002F04AFF3000FCF7BA
:10B77000B7FD3800CAE7EE6186E787248FE78724A4
:10B78000644281E7000001700100010010760108A9
:10B79000A37C011000000370E9D9011010B500F07E
:10B7A00093F8CF23084C9B00E25C06231A4205D095
:10B7B00006480CF0BEF9064863689847D02120007F
:10B7C0008900FCF79FFD10BD7C730108107601080D
:10B7D00084730108F0B5224B85B00393CF23214C2D
:10B7E0009B00E35C0026DB0733D42368B34201D11E
:10B7F0001D4B23606368002B01D11C4B63601C4F01
:10B80000236838009847CF251A4EAD0030000CF061
:10B8100086F90623625D18499A43043B1343635536
:10B8200003233A000093300003AB0CF093F9FCF7CC
:10B8300073FD061E10D10623625D9A43023B13433B
:10B84000635500F035F8061E06D10123625D1343EF
:10B850006355300005B0F0BDFFF7A0FFF9E7C04623
:10B86000505341007C73010819820110618201105C
:10B8700084730108107601088382011090230B4A1B
:10B88000DB00D35CDB070CD5431E98B21F280BD816
:10B890002420584380180368002B05D0086000203E
:10B8A000704789204042FBE78820FBE7BC7601080F
:10B8B000902201230349D200885C03438B5400206B
:10B8C0007047C046BC76010870B5002424263000BD
:10B8D0006043074D01344019FDF760FD202CF6D17F
:10B8E00090220121D200AB5C8B43AB5470BDC046AB
:10B8F000BC760108902330B50E4CDB00E35CDB071F
:10B9000013D52023242503800288002A03D18D200B
:10B910000A60404230BD2B00013A5343E3180B60EC
:10B920001B68002B03D00280EEE78920F1E71800A6
:10B93000F0E7C046BC760108002A01D0002313605E
:10B940000138434258418738704707B5030000204B
:10B95000834208D001A91800FFF790FF002802D108
:10B960000198FDF71BFD0EBDF0B597B002920600E1
:10B9700040220D0006A800210393F4F7E0FE002307
:10B9800005931C9B18680DF00FFB0190002D07D14B
:10B990002C0006A84021FCF7B5FC200017B0F0BD34
:10B9A000019B00959D4200D900931C980DF0D4F99D
:10B9B000041EEED1039A02991C980DF0EDF9041EB5
:10B9C000E7D1042205A91C980DF0E6F9041EE0D188
:10B9D00006AF39001C980DF0F9F9041ED9D1009B6F
:10B9E0009C4206D105AAD37836190133D3702D1B9A
:10B9F000CCE7335DE25D534033550134EFE700009F
:10BA0000F0B51E00002385B005000F0001920293DF
:10BA10000393984260D00DF025F9041E03D13B4DED
:10BA2000280005B0F0BD280002AA03A90DF032FBE2
:10BA3000051EF4D120000DF0B7FA029A0090831889
:10BA40001A0008327F2AEAD8010002320A318A42FB
:10BA5000E5D3B242E3D834000A3CE41A0A2CDED91A
:10BA60000A9B0A9A9F1C1D700123033C5370FF21FF
:10BA700022003800F4F763FE30213B1959701D7025
:10BA8000029C00982200083282189A70E2B2D970A3
:10BA9000111D19710621DF1D59719A710399220038
:10BAA0003800F4F730FE05233F193B70013BFC18CA
:10BAB000BB70009B20001A00FB707D700199F4F7A9
:10BAC00022FE0A9B009A9B19A418A342A8D0310019
:10BAD0000A98FCF717FCA2E78E42A0D3761A0A2E2A
:10BAE0009DD90A9B0A9A18709C1C0123033E53702F
:10BAF000FF2132002000A619F4F721FE3570701CDA
:10BB00003A000199F4F7FFFD8AE7C04680BFFFFFC6
:10BB1000F8B5050008354768040028000E0009F054
:10BB20008FFA874201D02848F8BD80236268DB0085
:10BB30009A42F8D80021280009F0EDFC0028F2DD37
:10BB40000021280009F005FA0028ECD0002E1FD1B2
:10BB500020000021143009F0DEFC0028E3DD002E77
:10BB600014D020000021443009F0D5FC0028DADD93
:10BB700020000021503009F0CEFC0028D3DD200049
:10BB800000215C3009F0C7FC0028CCDD0020CBE7A9
:10BB900025002C350021280009F0BDFC0028C2DD5D
:10BBA0000021280009F0D5F90028BCD00C3500216F
:10BBB000280009F0B0FC0028B5DD0021280009F0BC
:10BBC000C8F90028C4D1AEE780BFFFFF70B50400FC
:10BBD0001D0000290AD006000836300009F06DFA71
:10BBE000002818D1300009F02BFA6060002D0AD12E
:10BBF000059B002B12D1079B002B18D1099B002B12
:10BC00001ED1002070BD2000049A29002C3009F0BC
:10BC100054FA0028ECD00F4BC018F3E72000069A26
:10BC20000599383009F049FA0028F4D1E3E72000FB
:10BC3000089A0799203009F040FA0028EBD1DDE797
:10BC400020000A9A1430099909F037FA0028D8D050
:10BC5000E1E7C04680BFFFFF0300F0B508338BB0BB
:10BC6000039000211800069309F055FC039B002166
:10BC70002C3305001800049309F04DFC039B0700CA
:10BC8000383300211800059309F045FC039B02900E
:10BC9000203300211800079309F03DFC039B089016
:10BCA000143300211800099309F035FC002F00D14E
:10BCB0008DE0029B002B00D171E0089B002B00D18E
:10BCC0006DE00200531E9A41002D62D0029C3C435D
:10BCD00000D069E0089B2600002B02D00600731EEE
:10BCE0009E41089B23431C1E1ED10123002800D126
:10BCF000002321003143114308910B4347D0002D0D
:10BD000019D1002F17D0029B002B14D0059A04994B
:10BD1000069809F014FD002808D02F4BC0180BB06E
:10BD2000F0BD3A00D2E7029E0024E1E7069809F050
:10BD300087F9039B5860002E20D0059B079A00933B
:10BD40000999049B069801F09DFA0028E5D1089B0B
:10BD5000002B0ED0039B079A5C330193039B05993C
:10BD600050330093039B0498443301F033FD0028C3
:10BD7000D3D108990398FFF7CBFED0E7002CE6D08B
:10BD8000079B099A0599049801F062FBDDE71248C8
:10BD9000C5E73E1EC8D0029B1E1EC5D00AE02A1E63
:10BDA000F7D00022029C3C433E1E00D199E7029B43
:10BDB000002BB8D00024089BA34202D10400601ECF
:10BDC00084412E1E00D193E70026330091E7002D19
:10BDD000A7D12A002E00A7E780BFFFFFF7B51E00FE
:10BDE0000300083304000F00180000211500019320
:10BDF00009F091FB002803D1002D2FD02A483AE00A
:10BE0000200000212C3009F086FB0028F4D020000F
:10BE10000021383009F07FFB0028EDD02000002100
:10BE2000203009F078FB0028E6D0200000211430F3
:10BE300009F071FB0028DFD0002F16D1002D1BD197
:10BE4000002E21D1089B002B26D1099B181E12D051
:10BE500021000998143108F0D9FF0CE0002ECDD153
:10BE6000089B002BCAD1002FEFD00199380008F0B1
:10BE7000CDFF0028E2D0FEBD210028002C3108F0C3
:10BE8000C5FF0028DCD0F6E721003000383108F08B
:10BE9000BDFF0028D6D0EEE721000898203108F039
:10BEA000B5FF0028D1D0E6E780BFFFFFF8B504005A
:10BEB0000F000830002116001D0009F02CFB00289F
:10BEC00001D12048F8BD200000212C3009F023FBCF
:10BED0000028F6D020000021383009F01CFB002893
:10BEE000EFD020000021203009F015FB0028E8D019
:10BEF00020000021143009F00EFB0028E1D0002FB3
:10BF000005D1002E0DD1002D13D10020DAE721003C
:10BF10003800443108F07AFF0028F2D0094BC018ED
:10BF2000D0E721003000503108F070FF0028F5D133
:10BF3000E9E7210028005C3108F068FF0028EDD116
:10BF4000E3E7C04680BFFFFF70B504000E00150098
:10BF50000021A422F4F7F3FB2300A834A4331E60CD
:10BF6000256070BD0300A830A433196002607047DB
:10BF70004068704770B500210400FFF7C9FD051E39
:10BF800018D126000836300009F039F87F2811D979
:10BF900014342900200008F0DCFF00280AD020001B
:10BFA00009F02DF8012805D93100200009F06CFABC
:10BFB000002800DB014D280070BDC04600BEFFFF19
:10BFC000F0B585B00400FFF7D5FF002802D0164871
:10BFD00005B0F0BD01212000FFF79AFD0028F6D141
:10BFE0002500260027002300029001902000143332
:10BFF0002C3538362037009332003B0029000830BA
:10C0000001F00EFB0028E2D1220023005C32503404
:10C010000192443300943A003100280001F074FA90
:10C020000028D5D0D3E7C04600BEFFFF70B504009E
:10C030000D00FFF79FFF002814D12800FFF7C0FF75
:10C0400000280FD1290020000831083009F01CFA1F
:10C05000002807D1290020001431143009F014FA07
:10C06000002800D0004870BD00BEFFFFF0B50C00F6
:10C0700087B0002105001600FFF74AFD002830D1E7
:10C0800003A808F081FE21006A6803A809F015F8EA
:10C09000041E19D12C000834210003A809F0F4F97A
:10C0A00000281BDA2A006F6803A9683523001432C0
:10C0B0000095080009F062FE041E05D13A00310027
:10C0C00003A809F06BF8040003A808F063FE002C35
:10C0D00001D0054BE418200007B0F0BD04246442F1
:10C0E000F2E7024CF7E7C04680BDFFFF80BFFFFFCD
:10C0F000F0B5A7B002910121050007921C00FFF7DF
:10C1000007FD002800D094E108A808F03DFE0BA828
:10C1100008F03AFE0EA808F037FE11A808F034FE29
:10C12000029B002B05D01AA808F02EFE1DA808F0CF
:10C130002BFE14A808F028FE17A808F025FE20A85A
:10C1400008F022FE23A808F01FFE21006A6808A854
:10C1500008F0B3FF041E00D03CE12F00083739007F
:10C1600008A809F091F9002800DB5BE108A920A8E4
:10C1700008F04CFE041E00D02CE12B004433039346
:10C180000C330493029B002B00D181E02B00A033E1
:10C190001B68002B00D1D9E02E008C363200310014
:10C1A000300009F0CCFA041E00D013E13A0031004F
:10C1B000300009F073FD041E00D00BE10C36320094
:10C1C0003100300009F0BBFA041E00D002E13A0051
:10C1D0003100300009F062FD041E00D0FAE02A00B0
:10C1E00008A98C32080009F0AAFA041E00D0F1E078
:10C1F00008A93A00080009F051FD041E00D0E9E04A
:10C20000290001222C310BA809F087FA041E00D066
:10C21000E0E02900012238310EA809F07EFA041E60
:10C2200000D0D7E0079B029A1C2111A80AF04AF817
:10C23000041E00D0CEE011AA0BA91AA809F07FFABB
:10C24000041E00D0C6E01AA9039A080009F00BFAF0
:10C25000041E00D0BEE0079B029A1C2111A80AF020
:10C2600031F8041E00D0B5E011AA0EA91DA809F0EE
:10C2700066FA041E00D0ADE01DA9049A080009F07A
:10C28000F2F9041E00D0A5E01DAB04931AAB039392
:10C290002B002C33059348330093039A059B08A980
:10C2A00014A809F06BFD041E00D093E02E002B00B3
:10C2B000383680330093049A330008A917A809F090
:10C2C0005DFD041E00D085E017AA14A908A809F096
:10C2D000EEF9041E00D07DE02A0008A95C3214A803
:10C2E00009F02DFA041E75D1059A14A908A809F0C1
:10C2F000D5FC041E6ED1320008A914A809F01FFA5B
:10C30000041E67D114AA17A908A809F0ACF9041EE5
:10C3100060D1029B002B4ED12B002A006833009382
:10C3200014323B0008A923A809F028FD041E51D1AE
:10C3300020A923A809F0A8F8002800D077E06A68AF
:10C340002C9908A808F02AFF040043E00C23059369
:10C35000059B013B0593002B00D166E02B00983331
:10C3600006936B68029A591E0698079B09F0AAFF6C
:10C37000041E2FD12E008C363A000699300009F0A9
:10C3800027FF041E26D10121300009F0C4F800283F
:10C39000DED13A00069930000AF08CF8041E19D15B
:10C3A0002B002A006833009314323B003100300028
:10C3B00009F0E4FC10E72A0008A99832080009F007
:10C3C000BEF9041E06D108A93A00080009F066FC6F
:10C3D000041EA1D00BA808F0DDFC0EA808F0DAFCC2
:10C3E00011A808F0D7FC029B002B05D01AA808F072
:10C3F000D1FC1DA808F0CEFC08A808F0CBFC14A8BE
:10C4000008F0C8FC17A808F0C5FC23A808F0C2FC77
:10C4100020A808F0BFFC002C01D0074BE418200036
:10C4200027B0F0BD04246442D4E7044CD2E7044CA6
:10C43000D0E7044CF3E7C04600BDFFFF80BBFFFF21
:10C4400080BCFFFF80BFFFFFF0B58DB0029005916B
:10C4500006920793012B08D10300A4331B68012B1C
:10C4600003D0454C20000DB0F0BD059B002BF8D04B
:10C47000029BA8331868C0B20CF0F4FB061EF0D083
:10C48000029B5B6803930CF08FFD43000493149BA5
:10C49000420002339B18149A07009342E1D3039A97
:10C4A0009342DED800211698F4F749F9169B169AA4
:10C4B0000133049300230499137006983A00059BF6
:10C4C0009847002802D02D4BC418CBE7049B139A41
:10C4D000DD192B00129930000CF092FC041EC1D122
:10C4E000039B149A981A02387B00C019C01A0123C2
:10C4F00028180370002A03D001301599F4F703F9C6
:10C5000009A80CF0BBFB0022310009A80CF0E8FBE5
:10C51000041E18D1039D169B7E1C013D9E19ED1B28
:10C5200009AB0093049A3B0029003000FFF71CFA86
:10C53000041E08D109AB009332002B003900049887
:10C54000FFF712FA040009A80CF09EFB002C00D0A3
:10C5500088E7079B002B06D1169A02981100FFF777
:10C5600085FD04007EE7169B069A009305990298C4
:10C57000FFF7BEFDF5E7C04680BFFFFF80BBFFFFB2
:10C58000F0B587B006000F00049203930E9D012BB7
:10C5900007D10300A4331B68002B02D02C4807B03E
:10C5A000F0BD0C9B70680C33F8D80C9B0B338342A6
:10C5B000F4D80C9BC01A00232B70039B0338002B6C
:10C5C0002FD1002FEAD00233AC1C6B7023180593D7
:10C5D000059B9C4212D1002323700C9B002B04D09E
:10C5E000601C1A000D99F4F78EF8039B002B22D1E2
:10C5F0002A0029003000FFF739FDD0E764230293B9
:10C60000012221000498B8472378002B1BD1029BFC
:10C61000013B0293002B01D00028F1D00D4BC01834
:10C62000BDE70123FF226B70AB1C1C189C42D2D0CB
:10C630001A700133FAE700952B00049A3900300094
:10C64000FFF756FDABE70028E8D10134C0E7C0464C
:10C6500080BFFFFF80BBFFFFF0B50700A4373F6836
:10C6600087B00C9C0D9D0E9E002F03D0012F08D08B
:10C67000084804E0029601950094FFF781FF07B097
:10C68000F0BD029400240496039501940094FFF7F2
:10C69000DBFEF4E700BFFFFFF0B5694C1D00A544C9
:10C6A000069104000792012B09D10300A4331B68F3
:10C6B000012B04D0634C2000634B9D44F0BD6368A4
:10C6C0001A000493FC23103A9B009A42F2D82300EC
:10C6D000A8331868C0B20CF0C5FA061EEAD00CF0F8
:10C6E00063FC049A471C7B00039005939342E1D8B6
:10C6F0001CAA002D1ED1FFAB983319682000FFF74C
:10C70000B5FC041E0CD109A80CF0B8FA22003100C7
:10C7100009A80CF0E5FA041E16D009A80CF0B4FA2A
:10C7200080211CA8C900FBF7EDFD40210CA8FBF7F8
:10C73000E9FDC0E7FFAB009298331B68079A0699A2
:10C740002000FFF7D5FCDCE759201CABDD19049B6A
:10C7500006AC5F1E039B0019FF1A09AB00932A0069
:10C760003B000399FFF700F9041ED6D1592209AB0B
:10C7700006A900935218039B39002800FFF7F4F82C
:10C78000041ECAD109A80CF07FFAFFAAFFA90CADBC
:10C7900090328C312B001268096830000CF030FBAD
:10C7A000041EBDD1582206AB9B181E78592306AA39
:10C7B0009B18039A99180200039B76B29A4229D3D8
:10C7C0000020C918059A049B0D009B1A5B189C4613
:10C7D00002000127AC4524D101208B5C5840064360
:10C7E00076B2002E27D101328918049B1CAA8A1A1E
:10C7F0009A1AFFABA0331B689A421ED8FFAB943342
:10C800001B681A60002A8BD0FFAB9C331868F3F7C3
:10C810007AFF85E7535D885C013243401E43F6B2E0
:10C82000CAE72B780135184343420343DBB2DB09E7
:10C830007B40D218CEE7054C72E7054C70E7C04646
:10C840008CFBFFFF80BFFFFF7404000000BFFFFFF1
:10C8500000BCFFFFF0B5734C1D004368A544039373
:10C86000012D05D10300A4331B68002B00D0D7E0B5
:10C87000FC24039BA400103BA34200D9D0E008AFE6
:10C88000002D28D1FFAB40333A001968FFF7EEFBCB
:10C89000041E00D0AFE03B7801257C7802276C4075
:10C8A000234300242100082006AA1218D25D013774
:10C8B0005042C00F684004436042D2432043C60F39
:10C8C0006E40B446C017D2B282431343039A614408
:10C8D000BA42E8D123E0FFAB009740331B68FFF773
:10C8E00007FC041E00D086E03B78012DD4D1022045
:10C8F00021007A7842401343C25D013056423243F0
:10C90000D2B2D2096A401443E4B262422243D2B2A4
:10C91000D2096A40D2B28918039A8242ECD1FFA8A8
:10C92000039A483000680B3A824200D9020008009E
:10C930000838C00F034301206442E40F44400398C9
:10C940002343C71E7F1A390058421843C01751406D
:10C9500001407940571AFF0F3B4388247D428226CD
:10C960005F423B43DB17DB43E4012C40F6016640AA
:10C97000304044409C460B2064420826634606AF84
:10C98000BF193F5C1F4006AB9B191F54039B01302E
:10C990008342F2D113004B401D40039B4D40991A36
:10C9A00008AB5918002A18D0531B06935318079345
:10C9B000531E6E4205930800F3170493431C9C46D4
:10C9C000079B634520D1059B049FCB18187801363F
:10C9D00007401F70069BB342EDD1FFAB48331B6885
:10C9E000002B04D0FFAB44331868F3F78CFEFFAB89
:10C9F0003C331B681D60802108A8C900FBF782FC3E
:10CA00002000094B9D44F0BD03784778FFB203979F
:10CA10007B40049F3B40039F7B4003706046CDE713
:10CA2000024CEDE7DCFBFFFF2404000080BFFFFFAA
:10CA3000F0B50400A434246887B00D9D0E9E0F9FAE
:10CA4000002C03D0012C0AD00A4806E00C9C039766
:10CA5000029601950094FFF7FDFE07B0F0BD0C9C17
:10CA60000597029400240496039501940094FFF71F
:10CA700013FEF2E700BFFFFFF0B5A1B00A9326ABAB
:10CA8000039018780A9B05910992012B08D1039B0A
:10CA9000A4331B68012B03D05D4C200021B0F0BDF6
:10CAA000059B002BF8D0039B5B680293002806D0FF
:10CAB0000CF0D8F80028EFD00CF076FA2790039B02
:10CAC000A8331868C0B20CF0CDF8071EE4D00CF003
:10CAD0006BFA029A049043009A42DDD302330600B7
:10CAE000934201D9961E361A029A00212998F3F72B
:10CAF00026FE320010A90998059B9847041E02D013
:10CB0000444BC418C9E7039B0DAD083318000693C6
:10CB100008F075FA049A029B10A99B1A0793299AA8
:10CB2000023B9B1BD3185A1C089201220B901A70CF
:10CB300008983200F3F7E7FD28000CF09FF8220078
:10CB4000390028000CF0CCF8041E48D128000CF065
:10CB500003F9041E43D1089B08229F1939002800BD
:10CB60000CF01AF9041E3AD1279A289928000CF0E3
:10CB700013F9041E33D1320010A928000CF00CF96F
:10CB8000041E2CD1390028000CF020F9041E26D1F7
:10CB900007230B9807990138184043425841299BB5
:10CBA0000139091A009518183A00049BFEF7DCFEBB
:10CBB000041E14D1069808F022FAFF22029B40219D
:10CBC000DB000133181A0241299B10A81B7813407F
:10CBD000299A1370BC23049ABB54FBF793FB0DA84E
:10CBE0000CF052F8002C00D057E70A9B002B06D11E
:10CBF000299A03981100FFF739FA04004DE7299BA1
:10CC0000099A009305990398FFF772FAF5E7C04671
:10CC100080BFFFFF80BBFFFFF0B585B01E000AABF1
:10CC20000500029103921878012E04D12B00A43341
:10CC30001B68002B50D10D9B0C9A00936B680B99CD
:10CC4000FEF7DEFE041E07D1002E08D10D9A280043
:10CC50001100FFF70BFA0400200005B0F0BD696871
:10CC60000120FBF735FB061E08D069680120FBF7A1
:10CC70002FFB071E05D13000FBF732FB1024644266
:10CC8000EAE700960D9B039A02992800FFF730FA15
:10CC9000041E11D13A0031002800FFF7E7F9041E05
:10CCA0000AD1010003006A689A420CD1002911D10F
:10CCB00031000D98F3F727FD3000FBF711FB38002A
:10CCC000FBF70EFBC8E70D9DF85CED5C0133684097
:10CCD0000143E9E7014CEFE7014CBDE700BDFFFF71
:10CCE00080BFFFFFF0B50500A43585B02D680AAC04
:10CCF00024780C9E0D9F002D03D0012D0AD00948E9
:10CD000006E00B9D0397029601950094FFF784FFC0
:10CD100005B0F0BD0B9D0397029601950094FFF7B7
:10CD2000ABFEF5E700BFFFFFF0B56F4C0500A54473
:10CD3000FFA88C3000780390FFA89830007804900A
:10CD4000012B09D12800A4300068012804D0674CC9
:10CD50002000674B9D44F0BD6E68FC203400103C01
:10CD600080008442F3D81CA8002B00D0ADE0FFABBC
:10CD7000A033020019682800FFF778F9041EE7D1F4
:10CD8000771E1CABDB5DBC2B00D0AAE0039B002B05
:10CD900009D018000BF066FF0028D8D00CF004F979
:10CDA000FFAB9033186004980BF05CFF041ECED0EC
:10CDB0000CF0FAF808220021039007A8F3F7BFFC53
:10CDC0002800083008F01BF9431E049304981CAA9D
:10CDD000F3001178C31A08331941B8D1612504ABA7
:10CDE000ED1803005B0701D037001500039B0233E9
:10CDF000BB42ACD809AE30000BF040FF210000224E
:10CE000030000BF06DFF041E5BD1039B0096D943ED
:10CE1000C9196B1805936A18039B2800FEF7A4FD37
:10CE2000041E4ED1FF22049B6021F800C01A02416B
:10CE300004AB5B181B78134004AA52181370059BAF
:10CE40005A1E2B780135691E8A4201D9002BF8D071
:10CE5000012B42D1059B5E1BFFAB9C331B6801334A
:10CE600004D0FFAB9C331B689E4236D109A80BF05F
:10CE700073FF041E25D1082207A909A80BF08CFF17
:10CE8000041E1ED1FFAB90331A68FFAB94331968B0
:10CE900009A80BF081FF041E13D13200290009A854
:10CEA0000BF07AFF041E0CD10CA909A80BF08EFF21
:10CEB000041E06D1039A0CA90598F3F715FC041E6D
:10CEC0000DD109A80BF0E0FE42E7FFAB0090A033C4
:10CED0001B682800FFF70CF950E7064CF1E7064CF9
:10CEE000EFE7044C34E7C0468CFBFFFF80BFFFFF39
:10CEF0007404000000BFFFFF80BCFFFF70B5050099
:10CF000086B0A8350AAC24782E682500002E00D003
:10CF1000F5B20D9E0395059601260C9D764202956D
:10CF20000B9D049601950094FFF7FEFE06B070BDC0
:10CF3000F0B587B003930CAB1C78039B029004916F
:10CF400005924768012B04D10300A4331B68002B12
:10CF500045D139000120FBF7BBF9061E41D039004D
:10CF60000120FBF7B5F9051E3ED000903B002000E4
:10CF70000E9A0D99FEF744FD041E0FD1039B002B62
:10CF80001FD132000F990298FFF770F8041E05D1E7
:10CF9000020003009F421CD1002A28D13000390032
:10CFA000FBF7B0F93000FBF79BF9002D06D0280005
:10CFB0003900FBF7A7F92800FBF792F9200007B02A
:10CFC000F0BD00960F9B059A04990298FFF790F820
:10CFD000DCE7F15CE85C013341400A43DAE7054CE9
:10CFE000ECE710246442E9E710246442D6E7024CDF
:10CFF000D4E7C04680BFFFFF80BCFFFFF0B505004F
:10D00000A43585B02D680AAC24780C9E0D9F002DA8
:10D0100003D0012D0AD0094806E00B9D0397029624
:10D0200001950094FFF784FF05B0F0BD0B9D0397B9
:10D03000029601950094FFF761FFF5E700BFFFFF3F
:10D0400010B5041E32D08C3007F0A4FE20009830BA
:10D0500007F0A0FE2000683007F09CFE2000203082
:10D0600007F098FE2000383007F094FE20002C30A6
:10D0700007F090FE2000143007F08CFE20000830EE
:10D0800007F088FE2000803007F084FE2000743016
:10D0900007F080FE20005C3007F07CFE200050305E
:10D0A00007F078FE2000443007F074FE10BD000049
:10D0B000F0B595B00600069107921D007F2B00D8B1
:10D0C000DAE01A9B022B00DCD6E0EB0700D5D3E0B8
:10D0D0008023DB00AB429B415B425B000BA80593C6
:10D0E00007F052FE0EA807F04FFE11A807F04CFE05
:10D0F000330014331A991800029307F010FF041E2E
:10D1000000D0A6E06B0804930890C72D01D9633BBB
:10D11000089301356B0809933700079B2C37009360
:10D12000059A069B0499380009F036FB041E00D0CE
:10D130008FE03500079B38350093059A069B0499CC
:10D14000280009F029FB041E00D082E02A003900E3
:10D150000BA808F0ACFA041E00D07AE00BA807F088
:10D160004EFF089B9842D7D90B9B002B03DA29006E
:10D17000380007F07EFE01223900380008F0CDFAB1
:10D18000041E66D101222900280008F0C6FA041EF8
:10D190005FD12A0039000BA808F0D1FA041E58D13B
:10D1A0000BAA02990EA809F013F8041E51D101210F
:10D1B0000EA808F0B0F90028AED12A0039000EA858
:10D1C00009F006F8041E44D101000EAB0BAA11A809
:10D1D00008F0C0FB041E3CD13300203311AA029991
:10D1E0001800039309F066F9041E32D1039807F082
:10D1F00006FF099B98428FD901223900380008F0B8
:10D200007AFA041E25D101222900280008F073FAB9
:10D21000041E1ED1330008332A003900180002937F
:10D2200008F08DFA041E14D1029807F009FF3300AC
:10D230005C3301930C3B70600093039A0C3B290014
:10D24000380000F0C7FA041E03D13000FEF7B8FE24
:10D2500004000BA807F09EFD0EA807F09BFD11A887
:10D2600007F098FD002C04D03000FFF7E9FE034BD7
:10D27000E418200015B0F0BD014CFAE780BEFFFFB6
:10D2800080BFFFFFF0B59BB005000F0014006F4991
:10D2900036220CA81E00F3F736FA002E04D104241F
:10D2A000644220001BB0F0BD209B002BF7D0B36878
:10D2B000002BF4D1209B99680029F0D1280008F0B8
:10D2C0002AF90028EBDD0121200008F024F90028CC
:10D2D000E5DD2900200008F0D7F80028DFDA012179
:10D2E000380008F018F90028D9DD2900380008F0C6
:10D2F000CBF80028D3DA09A807F046FD06A807F006
:10D3000043FD21003A0006A808F019FA041E0FD1C7
:10D3100006A90122080008F000FA041E08D106A898
:10D3200007F04DFE83B20393002B08D1042464421E
:10D3300009A807F02FFD06A807F02CFDB1E781B280
:10D3400006A807F0B9FF041EF2D10722AB68070058
:10D350001B681340013B5A425341DBB29AB204921C
:10D360000CAAD3180593059B09A8D95D07F0D7FD32
:10D370002A0009A9300008F02BFF041ED8D1012192
:10D38000300008F0C8F8002806D0049B0137DB19EC
:10D390009BB2352BE7D9C9E7209B09A9009306AAC0
:10D3A0002B00080008F0EAFC041EC1D101230293FF
:10D3B000012109A808F0AFF800283FD009A90122EF
:10D3C000080008F098F9041EB2D12A0009A930001B
:10D3D00008F0FEFE041EABD10121300008F09BF8DE
:10D3E00001280DD12900300008F04EF8431C07D168
:10D3F000210033002A00209808F0ACFA040097E7D7
:10D4000009A90122080008F088F9041E90D109AA90
:10D410001100100008F093F9041E89D109A92A000F
:10D42000080008F03BFC041E00D081E7029B01339A
:10D430009BB20293029A039B9342B9D2012109A89D
:10D4400008F069F80028A0D070E7C04613DA011090
:10D45000F0B589B006000D0001921C1E04D104260F
:10D460007642300009B0F0BD0021180008F053F8F2
:10D47000071EF4D10121300008F04DF80028EEDD40
:10D480000121280008F047F80028E8DD390001985C
:10D4900008F041F80028E2D002A807F075FC05A8C2
:10D4A00007F072FC3100012202A808F036F9061ECE
:10D4B00022D10122290005A808F02FF9061E1BD150
:10D4C00005AA02A9200008F083FE061E14D102A9B5
:10D4D00005AA080008F033F9061E0DD102AA0100C2
:10D4E0002300100008F036FA061E05D102AA0199A1
:10D4F000200008F0DFFF060002A807F04BFC05A89B
:10D5000007F048FCADE70000F0B587B004006846BE
:10D510001F000D00160007F037FC03A807F034FCCD
:10D52000002F07D10C9B002B2DD10D9B002B48D138
:10D53000002402E0002C09D1374C684607F02AFC91
:10D5400003A807F027FC200007B0F0BD012221004E
:10D55000684608F0E2F8002853D13200390003A8E9
:10D5600008F0A5F800284CD103A96A46080008F085
:10D5700095FB002845D1010003A807F0CCFF002847
:10D58000D0D0264CD9E7002DD6D0012229006846FC
:10D5900008F0C3F8002834D132000C9903A808F031
:10D5A00086F800282DD103A96A46080008F076FB0A
:10D5B000002826D1010003A807F0ADFF0028E0D124
:10D5C000B3E7002CB8D0002DB6D02A000D996846DC
:10D5D00008F0B5F8002814D101226946684608F021
:10D5E0009CF800280DD122006946684608F056FBD9
:10D5F000002806D10100684607F08DFF0028C0D141
:10D6000096E7064B9842BCD0034B984200D193E773
:10D61000024BC41891E7C04680BFFFFF00BEFFFF6A
:10D62000F0B589B0050002A801930E00170007F0BD
:10D63000ABFB05A807F0A8FB0F9B002B00D191E0E6
:10D64000002E08D0109B0F9A3221300009F071F89B
:10D65000002800D0BAE0002F00D188E0109B0F9A7C
:10D660003221380009F065F8002800D0AEE0002E25
:10D6700000D17CE0002D1AD03A00310002A808F059
:10D680005EF8041E76D10121280007F044FF00282F
:10D6900000DC9BE0290002A807F0F6FE002800D07D
:10D6A00094E0019B002B00D073E0002E61D0002F8E
:10D6B0005FD0019B002B5CD00E9B002B59D0012129
:10D6C000300007F028FF002800DC7FE0012138004F
:10D6D00007F021FF002800DC78E00E9A019902A8EB
:10D6E00008F02DF8041E45D102A90122080008F017
:10D6F00014F8041E3ED10122310005A808F00DF8EF
:10D70000041E37D102A905AA080008F0C7FA041EB2
:10D7100030D1010002A807F0FEFE002856D10E9A73
:10D72000019902A808F00BF8041E23D102A90122D6
:10D73000080007F0F2FF041E1CD10122390005A8E1
:10D7400007F0EBFF041E15D102A905AA080008F096
:10D75000A5FA041E0ED1010002A807F0DCFE041E8B
:10D7600008D033E0002E02D0002F00D082E7002D39
:10D7700097D1002402A807F00DFB05A807F00AFBCB
:10D78000002C03D0124B9C4200D0E418200009B0BA
:10D79000F0BD0E9B002B00D187E70121019807F017
:10D7A000BAFE002812DD01210E9807F0B4FE002811
:10D7B0000CDD2900019807F067FE002806DA290031
:10D7C0000E9807F061FE002800DA6EE7004CD1E702
:10D7D00000BEFFFFF0B587B0019003A81F000D0049
:10D7E000160007F0D1FA002F0CD10C9B002B1DD195
:10D7F0000D9B1C1E14D0019A29000D9808F05AFEAA
:10D8000004000DE00122019903A807F086FF041E21
:10D8100006D103AA3100380008F040FA041EE4D013
:10D8200003A807F0B7FA200007B0F0BD01222900D5
:10D8300003A807F072FF041EF2D103AA31000C986E
:10D8400008F02CFA041ED3D0EAE7000070B50E4CA5
:10D85000051E236805D05A1C2260002B09D0280021
:10D8600070BD013B2360002BF9D1084816F022FE61
:10D87000F5E7064816F06AFD0028F0D02368002579
:10D88000013B2360EBE7C046407B010800001040ED
:10D8900000207047F0B557464E464546DE46E0B597
:10D8A0001D00436D8BB004000E001700002B00D14B
:10D8B000B1E0007801F034FD02AB5874012128007A
:10D8C00007F029FE002861DB210028004C3107F019
:10D8D000DBFD00285ADA05A80DF028FF02AB587CC2
:10D8E00003F0C4F944680734E4082000F2F7D6FED8
:10D8F000099000281AD001002200280007F04EFCF1
:10D90000051E15D005A80DF01BFF0998002805D0AD
:10D910002100FAF7F7FC0998F2F7CAFE28000BB0CD
:10D920003CBC90469946A246AB46F0BD3F4DE9E768
:10D93000099B21001800039316F0D2FD6300180024
:10D940009A46F2F7ABFE81460028EFD02000F2F7AE
:10D95000A5FE804600281BD002AB597C179B020015
:10D9600000930598169B03F08FF900282FD0304DB7
:10D9700005A80DF0E5FE0998002810D1484651464B
:10D98000FAF7C0FC4846F2F793FE18E0294DC5E7C8
:10D9900005A80DF0D5FE099800283ED0234D2100A2
:10D9A000FAF7B0FC0998F2F783FE51464846FAF7B9
:10D9B000A9FC4846F2F77CFE4346002BAED0404619
:10D9C0002100FAF79FFC4046F2F772FEA6E74346B5
:10D9D000019306AB0093159A4B461499059803F0F2
:10D9E000B7FB0028C3D1A34621004846CB4416F01C
:10D9F00077FD2100584616F073FD2200494630009D
:10DA000007F05BFB051EB3D122005946380007F032
:10DA100054FB0500ACE7084D80E751464846FAF74D
:10DA200071FC4846F2F744FE004D77E780B2FFFFF5
:10DA300080B4FFFF80B3FFFF80B0FFFFF0B5454625
:10DA4000DE4657464E46E0B59846436D8FB004001B
:10DA500003910492002B00D19AE0007801F060FC61
:10DA600004AB587600280BD109A80DF069FE4A4E88
:10DA700030000FB03CBC90469946A246AB46F0BD84
:10DA800009A80DF053FE04AB587E03F0EFF843688D
:10DA90000733DB089A465B009B4601235B44180072
:10DAA0009946F2F7FBFD051E23D0431C0B9353460A
:10DAB0000133C31858460C93F2F7F0FD071E1DD032
:10DAC00001005246189807F069FB061E22D009A8EB
:10DAD0000DF036FE49462800FAF714FC2800F2F74C
:10DAE000E7FD38005946FAF70DFC3800F2F7E0FD83
:10DAF000BEE709A80DF024FE284EB9E709A80DF0ED
:10DB00001FFE49462800FAF7FDFB2800F2F7D0FD7A
:10DB1000224EADE75146380016F0E2FC3B0053447C
:10DB2000524619001998059307F038FB061ECED10E
:10DB30005146059816F0D4FC4B46009501930022FF
:10DB400008AB4146200000F0DBFD061EBFD10B9B59
:10DB500051461800059316F0C3FC0C9B5146180063
:10DB6000059316F0BDFC0AAB04AA944601930F235B
:10DB700063440093039A049B3900099803F0E2FC84
:10DB8000002807D104ABDB7B012BA0D0044E9EE71D
:10DB9000014E6DE7034E9AE780B0FFFF80B2FFFFB2
:10DBA00000B2FFFF80B4FFFF4B6E70B504000D00A4
:10DBB000002B44D00368002B3ADB200007F01FFA4B
:10DBC000AB6D5B00984238D86B6E200098470435E7
:10DBD000061E0ED0300070BD0021200007F09BFC17
:10DBE000002816D02A002100200007F03CFD002864
:10DBF0001CD12368002BEFDB2900200007F044FC38
:10DC00000028E7DB2A002100200007F0EEFC0028B6
:10DC10000CD12900200007F037FC0028DADB2A00AD
:10DC20002100200007F0E1FC0028F2D00600D1E737
:10DC3000002107F070FC0028BFD0044ECAE70A1D7F
:10DC4000010008F02BF80600C4E7C04680B0FFFFD3
:10DC5000F0B5DE4657464E4645468046E0B5994605
:10DC600085B0836D01A8DE1D8B46924607F08CF8C7
:10DC700043460C27F6081D1D4B465246310001A8AD
:10DC800008F020FB041E06D02FE0012101A807F0B8
:10DC900013FB041E29D1290001A807F0F5FB002879
:10DCA000F3DA013F002F2BD0012101A807F033FC4C
:10DCB0000028E1DD01AA5946584607F040FD041E40
:10DCC00013D141465846FFF76FFF041E0DD15D4644
:10DCD000183501AA2900280007F031FD041E04D1DF
:10DCE00041462800FFF760FF040001A807F052F842
:10DCF000200005B03CBC90469946A246AB46F0BD1C
:10DD0000004CF5E700B3FFFFF0B5D6464F46464658
:10DD1000C0B51E0037009EB0804603A889469246D3
:10DD200007F032F806A807F02FF809A807F02CF83A
:10DD30000CA807F029F80FA807F026F812A807F09A
:10DD400023F815A807F020F818A807F01DF81837D1
:10DD50001BA807F019F83A00310003A807F083FC6C
:10DD6000041E16D143461D1D06E003A92A00080023
:10DD700007F03BFC041E0CD1290003A807F084FB2C
:10DD80000028F2DA03AA110006A807F0D8FC041E46
:10DD900021D003A806F0FEFF06A806F0FBFF09A8A5
:10DDA00006F0F8FF0CA806F0F5FF0FA806F0F2FF4A
:10DDB00012A806F0EFFF15A806F0ECFF18A806F071
:10DDC000E9FF1BA806F0E6FF20001EB01CBC904631
:10DDD0009946A246F0BD414606A8FFF7E5FE041E9F
:10DDE000D7D13A00310009A807F061FC041E0DD01C
:10DDF000CFE7002109A807F08EFB00280AD009A967
:10DE00002A00080007F02FFC041EC2D1099B0193D1
:10DE1000002BEEDB09AA11000CA807F090FC041EF1
:10DE2000B7D141460CA8FFF7BFFE041EB1D10CAA22
:10DE300006A90FA807F03BFC041E0DD0A9E700219E
:10DE40000FA807F068FB00280AD00FA92A000800D5
:10DE500007F009FC041E9CD10F9B0193002BEEDB05
:10DE6000269E26991836320012A807F0FCFB041EE5
:10DE700008D08EE712A92A00080007F0B6FB041E9E
:10DE800000D086E7290012A807F0FEFA0028F1DA90
:10DE90003200269915A807F00AFC041E0ED078E778
:10DEA000002115A807F037FB00280BD015A92A0080
:10DEB000080007F0D8FB041E00D06AE7159B019309
:10DEC000002BEDDB03AA15A918A807F038FC041EE7
:10DED00000D05EE7414618A8FFF766FE041E00D09A
:10DEE00057E709AA12A91BA807F029FC041E00D0B5
:10DEF0004FE741461BA8FFF757FE041E00D048E736
:10DF00001BAA18A9504607F0AEFB041E00D040E73C
:10DF100041465046FFF748FE041E00D039E75246FE
:10DF20005146504607F00BFC041E00D031E7414635
:10DF30005046FFF739FE041E00D02AE75646183631
:10DF40001BAA18A9300007F0B2FB041E00D020E77E
:10DF500053469B69002B0DDA0021300007F0DBFAF5
:10DF6000002807D02A003100300007F07CFB041E97
:10DF7000EED00EE732003100300007F0E0FB041E67
:10DF800000D006E741463000FFF70EFE041E00D029
:10DF9000FFE632002799300007F0D1FB041E00D0C5
:10DFA000F7E641463000FFF7FFFD041E00D0F0E623
:10DFB0000CAA06A9484607F0C2FB041E00D0E8E6FA
:10DFC00041464846FFF7F0FD041E00D0E1E64E460C
:10DFD000414618360FAA1031300007F0B0FB041E7E
:10DFE00000D0D6E641463000FFF7DEFD041E00D02B
:10DFF000CFE632000CA9300007F035FB041E00D03C
:10E00000C7E62900300007F03FFA002807DB2A00A6
:10E010003100300007F0E9FA041EF2D0B9E6320010
:10E020000FA9300007F08BFB041E00D0B1E641467B
:10E030003000FFF7B9FD0400ABE6C04670B50C0038
:10E04000183406000D00021D2100200008F032FAED
:10E05000002800D070BD22002900280007F06FFBC7
:10E060000028F7D131002800FFF79EFD0028F1D1EC
:10E070000121200006F053FFECE7C046F0B55746FB
:10E080004E464546DE46E0B59846036B97B0040021
:10E090000F009146002B53D0C36B002B52D0A36DC1
:10E0A00006932378013BDBB2042B49D8CE4AD35CDC
:10E0B0000793002B44D0200000214C3006F049FF8C
:10E0C00001283DD10AAE09A80DF030FB300006F062
:10E0D0005BFE4946300006F099FE0DAB051E9B46DF
:10E0E00057D010AB9A4613AB0593300006F052FEA2
:10E0F000584606F04FFE504606F04CFE059806F0D6
:10E1000049FE002F11D018239C46BC446346069359
:10E110000C239C46BC44E046380006F03BFE4046DB
:10E1200006F038FE069806F035FE09A80DF008FB4B
:10E13000280017B03CBC90469946A246AB46F0BDBD
:10E14000AA4DF5E70DAB18009B4606F01DFE10AB7F
:10E1500018009A4606F018FE13AB18000AAE059395
:10E1600006F012FE300006F00FFE4146300006F0C9
:10E170004DFE051E00D187E0584606F00BFE5046C6
:10E1800006F008FE059806F005FE300006F002FED7
:10E19000CEE7180006F0F8FD10AB18009A4606F01E
:10E1A000F3FD13AB1800059306F0EEFD414658460B
:10E1B00006F02CFE051E98D1414650460C3106F063
:10E1C00025FE051E00D090E741460598183106F05F
:10E1D0001DFE051E00D088E71F24069A300014405B
:10E1E00023005C1EA34154091C19210006F0E6FD22
:10E1F000051E00D079E72100584606F0DFFD051E18
:10E2000000D072E72100504606F0D8FD051E00D070
:10E210006BE72100380006F0D1FD051E00D064E751
:10E220000C239C46BC44634660462100984606F099
:10E23000C5FD051E00D058E77B695A460293BB68AE
:10E2400007990193B368099800935B4692685B69EC
:10E2500006F058F818239C46BC44634660460121EA
:10E26000069306F05CFE0500300006F093FD58466C
:10E2700006F090FD504606F08DFD059806F08AFDEB
:10E28000002D00D151E747E74146584606F0BEFD54
:10E29000051E00D070E7414650460C3106F0B6FD31
:10E2A000051E00D068E741460598183106F0AEFD1E
:10E2B000051E00D060E70121380006F030FE051E83
:10E2C00000D059E718239C46BC44634600216046B1
:10E2D000069306F024FE051E00D04DE70C239C4655
:10E2E000BC44604606F056FD231D5D46A3461C0057
:10E2F00006E022002900280007F077F9002870D1F5
:10E300002100280007F0C0F80028F2DA209B5C46C4
:10E31000AB46002B08D02900219B209A2000FFF754
:10E3200097FC051E00D027E7484606F068FE4246E7
:10E33000431E5D460792B346A0461E002CE0310006
:10E34000484606F006FEC4B222002900380006F056
:10E35000A4FD002844D122000599069806F09DFDF1
:10E3600000283DD15B46009501932A003B0039000F
:10E370004046FFF7C9FC002832D1220029003800AE
:10E3800006F08BFD00282BD122000599069806F097
:10E3900084FD013E002823D1731CD0D14446079B45
:10E3A0003900200098465E46FFF748FEAB46050060
:10E3B000584606F0EFFC504606F0ECFC059806F0D7
:10E3C000E9FC300006F0E6FC002D00D0B0E6236B3F
:10E3D000002B00D1ACE6E36B002B00D1A8E65EE693
:10E3E0005E46AB460500C7E64CDA011080B0FFFF81
:10E3F0000F4B10B51A680F48002A17D105210A24BF
:10E40000017003314170043981700331C1700439E6
:10E41000017109314171063981710439C1710931C4
:10E4200001720A3941728472C272196010BDC0460D
:10E43000507B0108447B0108064B052802D106E009
:10E44000824204D00C331A78002AF9D10023180034
:10E450007047C04654DA0110036B002B04D0C06B28
:10E4600043425841013070470020FCE710B50400DA
:10E4700006F08AFC20000C3006F086FC20001830E4
:10E4800006F082FC10BDC04670B500250400057082
:10E49000043006F079FC2000103006F075FC2000F6
:10E4A0001C3006F071FC2000283006F06DFC2000C6
:10E4B000343006F069FC2000403006F065FC200096
:10E4C0004C3006F061FCA565E56525666566A566C8
:10E4D000E56625676567A56770BDC04670B5002510
:10E4E00004000570043006F04FFC2000103006F0E8
:10E4F0004BFC20001C3006F047FC2000283006F0C2
:10E5000043FC2000343006F03FFC2000403006F091
:10E510003BFC20004C3006F037FC2000A565E5658B
:10E5200025666566A566E56625676567A5677C302F
:10E5300006F02AFC2000883006F026FC20009430EB
:10E5400006F022FC2000A03006F01EFC70BDC04684
:10E5500010B5041E09D006F01DFC20000C3006F09A
:10E5600019FC2000183006F015FC10BD70B5061E11
:10E5700025D0036E012B27D1706F00281BD0B36FFD
:10E580000025002B15D0EC006419A4000419002C00
:10E5900016D0200006F0FEFB20000C3006F0FAFB3F
:10E5A0002000183006F0F6FBB36F0135706F9D4206
:10E5B000E9D3F9F795FE7C213000F9F7A3FE70BD91
:10E5C00001359D42DFD3F4E7043006F0E3FB300071
:10E5D000103006F0DFFB30001C3006F0DBFB3000B3
:10E5E000283006F0D7FB3000343006F0D3FB300083
:10E5F000403006F0CFFB30004C3006F0CBFBBBE7E1
:10E6000070B5051E35D0036E012B33D1686F00281D
:10E610001BD0AB6F0026002B15D0F400A419A4006A
:10E620000419002C42D0200006F0B4FB20000C306E
:10E6300006F0B0FB2000183006F0ACFBAB6F0136E3
:10E64000686F9E42E9D3F9F74BFE7C212800F9F769
:10E6500059FE28007C3006F09DFB2800883006F02B
:10E6600099FB2800943006F095FB2800A03006F0B6
:10E6700091FB70BD043006F08DFB2800103006F0D1
:10E6800089FB28001C3006F085FB2800283006F0A6
:10E6900081FB2800343006F07DFB2800403006F076
:10E6A00079FB28004C3006F075FBAFE701369E423F
:10E6B000B3D3C8E770B504000D0006F0A7FB00282F
:10E6C00000D070BD290020000C310C3006F09EFBFC
:10E6D0000028F6D1290020001831183006F096FBEA
:10E6E000EFE7C04610B5097801F0ACFF10BDC04699
:10E6F00010B51830002106F00EFF4342584110BDFE
:10E70000F0B5C646040000B504301F000E00904668
:10E7100006F096FC236B0500002B33D0E36B002B37
:10E720001DD02E4C30000021183006F0F4FE0028D9
:10E730002AD04346002B2FD16B00079A01333B6050
:10E74000934249D80423069A30001370511C2A00C2
:10E7500006F024FD002835D004BC9046F0BD079B90
:10E760003860984238D802000699300006F0DAFC8A
:10E770000028F1D1236B002BEED0E36B0024002B9B
:10E78000EAD0CFE71548E7E7079B002B24D0069B8C
:10E79000187001233B60DFE72000012BDCD1079AD2
:10E7A0006B1C3B60934217D8300000210C3006F000
:10E7B000D0FB069B02301870591C2A00300006F06E
:10E7C000EDFCC9E7069B30009C46691C61442A00A9
:10E7D0000C3006F0E3FCBFE70148BDE780B1FFFF66
:10E7E00000B1FFFFF0B5C646040000B50E001700EB
:10E7F0001D1E61D0043006F023FC236B8046002BE5
:10E8000038D0E36B002B17D03B78002B36D1012D8D
:10E8100052D10121300006F082FB00282BD13000BC
:10E8200001210C3006F07BFB002824D130000021B0
:10E83000183006F074FB1EE085423DD12A003900F5
:10E84000300006F003FC002815D130000C3006F033
:10E85000A1FA2378092B31D030000121183006F0BD
:10E860005EFB002807D1236B002B04D0E36B002B49
:10E8700001D0C9E7164804BC9046F0BD042BF9D17D
:10E8800043465B000133AB4216D1791C424630004F
:10E8900006F013FC0028EED143463000591C7918CD
:10E8A00042460C3006F009FC0028E4D1300001217A
:10E8B000183006F034FBDEE70648DCE7E9000139F2
:10E8C0000022300006F055FB0028C5D0D3E7C04633
:10E8D00080B1FFFF80B0FFFFF0B50600080089B0EF
:10E8E0000D001830012106F016FE041E00D09EE037
:10E8F000336B002B00D18FE0F36B002B00D18DE048
:10E900000021280006F007FE002800DA8FE02C0026
:10E910000C340021200006F0FEFD002800DA86E01D
:10E92000371D3900280006F0AFFD002800DB7EE02F
:10E930003900200006F0A8FD002800DB77E002A8DF
:10E9400006F022FA05A806F01FFA2200210002A80C
:10E9500006F0F5FE041E08D002A806F01BFA05A872
:10E9600006F018FA200009B0F0BD310002A8FFF748
:10E970001BF9041EF0D12A00290005A806F0DFFECD
:10E98000041EE9D1310005A8FFF70EF9041EE3D1FA
:10E99000B369002B4DD0320005A91032080006F0F3
:10E9A00062FE041ED8D106E005A93A00080006F070
:10E9B0001CFE041ED0D1390005A806F065FD002814
:10E9C000F2DA05A92A00080006F0B9FE041EC3D138
:10E9D000310005A8FFF7E8F8041EBDD1320005A9F3
:10E9E0001C32080006F03FFE041EB5D106E005A962
:10E9F0003A00080006F0F9FD041EADD1390005A863
:10EA000006F042FD0028F2DA05A902A806F03CFD56
:10EA1000041EA1D0154C9FE7154CA3E7280006F073
:10EA20000FFBF36D0733DB08984200D89AE70F4CD1
:10EA300098E705A90322080006F06FFE041E00D027
:10EA40008AE70DE0002105A806F065FD0028B8D092
:10EA500005A93A00080006F006FE041E00D07BE778
:10EA6000059B0193002BEDDBABE7C04680B3FFFFB6
:10EA700080B0FFFFF0B51E00036B83B004000F00F1
:10EA80001500002B21D0C36B002B20D001211000DA
:10EA900006F041FD002835DB210028004C3106F04E
:10EAA000F3FC00282EDA31002000FFF715FF0028C4
:10EAB00009D1099B2A000193089B3900009320008B
:10EAC0003300FFF7DBFA03B0F0BD0F48FBE700218E
:10EAD000100006F03EFA002814D10121280006F0AB
:10EAE00038FA00280ED1280006F089FAE36D0138C3
:10EAF000984207D1FE28D6D10221280006F029FA33
:10EB00000028D0D00148DEE780B0FFFF80B3FFFFD0
:10EB1000F0B557464E464546DE46E0B51F00036B4E
:10EB200097B0040088461600002B00D16EE0C36B3E
:10EB3000002B6DD00121100006F0EDFC002800DA5A
:10EB400083E0210030004C3106F09EFC002800DB01
:10EB50007BE039002000FFF7BFFE051E4ED1236B7E
:10EB6000002B53D0E36B002B00D1E7E0A36D06939D
:10EB70002378013BDBB2042B48D8AE4AD35C079321
:10EB8000002B43D0200000214C3006F0E2F9012890
:10EB90003CD109A80CF0CAFD0AAB9946180006F052
:10EBA000F3F83100484606F031F90DAB051E9B46DF
:10EBB0004DD010AB9A4613AB0593484606F0EAF8E1
:10EBC000584606F0E7F8504606F0E4F8059806F0D7
:10EBD000E1F84346002B0ED01823434406930C2340
:10EBE00043441E00404606F0D5F8300006F0D2F847
:10EBF000069806F0CFF809A80CF0A2FD280017B07F
:10EC00003CBC90469946A246AB46F0BD8A4DF5E71E
:10EC10000021100006F09DF9002816D101213000D6
:10EC200006F097F9002810D1300006F0E8F9E36DFE
:10EC30000138984209D1FE2800D08AE7022130002D
:10EC400006F087F9002800D183E77C4DD6E718004D
:10EC500006F09AF810AB18009A4606F095F813AB38
:10EC60001800059306F090F83900584606F0CEF8E3
:10EC7000051EA2D1390050460C3106F0C7F8051E1A
:10EC80009BD139000598183106F0C0F8051E94D1C3
:10EC90001F24069A48461440631E9C415309E418F9
:10ECA000210006F08BF8051E00D086E721005846AB
:10ECB00006F084F8051E00D07FE72100504606F0DC
:10ECC0007DF8051E00D078E72100404606F076F872
:10ECD000051E00D071E70C234344210018001E00DC
:10ECE00006F06CF8051E00D067E743465B695A469C
:10ECF000029343469B68079901934B469B6809988A
:10ED000000935B4692685B6905F0FCFA1823434464
:10ED100001211800069306F002F90500484606F0A6
:10ED200039F8584606F036F8504606F033F805989C
:10ED300006F030F8002D00D15DE753E70DAB180069
:10ED40009B4606F021F810AB18009A4606F01CF816
:10ED500013AB1800059306F017F80AAB9946180094
:10ED600006F012F83900484606F050F8051E0CD09F
:10ED7000584606F00FF8504606F00CF8059806F0D5
:10ED800009F8484606F006F838E73900584606F014
:10ED90003DF8051EECD1390050460C3106F036F82E
:10EDA000051EE5D139000598183106F02FF8051E2B
:10EDB000DED10121404606F0B2F8051ED8D1182355
:10EDC000434400211800069306F0A9F8051ECFD190
:10EDD0000C234344180005F0DDFF231D1D005B4696
:10EDE000A3461C0006E02A002100200006F0FDFBDF
:10EDF000002878D12900200006F046FB0028F2DA2E
:10EE000023005C469B46209B002B07D0219B209A29
:10EE100059462000FEF71CFF051EA9D1300006F060
:10EE2000EEF8431E07935B464546B346A0461E00D8
:10EE3000079B34E04CDA011080B0FFFF80B3FFFF86
:10EE40000799584606F085F8C4B222003100280020
:10EE500006F023F8002849D122000599069806F00B
:10EE60001CF8002842D14A46009601922B0032003D
:10EE700029004046FEF748FF002837D12200310024
:10EE8000280006F00AF8002830D1220005990698DB
:10EE900006F003F8079B013B0793002826D10133B6
:10EEA000CED144463300290020005E469B46FFF742
:10EEB000C5F8A8460500584605F06CFF504605F019
:10EEC00069FF059805F066FF484605F063FF002DD1
:10EED00000D093E6236B002B00D18FE6E36B002B71
:10EEE00000D18BE642E60500A34641E70500B346A4
:10EEF0003EE7C046036B70B504000D00002B11D037
:10EF0000C36B002B10D00121280006F004FB002861
:10EF100025DB210028004C3106F0B6FA00281EDA65
:10EF2000002070BD0F48FCE70021280006F011F812
:10EF3000002814D10121280006F00BF800280ED17A
:10EF4000280006F05CF8E36D0138984207D1FE28EE
:10EF5000E6D10221280005F0FCFF0028E0D002489D
:10EF6000DFE7C04680B0FFFF80B3FFFFF0B5574634
:10EF70004E464546DE46E0B59A46036B83B0070031
:10EF80000D009146002B47D0C36D07339846DB0830
:10EF90009B46C36B002B36D0072342469A4345332A
:10EFA0009C46BC4463461F269046019353464A46FE
:10EFB0005946280007F086F9041E17D14346FA6D1A
:10EFC0002800991A06F078F9041E0FD1013E002E90
:10EFD00024D00121280006F09EFA0028E6DB0199E2
:10EFE000280006F051FA0028E0DA0024200003B0DF
:10EFF0003CBC90469946A246AB46F0BD280005F0C1
:10F00000FEFF00280CD153464A465946280007F017
:10F0100059F9041EF2D0E9E71C4CE7E71C4CE5E780
:10F02000280005F0ECFFF96D013881421DD2411A2C
:10F03000280006F041F9041ED8D100220021280042
:10F0400005F097FF041ED1D100220121280005F010
:10F0500090FF041ECAD1FB6DFE2B0DD03B6B002B25
:10F06000C3D0FB6B002BC1D096E70122280005F02E
:10F0700080FF041EE1D0B9E700220221280005F03C
:10F0800078FF0028EAD00400B0E7C04680B0FFFF58
:10F0900000B3FFFFF0B5C6460C0000B5010082B01A
:10F0A000200015001E0001F0CDFA002803D002B0A8
:10F0B00004BC9046F0BD27007C3733002A0039009D
:10F0C0002000FFF753FF0028F1D139002000FFF79F
:10F0D00011FF0028EBD128239846A0444146200088
:10F0E000FFF7FAFB0028E2D1210001968831009554
:10F0F00043463A002000FEF7C1FFD8E7F0B5464688
:10F10000D6464F46C0B50378AAB004000E00002BC7
:10F1100000D1F6E00A789A4200D0F2E088239846BF
:10F1200088444146883006F0AFF9002800D0E8E076
:10F13000942399462000B1444946943006F0A4F93E
:10F14000002800D0DDE0A0239A462000B244A03081
:10F15000514606F099F9041E00D0D2E002A805F04D
:10F1600013FE05A805F010FE08A80BAD05F00CFE77
:10F170000CA82C7005F008FE0FA805F005FE12A8DB
:10F1800005F002FE15A805F0FFFD18A805F0FCFD2E
:10F190001BA805F0F9FD1EA805F0F6FDAC65EC65B1
:10F1A0002C666C66AC66EC662C676C67AC673400EA
:10F1B0003178280001F046FA2B6B2834002B00D15F
:10F1C0007EE0EB6B7C36002B00D17BE00121300030
:10F1D00006F0A1F9002800DA91E01EA9300006F03F
:10F1E00053F9002800DB8AE021002800FFF774FBB8
:10F1F000071E09D1019000902300320002A92800C7
:10F20000FEF73CFF071E4FD002A805F0C3FD05A87E
:10F2100005F0C0FD08A805F0BDFD2B6E012B2DD11A
:10F22000686F00281BD0AB6F0026002B15D0F400B0
:10F23000A419A4000419002C1CD0200005F0AAFD7C
:10F2400020000C3005F0A6FD2000183005F0A2FDCE
:10F25000AB6F0136686F9E42E9D3F9F741F87C2124
:10F260002800F9F74FF838002AB01CBC90469946A0
:10F27000A246F0BD01369E42D9D3EEE70CA805F0B8
:10F2800089FD0FA805F086FD12A805F083FD15A8DD
:10F2900005F080FD18A805F07DFD1BA805F07AFD9E
:10F2A0001EA805F077FDBBE7414602A806F0ECF882
:10F2B000002805D1494605A806F0E6F8002822D026
:10F2C000154FA1E70021300005F043FE002816D1BC
:10F2D0000121300005F03DFE002810D1300005F07E
:10F2E0008EFEEB6D0138984209D1FE2800D07BE7F5
:10F2F0000221300005F02DFE002800D174E7074FF1
:10F3000082E7054FAFE7514608A806F0BDF8071E93
:10F3100000D179E7004F77E780B0FFFF80B3FFFFB0
:10F320000138C3B20020042B01D8014AD05C7047D9
:10F330004CDA0110F0B5CE46474680B5446805006A
:10F34000A5B000200E2C27D92600012301AF0E3EC8
:10F3500001937E600E2E5CD815AB3C220021180074
:10F360009846BB60F1F7EBF938229446AB68B200DF
:10F370006344994619004046F1F7C5F9264B002130
:10F38000E21892004846F1F7DAF93A00290028001D
:10F3900006F069F9002804D025B00CBC90469946C7
:10F3A000F0BD04AC23003A0043CA43C307A841465A
:10F3B0003822A060F1F7A7F9E021200005F07CFFDA
:10F3C0000028E9D122002900280006F04CF9002885
:10F3D000E2D17A68072A07D9104B00219C46624483
:10F3E00092001CA8F1F7ABF922003900380006F0B2
:10F3F0003AF90028D0D10F23E02138007B6005F0D6
:10F4000007FF0028C8D13A002900280006F02BF990
:10F41000C2E70348C0E7C046F2FFFF3FF9FFFF3FE6
:10F4200080B0FFFF70B54468050090B00020072C45
:10F4300018D90123073C03930494092C38D806AE4D
:10F440002822002130000596F1F779F9A968A20079
:10F450001C313000F1F757F91F2103A805F02CFFEC
:10F46000002801D010B070BD049B00220193FF2141
:10F4700001332800049305F07CFD0028F2D16A686E
:10F48000082A08D90B4BA8689C4662449200203099
:10F490000021F1F754F903A91322080006F0C2F97C
:10F4A0000028DFD103AA2900280006F046F8D9E792
:10F4B0000148D7E7F8FFFF3F80B0FFFF10B5426873
:10F4C000040096B00020102A27D90123103A019396
:10F4D000122A24D802929200A16804A84031039015
:10F4E000F1F711F9092101A805F0E6FE002814D171
:10F4F000A0686268036CDB05DB0D0364112A07D981
:10F50000094B44309C46624492000021F1F717F900
:10F5100001AA2100200006F010F816B010BD122339
:10F5200048220293D8E7C046EFFFFF3FF0B5DE4622
:10F5300057464E464546E0B50C2187B0040005F01D
:10F540003DFC0190002800D0B8E0A368626898698B
:10F5500019689E6A44188442894134191C60B44277
:10F56000A4415D6892009A18494203924A19DD69E4
:10F570006442A846A1469044C1448A428941A145BB
:10F58000A44149426442DD6A0919DC69AC46A045E0
:10F590009241CC4452428918AC4592419C685242F7
:10F5A00089180A198A428941DC6849426746A0469F
:10F5B0008C468218E0445F6082428041DF694446A5
:10F5C000BC4640421F6A059101198C44049464466C
:10F5D000BC4662440294BA42A4416742029CBB46C4
:10F5E000A246B2189A60B24292415C6ADA44814201
:10F5F0008941DA458041A04652429146AC4640429C
:10F600004942D04409180298C144CC4491459241E2
:10F610008146D86952428145804189184042081884
:10F62000A0458941AC459241494240185242801858
:10F63000049A059990468845924152428218586929
:10F6400067468446186A196980465118914292416A
:10F650004144814280415242944440428246604447
:10F660008919DF600719B846B142B641A045A441E7
:10F670007642B044196141466442A146B045B64164
:10F680005045A4414919A942AD4194459241180001
:10F6900064427642A4194C446D4265195242AA183C
:10F6A00059619A61039A1C30824207D9D21A1D3AD5
:10F6B0009208013292000021F1F741F8019807B059
:10F6C0003CBC90469946A246AB46F0BDF0B5DE463E
:10F6D00057464E46454601230400E0B59DB00890CC
:10F6E0000C930FA80C33342200210D930E90F1F7E8
:10F6F00026F81821200005F061FB0790002800D0B3
:10F7000057E2A068036B416D98460368026D43445D
:10F710001E00CC1815194645B6418C42A441C36D54
:10F7200064427642A6199542A44101929D429241BB
:10F7300064425242A419A41AED1A0091056042686D
:10F74000611C00D13DE21219A242A4416442456B02
:10F750004746AC4629000295856D6244AB46AD181C
:10F760008A4292415E1952425D45AD4112199E4254
:10F77000A4416D42AA186442A2184645A4416442BD
:10F78000141B019AF71B9742AD41BF1A6D42826864
:10F79000641B47601519002C00DA56E2A542A4410B
:10F7A0006442816B029E8C4665445A1903918D42D6
:10F7B000AD4102999A42BF41961B8A4292417F42D3
:10F7C0006D427D195242AD1A009A9642BF417F4266
:10F7D000B61AED1BC2682D1986605419002D00DA87
:10F7E0002EE2AC42AD416A429146C16B47468C461F
:10F7F0006444A2465C46019A5744D619009A47458C
:10F80000BF419519039A0591AA1A141BA4468A456B
:10F81000A44101997F428E42B641009964423C194D
:10F820008D42BF41039976427F4234198D42AD41EA
:10F830003C195A45BF416D42641B7F42E71B9C4502
:10F84000A441624664423F1BD21A4F44C26002691F
:10F850007FB2D419002F00DAEDE1BC42BF417A42F9
:10F860000492009A47469446644421008A46140054
:10F87000524492460A91016CA245A4410A005244A6
:10F88000914664420B940A9C029AA24606918945CD
:10F8900089419446009C4942A245A441CC448946F2
:10F8A000029964428C4589415A460A940B9C019DF9
:10F8B000A24667444942EE198C464745BF41951917
:10F8C0000199059A0A9CAA1A8E42B641544409929B
:10F8D0004C4464447F4209993C195D45BF418C46C4
:10F8E00076423419059E7F42B542AD413C199C4594
:10F8F000BF416D42D21A641B7F42E71B04999A42B2
:10F90000A4418C4664423F1BD21A6744026142699B
:10F910007FB2D419002F00DA88E1BC42BF417A429D
:10F920009246426C5C440399A04694460D00D8442C
:10F93000C44465442F00029D0492EE19009D5C456D
:10F94000A441AD195A199146D84592415242904668
:10F95000049A8F42BF419445924152429446029983
:10F96000009A64428E42B64144447F429542AD4182
:10F9700064443C199945BF41764234196D42069959
:10F980002C197F423F198945A4414A4664423F1BD6
:10F99000574486697FB2541A4461F519002F00DA82
:10F9A0003FE1BD42BF417A4292465D195A199046E5
:10F9B000846C0599A4460E0098459241C44466445F
:10F9C000524237009046A4459241039E9D42AD416C
:10F9D000F6195242B14694468F42BF416D42039997
:10F9E0004544D9447F428E42B64165447D19D9458C
:10F9F000BF417642049975197F427F198945AD410F
:10FA00004A466D427E1B551A56448561C56976B2D9
:10FA1000AF19002E00DAFFE0B742B64172429246BB
:10FA20000699059E88463200C56C9946EF19B84480
:10FA3000424494468845924152429046B445924190
:10FA4000E14452429446AF42BF41994592417F42C0
:10FA5000524247449046A14592416744524247442E
:10FA6000BF1A4A463E00171B026A5644C7619446B5
:10FA70009719002E00DACAE0B742B64172429146A9
:10FA8000019A049E94466744F1198C460699974260
:10FA9000BF410E006644B046049E88459241B4457D
:10FAA000B6417642B44652427F4267449446A845E6
:10FAB000924167445242BF1A42463E00571B426A77
:10FAC0004E44076290469719002E00DA9BE0B74239
:10FAD000B641764200998C466744E21994460499EF
:10FAE000A445924188465242E0449446009A974287
:10FAF000BF41884592417F42019952426744D719DC
:10FB0000884592415242BF1A4246BE19876A521A2C
:10FB10004262BA19002E00DA71E0B242BF417F4260
:10FB20005A441600AA189446AC4589415E45B64130
:10FB300049428C46A21800997642A242A441B4449C
:10FB40008A42B6416442511A64447642A61B8162DD
:10FB5000C16AF6198A19002E4DDBB242B6417642CF
:10FB6000019F9A18BC1829199A429B41BC42A44192
:10FB70005B42A942AD416442E41859459B416D4244
:10FB80005B422D19ED1A5B46AE19C91AF343DB1718
:10FB900033400363089BC1625A680D2A07D92D4B75
:10FBA00034309C46624492000021F0F7C8FD002EDC
:10FBB0000CDB07981DB03CBC90469946A246AB466C
:10FBC000F0BD54425441013A6442C0E5224A0D9BC3
:10FBD0009446089C0E9A63449B00764200929E5085
:10FBE0000CA92200200005F000FD0028E1D101232E
:10FBF0005B422360DDE77642B142B641B0E7764230
:10FC0000B742BF418CE77642B045B64162E77642E3
:10FC1000B4459241914633E77642B54292419246CD
:10FC2000FEE67F42BE4292419246BEE67F42BA4223
:10FC30009241924675E67F42BA429241049210E6A2
:10FC40006D42AA4292419146CFE56442A242A4414C
:10FC5000A7E5C046F3FFFF3FFFFFFF3FF0B5CE46ED
:10FC6000474680B54468050095B00020072C2AD986
:10FC7000012306930393093B98463C4AA04408920B
:10FC80004346022209AF07920597082B20D92C2260
:10FC900000213800F0F753FDAE68202220363100F5
:10FCA0003800F0F730FD0A230493314B0021E218AD
:10FCB00092003000F0F743FD03A906AA080005F002
:10FCC0003EFD002816D015B00CBC90469946F0BDFC
:10FCD0002A3200213800F0F732FD4346AE689A0020
:10FCE000203631003800F0F70EFDA31F0493082CD6
:10FCF000DBD1E1E703AA2900280005F01EFC00285B
:10FD0000E1D108235B4298466C68A0444346082B27
:10FD100027D89B0099462C2200213800F0F70FFDD0
:10FD2000AE684A46203631003800F0F7ECFC079BFD
:10FD3000019343440493082C06D90D4B0021E2188B
:10FD400092003000F0F7FBFC03A906AA080005F0BA
:10FD5000F6FC0028B7D103AA2900280005F0EDFB26
:10FD6000B1E720239946183B9846D4E79CCD00087C
:10FD7000F8FFFF3FF0B5DE4657464E4645460123A5
:10FD8000E0B506008FB0039306A8073320220021B8
:10FD900004930590F0F7D3FC0E21300005F00EF827
:10FDA000071E00D0B4E0B068C26903689246C16A19
:10FDB0009A1A53459B418C468A4289415B42C91A33
:10FDC0006346D21A026043680022002900D0ACE0EA
:10FDD000016A056B8946591A4B459B415B42D21A11
:10FDE000A9429B415B42D21A8368491B52B29B468F
:10FDF00041600023002A00D09DE0426A446B904697
:10FE00005A464146511AC345924152429B1AA14259
:10FE1000924152429B1A0022091B5BB28160009200
:10FE2000C168002B00D08CE05246836AD21A521867
:10FE30009346994289415245924149425242521A4F
:10FE40000099E3448A469244E3459241594652421E
:10FE50005244C160016952B201938B189B46002A3B
:10FE60005EDB9345924153429A464B4662469A1A4C
:10FE70005A44A918E3459B414A4592415B4252428C
:10FE8000D31AA94292419B4652425A4401614169A8
:10FE900052448B189946002A6EDB9145924151429B
:10FEA00043465A1B4A44A318A945AD4142459241D5
:10FEB0009C4652426D42531BA445AD419846634651
:10FEC0006D4245446D18816943614A19002D57DB25
:10FED000AA42AD416D42019B191B8918A242A4415F
:10FEE00099429B4164425B421C1B6419E343726864
:10FEF000DB1723408161C361082A07D9224B2030D8
:10FF00009C46624492000021F0F719FC002C1FDB94
:10FF100038000FB03CBC90469946A246AB46F0BDB7
:10FF2000524291429B419A469FE74A4293429241F4
:10FF30005B18D2B24CE753429B459B419344DBB2E2
:10FF40005BE75A4291429241D2B20092C9186BE7E4
:10FF50000E4A049B9446059A63449B0064420092B7
:10FF60009C5003A93200300005F03FFB0028CFD1A0
:10FF700001235B423360CBE75242914289418FE7D4
:10FF80006D42A942AD41A6E7F8FFFF3FFFFFFF3FEB
:10FF9000F0B5DE4657464E46454601230400E0B51F
:10FFA00095B0069008930BA80833242200210993EA
:10FFB0000A90F0F7C4FB1021200004F0FFFE05902A
:10FFC000002800D0EEE1A068036A02689C46456AFA
:10FFD0006244914602932B00C46A4B44066B1F1B7C
:10FFE000416BA346BC1B621A9446826B0395019237
:10FFF000AB429241029D52429046A94592415B45D7
:020000041001E9
:100000009B4152425B424244B742BF41D21A8C42AA
:100010009B417F42D21B019C5B42D31A6246A4459E
:10002000BF41121B7F4202604268DB1BD718002BC6
:1000300000DABFE19F429B415B42039A856A944686
:100040006744AC46BC446446A41B621AA046019CAB
:100050000495141BA146C46B0094AC45A441039DB8
:100060006442AF42BF41A246B445A4417F426442CC
:1000700057443F1B019D8845A441AA4292416442D6
:100080003F1B009C5242BF1AA14592415242BF1AE7
:100090004A46121B42608268FB18D718002B00DA10
:1000A000B7E19F429B412C005B42049DAC466744F4
:1000B000BC46DC446246521A141BA046DC45A441EF
:1000C000AF42BF416442A1468C45A4417F42644295
:1000D0004F443F1B019CA2429241009C5242BF1AD6
:1000E000A04592415242BF1A4246FB18C768121BF4
:1000F0008260FA18002B00DA86E19A429B415B424B
:1001000007935A449146B046B446D944C844C444BF
:100110006346029DCF183B1B5C1BA246D945A441F8
:100120006442A146B045A4416442A046B445A441FE
:100130006442A4465A4592418F42A44152426442CD
:100140004A44A146009CAB429B41A742BF41424466
:1001500062447F424A44D21B5B42D31A039A079CF3
:100160009245BF41A44654467F42DB1BA21A63441A
:10017000C26002695BB2D718002B00DA40E19F42EF
:100180009B415B42F719F219914688468C46C84458
:10019000019DC444AA466246039D5244541BA24694
:1001A000B145A4416442A1468845A4416442A046A9
:1001B0008C45A4416442A446019CB742BF41A2427F
:1001C000A4417F4264424F44AA429241A14647441F
:1001D000049D674452424F44BF1AAA45924152427D
:1001E000BF1A5246521BFB18026142695BB2D71814
:1001F000002B00DA00E19F429B415B42CF19CA19F4
:100200009146019A009D90469446C844C444AA462B
:100210006246049D5244541BA2468945A44164424F
:10022000A146019C8F42BF41A045A4416442A04623
:10023000019C7F42A445A4416442A446009C4F44D3
:10024000A242A4416442A146AA4292414744674463
:1002500052424F44BF1ADA4592415242BF1A5C469D
:100260005246121BFB18426182695BB2D718002B01
:1002700000DABDE09F4292415242019DAC46674484
:10028000EB199A46009B2C0099469846D144C844E5
:10029000C4446346029DCB185D1B01952500A24511
:1002A000A4416442A246009CAF42BF41A145A44183
:1002B0006442A146009CAC45AD41A045A4416442C6
:1002C000A0467F4257444F446D424744EF198B424A
:1002D000AD416D42EF19029D039CAB42AD41019BC4
:1002E0006D429C467D1BA445BF417F42EB1B9B1882
:1002F0006246C569121B5BB28261EA18002B00DA04
:1003000071E09A429B415B420193009B029C9C4698
:100310006244A4469F18DD19AC446346049C1C1B30
:10032000A14623005C461B1B98469B1B9A46009BDC
:10033000029C9F42BF419A4292419D42AD417F4201
:1003400052426D42BA18AA18A445AD41049C6D42B0
:10035000A445A441AA186442141BD9459241B04552
:10036000B6415242A41A7642A41B019B8A45B6416B
:100370009C4653467642A41B644464B2591AE34334
:10038000DB1723400362069BC1615A68092A07D91B
:10039000224B24309C46624492000021F0F7CFF9B2
:1003A000002C0BDB059815B03CBC90469946A24644
:1003B000AB46F0BD5B429A429B413EE6184A099B20
:1003C00094460A9A634464429B009C50069C0092A7
:1003D00008A92200200005F008F90028E2D1012335
:1003E0005B422360DEE75B429D429B4101938CE7C9
:1003F0005B429A42924140E75B429A429B41FDE652
:100400005B429A429B41BDE65B429F429B41079300
:1004100077E65B429A429B412C0046E6F7FFFF3F9E
:10042000FFFFFF3FF0B5CE46474680B54468050064
:1004300095B00020052C28D93C4A012308920222BD
:100440000693039309AFA31F079205979846062BBF
:1004500020D92C2200213800F0F771F9AE6818225B
:10046000183631003800F0F74EF908230493304B6A
:100470000021E21892003000F0F761F903A906AA02
:10048000080005F05CF9002816D015B00CBC9046A9
:100490009946F0BD2A3200213800F0F750F9434662
:1004A000AE689A00183631003800F0F72CF9231F97
:1004B0000493062CDBD1E1E703AA2900280005F00C
:1004C0003CF80028E1D16C68A31F9846062B27D87A
:1004D0009B0099462C2200213800F0F730F9AE68D5
:1004E0004A46183631003800F0F70DF9079B0193A2
:1004F00043440493062C06D90D4B0021E2189200C8
:100500003000F0F71CF903A906AA080005F017F956
:100510000028BAD103AA2900280005F00EF8B4E794
:1005200018239946123B9846D4E7C0468CCD000864
:10053000FAFFFF3FF0B5CE46474680B54468050058
:1005400095B00020062C28D93C4A012308920222AB
:100550000693039309AFE31F079205979846072B6D
:1005600020D92C2200213800F0F7E9F8AE681C22CF
:100570001C3631003800F0F7C6F809230493304BDD
:100580000021E21892003000F0F7D9F803A906AA7A
:10059000080005F0D4F8002816D015B00CBC904621
:1005A0009946F0BD2A3200213800F0F7C8F84346DA
:1005B000AE689A001C3631003800F0F7A4F8631FCB
:1005C0000493072CDBD1E1E703AA2900280004F0FB
:1005D000B4FF0028E1D16C68E31F9846072B27D8A9
:1005E0009B0099462C2200213800F0F7A8F8AE684D
:1005F0004A461C3631003800F0F785F8079B019316
:1006000043440493072C06D90D4B0021E2189200B5
:100610003000F0F794F803A906AA080005F08FF857
:100620000028BAD103AA2900280004F086FFB4E705
:100630001C239946153B9846D4E7C04694CD000844
:10064000F9FFFF3F70B504000D0084B0FDF78EFF89
:1006500025700D2D00D994E1CC4BAD005B599F4620
:10066000CB4B01A8636604F08FFB2000C94A102120
:10067000103005F0E3F8051E00D121E201A804F0D6
:1006800089FB2000FDF772FF26E0C34B012563665E
:100690000623C24AA360E260C14A23626262C14A81
:1006A00023656265C04AE362A363C04B6560E56190
:1006B000E564A56222636563E363BD4B25646564FD
:1006C000A364201D04F09BFCA06520004C3004F0C6
:1006D00096FC25660025E065280004B070BDB54B8A
:1006E000012563660823B44AA360E260B34A23622B
:1006F0006262B34A23656265B24AE362A3636560DE
:10070000E561E564A56222636563AF4BD4E7AF4B57
:10071000012563660C23AE4AA360E260AD4A236202
:100720006262AD4A23656265AC4AE362A3636560B9
:10073000E561E564A56222636563A94BBCE7A94B4B
:10074000012563660823A360A74BA84AE36007233B
:100750006262A74A23626265A64A2365E362A363D5
:100760006560E561E564A56222636563A24BA3E76A
:10077000A24B012563661123A14AA360E260A14A4E
:1007800023626262A04A23656265A04AE362A363B2
:100790006560E561E564A562226365639C4B8BE758
:1007A000082301259B4AA360E2609B4A6361A26122
:1007B0009A4A236262629A4A23656265994AE362B1
:1007C000A36365602561E561E564A56222636563F5
:1007D000954B71E70C230125944AA360E260944A8B
:1007E0006361A261934A23626262934A23656265F0
:1007F000924AE362A36365602561E561E564A562F1
:10080000226365638E4B57E7102301258D4AA36051
:10081000E2608D4A6361A2618C4A236262628C4A03
:10082000236562658B4AE362A36365602561E561C8
:10083000E564A56222636563874B3DE72000874B33
:10084000874A63661021103004F0F8FF051E00D0BF
:1008500017E7261D0121300004F061FB051E00D0C2
:100860000FE7FF21300004F0D3FC051E00D008E79D
:1008700013223100300004F050FF051E00D000E7C5
:10088000300004F0BCFB4836A065764A10213000E9
:1008900004F0D4FF051E00D0F3E60122FC21300055
:1008A00004F067FB051E00D0EBE62000092128308C
:1008B00004F035FB051E00D0E3E6200001214030A6
:1008C00004F02DFB051E00D0DBE62000343004F0E0
:1008D00061FAFE23E365FFE6634B012563660623A9
:1008E000624AA360E260624A2365A261614AE362F0
:1008F0006262614AA3636265604A65602561656101
:10090000E5612562E564A562226365635C4BD3E61D
:100910005C4A5D4BE2605D4A0125A2615C4A636608
:1009200062620822072322655A4AA36062655A4A16
:10093000E362A363656025616561E5612562E56445
:10094000A56222636563554BB6E6554B0125636688
:100950000823544AA360E260534A2365A261534AC4
:10096000E3626262524AA3636265524A656025612E
:100970006561E5612562E564A562226365634E4BAE
:100980009AE62000FDF7F2FD4C4DA5E674DB011060
:1009900035F3001038DF01102DF5001044E0011090
:1009A000E4DF01102CE00110FCDF011014E0011065
:1009B000A4CD000891FF001070E20110F0E10110D9
:1009C00050E2011010E2011030E20110CDF60010EB
:1009D00050E3011090E2011020E30110C0E2011089
:1009E000F0E2011075FD001048E10110D8E001109F
:1009F0002CE10110F4E0011010E10110BDF4001031
:100A000090E4011080E301104CE40110C4E30110F4
:100A100008E401104CDC0110ACDB0110CCDB011050
:100A20002CDC0110ECDB01100CDC01105CDD011092
:100A30006CDC01109CDC01102CDD0110CCDC011001
:100A4000FCDC0110CCDE01108CDD0110CCDD0110CE
:100A50008CDE01100CDE01104CDE011025F40010BC
:100A60000CDF011014DF011025040110CCDF011090
:100A70007CDF011080DF0110B4DF011084DF011082
:100A80009CDF0110BCE00110350501105CE0011095
:100A900060E001109CE0011064E0011080E00110B2
:100AA0005DFC0010D0E1011068E101106CE1011063
:100AB000B0E1011070E1011090E1011080B1FFFF81
:100AC000261D0121300004F02AFA051E00D0D5E5CC
:100AD000E021300004F09CFB051E00D0CEE5012291
:100AE0003100300004F019FE051E00D0C6E5E021FB
:100AF000300004F08DFB051E00D0BFE5012231005F
:100B0000300004F00AFE051E00D0B7E5300004F006
:100B100076FAA06520000521283004F000FA051EB1
:100B200000D0ABE520000121403004F0F8F9051EAB
:100B300000D0A3E52000343004F02CF9DF21483642
:100B400001224900300004F014FA051E00D095E59A
:100B50000B4A102101A804F071FE051E00D08DE59E
:100B600001AA3100300004F0A2FD051E00D085E589
:100B7000C023FF33E36501A804F00CF9ACE5C046DF
:100B800040DF011010B594210AF008FE10BDC046E8
:100B900010B5002802D094210AF02EFE10BDC046E8
:100BA000020000B5343283B00092031D94220AF093
:100BB000B7FE03B000BDC0460A0053425A410300CD
:100BC00010B5011D013234330AF042FE10BDC0469B
:100BD00010B504000020002A06D0201D13000A00D2
:100BE000010020000AF060FE10BDC04610B50A00EA
:100BF000011D0AF077FE10BD10B5F4210AF0CEFDFC
:100C000010BDC04610B5002802D0F4210AF0F4FD52
:100C100010BDC046020000B5343283B00092031DFF
:100C2000F4220AF07DFE03B000BDC0460A00534224
:100C30005A41030010B5011D033234330AF008FE97
:100C400010BDC04610B504000020002A06D0201DAB
:100C500013000A00010020000AF026FE10BDC04665
:100C600010B50A00011D0AF03DFE10BD421E030032
:100C7000042A05D88000C018024BC000C018704775
:100C80000020FCE7D4E40110F0B54E46DE464546B0
:100C90005746E0B5040087B0080015000392994656
:100CA000FFF7E4FF061E00D1A0E0002D00D19DE07B
:100CB000A24B4568984629239B4643465A461B68E3
:100CC00000219B5C0A3A924696229A459B41120368
:100CD0001340A022120294466A1E634413430492F6
:100CE0002000122213F032F843465A46EF1DFF0847
:100CF000F9001B6805919B5C87229A459B41120372
:100D000013409022120294464A1E6344134300216A
:100D10001222200013F01AF8894B19689B468B6B3E
:100D2000E3181A680B6924331B191B689B009B0C82
:100D30009B0099184B46002B14D03A001098C847D6
:100D4000002834D07F4DC0231322DB000021200077
:100D500012F0FCFF280007B03CBC90469946A24622
:100D6000AB46F0BD2F1E22DD5346049AAA469A4395
:100D70002B00203B9B1AB1460D001E001F2F00DCEC
:100D8000D9E020234146292209688A5C00951F2A60
:100D900000D8CAE06C4A6D49200013F0C1FC00285D
:100DA000D0D1203F0435B742E8D14E4655460921FF
:100DB000200003F051FD059BAB4200D991E0644B4C
:100DC00030220021200012F0C1FF42462923126880
:100DD000D35C1F2B0CD85B4680211B681A68A218B5
:100DE00013681942FCD1E0231B020AE0594DB1E718
:100DF0005B461B681A68A2181368002BFCD1E0231D
:100E00001B03049A002113432000122212F09EFFBC
:100E1000B2690E2120002B0003F0AAFB0E220A214A
:100E2000200003F0F1FC00280ED080231322DB0108
:100E30000021200012F08AFF2B000A2203992000D3
:100E400003F022FC00257EE729239A4643465246BA
:100E50001B6820009B5C0A3A9146C32299459B413E
:100E600012031340D0221202944663442B436F1C9A
:100E70001222002112F06AFF3B00F26920000D21CE
:100E800003F076FB434652461B6820009B5CF02231
:100E900099459B41D2021340802212029446049A43
:100EA00063441A4313000021122212F04FFF2A4B11
:100EB00030220021200012F049FF307B03F0F8F9C6
:100EC000280003F0C9F92B00200008220A2100F0B5
:100ED0004BFE842313229B010021200012F036FFD9
:100EE000A3E729229146424649461F2712685B1B09
:100EF000525C20009742924152420C3293401A00B9
:100F000080239B0513430021802212F01FFF4346DC
:100F10004A461B6800219B5C00229F4252412000F0
:100F200023320E4B12F012FF49E7074A074920000F
:100F300013F0BAFB33E73B0024E7C04618E801088A
:100F4000D8C2010801003200E146D2528D0B746C08
:100F500009A000000B0032000A80000098900000F9
:100F6000F0B55746DE464E464546E0B5040085B02E
:100F700008008A4615001F00FFF778FE061E00D104
:100F8000D9E00395002D00D1D5E0002F00D1D2E0AB
:100F90007968002900D1CEE0B968002900D1CAE003
:100FA0006949456889462921884649464046096875
:100FB000D2220B5C1F218B46E0219B459B410902FD
:100FC0008C46120313406344691E0B4302911222A4
:100FD0000021200012F0BAFE4846424600680299FD
:100FE000835C9020872200029B459B41844612032C
:100FF000134063440B4312220021200012F0A6FE8E
:101000004A46404612680021135CC3229B459B411F
:1010100012031340D0221202944663442B4312223F
:10102000200012F093FE4A46404612680299135C73
:10103000A5229B459B4112031340B0221202944605
:1010400063440B4312220021200012F07FFE4A4627
:10105000404612680299135CB4229B459B411203DF
:101060001340C0221202944663440B431222002113
:10107000200012F06BFE2B0032690E21200003F0DD
:1010800077FA2B00B2690921200003F071FA6B1C7A
:1010900072690D21200003F06BFA2B00326A0B21DC
:1010A000200003F065FA2B00726A0C21200003F087
:1010B0005FFA280003F0D0F8307B03F0F9F84846D7
:1010C000036840461B5CA020962200029B459B4182
:1010D000844612030299134063440B4312220021F9
:1010E000200012F033FE2B00039A0A21200003F0A7
:1010F0003FFA09230C2200930B21013320000195B4
:1011000003F0DCF82B000B227968200003F0BCFA16
:101110002B000C22B968200003F0B6FA00233B70C4
:1011200053467B70FC232000DB011322002112F0C8
:101130000DFE002000E0054805B03CBC90469946F5
:10114000A246AB46F0BDC04618E801080B003200CD
:10115000F0B557464E46DE464546E0B50400ABB016
:101160000E0092461F00002900D19FE0002B00D105
:101170009CE0349B002B00D198E0359B002B00D1E4
:1011800094E0349B5878FFF771FD8046002800D129
:1011900095E04368359A994608AB059319AB0693D9
:1011A000349B2000597804ABFFF7DAFE051E7ED190
:1011B000DC4B00219B461A682923D35C1F229446EE
:1011C000D2229C459B4112031340E0221202944616
:1011D0004A466344013A134303922000122212F05C
:1011E000B5FD41464B468A6920000E2103F0C0F947
:1011F000594629230968C322CB5C1F218C46D02184
:101200009C459B4109028C464946120313406344A6
:101210000B4312220021200012F098FD41464B465C
:10122000CA6920000D2103F0A3F959462923096852
:101230008722CB5C1F218C4690219C459B41090253
:101240008C4612031340039A634413430021122275
:10125000200012F07BFD5946292309689622CB5CB9
:101260001F218C46A0219C459B4109028C461203FC
:101270001340039A6344134300211222200012F00A
:1012800065FD09212000059A4B4603F071F90921FB
:10129000200003F069FA002813D0A34DCC231322B9
:1012A000DB010021200012F051FD00E09E4D2800DE
:1012B0002BB03CBC90469946A246AB46F0BD9B4D38
:1012C000F5E75B461A682923D35C1F229446F02277
:1012D0009C459B41D2021340802212029446039AFD
:1012E0006344134300211222200012F02FFD5246C6
:1012F000D20092465A46292312680021D35C1F224D
:101300009446A5229C459B4112031340B022120231
:10131000944652466344013A13432000122212F0CD
:1013200015FD0E220921200003F06EFA002800D0DE
:1013300099E07F4B30220021200012F007FD5A4631
:1013400029231268D35C1F2B00D99DE08021794BA3
:1013500098461B681A68A21813681942FCD14B46BC
:1013600008220921200000F0FFFB390020004B4635
:10137000092203F089F90921200003F0F5F900287A
:1013800068D1349B0821DA6820004B4603F0F0F85E
:10139000022002F08DFF4B46082200930A21092308
:1013A000200000F0C7FC0B2120005346320003F060
:1013B000DFF80B21200003F04FFACA4500D987E07F
:1013C0000E220B21200003F01FFA002865D04B46A7
:1013D000359A0921200003F0CBF80A230B220A21B9
:1013E000200002F065F8039B12220021200012F079
:1013F000ADFC0A2330220021200012F0A7FC5B463E
:101400001A682923D35C1F2B36D8434680211B68DA
:101410001A68A21813681942FCD14B4600220093A7
:101420000A210923200002F083F800212000012373
:10143000132212F08BFC0A21200003F095F90028FA
:1014400008D14B46D91DC90879180A22200003F09B
:101450001BF900E0384D902313221B0100212000CE
:1014600012F074FC1AE74B4609223900200003F001
:101470000BF9304B984684E743461B681A68A2185C
:101480001368002BFCD1C8E72A4B98461B681A68E2
:10149000A2181368002BFCD161E7284B30220021F1
:1014A000200012F053FC5A4629231268D35C1F2BEC
:1014B0002FD8434680211B681A68A2181368194266
:1014C000FCD14B4608220B21200000F04DFB7EE7AB
:1014D0004A4653461F219B1A5A4629268A461268B5
:1014E0002000925D00219245924152420C3293407D
:1014F000802212F02BFC5B46514600221B68200024
:101500009B5D994252410E4B2332002112F01EFC8A
:1015100056E743461B681A68A2181368002BFCD1D3
:10152000CFE7C04618E801080B0032000A0032007D
:1015300009800000D8C20108010032000B800000C1
:10154000B0B00000F0B55746DE464E464546E0B521
:1015500087B004000F1E9246039300D12AE2002AAE
:1015600000D127E2109B002B00D123E2119B002B1E
:1015700000D11FE25878FFF779FB8046002800D1A0
:101580002CE246680220F21DD308049302F090FE7C
:10159000300002F061FEBA4A1F2591462922934687
:1015A0004A46594612682000535CD2229D429B4114
:1015B00012031340E02212029446721E6344134346
:1015C00002920021122212F0C1FB414633008A69C7
:1015D00020000E2102F0CCFF494658460968731CD2
:1015E00005930B5CD021C3229D429B4109028C468E
:1015F000120313406344334312220021200012F0EF
:10160000A5FB4146731CCA6920000D2102F0B0FF02
:10161000494658460968F0220B5C80219D429B4157
:10162000C9018C4692021340029A6344134300217D
:101630001222200012F08AFB494658460968029A95
:101640000B5CA0219D429B419625C9018C46ED0271
:101650002B406344134300211222200012F076FB3A
:101660003A0033000421200002F082FF049B052190
:10167000FA182000330002F07BFF0421200003F061
:1016800073F8451EA8417F4F45420E2204212000D9
:101690003D4003F0B9F8002800D13D0005212000AD
:1016A00003F062F80E220521002800D08BE1200013
:1016B00003F0AAF8002800D192E1002D00D0CDE17E
:1016C00029239B464B465A461F271B6800219B5CDB
:1016D000B4229F429B41D2021340C022D2019446C1
:1016E000029A634413432000122212F02FFB4B4650
:1016F00059461B68D2225B5CE0219F429B41C90195
:101700008C46D2021340029A6344134300211222F2
:10171000200012F01BFB4B4659461B6887225B5C7E
:1017200090219F429B4109028C4612031340029A6A
:101730006344134300211222200012F007FB4B46A2
:1017400059461B6896225B5CA0219F429B4109027F
:101750008C4612031340029A634413430021122261
:10176000200012F0F3FA4B4659461B68A5225B5C39
:10177000B0219F429B4109028C4612031340029AFA
:101780006344134300211222200012F0DFFA4B467B
:1017900059461B68B4225B5CC0219F429B410902F1
:1017A0008C4612031340029A634413430021122211
:1017B000200012F0CBFAC0233422DB0100212000EC
:1017C00012F0C4FA039B5A46D9004B461B6820000E
:1017D0009B5CF0229F429B41D20213408022120266
:1017E00094464A1E6344134303911222002112F0CF
:1017F000ADFA802334221B020021200012F0A6FA49
:10180000039B52460821200002F0B2FE082120006E
:1018100003F022F80399B14200D902E11A4B3022B9
:101820000021200012F092FA802313225B00002195
:10183000200012F08BFA4B4629271B680021DA5D45
:101840001F2393429B41F022D202134080221202B6
:101850009446029A634413432000122212F076FA4F
:10186000122200212000029B12F070FA0E220621A3
:10187000200002F0C9FF002800D1B8E006E0C04611
:1018800018E801080B003200086000000023352230
:101890000021200012F05AFA052300220521200021
:1018A000009601F045FE0523062206212000009641
:1018B00000F040FA0422072105232000009600F0E2
:1018C00039FA4346187B02F0F3FC424633001269B2
:1018D0000E21200002F04CFE4246059B52690D216C
:1018E000200002F045FE42463300126A0921200022
:1018F00002F03EFE434608275A6A0A2133002000C0
:1019000002F036FE119B0B215B6820000293029AC5
:10191000330002F02DFE119B0C219A682000330049
:1019200002F026FE06230A220921200001960097D4
:1019300002F0C4FC07230C220B2120000196009723
:1019400002F0BCFC0A230C220021200001F0D0FD93
:1019500009230B220521200001F0CAFD05230022E6
:1019600005212000009601F0E3FD3300052205214A
:10197000200001F0D5FD092305220521200001F0FA
:10198000B7FD0B2305220521200001F0B1FD8023C6
:101990001322002120005B0012F0D8F90422052157
:1019A000200002F009FF00281DD00123109A1370B7
:1019B0002F4B0DE02F4D280007B03CBC90469946B8
:1019C000A246AB46F0BD200002F01EFF294D2A4B77
:1019D00013220021200012F0B9F9ECE7274DEAE7C5
:1019E000244D254BF4E7109B1870214BF0E7244B56
:1019F00030220021200012F0A9F94B461B68DB5D64
:101A00001F2B2DD880211F4B1B681A68A218136842
:101A10001942FCD1330008220621200000F0A4F86E
:101A200034E74A468B1B594612682000525C00215D
:101A30009742924152420C329340802212F086F932
:101A40004B465A461B6800219B5C2A009F426A4114
:101A5000200023320C4B12F079F9DFE6064BB7E792
:101A6000084B1B681A68A2181368002BFCD1D1E739
:101A7000F17E00000B003200306000000A003200EE
:101A800006800000D8C2010880800000F8B504007C
:101A900000231022002112F059F920002A4B0022C5
:101AA000002112F053F9C02329261F2520009B0195
:101AB0000022002112F04AF9244FF0223B68120262
:101AC0009B5D20009D429B411340214A002194468A
:101AD0001222634412F03AF93B681E4A9B5D944619
:101AE0009D429B411340634420008022002112F05C
:101AF0002DF900223B6820009B5D00219D42524150
:101B0000154B233212F022F92000144B362200210B
:101B100012F01CF92000124B3D22002112F016F9A0
:101B20002000104B3722002112F010F92000022370
:101B30001322002112F00AF90023112200212000B3
:101B400012F004F9F8BDC0460120000018E80108B1
:101B50000812000000902000302000002320000028
:101B60002E0040002E203000F0B5D6464F464646A7
:101B70009A46C0B515000E00002310220021040073
:101B800012F0E4F88023DB0133432000002200211F
:101B900012F0DCF8C0239B012B432000002200211F
:101BA00012F0D4F853465A002923984641461F257F
:101BB000594F013A3B6820005B5CF0219D429B41FC
:101BC00049020B40802189018C4663441343002164
:101BD000122212F0BBF842463B6820009B5CF022C8
:101BE0009D429B411202914613408022520194462D
:101BF00052466344013A13430021122212F0A6F820
:101C000042463B6820009B5C52469D429B415B42A2
:101C10000C339A4000211300802212F097F800261E
:101C200042463B6820009B5C32009D42724100218D
:101C300023323A4B12F08AF82000394B332200212C
:101C400012F084F842463B6820009B5C00219D42D4
:101C50007641812332005B01233212F077F82000B5
:101C6000304B3322002112F071F82000022313229E
:101C7000002112F06BF842463B6820009B5C00217B
:101C80009D42AD414B461D4080235B019C4653461F
:101C900065445F1C2B00173A3B4312F057F83B009A
:101CA00020001222002112F051F8200032233722A6
:101CB000002112F04BF820001B4B3722002112F0BC
:101CC00045F82000194B0322002112F03FF82000B4
:101CD0001E233722002112F039F82000144B302245
:101CE000002112F033F8C12320009B033022002191
:101CF00012F02CF8200007231322002112F026F8FE
:101D0000002311220021200012F020F81CBC904674
:101D10009946A246F0BDC04618E8010830400000D0
:101D20004D2000001E2000000E100000100040009A
:101D300001404000F0B5C64600B51D0088B00F0058
:101D40001600002310220021040011F0FFFF802361
:101D50005B013B4300220021200011F0F7FF8023AC
:101D60009B01334300220021200011F0EFFFC0232C
:101D70009B012B4300220021200011F0E7FF0E9B66
:101D800012225B00013B0021200011F0DFFF232322
:101D900033220021200011F0D9FF2923864D2A6823
:101DA000D35C1F2B15D88021844B1B681A68A2189E
:101DB00013681942FCD1824B1B78002B14D0012BE5
:101DC0001AD1804B1B78052B1CD87F4A9B00D35817
:101DD0009F467A4B1B681A68A2181368002BFCD127
:101DE000774B1B78002BEAD1764B1B78052B09D853
:101DF000764A9B00D3589F460E9B0022012120006B
:101E0000FFF7B2FE200001231322002111F09EFFF4
:101E1000002311220021200011F098FF08B004BC1B
:101E20009046F0BD2000FFF731FEEBE701AE320037
:101E3000674B1C3383CB83C21968200011601B7968
:101E4000002113710023102211F080FF614B00224A
:101E50000021200011F07AFFA0230022DB010021E5
:101E6000200011F073FF802312229B00002120002C
:101E700011F06CFF2923984642461F272B6800214A
:101E80009B5CF0229F429B4112021340524A200069
:101E900094461222634411F059FF42462B680021F8
:101EA0009B5CB4229F429B41D2021340C122D201CB
:101EB000944620006344122211F048FF42462B68EA
:101EC00000219B5CC0229F429B41D2021340434AA7
:101ED000200094468022634411F038FF42462B686C
:101EE00000219B5CC0229F429B41520313403C4A0D
:101EF000200094468022634411F028FF32008123A1
:101F00000621200002F034FB002642462B68002107
:101F10009B5C32009F42724120002332314B11F012
:101F200015FF314B30220021200011F00FFF162346
:101F300033220021200011F009FF04233622002162
:101F4000200011F003FF42462B6800219B5C20001B
:101F50009F4276413200254B233211F0F7FE802359
:101F60003022DB010021200011F0F0FE1623332285
:101F70000021200011F0EAFE1D4B36220021200036
:101F800011F0E4FE4E233D220021200011F0DEFE80
:101F9000184B37220021200011F0D8FE43232000E7
:101FA0001322002111F0D2FE002311220021200073
:101FB00011F0CCFE26E7C04618E80108D8C2010897
:101FC000A8CD0008547B0108D0EA0110E8EA01100E
:101FD00000EB011001400000DF11000000000608C6
:101FE0000000180C53100000054000000310000012
:101FF000044000004E40300001AE3200B04B83CBB5
