:020000041000EA
:1004000000C00E08EB0400100D0000004D050010A8
:1004100000000000000000000000000000000000DC
:10042000000000000000000000000000490500106E
:100430000000000000000000490500104905001000
:100440004905001049050010490500104905001034
:100450004905001049050010490500104905001024
:100460004905001049050010490500104905001014
:100470004905001049050010490500104905001004
:1004800010B5064C2378002B07D1054B002B02D06A
:10049000044800E000BF0123237010BDF8050E08DA
:1004A00000000000A46E0010044B10B5002B03D018
:1004B0000349044800E000BF10BDC0460000000032
:1004C000FC050E08A46E00100230800803D0013035
:1004D0000238FCD1C046C0467047EFF3108072B6B8
:1004E000704780F3108870477047FFF7FDFF72B6C2
:1004F0000F4C104DAC4209DA21686268A368043BD6
:1005000002DBC858D050FAE70C34F3E70A490B4A2B
:100510000020521A02DD043A8850FCDC08480949E0
:100520000860BFF34F8F05F0C5FD05F04DFDFEE7F8
:10053000B06E0010C86E0010F8050E08300B0E08E3
:1005400000000E0808ED00E0FEE7FEE700B504201D
:100550007146084202D0EFF3098001E0EFF3088012
:10056000043004F06FFFFEE70300093B0122042B77
:1005700002D920384242424110007047F0B50025B0
:10058000170006002C0089B003930E9B02901B0CF1
:10059000DBB204930E9B00911B0ADBB205930E9B0A
:1005A000DBB20793731C069333780193002B08D0BA
:1005B000009B002B22DB029A731C9B1A009A9A4222
:1005C0001CDA0E9BDBB2002B00D1B4E0019A9A42F8
:1005D00000D0AEE0009B002B06DB029A731C9B1A36
:1005E000009A934200DDA4E0B31C7678032D00D975
:1005F000A1E0280005F0FEFD8989637B0198FFF7E3
:10060000B3FF002839D1079B019A9342D9D04F4EAE
:100610001100300006F0BAF8031E08D1049B019ABD
:1006200093420BD0059B93426FD133003F33032D90
:1006300023D8280005F0DEFD0510233533003E33B6
:10064000F5E7002F06D0039A94425ED23F4A9B1AE8
:100650009B003B55012510E0621C002F0BD0039935
:100660008A4252D239493C195B1A21781811014348
:100670001B012170BB5414000225069E92E7621CE8
:10068000002F0BD003998A423FD230493C195B1AA4
:100690002178981001439B012170BB54140003255D
:1006A000EBE7002F08D0039A94422ED227493A193B
:1006B0005B1A11780B43137001340025DDE71D0030
:1006C000002E22D0009B002B22DB029B009AEB1A0B
:1006D0009A421DDA019BB34217D1009B002B04DD27
:1006E000029B009AEB1A93420FDC2E786B1C029A45
:1006F0009D1A002E04D0009B002B11DBAB420FDAB9
:10070000002F18D03B5D002B15D00124644219E066
:100710003000FFF729FF0028DCD02E780135CFE725
:100720003000FFF721FF0028EFD0029B5E5D01350E
:10073000DFE7002DE9D1039B9C42E6D2002F01D0D8
:1007400000233B55200009B0F0BDC046E069001011
:10075000002210B504001000A15C0B00303B092BF7
:1007600009D830380818531C032A03D000011A0096
:10077000042BF1D110BD0B00413B052B01D83738BC
:10078000F0E70B00613B052B01D85738EAE7002062
:10079000F0E70000F0B50B7885B0039017004D1C12
:1007A000222B17D0116000202AE05C2A07D1019A81
:1007B0005278002AF7D0019A013301320192019A4E
:1007C00001320192019A1278222A00D1A7E0002A70
:1007D000EBD1E8E701950023F4E72B785C2B11D0EF
:1007E000237001350134019B9D42F6D30023039A07
:1007F00023700833D36013000198029A01301A6104
:1008000005B0F0BD6B78662B63D014D82F2B61D068
:1008100007D8222B5ED0484B3D601B680298984752
:10082000C1E75C2B56D0622BF5D10823237001342D
:10083000063BED18D7E7722B50D006D86E2BEAD1C5
:100840000A2323700134083BF3E7742B48D0752B3F
:10085000E1D1019B5B1B052BDDDDA81CFFF778FFB9
:10086000364B374AC31806009342D4D90028D2D059
:10087000344B334AC318934234D8019AAB1DD31A70
:10088000052BC8DDAB795C2BC5D1EB79752BC2D1BB
:1008900028000830FFF75CFF284B294AC318934211
:1008A000B9D8294BB6021E4080238005800D5B021B
:1008B0000643F6180C23254A96421FD9244A96422D
:1008C000A9D83F203040802676420643E6700422B5
:1008D00012E00C23237001340223AAE70D23F9E769
:1008E0000923F7E77F2804D91A4B98420ED906232B
:1008F000E1E7062301222070A4189AE73F20304048
:10090000802676420643A6700322F5E73F20802327
:1009100006405B421E43667086330222ECE7019A72
:10092000501AC01A0C4B04301B6898470290041EE2
:1009300000D058E737E7C04680000E080024FFFFCC
:10094000FF0300000028FFFF00FC0F00FFFF000076
:10095000FFFF1000FF07000084000E08002803D0EE
:100960000378013B1F2B00D970470130F6E70000E8
:10097000064B10B51B6828209847041E03D0282278
:10098000002105F040FE200010BDC04684000E0886
:100990000849094A002803D1084B0B60084B07E0BF
:1009A0000368002B00D1054B0B604368002BF5D08A
:1009B0001360704784000E0880000E08A9650010BF
:1009C000BD650010F8B5802604007600002C00D12B
:1009D000F8BDE3682768334204D1A068002801D03D
:1009E000FFF7F0FFE3680B4D334204D12069002884
:1009F00001D02B6898478022E3689200134204D10B
:100A0000206A002801D02B68984720002B6898475F
:100A10003C00DBE780000E08F0B5040085B00F0055
:100A20001600002901D1002013E004226F4938008C
:100A300005F0CCFE002803D10223E360381D08E056
:100A400005226B49380005F0C1FE002803D1E060A3
:100A5000781D05B0F0BD04226649380005F0B6FEE9
:100A6000002806D101230122E3600023A261E36193
:100A7000E4E73B78222B05D1320039002000FFF754
:100A800089FEE6E72D2B03D01A00303A092A24D834
:100A900000250A2203A93800039505F055FF03003D
:100AA00003988742BFD05A1C0AD1534A914211D1B0
:100AB0000122514B5242A261E3610423E360C8E783
:100AC000002B07D180221206914203D180230022FD
:100AD0001B06F0E7A361E161EFE75B2B35D1781CE2
:100AE000FFF73CFF037805005D2B26D00023013D76
:100AF00001930093FFF73CFF009B071E6FD0002B74
:100B000019D0019B18604360681CFFF727FF320073
:100B100001003800FFF780FFFFF720FF051E06D019
:100B2000037801972C2BE5D05D2B08D0306000981E
:100B3000FFF748FF77E70090E6E7002300931023D4
:100B4000E360009B681CA36083E77B2B4BD1781C80
:100B5000FFF704FF037807007D2B38D00023013F07
:100B600001930093FFF704FF009B051E37D0002B75
:100B700017D0019B18604360781CFFF7EFFE32002E
:100B800001002800FFF706FEFFF7E8FE0028CED0A0
:100B90002B692B6200232B6103783A2B03D0306042
:100BA000C5E70090E8E70130FFF7D8FE320001000A
:100BB0002800FFF731FFFFF7D1FE071EB7D00378FB
:100BC00001952C2BCED07D2B03D03060AFE70023D6
:100BD00000932023E360009B781CA36039E7002B7F
:100BE00000D120E7A3E737601DE7C0461F6A001069
:100BF000246A00102A6A0010FFFFFF7FF7B5050086
:100C00000E0001920F1E00D1144FFFF7B1FE00231A
:100C100004003B6098420DD02800FFF79FFE3A0089
:100C200001002000FFF7F8FE051E05D12000FFF7A8
:100C3000C9FE00242000FEBD019B002B0AD0FFF757
:100C40008DFE03780500002B04D02000FFF7BAFECC
:100C50003D60EEE7002EEDD03560EBE714060E08A0
:100C6000002210B51100FFF7C9FF10BDF0B58DB01F
:100C70001D0012AB40CB02921B780F0003930023A0
:100C800006AA05A90593069300F021F9041E3FD199
:100C9000224B3A0000930699029B0598FFF76EFCE1
:100CA000002838DD022008AA07A9FF30079408941D
:100CB00000F0CAFE002802D06524644228E0290022
:100CC000079800F0E7FC0028F6D1033008AA07A92E
:100CD000FF3000F0B9FE0028EED13100079800F097
:100CE00077FC041E14D109A9380000F008F9041E8D
:100CF0000ED131000A9800F0C7FB041E08D1039AF8
:100D000029000B9800F01AF904000998FFF75AFE21
:100D100020000DB0F0BD1424CFE7C046005F2D00C9
:100D2000F0B51F00002387B00291039204A905AA21
:100D300006000493059300F0CAF8041E1ED105981E
:100D400000F068F8040005F02FFC051E1CD0104BC5
:100D500002000093059923000498FFF70FFC002878
:100D60000FDD039B220000930197029B29003000B6
:100D7000FFF77CFF0400280005F020FC200007B0EE
:100D8000F0BD14246442F6E764246442F6E7C046EA
:100D9000005F2D0010B5010004000B4805F004FDB4
:100DA000002398420DD02100084805F0FDFC0123E6
:100DB000002806D02100064805F0F6FC43424341D6
:100DC0005B00180010BDC0461E6B0010276B0010A2
:100DD0002F6B001010B5010004000B4805F0E4FC77
:100DE000002398420DD02100084805F0DDFC0123C6
:100DF000002806D02100064805F0D6FC43424341B6
:100E00005B00180010BDC046046B00100D6B001095
:100E1000196B00100323584380089843043070472F
:100E2000F8B5C3680D000860202B19D184680E4FF7
:100E3000002C01D12000F8BD266A002E06D031001A
:100E40000A4805F0B1FC002802D16C602468EFE785
:100E50003100380005F0A8FC0028F7D1AC60F5E7B8
:100E600002204042E7E7C0463D6B0010376B0010A0
:100E7000F0B507000D00002491B001AE002D02D1A5
:100E8000280011B0F0BD296A002904D0380005F00F
:100E90008BFC0028F4D0AB68002B06D00E2C12D8A7
:100EA000A200955101341D00E8E72B68002BFAD110
:100EB000002C0AD0013CA3009B591B68002BF2D1E7
:100EC000002CF7D1EFE70025DAE72500D8E7F8B5E1
:100ED0000E002E21170005F059FC041E0CD0451CF5
:100EE0002E21280005F052FC002805D0001B0138F7
:100EF000386000203560F8BD16204042FBE770B531
:100F0000050000200C00FFF743FD2800FFF7A8FEB6
:100F1000002803D02100FFF783FF70BD0520404269
:100F2000FBE7002304220133002901D1904203D9B9
:100F300052001D2BF7D1023318007047F0B589B06D
:100F400005900C000100C6480792FFF791FF0028AA
:100F500000D11FE283680193029300231F000693D0
:100F60000493029B002B42D1019BDB680293202B50
:100F700000D010E2019D2900BA48FFF779FF061E54
:100F800000D198E0037E079A9A4200D093E00100D6
:100F9000B548FFF76DFF002800D189E08369237011
:100FA0003100B248FFF764FF1423002800D08369A2
:100FB0006360002F00D0EEE1019E3100A948FFF7E9
:100FC00057FF00287CD02278037E9A4278D13100E6
:100FD000A748FFF74DFF002800D1FCE028238269D5
:100FE000551E6B43E3181A74022302936FE00299B3
:100FF000A048FFF73DFF002802D08668002E03D1ED
:10100000029B1B680293ACE731009B48FFF730FF5F
:1010100000284BD0036999491800039305F0C4FBDD
:10102000002843D09649039805F0BEFB00283DD028
:101030000025944AAB009958039805F0B5FB071EAC
:1010400005D00135172DF4D10527183D7F42310019
:101050008D48FFF70DFF002801D08369069331000A
:101060008A48FFF705FF002804D0C1698069FFF7AF
:1010700058FF04906B1C19D0049B002B16DDAD2388
:101080006A00A2185B00D35C012B05D12B000F3343
:10109000DB000699E31859605C23FF33D35C012B16
:1010A00004D10F35ED00049B6519AB603668A5E7E8
:1010B00001277F4274E72D68002D00D05BE778E7B9
:1010C0003668002E00D078E7012335000293002E09
:1010D00000D084E031006E48FFF7CAFE002800D03F
:1010E0000FE131006B48FFF7C3FE00280ED00D233F
:1010F0006B43E3183633FF331B78012B06D1C268EC
:101100002733511E8A416B43E3185A7031006248FD
:10111000FFF7AEFE00280ED00D236B43E3183833E3
:10112000FF331B78012B06D1C2682733511E8A4139
:101130006B43E3181A7231005848FFF799FE0028F4
:101140000CD00D236B43E3183833FF331B78012B8E
:1011500004D127336B438269E3185A723100504837
:10116000FFF786FE00280FD00D236B43E3184133B1
:10117000FF331B78012B07D1C2682733511E8A41E8
:101180006B43E3180833DA7731004648FFF770FE07
:10119000002800D1C5E0C368102B00D0C1E08268F0
:1011A0000D211B2000236943684361180390002A26
:1011B00000D1B6E01F003E37FF37CF5D012F04D1CD
:1011C00003981F1890692437C8550133032B00D1A9
:1011D000A7E01268EBE701230500029377E73100EF
:1011E0002448FFF745FE002800D173E78768002FE9
:1011F00000D16FE739002048FFF73AFE00282DD0D4
:1012000003691E491800039305F0CEFA00284BD15C
:1012100039001D48FFF72CFE00280CD00D236B432E
:10122000E3183A33FF331B78012B04D127336B4388
:101230008269E3185A6139001448FFF719FE002843
:101240000CD00D236B43E3183B33FF331B78012B8A
:1012500004D127336B438269E3189A613F68C6E77C
:10126000046B0010A56A0010536A00105A6A00103F
:10127000626A00102F6A00104A6B0010396A001071
:101280003E6A001088000E08466A00104E6A001080
:101290006E6A0010426B0010786A0010806A0010BD
:1012A0008F6A0010966A00106B49039805F07CFA6B
:1012B0000028D3D139006948FFF7DAFD00280CD0A7
:1012C0000D236B43E3183C33FF331B78012B04D110
:1012D00027336B438269E318DA6139006048FFF70E
:1012E000C7FD0028BAD00D236B43E3183C33FF330E
:1012F0001B78012BB2D127336B438269E3181A6242
:10130000ACE70D236B43E3183933FF331B78012B14
:1013100000D0E6E627336B438269E318D2B2DA6085
:10132000DFE631004F48FFF7A3FD28236B43E318A6
:10133000002829D082699A70002D08D131004A48CE
:10134000FFF796FD1423002800D08369E362029B17
:10135000022B1FD1019E31004448FFF789FD002870
:1013600014D08269D3B2022B10D12827551E6F43A7
:10137000E219137431003E48FFF77AFD002801D0CE
:1013800083693B55012330E69870D5E73668002E17
:10139000E1D1F7E7002705993648FFF769FD0028F6
:1013A0002ED0002F2CD13D008668002E28D0310091
:1013B0002B48FFF75DFD00280BD063191A0050324F
:1013C000FF321278012A04D102326A439B188269E3
:1013D0005A6531002848FFF74BFD00280BD06319F0
:1013E0001A004F32FF321278012A04D102326A43C6
:1013F0009B1882691A6502350A2D01D03668D4E738
:1014000005991E48FFF734FD051E22D0002F20D17C
:1014100001001B48FFF72CFD00280AD05A23FF3398
:10142000E35C012B05D1C3685A1E93412200793237
:10143000137029001348FFF71BFD002809D0AC23C7
:101440005B00E35C012B04D1C36878345A1E9341DE
:101450002370380009B0F0BD3E6A0010466A0010E3
:101460004E6A0010A06A00105A6A0010626A0010EA
:10147000A56A0010A86A0010B26A0010B86A0010CD
:10148000C46A0010D06A001070B50C000100164844
:10149000FFF7EEFC051E24D001001448FFF7E8FC1E
:1014A000002806D0E378012B03D10069FFF772FC16
:1014B000207029000E48FFF7DBFC002806D02379B6
:1014C000012B03D10069FFF785FC607029000948F2
:1014D000FFF7CEFC002804D06379012B01D183698A
:1014E000A370002070BDC046E26A0010E56A0010DB
:1014F000F06A0010F86A001070B504000D0086B0A4
:101500000021142201A805F07EF829002000FFF731
:10151000AFFC0400002C18D021001C48FFF7A8FCE9
:101520000028F7D00569002D0AD0194E2900300097
:1015300005F03AF900280BD1310001A805F03EF979
:10154000210001A8FFF794FC0400200006B070BD44
:10155000104E2900300005F027F90028ECD02900B2
:101560000D4805F021F90028E6D00C4E2900300086
:1015700005F01AF90028DFD02900094805F014F910
:101580000028DDD121000748C1E7C0464A6B0010A2
:10159000726B00105B6B0010626B00106A6B0010C6
:1015A0004F6B0010556B001010B5FFF761FC012464
:1015B000002809D08168002906D00448FFF758FCAC
:1015C000002801D0C468E4B2200010BDFC6A0010FD
:1015D000F7B5040000200D00FFF7DAF92000FFF74F
:1015E0003FFB071E4AD001002648FFF741FC041EBE
:1015F00006D1012676423800FFF7E4F93000FEBD3F
:1016000001002148FFF778FF210006001E48FFF780
:10161000CBFF0090002E2BD03069FFF7BBFB6B4651
:1016200000261B782870EB7021001848FFF764FF34
:10163000210000901548FFF7B7FF009B0190002B99
:1016400019D01869FFF7C6FB6B461B7968702B71C0
:1016500021000F48FFF750FF210000900C48FFF7D2
:10166000A3FF009B002BC4D09B696871AB70C2E7DD
:1016700001267642D8E701267642E9E7052676423A
:10168000BCE7C046E26A0010E56A0010F06A00108C
:10169000F86A0010F0B5050085B000200C00FFF7D7
:1016A00077F92800FFF7DCFA0190002800D1A8E1C3
:1016B0000100D648FFF7DCFB051E00D161E1D44FE5
:1016C00001003800FFF718FF290006003800FFF777
:1016D0006BFF002E00D134E19A22B3695200DBB2D5
:1016E0002370A0542200283213704223FF33E054A9
:1016F0000023C84F290038000093FFF7FDFE2900A2
:1017000006003800FFF750FF002E00D11CE1F368FF
:101710005A1E93413622DBB2FF326370A05422007E
:1017200029321370A1235B00E054BB4F290038001D
:10173000FFF7E2FE290006003800FFF735FF002E14
:1017400000D105E1F3685A1E93413822DBB2FF3223
:101750002372A054220030321370A2235B00E054A5
:10176000AE4F29003800FFF7C7FE290006003800F9
:10177000FFF71AFF002E00D1EEE09C22B369520061
:10178000DBB2E360A05463634623FF33E054A44F0D
:1017900029003800FFF7B0FE290006003800FFF7E7
:1017A00003FF002E00D1DBE0B369621DDBB2D3770B
:1017B0003E22FF32A05422004C321370A522520068
:1017C000A054A21DD3779F225200A05422004D3274
:1017D00013704C22FF32A054E21DD3774022FF3217
:1017E000A05422004E321370A6235B00E0548D4EAD
:1017F00029003000FFF780FE290007003000FFF7C6
:10180000D3FE002F00D1AFE0FB685A1E93412200A7
:10181000DBB20832D377A0225200A05422004F320C
:1018200013704E23FF33E05401997F48FFF720FBEC
:101830000600002F00D1A4E03A220123FF32A35476
:10184000D218A3543C22FF32A354D218A35402232B
:10185000764FFF330A32A35202320100A3523800FE
:10186000FFF74AFE310005003800FFF79DFE0390A8
:10187000002D00D17CE0AB6902936D4F3100380040
:10188000FFF73AFE310005003800FFF78DFE002D0E
:1018900000D172E0AD692200210023005B323531B6
:1018A0007C33FF32FF31029E5D601E606E46367BE8
:1018B00008331670507002328B42F4D101995D48A2
:1018C000FFF7D6FA061E69D05B4F01003800FFF71C
:1018D00013FE310005003800FFF766FE0390002D6F
:1018E00053D0AB690293524F31003800FFF704FE2A
:1018F000310005003800FFF757FE002D4AD0AD69D2
:101900002200230021004F325033FF327831029EF3
:101910005D601E606E46367B083350701670023272
:101920009942F4D101994548FFF7A2FA051E39D131
:1019300001235B4200930198FFF744F8009805B03B
:10194000F0BD01235B42D4E601235B420093ECE649
:1019500001235B42009303E701235B42009316E7F8
:1019600001235B42009342E701235B4200935BE764
:1019700001235B42029500937FE701235B420093C2
:1019800089E701235B42009398E701235B420295BC
:101990000093A8E701235B420093B1E701235B4278
:1019A0000093BFE7264F01003800FFF7A5FD29008F
:1019B00006003800FFF7F8FD002E1ED0F3685A1E0F
:1019C0009341220078321370AC235B00E0541D4F2A
:1019D00029003800FFF790FD290006003800FFF7C6
:1019E000E3FD002EA4D0F3685A1E93412200793201
:1019F00013705A23FF33E0549DE701235B420093A9
:101A0000E5E705235B42009398E7C046046B0010AE
:101A1000A56A0010426B0010786A00106E6A001010
:101A2000966A00108F6A00102F6A0010466A001034
:101A30004E6A0010A86A0010B26A0010B86A00105E
:101A4000D06A0010C46A0010DC23F0B59B0585B095
:101A50000093002302AD019502901848184C0668C7
:101A60006B60306A0768002F07DBA34203D10120B7
:101A7000404205B0F0BD0133F4E7A342F7D06B4616
:101A8000C3600123B03683603368C0180023066842
:101A9000002E03DAA342EAD00133F8E7A342E6D0EE
:101AA000A02300981B06984201D00098E1E7029B12
:101AB000002013606B680B60DBE7C04618090E0856
:101AC000983A00000122F0B50024184B0668196806
:101AD00032400B6AB0310D6815495D191F68002F3F
:101AE00006DB8C4202D101204042F0BD0134F5E713
:101AF0008C42F8D0002A00D106000120DE609860F8
:101B000000202C68002C03DA8842ECD00130F8E782
:101B10008842E8D0DB68002A00D11B68A0220020A0
:101B200012069342E1D01800DFE7C04618090E08FC
:101B3000983A00000A4B37B51B780500013B00249A
:101B4000012B05D8074B01A80193FFF7BBFF040049
:101B5000002D02D0280003F02FFC20003EBDC0461F
:101B6000240B0E080101013A07B5034B01A80193AC
:101B7000FFF7A8FF0EBDC0460101003210B5FFF708
:101B8000F3FF002801D104F023FF10BD70B504005D
:101B90001000FFF7CFFF174B1B68002B23DA8023C1
:101BA000154A16499B00D1501549164E0968080080
:101BB00090300D680068281805682E40124D354396
:101BC0000560080015008830096800681E00F13BB8
:101BD0000918FF3B0A681A42FCD0012003F0ECFB15
:101BE000AC51FFF7CBFF200004F0DEFA002004F038
:101BF000D1F8FBE70001264000002040004000161D
:101C000018090E08FCFF00000300FA05014B1860DC
:101C10007047C04618090E08044B1B681A00AC3206
:101C200012881B6A5043C0187047C04618090E0836
:101C30001D4B98420FD010D840282FD005D800282F
:101C400030D0102828D019481EE0802828D08023C2
:101C50005B009842F7D1144816E0154B984214D017
:101C600008D8A0231B0698421CD0124B9842EAD1F8
:101C7000A0200BE0104B98420AD0104B984209D09C
:101C80000F4B9842DFD10F487047A420C003FBE7F9
:101C90000D48F9E70D48F7E70D48F5E70D48F3E77C
:101CA0000D48F1E70020EFE706005200FF00520068
:101CB000010000F0090000A0040000F0050000F0A1
:101CC000030000F001005200020052000300520025
:101CD00001005000020050000500520010B5002025
:101CE000FFF79AFF0A4B1C682300B0331B68C0182B
:101CF0000368002B0ADB074B1868FFF799FF0122E6
:101D000063689A609A68002AFCD110BD0248FCE71B
:101D100018090E0818060E08020050000E4B10B5E8
:101D20001B689C695B69001BC0090001C0181F2368
:101D30001A40032907D8C9008B408A4004689C4395
:101D40002243026010BD0439C9008B408A404468B8
:101D50009C4322434260F5E718090E08F7B50126B7
:101D600037008F4033408B4005681400BD430F2778
:101D70002B4303600A4B08AA12781B68019279333F
:101D80001D788E0045192B683C401A003B00B3407B
:101D9000B4409A4314432C60019AFFF7BFFFF7BD8C
:101DA00018090E08064B1B68B0331B68C3181B6864
:101DB000002B03DA89B24160002070470148FCE73C
:101DC00018090E0801008A000368002B04DA89B2A2
:101DD000C2608160002070470048FCE701008A0073
:101DE000064B1B68B0331B68C3181B68002B03DA53
:101DF000C36800200B6070470148FCE718090E0813
:101E000001008A00024B1A68002A00D1186070474E
:101E10002C060E08F0B52C246043124C1F002468D9
:101E20001E0A2018FF24274034400F4E1B0C356833
:101E300007602E6A44608360AC352D8880346F4320
:101E400064013419BF191E04334307614461A36060
:101E500000238361059BC2610162002B01D01B88B6
:101E60008381F0BD2C060E0818090E08F0B58368B2
:101E700085B002AD2B80154B02681B68066A9B8EED
:101E8000476A9B186B8043680095826AC16A0400A8
:101E900003930369C068FFF7BDFF00213B000A0000
:101EA00000913000FFF7B6FF216B280003F03AFAEB
:101EB0000022AB5E002B06DB1F2213401E3A9A4025
:101EC0001300034A136005B0F0BDC04618090E08A0
:101ED00000E100E0F7B52C25134C68432668694300
:101EE0003418256901937118002D19D088690028CC
:101EF00018D12E68002E15DA6768012426004B6879
:101F00009E40B44613689EB263461B041E4316608F
:101F1000EA608C61BC40019BA4B24B62AC60FEBD28
:101F20000248FCE70248FAE72C060E0804028A0081
:101F300007028A0073B5002642690400D56801963D
:101F40002B0CB34221D01B0413601368194B00699A
:101F50001B68B0331B68C3181B68B34215DA01A9AC
:101F6000FFF73EFFB0420CD10198E26903681E0CF6
:101F7000DBB29A4205D9226A9B009B58002B00D005
:101F8000984731002069FFF70DFFADB2002D09D051
:101F900063691D6000251B68636AAB4205D09847E2
:101FA0006562A56163691B6873BDA36A002BF8D0E5
:101FB0009847F6E718090E082C2310B54343034A47
:101FC0001068C018FFF7B6FF10BDC0462C060E08FB
:101FD000F8B5194B0F001B681A002E321278824296
:101FE00027D9002925D01F250A68154021D11900BD
:101FF000AC310C88114E60431C6AD20804192900C8
:102000007868346004F0FFFA29002000FFF7CAFE68
:102010003A0029003068FFF7D7FE041E07D10100FF
:102020003068FFF7BFFE03002000002B00D00448FB
:10203000F8BD0448FCE7C04618090E0830060E0833
:1020400001018A0003018A0010B5002A0DD1002980
:1020500014D10B4B1A681300AC331B885843136A16
:10206000C018084B1860080010BD002906D0064BA8
:10207000196019005A60FFF7ABFFF5E70348F3E773
:1020800018090E0830060E080400000803018A0033
:10209000F7B5184F04003B680191DE68336883424E
:1020A00026D90025A94202D1FEF717FA05003868A3
:1020B0000368002B1ADA1F2201232240934064098F
:1020C0007268A4001419226813420DD09A4322604A
:1020D00000240021FFF766FE019B002B02D128009F
:1020E000FEF7FFF92000FEBD034CF2E7034CF3E7D7
:1020F000034CF7E730060E08020188000301880050
:1021000004018A000A4B1B68DB681A6882420DD9F9
:1021100059681F23420918401E3B834092005058C3
:102120001840431E9841034BC01870470248FCE713
:1021300030060E080001880004018A00BB4BF0B590
:102140001B6887B01A00AC321188186A8A0012180E
:10215000D06802900088059002984088009002980C
:102160008768C068049005980138062808D804F0EC
:102170004BF86100250044008D0771008A00F601CC
:10218000AB4C6A46029B928A85211A806A4680205F
:1021900012885C605A80049A9F60DA60A34B490100
:1021A0001B6840031A6AAC3350501888515880009D
:1021B00080180021FFF7F6FD07B0F0BD009A9D4B97
:1021C000D20099184968049C0C4001D000F061FFCE
:1021D000481C01D100F060FFD258002A01D100F064
:1021E0005EFF009B0F2B01D900F05CFF13683943A1
:1021F0000B4004990B431360C3E73C00009A8D4BDE
:10220000D200991849680C4001D000F04EFF481CDC
:1022100001D100F04DFFD258002A01D100F04BFF50
:10222000009B0F2B01D900F049FF13680B403B4383
:102230001360A6E7009BDA007E4BD358002B01D138
:1022400000F03FFF009A0F2A01D900F03DFF1F6800
:10225000002496E7002F01D100F039FF764CF022E0
:102260003900200004F0C6F9200001F06DFB734B2B
:1022700004001A68002A00D083E7002800D080E715
:1022800001321A607DE7009867284ED015D82D28B6
:1022900000D1A7E066282AD02C2816D10024B12628
:1022A000674BF6001C80674B1C80604B1B683B3300
:1022B0001B789C4248D9002463E7009A6D2A00D11C
:1022C0002DE104D86C2A00D125E1594C59E7009A38
:1022D0006E2A00D12EE16F2AF7D13878072801D96C
:1022E00000F0F8FE797803F0EBFA002449E7564B4A
:1022F0005A68002F10D1554911401B220A435A60D9
:102300005968534A114359605968114359605968D3
:102310000A435A60002434E7E8214E48890102400C
:10232000114359605A680240F3E703234B439B185B
:102330001A68002AFCDA80220024D96852050A4370
:10234000DA605C605B681CE73F4D002C1ED1B02357
:10235000DB00EB58DB0F17D0200002F021FD022834
:1023600036D1002C17D18020AB593B4A8005134051
:102370001843A8510021200002F0EAFC0123A340E9
:102380002F4A11880B43138001348EE723008033DA
:10239000FF339B00DDE703252B4AA3002F499B1841
:1023A0005A58120F2A4204D05A58120F2A40012AB2
:1023B00006D10122A2401000224D2A881043288015
:1023C0005A58254802408020800510435850D1E7D4
:1023D000002CD9D1AB59204A1A4080239B051343C6
:1023E000AB51D1E7164B184E1C88002C13D1B023EB
:1023F000DB00F358002B00DBC3E6B222184BD200FF
:10240000012174E0013DB3580B40032B08D1002D8E
:1024100068D1144CB5E6A622114DD2000321F2E793
:10242000B358002DEED10F4CABE6C04618090E088C
:10243000FF0F1A011C090E0838060E0828070E089F
:1024400034060E0836060E08000026400000FC0F79
:10245000003A0280FF00FC0FFFFFFFCFFC050000E9
:1024600040420F00FA0F1A010123019A93409BB2D8
:102470000393AA4B039A1B88134210D002210198A0
:1024800002F066FC019B002B14D1B223DB0001217A
:10249000F2580A4201D000F053FE002D1AD1019BE0
:1024A000013301939E4B019A1B683B331B789A4280
:1024B000DAD966E6019A019B9032FF32013B920025
:1024C0000120B158014201D000F048FE002DE6D0B5
:1024D000013DF5E7013DDAE7C022195892050A43AC
:1024E0001A50DCE700238F4C0193DBE7013BB05827
:1024F000084203D1002BF9D18A4C42E6002B08D0C8
:10250000B122C023D200B1589B050B43B350002425
:1025100037E6844C35E603F0B5F9002431E6433361
:102520001B78002B04D0804A93695B005B089361A1
:10253000002426E643337C4A1B785169002B08D0DF
:102540008023DB05194204D0002F04D091690B438E
:102550009361002415E6936974490B40F8E7744AC7
:102560001268002A01D100F0B8FD009808386328ED
:1025700001D900F0B5FD03F047FEDF00EB00FD00E0
:102580001C012801340143014F01B3055B016701C0
:1025900073018801C0010002AB02490362037B039F
:1025A0009403A803BC03CA03D803EC0300040E047D
:1025B0001C04350444045204BB04E404FA042B054F
:1025C0006B05B305B3058405B305B305B305B305C2
:1025D000B305B305B305B305B305B305B305B3053B
:1025E000B305B305B305B305B305B305B305B3052B
:1025F000B305B305B305B305B305B305B305B3051B
:10260000B305B305B305B305B305B305B305B3050A
:10261000B305B305B305B305B305B305B305B305FA
:10262000B305B305B305B305B305B305B305B305EA
:10263000B305B305B305B305B30564008400A40076
:10264000BA0001223B4D6B78E91C01932B792E785F
:102650000393FBB22A706A70CB77002B0ED12A71DC
:10266000280001F071F9041E00D18AE56B461B7940
:102670002E706B706B461B7B2B7182E500232B71D8
:10268000EEE7012100222B4D6B78281D01932B7959
:102690002E780393FBB229706A70C377022B0ED198
:1026A0002971280001F050F9041E00D169E56B463C
:1026B0001B792E706B706B461B7B2B7161E52A7149
:1026C000EFE71C4D2B786E1D0193F37F28000393D9
:1026D00001232B70F37701F037F9041E00D150E588
:1026E0006B461B792B706B461B7BF37749E5114DCD
:1026F0002B786E1D0193F37F2800039301232B7029
:102700000023F37701F020F9041E00D139E56B4670
:102710001B792B706B461B7BF37732E534060E0872
:1027200018090E08FA0F1A0100002640FFFFFFBF2C
:1027300028070E0838060E080023B94D28006E79C8
:102740006B7101F001F9041E00D11AE56E7118E5F4
:10275000B34D6B7A280001930023AE6E6B72AB66AB
:1027600001F0F2F8041E00D10BE56B461B79AE6652
:102770006B7206E5002F01D100F0B5FC3B331B78EE
:10278000BB4201D200F0B2FC0023A54D012F0BD1BA
:10279000AE7AAB72280001F0D7F8041E00D1F0E445
:1027A000012F04D1AE72ECE4EE7AEB72F2E7EE7236
:1027B000E7E401239A4D2800EE79EB7101F0C4F8AB
:1027C000041E00D1DDE4EE71DBE40023944D28000B
:1027D000EE79EB7101F0B8F8041E00D1D1E4EE718E
:1027E000CFE43B008E485A1E9341050055352E78A4
:1027F0002B7001F0A9F8041E00D1C2E42E70C0E4D1
:1028000001238748451CEE7FEB7701F09DF8041EFD
:1028100000D1B6E4EE77B4E400238148451CEE7F96
:10282000EB7701F091F8041E00D1AAE4EE77A8E45A
:1028300001237B4D28002E7A2B7201F085F8041EAF
:1028400000D19EE42E729CE40023754D28002E7A60
:102850002B7201F079F8041E00D192E42E7290E4FC
:102860006F48FBB20500013B5A42534100245635E4
:102870002E782B70037AA34200D182E401F064F831
:10288000041E00D17DE42E707BE4052F01D900F0F9
:1028900030FC3800624D012303F0ACFC0314171A1E
:1028A0001D206E7D6B75280001F04EF8041E00D1CE
:1028B00067E4052F00D964E4380003F09BFC121490
:1028C00016181A1CAE7DAB75EDE7EE7DEB75EAE7E9
:1028D0002E7E2B76E7E76E7E6B76E4E7AE7EAB76F8
:1028E000E1E76E754DE4AE754BE4EE7549E42E7686
:1028F00047E46E7645E4AE7643E4052F01D900F057
:10290000FBFB38000023464D03F074FC0316191C32
:102910001F226E7D6B75280001F016F8041E01D190
:10292000FFF72FFC052F01D9FFF72BFC380003F030
:1029300061FC1215181B1E21AE7DAB75EBE7EE7D19
:10294000EB75E8E72E7E2B76E5E76E7E6B76E2E7A9
:10295000AE7EAB76DFE76E75FFF713FCAE75FFF763
:1029600010FCEE75FFF70DFC2E76FFF70AFC6E7675
:10297000FFF707FCAE76FFF704FC3868052800D99E
:10298000BDE3274C3B79220003F034FC032E3C4E80
:102990005C6A2600A532A8361578137032681800D4
:1029A0000192627DA634039202F0C0FB23781D4998
:1029B000D84003F033FC039B30601C1E01D1FFF7AD
:1029C000E0FB174E300000F0BFFF041E01D1FFF7FF
:1029D000D8FB3868052801D9FFF7D3FB330003F093
:1029E00009FC4D545B6269702600AC32B036157834
:1029F0001370326818000192A27DAD34039202F088
:102A000095FBD3E72600B432B836157813703268D8
:102A100018000192E27DB534039202F087FBC5E70E
:102A200038060E0840420F002600BC32C03615782A
:102A30001370326818000192227EBD34039202F0B6
:102A400075FBB3E72600C432C836157813703268B8
:102A500018000192627EC534039202F067FBA5E77D
:102A60002600CC32D03615781370326818000192E7
:102A7000A27ECD34039202F059FB97E7A5331D7077
:102A8000019BA8363360FFF77CFBAC331D70019BC4
:102A9000B0363360FFF775FBB4331D70019BB83659
:102AA0003360FFF76EFBBC331D70019BC036336093
:102AB000FFF767FBC4331D70019BC8363360FFF717
:102AC00060FBCC331D70019BD0363360FFF759FBA0
:102AD0003868052800D915E3D64B3A791C0003F075
:102AE00089FB032E39444F5A1D00A63421782270E9
:102AF00001915A7DA8352E680392A533187802F00B
:102B000015FB2378CC49D84003F088FB039B286051
:102B10001C1E01D1FFF735FBC64D280000F014FF45
:102B2000041E01D1FFF72DFB3868052801D9FFF7F6
:102B300028FB2B0003F05EFB3A424A525A621D000A
:102B4000AD342178227001919A7DB0352E680392C0
:102B5000AC33D3E71D00B534217822700191DA7DC2
:102B6000B8352E680392B433C8E71D00BD34217810
:102B7000227001911A7EC0352E680392BC33BDE7E6
:102B80001D00C5342178227001915A7EC8352E6807
:102B90000392C433B2E71D00CD3421782270019135
:102BA0009A7ED0352E680392CC33A7E76A46127915
:102BB000A633A8351A702E60FFF7E3FA6A46127939
:102BC000AD33B0351A702E60FFF7DBFA6A46127922
:102BD000B533B8351A702E60FFF7D3FA6A4612790A
:102BE000BD33C0351A702E60FFF7CBFA6A461279F2
:102BF000C533C8351A702E60FFF7C3FA6A461279DA
:102C0000CD33D0351A702E60FFF7BBFA894D2E00F8
:102C1000AB7CA236019333782800039301233770ED
:102C2000AB7400F091FE041E01D1FFF7AAFA6B46C7
:102C30001B7B33706B461B79AB74FFF7A2FA7D4D9B
:102C40002E00A336337828000193EB7C3770039372
:102C50000123EB7400F078FE041E01D1FFF791FA16
:102C60006B461B7933706B461B7BEB74FFF789FA5D
:102C7000704D2E002B7FD6360193337828000393B6
:102C8000012337702B7700F05FFE041E01D1FFF7A0
:102C900078FA6B461B7B33706B461B792B77FFF7FB
:102CA00070FA644800240500D8352E882F80837F71
:102CB000A34201D1FFF765FA00F046FE041E01D1E0
:102CC000FFF75FFA2E80FFF75CFA5A4800240500F0
:102CD000DA352E782F70837FA34201D1FFF751FAA6
:102CE00000F032FE041E01D1FFF74BFA2E70FFF701
:102CF00048FA01234F4D2800AE7FAB7700F024FE49
:102D0000041E01D1FFF73DFAAE77FFF73AFA002330
:102D1000484D2800AE7FAB7700F016FE041E01D1AF
:102D2000FFF72FFAAE77FFF72CFA42480024050090
:102D3000D4352E782F70C37EA34201D1FFF721FA3C
:102D400000F002FE041E01D1FFF71BFA2E70FFF700
:102D500018FA384800240500D5352E782F70C37E28
:102D6000A34201D1FFF70DFA00F0EEFD041E01D1E0
:102D7000FFF707FA2E70FFF704FA01232D4D280004
:102D8000EE7EEB7600F0E0FD041E01D1FFF7F9F9CD
:102D9000EE76FFF7F6F90023264D2800EE7EEB765F
:102DA00000F0D2FD041E01D1FFF7EBF9EE76FFF73C
:102DB000E8F9204D2E006B7FD73601933378280039
:102DC0000393012337706B7700F0BEFD041E01D121
:102DD000FFF7D7F96B461B7B33706B461B796B771C
:102DE000FFF7CFF9134B5C79002C00D08DE13A68E6
:102DF0009A627A68DA62BA681A63FA685A63FFF705
:102E0000C0F901230B4D28006E796B7100F09CFD19
:102E1000041E01D1FFF7B5F96E71FFF7B2F93868FA
:102E2000052800D974E1034B03F0E4F90821282FA9
:102E3000363DC04638060E0840420F001A000121F8
:102E400096321E7B15881973B9881800118000F01E
:102E50007BFD041E01D1FFF794F93868052800D9DD
:102E600059E1C94B03F0C6F9262B30353A3F1A0019
:102E7000012198325E7B15885973E5E71A0001211C
:102E80009A329E7B15889973DEE71A0001219C32E5
:102E9000DE7B1588D973D7E71A0001219E321E7C8C
:102EA00015881974D0E71A000121A0325E7C1588BC
:102EB0005974C9E71E7396331D80FFF762F95E737C
:102EC00098331D80FFF75DF99E739A331D80FFF7DD
:102ED00058F9DE739C331D80FFF753F91E749E333F
:102EE0001D80FFF74EF95E74A0331D80FFF749F98E
:102EF0003A68A54B0024DA661A00B988703211804E
:102F00001A00B979723211701A00F979733211709E
:102F10001A003989743211801A00B97A7632117028
:102F20001A00F97A773211701A00B9897832118053
:102F30001A00B97B7A3211703A8A7C331A80FFF713
:102F400020F9914D6E7A002E00D0E7E00123280091
:102F50006B7200F045FCA866280000F0F5FC041E2A
:102F600001D1FFF70EF9AE666E72FFF70AF93A6803
:102F7000002A00D1D5E03B331B789A4200D9D3E038
:102F80007B681E785D789C78D87819797E4B012A09
:102F900010D11A00843216701A00853215701A008A
:102FA000863214701A00873210708833197000242A
:102FB000FFF7E7F81A00903216701A009132157078
:102FC0001A00923214701A00933210709433EDE7A5
:102FD000012F06D16C4A927A002A09D06B4CFFF778
:102FE000D0F8022F04D1684AD27A002A00D09EE09D
:102FF0003B331B78BB4200D29CE0002F00D19CE009
:10300000614D2900012F14D1380000F007FC2B1D61
:10301000D867AF72280000F097FC041E01D1FFF7BB
:10302000B0F80023012F0DD12A1DD367AB72FFF733
:10303000A8F8022000F0F2FB2B008C33186001236B
:10304000EB72E7E72A008C321360EB72FFF799F816
:103050004D4D2E002B7DA436019333782800039329
:10306000012337702B7500F06FFC041E01D1FFF7B0
:1030700088F86B461B7B33706B461B792B75FFF70B
:1030800080F8414B00249F64FFF77BF80024FFF792
:1030900078F83F4CFFF775F83D4CFFF772F83C4C61
:1030A000FFF76FF83A4CFFF76CF8394CFFF769F807
:1030B000374CFFF766F8364CFFF763F8344CFFF7F0
:1030C00060F8334CFFF75DF8314CFFF75AF8314C9C
:1030D000FFF757F82F4CFFF754F82D4CFFF751F836
:1030E0002B4CFFF74EF82C4CFFF74BF82A4CFFF710
:1030F00048F8274CFFF745F8254CFFF742F8244CD9
:10310000FFF73FF8224CFFF73CF8244CFFF739F863
:103110001F4CFFF736F81E4CFFF733F8204CFFF733
:1031200030F81D4CFFF72DF81B4CFFF72AF8174C11
:10313000FFF727F8154CFFF724F8144CFFF721F898
:10314000002D01D1FFF7ABF9B122C023D200B15855
:103150009B050B43B3500024FFF7A1F9002D01D1CB
:10316000FFF79DF9C0200F4A9B001488039AC00006
:1031700014400D4A9B18002C01D1FFF7ADF91A58E5
:103180000A490A401A50E6E738060E082D0F1A01C0
:10319000FF0F1A01FE0F1A01BD0F1A01590F1A0174
:1031A0003E0F1A0136060E0800002640FFFFFFCF33
:1031B00007B5102200202D4BD100591A8431013A55
:1031C0000860002AF8D12A4919602A4999602A49D9
:1031D00019612A4999612A4919622A4999622A4939
:1031E00019632A4999632A4919642A490968080018
:1031F0003C300078042800D9274A9A640022052828
:1032000000D9264A1A654A68100008309865244893
:103210001866244858662448986624481867244845
:1032200012189A6701225242DA6785220B6A52010C
:103230009B18802252039A606A46042313808B8E67
:1032400068460533538000231A49019302F06AF857
:103250006B4600229B5E002B06DB1F2213401E3AAA
:103260009A401300144A136007BDC0461C090E089B
:10327000080026400007264004072640080726408D
:103280001007264084032640880326408C032640EE
:103290009003264018090E08940326409803264000
:1032A0000400264000FF03F0480526404405264060
:1032B00060F000003D21001000E100E0064B00023C
:1032C0001B68190008311A68CB6F0449D2181368BB
:1032D0000B4018431060704718090E08FF00FFFFED
:1032E000064B00061B68191D1A68CB6FD2181368AD
:1032F0001B021B0A184310607047C04618090E08CD
:10330000064B00021B68191D1A68CB6F0449D218BE
:1033100013680B40184310607047C04618090E0828
:10332000FF00FFFF70B50F4B1B683B331A78431E3D
:10333000591E8B419A4213D90B4B0C4D8000C41877
:1033400063590B4A01201A4080239B0513436351A4
:1033500002F04CF8002063595B005B08635170BDBC
:103360000448FCE718090E0800002640FC05000090
:10337000FFFFFFCF01004A00094B1B683C331B785D
:1033800083420AD9E022074B8000C018920083587C
:103390005B005B088350002070470348FCE7C04691
:1033A00018090E080000264001004A0010B50B4B1A
:1033B0001B683C331B7883420DD90F290BD8E022C0
:1033C0000F24074B8000C01892008358A343194371
:1033D0008150002010BD0348FCE7C04618090E08C4
:1033E0000000264001004A0010B50B4B1B683C331F
:1033F0001B7883420ED903290CD8E0223024074BD6
:103400008000C018920083580901A34319438150DA
:10341000002010BD0248FCE718090E0800002640F5
:1034200001004A0070B504001500FFF7BFFF002837
:1034300001D00C4870BD29002000FFF7D5FF0028FF
:10344000F7D1094B1B683C331B789C42F1D2074BE8
:10345000E022A400E41880239200A1581B060B432D
:10346000A350E7E7FD0F1A0118090E0800002640D7
:10347000032818D004D8012813D028D9886A0FE06F
:103480001223FF33984211D01423FF33984210D0F7
:103490001138FF38434258410E4B40421840023821
:1034A0007047886CFCE7E4310868F9E78020000287
:1034B000F6E7094B1B683D3318780138431E9841E5
:1034C000064B4042184080231B02C018E8E704481E
:1034D000E6E7C046027D000018090E08FE7FFFFFE8
:1034E00000127A0002235B4210B51360314B1400C6
:1034F0001B681A003A321278824258D9052856D8E9
:1035000002F078FE03192E43494F0B7B002B4ED05F
:103510004B7A002B08D00B007A331B78022B03D098
:103520008B6E2360002010BD0B0096331888FFF7C8
:103530009FFF2060F6E74A7B002A38D03B331B7898
:10354000002B0AD08B7A002B07D00B0088331B7816
:10355000022B02D00431CB6FE3E70B009833E5E791
:103560008A7B002A23D03B331B78012B0AD9CB7AE4
:10357000002B07D00B0094331B78022B02D08C3128
:103580000B68CEE70B009A33D0E7CB7B002B0ED035
:103590000B009C33CAE70B7C002B08D00B009E333A
:1035A000C4E74B7C002B02D00B00A033BEE70248DF
:1035B000B9E7C04618090E08FE0F1A01037F002B59
:1035C00008D00300D6331B78012B10D0002B04D079
:1035D000032B15D00220404208E0C07943425841F5
:1035E0000D4B40421840FA23DB01C0187047007AA7
:1035F00043425841094B4042184080231B02F4E7E4
:103600000130C37F002BE5D0054B1B683D33187894
:103610000138431E9841EDE7FE82FFFFFE7FFFFF6A
:1036200018090E08032819D004D801280FD028D96A
:1036300048790DE01223FF33984214D01423FF334E
:10364000984212D0033B98420BD00F4805E088798E
:10365000434258410C4B4042184070470231C87FEA
:10366000F6E7C879F4E7087AF2E70131CB7F002B5F
:10367000EBD0064B1B683D3318780138431E984148
:10368000E8E70020E9E7C046FE0F1A0118090E0816
:1036900010B51B4B1B683A331B7883422DD9052884
:1036A0002BD802F0A7FD030C12181E240B7B002B55
:1036B00023D00B0096331888FFF7B4FF10BD4B7B67
:1036C000002B1AD00B009833F5E78B7B002B14D01E
:1036D0000B009A33EFE7CB7B002B0ED00B009C3313
:1036E000E9E70B7C002B08D00B009E33E3E74B7C13
:1036F000002B02D00B00A033DDE70248DEE7C04616
:1037000018090E08FE0F1A0170B50B4E040033782D
:10371000002583420BD002F039FCA84209D10120D8
:103720000649074A8B58834323438B503470280043
:1037300070BD044DFBE7C0462C070E080000264074
:103740000C0500005C0F1A0170B50026084D094CED
:103750002B59B34208DB02F019FCB04206D180239A
:103760002A591B0613432B51300070BD024EFBE754
:10377000000026400C0500005C0F1A0170B5002502
:103780000A4C0B4EA359AB420CDA02F0FFFBA842E5
:103790000AD1C0235B00E358DB0705D4A3595B00C3
:1037A0005B08A351280070BD024DFBE700002640D6
:1037B0000C0500005C0F1A0110B5040001F040FC7C
:1037C000002801D0044810BD0449200001F014FD78
:1037D0000028F8D0F6E7C046FD0F1A0110270000B8
:1037E000030010B50400963318882100FFF740FE4F
:1037F000030000209A1C0FD02200703211888142F1
:103800000AD0E06E7334584302F008FD21784B1E55
:103810009941013102F002FD10BD000070B5002594
:103820000C00A84221D01B4B1B683B331B78834202
:103830001BD301281BD10B0098331888FFF718FE03
:1038400023002200843385321B7811788634257852
:10385000821C1BD000291BD0002D06D0584302F03B
:10386000DDFC290002F0DAFC0500280070BD02280A
:10387000FBD10B009A331888FFF7FAFD23002200D2
:10388000903391321B7811789234E0E70025ECE711
:103890000D00EAE718090E08F8B504000F00012929
:1038A00032D10300817A427B04309833C66F833073
:1038B0001B8805780020814225D0824231D0180033
:1038C0002100FFF7D5FD184BC018184B984228D897
:1038D0006B1E9D41164B6D421D40164BED18237912
:1038E000002B1AD0AE421CD3134B9E4219D8210094
:1038F0003800FFF793FF301A464270410F4E4042A6
:103900000F4B3040C018F8BD0300C17A827B9A3358
:103910008C301B880668C579CCE7AE4201D3094BD1
:10392000E3E70748EFE7C04600F7C2FF00879303CD
:10393000C863E3FF20BCBE0080F0FA0202F0E5FE9F
:10394000FE0F1A0180D1F008F0B5070091B00028F1
:1039500001D100F0FCFFA621BF4BC9005A58D24349
:1039600092071ED05B584379002B1AD0BB4A836A5A
:103970009B18BB4A934201D900F0ECFFC36A013B9C
:10398000632B01D900F0E6FF036BB64A013B93427B
:1039900001D900F0DFFF436B013B934201D900F0F6
:1039A000D9FFBB79002B0ED03A79BB6C002A00D12D
:1039B00027E1AD4A934201D900F0CFFFFB6C002B09
:1039C00001D100F0CAFF3B7B0293002B0FD0A74B25
:1039D0001B683A331B78002B09D03B0096331888BC
:1039E0003900FFF71FFE002801D000F0B9FF7B7BF4
:1039F0000393002B0FD09D4B1B683A331B78012B90
:103A000009D93B00983318883900FFF70BFE0028CE
:103A100001D000F0A8FFBB7B0493002B0FD0934B89
:103A20001B683A331B78022B09D93B009A3318885C
:103A30003900FFF7F7FD002801D000F097FFFB7B6E
:103A40000593002B0FD0894B1B683A331B78032B4F
:103A500009D93B009C3318883900FFF7E3FD0028A3
:103A600001D000F086FF3B7C0693002B0FD07F4BEC
:103A70001B683A331B78042B09D93B009E33188806
:103A80003900FFF7CFFD002801D000F075FF7B7CE7
:103A90000793002B0FD0754B1B683A331B78052B0F
:103AA00009D93B00A03318883900FFF7BBFD002877
:103AB00001D000F064FFB023674ADB00D358002B2D
:103AC00064DB7B7A002B61D0029B002B01D100F0DC
:103AD00059FF3B00963318883900FFF7C9FC644B47
:103AE000C018644B984201D900F04CFFBC6E624B89
:103AF0003A79E318002A00D185E0604A934201D95F
:103B000000F040FFFB6E5E4A013B934201D900F09A
:103B100039FF3B0070331B885A4A013B9BB29342EA
:103B200001D900F02FFF3B0072331B78042B01D921
:103B300000F028FF3B007433534A1B88934201D99D
:103B400000F020FF3B0076331B780F2B01D900F0EB
:103B500019FF3B0077331B780F2B01D900F012FFC0
:103B60003B00783349491B888B4201D900F00AFF9A
:103B70003B007C331B88934201D900F003FF3800DF
:103B8000FFF72EFEA04201D000F0FCFE374B1D686F
:103B90002B003B331E78002E25D0BB7A002B0DD096
:103BA000C0232D4ADB00D358002B07DB012138004E
:103BB000FFF772FE002801D000F0F9FE0024012E6C
:103BC00011D9FB7A002B20D0002C20D1304B224A77
:103BD000D358002B07DB02213800FFF75DFE0028D9
:103BE00001D000F0D2FE3B7F002B16D03B00D63335
:103BF0001B78012B2ED0002B0CD0032B50D0254C42
:103C000005E0254AD6E6254A78E7002CEBD02000CF
:103C100011B0F0BDFB79002BF1D07B7D002B5AD089
:103C20002B003C331B78002B55D03B00A5331C7870
:103C300039002000FFF72CFD00284CD13A352B78B5
:103C40009C4248D2052C46D8200002F0D3FA3346D5
:103C50004C52585E3B7ADEE70000264000DC0BFF4A
:103C6000C0EA2101E703000080F0FA0218090E08FB
:103C700018FCFFFF18DDF50500CA91FE80BA8C0123
:103C8000FEFF0300FE1F0000FF010000FF1F0000F9
:103C900004060000AF0F1A0100E1F50500AB870430
:103CA0007B1CDB7F002BAAD02B003D331B78012B24
:103CB000B3D0A4E7029B002B0DD03B0096331B88AA
:103CC000002B08D10BAA39002000FFF70BFCC34BD7
:103CD0000B9A9A421FD8C24C99E7039B002BFAD04B
:103CE0003B009833EBE7049B002BF4D03B009A3366
:103CF000E5E7059B002BEED03B009C33DFE7069BFE
:103D0000002BE8D03B009E33D9E7079B002BE2D085
:103D10003B00A033D3E70028DDD13E00A83633684E
:103D2000002BD8D0AF4CB04D6343AB42D3D83B004F
:103D3000A6331B78032BCED8BB7D002B1DD0AB4BFD
:103D40001B683C331B78012B17D93B00AC33187828
:103D50003900FFF79DFC002801D000F0F3FC3B0088
:103D6000AD331A7803331B686343AB4201D900F0CB
:103D7000E9FC032A01D900F0E5FCFB7D002B1DD0F6
:103D80009A4B1B683C331B78022B17D93B00B4338A
:103D900018783900FFF77CFC002801D000F008FDFE
:103DA0003B00B5331A7803331B686343AB4201D938
:103DB00000F0FEFC032A01D900F0FAFC3B7E002B48
:103DC0001DD08A4B1B683C331B78032B17D93B0053
:103DD000BC3318783900FFF75BFC002801D000F0F5
:103DE00002FD3B00BD331A7803331B686343AB42CB
:103DF00001D900F0F8FC032A01D900F0F4FC7B7E25
:103E0000002B1DD0794B1B683C331B78042B17D932
:103E10003B00C43318783900FFF73AFC002801D082
:103E200000F0FCFC3B00C5331A7803331B68634386
:103E3000AB4201D900F0F2FC032A01D900F0EEFCFC
:103E4000BB7E002B1DD0694B1B683C331B78052BB8
:103E500017D93B00CC3318783900FFF719FC00283C
:103E600001D000F0F2FC3B00CD331A7803331B681D
:103E70006343AB4201D900F0E8FC032A01D900F00A
:103E8000E4FCFB7E002B64D17B7F002B00D082E022
:103E9000BB7C002B11D07B7D002B01D100F078FD85
:103EA0003B00A233197830680131604302F0B6F963
:103EB0004F4B984201D900F06BFDFB7C002B01D1E8
:103EC00000F069FD7B7D002B01D100F064FD3068BE
:103ED0006043A84201D900F05EFD3B00A333039389
:103EE0001978013102F09AF93B79002B6CD0414BE3
:103EF000984201D900F04FFDBC7F002C09D03B0057
:103F00000222D8331B88FF32934202D05ED8012BA5
:103F100062D83B7D002B01D100F040FD3B00A43373
:103F200004931978013102F079F9334B984201D9A1
:103F300000F034FDFB7F002B77D03B00DB331B7898
:103F4000012B72D0002B67D0032B00D186E02B4CC5
:103F50005DE63B00D4331B78390018000293FFF76D
:103F600097FB002815D13B00D53303931B78042B16
:103F70000FD80BAA39000298FFF7B4FA002808D12D
:103F8000039B0B9A1B78DA401300194A934200D81E
:103F90007AE71B4C3BE63B00D7331B78002B03D062
:103FA000012B06D0174C32E63B7A002B00D06FE78E
:103FB000F8E73B7F002BF5D03800FFF7FFFA124BF4
:103FC000984200D864E7EDE70B4B91E70F4A934224
:103FD0009FD00F4A93429CD00E4C18E63F0D030031
:103FE0009F0F1A0140420F0080D1F00818090E08F7
:103FF0000084D71740787D0100E1F5058A0F1A018A
:104000008F0F1A018E0F1A01A08601000102000015
:1040100001030000890F1A013B7F002B97D0380065
:10402000FFF7CCFABE4B984291D89621002001F0C0
:1040300021FA3B78002B73D0FB78BA4D002B24D1AA
:1040400000232B707B78002B41D13B1DD87F0228A9
:1040500001D005283FD101F0A7FD45E0002C00D19B
:1040600075E73B000222D8331B88FF329342DCD035
:1040700003D8012B00D96AE7D7E7AB4A9342D4D0E3
:10408000AA4A934200D062E7CFE72B78002BD7D023
:10409000FB79002BD4D001F0C5F90028D0D101F074
:1040A000AFF9002801D0A24CB1E5FFF767FB041E71
:1040B00000D0ACE5FFF748FB041E00D0A7E53B00AD
:1040C00055331878FFF720FB041EB9D09FE5FB1C81
:1040D000D87F012806D97B1DDB7F002B07D101F09B
:1040E000A3FB06E001F008FD0028F4D0DBE701F0B7
:1040F00077FB0028D7D18F4B8F495A6CFF200A409D
:10410000E82189010A435A64BA78002A10D05A6C0F
:10411000120A02403A2A03D1596C884A0A435A6467
:1041200000210800FFF760F900280CD0844C6EE5F0
:104130005A6C120A02403A2AF2D15A6C8148024063
:1041400011435964ECE7B0237F4E804CDB00F258FA
:104150002368D20F3B331B78002B0AD0C021C90043
:104160007158C90F0991012B03D979497158C90FA9
:104170000891797A91425FD1002B53D123683D3366
:104180001B780293012B14D17B1CDB7F714D002B1C
:1041900000D1BEE001F04CFF802372591B0613438F
:1041A0007351029801F008F9C0237259DB051343DB
:1041B00073513B7A002B00D139E101F039FFB86D22
:1041C000002810D0FB6D002B0DD0002500952B0092
:1041D0002A00396EFDF7C2FD00952B002A00796E8A
:1041E000F86DFDF7BBFD3B0056331B785A4A514929
:1041F000002B00D191E00B681A4080235B0213432F
:104200000B6008234B49554D0A6813430B60042289
:10421000484B1B69134200D0B5E0002D00D0ADE043
:104220004F4CF4E4BA7A09998A4205D1012BA5D9F9
:10423000FB7A089A9342A1D00020FFF73FF80120B3
:10424000FFF74EF80020FFF75BF823683B331B783D
:10425000002B0CD123683B331B78012B13D8002192
:10426000012000F075FD002819D03E4CCFE4BB7A48
:10427000002BEFD101F0DCFE0120FFF753F80028FE
:10428000E8D0394CC3E4FB7A002BE8D101F0D0FE32
:104290000220FFF747F80028E1D0344CB7E4E023D0
:1042A0009B00F5580F231D401ED07B7A002B13D1A5
:1042B000B121C90073582E4A1A4080239B0513432D
:1042C000B0227350D200B3585B005B08B350294A48
:1042D000B3585B005B08B3500021080000F038FDC4
:1042E00000280FD0244C92E4280000F059FD12233E
:1042F000FF339842D9D101212800FFF757F8002851
:10430000D3D013E70100FFF751F8002800D135E7BB
:104310000CE77359DB00DB084AE70B6813406FE7D3
:104320000084D717E4000E0801020000010300001A
:104330006F0F1A0100002740FF00FFFF003A002026
:104340000F0F1A01FFC5FFDF0000264018090E08F5
:10435000040600003C050000FFFFFEFF40420F0086
:104360005A0F1A014E0F1A012F0F1A012E0F1A01A0
:10437000FFFFFFCF8C0500004F0F1A01012001F055
:1043800035F8013D43E7002D00D149E73B7F002B85
:1043900019D03B00A0220325D6331B78D20002930C
:1043A0000299B3582B4099420DD001F0EFFD00283F
:1043B00000D0F6E2A0220299D200B3582940AB43C4
:1043C0000D001D43B550A621C90072580223D243E7
:1043D000920702D0012273581340023B59424B41CD
:1043E0007A7993422ED0002A00D183E001F020FE9A
:1043F000B86B002810D0FB6B002B0DD0002500956A
:104400002B002A00396CFDF7A9FC00952B002A002F
:10441000796CF86BFDF7A2FC7B6B3A6BF96AB86AB2
:1044200000F0BCFB002808D0CA4CFFF7F0FB0822C4
:10443000C9490B6893430B60A8E7C84800F04CFCDF
:104440000028F1D1BB79002B0ED0F86C002808D0E1
:104450003B0054331B7808220093396D0023FDF78D
:104460007DFCB86C00F090FBBB7C002B04D03B00C3
:10447000A2331878FEF722FFFB7C002B03D0039BAE
:104480001878FEF72DFF3B7D002B03D0049B187896
:10449000FEF736FF3D00122296352B88FF329342FD
:1044A0002ED13B00A5331978002929D1012000F035
:1044B0004FFC002800D0D8E60121FEF777FF002846
:1044C00000D033E63B7B002B06D02988002000F08B
:1044D0003FFC002800D005E7BB7B002B19D03B0038
:1044E0009A331988022000F033FC002811D09C4C2C
:1044F000FFF78DFB9B4AB3585B005B08B350A1E705
:104500003B0098331988012000F022FC0028D9D004
:10451000ABE6FB7B002B6BD13B7C002B78D17B7C0B
:10452000002B00D086E0B023DB00F358002B00DB2B
:1045300092E03B00A533029319780020FEF736FF86
:10454000002800D0F2E53B00A6331978FEF74CFFB7
:10455000002800D0EAE512222B88FF32934200D1D6
:10456000B4E023683B331B78002B00D0C1E0236804
:104570003B331B78012B24D9FB7A002B21D07A4BBB
:10458000F358002B1DDB3B0090331B780BAD2B70D9
:104590003B0091331B786B703B0092331B78AB7000
:1045A0003B0093331B78EB703B0094331B782B71EB
:1045B00001F03EFD29000220FFF7FEF8002800D0A0
:1045C0006BE6BB7D002B00D1BFE03B00AD331A781A
:1045D000013B19780120FEF725FF002800D0B1E04B
:1045E000FB7D002B00D0CDE00220FEF7C5FED1E020
:1045F00023683A331B78032B8ED93B009C331988F0
:10460000032000F0A5FB002886D0584CFFF7FFFAE6
:1046100023683A331B78042B00D880E73B009E3395
:104620001988042000F094FB002800D177E7504C53
:10463000FFF7EDFA23683A331B78052B00D872E7B1
:104640003B00A0331988052000F082FB002800D130
:1046500069E7484CFFF7DBFA7B7A002B00D168E76B
:1046600001F0E6FCFB6E0BA80B933B0070331B883C
:1046700083803B0072331B7883713B0073331B785C
:10468000C3713B0074331B8803813B0076331B7876
:1046900083723B0077331B78C3723B0078331B88EF
:1046A00083813B007A331B7883733B007C331B8808
:1046B000038200F0C7FB002805D12F4800F04CFC16
:1046C000002800D135E72D4CFFF7A1FA029B1B789B
:1046D000002B00D045E77B7B002B00D1C5E53B00DC
:1046E00098331988012000F033FB002800D138E707
:1046F000BBE5BB7A002B00D139E7C023DB00F358C0
:10470000002B00DA33E73B0084331B780BAD2B70B2
:104710003B0085331B786B703B0086331B78AB7096
:104720003B0087331B78EB703B0088331B782B7181
:1047300001F07EFC29000120FFF73EF8002800D19F
:1047400015E79EE50E4CFFF762FA0120FEF714FE16
:1047500043E7C0465F0F1A0100002740B80B000076
:104760004D0F1A012C050000040600004C0F1A0121
:104770004B0F1A014A0F1A01400D03003F0F1A0197
:104780009E0F1A013B00B5331A78013B19780220BD
:10479000FEF748FE00280BD123683A7E3C331B7895
:1047A000002A08D1032B12D90320FEF7E5FD0CE007
:1047B000824CFFF72CFA032B09D93B00BD331A7842
:1047C000013B19780320FEF72DFE00280BD123684A
:1047D0007A7E3C331B78002A08D1042B12D904209E
:1047E000FEF7CAFD0CE0764CFFF711FA042B09D94D
:1047F0003B00C5331A78013B19780420FEF712FEFE
:1048000000280BD12368BA7E3C331B78002A08D1DC
:10481000052B12D90520FEF7AFFD0CE0694CFFF720
:10482000F6F9052B09D93B00CD331A78013B1978ED
:104830000520FEF7F7FD002807D1BA7F624B002A5A
:1048400006D1F258520052081BE0604CFFF7DFF926
:104850003A00D83214889078F25800045200520876
:10486000F250F1585A4A11405A4A14402143F1502B
:10487000F25859490A400243F2508022F158120678
:104880000A43F250FB7F002B04D03B00DB33187847
:1048900001F060FBA023F97E504ADB00504D002957
:1048A00045D03900D458D4312C40F0250878013156
:1048B00009782D01D4500002D4582840494D0903ED
:1048C0002C402043E024D050E401D0582140464CF5
:1048D00020400143D1508021D05809020143D150DA
:1048E0007B7F002B0CD03B00C021D7331B783F4887
:1048F00089001B0202680B403D490A4013430360D4
:104900003B0055331878FEF7FFFE041E01D0FFF779
:104910007EF9FB79002B0DD0FEF716FF002843D15E
:104920003B78002B09D101F083FBFFF770F9D158D8
:104930002940D4E7FEF722FFF0E77B7D002BF2D081
:104940003B00A8333879196800F094FDEBE7294C57
:10495000FFF75DF9284CFFF75AF9284CFFF757F994
:10496000274CFFF754F9274CFFF751F9264CFFF776
:104970004EF9264CFFF74BF9254CFFF748F9254C2B
:10498000FFF745F9244CFFF742F9244CFFF73FF9B4
:10499000234CFFF73CF9234CFFF739F9224CFFF782
:1049A00036F9224CFFF733F90400FFF730F9204CB9
:1049B000012E01D9FFF705F9FFF729F99D0F1A011B
:1049C0009C0F1A019B0F1A01040500009A0F1A018F
:1049D000FEFCFFFF01030000FFFF00FF0000264078
:1049E000FF7FFFFFFFF0FFFFFF8FFFFF000027406B
:1049F000FFFCFFFFFE0F1A01EF0F1A01EE0F1A0165
:104A0000DF0F1A01DE0F1A01DD0F1A01DC0F1A0188
:104A1000DB0F1A01DA0F1A01CF0F1A01BE0F1A01AC
:104A20008D0F1A018C0F1A018B0F1A011F0F1A011B
:104A3000BF0F1A0137B503230024074D1A002800C1
:104A400000940F2100F08AF828000094230022002F
:104A5000702100F083F837BD801A0140002307B5AC
:104A6000009303331A007F21014800F077F807BD57
:104A7000801A0140F7B5214D01902D6808AC2C3506
:104A80002D7824781F2D36D90C259B002B40093D0D
:104A90002A401A436342634100251B011A430092D6
:104AA0001F272A00490000291ED00026019B9400E0
:104AB0001C1923680120014205D03800B04083430F
:104AC0000098B040034308364908202EF2D12360F5
:104AD000002A03D126685E40BE4307D124689C4269
:104AE00007D10132042ADED12800FEBD044D012287
:104AF000D9E7034DF5E7034DF6E7C04618090E0860
:104B00000300C2000200C200F0230A041B0330B5F8
:104B10001A400F240B0023401A43084B1D688302E0
:104B200028691B188020C0011A5018582040401ACC
:104B3000411E884102494042084030BD18090E0814
:104B40000300C200044B10301B6880021B69C05870
:104B50000F2318407047C04618090E0813B504AC5F
:104B6000247810300094FFF785FF16BDA622054972
:104B7000D2008B580220DB439B0702D001238858C8
:104B80001840704700002640024B984201D8024B63
:104B90001860704700E1F50534070E08F0B51600FF
:104BA0001F003B4A3B4B0C00D15885B0029001924C
:104BB0000393002967DB3849384A4318934264D885
:104BC000631E632B61D8364A731E93425DD8354A03
:104BD0007B1E934259D8FA21F5308900FF3001F04D
:104BE0001DFB05003048310047437008381801F0BC
:104BF00015FB80228446102300201202010011437D
:104C00000F004F43BC4500D30800013B5208002B66
:104C1000F4D12900254B614358434B08C01801F0DB
:104C2000FDFA234B984230D96D43224B2249E818B4
:104C300001F0F4FA644360436421323001F0EEFA8B
:104C40001E49704301F0EAFA03281ED8012801D852
:104C5000012358401A4A019B1A499B5800031940E6
:104C6000194B0B431843019B03999850019B039ADE
:104C700000209A5802231343019A5350134B029A6F
:104C80001A6005B0F0BD1248FBE71248F9E7C046CC
:104C9000000026402C05000000DC0BFFC0EA2101CB
:104CA000E7030000CF07000080841E00B36D020000
:104CB000890200005DF70000BBEE0100A0BB0D0003
:104CC00020FF000008C0FFFFF703000030070E08B8
:104CD00003004A0001004A00124A134B70B5D15834
:104CE000050000291BDB80212C00D0580906014358
:104CF000D150FFF73BFF022801D0002C0AD1002041
:104D0000854206D0601E8441084B60421840084B23
:104D1000C01870BD012000F069FB013CE9E70548BF
:104D2000F7E7C046000026402C050000FEFFB5FF57
:104D300002004A0003004A0010B5FFF717FF0023E6
:104D4000022801D1014B1B68180010BD30070E0866
:104D5000104B1B683A331B78834219D9042910D9A8
:104D60004B1EFF3B132B13D81F2319400A4B800007
:104D7000C018C02304229B00C1504033C250002001
:104D800070470723D0301940034B8000C150F6E72D
:104D90000248F5E718090E080000264001004A0005
:104DA000094A83009B18D02292009858072210408D
:104DB000042807D1C022920098581F230340802066
:104DC000400018437047C0460000264010B5FFF76A
:104DD000E7FF02281CD005D8002814D0012814D0E1
:104DE000002011E01223FF33984214D01423FF3324
:104DF000984218D0033B9842F2D10C4A0C4BD05841
:104E0000C00FC00300E00B4810BD0B4B1868FBE758
:104E1000FFF792FFF8E7094B186904231840F3D015
:104E200080200002F0E7014A054BE8E70000264039
:104E30000C05000000127A0034070E08000027401D
:104E40003C05000070B5B024224AE4001359002B41
:104E50003DDBC17903684D1EA9419B0309069B0BED
:104E60000B431351038984881B491B04E4040B4042
:104E7000E40C2343194C1A4D1351FF24C37AE02646
:104E80001B0123408489F60024022C400F25234374
:104E9000847A2C40C0252343847BAD0524072C4015
:104EA0002343B124E400135183790E4C1B0215599E
:104EB00033400D4E35402B431351038A00201B0411
:104EC00015590B40094929400B43135170BD08483F
:104ED000FCE7C046000026400000FF0184050000FA
:104EE00000FF1F008C050000FFF8FFFFFFFF00FE22
:104EF00003004A00B023154ADB00D35810B59903CC
:104F0000DB01DB0F890BC371114B0160D3580F24F8
:104F1000D904DB01DB0D0381B123DB00D358C90CBD
:104F2000818019002140817219092140C172D90282
:104F30009B009B0F8373074BC90CD35881815A0583
:104F4000DB01520FDB0D8271038210BD0000264091
:104F5000840500008C050000F7B58022B22607000A
:104F60000500324B324C1206E158F6000A43E2507B
:104F700000930422A359134201D1002D35D1B12051
:104F80008023C00022582B499B050A40134323501D
:104F90000191002F01D0002D06D0B0228023D20035
:104FA000A1581B060B43A3500126B223DB00E35894
:104FB000334224D1002D1DD1002F24D0B121C900AE
:104FC0006258019B1C481A4080239B051343B02262
:104FD0006350D200A3585B005B08A350009B009A6B
:104FE000E3585B005B08A350FEBD012000F0FEF912
:104FF000013DBEE7300000F0F9F9013DD5E7002F93
:1050000001D0002DDAD0B122C0230020D200A15857
:105010009B050B43A3508742E6D0681E854168423A
:10502000064D054B2840C018DEE7C0468C05000041
:1050300000002640FFFFFFCF02004A00FEFFB5FF41
:10504000F0B5204B1B683B331B78834233D31E4B98
:1050500080001E4CC0180359002B2ADB8E78B31E2B
:105060000E2B28D84F787B1E112B24D80B78CD78A7
:105070009C46002D21D1152B1DD970239C451AD893
:105080000A79022A0AD07F23614619400B003F02A9
:105090003B4336043343ED062B430351C021120733
:1050A000890503590A400A490B401A43025100205E
:1050B000F0BD0848FCE70848FAE7122BFBD9382373
:1050C000DCE7C04618090E0800002640FC05000079
:1050D000FFFFFFCF03004A0001004A0010B5104B4C
:1050E000421E1B683B331B78934216D97F221F2434
:1050F0008030FF300B4B8000C3581A400A701A0CE6
:105100002240180A8A701A012040E24048700020AC
:105110009B009B0FCA700B7110BD0348FCE7C04693
:1051200018090E080000264001004A00F0B587B0BB
:105130000400FFF74BFE0600002C38D101AD14220D
:105140002100280001F05FFA2800FFF7D3FEB0230A
:10515000274ADB00D358002B03DAAC7B023C631EEA
:105160009C41EA79019F531E9A41A8880132002C84
:105170001AD0002818D0002A16D00023190001F0F8
:10518000F9F800230C0005003A003000190001F086
:10519000F1F8E6076A0832436308801859412A008B
:1051A000230001F0C7F80600300007B0F0BD114B36
:1051B0001B683B331B78A342F6D301AD05220021C7
:1051C000280001F020FA200029008034FFF786FF34
:1051D000FF34074BA400E3580024A34203DA2C79E0
:1051E000023C631E9C412F786878AA78BFE7C046CE
:1051F0000000264018090E08F8B5174B0D001B6873
:105200003B331A78431E9A4223D9144B8000C418AA
:1052100080232E000127124A1B06A1580B43A350DE
:10522000104BE3583B420AD1002E03D1684268413B
:10523000404209E0380000F0D9F8013EF0E7281EAE
:1052400008D0701E86417042074B1840074BC018AB
:1052500000E00748F8BDC04618090E0800002640C7
:10526000FC0500003C060000FEFFB5FF02004A00FE
:1052700001004A00E02210B50124094B8000920091
:10528000C018835880589B069B0F9C400F231840E2
:10529000FFF74CFF63081818210000F0BFFF10BD96
:1052A00000002640144B30B51A6807241300283339
:1052B0001B781F2B15D883081D00A5432C1E0FD16A
:1052C00003342040A040814012689B002032D31854
:1052D0000A00FF2181401C68624011406140196052
:1052E00030BD802320401B06184380239B01126899
:1052F000C91889008850F3E718090E08064B9A6808
:105300000300064810339B00824202D198589950FE
:105310007047034AD058FBE700ED00E000000E089C
:1053200000040010F8B506000D0000283AD0002354
:10533000C05E002828DB7188FFF7B4FF0024FF223D
:10534000032794460023F05E716883B21F40FF007C
:105350006646BA4089013140D243B940002815DB86
:10536000114E83089B009B19C026B6009F593A40F6
:10537000114399510D4B9A680D4B9A4202D1290065
:10538000FFF7BCFF2000F8BD0A4CD8E70F263340DA
:10539000083B064E9B089B009B19DE693240114377
:1053A000D961E7E7034CEDE700E100E000ED00E044
:1053B00000000E080100560070B5802504002D0283
:1053C000AC4205D8064B18686043FBF77DF870BD0A
:1053D000044B1868FBF778F8034BE418F0E7C04675
:1053E000F8000E08F4000E080080FFFF10B5034B14
:1053F0001B785843FBF768F810BDC046FC000E0848
:105400008022054B12069A64986C044BC043C01767
:105410001840034BC018704700002740FDFFB9FF3C
:10542000030046008022054B120198585B68DBB2EE
:10543000002B02D08023DB02184370470000264077
:10544000FEE7000002680A4B10B51A6042685A6015
:1054500082689A60C268DA6002691A6142695A61B8
:1054600082699A61C269DA61FFF7EAFF10BDC0463E
:10547000D8050E08F0B51922002800D14B322A4B6E
:105480008A4292411B6852421C00A43424881D6841
:10549000671903253E68AE4316433E601E68A41993
:1054A0002768224E374027601C00A63424881E68D7
:1054B000A7193E68AE4332433A601A681B4EA218E1
:1054C00014682640166000280ED00020102904D948
:1054D000213088428041404201300F225B681968C8
:1054E000914308431860F0BD1A00513212788A4285
:1054F000F3D21A005232127801208A42EDD21A00F9
:105500005332127800188A42E7D21A0054321278C5
:1055100028008A42E1D21A00553210788842804130
:1055200040420430D9E7C04618090E08FFFCFFFFCF
:10553000B0235B059A89002A02D0988980B270470F
:1055400080204000FBE70000074A084BD058B022FB
:10555000E8235205DB00D35C1F221040C01A431E13
:105560009841C0B27047C046000026401CFF0000B2
:105570000120024B1B68DB0D98437047000026405A
:1055800070B5FFF7D5FF8023194A5B00984215D10B
:1055900011680F240B000222943318680B68181846
:1055A0000368A34313430360080098300B68016845
:1055B0005B181968A1430A431A6070BDB0241268D1
:1055C0000C4B11006405E3580B4D94312B40C02562
:1055D00010680968AD0041180868284003430B6053
:1055E0001100983113680A689B18044AA258E3E72F
:1055F00018090E0848180000FFFCFFFF44180000BF
:1056000070B5FFF795FF80231A4A5B00984215D1C9
:1056100011680F240B000322943318680B681818C4
:105620000368A34313430360080098300B680168C4
:105630005B181968A1430A431A6070BDB024126850
:105640000D4B11006405E3580C4D94312B40C025DF
:1056500010680968AD0041180868284003430B60D2
:105660001100983113680A689B18C1225201A25890
:10567000E2E7C04618090E0824180000FFFCFFFFEF
:1056800010B5FFF755FF8023124A5B0098420DD1F9
:10569000136811491A00943212681B689B181A6823
:1056A0001140C022D2010A431A6010BDB021126815
:1056B0000A4B4905CB581100094894310340C020DA
:1056C0000968126880005218116801400B4313608A
:1056D000EBE7C04618090E08FF8FFFFF1C180000FB
:1056E000FFFCFFFF70B5FFF723FF8023154A5B0027
:1056F00098420DD1136814491A00943212681B683D
:105700009B181A6811408022D2010A431A6070BDAA
:10571000B02412680D4B11006405E3580C4D943110
:105720002B40C02510680968AD0041180868284062
:1057300003430B601100983113680A689B18054AEF
:10574000A258E3E718090E08FF8FFFFF501800006A
:10575000FFFCFFFF4C180000F8B51F4FC0253B6849
:105760002D011A0094321B6812689B181E68FFF7FF
:10577000DFFE340080232C405B0098420FD10020D4
:10578000FFF7E0F9B0235B055A78002A03D05A7876
:105790000123222A01D8434243411800F8BD3B6847
:1057A0000E4F190094311A680868121810683840B2
:1057B00010601A680868121828001768B043384348
:1057C00010601B680A689B1818682840001B431E5D
:1057D0009841C0B2E2E7C04618090E08FFF3FFFF88
:1057E00010B50D4C23689B0613D5FFF7C1FE226848
:1057F00000280CD0094B134323600120FFF7F6FD6E
:10580000802300202268DB051343236010BD044B76
:10581000F1E70448FAE7C0460000264000000417FC
:10582000000004160400420010B5FFF7A1FE104C62
:10583000236800280DD00F4A134023600820FFF78B
:10584000D5FD64232268002A07DB002B03D10A4818
:105850000DE00A4AF0E7013BF4E7002BF7D023689C
:10586000074A012013402360FFF7C0FD002010BD50
:1058700000002640FFFFFBAC02004200FFFFFBAD33
:10588000FFFFFFFB10B50C4B1B6843331B78002B4D
:1058900011D08022094BD2055969114202D15969B0
:1058A0000A435A6180229620996912060A439A6136
:1058B0008000FFF79BFD10BD18090E080000264070
:1058C00070B50C4B1B6843331B78002B11D007229B
:1058D000094DAC691440A0420BD0AB699343024020
:1058E0001343AB61002904D0A04202D9C820FFF7BE
:1058F0007DFD70BD18090E08000026407FB5274BBE
:1059000086000D00F458042901D0012927D1002078
:105910000FE0A3682B420BD1E36829001A685B688B
:1059200002920193039302A8236898471C4B1C60C2
:105930006469002C0BD01B4B9842EAD1012DE8D1B1
:10594000174B18481A68184B9A5104B070BD012DB6
:10595000FBD1144B9842F3D0134B9C51F5E702292D
:1059600006D10F4B1B68181EEFD01C6903E01C000A
:105970006369002BFBD10020002CE6D0A3682B42EA
:1059800009D1E36829001A685B68029201930393C6
:1059900002A8236898472469EEE7C04678070E08F6
:1059A00074070E08FF00420060070E08B02370B5B0
:1059B0005B055A7804002125002A01D05D78EDB2FC
:1059C000FFF7B6FD06000020FFF7BCF88023ADB25C
:1059D0005B00002811D19E4211D1222D0FD88025C5
:1059E0001E4B6D041B68240659681D4B2C40CA5879
:1059F0001C4D2A401443CC5070BD9E4228D0174AFB
:105A00001268156A9E420ED162426241FF235242E1
:105A10009A43154BD21801212800FCF7D5F900282C
:105A200008D01248E8E762426241012352429A4399
:105A30000F4BEFE7094B1B68B0331B68EB181A6874
:105A4000002AFCDBEB6800201B0EA02BE9D1D3E77A
:105A5000222DE6D9014B1B681D6AD5E718090E08EF
:105A600018F00000FFFFFFFE0101003004004200BB
:105A70000300000C70B50500FFF76EFE002834D05F
:105A8000FAF72BFD0600022D17D10120FFF78EFF3C
:105A9000041E0DD1FFF774FD072215494B6993438E
:105AA0002A4013434B61022D15D1FFF7E9FD002475
:105AB0003000FAF716FD200070BD07220C49342093
:105AC0004B6993431A00032313434B61FFF78EFC8A
:105AD000FFF708FEE0E79120FFF788FCFFF790FD55
:105AE0000020FFF763FF0400E2E7024CE3E7C04653
:105AF0000000264003004200F7B50700FFF72CFE28
:105B0000002843D0FAF7E9FCB0230190204D214A48
:105B10005B05002F1CD1AF50E8220120D2009C5C15
:105B2000FFF744FFE4B2061E0DD1FFF729FD1F2148
:105B3000194A0C40AB588B431C43AC50002F1BD16F
:105B4000FFF79EFD3E000198FAF7CBFC3000FEBD4A
:105B5000124903205958A950114A0F499C5C1F2231
:105B60006B58E4B293431A000B2313436B50FFF7B7
:105B70003DFCFFF7B7FDDAE70720FFF737FCFFF73B
:105B80003FFD0020FFF712FF0600DCE7054EDDE7D2
:105B900000002640307F00001CFF000010180000AD
:105BA0004107000003004200F8B50500FFF7E0FCE4
:105BB000002857D0FAF791FC0600022D3CD1FFF7E0
:105BC000C3FC00282ED11F222C482D494358934353
:105BD0001A000B23134343500920FFF707FCE0236F
:105BE000264FDB033A68E120134307223B607B69C1
:105BF000154093431D4380237D617A69DB05134380
:105C00007B6180237A691B0613437B618000FFF769
:105C1000EDFB802300243A681B0413433B60194BBF
:105C2000FC5004E00020FFF767FF041ECBD03000DB
:105C3000FAF757FC2000F8BD052D11D1FFF784FCC1
:105C4000012807D11F220D480D49435893431A00DC
:105C50001B23BFE70120FFF74FFF041EF2D0E6E74A
:105C6000094CE4E70722054B04005B6913409D42A1
:105C7000E0D02800FFF7FEFE0400DBE7000026402E
:105C80001CFF0000307F000003004200194B1B681E
:105C9000190004C9C96F5118096801621900083157
:105CA000C96F5218126842621A0042321278002AF2
:105CB0001FD09A68E0321268D2061AD5F222DB6849
:105CC000D2019A580260F022D2019A5842600A4AE0
:105CD0009A588260094A9A58C260094A9A580261E1
:105CE000084A9A584261084A9A588261074A9B5862
:105CF000C361704718090E08047800000878000096
:105D00000C7800001078000014780000187800006B
:105D1000194B1B681A1D1968D26F8A18016A116025
:105D20001A0008321968D26F8A18416A11601A0085
:105D300042321278002A1ED09A68E0321268D206E7
:105D400019D5F0224168DB68D201995081680B4A6D
:105D50009950C1680A4A995001690A4A99504169A3
:105D6000094A99508169094A9950C169084A99506C
:105D70000168E8329950704718090E08047800004D
:105D8000087800000C7800001078000014780000FB
:105D900018780000B023F7B55B055A780700212674
:105DA000002A01D05E78F6B2624D6B68002B00D0FD
:105DB0007CE0FAF792FB6B680090002B00D088E043
:105DC0005D4C22681300AC33198807234B43126AD9
:105DD0009B181A68002AFCDADB68DA0020D51B0F52
:105DE0001B0756480193FFF751FF5549212E00D05C
:105DF00074E0902022680001131DDC6F13681C19E9
:105E000023680B4003432360130008331268DB6FE1
:105E1000D3181A68114008431860484B019A13437D
:105E20008022454E9205316813430A00AC32108837
:105E3000072200244243096A5218D3605460536811
:105E4000FFF776FB80235B0098425CD1380000F0BE
:105E5000B7FD32681300AC33198807234B43126A2D
:105E60009B181A68002AFCDADF68FB0003D53801AA
:105E70000009FFF74DFF334B32681F401300AC336E
:105E8000198807234B43126A00989B180022DF6091
:105E90005A60FAF726FB002C0FD16B68002B03D059
:105EA00008210120FFF72AFD2000FEBD0121080086
:105EB000FFF724FD041E00D17BE76B68002B03D0A5
:105EC00002210120FFF71AFD1F4B9C42ECD01F4C12
:105ED000EAE704210120FFF711FD71E78022206825
:105EE0005200031DDC6F03681C1923680B40134329
:105EF0002360030008330068DB6FC3181868014093
:105F00000A431A6089E732681300B0331B68126ACB
:105F10009B181B68002B0ADB04230D4A11690B43F5
:105F20001361012F01D030BF93E720BF91E7064CEA
:105F30008FE7C04678070E0818090E0838070E08C4
:105F4000FF00FFFFFFFFFFDF05004200FF004200F0
:105F500000ED00E00B4B042803D11A6810431860D1
:105F60007047094A0006126811009C3109681268DE
:105F70005218C02189040840042110601A688A431D
:105F80001A60EDE710E000E018090E08C023044A8B
:105F90005B00D058800F431E9841C0B27047C04686
:105FA00000002640C0228020064952008B58C005C0
:105FB0009B009B0803438B50802388581B06034398
:105FC0008B5070470000264037B562B680206A4685
:105FD00001A94000FBF738FD104D031E04D1104A03
:105FE00029000198FAF79CFE2B0038331B78002B10
:105FF0000FD08022EB6BD200ED6A9C1806210E2098
:10600000FEF782FD2A0020000121FBF7BFFD0020E2
:106010003EBD80226B695202EEE7C0469C090E0825
:10602000240B0E0810B50020FBF7C6FF10BD70470B
:1060300010B50020FFF71EF9002829D0154B186075
:10604000154B1B681A1D1C68D36FE4182168090ED4
:10605000013100F0E3F8114B18602168090AC9B258
:10606000013100F0DBF80E4B441E18600D49200092
:1060700000F0D4F8FA210C4B013018708900200090
:1060800000F0CCF8094B01301860094BC0031860D0
:1060900010BDC046EC000E0818090E08F0000E08EE
:1060A000E8000E0840420F00FC000E08F8000E0841
:1060B000F4000E0810B52148FBF7A8FDB022E0213E
:1060C00030201F4CD200A35889005B005B08A3500E
:1060D00063588343635080235B04A350194B1A4ACF
:1060E000E250A02204339201E250FF22174BE2500B
:1060F000FFF758FFC02201215200A3588B43A35041
:10610000FFF795FFFFF794FF114B03201A68130068
:10611000AC33198807234B43126A80219B18002255
:10612000DA605A600B4AFBF78FFF0B48FBF76AFEF9
:106130000A48FBF79BFEFDF73BF810BDB06C001062
:106140000000264084050000010002008C050000CC
:1061500018090E080C0000088C070E08646D00106A
:106160009023034A5B01D058032318407047C04670
:106170000000204010B59024FAF7AFF9074B6401F6
:106180001A5907491140074A0A431A5110225968FF
:106190001142FCD0FAF7A5F910BDC046000020401E
:1061A000FCFF00000100FA05F8B590250E4C6D01CA
:1061B0000700FAF792F963590600DB439B0701D108
:1061C000FFF7D8FF80239B00E7506359074A1A4026
:1061D000074B13436351102362681A42FCD030000E
:1061E000FAF77FF9F8BDC04600002040FCFF000030
:1061F0000300FA0502B4714649084900095C4900E8
:106200008E4402BC7047C04603B471464908400042
:106210004900095A49008E4403BC704700224308D4
:106220008B4274D303098B425FD3030A8B4244D35E
:10623000030B8B4228D3030C8B420DD3FF220902A0
:1062400012BA030C8B4202D31212090265D0030B5F
:106250008B4219D300E0090AC30B8B4201D3CB0355
:10626000C01A5241830B8B4201D38B03C01A524197
:10627000430B8B4201D34B03C01A5241030B8B4299
:1062800001D30B03C01A5241C30A8B4201D3CB0284
:10629000C01A5241830A8B4201D38B02C01A524169
:1062A000430A8B4201D34B02C01A5241030A8B426C
:1062B00001D30B02C01A5241CDD2C3098B4201D384
:1062C000CB01C01A524183098B4201D38B01C01A02
:1062D000524143098B4201D34B01C01A5241030979
:1062E0008B4201D30B01C01A5241C3088B4201D328
:1062F000CB00C01A524183088B4201D38B00C01AD5
:10630000524143088B4201D34B00C01A5241411AFB
:1063100000D20146524110467047FFE701B5002008
:1063200000F006F802BDC0460029F7D076E77047B6
:106330007047C046002B11D1002A0FD1002900D18F
:10634000002802D00021C943081C07B4024802A15A
:106350004018029003BDC046D9FFFFFF03B4684652
:1063600001B5029800F030F8019B9E4602B00CBCCB
:106370007047C046F0B5CE46474615042D0C2E009A
:1063800080B50704140C3F0C9946030C7E435D4313
:10639000674363437F19340CE4199C46A54203D933
:1063A00080235B029846C4444B4643435143250C2B
:1063B00036046544360C2404A4195B1959182000CE
:1063C0000CBC90469946F0BDF0B54F464646D646C1
:1063D000C0B5040082B00D00914698468B422FD87C
:1063E0002CD04146484600F0CFF829000600200096
:1063F00000F0CAF8331A9C46203B9A4600D576E056
:106400004B46524693401F004B46624693401E0047
:10641000AF4228D825D05346A41BBD41002B00DA3B
:106420007BE0002200230092019301235246934017
:106430000193012362469340009318E08242D0D931
:1064400000220023009201930A9B002B01D01C60C4
:106450005D600098019902B01CBC90469946A24626
:10646000F0BDA342D7D900220023009201936346D6
:10647000002BE9D0FB079846414672080A437B0887
:1064800066460EE0AB4201D1A2420CD8A41A9D414F
:10649000012024196D410021013E24184D41002E98
:1064A00006D0AB42EED9013E24196D41002EF8D141
:1064B00000980199534600196941002B23DB2B00FA
:1064C0005246D3402A006446E2401C005346150061
:1064D000002B2DDB26005746BE40330026006746C2
:1064E000BE403200801A994100900191ACE76246AB
:1064F00020239B1A4A46DA406146130042468A40EE
:1065000017001F4380E7624620239B1A2A00664635
:106510009A402300F3401343D4E76246202300212E
:106520009B1A0022009101920122DA40019280E739
:106530002023624626009B1ADE402F00B0466646A6
:10654000B74046463B003343C8E7C0461C21012301
:106550001B04984201D3000C10391B0A984201D346
:10656000000A08391B09984201D30009043902A224
:10657000105C40187047C04604030202010101018B
:10658000000000000000000010B5002903D1FFF753
:10659000DDFF203002E0081CFFF7D8FF10BDC04629
:1065A000EC3000687047000010B5034B010018681C
:1065B00000F07CF810BDC04600010E0810B5034B7A
:1065C0000100186800F028F810BDC04600010E0850
:1065D00082B0002900D101A9101E06D0002B06D0E0
:1065E00013780B601078431E984102B07047022068
:1065F0004042FAE7002310B59A4200D110BDCC5CAE
:10660000C4540133F8E703001218934200D17047D5
:1066100019700133F9E7000070B50500002910D0AA
:106620000C1F2368002B00DAE418280000F0ACF9F6
:106630001D4A1368002B05D163601460280000F028
:10664000A4F970BDA34209D9216860188342F3D12F
:1066500018685B6841182160EEE713005A68002A49
:1066600001D0A242F9D919685818A0420BD120686C
:106670000918581819608242E0D110685268411810
:1066800019605A60DAE7A04202D90C232B60D5E7E3
:1066900021686018824203D1106852684118216055
:1066A00062605C60CAE7C0460C090E08032370B53F
:1066B000CD1C9D43083506000C2D1ED20C25A94289
:1066C0001DD8300000F060F9254A14682100002927
:1066D00019D1244C2368002B03D1300000F044F87A
:1066E00020602900300000F03FF8431C2BD10C2320
:1066F0003000336000F049F903E0002DDFDA0C23AD
:106700003360002070BD0B685B1B19D40B2B03D9C1
:106710000B60CC18256003E04B688C420DD11360F0
:10672000300000F032F9200007220B30231D904387
:10673000C31AE7D05A42E250E4E763600C00EFE787
:106740000C004968C3E70323C41C9C43A042E1D06A
:10675000211A300000F008F8431CDBD1C7E7C0461F
:106760000C090E0810090E08002370B5064C050030
:106770000800236000F00AF9431C03D12368002BB2
:1067800000D02B6070BDC0462C0B0E08C9B2037838
:10679000002B04D08B4200D170470130F7E74B4209
:1067A000594149420840F7E702780B78002A03D0A4
:1067B000013001319A42F7D0D01A704703000A78AD
:1067C00001311A700133002AF9D17047002330B526
:1067D0009A420AD0013AC45CCD5CAC4204D19342E7
:1067E00002D00133002CF6D1631B180030BD00002D
:1067F000F0B51F000E008DB00B900291039212981D
:106800003478FFF7CDFE082200194378751C134039
:1068100053D12D2C53D17478B51C01330193002F23
:1068200000D18AE0102F0AD1302C08D120222B78F9
:106830009343582B00D07AE010276C780235019BE7
:10684000002B41D1013B04933E4B05933A00FB17CB
:10685000049805990893FFF76DFD002309900E0039
:10686000002000210A922200303A092A31D814006F
:10687000A7423DDD5A1C1DD0B14236D802D1099B3A
:10688000984232D8099B834206D18E4204D101231B
:106890000A9A5B42A2420DDB0B0002000899380005
:1068A000FFF768FDE31706940793069B079CC01843
:1068B000614101232C780135D5E72E009FE72B2C71
:1068C000ACD1B51C7478A9E70023049380231B0680
:1068D000BBE72200413A192A01D8373CC8E7220019
:1068E000613A192A04D8573CC2E701235B42E1E729
:1068F0005A1C09D10B9A23331360039B0498059902
:10690000002B0ED10DB0F0BD019A002A04D0060074
:106910000F0000217042B941039A002AF2D0002BE7
:1069200001D06B1E0293039B029A1A60EAE730249F
:10693000002F00D083E7082781E7302C00D175E7CE
:106940000A277CE7FFFFFF7F37B51300064A0500E3
:106950001068046A002C00D1044C0A00009429003D
:10696000FFF746FF03B030BD00010E0864010E08BA
:106970000B1E04D0FF2A04D98A2303608B3B180026
:1069800070470A700123FAE770477047044A13689A
:10699000002B00D1034B1818106018007047C04638
:1069A00014090E08300B0E08F8B5C046F8BC08BC38
:1069B0009E467047F8B5C046F8BC08BC9E46704776
:1069C00001B40248844601BC604700BF9D040E0824
:1069D00001B40248844601BC604700BFD9020E08DA
:1069E0004142434445464748494A4B4C4D4E4F501F
:1069F0005152535455565758595A616263646566EB
:106A00006768696A6B6C6D6E6F707172737475769E
:106A10007778797A30313233343536373839006E19
:106A2000756C6C0066616C736500747275650072DC
:106A300065736F757263657300424F4F5400555014
:106A40004752414445006164647265737300736921
:106A50007A65006C61756E6368006163715F776968
:106A60006E006D756C74695F696D616765006D6F4F
:106A70006E6F746F6E696300656E63727970740017
:106A8000656E63727970745F6B65795F69640062CB
:106A900061636B757000626F6F745F61757468001D
:106AA000736D69665F696400726570726F677261A9
:106AB0006D00737461727400726570726F766973C1
:106AC000696F6E00626F6F745F6C6F6164657200F6
:106AD0006B6579735F616E645F706F6C6963696524
:106AE00073006D34007065726D697373696F6E0049
:106AF000636F6E74726F6C006B6579007072657392
:106B0000656E74006669726D7761726500636572A7
:106B10007469666963617465006F70656E006469AD
:106B20007361626C656400656E61626C65640061CE
:106B30006C6C6F77656400646562756700626F6F87
:106B4000745F757067726164650074797065006167
:106B500072726179006974656D73006E756D62653E
:106B60007200696E746567657200626F6F6C656153
:106B70006E00737472696E67006D6178696D756D12
:106B8000006D696E696D756D00464C4153485F50EC
:106B900043315F53504D00464C4153485F504332A0
:106BA00000464C4153485F50433300464C415348E4
:106BB0005F50433400464C4153485F4D41494E5F5E
:106BC000434F444500464C4153485F4D41494E5F59
:106BD000584F00464C4153485F4D41494E5F444138
:106BE000544100464C4153485F5355504552564915
:106BF000534F525900464C4153485F574F524B5FD9
:106C000053454355524500464C4153485F574F52F8
:106C10004B005352414D5F5043305F505249560034
:106C20005352414D5F5043305F50554200535241E3
:106C30004D5F53504D5F50524956005352414D5F86
:106C400053504D5F505542005352414D5F504331B8
:106C50005F50524956005352414D5F5043325F508E
:106C6000524956005352414D5F5043335F50524991
:106C700056005352414D5F5043345F5052495600C5
:106C80005352414D5F4D41494E005352414D5F4477
:106C9000415000534D49465F434F444500534D49D1
:106CA000465F584F00534D49465F444154410000F0
:106CB00000002040000024400000004000000000D0
:106CC00000002340000030400000314000009F40A1
:106CD0000000224000001040202020202010101032
:106CE0001D1D800017007500FF0306020600360414
:106CF000102000007FC00000000400000000000021
:106D00000019324B647D00804000080B1000000029
:106D10000000FF012002001F00800004FF0810187F
:106D2000001000140018001C4044484C50000000A3
:106D3000081000000800000004000000041000001B
:106D400000120000042100000021000000160000D5
:106D500040114002C41300138013A0132000000050
:106D60001C00000003000000010000000100000002
:106D700000000000050360000400000001000000A6
:106D80000000000001000000060460000800000090
:106D9000EC080E08256000104300504F534958007E
:106DA0002E000020202020202020202028282828F5
:106DB00028202020202020202020202020202020CB
:106DC000202020881010101010101010101010101B
:106DD000101010040404040404040404041010102B
:106DE00010101010414141414141010101010101D7
:106DF0000101010101010101010101010101101065
:106E000010101010424242424242020202020202AA
:106E10000202020202020202020202020202101036
:106E20001010200000000000000000000000000022
:106E30000000000000000000000000000000000052
:106E40000000000000000000000000000000000042
:106E50000000000000000000000000000000000032
:106E60000000000000000000000000000000000022
:106E70000000000000000000000000000000000012
:106E80000000000000000000000000000000000002
:106E900000000000000000000000000000000000F2
:086EA0000000000000000000EA
:086EA80020F5FF7F010000004E
:106EB0000004001000000E0880000000D06E0010DA
:086EC00080000E0858050000D7
:086EC800F8050E083805000072
:106ED000BD650010A9650010896B0010976B00104C
:106EE000A16B0010AB6B0010B56B0010C56B0010F0
:106EF000D36B0010E36B0010F56B0010076C0010F3
:106F0000126C0010206C00102D6C00103B6C0010F7
:106F1000486C0010566C0010646C0010726C00100D
:106F2000806C00108A6C0010936C00109D6C001037
:106F3000A56C00100100000000093D0000127A005D
:106F400000093D000000D007A00F00000400000071
:106F500004010E0800000000000000000000000016
:106F60000000000000000000000000000000000021
:106F70000000000000000000000000000000000011
:106F80000000000000000000000000000000000001
:106F900000000000000000000000000000000000F1
:106FA00000000000000000000000000000000000E1
:106FB000000000004300000000000000000000008E
:106FC00000000000000000000000000000000000C1
:106FD000000000004300000000000000000000006E
:106FE00000000000000000000000000000000000A1
:106FF000000000004300000000000000000000004E
:107000000000000000000000000000000000000080
:10701000000000004300000000000000000000002D
:107020000000000000000000000000000000000060
:10703000000000004300000000000000000000000D
:107040000000000000000000000000000000000040
:1070500000000000430000000000000000000000ED
:107060000000000000000000000000000000000020
:1070700000000000430000000000000000000000CD
:107080000000000000000000000000000000000000
:107090000000000071690010D165001000000000C0
:1070A000A26D0010A06D0010A16D0010A16D001068
:1070B000A16D0010A16D0010A16D0010A16D001058
:1070C000A16D0010A16D0010A16D0010FFFFFFFF6A
:1070D000FFFFFFFFFFFFFFFFFFFF00000100415325
:1070E00043494900000000000000000000000000CB
:1070F00000000000000000000000000000004153FC
:1071000043494900000000000000000000000000AA
:10711000000000000000000000000000000000006F
:10712000A904001081040010024A1368002BFCDB44
:107130007047C0460001264010B54378FF2B0BD1A5
:10714000032000F031F9C3685A680123116819431C
:10715000116011681942FCD110BD80B230B5C00079
:1071600020D0114B07221C682300AC331B885A43E4
:10717000236AD31819680029FCDA3E210B4B062537
:1071800019600B4B0B491960A3210B4BC9005D50D3
:107190000A4958505858206A1218002050605A580E
:1071A000002AFCDA30BDC04618090E08040126404A
:1071B000080126401E1F0000000026401C0500009C
:1071C000F7B500900020019100F0EEF83E4D06006A
:1071D0002B681A004C33B03214681B780419002B4A
:1071E0005AD000F0D9F8070003281BD000F014F99A
:1071F000364A374B0500D358002B3EDA354A012179
:10720000300000F0C1F8002837D10198FFF7A5FF42
:10721000009B002B3ED02368002BFCDB00F0ACF879
:1072200004002BE0062000F0BFF82B68B0331B6889
:10723000C0180368002B02DA274C2000FEBD002096
:1072400000F0DAF8254B9842F6D00023244A1900C2
:107250001268012000F0C8F80025A842ECD10020F7
:1072600000F0CAF81D4A1F4B904203D09D42E3D064
:107270000135F4E79D42B9D1DEE7174C032F05D164
:107280000121002000F0C0F80028F9D1280000F00A
:10729000A3F8D2E7144CF1E700F0BEF80D4A050060
:1072A0000121300000F070F8002809D1009B002B6C
:1072B00008D02368002BFCDB00F05EF80400E5E753
:1072C000054CE3E7084CE1E718090E0800002640EA
:1072D0001C05000018060E08050052000101880078
:1072E00028060E08F0490200010050001A4BF7B5BD
:1072F0001B681A4A5C68042311690B431361012857
:1073000028D030BF2300FC331B69002B21D100F0B3
:1073100053F8A320124B1349134AC0000F681E589C
:1073200015680195114D0D6006251D503E20106019
:107330000F483E351D501D58002DFCDA0D48FC3419
:1073400020610F60A321C9005E50019B136000F013
:107350003BF8F7BD20BFD5E718090E0800ED00E0A7
:107360000000264008012640040126401E1F0000A0
:107370001C050000AAAAAAAA01B40248844601BCBE
:10738000604700BFDD1C001001B40248844601BC08
:10739000604700BFC91D001001B40248844601BC0B
:1073A000604700BF6161001001B40248844601BC1F
:1073B000604700BF191C001001B40248844601BC9C
:1073C000604700BF354A001001B40248844601BC42
:1073D000604700BF5D4A001001B40248844601BC0A
:1073E000604700BFE304001001B40248844601BCBA
:1073F000604700BFD51E001001B40248844601BC9E
:10740000604700BF0521001001B40248844601BC5A
:10741000604700BF9120001001B40248844601BCBF
:08742000604700BFDB0400100F
:04000005100004EBF8
:00000001FF
